{"contracts/PatentToken.sol":{"PatentToken":{"abi":[{"inputs":[{"internalType":"string","name":"name","type":"string"},{"internalType":"string","name":"symbol","type":"string"},{"internalType":"address","name":"_patentRegistryAddress","type":"address"},{"internalType":"uint256","name":"_patentId","type":"uint256"},{"internalType":"address","name":"initialOwner","type":"address"}],"stateMutability":"payable","type":"constructor"},{"inputs":[{"internalType":"address","name":"spender","type":"address"},{"internalType":"uint256","name":"allowance","type":"uint256"},{"internalType":"uint256","name":"needed","type":"uint256"}],"name":"ERC20InsufficientAllowance","type":"error"},{"inputs":[{"internalType":"address","name":"sender","type":"address"},{"internalType":"uint256","name":"balance","type":"uint256"},{"internalType":"uint256","name":"needed","type":"uint256"}],"name":"ERC20InsufficientBalance","type":"error"},{"inputs":[{"internalType":"address","name":"approver","type":"address"}],"name":"ERC20InvalidApprover","type":"error"},{"inputs":[{"internalType":"address","name":"receiver","type":"address"}],"name":"ERC20InvalidReceiver","type":"error"},{"inputs":[{"internalType":"address","name":"sender","type":"address"}],"name":"ERC20InvalidSender","type":"error"},{"inputs":[{"internalType":"address","name":"spender","type":"address"}],"name":"ERC20InvalidSpender","type":"error"},{"inputs":[{"internalType":"address","name":"owner","type":"address"}],"name":"OwnableInvalidOwner","type":"error"},{"inputs":[{"internalType":"address","name":"account","type":"address"}],"name":"OwnableUnauthorizedAccount","type":"error"},{"inputs":[],"name":"ReentrancyGuardReentrantCall","type":"error"},{"anonymous":false,"inputs":[{"indexed":true,"internalType":"address","name":"owner","type":"address"},{"indexed":true,"internalType":"address","name":"spender","type":"address"},{"indexed":false,"internalType":"uint256","name":"value","type":"uint256"}],"name":"Approval","type":"event"},{"anonymous":false,"inputs":[{"indexed":true,"internalType":"address","name":"provider","type":"address"},{"indexed":false,"internalType":"uint256","name":"amount","type":"uint256"}],"name":"LiquidityAdded","type":"event"},{"anonymous":false,"inputs":[{"indexed":true,"internalType":"address","name":"provider","type":"address"},{"indexed":false,"internalType":"uint256","name":"amount","type":"uint256"}],"name":"LiquidityRemoved","type":"event"},{"anonymous":false,"inputs":[{"indexed":true,"internalType":"address","name":"previousOwner","type":"address"},{"indexed":true,"internalType":"address","name":"newOwner","type":"address"}],"name":"OwnershipTransferred","type":"event"},{"anonymous":false,"inputs":[{"indexed":false,"internalType":"string","name":"ipfsHash","type":"string"},{"indexed":false,"internalType":"uint256","name":"price","type":"uint256"}],"name":"PatentDetailsUpdated","type":"event"},{"anonymous":false,"inputs":[{"indexed":false,"internalType":"uint256","name":"oldPrice","type":"uint256"},{"indexed":false,"internalType":"uint256","name":"newPrice","type":"uint256"},{"indexed":false,"internalType":"uint256","name":"timestamp","type":"uint256"}],"name":"PriceUpdated","type":"event"},{"anonymous":false,"inputs":[{"indexed":true,"internalType":"address","name":"buyer","type":"address"},{"indexed":false,"internalType":"uint256","name":"amount","type":"uint256"},{"indexed":false,"internalType":"uint256","name":"price","type":"uint256"}],"name":"TokensPurchased","type":"event"},{"anonymous":false,"inputs":[{"indexed":true,"internalType":"address","name":"seller","type":"address"},{"indexed":false,"internalType":"uint256","name":"amount","type":"uint256"},{"indexed":false,"internalType":"uint256","name":"price","type":"uint256"}],"name":"TokensSold","type":"event"},{"anonymous":false,"inputs":[{"indexed":true,"internalType":"address","name":"from","type":"address"},{"indexed":true,"internalType":"address","name":"to","type":"address"},{"indexed":false,"internalType":"uint256","name":"value","type":"uint256"}],"name":"Transfer","type":"event"},{"stateMutability":"payable","type":"fallback"},{"inputs":[],"name":"MAX_SUPPLY","outputs":[{"internalType":"uint256","name":"","type":"uint256"}],"stateMutability":"view","type":"function"},{"inputs":[],"name":"MIN_LIQUIDITY","outputs":[{"internalType":"uint256","name":"","type":"uint256"}],"stateMutability":"view","type":"function"},{"inputs":[],"name":"MIN_PRICE","outputs":[{"internalType":"uint256","name":"","type":"uint256"}],"stateMutability":"view","type":"function"},{"inputs":[{"internalType":"address","name":"owner","type":"address"},{"internalType":"address","name":"spender","type":"address"}],"name":"allowance","outputs":[{"internalType":"uint256","name":"","type":"uint256"}],"stateMutability":"view","type":"function"},{"inputs":[{"internalType":"address","name":"spender","type":"address"},{"internalType":"uint256","name":"value","type":"uint256"}],"name":"approve","outputs":[{"internalType":"bool","name":"","type":"bool"}],"stateMutability":"nonpayable","type":"function"},{"inputs":[{"internalType":"address","name":"account","type":"address"}],"name":"balanceOf","outputs":[{"internalType":"uint256","name":"","type":"uint256"}],"stateMutability":"view","type":"function"},{"inputs":[],"name":"basePrice","outputs":[{"internalType":"uint256","name":"","type":"uint256"}],"stateMutability":"view","type":"function"},{"inputs":[{"internalType":"uint256","name":"amount","type":"uint256"}],"name":"buyTokens","outputs":[],"stateMutability":"payable","type":"function"},{"inputs":[{"internalType":"uint256","name":"amount","type":"uint256"},{"internalType":"bool","name":"isBuy","type":"bool"}],"name":"calculatePrice","outputs":[{"internalType":"uint256","name":"","type":"uint256"}],"stateMutability":"view","type":"function"},{"inputs":[],"name":"currentPrice","outputs":[{"internalType":"uint256","name":"","type":"uint256"}],"stateMutability":"view","type":"function"},{"inputs":[],"name":"decimals","outputs":[{"internalType":"uint8","name":"","type":"uint8"}],"stateMutability":"view","type":"function"},{"inputs":[],"name":"getPatentDetails","outputs":[{"components":[{"internalType":"string","name":"title","type":"string"},{"internalType":"string","name":"ipfsHash","type":"string"},{"internalType":"uint256","name":"price","type":"uint256"},{"internalType":"bool","name":"isForSale","type":"bool"},{"internalType":"address","name":"inventor","type":"address"},{"internalType":"uint256","name":"createdAt","type":"uint256"},{"internalType":"string","name":"patentId","type":"string"},{"internalType":"bool","name":"isVerified","type":"bool"}],"internalType":"struct PatentToken.Patent","name":"","type":"tuple"}],"stateMutability":"view","type":"function"},{"inputs":[],"name":"getTokenMetrics","outputs":[{"internalType":"uint256","name":"_currentPrice","type":"uint256"},{"internalType":"uint256","name":"_basePrice","type":"uint256"},{"internalType":"uint256","name":"_liquidityPool","type":"uint256"},{"internalType":"uint256","name":"_volume24h","type":"uint256"},{"internalType":"uint256","name":"_holdersCount","type":"uint256"},{"internalType":"bool","name":"_isTrading","type":"bool"}],"stateMutability":"view","type":"function"},{"inputs":[{"internalType":"uint256","name":"count","type":"uint256"}],"name":"getTradeHistory","outputs":[{"components":[{"internalType":"uint256","name":"timestamp","type":"uint256"},{"internalType":"uint256","name":"price","type":"uint256"},{"internalType":"uint256","name":"volume","type":"uint256"}],"internalType":"struct PatentToken.TradeMetrics[]","name":"","type":"tuple[]"}],"stateMutability":"view","type":"function"},{"inputs":[],"name":"holdersCount","outputs":[{"internalType":"uint256","name":"","type":"uint256"}],"stateMutability":"view","type":"function"},{"inputs":[],"name":"isTrading","outputs":[{"internalType":"bool","name":"","type":"bool"}],"stateMutability":"view","type":"function"},{"inputs":[],"name":"lastPriceUpdate","outputs":[{"internalType":"uint256","name":"","type":"uint256"}],"stateMutability":"view","type":"function"},{"inputs":[],"name":"liquidityPool","outputs":[{"internalType":"uint256","name":"","type":"uint256"}],"stateMutability":"view","type":"function"},{"inputs":[],"name":"name","outputs":[{"internalType":"string","name":"","type":"string"}],"stateMutability":"view","type":"function"},{"inputs":[],"name":"owner","outputs":[{"internalType":"address","name":"","type":"address"}],"stateMutability":"view","type":"function"},{"inputs":[],"name":"patentDetails","outputs":[{"internalType":"string","name":"title","type":"string"},{"internalType":"string","name":"ipfsHash","type":"string"},{"internalType":"uint256","name":"price","type":"uint256"},{"internalType":"bool","name":"isForSale","type":"bool"},{"internalType":"address","name":"inventor","type":"address"},{"internalType":"uint256","name":"createdAt","type":"uint256"},{"internalType":"string","name":"patentId","type":"string"},{"internalType":"bool","name":"isVerified","type":"bool"}],"stateMutability":"view","type":"function"},{"inputs":[],"name":"patentId","outputs":[{"internalType":"uint256","name":"","type":"uint256"}],"stateMutability":"view","type":"function"},{"inputs":[],"name":"patentRegistryAddress","outputs":[{"internalType":"address","name":"","type":"address"}],"stateMutability":"view","type":"function"},{"inputs":[],"name":"renounceOwnership","outputs":[],"stateMutability":"nonpayable","type":"function"},{"inputs":[{"internalType":"uint256","name":"amount","type":"uint256"}],"name":"sellTokens","outputs":[],"stateMutability":"nonpayable","type":"function"},{"inputs":[{"internalType":"bool","name":"forSale","type":"bool"}],"name":"setPatentForSale","outputs":[],"stateMutability":"nonpayable","type":"function"},{"inputs":[],"name":"symbol","outputs":[{"internalType":"string","name":"","type":"string"}],"stateMutability":"view","type":"function"},{"inputs":[],"name":"totalSupply","outputs":[{"internalType":"uint256","name":"","type":"uint256"}],"stateMutability":"view","type":"function"},{"inputs":[{"internalType":"uint256","name":"","type":"uint256"}],"name":"tradeHistory","outputs":[{"internalType":"uint256","name":"timestamp","type":"uint256"},{"internalType":"uint256","name":"price","type":"uint256"},{"internalType":"uint256","name":"volume","type":"uint256"}],"stateMutability":"view","type":"function"},{"inputs":[{"internalType":"address","name":"to","type":"address"},{"internalType":"uint256","name":"value","type":"uint256"}],"name":"transfer","outputs":[{"internalType":"bool","name":"","type":"bool"}],"stateMutability":"nonpayable","type":"function"},{"inputs":[{"internalType":"address","name":"from","type":"address"},{"internalType":"address","name":"to","type":"address"},{"internalType":"uint256","name":"value","type":"uint256"}],"name":"transferFrom","outputs":[{"internalType":"bool","name":"","type":"bool"}],"stateMutability":"nonpayable","type":"function"},{"inputs":[{"internalType":"address","name":"newOwner","type":"address"}],"name":"transferOwnership","outputs":[],"stateMutability":"nonpayable","type":"function"},{"inputs":[{"internalType":"string","name":"newIpfsHash","type":"string"},{"internalType":"uint256","name":"newPrice","type":"uint256"}],"name":"updatePatentDetails","outputs":[],"stateMutability":"nonpayable","type":"function"},{"inputs":[{"internalType":"address","name":"","type":"address"}],"name":"userTrades","outputs":[{"internalType":"uint256","name":"","type":"uint256"}],"stateMutability":"view","type":"function"},{"inputs":[],"name":"volume24h","outputs":[{"internalType":"uint256","name":"","type":"uint256"}],"stateMutability":"view","type":"function"},{"inputs":[{"internalType":"uint256","name":"amount","type":"uint256"}],"name":"withdrawExcessLiquidity","outputs":[],"stateMutability":"nonpayable","type":"function"},{"stateMutability":"payable","type":"receive"}],"evm":{"bytecode":{"linkReferences":{},"object":"60c060405260405162004723380380620047238339818101604052810190620000299190620009f8565b80858581600390816200003d919062000cff565b5080600490816200004f919062000cff565b505050600073ffffffffffffffffffffffffffffffffffffffff168173ffffffffffffffffffffffffffffffffffffffff1603620000c75760006040517f1e4fbdf7000000000000000000000000000000000000000000000000000000008152600401620000be919062000df7565b60405180910390fd5b620000d8816200044260201b60201c565b50600160068190555067016345785d8a00003410156200012f576040517f08c379a0000000000000000000000000000000000000000000000000000000008152600401620001269062000e75565b60405180910390fd5b6402540be4006007819055506007546008819055508273ffffffffffffffffffffffffffffffffffffffff1660808173ffffffffffffffffffffffffffffffffffffffff16815250508160a081815250506001601460006101000a81548160ff0219169083151502179055504260128190555034601081905550620001d330600269d3c21bcecceda1000000620001c7919062000ef5565b6200050860201b60201c565b620001fd81600269d3c21bcecceda1000000620001f1919062000ef5565b6200050860201b60201c565b60008390506000806000806000806000808873ffffffffffffffffffffffffffffffffffffffff16639c6d0d788c6040518263ffffffff1660e01b815260040162000249919062000f3e565b600060405180830381865afa15801562000267573d6000803e3d6000fd5b505050506040513d6000823e3d601f19601f8201168201806040525081019062000292919062000f98565b9750975097509750975097509750975060405180610100016040528089815260200188815260200187815260200186151581526020018573ffffffffffffffffffffffffffffffffffffffff168152602001848152602001838152602001821515815250600960008201518160000190816200030f919062000cff565b50602082015181600101908162000327919062000cff565b506040820151816002015560608201518160030160006101000a81548160ff02191690831515021790555060808201518160030160016101000a81548173ffffffffffffffffffffffffffffffffffffffff021916908373ffffffffffffffffffffffffffffffffffffffff16021790555060a0820151816004015560c0820151816005019081620003ba919062000cff565b5060e08201518160060160006101000a81548160ff0219169083151502179055509050503373ffffffffffffffffffffffffffffffffffffffff167fc17cea59c2955cb181b03393209566960365771dbba9dc3d510180e7cb3120883460405162000426919062000f3e565b60405180910390a2505050505050505050505050505062001136565b6000600560009054906101000a900473ffffffffffffffffffffffffffffffffffffffff16905081600560006101000a81548173ffffffffffffffffffffffffffffffffffffffff021916908373ffffffffffffffffffffffffffffffffffffffff1602179055508173ffffffffffffffffffffffffffffffffffffffff168173ffffffffffffffffffffffffffffffffffffffff167f8be0079c531659141344cd1fd0a4f28419497f9722a3daafe3b4186f6b6457e060405160405180910390a35050565b600073ffffffffffffffffffffffffffffffffffffffff168273ffffffffffffffffffffffffffffffffffffffff16036200057d5760006040517fec442f0500000000000000000000000000000000000000000000000000000000815260040162000574919062000df7565b60405180910390fd5b62000591600083836200059560201b60201c565b5050565b600073ffffffffffffffffffffffffffffffffffffffff168373ffffffffffffffffffffffffffffffffffffffff1603620005eb578060026000828254620005de9190620010be565b92505081905550620006c1565b60008060008573ffffffffffffffffffffffffffffffffffffffff1673ffffffffffffffffffffffffffffffffffffffff168152602001908152602001600020549050818110156200067a578381836040517fe450d38c0000000000000000000000000000000000000000000000000000000081526004016200067193929190620010f9565b60405180910390fd5b8181036000808673ffffffffffffffffffffffffffffffffffffffff1673ffffffffffffffffffffffffffffffffffffffff16815260200190815260200160002081905550505b600073ffffffffffffffffffffffffffffffffffffffff168273ffffffffffffffffffffffffffffffffffffffff16036200070c578060026000828254039250508190555062000759565b806000808473ffffffffffffffffffffffffffffffffffffffff1673ffffffffffffffffffffffffffffffffffffffff168152602001908152602001600020600082825401925050819055505b8173ffffffffffffffffffffffffffffffffffffffff168373ffffffffffffffffffffffffffffffffffffffff167fddf252ad1be2c89b69c2b068fc378daa952ba7f163c4a11628f55a4df523b3ef83604051620007b8919062000f3e565b60405180910390a3505050565b6000604051905090565b600080fd5b600080fd5b600080fd5b600080fd5b6000601f19601f8301169050919050565b7f4e487b7100000000000000000000000000000000000000000000000000000000600052604160045260246000fd5b6200082e82620007e3565b810181811067ffffffffffffffff8211171562000850576200084f620007f4565b5b80604052505050565b600062000865620007c5565b905062000873828262000823565b919050565b600067ffffffffffffffff821115620008965762000895620007f4565b5b620008a182620007e3565b9050602081019050919050565b60005b83811015620008ce578082015181840152602081019050620008b1565b60008484015250505050565b6000620008f1620008eb8462000878565b62000859565b90508281526020810184848401111562000910576200090f620007de565b5b6200091d848285620008ae565b509392505050565b600082601f8301126200093d576200093c620007d9565b5b81516200094f848260208601620008da565b91505092915050565b600073ffffffffffffffffffffffffffffffffffffffff82169050919050565b6000620009858262000958565b9050919050565b620009978162000978565b8114620009a357600080fd5b50565b600081519050620009b7816200098c565b92915050565b6000819050919050565b620009d281620009bd565b8114620009de57600080fd5b50565b600081519050620009f281620009c7565b92915050565b600080600080600060a0868803121562000a175762000a16620007cf565b5b600086015167ffffffffffffffff81111562000a385762000a37620007d4565b5b62000a468882890162000925565b955050602086015167ffffffffffffffff81111562000a6a5762000a69620007d4565b5b62000a788882890162000925565b945050604062000a8b88828901620009a6565b935050606062000a9e88828901620009e1565b925050608062000ab188828901620009a6565b9150509295509295909350565b600081519050919050565b7f4e487b7100000000000000000000000000000000000000000000000000000000600052602260045260246000fd5b6000600282049050600182168062000b1157607f821691505b60208210810362000b275762000b2662000ac9565b5b50919050565b60008190508160005260206000209050919050565b60006020601f8301049050919050565b600082821b905092915050565b60006008830262000b917fffffffffffffffffffffffffffffffffffffffffffffffffffffffffffffffff8262000b52565b62000b9d868362000b52565b95508019841693508086168417925050509392505050565b6000819050919050565b600062000be062000bda62000bd484620009bd565b62000bb5565b620009bd565b9050919050565b6000819050919050565b62000bfc8362000bbf565b62000c1462000c0b8262000be7565b84845462000b5f565b825550505050565b600090565b62000c2b62000c1c565b62000c3881848462000bf1565b505050565b5b8181101562000c605762000c5460008262000c21565b60018101905062000c3e565b5050565b601f82111562000caf5762000c798162000b2d565b62000c848462000b42565b8101602085101562000c94578190505b62000cac62000ca38562000b42565b83018262000c3d565b50505b505050565b600082821c905092915050565b600062000cd46000198460080262000cb4565b1980831691505092915050565b600062000cef838362000cc1565b9150826002028217905092915050565b62000d0a8262000abe565b67ffffffffffffffff81111562000d265762000d25620007f4565b5b62000d32825462000af8565b62000d3f82828562000c64565b600060209050601f83116001811462000d77576000841562000d62578287015190505b62000d6e858262000ce1565b86555062000dde565b601f19841662000d878662000b2d565b60005b8281101562000db15784890151825560018201915060208501945060208101905062000d8a565b8683101562000dd1578489015162000dcd601f89168262000cc1565b8355505b6001600288020188555050505b505050505050565b62000df18162000978565b82525050565b600060208201905062000e0e600083018462000de6565b92915050565b600082825260208201905092915050565b7f496e73756666696369656e7420696e697469616c206c69717569646974790000600082015250565b600062000e5d601e8362000e14565b915062000e6a8262000e25565b602082019050919050565b6000602082019050818103600083015262000e908162000e4e565b9050919050565b7f4e487b7100000000000000000000000000000000000000000000000000000000600052601260045260246000fd5b7f4e487b7100000000000000000000000000000000000000000000000000000000600052601160045260246000fd5b600062000f0282620009bd565b915062000f0f83620009bd565b92508262000f225762000f2162000e97565b5b828204905092915050565b62000f3881620009bd565b82525050565b600060208201905062000f55600083018462000f2d565b92915050565b60008115159050919050565b62000f728162000f5b565b811462000f7e57600080fd5b50565b60008151905062000f928162000f67565b92915050565b600080600080600080600080610100898b03121562000fbc5762000fbb620007cf565b5b600089015167ffffffffffffffff81111562000fdd5762000fdc620007d4565b5b62000feb8b828c0162000925565b985050602089015167ffffffffffffffff8111156200100f576200100e620007d4565b5b6200101d8b828c0162000925565b9750506040620010308b828c01620009e1565b9650506060620010438b828c0162000f81565b9550506080620010568b828c01620009a6565b94505060a0620010698b828c01620009e1565b93505060c089015167ffffffffffffffff8111156200108d576200108c620007d4565b5b6200109b8b828c0162000925565b92505060e0620010ae8b828c0162000f81565b9150509295985092959890939650565b6000620010cb82620009bd565b9150620010d883620009bd565b9250828201905080821115620010f357620010f262000ec6565b5b92915050565b600060608201905062001110600083018662000de6565b6200111f602083018562000f2d565b6200112e604083018462000f2d565b949350505050565b60805160a0516135c76200115c60003960006117e20152600061115801526135c76000f3fe6080604052600436106102135760003560e01c80636a6ae6061161011857806395d89b41116100a0578063c7876ea41161006f578063c7876ea4146107c1578063d3bc9e2a146107ec578063dd62ed3e14610815578063f0d673f314610852578063f2fde38b146108825761021a565b806395d89b41146107035780639d1b464a1461072e578063a9059cbb14610759578063ad9f20a6146107965761021a565b806370a08231116100e757806370a082311461061c578063715018a6146106595780638654aa3414610670578063873c5e601461069b5780638da5cb5b146106d85761021a565b80636a6ae606146105605780636b4ed21b1461059d5780636c11bcd3146105c85780636e9087db146105f15761021a565b806332cb6b0c1161019b5780635fe3854e1161016a5780635fe3854e146104775780636485b6bb146104b4578063665a11ca146104df57806367bf602b1461050a5780636949faeb146105355761021a565b806332cb6b0c146103bf5780633610724e146103ea57806352dc0f96146104065780635b0c5dbd146104385761021a565b806318160ddd116101e257806318160ddd146102d857806321b77d631461030357806323b872dd1461032e5780632d9e3f621461036b578063313ce567146103945761021a565b8063045fa7791461021c57806306fdde0314610245578063095ea7b314610270578063140b9d84146102ad5761021a565b3661021a57005b005b34801561022857600080fd5b50610243600480360381019061023e9190612507565b6108ab565b005b34801561025157600080fd5b5061025a61090d565b60405161026791906125e2565b60405180910390f35b34801561027c57600080fd5b5061029760048036038101906102929190612662565b61099f565b6040516102a491906126bd565b60405180910390f35b3480156102b957600080fd5b506102c26109c2565b6040516102cf91906126e7565b60405180910390f35b3480156102e457600080fd5b506102ed6109c8565b6040516102fa91906126e7565b60405180910390f35b34801561030f57600080fd5b506103186109d2565b60405161032591906126e7565b60405180910390f35b34801561033a57600080fd5b5061035560048036038101906103509190612702565b6109de565b60405161036291906126bd565b60405180910390f35b34801561037757600080fd5b50610392600480360381019061038d9190612755565b610a0d565b005b3480156103a057600080fd5b506103a9610ad6565b6040516103b6919061279e565b60405180910390f35b3480156103cb57600080fd5b506103d4610adf565b6040516103e191906126e7565b60405180910390f35b61040460048036038101906103ff9190612755565b610aed565b005b34801561041257600080fd5b5061041b610e6d565b60405161042f9897969594939291906127c8565b60405180910390f35b34801561044457600080fd5b5061045f600480360381019061045a9190612755565b611075565b60405161046e9392919061285b565b60405180910390f35b34801561048357600080fd5b5061049e600480360381019061049991906128be565b6110af565b6040516104ab91906126e7565b60405180910390f35b3480156104c057600080fd5b506104c9611156565b6040516104d691906128fe565b60405180910390f35b3480156104eb57600080fd5b506104f461117a565b60405161050191906126e7565b60405180910390f35b34801561051657600080fd5b5061051f611180565b60405161052c9190612a4e565b60405180910390f35b34801561054157600080fd5b5061054a6113f1565b60405161055791906126e7565b60405180910390f35b34801561056c57600080fd5b5061058760048036038101906105829190612a70565b6113f7565b60405161059491906126e7565b60405180910390f35b3480156105a957600080fd5b506105b261140f565b6040516105bf91906126e7565b60405180910390f35b3480156105d457600080fd5b506105ef60048036038101906105ea9190612755565b611415565b005b3480156105fd57600080fd5b50610606611771565b60405161061391906126bd565b60405180910390f35b34801561062857600080fd5b50610643600480360381019061063e9190612a70565b611784565b60405161065091906126e7565b60405180910390f35b34801561066557600080fd5b5061066e6117cc565b005b34801561067c57600080fd5b506106856117e0565b60405161069291906126e7565b60405180910390f35b3480156106a757600080fd5b506106c260048036038101906106bd9190612755565b611804565b6040516106cf9190612b8e565b60405180910390f35b3480156106e457600080fd5b506106ed611919565b6040516106fa91906128fe565b60405180910390f35b34801561070f57600080fd5b50610718611943565b60405161072591906125e2565b60405180910390f35b34801561073a57600080fd5b506107436119d5565b60405161075091906126e7565b60405180910390f35b34801561076557600080fd5b50610780600480360381019061077b9190612662565b6119db565b60405161078d91906126bd565b60405180910390f35b3480156107a257600080fd5b506107ab6119fe565b6040516107b891906126e7565b60405180910390f35b3480156107cd57600080fd5b506107d6611a07565b6040516107e391906126e7565b60405180910390f35b3480156107f857600080fd5b50610813600480360381019061080e9190612bb0565b611a0d565b005b34801561082157600080fd5b5061083c60048036038101906108379190612bdd565b611a35565b60405161084991906126e7565b60405180910390f35b34801561085e57600080fd5b50610867611abc565b60405161087996959493929190612c1d565b60405180910390f35b34801561088e57600080fd5b506108a960048036038101906108a49190612a70565b611af8565b005b6108b3611b7e565b81600960010190816108c59190612e8a565b50806009600201819055507fc0d21bdc9727f7d39495ff4dd003e22925de85f1e81aacfd7caa71e65034e9df8282604051610901929190612f5c565b60405180910390a15050565b60606003805461091c90612cad565b80601f016020809104026020016040519081016040528092919081815260200182805461094890612cad565b80156109955780601f1061096a57610100808354040283529160200191610995565b820191906000526020600020905b81548152906001019060200180831161097857829003601f168201915b5050505050905090565b6000806109aa611c05565b90506109b7818585611c0d565b600191505092915050565b60115481565b6000600254905090565b67016345785d8a000081565b6000806109e9611c05565b90506109f6858285611c1f565b610a01858585611cb4565b60019150509392505050565b610a15611b7e565b8067016345785d8a0000610a299190612fbb565b60105411610a6c576040517f08c379a0000000000000000000000000000000000000000000000000000000008152600401610a639061303b565b60405180910390fd5b8060106000828254610a7e919061305b565b92505081905550610a8d611919565b73ffffffffffffffffffffffffffffffffffffffff166108fc829081150290604051600060405180830381858888f19350505050158015610ad2573d6000803e3d6000fd5b5050565b60006012905090565b69d3c21bcecceda100000081565b610af5611da8565b601460009054906101000a900460ff16610b44576040517f08c379a0000000000000000000000000000000000000000000000000000000008152600401610b3b906130db565b60405180910390fd5b60008111610b87576040517f08c379a0000000000000000000000000000000000000000000000000000000008152600401610b7e90613147565b60405180910390fd5b600960030160009054906101000a900460ff16610bd9576040517f08c379a0000000000000000000000000000000000000000000000000000000008152600401610bd0906131b3565b60405180910390fd5b6000610be430611784565b905080821115610c29576040517f08c379a0000000000000000000000000000000000000000000000000000000008152600401610c209061321f565b60405180910390fd5b6000610c368360016110af565b90506000670de0b6b3a76400008285610c4f919061323f565b610c5991906132b0565b905080341015610c9e576040517f08c379a0000000000000000000000000000000000000000000000000000000008152600401610c959061332d565b60405180910390fd5b610ca9303386611cb4565b60156040518060600160405280428152602001848152602001868152509080600181540180825580915050600190039060005260206000209060030201600090919091909150600082015181600001556020820151816001015560408201518160020155505081600881905550426012819055508360116000828254610d2f9190612fbb565b9250508190555083610d4033611784565b03610d5e5760136000815480929190610d589061334d565b91905055505b8060106000828254610d709190612fbb565b9250508190555080341115610dd2573373ffffffffffffffffffffffffffffffffffffffff166108fc8234610da5919061305b565b9081150290604051600060405180830381858888f19350505050158015610dd0573d6000803e3d6000fd5b505b3373ffffffffffffffffffffffffffffffffffffffff167f8fafebcaf9d154343dad25669bfa277f4fbacd7ac6b0c4fed522580e040a0f338584604051610e1a929190613395565b60405180910390a27f15819dd2fd9f6418b142e798d08a18d0bf06ea368f4480b7b0d3f75bd966bc486008548342604051610e579392919061285b565b60405180910390a1505050610e6a611dee565b50565b6009806000018054610e7e90612cad565b80601f0160208091040260200160405190810160405280929190818152602001828054610eaa90612cad565b8015610ef75780601f10610ecc57610100808354040283529160200191610ef7565b820191906000526020600020905b815481529060010190602001808311610eda57829003601f168201915b505050505090806001018054610f0c90612cad565b80601f0160208091040260200160405190810160405280929190818152602001828054610f3890612cad565b8015610f855780601f10610f5a57610100808354040283529160200191610f85565b820191906000526020600020905b815481529060010190602001808311610f6857829003601f168201915b5050505050908060020154908060030160009054906101000a900460ff16908060030160019054906101000a900473ffffffffffffffffffffffffffffffffffffffff1690806004015490806005018054610fdf90612cad565b80601f016020809104026020016040519081016040528092919081815260200182805461100b90612cad565b80156110585780601f1061102d57610100808354040283529160200191611058565b820191906000526020600020905b81548152906001019060200180831161103b57829003601f168201915b5050505050908060060160009054906101000a900460ff16905088565b6015818154811061108557600080fd5b90600052602060002090600302016000915090508060000154908060010154908060020154905083565b60008083116110f3576040517f08c379a00000000000000000000000000000000000000000000000000000000081526004016110ea90613147565b60405180910390fd5b60006110fe30611784565b90506000670de0b6b3a76400009050600060018361111c9190612fbb565b8287611128919061323f565b61113291906132b0565b90506000816402540be4006111479190612fbb565b90508094505050505092915050565b7f000000000000000000000000000000000000000000000000000000000000000081565b60105481565b6111886122f7565b6009604051806101000160405290816000820180546111a690612cad565b80601f01602080910402602001604051908101604052809291908181526020018280546111d290612cad565b801561121f5780601f106111f45761010080835404028352916020019161121f565b820191906000526020600020905b81548152906001019060200180831161120257829003601f168201915b5050505050815260200160018201805461123890612cad565b80601f016020809104026020016040519081016040528092919081815260200182805461126490612cad565b80156112b15780601f10611286576101008083540402835291602001916112b1565b820191906000526020600020905b81548152906001019060200180831161129457829003601f168201915b50505050508152602001600282015481526020016003820160009054906101000a900460ff161515151581526020016003820160019054906101000a900473ffffffffffffffffffffffffffffffffffffffff1673ffffffffffffffffffffffffffffffffffffffff1673ffffffffffffffffffffffffffffffffffffffff1681526020016004820154815260200160058201805461134f90612cad565b80601f016020809104026020016040519081016040528092919081815260200182805461137b90612cad565b80156113c85780601f1061139d576101008083540402835291602001916113c8565b820191906000526020600020905b8154815290600101906020018083116113ab57829003601f168201915b505050505081526020016006820160009054906101000a900460ff161515151581525050905090565b60125481565b60166020528060005260406000206000915090505481565b60135481565b61141d611da8565b601460009054906101000a900460ff1661146c576040517f08c379a0000000000000000000000000000000000000000000000000000000008152600401611463906130db565b60405180910390fd5b600081116114af576040517f08c379a00000000000000000000000000000000000000000000000000000000081526004016114a690613147565b60405180910390fd5b806114b933611784565b10156114fa576040517f08c379a00000000000000000000000000000000000000000000000000000000081526004016114f19061340a565b60405180910390fd5b60006010541161153f576040517f08c379a000000000000000000000000000000000000000000000000000000000815260040161153690613476565b60405180910390fd5b600061154c8260006110af565b90506000670de0b6b3a76400008284611565919061323f565b61156f91906132b0565b90508060105410156115b6576040517f08c379a00000000000000000000000000000000000000000000000000000000081526004016115ad906134e2565b60405180910390fd5b6115c1333085611cb4565b816008819055504260128190555082601160008282546115e19190612fbb565b9250508190555060006115f333611784565b03611611576013600081548092919061160b90613502565b91905055505b6015604051806060016040528042815260200184815260200185815250908060018154018082558091505060019003906000526020600020906003020160009091909190915060008201518160000155602082015181600101556040820151816002015550508060106000828254611689919061305b565b925050819055503373ffffffffffffffffffffffffffffffffffffffff166108fc829081150290604051600060405180830381858888f193505050501580156116d6573d6000803e3d6000fd5b503373ffffffffffffffffffffffffffffffffffffffff167f2dcf9433d75db0d8b1c172641f85e319ffe4ad22e108a95d1847ceb906e5195d848460405161171f929190613395565b60405180910390a27f15819dd2fd9f6418b142e798d08a18d0bf06ea368f4480b7b0d3f75bd966bc48600854834260405161175c9392919061285b565b60405180910390a1505061176e611dee565b50565b601460009054906101000a900460ff1681565b60008060008373ffffffffffffffffffffffffffffffffffffffff1673ffffffffffffffffffffffffffffffffffffffff168152602001908152602001600020549050919050565b6117d4611b7e565b6117de6000611df8565b565b7f000000000000000000000000000000000000000000000000000000000000000081565b606060006015805490509050600061181c8483611ebe565b905060008167ffffffffffffffff81111561183a576118396123a6565b5b60405190808252806020026020018201604052801561187357816020015b611860612356565b8152602001906001900390816118585790505b50905060005b8281101561190d576015818486611890919061305b565b61189a9190612fbb565b815481106118ab576118aa61352b565b5b906000526020600020906003020160405180606001604052908160008201548152602001600182015481526020016002820154815250508282815181106118f5576118f461352b565b5b60200260200101819052508080600101915050611879565b50809350505050919050565b6000600560009054906101000a900473ffffffffffffffffffffffffffffffffffffffff16905090565b60606004805461195290612cad565b80601f016020809104026020016040519081016040528092919081815260200182805461197e90612cad565b80156119cb5780601f106119a0576101008083540402835291602001916119cb565b820191906000526020600020905b8154815290600101906020018083116119ae57829003601f168201915b5050505050905090565b60085481565b6000806119e6611c05565b90506119f3818585611cb4565b600191505092915050565b6402540be40081565b60075481565b611a15611b7e565b80600960030160006101000a81548160ff02191690831515021790555050565b6000600160008473ffffffffffffffffffffffffffffffffffffffff1673ffffffffffffffffffffffffffffffffffffffff16815260200190815260200160002060008373ffffffffffffffffffffffffffffffffffffffff1673ffffffffffffffffffffffffffffffffffffffff16815260200190815260200160002054905092915050565b600080600080600080600854600754601054601154601354601460009054906101000a900460ff16955095509550955095509550909192939495565b611b00611b7e565b600073ffffffffffffffffffffffffffffffffffffffff168173ffffffffffffffffffffffffffffffffffffffff1603611b725760006040517f1e4fbdf7000000000000000000000000000000000000000000000000000000008152600401611b6991906128fe565b60405180910390fd5b611b7b81611df8565b50565b611b86611c05565b73ffffffffffffffffffffffffffffffffffffffff16611ba4611919565b73ffffffffffffffffffffffffffffffffffffffff1614611c0357611bc7611c05565b6040517f118cdaa7000000000000000000000000000000000000000000000000000000008152600401611bfa91906128fe565b60405180910390fd5b565b600033905090565b611c1a8383836001611ed5565b505050565b6000611c2b8484611a35565b90507fffffffffffffffffffffffffffffffffffffffffffffffffffffffffffffffff811015611cae5781811015611c9e578281836040517ffb8f41b2000000000000000000000000000000000000000000000000000000008152600401611c959392919061355a565b60405180910390fd5b611cad84848484036000611ed5565b5b50505050565b600073ffffffffffffffffffffffffffffffffffffffff168373ffffffffffffffffffffffffffffffffffffffff1603611d265760006040517f96c6fd1e000000000000000000000000000000000000000000000000000000008152600401611d1d91906128fe565b60405180910390fd5b600073ffffffffffffffffffffffffffffffffffffffff168273ffffffffffffffffffffffffffffffffffffffff1603611d985760006040517fec442f05000000000000000000000000000000000000000000000000000000008152600401611d8f91906128fe565b60405180910390fd5b611da38383836120ac565b505050565b600260065403611de4576040517f3ee5aeb500000000000000000000000000000000000000000000000000000000815260040160405180910390fd5b6002600681905550565b6001600681905550565b6000600560009054906101000a900473ffffffffffffffffffffffffffffffffffffffff16905081600560006101000a81548173ffffffffffffffffffffffffffffffffffffffff021916908373ffffffffffffffffffffffffffffffffffffffff1602179055508173ffffffffffffffffffffffffffffffffffffffff168173ffffffffffffffffffffffffffffffffffffffff167f8be0079c531659141344cd1fd0a4f28419497f9722a3daafe3b4186f6b6457e060405160405180910390a35050565b6000611ecd82841084846122d1565b905092915050565b600073ffffffffffffffffffffffffffffffffffffffff168473ffffffffffffffffffffffffffffffffffffffff1603611f475760006040517fe602df05000000000000000000000000000000000000000000000000000000008152600401611f3e91906128fe565b60405180910390fd5b600073ffffffffffffffffffffffffffffffffffffffff168373ffffffffffffffffffffffffffffffffffffffff1603611fb95760006040517f94280d62000000000000000000000000000000000000000000000000000000008152600401611fb091906128fe565b60405180910390fd5b81600160008673ffffffffffffffffffffffffffffffffffffffff1673ffffffffffffffffffffffffffffffffffffffff16815260200190815260200160002060008573ffffffffffffffffffffffffffffffffffffffff1673ffffffffffffffffffffffffffffffffffffffff1681526020019081526020016000208190555080156120a6578273ffffffffffffffffffffffffffffffffffffffff168473ffffffffffffffffffffffffffffffffffffffff167f8c5be1e5ebec7d5bd14f71427d1e84f3dd0314c0f7b2291e5b200ac8c7c3b9258460405161209d91906126e7565b60405180910390a35b50505050565b600073ffffffffffffffffffffffffffffffffffffffff168373ffffffffffffffffffffffffffffffffffffffff16036120fe5780600260008282546120f29190612fbb565b925050819055506121d1565b60008060008573ffffffffffffffffffffffffffffffffffffffff1673ffffffffffffffffffffffffffffffffffffffff1681526020019081526020016000205490508181101561218a578381836040517fe450d38c0000000000000000000000000000000000000000000000000000000081526004016121819392919061355a565b60405180910390fd5b8181036000808673ffffffffffffffffffffffffffffffffffffffff1673ffffffffffffffffffffffffffffffffffffffff16815260200190815260200160002081905550505b600073ffffffffffffffffffffffffffffffffffffffff168273ffffffffffffffffffffffffffffffffffffffff160361221a5780600260008282540392505081905550612267565b806000808473ffffffffffffffffffffffffffffffffffffffff1673ffffffffffffffffffffffffffffffffffffffff168152602001908152602001600020600082825401925050819055505b8173ffffffffffffffffffffffffffffffffffffffff168373ffffffffffffffffffffffffffffffffffffffff167fddf252ad1be2c89b69c2b068fc378daa952ba7f163c4a11628f55a4df523b3ef836040516122c491906126e7565b60405180910390a3505050565b60006122dc846122eb565b82841802821890509392505050565b60008115159050919050565b604051806101000160405280606081526020016060815260200160008152602001600015158152602001600073ffffffffffffffffffffffffffffffffffffffff16815260200160008152602001606081526020016000151581525090565b60405180606001604052806000815260200160008152602001600081525090565b6000604051905090565b600080fd5b600080fd5b600080fd5b600080fd5b6000601f19601f8301169050919050565b7f4e487b7100000000000000000000000000000000000000000000000000000000600052604160045260246000fd5b6123de82612395565b810181811067ffffffffffffffff821117156123fd576123fc6123a6565b5b80604052505050565b6000612410612377565b905061241c82826123d5565b919050565b600067ffffffffffffffff82111561243c5761243b6123a6565b5b61244582612395565b9050602081019050919050565b82818337600083830152505050565b600061247461246f84612421565b612406565b9050828152602081018484840111156124905761248f612390565b5b61249b848285612452565b509392505050565b600082601f8301126124b8576124b761238b565b5b81356124c8848260208601612461565b91505092915050565b6000819050919050565b6124e4816124d1565b81146124ef57600080fd5b50565b600081359050612501816124db565b92915050565b6000806040838503121561251e5761251d612381565b5b600083013567ffffffffffffffff81111561253c5761253b612386565b5b612548858286016124a3565b9250506020612559858286016124f2565b9150509250929050565b600081519050919050565b600082825260208201905092915050565b60005b8381101561259d578082015181840152602081019050612582565b60008484015250505050565b60006125b482612563565b6125be818561256e565b93506125ce81856020860161257f565b6125d781612395565b840191505092915050565b600060208201905081810360008301526125fc81846125a9565b905092915050565b600073ffffffffffffffffffffffffffffffffffffffff82169050919050565b600061262f82612604565b9050919050565b61263f81612624565b811461264a57600080fd5b50565b60008135905061265c81612636565b92915050565b6000806040838503121561267957612678612381565b5b60006126878582860161264d565b9250506020612698858286016124f2565b9150509250929050565b60008115159050919050565b6126b7816126a2565b82525050565b60006020820190506126d260008301846126ae565b92915050565b6126e1816124d1565b82525050565b60006020820190506126fc60008301846126d8565b92915050565b60008060006060848603121561271b5761271a612381565b5b60006127298682870161264d565b935050602061273a8682870161264d565b925050604061274b868287016124f2565b9150509250925092565b60006020828403121561276b5761276a612381565b5b6000612779848285016124f2565b91505092915050565b600060ff82169050919050565b61279881612782565b82525050565b60006020820190506127b3600083018461278f565b92915050565b6127c281612624565b82525050565b60006101008201905081810360008301526127e3818b6125a9565b905081810360208301526127f7818a6125a9565b905061280660408301896126d8565b61281360608301886126ae565b61282060808301876127b9565b61282d60a08301866126d8565b81810360c083015261283f81856125a9565b905061284e60e08301846126ae565b9998505050505050505050565b600060608201905061287060008301866126d8565b61287d60208301856126d8565b61288a60408301846126d8565b949350505050565b61289b816126a2565b81146128a657600080fd5b50565b6000813590506128b881612892565b92915050565b600080604083850312156128d5576128d4612381565b5b60006128e3858286016124f2565b92505060206128f4858286016128a9565b9150509250929050565b600060208201905061291360008301846127b9565b92915050565b600082825260208201905092915050565b600061293582612563565b61293f8185612919565b935061294f81856020860161257f565b61295881612395565b840191505092915050565b61296c816124d1565b82525050565b61297b816126a2565b82525050565b61298a81612624565b82525050565b60006101008301600083015184820360008601526129ae828261292a565b915050602083015184820360208601526129c8828261292a565b91505060408301516129dd6040860182612963565b5060608301516129f06060860182612972565b506080830151612a036080860182612981565b5060a0830151612a1660a0860182612963565b5060c083015184820360c0860152612a2e828261292a565b91505060e0830151612a4360e0860182612972565b508091505092915050565b60006020820190508181036000830152612a688184612990565b905092915050565b600060208284031215612a8657612a85612381565b5b6000612a948482850161264d565b91505092915050565b600081519050919050565b600082825260208201905092915050565b6000819050602082019050919050565b606082016000820151612adf6000850182612963565b506020820151612af26020850182612963565b506040820151612b056040850182612963565b50505050565b6000612b178383612ac9565b60608301905092915050565b6000602082019050919050565b6000612b3b82612a9d565b612b458185612aa8565b9350612b5083612ab9565b8060005b83811015612b81578151612b688882612b0b565b9750612b7383612b23565b925050600181019050612b54565b5085935050505092915050565b60006020820190508181036000830152612ba88184612b30565b905092915050565b600060208284031215612bc657612bc5612381565b5b6000612bd4848285016128a9565b91505092915050565b60008060408385031215612bf457612bf3612381565b5b6000612c028582860161264d565b9250506020612c138582860161264d565b9150509250929050565b600060c082019050612c3260008301896126d8565b612c3f60208301886126d8565b612c4c60408301876126d8565b612c5960608301866126d8565b612c6660808301856126d8565b612c7360a08301846126ae565b979650505050505050565b7f4e487b7100000000000000000000000000000000000000000000000000000000600052602260045260246000fd5b60006002820490506001821680612cc557607f821691505b602082108103612cd857612cd7612c7e565b5b50919050565b60008190508160005260206000209050919050565b60006020601f8301049050919050565b600082821b905092915050565b600060088302612d407fffffffffffffffffffffffffffffffffffffffffffffffffffffffffffffffff82612d03565b612d4a8683612d03565b95508019841693508086168417925050509392505050565b6000819050919050565b6000612d87612d82612d7d846124d1565b612d62565b6124d1565b9050919050565b6000819050919050565b612da183612d6c565b612db5612dad82612d8e565b848454612d10565b825550505050565b600090565b612dca612dbd565b612dd5818484612d98565b505050565b5b81811015612df957612dee600082612dc2565b600181019050612ddb565b5050565b601f821115612e3e57612e0f81612cde565b612e1884612cf3565b81016020851015612e27578190505b612e3b612e3385612cf3565b830182612dda565b50505b505050565b600082821c905092915050565b6000612e6160001984600802612e43565b1980831691505092915050565b6000612e7a8383612e50565b9150826002028217905092915050565b612e9382612563565b67ffffffffffffffff811115612eac57612eab6123a6565b5b612eb68254612cad565b612ec1828285612dfd565b600060209050601f831160018114612ef45760008415612ee2578287015190505b612eec8582612e6e565b865550612f54565b601f198416612f0286612cde565b60005b82811015612f2a57848901518255600182019150602085019450602081019050612f05565b86831015612f475784890151612f43601f891682612e50565b8355505b6001600288020188555050505b505050505050565b60006040820190508181036000830152612f7681856125a9565b9050612f8560208301846126d8565b9392505050565b7f4e487b7100000000000000000000000000000000000000000000000000000000600052601160045260246000fd5b6000612fc6826124d1565b9150612fd1836124d1565b9250828201905080821115612fe957612fe8612f8c565b5b92915050565b7f496e73756666696369656e7420657863657373206c6971756964697479000000600082015250565b6000613025601d8361256e565b915061303082612fef565b602082019050919050565b6000602082019050818103600083015261305481613018565b9050919050565b6000613066826124d1565b9150613071836124d1565b925082820390508181111561308957613088612f8c565b5b92915050565b7f54726164696e6720697320706175736564000000000000000000000000000000600082015250565b60006130c560118361256e565b91506130d08261308f565b602082019050919050565b600060208201905081810360008301526130f4816130b8565b9050919050565b7f416d6f756e74206d7573742062652067726561746572207468616e2030000000600082015250565b6000613131601d8361256e565b915061313c826130fb565b602082019050919050565b6000602082019050818103600083015261316081613124565b9050919050565b7f506174656e74206e6f7420666f722073616c6500000000000000000000000000600082015250565b600061319d60138361256e565b91506131a882613167565b602082019050919050565b600060208201905081810360008301526131cc81613190565b9050919050565b7f496e73756666696369656e74206c697175696469747900000000000000000000600082015250565b600061320960168361256e565b9150613214826131d3565b602082019050919050565b60006020820190508181036000830152613238816131fc565b9050919050565b600061324a826124d1565b9150613255836124d1565b9250828202613263816124d1565b9150828204841483151761327a57613279612f8c565b5b5092915050565b7f4e487b7100000000000000000000000000000000000000000000000000000000600052601260045260246000fd5b60006132bb826124d1565b91506132c6836124d1565b9250826132d6576132d5613281565b5b828204905092915050565b7f496e73756666696369656e74207061796d656e74000000000000000000000000600082015250565b600061331760148361256e565b9150613322826132e1565b602082019050919050565b600060208201905081810360008301526133468161330a565b9050919050565b6000613358826124d1565b91507fffffffffffffffffffffffffffffffffffffffffffffffffffffffffffffffff820361338a57613389612f8c565b5b600182019050919050565b60006040820190506133aa60008301856126d8565b6133b760208301846126d8565b9392505050565b7f496e73756666696369656e742062616c616e6365000000000000000000000000600082015250565b60006133f460148361256e565b91506133ff826133be565b602082019050919050565b60006020820190508181036000830152613423816133e7565b9050919050565b7f4e6f206c69717569646974790000000000000000000000000000000000000000600082015250565b6000613460600c8361256e565b915061346b8261342a565b602082019050919050565b6000602082019050818103600083015261348f81613453565b9050919050565b7f496e73756666696369656e74206c697175696469747920666f722073616c6500600082015250565b60006134cc601f8361256e565b91506134d782613496565b602082019050919050565b600060208201905081810360008301526134fb816134bf565b9050919050565b600061350d826124d1565b9150600082036135205761351f612f8c565b5b600182039050919050565b7f4e487b7100000000000000000000000000000000000000000000000000000000600052603260045260246000fd5b600060608201905061356f60008301866127b9565b61357c60208301856126d8565b61358960408301846126d8565b94935050505056fea2646970667358221220f2f65059cfbe4bf5bf367795c3ba78db2b06024aa7432a69532799d80e532cb864736f6c63430008180033","opcodes":"PUSH1 0xC0 PUSH1 0x40 MSTORE PUSH1 0x40 MLOAD PUSH3 0x4723 CODESIZE SUB DUP1 PUSH3 0x4723 DUP4 CODECOPY DUP2 DUP2 ADD PUSH1 0x40 MSTORE DUP2 ADD SWAP1 PUSH3 0x29 SWAP2 SWAP1 PUSH3 0x9F8 JUMP JUMPDEST DUP1 DUP6 DUP6 DUP2 PUSH1 0x3 SWAP1 DUP2 PUSH3 0x3D SWAP2 SWAP1 PUSH3 0xCFF JUMP JUMPDEST POP DUP1 PUSH1 0x4 SWAP1 DUP2 PUSH3 0x4F SWAP2 SWAP1 PUSH3 0xCFF JUMP JUMPDEST POP POP POP PUSH1 0x0 PUSH20 0xFFFFFFFFFFFFFFFFFFFFFFFFFFFFFFFFFFFFFFFF AND DUP2 PUSH20 0xFFFFFFFFFFFFFFFFFFFFFFFFFFFFFFFFFFFFFFFF AND SUB PUSH3 0xC7 JUMPI PUSH1 0x0 PUSH1 0x40 MLOAD PUSH32 0x1E4FBDF700000000000000000000000000000000000000000000000000000000 DUP2 MSTORE PUSH1 0x4 ADD PUSH3 0xBE SWAP2 SWAP1 PUSH3 0xDF7 JUMP JUMPDEST PUSH1 0x40 MLOAD DUP1 SWAP2 SUB SWAP1 REVERT JUMPDEST PUSH3 0xD8 DUP2 PUSH3 0x442 PUSH1 0x20 SHL PUSH1 0x20 SHR JUMP JUMPDEST POP PUSH1 0x1 PUSH1 0x6 DUP2 SWAP1 SSTORE POP PUSH8 0x16345785D8A0000 CALLVALUE LT ISZERO PUSH3 0x12F JUMPI PUSH1 0x40 MLOAD PUSH32 0x8C379A000000000000000000000000000000000000000000000000000000000 DUP2 MSTORE PUSH1 0x4 ADD PUSH3 0x126 SWAP1 PUSH3 0xE75 JUMP JUMPDEST PUSH1 0x40 MLOAD DUP1 SWAP2 SUB SWAP1 REVERT JUMPDEST PUSH5 0x2540BE400 PUSH1 0x7 DUP2 SWAP1 SSTORE POP PUSH1 0x7 SLOAD PUSH1 0x8 DUP2 SWAP1 SSTORE POP DUP3 PUSH20 0xFFFFFFFFFFFFFFFFFFFFFFFFFFFFFFFFFFFFFFFF AND PUSH1 0x80 DUP2 PUSH20 0xFFFFFFFFFFFFFFFFFFFFFFFFFFFFFFFFFFFFFFFF AND DUP2 MSTORE POP POP DUP2 PUSH1 0xA0 DUP2 DUP2 MSTORE POP POP PUSH1 0x1 PUSH1 0x14 PUSH1 0x0 PUSH2 0x100 EXP DUP2 SLOAD DUP2 PUSH1 0xFF MUL NOT AND SWAP1 DUP4 ISZERO ISZERO MUL OR SWAP1 SSTORE POP TIMESTAMP PUSH1 0x12 DUP2 SWAP1 SSTORE POP CALLVALUE PUSH1 0x10 DUP2 SWAP1 SSTORE POP PUSH3 0x1D3 ADDRESS PUSH1 0x2 PUSH10 0xD3C21BCECCEDA1000000 PUSH3 0x1C7 SWAP2 SWAP1 PUSH3 0xEF5 JUMP JUMPDEST PUSH3 0x508 PUSH1 0x20 SHL PUSH1 0x20 SHR JUMP JUMPDEST PUSH3 0x1FD DUP2 PUSH1 0x2 PUSH10 0xD3C21BCECCEDA1000000 PUSH3 0x1F1 SWAP2 SWAP1 PUSH3 0xEF5 JUMP JUMPDEST PUSH3 0x508 PUSH1 0x20 SHL PUSH1 0x20 SHR JUMP JUMPDEST PUSH1 0x0 DUP4 SWAP1 POP PUSH1 0x0 DUP1 PUSH1 0x0 DUP1 PUSH1 0x0 DUP1 PUSH1 0x0 DUP1 DUP9 PUSH20 0xFFFFFFFFFFFFFFFFFFFFFFFFFFFFFFFFFFFFFFFF AND PUSH4 0x9C6D0D78 DUP13 PUSH1 0x40 MLOAD DUP3 PUSH4 0xFFFFFFFF AND PUSH1 0xE0 SHL DUP2 MSTORE PUSH1 0x4 ADD PUSH3 0x249 SWAP2 SWAP1 PUSH3 0xF3E JUMP JUMPDEST PUSH1 0x0 PUSH1 0x40 MLOAD DUP1 DUP4 SUB DUP2 DUP7 GAS STATICCALL ISZERO DUP1 ISZERO PUSH3 0x267 JUMPI RETURNDATASIZE PUSH1 0x0 DUP1 RETURNDATACOPY RETURNDATASIZE PUSH1 0x0 REVERT JUMPDEST POP POP POP POP PUSH1 0x40 MLOAD RETURNDATASIZE PUSH1 0x0 DUP3 RETURNDATACOPY RETURNDATASIZE PUSH1 0x1F NOT PUSH1 0x1F DUP3 ADD AND DUP3 ADD DUP1 PUSH1 0x40 MSTORE POP DUP2 ADD SWAP1 PUSH3 0x292 SWAP2 SWAP1 PUSH3 0xF98 JUMP JUMPDEST SWAP8 POP SWAP8 POP SWAP8 POP SWAP8 POP SWAP8 POP SWAP8 POP SWAP8 POP SWAP8 POP PUSH1 0x40 MLOAD DUP1 PUSH2 0x100 ADD PUSH1 0x40 MSTORE DUP1 DUP10 DUP2 MSTORE PUSH1 0x20 ADD DUP9 DUP2 MSTORE PUSH1 0x20 ADD DUP8 DUP2 MSTORE PUSH1 0x20 ADD DUP7 ISZERO ISZERO DUP2 MSTORE PUSH1 0x20 ADD DUP6 PUSH20 0xFFFFFFFFFFFFFFFFFFFFFFFFFFFFFFFFFFFFFFFF AND DUP2 MSTORE PUSH1 0x20 ADD DUP5 DUP2 MSTORE PUSH1 0x20 ADD DUP4 DUP2 MSTORE PUSH1 0x20 ADD DUP3 ISZERO ISZERO DUP2 MSTORE POP PUSH1 0x9 PUSH1 0x0 DUP3 ADD MLOAD DUP2 PUSH1 0x0 ADD SWAP1 DUP2 PUSH3 0x30F SWAP2 SWAP1 PUSH3 0xCFF JUMP JUMPDEST POP PUSH1 0x20 DUP3 ADD MLOAD DUP2 PUSH1 0x1 ADD SWAP1 DUP2 PUSH3 0x327 SWAP2 SWAP1 PUSH3 0xCFF JUMP JUMPDEST POP PUSH1 0x40 DUP3 ADD MLOAD DUP2 PUSH1 0x2 ADD SSTORE PUSH1 0x60 DUP3 ADD MLOAD DUP2 PUSH1 0x3 ADD PUSH1 0x0 PUSH2 0x100 EXP DUP2 SLOAD DUP2 PUSH1 0xFF MUL NOT AND SWAP1 DUP4 ISZERO ISZERO MUL OR SWAP1 SSTORE POP PUSH1 0x80 DUP3 ADD MLOAD DUP2 PUSH1 0x3 ADD PUSH1 0x1 PUSH2 0x100 EXP DUP2 SLOAD DUP2 PUSH20 0xFFFFFFFFFFFFFFFFFFFFFFFFFFFFFFFFFFFFFFFF MUL NOT AND SWAP1 DUP4 PUSH20 0xFFFFFFFFFFFFFFFFFFFFFFFFFFFFFFFFFFFFFFFF AND MUL OR SWAP1 SSTORE POP PUSH1 0xA0 DUP3 ADD MLOAD DUP2 PUSH1 0x4 ADD SSTORE PUSH1 0xC0 DUP3 ADD MLOAD DUP2 PUSH1 0x5 ADD SWAP1 DUP2 PUSH3 0x3BA SWAP2 SWAP1 PUSH3 0xCFF JUMP JUMPDEST POP PUSH1 0xE0 DUP3 ADD MLOAD DUP2 PUSH1 0x6 ADD PUSH1 0x0 PUSH2 0x100 EXP DUP2 SLOAD DUP2 PUSH1 0xFF MUL NOT AND SWAP1 DUP4 ISZERO ISZERO MUL OR SWAP1 SSTORE POP SWAP1 POP POP CALLER PUSH20 0xFFFFFFFFFFFFFFFFFFFFFFFFFFFFFFFFFFFFFFFF AND PUSH32 0xC17CEA59C2955CB181B03393209566960365771DBBA9DC3D510180E7CB312088 CALLVALUE PUSH1 0x40 MLOAD PUSH3 0x426 SWAP2 SWAP1 PUSH3 0xF3E JUMP JUMPDEST PUSH1 0x40 MLOAD DUP1 SWAP2 SUB SWAP1 LOG2 POP POP POP POP POP POP POP POP POP POP POP POP POP POP PUSH3 0x1136 JUMP JUMPDEST PUSH1 0x0 PUSH1 0x5 PUSH1 0x0 SWAP1 SLOAD SWAP1 PUSH2 0x100 EXP SWAP1 DIV PUSH20 0xFFFFFFFFFFFFFFFFFFFFFFFFFFFFFFFFFFFFFFFF AND SWAP1 POP DUP2 PUSH1 0x5 PUSH1 0x0 PUSH2 0x100 EXP DUP2 SLOAD DUP2 PUSH20 0xFFFFFFFFFFFFFFFFFFFFFFFFFFFFFFFFFFFFFFFF MUL NOT AND SWAP1 DUP4 PUSH20 0xFFFFFFFFFFFFFFFFFFFFFFFFFFFFFFFFFFFFFFFF AND MUL OR SWAP1 SSTORE POP DUP2 PUSH20 0xFFFFFFFFFFFFFFFFFFFFFFFFFFFFFFFFFFFFFFFF AND DUP2 PUSH20 0xFFFFFFFFFFFFFFFFFFFFFFFFFFFFFFFFFFFFFFFF AND PUSH32 0x8BE0079C531659141344CD1FD0A4F28419497F9722A3DAAFE3B4186F6B6457E0 PUSH1 0x40 MLOAD PUSH1 0x40 MLOAD DUP1 SWAP2 SUB SWAP1 LOG3 POP POP JUMP JUMPDEST PUSH1 0x0 PUSH20 0xFFFFFFFFFFFFFFFFFFFFFFFFFFFFFFFFFFFFFFFF AND DUP3 PUSH20 0xFFFFFFFFFFFFFFFFFFFFFFFFFFFFFFFFFFFFFFFF AND SUB PUSH3 0x57D JUMPI PUSH1 0x0 PUSH1 0x40 MLOAD PUSH32 0xEC442F0500000000000000000000000000000000000000000000000000000000 DUP2 MSTORE PUSH1 0x4 ADD PUSH3 0x574 SWAP2 SWAP1 PUSH3 0xDF7 JUMP JUMPDEST PUSH1 0x40 MLOAD DUP1 SWAP2 SUB SWAP1 REVERT JUMPDEST PUSH3 0x591 PUSH1 0x0 DUP4 DUP4 PUSH3 0x595 PUSH1 0x20 SHL PUSH1 0x20 SHR JUMP JUMPDEST POP POP JUMP JUMPDEST PUSH1 0x0 PUSH20 0xFFFFFFFFFFFFFFFFFFFFFFFFFFFFFFFFFFFFFFFF AND DUP4 PUSH20 0xFFFFFFFFFFFFFFFFFFFFFFFFFFFFFFFFFFFFFFFF AND SUB PUSH3 0x5EB JUMPI DUP1 PUSH1 0x2 PUSH1 0x0 DUP3 DUP3 SLOAD PUSH3 0x5DE SWAP2 SWAP1 PUSH3 0x10BE JUMP JUMPDEST SWAP3 POP POP DUP2 SWAP1 SSTORE POP PUSH3 0x6C1 JUMP JUMPDEST PUSH1 0x0 DUP1 PUSH1 0x0 DUP6 PUSH20 0xFFFFFFFFFFFFFFFFFFFFFFFFFFFFFFFFFFFFFFFF AND PUSH20 0xFFFFFFFFFFFFFFFFFFFFFFFFFFFFFFFFFFFFFFFF AND DUP2 MSTORE PUSH1 0x20 ADD SWAP1 DUP2 MSTORE PUSH1 0x20 ADD PUSH1 0x0 KECCAK256 SLOAD SWAP1 POP DUP2 DUP2 LT ISZERO PUSH3 0x67A JUMPI DUP4 DUP2 DUP4 PUSH1 0x40 MLOAD PUSH32 0xE450D38C00000000000000000000000000000000000000000000000000000000 DUP2 MSTORE PUSH1 0x4 ADD PUSH3 0x671 SWAP4 SWAP3 SWAP2 SWAP1 PUSH3 0x10F9 JUMP JUMPDEST PUSH1 0x40 MLOAD DUP1 SWAP2 SUB SWAP1 REVERT JUMPDEST DUP2 DUP2 SUB PUSH1 0x0 DUP1 DUP7 PUSH20 0xFFFFFFFFFFFFFFFFFFFFFFFFFFFFFFFFFFFFFFFF AND PUSH20 0xFFFFFFFFFFFFFFFFFFFFFFFFFFFFFFFFFFFFFFFF AND DUP2 MSTORE PUSH1 0x20 ADD SWAP1 DUP2 MSTORE PUSH1 0x20 ADD PUSH1 0x0 KECCAK256 DUP2 SWAP1 SSTORE POP POP JUMPDEST PUSH1 0x0 PUSH20 0xFFFFFFFFFFFFFFFFFFFFFFFFFFFFFFFFFFFFFFFF AND DUP3 PUSH20 0xFFFFFFFFFFFFFFFFFFFFFFFFFFFFFFFFFFFFFFFF AND SUB PUSH3 0x70C JUMPI DUP1 PUSH1 0x2 PUSH1 0x0 DUP3 DUP3 SLOAD SUB SWAP3 POP POP DUP2 SWAP1 SSTORE POP PUSH3 0x759 JUMP JUMPDEST DUP1 PUSH1 0x0 DUP1 DUP5 PUSH20 0xFFFFFFFFFFFFFFFFFFFFFFFFFFFFFFFFFFFFFFFF AND PUSH20 0xFFFFFFFFFFFFFFFFFFFFFFFFFFFFFFFFFFFFFFFF AND DUP2 MSTORE PUSH1 0x20 ADD SWAP1 DUP2 MSTORE PUSH1 0x20 ADD PUSH1 0x0 KECCAK256 PUSH1 0x0 DUP3 DUP3 SLOAD ADD SWAP3 POP POP DUP2 SWAP1 SSTORE POP JUMPDEST DUP2 PUSH20 0xFFFFFFFFFFFFFFFFFFFFFFFFFFFFFFFFFFFFFFFF AND DUP4 PUSH20 0xFFFFFFFFFFFFFFFFFFFFFFFFFFFFFFFFFFFFFFFF AND PUSH32 0xDDF252AD1BE2C89B69C2B068FC378DAA952BA7F163C4A11628F55A4DF523B3EF DUP4 PUSH1 0x40 MLOAD PUSH3 0x7B8 SWAP2 SWAP1 PUSH3 0xF3E JUMP JUMPDEST PUSH1 0x40 MLOAD DUP1 SWAP2 SUB SWAP1 LOG3 POP POP POP JUMP JUMPDEST PUSH1 0x0 PUSH1 0x40 MLOAD SWAP1 POP SWAP1 JUMP JUMPDEST PUSH1 0x0 DUP1 REVERT JUMPDEST PUSH1 0x0 DUP1 REVERT JUMPDEST PUSH1 0x0 DUP1 REVERT JUMPDEST PUSH1 0x0 DUP1 REVERT JUMPDEST PUSH1 0x0 PUSH1 0x1F NOT PUSH1 0x1F DUP4 ADD AND SWAP1 POP SWAP2 SWAP1 POP JUMP JUMPDEST PUSH32 0x4E487B7100000000000000000000000000000000000000000000000000000000 PUSH1 0x0 MSTORE PUSH1 0x41 PUSH1 0x4 MSTORE PUSH1 0x24 PUSH1 0x0 REVERT JUMPDEST PUSH3 0x82E DUP3 PUSH3 0x7E3 JUMP JUMPDEST DUP2 ADD DUP2 DUP2 LT PUSH8 0xFFFFFFFFFFFFFFFF DUP3 GT OR ISZERO PUSH3 0x850 JUMPI PUSH3 0x84F PUSH3 0x7F4 JUMP JUMPDEST JUMPDEST DUP1 PUSH1 0x40 MSTORE POP POP POP JUMP JUMPDEST PUSH1 0x0 PUSH3 0x865 PUSH3 0x7C5 JUMP JUMPDEST SWAP1 POP PUSH3 0x873 DUP3 DUP3 PUSH3 0x823 JUMP JUMPDEST SWAP2 SWAP1 POP JUMP JUMPDEST PUSH1 0x0 PUSH8 0xFFFFFFFFFFFFFFFF DUP3 GT ISZERO PUSH3 0x896 JUMPI PUSH3 0x895 PUSH3 0x7F4 JUMP JUMPDEST JUMPDEST PUSH3 0x8A1 DUP3 PUSH3 0x7E3 JUMP JUMPDEST SWAP1 POP PUSH1 0x20 DUP2 ADD SWAP1 POP SWAP2 SWAP1 POP JUMP JUMPDEST PUSH1 0x0 JUMPDEST DUP4 DUP2 LT ISZERO PUSH3 0x8CE JUMPI DUP1 DUP3 ADD MLOAD DUP2 DUP5 ADD MSTORE PUSH1 0x20 DUP2 ADD SWAP1 POP PUSH3 0x8B1 JUMP JUMPDEST PUSH1 0x0 DUP5 DUP5 ADD MSTORE POP POP POP POP JUMP JUMPDEST PUSH1 0x0 PUSH3 0x8F1 PUSH3 0x8EB DUP5 PUSH3 0x878 JUMP JUMPDEST PUSH3 0x859 JUMP JUMPDEST SWAP1 POP DUP3 DUP2 MSTORE PUSH1 0x20 DUP2 ADD DUP5 DUP5 DUP5 ADD GT ISZERO PUSH3 0x910 JUMPI PUSH3 0x90F PUSH3 0x7DE JUMP JUMPDEST JUMPDEST PUSH3 0x91D DUP5 DUP3 DUP6 PUSH3 0x8AE JUMP JUMPDEST POP SWAP4 SWAP3 POP POP POP JUMP JUMPDEST PUSH1 0x0 DUP3 PUSH1 0x1F DUP4 ADD SLT PUSH3 0x93D JUMPI PUSH3 0x93C PUSH3 0x7D9 JUMP JUMPDEST JUMPDEST DUP2 MLOAD PUSH3 0x94F DUP5 DUP3 PUSH1 0x20 DUP7 ADD PUSH3 0x8DA JUMP JUMPDEST SWAP2 POP POP SWAP3 SWAP2 POP POP JUMP JUMPDEST PUSH1 0x0 PUSH20 0xFFFFFFFFFFFFFFFFFFFFFFFFFFFFFFFFFFFFFFFF DUP3 AND SWAP1 POP SWAP2 SWAP1 POP JUMP JUMPDEST PUSH1 0x0 PUSH3 0x985 DUP3 PUSH3 0x958 JUMP JUMPDEST SWAP1 POP SWAP2 SWAP1 POP JUMP JUMPDEST PUSH3 0x997 DUP2 PUSH3 0x978 JUMP JUMPDEST DUP2 EQ PUSH3 0x9A3 JUMPI PUSH1 0x0 DUP1 REVERT JUMPDEST POP JUMP JUMPDEST PUSH1 0x0 DUP2 MLOAD SWAP1 POP PUSH3 0x9B7 DUP2 PUSH3 0x98C JUMP JUMPDEST SWAP3 SWAP2 POP POP JUMP JUMPDEST PUSH1 0x0 DUP2 SWAP1 POP SWAP2 SWAP1 POP JUMP JUMPDEST PUSH3 0x9D2 DUP2 PUSH3 0x9BD JUMP JUMPDEST DUP2 EQ PUSH3 0x9DE JUMPI PUSH1 0x0 DUP1 REVERT JUMPDEST POP JUMP JUMPDEST PUSH1 0x0 DUP2 MLOAD SWAP1 POP PUSH3 0x9F2 DUP2 PUSH3 0x9C7 JUMP JUMPDEST SWAP3 SWAP2 POP POP JUMP JUMPDEST PUSH1 0x0 DUP1 PUSH1 0x0 DUP1 PUSH1 0x0 PUSH1 0xA0 DUP7 DUP9 SUB SLT ISZERO PUSH3 0xA17 JUMPI PUSH3 0xA16 PUSH3 0x7CF JUMP JUMPDEST JUMPDEST PUSH1 0x0 DUP7 ADD MLOAD PUSH8 0xFFFFFFFFFFFFFFFF DUP2 GT ISZERO PUSH3 0xA38 JUMPI PUSH3 0xA37 PUSH3 0x7D4 JUMP JUMPDEST JUMPDEST PUSH3 0xA46 DUP9 DUP3 DUP10 ADD PUSH3 0x925 JUMP JUMPDEST SWAP6 POP POP PUSH1 0x20 DUP7 ADD MLOAD PUSH8 0xFFFFFFFFFFFFFFFF DUP2 GT ISZERO PUSH3 0xA6A JUMPI PUSH3 0xA69 PUSH3 0x7D4 JUMP JUMPDEST JUMPDEST PUSH3 0xA78 DUP9 DUP3 DUP10 ADD PUSH3 0x925 JUMP JUMPDEST SWAP5 POP POP PUSH1 0x40 PUSH3 0xA8B DUP9 DUP3 DUP10 ADD PUSH3 0x9A6 JUMP JUMPDEST SWAP4 POP POP PUSH1 0x60 PUSH3 0xA9E DUP9 DUP3 DUP10 ADD PUSH3 0x9E1 JUMP JUMPDEST SWAP3 POP POP PUSH1 0x80 PUSH3 0xAB1 DUP9 DUP3 DUP10 ADD PUSH3 0x9A6 JUMP JUMPDEST SWAP2 POP POP SWAP3 SWAP6 POP SWAP3 SWAP6 SWAP1 SWAP4 POP JUMP JUMPDEST PUSH1 0x0 DUP2 MLOAD SWAP1 POP SWAP2 SWAP1 POP JUMP JUMPDEST PUSH32 0x4E487B7100000000000000000000000000000000000000000000000000000000 PUSH1 0x0 MSTORE PUSH1 0x22 PUSH1 0x4 MSTORE PUSH1 0x24 PUSH1 0x0 REVERT JUMPDEST PUSH1 0x0 PUSH1 0x2 DUP3 DIV SWAP1 POP PUSH1 0x1 DUP3 AND DUP1 PUSH3 0xB11 JUMPI PUSH1 0x7F DUP3 AND SWAP2 POP JUMPDEST PUSH1 0x20 DUP3 LT DUP2 SUB PUSH3 0xB27 JUMPI PUSH3 0xB26 PUSH3 0xAC9 JUMP JUMPDEST JUMPDEST POP SWAP2 SWAP1 POP JUMP JUMPDEST PUSH1 0x0 DUP2 SWAP1 POP DUP2 PUSH1 0x0 MSTORE PUSH1 0x20 PUSH1 0x0 KECCAK256 SWAP1 POP SWAP2 SWAP1 POP JUMP JUMPDEST PUSH1 0x0 PUSH1 0x20 PUSH1 0x1F DUP4 ADD DIV SWAP1 POP SWAP2 SWAP1 POP JUMP JUMPDEST PUSH1 0x0 DUP3 DUP3 SHL SWAP1 POP SWAP3 SWAP2 POP POP JUMP JUMPDEST PUSH1 0x0 PUSH1 0x8 DUP4 MUL PUSH3 0xB91 PUSH32 0xFFFFFFFFFFFFFFFFFFFFFFFFFFFFFFFFFFFFFFFFFFFFFFFFFFFFFFFFFFFFFFFF DUP3 PUSH3 0xB52 JUMP JUMPDEST PUSH3 0xB9D DUP7 DUP4 PUSH3 0xB52 JUMP JUMPDEST SWAP6 POP DUP1 NOT DUP5 AND SWAP4 POP DUP1 DUP7 AND DUP5 OR SWAP3 POP POP POP SWAP4 SWAP3 POP POP POP JUMP JUMPDEST PUSH1 0x0 DUP2 SWAP1 POP SWAP2 SWAP1 POP JUMP JUMPDEST PUSH1 0x0 PUSH3 0xBE0 PUSH3 0xBDA PUSH3 0xBD4 DUP5 PUSH3 0x9BD JUMP JUMPDEST PUSH3 0xBB5 JUMP JUMPDEST PUSH3 0x9BD JUMP JUMPDEST SWAP1 POP SWAP2 SWAP1 POP JUMP JUMPDEST PUSH1 0x0 DUP2 SWAP1 POP SWAP2 SWAP1 POP JUMP JUMPDEST PUSH3 0xBFC DUP4 PUSH3 0xBBF JUMP JUMPDEST PUSH3 0xC14 PUSH3 0xC0B DUP3 PUSH3 0xBE7 JUMP JUMPDEST DUP5 DUP5 SLOAD PUSH3 0xB5F JUMP JUMPDEST DUP3 SSTORE POP POP POP POP JUMP JUMPDEST PUSH1 0x0 SWAP1 JUMP JUMPDEST PUSH3 0xC2B PUSH3 0xC1C JUMP JUMPDEST PUSH3 0xC38 DUP2 DUP5 DUP5 PUSH3 0xBF1 JUMP JUMPDEST POP POP POP JUMP JUMPDEST JUMPDEST DUP2 DUP2 LT ISZERO PUSH3 0xC60 JUMPI PUSH3 0xC54 PUSH1 0x0 DUP3 PUSH3 0xC21 JUMP JUMPDEST PUSH1 0x1 DUP2 ADD SWAP1 POP PUSH3 0xC3E JUMP JUMPDEST POP POP JUMP JUMPDEST PUSH1 0x1F DUP3 GT ISZERO PUSH3 0xCAF JUMPI PUSH3 0xC79 DUP2 PUSH3 0xB2D JUMP JUMPDEST PUSH3 0xC84 DUP5 PUSH3 0xB42 JUMP JUMPDEST DUP2 ADD PUSH1 0x20 DUP6 LT ISZERO PUSH3 0xC94 JUMPI DUP2 SWAP1 POP JUMPDEST PUSH3 0xCAC PUSH3 0xCA3 DUP6 PUSH3 0xB42 JUMP JUMPDEST DUP4 ADD DUP3 PUSH3 0xC3D JUMP JUMPDEST POP POP JUMPDEST POP POP POP JUMP JUMPDEST PUSH1 0x0 DUP3 DUP3 SHR SWAP1 POP SWAP3 SWAP2 POP POP JUMP JUMPDEST PUSH1 0x0 PUSH3 0xCD4 PUSH1 0x0 NOT DUP5 PUSH1 0x8 MUL PUSH3 0xCB4 JUMP JUMPDEST NOT DUP1 DUP4 AND SWAP2 POP POP SWAP3 SWAP2 POP POP JUMP JUMPDEST PUSH1 0x0 PUSH3 0xCEF DUP4 DUP4 PUSH3 0xCC1 JUMP JUMPDEST SWAP2 POP DUP3 PUSH1 0x2 MUL DUP3 OR SWAP1 POP SWAP3 SWAP2 POP POP JUMP JUMPDEST PUSH3 0xD0A DUP3 PUSH3 0xABE JUMP JUMPDEST PUSH8 0xFFFFFFFFFFFFFFFF DUP2 GT ISZERO PUSH3 0xD26 JUMPI PUSH3 0xD25 PUSH3 0x7F4 JUMP JUMPDEST JUMPDEST PUSH3 0xD32 DUP3 SLOAD PUSH3 0xAF8 JUMP JUMPDEST PUSH3 0xD3F DUP3 DUP3 DUP6 PUSH3 0xC64 JUMP JUMPDEST PUSH1 0x0 PUSH1 0x20 SWAP1 POP PUSH1 0x1F DUP4 GT PUSH1 0x1 DUP2 EQ PUSH3 0xD77 JUMPI PUSH1 0x0 DUP5 ISZERO PUSH3 0xD62 JUMPI DUP3 DUP8 ADD MLOAD SWAP1 POP JUMPDEST PUSH3 0xD6E DUP6 DUP3 PUSH3 0xCE1 JUMP JUMPDEST DUP7 SSTORE POP PUSH3 0xDDE JUMP JUMPDEST PUSH1 0x1F NOT DUP5 AND PUSH3 0xD87 DUP7 PUSH3 0xB2D JUMP JUMPDEST PUSH1 0x0 JUMPDEST DUP3 DUP2 LT ISZERO PUSH3 0xDB1 JUMPI DUP5 DUP10 ADD MLOAD DUP3 SSTORE PUSH1 0x1 DUP3 ADD SWAP2 POP PUSH1 0x20 DUP6 ADD SWAP5 POP PUSH1 0x20 DUP2 ADD SWAP1 POP PUSH3 0xD8A JUMP JUMPDEST DUP7 DUP4 LT ISZERO PUSH3 0xDD1 JUMPI DUP5 DUP10 ADD MLOAD PUSH3 0xDCD PUSH1 0x1F DUP10 AND DUP3 PUSH3 0xCC1 JUMP JUMPDEST DUP4 SSTORE POP JUMPDEST PUSH1 0x1 PUSH1 0x2 DUP9 MUL ADD DUP9 SSTORE POP POP POP JUMPDEST POP POP POP POP POP POP JUMP JUMPDEST PUSH3 0xDF1 DUP2 PUSH3 0x978 JUMP JUMPDEST DUP3 MSTORE POP POP JUMP JUMPDEST PUSH1 0x0 PUSH1 0x20 DUP3 ADD SWAP1 POP PUSH3 0xE0E PUSH1 0x0 DUP4 ADD DUP5 PUSH3 0xDE6 JUMP JUMPDEST SWAP3 SWAP2 POP POP JUMP JUMPDEST PUSH1 0x0 DUP3 DUP3 MSTORE PUSH1 0x20 DUP3 ADD SWAP1 POP SWAP3 SWAP2 POP POP JUMP JUMPDEST PUSH32 0x496E73756666696369656E7420696E697469616C206C69717569646974790000 PUSH1 0x0 DUP3 ADD MSTORE POP JUMP JUMPDEST PUSH1 0x0 PUSH3 0xE5D PUSH1 0x1E DUP4 PUSH3 0xE14 JUMP JUMPDEST SWAP2 POP PUSH3 0xE6A DUP3 PUSH3 0xE25 JUMP JUMPDEST PUSH1 0x20 DUP3 ADD SWAP1 POP SWAP2 SWAP1 POP JUMP JUMPDEST PUSH1 0x0 PUSH1 0x20 DUP3 ADD SWAP1 POP DUP2 DUP2 SUB PUSH1 0x0 DUP4 ADD MSTORE PUSH3 0xE90 DUP2 PUSH3 0xE4E JUMP JUMPDEST SWAP1 POP SWAP2 SWAP1 POP JUMP JUMPDEST PUSH32 0x4E487B7100000000000000000000000000000000000000000000000000000000 PUSH1 0x0 MSTORE PUSH1 0x12 PUSH1 0x4 MSTORE PUSH1 0x24 PUSH1 0x0 REVERT JUMPDEST PUSH32 0x4E487B7100000000000000000000000000000000000000000000000000000000 PUSH1 0x0 MSTORE PUSH1 0x11 PUSH1 0x4 MSTORE PUSH1 0x24 PUSH1 0x0 REVERT JUMPDEST PUSH1 0x0 PUSH3 0xF02 DUP3 PUSH3 0x9BD JUMP JUMPDEST SWAP2 POP PUSH3 0xF0F DUP4 PUSH3 0x9BD JUMP JUMPDEST SWAP3 POP DUP3 PUSH3 0xF22 JUMPI PUSH3 0xF21 PUSH3 0xE97 JUMP JUMPDEST JUMPDEST DUP3 DUP3 DIV SWAP1 POP SWAP3 SWAP2 POP POP JUMP JUMPDEST PUSH3 0xF38 DUP2 PUSH3 0x9BD JUMP JUMPDEST DUP3 MSTORE POP POP JUMP JUMPDEST PUSH1 0x0 PUSH1 0x20 DUP3 ADD SWAP1 POP PUSH3 0xF55 PUSH1 0x0 DUP4 ADD DUP5 PUSH3 0xF2D JUMP JUMPDEST SWAP3 SWAP2 POP POP JUMP JUMPDEST PUSH1 0x0 DUP2 ISZERO ISZERO SWAP1 POP SWAP2 SWAP1 POP JUMP JUMPDEST PUSH3 0xF72 DUP2 PUSH3 0xF5B JUMP JUMPDEST DUP2 EQ PUSH3 0xF7E JUMPI PUSH1 0x0 DUP1 REVERT JUMPDEST POP JUMP JUMPDEST PUSH1 0x0 DUP2 MLOAD SWAP1 POP PUSH3 0xF92 DUP2 PUSH3 0xF67 JUMP JUMPDEST SWAP3 SWAP2 POP POP JUMP JUMPDEST PUSH1 0x0 DUP1 PUSH1 0x0 DUP1 PUSH1 0x0 DUP1 PUSH1 0x0 DUP1 PUSH2 0x100 DUP10 DUP12 SUB SLT ISZERO PUSH3 0xFBC JUMPI PUSH3 0xFBB PUSH3 0x7CF JUMP JUMPDEST JUMPDEST PUSH1 0x0 DUP10 ADD MLOAD PUSH8 0xFFFFFFFFFFFFFFFF DUP2 GT ISZERO PUSH3 0xFDD JUMPI PUSH3 0xFDC PUSH3 0x7D4 JUMP JUMPDEST JUMPDEST PUSH3 0xFEB DUP12 DUP3 DUP13 ADD PUSH3 0x925 JUMP JUMPDEST SWAP9 POP POP PUSH1 0x20 DUP10 ADD MLOAD PUSH8 0xFFFFFFFFFFFFFFFF DUP2 GT ISZERO PUSH3 0x100F JUMPI PUSH3 0x100E PUSH3 0x7D4 JUMP JUMPDEST JUMPDEST PUSH3 0x101D DUP12 DUP3 DUP13 ADD PUSH3 0x925 JUMP JUMPDEST SWAP8 POP POP PUSH1 0x40 PUSH3 0x1030 DUP12 DUP3 DUP13 ADD PUSH3 0x9E1 JUMP JUMPDEST SWAP7 POP POP PUSH1 0x60 PUSH3 0x1043 DUP12 DUP3 DUP13 ADD PUSH3 0xF81 JUMP JUMPDEST SWAP6 POP POP PUSH1 0x80 PUSH3 0x1056 DUP12 DUP3 DUP13 ADD PUSH3 0x9A6 JUMP JUMPDEST SWAP5 POP POP PUSH1 0xA0 PUSH3 0x1069 DUP12 DUP3 DUP13 ADD PUSH3 0x9E1 JUMP JUMPDEST SWAP4 POP POP PUSH1 0xC0 DUP10 ADD MLOAD PUSH8 0xFFFFFFFFFFFFFFFF DUP2 GT ISZERO PUSH3 0x108D JUMPI PUSH3 0x108C PUSH3 0x7D4 JUMP JUMPDEST JUMPDEST PUSH3 0x109B DUP12 DUP3 DUP13 ADD PUSH3 0x925 JUMP JUMPDEST SWAP3 POP POP PUSH1 0xE0 PUSH3 0x10AE DUP12 DUP3 DUP13 ADD PUSH3 0xF81 JUMP JUMPDEST SWAP2 POP POP SWAP3 SWAP6 SWAP9 POP SWAP3 SWAP6 SWAP9 SWAP1 SWAP4 SWAP7 POP JUMP JUMPDEST PUSH1 0x0 PUSH3 0x10CB DUP3 PUSH3 0x9BD JUMP JUMPDEST SWAP2 POP PUSH3 0x10D8 DUP4 PUSH3 0x9BD JUMP JUMPDEST SWAP3 POP DUP3 DUP3 ADD SWAP1 POP DUP1 DUP3 GT ISZERO PUSH3 0x10F3 JUMPI PUSH3 0x10F2 PUSH3 0xEC6 JUMP JUMPDEST JUMPDEST SWAP3 SWAP2 POP POP JUMP JUMPDEST PUSH1 0x0 PUSH1 0x60 DUP3 ADD SWAP1 POP PUSH3 0x1110 PUSH1 0x0 DUP4 ADD DUP7 PUSH3 0xDE6 JUMP JUMPDEST PUSH3 0x111F PUSH1 0x20 DUP4 ADD DUP6 PUSH3 0xF2D JUMP JUMPDEST PUSH3 0x112E PUSH1 0x40 DUP4 ADD DUP5 PUSH3 0xF2D JUMP JUMPDEST SWAP5 SWAP4 POP POP POP POP JUMP JUMPDEST PUSH1 0x80 MLOAD PUSH1 0xA0 MLOAD PUSH2 0x35C7 PUSH3 0x115C PUSH1 0x0 CODECOPY PUSH1 0x0 PUSH2 0x17E2 ADD MSTORE PUSH1 0x0 PUSH2 0x1158 ADD MSTORE PUSH2 0x35C7 PUSH1 0x0 RETURN INVALID PUSH1 0x80 PUSH1 0x40 MSTORE PUSH1 0x4 CALLDATASIZE LT PUSH2 0x213 JUMPI PUSH1 0x0 CALLDATALOAD PUSH1 0xE0 SHR DUP1 PUSH4 0x6A6AE606 GT PUSH2 0x118 JUMPI DUP1 PUSH4 0x95D89B41 GT PUSH2 0xA0 JUMPI DUP1 PUSH4 0xC7876EA4 GT PUSH2 0x6F JUMPI DUP1 PUSH4 0xC7876EA4 EQ PUSH2 0x7C1 JUMPI DUP1 PUSH4 0xD3BC9E2A EQ PUSH2 0x7EC JUMPI DUP1 PUSH4 0xDD62ED3E EQ PUSH2 0x815 JUMPI DUP1 PUSH4 0xF0D673F3 EQ PUSH2 0x852 JUMPI DUP1 PUSH4 0xF2FDE38B EQ PUSH2 0x882 JUMPI PUSH2 0x21A JUMP JUMPDEST DUP1 PUSH4 0x95D89B41 EQ PUSH2 0x703 JUMPI DUP1 PUSH4 0x9D1B464A EQ PUSH2 0x72E JUMPI DUP1 PUSH4 0xA9059CBB EQ PUSH2 0x759 JUMPI DUP1 PUSH4 0xAD9F20A6 EQ PUSH2 0x796 JUMPI PUSH2 0x21A JUMP JUMPDEST DUP1 PUSH4 0x70A08231 GT PUSH2 0xE7 JUMPI DUP1 PUSH4 0x70A08231 EQ PUSH2 0x61C JUMPI DUP1 PUSH4 0x715018A6 EQ PUSH2 0x659 JUMPI DUP1 PUSH4 0x8654AA34 EQ PUSH2 0x670 JUMPI DUP1 PUSH4 0x873C5E60 EQ PUSH2 0x69B JUMPI DUP1 PUSH4 0x8DA5CB5B EQ PUSH2 0x6D8 JUMPI PUSH2 0x21A JUMP JUMPDEST DUP1 PUSH4 0x6A6AE606 EQ PUSH2 0x560 JUMPI DUP1 PUSH4 0x6B4ED21B EQ PUSH2 0x59D JUMPI DUP1 PUSH4 0x6C11BCD3 EQ PUSH2 0x5C8 JUMPI DUP1 PUSH4 0x6E9087DB EQ PUSH2 0x5F1 JUMPI PUSH2 0x21A JUMP JUMPDEST DUP1 PUSH4 0x32CB6B0C GT PUSH2 0x19B JUMPI DUP1 PUSH4 0x5FE3854E GT PUSH2 0x16A JUMPI DUP1 PUSH4 0x5FE3854E EQ PUSH2 0x477 JUMPI DUP1 PUSH4 0x6485B6BB EQ PUSH2 0x4B4 JUMPI DUP1 PUSH4 0x665A11CA EQ PUSH2 0x4DF JUMPI DUP1 PUSH4 0x67BF602B EQ PUSH2 0x50A JUMPI DUP1 PUSH4 0x6949FAEB EQ PUSH2 0x535 JUMPI PUSH2 0x21A JUMP JUMPDEST DUP1 PUSH4 0x32CB6B0C EQ PUSH2 0x3BF JUMPI DUP1 PUSH4 0x3610724E EQ PUSH2 0x3EA JUMPI DUP1 PUSH4 0x52DC0F96 EQ PUSH2 0x406 JUMPI DUP1 PUSH4 0x5B0C5DBD EQ PUSH2 0x438 JUMPI PUSH2 0x21A JUMP JUMPDEST DUP1 PUSH4 0x18160DDD GT PUSH2 0x1E2 JUMPI DUP1 PUSH4 0x18160DDD EQ PUSH2 0x2D8 JUMPI DUP1 PUSH4 0x21B77D63 EQ PUSH2 0x303 JUMPI DUP1 PUSH4 0x23B872DD EQ PUSH2 0x32E JUMPI DUP1 PUSH4 0x2D9E3F62 EQ PUSH2 0x36B JUMPI DUP1 PUSH4 0x313CE567 EQ PUSH2 0x394 JUMPI PUSH2 0x21A JUMP JUMPDEST DUP1 PUSH4 0x45FA779 EQ PUSH2 0x21C JUMPI DUP1 PUSH4 0x6FDDE03 EQ PUSH2 0x245 JUMPI DUP1 PUSH4 0x95EA7B3 EQ PUSH2 0x270 JUMPI DUP1 PUSH4 0x140B9D84 EQ PUSH2 0x2AD JUMPI PUSH2 0x21A JUMP JUMPDEST CALLDATASIZE PUSH2 0x21A JUMPI STOP JUMPDEST STOP JUMPDEST CALLVALUE DUP1 ISZERO PUSH2 0x228 JUMPI PUSH1 0x0 DUP1 REVERT JUMPDEST POP PUSH2 0x243 PUSH1 0x4 DUP1 CALLDATASIZE SUB DUP2 ADD SWAP1 PUSH2 0x23E SWAP2 SWAP1 PUSH2 0x2507 JUMP JUMPDEST PUSH2 0x8AB JUMP JUMPDEST STOP JUMPDEST CALLVALUE DUP1 ISZERO PUSH2 0x251 JUMPI PUSH1 0x0 DUP1 REVERT JUMPDEST POP PUSH2 0x25A PUSH2 0x90D JUMP JUMPDEST PUSH1 0x40 MLOAD PUSH2 0x267 SWAP2 SWAP1 PUSH2 0x25E2 JUMP JUMPDEST PUSH1 0x40 MLOAD DUP1 SWAP2 SUB SWAP1 RETURN JUMPDEST CALLVALUE DUP1 ISZERO PUSH2 0x27C JUMPI PUSH1 0x0 DUP1 REVERT JUMPDEST POP PUSH2 0x297 PUSH1 0x4 DUP1 CALLDATASIZE SUB DUP2 ADD SWAP1 PUSH2 0x292 SWAP2 SWAP1 PUSH2 0x2662 JUMP JUMPDEST PUSH2 0x99F JUMP JUMPDEST PUSH1 0x40 MLOAD PUSH2 0x2A4 SWAP2 SWAP1 PUSH2 0x26BD JUMP JUMPDEST PUSH1 0x40 MLOAD DUP1 SWAP2 SUB SWAP1 RETURN JUMPDEST CALLVALUE DUP1 ISZERO PUSH2 0x2B9 JUMPI PUSH1 0x0 DUP1 REVERT JUMPDEST POP PUSH2 0x2C2 PUSH2 0x9C2 JUMP JUMPDEST PUSH1 0x40 MLOAD PUSH2 0x2CF SWAP2 SWAP1 PUSH2 0x26E7 JUMP JUMPDEST PUSH1 0x40 MLOAD DUP1 SWAP2 SUB SWAP1 RETURN JUMPDEST CALLVALUE DUP1 ISZERO PUSH2 0x2E4 JUMPI PUSH1 0x0 DUP1 REVERT JUMPDEST POP PUSH2 0x2ED PUSH2 0x9C8 JUMP JUMPDEST PUSH1 0x40 MLOAD PUSH2 0x2FA SWAP2 SWAP1 PUSH2 0x26E7 JUMP JUMPDEST PUSH1 0x40 MLOAD DUP1 SWAP2 SUB SWAP1 RETURN JUMPDEST CALLVALUE DUP1 ISZERO PUSH2 0x30F JUMPI PUSH1 0x0 DUP1 REVERT JUMPDEST POP PUSH2 0x318 PUSH2 0x9D2 JUMP JUMPDEST PUSH1 0x40 MLOAD PUSH2 0x325 SWAP2 SWAP1 PUSH2 0x26E7 JUMP JUMPDEST PUSH1 0x40 MLOAD DUP1 SWAP2 SUB SWAP1 RETURN JUMPDEST CALLVALUE DUP1 ISZERO PUSH2 0x33A JUMPI PUSH1 0x0 DUP1 REVERT JUMPDEST POP PUSH2 0x355 PUSH1 0x4 DUP1 CALLDATASIZE SUB DUP2 ADD SWAP1 PUSH2 0x350 SWAP2 SWAP1 PUSH2 0x2702 JUMP JUMPDEST PUSH2 0x9DE JUMP JUMPDEST PUSH1 0x40 MLOAD PUSH2 0x362 SWAP2 SWAP1 PUSH2 0x26BD JUMP JUMPDEST PUSH1 0x40 MLOAD DUP1 SWAP2 SUB SWAP1 RETURN JUMPDEST CALLVALUE DUP1 ISZERO PUSH2 0x377 JUMPI PUSH1 0x0 DUP1 REVERT JUMPDEST POP PUSH2 0x392 PUSH1 0x4 DUP1 CALLDATASIZE SUB DUP2 ADD SWAP1 PUSH2 0x38D SWAP2 SWAP1 PUSH2 0x2755 JUMP JUMPDEST PUSH2 0xA0D JUMP JUMPDEST STOP JUMPDEST CALLVALUE DUP1 ISZERO PUSH2 0x3A0 JUMPI PUSH1 0x0 DUP1 REVERT JUMPDEST POP PUSH2 0x3A9 PUSH2 0xAD6 JUMP JUMPDEST PUSH1 0x40 MLOAD PUSH2 0x3B6 SWAP2 SWAP1 PUSH2 0x279E JUMP JUMPDEST PUSH1 0x40 MLOAD DUP1 SWAP2 SUB SWAP1 RETURN JUMPDEST CALLVALUE DUP1 ISZERO PUSH2 0x3CB JUMPI PUSH1 0x0 DUP1 REVERT JUMPDEST POP PUSH2 0x3D4 PUSH2 0xADF JUMP JUMPDEST PUSH1 0x40 MLOAD PUSH2 0x3E1 SWAP2 SWAP1 PUSH2 0x26E7 JUMP JUMPDEST PUSH1 0x40 MLOAD DUP1 SWAP2 SUB SWAP1 RETURN JUMPDEST PUSH2 0x404 PUSH1 0x4 DUP1 CALLDATASIZE SUB DUP2 ADD SWAP1 PUSH2 0x3FF SWAP2 SWAP1 PUSH2 0x2755 JUMP JUMPDEST PUSH2 0xAED JUMP JUMPDEST STOP JUMPDEST CALLVALUE DUP1 ISZERO PUSH2 0x412 JUMPI PUSH1 0x0 DUP1 REVERT JUMPDEST POP PUSH2 0x41B PUSH2 0xE6D JUMP JUMPDEST PUSH1 0x40 MLOAD PUSH2 0x42F SWAP9 SWAP8 SWAP7 SWAP6 SWAP5 SWAP4 SWAP3 SWAP2 SWAP1 PUSH2 0x27C8 JUMP JUMPDEST PUSH1 0x40 MLOAD DUP1 SWAP2 SUB SWAP1 RETURN JUMPDEST CALLVALUE DUP1 ISZERO PUSH2 0x444 JUMPI PUSH1 0x0 DUP1 REVERT JUMPDEST POP PUSH2 0x45F PUSH1 0x4 DUP1 CALLDATASIZE SUB DUP2 ADD SWAP1 PUSH2 0x45A SWAP2 SWAP1 PUSH2 0x2755 JUMP JUMPDEST PUSH2 0x1075 JUMP JUMPDEST PUSH1 0x40 MLOAD PUSH2 0x46E SWAP4 SWAP3 SWAP2 SWAP1 PUSH2 0x285B JUMP JUMPDEST PUSH1 0x40 MLOAD DUP1 SWAP2 SUB SWAP1 RETURN JUMPDEST CALLVALUE DUP1 ISZERO PUSH2 0x483 JUMPI PUSH1 0x0 DUP1 REVERT JUMPDEST POP PUSH2 0x49E PUSH1 0x4 DUP1 CALLDATASIZE SUB DUP2 ADD SWAP1 PUSH2 0x499 SWAP2 SWAP1 PUSH2 0x28BE JUMP JUMPDEST PUSH2 0x10AF JUMP JUMPDEST PUSH1 0x40 MLOAD PUSH2 0x4AB SWAP2 SWAP1 PUSH2 0x26E7 JUMP JUMPDEST PUSH1 0x40 MLOAD DUP1 SWAP2 SUB SWAP1 RETURN JUMPDEST CALLVALUE DUP1 ISZERO PUSH2 0x4C0 JUMPI PUSH1 0x0 DUP1 REVERT JUMPDEST POP PUSH2 0x4C9 PUSH2 0x1156 JUMP JUMPDEST PUSH1 0x40 MLOAD PUSH2 0x4D6 SWAP2 SWAP1 PUSH2 0x28FE JUMP JUMPDEST PUSH1 0x40 MLOAD DUP1 SWAP2 SUB SWAP1 RETURN JUMPDEST CALLVALUE DUP1 ISZERO PUSH2 0x4EB JUMPI PUSH1 0x0 DUP1 REVERT JUMPDEST POP PUSH2 0x4F4 PUSH2 0x117A JUMP JUMPDEST PUSH1 0x40 MLOAD PUSH2 0x501 SWAP2 SWAP1 PUSH2 0x26E7 JUMP JUMPDEST PUSH1 0x40 MLOAD DUP1 SWAP2 SUB SWAP1 RETURN JUMPDEST CALLVALUE DUP1 ISZERO PUSH2 0x516 JUMPI PUSH1 0x0 DUP1 REVERT JUMPDEST POP PUSH2 0x51F PUSH2 0x1180 JUMP JUMPDEST PUSH1 0x40 MLOAD PUSH2 0x52C SWAP2 SWAP1 PUSH2 0x2A4E JUMP JUMPDEST PUSH1 0x40 MLOAD DUP1 SWAP2 SUB SWAP1 RETURN JUMPDEST CALLVALUE DUP1 ISZERO PUSH2 0x541 JUMPI PUSH1 0x0 DUP1 REVERT JUMPDEST POP PUSH2 0x54A PUSH2 0x13F1 JUMP JUMPDEST PUSH1 0x40 MLOAD PUSH2 0x557 SWAP2 SWAP1 PUSH2 0x26E7 JUMP JUMPDEST PUSH1 0x40 MLOAD DUP1 SWAP2 SUB SWAP1 RETURN JUMPDEST CALLVALUE DUP1 ISZERO PUSH2 0x56C JUMPI PUSH1 0x0 DUP1 REVERT JUMPDEST POP PUSH2 0x587 PUSH1 0x4 DUP1 CALLDATASIZE SUB DUP2 ADD SWAP1 PUSH2 0x582 SWAP2 SWAP1 PUSH2 0x2A70 JUMP JUMPDEST PUSH2 0x13F7 JUMP JUMPDEST PUSH1 0x40 MLOAD PUSH2 0x594 SWAP2 SWAP1 PUSH2 0x26E7 JUMP JUMPDEST PUSH1 0x40 MLOAD DUP1 SWAP2 SUB SWAP1 RETURN JUMPDEST CALLVALUE DUP1 ISZERO PUSH2 0x5A9 JUMPI PUSH1 0x0 DUP1 REVERT JUMPDEST POP PUSH2 0x5B2 PUSH2 0x140F JUMP JUMPDEST PUSH1 0x40 MLOAD PUSH2 0x5BF SWAP2 SWAP1 PUSH2 0x26E7 JUMP JUMPDEST PUSH1 0x40 MLOAD DUP1 SWAP2 SUB SWAP1 RETURN JUMPDEST CALLVALUE DUP1 ISZERO PUSH2 0x5D4 JUMPI PUSH1 0x0 DUP1 REVERT JUMPDEST POP PUSH2 0x5EF PUSH1 0x4 DUP1 CALLDATASIZE SUB DUP2 ADD SWAP1 PUSH2 0x5EA SWAP2 SWAP1 PUSH2 0x2755 JUMP JUMPDEST PUSH2 0x1415 JUMP JUMPDEST STOP JUMPDEST CALLVALUE DUP1 ISZERO PUSH2 0x5FD JUMPI PUSH1 0x0 DUP1 REVERT JUMPDEST POP PUSH2 0x606 PUSH2 0x1771 JUMP JUMPDEST PUSH1 0x40 MLOAD PUSH2 0x613 SWAP2 SWAP1 PUSH2 0x26BD JUMP JUMPDEST PUSH1 0x40 MLOAD DUP1 SWAP2 SUB SWAP1 RETURN JUMPDEST CALLVALUE DUP1 ISZERO PUSH2 0x628 JUMPI PUSH1 0x0 DUP1 REVERT JUMPDEST POP PUSH2 0x643 PUSH1 0x4 DUP1 CALLDATASIZE SUB DUP2 ADD SWAP1 PUSH2 0x63E SWAP2 SWAP1 PUSH2 0x2A70 JUMP JUMPDEST PUSH2 0x1784 JUMP JUMPDEST PUSH1 0x40 MLOAD PUSH2 0x650 SWAP2 SWAP1 PUSH2 0x26E7 JUMP JUMPDEST PUSH1 0x40 MLOAD DUP1 SWAP2 SUB SWAP1 RETURN JUMPDEST CALLVALUE DUP1 ISZERO PUSH2 0x665 JUMPI PUSH1 0x0 DUP1 REVERT JUMPDEST POP PUSH2 0x66E PUSH2 0x17CC JUMP JUMPDEST STOP JUMPDEST CALLVALUE DUP1 ISZERO PUSH2 0x67C JUMPI PUSH1 0x0 DUP1 REVERT JUMPDEST POP PUSH2 0x685 PUSH2 0x17E0 JUMP JUMPDEST PUSH1 0x40 MLOAD PUSH2 0x692 SWAP2 SWAP1 PUSH2 0x26E7 JUMP JUMPDEST PUSH1 0x40 MLOAD DUP1 SWAP2 SUB SWAP1 RETURN JUMPDEST CALLVALUE DUP1 ISZERO PUSH2 0x6A7 JUMPI PUSH1 0x0 DUP1 REVERT JUMPDEST POP PUSH2 0x6C2 PUSH1 0x4 DUP1 CALLDATASIZE SUB DUP2 ADD SWAP1 PUSH2 0x6BD SWAP2 SWAP1 PUSH2 0x2755 JUMP JUMPDEST PUSH2 0x1804 JUMP JUMPDEST PUSH1 0x40 MLOAD PUSH2 0x6CF SWAP2 SWAP1 PUSH2 0x2B8E JUMP JUMPDEST PUSH1 0x40 MLOAD DUP1 SWAP2 SUB SWAP1 RETURN JUMPDEST CALLVALUE DUP1 ISZERO PUSH2 0x6E4 JUMPI PUSH1 0x0 DUP1 REVERT JUMPDEST POP PUSH2 0x6ED PUSH2 0x1919 JUMP JUMPDEST PUSH1 0x40 MLOAD PUSH2 0x6FA SWAP2 SWAP1 PUSH2 0x28FE JUMP JUMPDEST PUSH1 0x40 MLOAD DUP1 SWAP2 SUB SWAP1 RETURN JUMPDEST CALLVALUE DUP1 ISZERO PUSH2 0x70F JUMPI PUSH1 0x0 DUP1 REVERT JUMPDEST POP PUSH2 0x718 PUSH2 0x1943 JUMP JUMPDEST PUSH1 0x40 MLOAD PUSH2 0x725 SWAP2 SWAP1 PUSH2 0x25E2 JUMP JUMPDEST PUSH1 0x40 MLOAD DUP1 SWAP2 SUB SWAP1 RETURN JUMPDEST CALLVALUE DUP1 ISZERO PUSH2 0x73A JUMPI PUSH1 0x0 DUP1 REVERT JUMPDEST POP PUSH2 0x743 PUSH2 0x19D5 JUMP JUMPDEST PUSH1 0x40 MLOAD PUSH2 0x750 SWAP2 SWAP1 PUSH2 0x26E7 JUMP JUMPDEST PUSH1 0x40 MLOAD DUP1 SWAP2 SUB SWAP1 RETURN JUMPDEST CALLVALUE DUP1 ISZERO PUSH2 0x765 JUMPI PUSH1 0x0 DUP1 REVERT JUMPDEST POP PUSH2 0x780 PUSH1 0x4 DUP1 CALLDATASIZE SUB DUP2 ADD SWAP1 PUSH2 0x77B SWAP2 SWAP1 PUSH2 0x2662 JUMP JUMPDEST PUSH2 0x19DB JUMP JUMPDEST PUSH1 0x40 MLOAD PUSH2 0x78D SWAP2 SWAP1 PUSH2 0x26BD JUMP JUMPDEST PUSH1 0x40 MLOAD DUP1 SWAP2 SUB SWAP1 RETURN JUMPDEST CALLVALUE DUP1 ISZERO PUSH2 0x7A2 JUMPI PUSH1 0x0 DUP1 REVERT JUMPDEST POP PUSH2 0x7AB PUSH2 0x19FE JUMP JUMPDEST PUSH1 0x40 MLOAD PUSH2 0x7B8 SWAP2 SWAP1 PUSH2 0x26E7 JUMP JUMPDEST PUSH1 0x40 MLOAD DUP1 SWAP2 SUB SWAP1 RETURN JUMPDEST CALLVALUE DUP1 ISZERO PUSH2 0x7CD JUMPI PUSH1 0x0 DUP1 REVERT JUMPDEST POP PUSH2 0x7D6 PUSH2 0x1A07 JUMP JUMPDEST PUSH1 0x40 MLOAD PUSH2 0x7E3 SWAP2 SWAP1 PUSH2 0x26E7 JUMP JUMPDEST PUSH1 0x40 MLOAD DUP1 SWAP2 SUB SWAP1 RETURN JUMPDEST CALLVALUE DUP1 ISZERO PUSH2 0x7F8 JUMPI PUSH1 0x0 DUP1 REVERT JUMPDEST POP PUSH2 0x813 PUSH1 0x4 DUP1 CALLDATASIZE SUB DUP2 ADD SWAP1 PUSH2 0x80E SWAP2 SWAP1 PUSH2 0x2BB0 JUMP JUMPDEST PUSH2 0x1A0D JUMP JUMPDEST STOP JUMPDEST CALLVALUE DUP1 ISZERO PUSH2 0x821 JUMPI PUSH1 0x0 DUP1 REVERT JUMPDEST POP PUSH2 0x83C PUSH1 0x4 DUP1 CALLDATASIZE SUB DUP2 ADD SWAP1 PUSH2 0x837 SWAP2 SWAP1 PUSH2 0x2BDD JUMP JUMPDEST PUSH2 0x1A35 JUMP JUMPDEST PUSH1 0x40 MLOAD PUSH2 0x849 SWAP2 SWAP1 PUSH2 0x26E7 JUMP JUMPDEST PUSH1 0x40 MLOAD DUP1 SWAP2 SUB SWAP1 RETURN JUMPDEST CALLVALUE DUP1 ISZERO PUSH2 0x85E JUMPI PUSH1 0x0 DUP1 REVERT JUMPDEST POP PUSH2 0x867 PUSH2 0x1ABC JUMP JUMPDEST PUSH1 0x40 MLOAD PUSH2 0x879 SWAP7 SWAP6 SWAP5 SWAP4 SWAP3 SWAP2 SWAP1 PUSH2 0x2C1D JUMP JUMPDEST PUSH1 0x40 MLOAD DUP1 SWAP2 SUB SWAP1 RETURN JUMPDEST CALLVALUE DUP1 ISZERO PUSH2 0x88E JUMPI PUSH1 0x0 DUP1 REVERT JUMPDEST POP PUSH2 0x8A9 PUSH1 0x4 DUP1 CALLDATASIZE SUB DUP2 ADD SWAP1 PUSH2 0x8A4 SWAP2 SWAP1 PUSH2 0x2A70 JUMP JUMPDEST PUSH2 0x1AF8 JUMP JUMPDEST STOP JUMPDEST PUSH2 0x8B3 PUSH2 0x1B7E JUMP JUMPDEST DUP2 PUSH1 0x9 PUSH1 0x1 ADD SWAP1 DUP2 PUSH2 0x8C5 SWAP2 SWAP1 PUSH2 0x2E8A JUMP JUMPDEST POP DUP1 PUSH1 0x9 PUSH1 0x2 ADD DUP2 SWAP1 SSTORE POP PUSH32 0xC0D21BDC9727F7D39495FF4DD003E22925DE85F1E81AACFD7CAA71E65034E9DF DUP3 DUP3 PUSH1 0x40 MLOAD PUSH2 0x901 SWAP3 SWAP2 SWAP1 PUSH2 0x2F5C JUMP JUMPDEST PUSH1 0x40 MLOAD DUP1 SWAP2 SUB SWAP1 LOG1 POP POP JUMP JUMPDEST PUSH1 0x60 PUSH1 0x3 DUP1 SLOAD PUSH2 0x91C SWAP1 PUSH2 0x2CAD JUMP JUMPDEST DUP1 PUSH1 0x1F ADD PUSH1 0x20 DUP1 SWAP2 DIV MUL PUSH1 0x20 ADD PUSH1 0x40 MLOAD SWAP1 DUP2 ADD PUSH1 0x40 MSTORE DUP1 SWAP3 SWAP2 SWAP1 DUP2 DUP2 MSTORE PUSH1 0x20 ADD DUP3 DUP1 SLOAD PUSH2 0x948 SWAP1 PUSH2 0x2CAD JUMP JUMPDEST DUP1 ISZERO PUSH2 0x995 JUMPI DUP1 PUSH1 0x1F LT PUSH2 0x96A JUMPI PUSH2 0x100 DUP1 DUP4 SLOAD DIV MUL DUP4 MSTORE SWAP2 PUSH1 0x20 ADD SWAP2 PUSH2 0x995 JUMP JUMPDEST DUP3 ADD SWAP2 SWAP1 PUSH1 0x0 MSTORE PUSH1 0x20 PUSH1 0x0 KECCAK256 SWAP1 JUMPDEST DUP2 SLOAD DUP2 MSTORE SWAP1 PUSH1 0x1 ADD SWAP1 PUSH1 0x20 ADD DUP1 DUP4 GT PUSH2 0x978 JUMPI DUP3 SWAP1 SUB PUSH1 0x1F AND DUP3 ADD SWAP2 JUMPDEST POP POP POP POP POP SWAP1 POP SWAP1 JUMP JUMPDEST PUSH1 0x0 DUP1 PUSH2 0x9AA PUSH2 0x1C05 JUMP JUMPDEST SWAP1 POP PUSH2 0x9B7 DUP2 DUP6 DUP6 PUSH2 0x1C0D JUMP JUMPDEST PUSH1 0x1 SWAP2 POP POP SWAP3 SWAP2 POP POP JUMP JUMPDEST PUSH1 0x11 SLOAD DUP2 JUMP JUMPDEST PUSH1 0x0 PUSH1 0x2 SLOAD SWAP1 POP SWAP1 JUMP JUMPDEST PUSH8 0x16345785D8A0000 DUP2 JUMP JUMPDEST PUSH1 0x0 DUP1 PUSH2 0x9E9 PUSH2 0x1C05 JUMP JUMPDEST SWAP1 POP PUSH2 0x9F6 DUP6 DUP3 DUP6 PUSH2 0x1C1F JUMP JUMPDEST PUSH2 0xA01 DUP6 DUP6 DUP6 PUSH2 0x1CB4 JUMP JUMPDEST PUSH1 0x1 SWAP2 POP POP SWAP4 SWAP3 POP POP POP JUMP JUMPDEST PUSH2 0xA15 PUSH2 0x1B7E JUMP JUMPDEST DUP1 PUSH8 0x16345785D8A0000 PUSH2 0xA29 SWAP2 SWAP1 PUSH2 0x2FBB JUMP JUMPDEST PUSH1 0x10 SLOAD GT PUSH2 0xA6C JUMPI PUSH1 0x40 MLOAD PUSH32 0x8C379A000000000000000000000000000000000000000000000000000000000 DUP2 MSTORE PUSH1 0x4 ADD PUSH2 0xA63 SWAP1 PUSH2 0x303B JUMP JUMPDEST PUSH1 0x40 MLOAD DUP1 SWAP2 SUB SWAP1 REVERT JUMPDEST DUP1 PUSH1 0x10 PUSH1 0x0 DUP3 DUP3 SLOAD PUSH2 0xA7E SWAP2 SWAP1 PUSH2 0x305B JUMP JUMPDEST SWAP3 POP POP DUP2 SWAP1 SSTORE POP PUSH2 0xA8D PUSH2 0x1919 JUMP JUMPDEST PUSH20 0xFFFFFFFFFFFFFFFFFFFFFFFFFFFFFFFFFFFFFFFF AND PUSH2 0x8FC DUP3 SWAP1 DUP2 ISZERO MUL SWAP1 PUSH1 0x40 MLOAD PUSH1 0x0 PUSH1 0x40 MLOAD DUP1 DUP4 SUB DUP2 DUP6 DUP9 DUP9 CALL SWAP4 POP POP POP POP ISZERO DUP1 ISZERO PUSH2 0xAD2 JUMPI RETURNDATASIZE PUSH1 0x0 DUP1 RETURNDATACOPY RETURNDATASIZE PUSH1 0x0 REVERT JUMPDEST POP POP JUMP JUMPDEST PUSH1 0x0 PUSH1 0x12 SWAP1 POP SWAP1 JUMP JUMPDEST PUSH10 0xD3C21BCECCEDA1000000 DUP2 JUMP JUMPDEST PUSH2 0xAF5 PUSH2 0x1DA8 JUMP JUMPDEST PUSH1 0x14 PUSH1 0x0 SWAP1 SLOAD SWAP1 PUSH2 0x100 EXP SWAP1 DIV PUSH1 0xFF AND PUSH2 0xB44 JUMPI PUSH1 0x40 MLOAD PUSH32 0x8C379A000000000000000000000000000000000000000000000000000000000 DUP2 MSTORE PUSH1 0x4 ADD PUSH2 0xB3B SWAP1 PUSH2 0x30DB JUMP JUMPDEST PUSH1 0x40 MLOAD DUP1 SWAP2 SUB SWAP1 REVERT JUMPDEST PUSH1 0x0 DUP2 GT PUSH2 0xB87 JUMPI PUSH1 0x40 MLOAD PUSH32 0x8C379A000000000000000000000000000000000000000000000000000000000 DUP2 MSTORE PUSH1 0x4 ADD PUSH2 0xB7E SWAP1 PUSH2 0x3147 JUMP JUMPDEST PUSH1 0x40 MLOAD DUP1 SWAP2 SUB SWAP1 REVERT JUMPDEST PUSH1 0x9 PUSH1 0x3 ADD PUSH1 0x0 SWAP1 SLOAD SWAP1 PUSH2 0x100 EXP SWAP1 DIV PUSH1 0xFF AND PUSH2 0xBD9 JUMPI PUSH1 0x40 MLOAD PUSH32 0x8C379A000000000000000000000000000000000000000000000000000000000 DUP2 MSTORE PUSH1 0x4 ADD PUSH2 0xBD0 SWAP1 PUSH2 0x31B3 JUMP JUMPDEST PUSH1 0x40 MLOAD DUP1 SWAP2 SUB SWAP1 REVERT JUMPDEST PUSH1 0x0 PUSH2 0xBE4 ADDRESS PUSH2 0x1784 JUMP JUMPDEST SWAP1 POP DUP1 DUP3 GT ISZERO PUSH2 0xC29 JUMPI PUSH1 0x40 MLOAD PUSH32 0x8C379A000000000000000000000000000000000000000000000000000000000 DUP2 MSTORE PUSH1 0x4 ADD PUSH2 0xC20 SWAP1 PUSH2 0x321F JUMP JUMPDEST PUSH1 0x40 MLOAD DUP1 SWAP2 SUB SWAP1 REVERT JUMPDEST PUSH1 0x0 PUSH2 0xC36 DUP4 PUSH1 0x1 PUSH2 0x10AF JUMP JUMPDEST SWAP1 POP PUSH1 0x0 PUSH8 0xDE0B6B3A7640000 DUP3 DUP6 PUSH2 0xC4F SWAP2 SWAP1 PUSH2 0x323F JUMP JUMPDEST PUSH2 0xC59 SWAP2 SWAP1 PUSH2 0x32B0 JUMP JUMPDEST SWAP1 POP DUP1 CALLVALUE LT ISZERO PUSH2 0xC9E JUMPI PUSH1 0x40 MLOAD PUSH32 0x8C379A000000000000000000000000000000000000000000000000000000000 DUP2 MSTORE PUSH1 0x4 ADD PUSH2 0xC95 SWAP1 PUSH2 0x332D JUMP JUMPDEST PUSH1 0x40 MLOAD DUP1 SWAP2 SUB SWAP1 REVERT JUMPDEST PUSH2 0xCA9 ADDRESS CALLER DUP7 PUSH2 0x1CB4 JUMP JUMPDEST PUSH1 0x15 PUSH1 0x40 MLOAD DUP1 PUSH1 0x60 ADD PUSH1 0x40 MSTORE DUP1 TIMESTAMP DUP2 MSTORE PUSH1 0x20 ADD DUP5 DUP2 MSTORE PUSH1 0x20 ADD DUP7 DUP2 MSTORE POP SWAP1 DUP1 PUSH1 0x1 DUP2 SLOAD ADD DUP1 DUP3 SSTORE DUP1 SWAP2 POP POP PUSH1 0x1 SWAP1 SUB SWAP1 PUSH1 0x0 MSTORE PUSH1 0x20 PUSH1 0x0 KECCAK256 SWAP1 PUSH1 0x3 MUL ADD PUSH1 0x0 SWAP1 SWAP2 SWAP1 SWAP2 SWAP1 SWAP2 POP PUSH1 0x0 DUP3 ADD MLOAD DUP2 PUSH1 0x0 ADD SSTORE PUSH1 0x20 DUP3 ADD MLOAD DUP2 PUSH1 0x1 ADD SSTORE PUSH1 0x40 DUP3 ADD MLOAD DUP2 PUSH1 0x2 ADD SSTORE POP POP DUP2 PUSH1 0x8 DUP2 SWAP1 SSTORE POP TIMESTAMP PUSH1 0x12 DUP2 SWAP1 SSTORE POP DUP4 PUSH1 0x11 PUSH1 0x0 DUP3 DUP3 SLOAD PUSH2 0xD2F SWAP2 SWAP1 PUSH2 0x2FBB JUMP JUMPDEST SWAP3 POP POP DUP2 SWAP1 SSTORE POP DUP4 PUSH2 0xD40 CALLER PUSH2 0x1784 JUMP JUMPDEST SUB PUSH2 0xD5E JUMPI PUSH1 0x13 PUSH1 0x0 DUP2 SLOAD DUP1 SWAP3 SWAP2 SWAP1 PUSH2 0xD58 SWAP1 PUSH2 0x334D JUMP JUMPDEST SWAP2 SWAP1 POP SSTORE POP JUMPDEST DUP1 PUSH1 0x10 PUSH1 0x0 DUP3 DUP3 SLOAD PUSH2 0xD70 SWAP2 SWAP1 PUSH2 0x2FBB JUMP JUMPDEST SWAP3 POP POP DUP2 SWAP1 SSTORE POP DUP1 CALLVALUE GT ISZERO PUSH2 0xDD2 JUMPI CALLER PUSH20 0xFFFFFFFFFFFFFFFFFFFFFFFFFFFFFFFFFFFFFFFF AND PUSH2 0x8FC DUP3 CALLVALUE PUSH2 0xDA5 SWAP2 SWAP1 PUSH2 0x305B JUMP JUMPDEST SWAP1 DUP2 ISZERO MUL SWAP1 PUSH1 0x40 MLOAD PUSH1 0x0 PUSH1 0x40 MLOAD DUP1 DUP4 SUB DUP2 DUP6 DUP9 DUP9 CALL SWAP4 POP POP POP POP ISZERO DUP1 ISZERO PUSH2 0xDD0 JUMPI RETURNDATASIZE PUSH1 0x0 DUP1 RETURNDATACOPY RETURNDATASIZE PUSH1 0x0 REVERT JUMPDEST POP JUMPDEST CALLER PUSH20 0xFFFFFFFFFFFFFFFFFFFFFFFFFFFFFFFFFFFFFFFF AND PUSH32 0x8FAFEBCAF9D154343DAD25669BFA277F4FBACD7AC6B0C4FED522580E040A0F33 DUP6 DUP5 PUSH1 0x40 MLOAD PUSH2 0xE1A SWAP3 SWAP2 SWAP1 PUSH2 0x3395 JUMP JUMPDEST PUSH1 0x40 MLOAD DUP1 SWAP2 SUB SWAP1 LOG2 PUSH32 0x15819DD2FD9F6418B142E798D08A18D0BF06EA368F4480B7B0D3F75BD966BC48 PUSH1 0x8 SLOAD DUP4 TIMESTAMP PUSH1 0x40 MLOAD PUSH2 0xE57 SWAP4 SWAP3 SWAP2 SWAP1 PUSH2 0x285B JUMP JUMPDEST PUSH1 0x40 MLOAD DUP1 SWAP2 SUB SWAP1 LOG1 POP POP POP PUSH2 0xE6A PUSH2 0x1DEE JUMP JUMPDEST POP JUMP JUMPDEST PUSH1 0x9 DUP1 PUSH1 0x0 ADD DUP1 SLOAD PUSH2 0xE7E SWAP1 PUSH2 0x2CAD JUMP JUMPDEST DUP1 PUSH1 0x1F ADD PUSH1 0x20 DUP1 SWAP2 DIV MUL PUSH1 0x20 ADD PUSH1 0x40 MLOAD SWAP1 DUP2 ADD PUSH1 0x40 MSTORE DUP1 SWAP3 SWAP2 SWAP1 DUP2 DUP2 MSTORE PUSH1 0x20 ADD DUP3 DUP1 SLOAD PUSH2 0xEAA SWAP1 PUSH2 0x2CAD JUMP JUMPDEST DUP1 ISZERO PUSH2 0xEF7 JUMPI DUP1 PUSH1 0x1F LT PUSH2 0xECC JUMPI PUSH2 0x100 DUP1 DUP4 SLOAD DIV MUL DUP4 MSTORE SWAP2 PUSH1 0x20 ADD SWAP2 PUSH2 0xEF7 JUMP JUMPDEST DUP3 ADD SWAP2 SWAP1 PUSH1 0x0 MSTORE PUSH1 0x20 PUSH1 0x0 KECCAK256 SWAP1 JUMPDEST DUP2 SLOAD DUP2 MSTORE SWAP1 PUSH1 0x1 ADD SWAP1 PUSH1 0x20 ADD DUP1 DUP4 GT PUSH2 0xEDA JUMPI DUP3 SWAP1 SUB PUSH1 0x1F AND DUP3 ADD SWAP2 JUMPDEST POP POP POP POP POP SWAP1 DUP1 PUSH1 0x1 ADD DUP1 SLOAD PUSH2 0xF0C SWAP1 PUSH2 0x2CAD JUMP JUMPDEST DUP1 PUSH1 0x1F ADD PUSH1 0x20 DUP1 SWAP2 DIV MUL PUSH1 0x20 ADD PUSH1 0x40 MLOAD SWAP1 DUP2 ADD PUSH1 0x40 MSTORE DUP1 SWAP3 SWAP2 SWAP1 DUP2 DUP2 MSTORE PUSH1 0x20 ADD DUP3 DUP1 SLOAD PUSH2 0xF38 SWAP1 PUSH2 0x2CAD JUMP JUMPDEST DUP1 ISZERO PUSH2 0xF85 JUMPI DUP1 PUSH1 0x1F LT PUSH2 0xF5A JUMPI PUSH2 0x100 DUP1 DUP4 SLOAD DIV MUL DUP4 MSTORE SWAP2 PUSH1 0x20 ADD SWAP2 PUSH2 0xF85 JUMP JUMPDEST DUP3 ADD SWAP2 SWAP1 PUSH1 0x0 MSTORE PUSH1 0x20 PUSH1 0x0 KECCAK256 SWAP1 JUMPDEST DUP2 SLOAD DUP2 MSTORE SWAP1 PUSH1 0x1 ADD SWAP1 PUSH1 0x20 ADD DUP1 DUP4 GT PUSH2 0xF68 JUMPI DUP3 SWAP1 SUB PUSH1 0x1F AND DUP3 ADD SWAP2 JUMPDEST POP POP POP POP POP SWAP1 DUP1 PUSH1 0x2 ADD SLOAD SWAP1 DUP1 PUSH1 0x3 ADD PUSH1 0x0 SWAP1 SLOAD SWAP1 PUSH2 0x100 EXP SWAP1 DIV PUSH1 0xFF AND SWAP1 DUP1 PUSH1 0x3 ADD PUSH1 0x1 SWAP1 SLOAD SWAP1 PUSH2 0x100 EXP SWAP1 DIV PUSH20 0xFFFFFFFFFFFFFFFFFFFFFFFFFFFFFFFFFFFFFFFF AND SWAP1 DUP1 PUSH1 0x4 ADD SLOAD SWAP1 DUP1 PUSH1 0x5 ADD DUP1 SLOAD PUSH2 0xFDF SWAP1 PUSH2 0x2CAD JUMP JUMPDEST DUP1 PUSH1 0x1F ADD PUSH1 0x20 DUP1 SWAP2 DIV MUL PUSH1 0x20 ADD PUSH1 0x40 MLOAD SWAP1 DUP2 ADD PUSH1 0x40 MSTORE DUP1 SWAP3 SWAP2 SWAP1 DUP2 DUP2 MSTORE PUSH1 0x20 ADD DUP3 DUP1 SLOAD PUSH2 0x100B SWAP1 PUSH2 0x2CAD JUMP JUMPDEST DUP1 ISZERO PUSH2 0x1058 JUMPI DUP1 PUSH1 0x1F LT PUSH2 0x102D JUMPI PUSH2 0x100 DUP1 DUP4 SLOAD DIV MUL DUP4 MSTORE SWAP2 PUSH1 0x20 ADD SWAP2 PUSH2 0x1058 JUMP JUMPDEST DUP3 ADD SWAP2 SWAP1 PUSH1 0x0 MSTORE PUSH1 0x20 PUSH1 0x0 KECCAK256 SWAP1 JUMPDEST DUP2 SLOAD DUP2 MSTORE SWAP1 PUSH1 0x1 ADD SWAP1 PUSH1 0x20 ADD DUP1 DUP4 GT PUSH2 0x103B JUMPI DUP3 SWAP1 SUB PUSH1 0x1F AND DUP3 ADD SWAP2 JUMPDEST POP POP POP POP POP SWAP1 DUP1 PUSH1 0x6 ADD PUSH1 0x0 SWAP1 SLOAD SWAP1 PUSH2 0x100 EXP SWAP1 DIV PUSH1 0xFF AND SWAP1 POP DUP9 JUMP JUMPDEST PUSH1 0x15 DUP2 DUP2 SLOAD DUP2 LT PUSH2 0x1085 JUMPI PUSH1 0x0 DUP1 REVERT JUMPDEST SWAP1 PUSH1 0x0 MSTORE PUSH1 0x20 PUSH1 0x0 KECCAK256 SWAP1 PUSH1 0x3 MUL ADD PUSH1 0x0 SWAP2 POP SWAP1 POP DUP1 PUSH1 0x0 ADD SLOAD SWAP1 DUP1 PUSH1 0x1 ADD SLOAD SWAP1 DUP1 PUSH1 0x2 ADD SLOAD SWAP1 POP DUP4 JUMP JUMPDEST PUSH1 0x0 DUP1 DUP4 GT PUSH2 0x10F3 JUMPI PUSH1 0x40 MLOAD PUSH32 0x8C379A000000000000000000000000000000000000000000000000000000000 DUP2 MSTORE PUSH1 0x4 ADD PUSH2 0x10EA SWAP1 PUSH2 0x3147 JUMP JUMPDEST PUSH1 0x40 MLOAD DUP1 SWAP2 SUB SWAP1 REVERT JUMPDEST PUSH1 0x0 PUSH2 0x10FE ADDRESS PUSH2 0x1784 JUMP JUMPDEST SWAP1 POP PUSH1 0x0 PUSH8 0xDE0B6B3A7640000 SWAP1 POP PUSH1 0x0 PUSH1 0x1 DUP4 PUSH2 0x111C SWAP2 SWAP1 PUSH2 0x2FBB JUMP JUMPDEST DUP3 DUP8 PUSH2 0x1128 SWAP2 SWAP1 PUSH2 0x323F JUMP JUMPDEST PUSH2 0x1132 SWAP2 SWAP1 PUSH2 0x32B0 JUMP JUMPDEST SWAP1 POP PUSH1 0x0 DUP2 PUSH5 0x2540BE400 PUSH2 0x1147 SWAP2 SWAP1 PUSH2 0x2FBB JUMP JUMPDEST SWAP1 POP DUP1 SWAP5 POP POP POP POP POP SWAP3 SWAP2 POP POP JUMP JUMPDEST PUSH32 0x0 DUP2 JUMP JUMPDEST PUSH1 0x10 SLOAD DUP2 JUMP JUMPDEST PUSH2 0x1188 PUSH2 0x22F7 JUMP JUMPDEST PUSH1 0x9 PUSH1 0x40 MLOAD DUP1 PUSH2 0x100 ADD PUSH1 0x40 MSTORE SWAP1 DUP2 PUSH1 0x0 DUP3 ADD DUP1 SLOAD PUSH2 0x11A6 SWAP1 PUSH2 0x2CAD JUMP JUMPDEST DUP1 PUSH1 0x1F ADD PUSH1 0x20 DUP1 SWAP2 DIV MUL PUSH1 0x20 ADD PUSH1 0x40 MLOAD SWAP1 DUP2 ADD PUSH1 0x40 MSTORE DUP1 SWAP3 SWAP2 SWAP1 DUP2 DUP2 MSTORE PUSH1 0x20 ADD DUP3 DUP1 SLOAD PUSH2 0x11D2 SWAP1 PUSH2 0x2CAD JUMP JUMPDEST DUP1 ISZERO PUSH2 0x121F JUMPI DUP1 PUSH1 0x1F LT PUSH2 0x11F4 JUMPI PUSH2 0x100 DUP1 DUP4 SLOAD DIV MUL DUP4 MSTORE SWAP2 PUSH1 0x20 ADD SWAP2 PUSH2 0x121F JUMP JUMPDEST DUP3 ADD SWAP2 SWAP1 PUSH1 0x0 MSTORE PUSH1 0x20 PUSH1 0x0 KECCAK256 SWAP1 JUMPDEST DUP2 SLOAD DUP2 MSTORE SWAP1 PUSH1 0x1 ADD SWAP1 PUSH1 0x20 ADD DUP1 DUP4 GT PUSH2 0x1202 JUMPI DUP3 SWAP1 SUB PUSH1 0x1F AND DUP3 ADD SWAP2 JUMPDEST POP POP POP POP POP DUP2 MSTORE PUSH1 0x20 ADD PUSH1 0x1 DUP3 ADD DUP1 SLOAD PUSH2 0x1238 SWAP1 PUSH2 0x2CAD JUMP JUMPDEST DUP1 PUSH1 0x1F ADD PUSH1 0x20 DUP1 SWAP2 DIV MUL PUSH1 0x20 ADD PUSH1 0x40 MLOAD SWAP1 DUP2 ADD PUSH1 0x40 MSTORE DUP1 SWAP3 SWAP2 SWAP1 DUP2 DUP2 MSTORE PUSH1 0x20 ADD DUP3 DUP1 SLOAD PUSH2 0x1264 SWAP1 PUSH2 0x2CAD JUMP JUMPDEST DUP1 ISZERO PUSH2 0x12B1 JUMPI DUP1 PUSH1 0x1F LT PUSH2 0x1286 JUMPI PUSH2 0x100 DUP1 DUP4 SLOAD DIV MUL DUP4 MSTORE SWAP2 PUSH1 0x20 ADD SWAP2 PUSH2 0x12B1 JUMP JUMPDEST DUP3 ADD SWAP2 SWAP1 PUSH1 0x0 MSTORE PUSH1 0x20 PUSH1 0x0 KECCAK256 SWAP1 JUMPDEST DUP2 SLOAD DUP2 MSTORE SWAP1 PUSH1 0x1 ADD SWAP1 PUSH1 0x20 ADD DUP1 DUP4 GT PUSH2 0x1294 JUMPI DUP3 SWAP1 SUB PUSH1 0x1F AND DUP3 ADD SWAP2 JUMPDEST POP POP POP POP POP DUP2 MSTORE PUSH1 0x20 ADD PUSH1 0x2 DUP3 ADD SLOAD DUP2 MSTORE PUSH1 0x20 ADD PUSH1 0x3 DUP3 ADD PUSH1 0x0 SWAP1 SLOAD SWAP1 PUSH2 0x100 EXP SWAP1 DIV PUSH1 0xFF AND ISZERO ISZERO ISZERO ISZERO DUP2 MSTORE PUSH1 0x20 ADD PUSH1 0x3 DUP3 ADD PUSH1 0x1 SWAP1 SLOAD SWAP1 PUSH2 0x100 EXP SWAP1 DIV PUSH20 0xFFFFFFFFFFFFFFFFFFFFFFFFFFFFFFFFFFFFFFFF AND PUSH20 0xFFFFFFFFFFFFFFFFFFFFFFFFFFFFFFFFFFFFFFFF AND PUSH20 0xFFFFFFFFFFFFFFFFFFFFFFFFFFFFFFFFFFFFFFFF AND DUP2 MSTORE PUSH1 0x20 ADD PUSH1 0x4 DUP3 ADD SLOAD DUP2 MSTORE PUSH1 0x20 ADD PUSH1 0x5 DUP3 ADD DUP1 SLOAD PUSH2 0x134F SWAP1 PUSH2 0x2CAD JUMP JUMPDEST DUP1 PUSH1 0x1F ADD PUSH1 0x20 DUP1 SWAP2 DIV MUL PUSH1 0x20 ADD PUSH1 0x40 MLOAD SWAP1 DUP2 ADD PUSH1 0x40 MSTORE DUP1 SWAP3 SWAP2 SWAP1 DUP2 DUP2 MSTORE PUSH1 0x20 ADD DUP3 DUP1 SLOAD PUSH2 0x137B SWAP1 PUSH2 0x2CAD JUMP JUMPDEST DUP1 ISZERO PUSH2 0x13C8 JUMPI DUP1 PUSH1 0x1F LT PUSH2 0x139D JUMPI PUSH2 0x100 DUP1 DUP4 SLOAD DIV MUL DUP4 MSTORE SWAP2 PUSH1 0x20 ADD SWAP2 PUSH2 0x13C8 JUMP JUMPDEST DUP3 ADD SWAP2 SWAP1 PUSH1 0x0 MSTORE PUSH1 0x20 PUSH1 0x0 KECCAK256 SWAP1 JUMPDEST DUP2 SLOAD DUP2 MSTORE SWAP1 PUSH1 0x1 ADD SWAP1 PUSH1 0x20 ADD DUP1 DUP4 GT PUSH2 0x13AB JUMPI DUP3 SWAP1 SUB PUSH1 0x1F AND DUP3 ADD SWAP2 JUMPDEST POP POP POP POP POP DUP2 MSTORE PUSH1 0x20 ADD PUSH1 0x6 DUP3 ADD PUSH1 0x0 SWAP1 SLOAD SWAP1 PUSH2 0x100 EXP SWAP1 DIV PUSH1 0xFF AND ISZERO ISZERO ISZERO ISZERO DUP2 MSTORE POP POP SWAP1 POP SWAP1 JUMP JUMPDEST PUSH1 0x12 SLOAD DUP2 JUMP JUMPDEST PUSH1 0x16 PUSH1 0x20 MSTORE DUP1 PUSH1 0x0 MSTORE PUSH1 0x40 PUSH1 0x0 KECCAK256 PUSH1 0x0 SWAP2 POP SWAP1 POP SLOAD DUP2 JUMP JUMPDEST PUSH1 0x13 SLOAD DUP2 JUMP JUMPDEST PUSH2 0x141D PUSH2 0x1DA8 JUMP JUMPDEST PUSH1 0x14 PUSH1 0x0 SWAP1 SLOAD SWAP1 PUSH2 0x100 EXP SWAP1 DIV PUSH1 0xFF AND PUSH2 0x146C JUMPI PUSH1 0x40 MLOAD PUSH32 0x8C379A000000000000000000000000000000000000000000000000000000000 DUP2 MSTORE PUSH1 0x4 ADD PUSH2 0x1463 SWAP1 PUSH2 0x30DB JUMP JUMPDEST PUSH1 0x40 MLOAD DUP1 SWAP2 SUB SWAP1 REVERT JUMPDEST PUSH1 0x0 DUP2 GT PUSH2 0x14AF JUMPI PUSH1 0x40 MLOAD PUSH32 0x8C379A000000000000000000000000000000000000000000000000000000000 DUP2 MSTORE PUSH1 0x4 ADD PUSH2 0x14A6 SWAP1 PUSH2 0x3147 JUMP JUMPDEST PUSH1 0x40 MLOAD DUP1 SWAP2 SUB SWAP1 REVERT JUMPDEST DUP1 PUSH2 0x14B9 CALLER PUSH2 0x1784 JUMP JUMPDEST LT ISZERO PUSH2 0x14FA JUMPI PUSH1 0x40 MLOAD PUSH32 0x8C379A000000000000000000000000000000000000000000000000000000000 DUP2 MSTORE PUSH1 0x4 ADD PUSH2 0x14F1 SWAP1 PUSH2 0x340A JUMP JUMPDEST PUSH1 0x40 MLOAD DUP1 SWAP2 SUB SWAP1 REVERT JUMPDEST PUSH1 0x0 PUSH1 0x10 SLOAD GT PUSH2 0x153F JUMPI PUSH1 0x40 MLOAD PUSH32 0x8C379A000000000000000000000000000000000000000000000000000000000 DUP2 MSTORE PUSH1 0x4 ADD PUSH2 0x1536 SWAP1 PUSH2 0x3476 JUMP JUMPDEST PUSH1 0x40 MLOAD DUP1 SWAP2 SUB SWAP1 REVERT JUMPDEST PUSH1 0x0 PUSH2 0x154C DUP3 PUSH1 0x0 PUSH2 0x10AF JUMP JUMPDEST SWAP1 POP PUSH1 0x0 PUSH8 0xDE0B6B3A7640000 DUP3 DUP5 PUSH2 0x1565 SWAP2 SWAP1 PUSH2 0x323F JUMP JUMPDEST PUSH2 0x156F SWAP2 SWAP1 PUSH2 0x32B0 JUMP JUMPDEST SWAP1 POP DUP1 PUSH1 0x10 SLOAD LT ISZERO PUSH2 0x15B6 JUMPI PUSH1 0x40 MLOAD PUSH32 0x8C379A000000000000000000000000000000000000000000000000000000000 DUP2 MSTORE PUSH1 0x4 ADD PUSH2 0x15AD SWAP1 PUSH2 0x34E2 JUMP JUMPDEST PUSH1 0x40 MLOAD DUP1 SWAP2 SUB SWAP1 REVERT JUMPDEST PUSH2 0x15C1 CALLER ADDRESS DUP6 PUSH2 0x1CB4 JUMP JUMPDEST DUP2 PUSH1 0x8 DUP2 SWAP1 SSTORE POP TIMESTAMP PUSH1 0x12 DUP2 SWAP1 SSTORE POP DUP3 PUSH1 0x11 PUSH1 0x0 DUP3 DUP3 SLOAD PUSH2 0x15E1 SWAP2 SWAP1 PUSH2 0x2FBB JUMP JUMPDEST SWAP3 POP POP DUP2 SWAP1 SSTORE POP PUSH1 0x0 PUSH2 0x15F3 CALLER PUSH2 0x1784 JUMP JUMPDEST SUB PUSH2 0x1611 JUMPI PUSH1 0x13 PUSH1 0x0 DUP2 SLOAD DUP1 SWAP3 SWAP2 SWAP1 PUSH2 0x160B SWAP1 PUSH2 0x3502 JUMP JUMPDEST SWAP2 SWAP1 POP SSTORE POP JUMPDEST PUSH1 0x15 PUSH1 0x40 MLOAD DUP1 PUSH1 0x60 ADD PUSH1 0x40 MSTORE DUP1 TIMESTAMP DUP2 MSTORE PUSH1 0x20 ADD DUP5 DUP2 MSTORE PUSH1 0x20 ADD DUP6 DUP2 MSTORE POP SWAP1 DUP1 PUSH1 0x1 DUP2 SLOAD ADD DUP1 DUP3 SSTORE DUP1 SWAP2 POP POP PUSH1 0x1 SWAP1 SUB SWAP1 PUSH1 0x0 MSTORE PUSH1 0x20 PUSH1 0x0 KECCAK256 SWAP1 PUSH1 0x3 MUL ADD PUSH1 0x0 SWAP1 SWAP2 SWAP1 SWAP2 SWAP1 SWAP2 POP PUSH1 0x0 DUP3 ADD MLOAD DUP2 PUSH1 0x0 ADD SSTORE PUSH1 0x20 DUP3 ADD MLOAD DUP2 PUSH1 0x1 ADD SSTORE PUSH1 0x40 DUP3 ADD MLOAD DUP2 PUSH1 0x2 ADD SSTORE POP POP DUP1 PUSH1 0x10 PUSH1 0x0 DUP3 DUP3 SLOAD PUSH2 0x1689 SWAP2 SWAP1 PUSH2 0x305B JUMP JUMPDEST SWAP3 POP POP DUP2 SWAP1 SSTORE POP CALLER PUSH20 0xFFFFFFFFFFFFFFFFFFFFFFFFFFFFFFFFFFFFFFFF AND PUSH2 0x8FC DUP3 SWAP1 DUP2 ISZERO MUL SWAP1 PUSH1 0x40 MLOAD PUSH1 0x0 PUSH1 0x40 MLOAD DUP1 DUP4 SUB DUP2 DUP6 DUP9 DUP9 CALL SWAP4 POP POP POP POP ISZERO DUP1 ISZERO PUSH2 0x16D6 JUMPI RETURNDATASIZE PUSH1 0x0 DUP1 RETURNDATACOPY RETURNDATASIZE PUSH1 0x0 REVERT JUMPDEST POP CALLER PUSH20 0xFFFFFFFFFFFFFFFFFFFFFFFFFFFFFFFFFFFFFFFF AND PUSH32 0x2DCF9433D75DB0D8B1C172641F85E319FFE4AD22E108A95D1847CEB906E5195D DUP5 DUP5 PUSH1 0x40 MLOAD PUSH2 0x171F SWAP3 SWAP2 SWAP1 PUSH2 0x3395 JUMP JUMPDEST PUSH1 0x40 MLOAD DUP1 SWAP2 SUB SWAP1 LOG2 PUSH32 0x15819DD2FD9F6418B142E798D08A18D0BF06EA368F4480B7B0D3F75BD966BC48 PUSH1 0x8 SLOAD DUP4 TIMESTAMP PUSH1 0x40 MLOAD PUSH2 0x175C SWAP4 SWAP3 SWAP2 SWAP1 PUSH2 0x285B JUMP JUMPDEST PUSH1 0x40 MLOAD DUP1 SWAP2 SUB SWAP1 LOG1 POP POP PUSH2 0x176E PUSH2 0x1DEE JUMP JUMPDEST POP JUMP JUMPDEST PUSH1 0x14 PUSH1 0x0 SWAP1 SLOAD SWAP1 PUSH2 0x100 EXP SWAP1 DIV PUSH1 0xFF AND DUP2 JUMP JUMPDEST PUSH1 0x0 DUP1 PUSH1 0x0 DUP4 PUSH20 0xFFFFFFFFFFFFFFFFFFFFFFFFFFFFFFFFFFFFFFFF AND PUSH20 0xFFFFFFFFFFFFFFFFFFFFFFFFFFFFFFFFFFFFFFFF AND DUP2 MSTORE PUSH1 0x20 ADD SWAP1 DUP2 MSTORE PUSH1 0x20 ADD PUSH1 0x0 KECCAK256 SLOAD SWAP1 POP SWAP2 SWAP1 POP JUMP JUMPDEST PUSH2 0x17D4 PUSH2 0x1B7E JUMP JUMPDEST PUSH2 0x17DE PUSH1 0x0 PUSH2 0x1DF8 JUMP JUMPDEST JUMP JUMPDEST PUSH32 0x0 DUP2 JUMP JUMPDEST PUSH1 0x60 PUSH1 0x0 PUSH1 0x15 DUP1 SLOAD SWAP1 POP SWAP1 POP PUSH1 0x0 PUSH2 0x181C DUP5 DUP4 PUSH2 0x1EBE JUMP JUMPDEST SWAP1 POP PUSH1 0x0 DUP2 PUSH8 0xFFFFFFFFFFFFFFFF DUP2 GT ISZERO PUSH2 0x183A JUMPI PUSH2 0x1839 PUSH2 0x23A6 JUMP JUMPDEST JUMPDEST PUSH1 0x40 MLOAD SWAP1 DUP1 DUP3 MSTORE DUP1 PUSH1 0x20 MUL PUSH1 0x20 ADD DUP3 ADD PUSH1 0x40 MSTORE DUP1 ISZERO PUSH2 0x1873 JUMPI DUP2 PUSH1 0x20 ADD JUMPDEST PUSH2 0x1860 PUSH2 0x2356 JUMP JUMPDEST DUP2 MSTORE PUSH1 0x20 ADD SWAP1 PUSH1 0x1 SWAP1 SUB SWAP1 DUP2 PUSH2 0x1858 JUMPI SWAP1 POP JUMPDEST POP SWAP1 POP PUSH1 0x0 JUMPDEST DUP3 DUP2 LT ISZERO PUSH2 0x190D JUMPI PUSH1 0x15 DUP2 DUP5 DUP7 PUSH2 0x1890 SWAP2 SWAP1 PUSH2 0x305B JUMP JUMPDEST PUSH2 0x189A SWAP2 SWAP1 PUSH2 0x2FBB JUMP JUMPDEST DUP2 SLOAD DUP2 LT PUSH2 0x18AB JUMPI PUSH2 0x18AA PUSH2 0x352B JUMP JUMPDEST JUMPDEST SWAP1 PUSH1 0x0 MSTORE PUSH1 0x20 PUSH1 0x0 KECCAK256 SWAP1 PUSH1 0x3 MUL ADD PUSH1 0x40 MLOAD DUP1 PUSH1 0x60 ADD PUSH1 0x40 MSTORE SWAP1 DUP2 PUSH1 0x0 DUP3 ADD SLOAD DUP2 MSTORE PUSH1 0x20 ADD PUSH1 0x1 DUP3 ADD SLOAD DUP2 MSTORE PUSH1 0x20 ADD PUSH1 0x2 DUP3 ADD SLOAD DUP2 MSTORE POP POP DUP3 DUP3 DUP2 MLOAD DUP2 LT PUSH2 0x18F5 JUMPI PUSH2 0x18F4 PUSH2 0x352B JUMP JUMPDEST JUMPDEST PUSH1 0x20 MUL PUSH1 0x20 ADD ADD DUP2 SWAP1 MSTORE POP DUP1 DUP1 PUSH1 0x1 ADD SWAP2 POP POP PUSH2 0x1879 JUMP JUMPDEST POP DUP1 SWAP4 POP POP POP POP SWAP2 SWAP1 POP JUMP JUMPDEST PUSH1 0x0 PUSH1 0x5 PUSH1 0x0 SWAP1 SLOAD SWAP1 PUSH2 0x100 EXP SWAP1 DIV PUSH20 0xFFFFFFFFFFFFFFFFFFFFFFFFFFFFFFFFFFFFFFFF AND SWAP1 POP SWAP1 JUMP JUMPDEST PUSH1 0x60 PUSH1 0x4 DUP1 SLOAD PUSH2 0x1952 SWAP1 PUSH2 0x2CAD JUMP JUMPDEST DUP1 PUSH1 0x1F ADD PUSH1 0x20 DUP1 SWAP2 DIV MUL PUSH1 0x20 ADD PUSH1 0x40 MLOAD SWAP1 DUP2 ADD PUSH1 0x40 MSTORE DUP1 SWAP3 SWAP2 SWAP1 DUP2 DUP2 MSTORE PUSH1 0x20 ADD DUP3 DUP1 SLOAD PUSH2 0x197E SWAP1 PUSH2 0x2CAD JUMP JUMPDEST DUP1 ISZERO PUSH2 0x19CB JUMPI DUP1 PUSH1 0x1F LT PUSH2 0x19A0 JUMPI PUSH2 0x100 DUP1 DUP4 SLOAD DIV MUL DUP4 MSTORE SWAP2 PUSH1 0x20 ADD SWAP2 PUSH2 0x19CB JUMP JUMPDEST DUP3 ADD SWAP2 SWAP1 PUSH1 0x0 MSTORE PUSH1 0x20 PUSH1 0x0 KECCAK256 SWAP1 JUMPDEST DUP2 SLOAD DUP2 MSTORE SWAP1 PUSH1 0x1 ADD SWAP1 PUSH1 0x20 ADD DUP1 DUP4 GT PUSH2 0x19AE JUMPI DUP3 SWAP1 SUB PUSH1 0x1F AND DUP3 ADD SWAP2 JUMPDEST POP POP POP POP POP SWAP1 POP SWAP1 JUMP JUMPDEST PUSH1 0x8 SLOAD DUP2 JUMP JUMPDEST PUSH1 0x0 DUP1 PUSH2 0x19E6 PUSH2 0x1C05 JUMP JUMPDEST SWAP1 POP PUSH2 0x19F3 DUP2 DUP6 DUP6 PUSH2 0x1CB4 JUMP JUMPDEST PUSH1 0x1 SWAP2 POP POP SWAP3 SWAP2 POP POP JUMP JUMPDEST PUSH5 0x2540BE400 DUP2 JUMP JUMPDEST PUSH1 0x7 SLOAD DUP2 JUMP JUMPDEST PUSH2 0x1A15 PUSH2 0x1B7E JUMP JUMPDEST DUP1 PUSH1 0x9 PUSH1 0x3 ADD PUSH1 0x0 PUSH2 0x100 EXP DUP2 SLOAD DUP2 PUSH1 0xFF MUL NOT AND SWAP1 DUP4 ISZERO ISZERO MUL OR SWAP1 SSTORE POP POP JUMP JUMPDEST PUSH1 0x0 PUSH1 0x1 PUSH1 0x0 DUP5 PUSH20 0xFFFFFFFFFFFFFFFFFFFFFFFFFFFFFFFFFFFFFFFF AND PUSH20 0xFFFFFFFFFFFFFFFFFFFFFFFFFFFFFFFFFFFFFFFF AND DUP2 MSTORE PUSH1 0x20 ADD SWAP1 DUP2 MSTORE PUSH1 0x20 ADD PUSH1 0x0 KECCAK256 PUSH1 0x0 DUP4 PUSH20 0xFFFFFFFFFFFFFFFFFFFFFFFFFFFFFFFFFFFFFFFF AND PUSH20 0xFFFFFFFFFFFFFFFFFFFFFFFFFFFFFFFFFFFFFFFF AND DUP2 MSTORE PUSH1 0x20 ADD SWAP1 DUP2 MSTORE PUSH1 0x20 ADD PUSH1 0x0 KECCAK256 SLOAD SWAP1 POP SWAP3 SWAP2 POP POP JUMP JUMPDEST PUSH1 0x0 DUP1 PUSH1 0x0 DUP1 PUSH1 0x0 DUP1 PUSH1 0x8 SLOAD PUSH1 0x7 SLOAD PUSH1 0x10 SLOAD PUSH1 0x11 SLOAD PUSH1 0x13 SLOAD PUSH1 0x14 PUSH1 0x0 SWAP1 SLOAD SWAP1 PUSH2 0x100 EXP SWAP1 DIV PUSH1 0xFF AND SWAP6 POP SWAP6 POP SWAP6 POP SWAP6 POP SWAP6 POP SWAP6 POP SWAP1 SWAP2 SWAP3 SWAP4 SWAP5 SWAP6 JUMP JUMPDEST PUSH2 0x1B00 PUSH2 0x1B7E JUMP JUMPDEST PUSH1 0x0 PUSH20 0xFFFFFFFFFFFFFFFFFFFFFFFFFFFFFFFFFFFFFFFF AND DUP2 PUSH20 0xFFFFFFFFFFFFFFFFFFFFFFFFFFFFFFFFFFFFFFFF AND SUB PUSH2 0x1B72 JUMPI PUSH1 0x0 PUSH1 0x40 MLOAD PUSH32 0x1E4FBDF700000000000000000000000000000000000000000000000000000000 DUP2 MSTORE PUSH1 0x4 ADD PUSH2 0x1B69 SWAP2 SWAP1 PUSH2 0x28FE JUMP JUMPDEST PUSH1 0x40 MLOAD DUP1 SWAP2 SUB SWAP1 REVERT JUMPDEST PUSH2 0x1B7B DUP2 PUSH2 0x1DF8 JUMP JUMPDEST POP JUMP JUMPDEST PUSH2 0x1B86 PUSH2 0x1C05 JUMP JUMPDEST PUSH20 0xFFFFFFFFFFFFFFFFFFFFFFFFFFFFFFFFFFFFFFFF AND PUSH2 0x1BA4 PUSH2 0x1919 JUMP JUMPDEST PUSH20 0xFFFFFFFFFFFFFFFFFFFFFFFFFFFFFFFFFFFFFFFF AND EQ PUSH2 0x1C03 JUMPI PUSH2 0x1BC7 PUSH2 0x1C05 JUMP JUMPDEST PUSH1 0x40 MLOAD PUSH32 0x118CDAA700000000000000000000000000000000000000000000000000000000 DUP2 MSTORE PUSH1 0x4 ADD PUSH2 0x1BFA SWAP2 SWAP1 PUSH2 0x28FE JUMP JUMPDEST PUSH1 0x40 MLOAD DUP1 SWAP2 SUB SWAP1 REVERT JUMPDEST JUMP JUMPDEST PUSH1 0x0 CALLER SWAP1 POP SWAP1 JUMP JUMPDEST PUSH2 0x1C1A DUP4 DUP4 DUP4 PUSH1 0x1 PUSH2 0x1ED5 JUMP JUMPDEST POP POP POP JUMP JUMPDEST PUSH1 0x0 PUSH2 0x1C2B DUP5 DUP5 PUSH2 0x1A35 JUMP JUMPDEST SWAP1 POP PUSH32 0xFFFFFFFFFFFFFFFFFFFFFFFFFFFFFFFFFFFFFFFFFFFFFFFFFFFFFFFFFFFFFFFF DUP2 LT ISZERO PUSH2 0x1CAE JUMPI DUP2 DUP2 LT ISZERO PUSH2 0x1C9E JUMPI DUP3 DUP2 DUP4 PUSH1 0x40 MLOAD PUSH32 0xFB8F41B200000000000000000000000000000000000000000000000000000000 DUP2 MSTORE PUSH1 0x4 ADD PUSH2 0x1C95 SWAP4 SWAP3 SWAP2 SWAP1 PUSH2 0x355A JUMP JUMPDEST PUSH1 0x40 MLOAD DUP1 SWAP2 SUB SWAP1 REVERT JUMPDEST PUSH2 0x1CAD DUP5 DUP5 DUP5 DUP5 SUB PUSH1 0x0 PUSH2 0x1ED5 JUMP JUMPDEST JUMPDEST POP POP POP POP JUMP JUMPDEST PUSH1 0x0 PUSH20 0xFFFFFFFFFFFFFFFFFFFFFFFFFFFFFFFFFFFFFFFF AND DUP4 PUSH20 0xFFFFFFFFFFFFFFFFFFFFFFFFFFFFFFFFFFFFFFFF AND SUB PUSH2 0x1D26 JUMPI PUSH1 0x0 PUSH1 0x40 MLOAD PUSH32 0x96C6FD1E00000000000000000000000000000000000000000000000000000000 DUP2 MSTORE PUSH1 0x4 ADD PUSH2 0x1D1D SWAP2 SWAP1 PUSH2 0x28FE JUMP JUMPDEST PUSH1 0x40 MLOAD DUP1 SWAP2 SUB SWAP1 REVERT JUMPDEST PUSH1 0x0 PUSH20 0xFFFFFFFFFFFFFFFFFFFFFFFFFFFFFFFFFFFFFFFF AND DUP3 PUSH20 0xFFFFFFFFFFFFFFFFFFFFFFFFFFFFFFFFFFFFFFFF AND SUB PUSH2 0x1D98 JUMPI PUSH1 0x0 PUSH1 0x40 MLOAD PUSH32 0xEC442F0500000000000000000000000000000000000000000000000000000000 DUP2 MSTORE PUSH1 0x4 ADD PUSH2 0x1D8F SWAP2 SWAP1 PUSH2 0x28FE JUMP JUMPDEST PUSH1 0x40 MLOAD DUP1 SWAP2 SUB SWAP1 REVERT JUMPDEST PUSH2 0x1DA3 DUP4 DUP4 DUP4 PUSH2 0x20AC JUMP JUMPDEST POP POP POP JUMP JUMPDEST PUSH1 0x2 PUSH1 0x6 SLOAD SUB PUSH2 0x1DE4 JUMPI PUSH1 0x40 MLOAD PUSH32 0x3EE5AEB500000000000000000000000000000000000000000000000000000000 DUP2 MSTORE PUSH1 0x4 ADD PUSH1 0x40 MLOAD DUP1 SWAP2 SUB SWAP1 REVERT JUMPDEST PUSH1 0x2 PUSH1 0x6 DUP2 SWAP1 SSTORE POP JUMP JUMPDEST PUSH1 0x1 PUSH1 0x6 DUP2 SWAP1 SSTORE POP JUMP JUMPDEST PUSH1 0x0 PUSH1 0x5 PUSH1 0x0 SWAP1 SLOAD SWAP1 PUSH2 0x100 EXP SWAP1 DIV PUSH20 0xFFFFFFFFFFFFFFFFFFFFFFFFFFFFFFFFFFFFFFFF AND SWAP1 POP DUP2 PUSH1 0x5 PUSH1 0x0 PUSH2 0x100 EXP DUP2 SLOAD DUP2 PUSH20 0xFFFFFFFFFFFFFFFFFFFFFFFFFFFFFFFFFFFFFFFF MUL NOT AND SWAP1 DUP4 PUSH20 0xFFFFFFFFFFFFFFFFFFFFFFFFFFFFFFFFFFFFFFFF AND MUL OR SWAP1 SSTORE POP DUP2 PUSH20 0xFFFFFFFFFFFFFFFFFFFFFFFFFFFFFFFFFFFFFFFF AND DUP2 PUSH20 0xFFFFFFFFFFFFFFFFFFFFFFFFFFFFFFFFFFFFFFFF AND PUSH32 0x8BE0079C531659141344CD1FD0A4F28419497F9722A3DAAFE3B4186F6B6457E0 PUSH1 0x40 MLOAD PUSH1 0x40 MLOAD DUP1 SWAP2 SUB SWAP1 LOG3 POP POP JUMP JUMPDEST PUSH1 0x0 PUSH2 0x1ECD DUP3 DUP5 LT DUP5 DUP5 PUSH2 0x22D1 JUMP JUMPDEST SWAP1 POP SWAP3 SWAP2 POP POP JUMP JUMPDEST PUSH1 0x0 PUSH20 0xFFFFFFFFFFFFFFFFFFFFFFFFFFFFFFFFFFFFFFFF AND DUP5 PUSH20 0xFFFFFFFFFFFFFFFFFFFFFFFFFFFFFFFFFFFFFFFF AND SUB PUSH2 0x1F47 JUMPI PUSH1 0x0 PUSH1 0x40 MLOAD PUSH32 0xE602DF0500000000000000000000000000000000000000000000000000000000 DUP2 MSTORE PUSH1 0x4 ADD PUSH2 0x1F3E SWAP2 SWAP1 PUSH2 0x28FE JUMP JUMPDEST PUSH1 0x40 MLOAD DUP1 SWAP2 SUB SWAP1 REVERT JUMPDEST PUSH1 0x0 PUSH20 0xFFFFFFFFFFFFFFFFFFFFFFFFFFFFFFFFFFFFFFFF AND DUP4 PUSH20 0xFFFFFFFFFFFFFFFFFFFFFFFFFFFFFFFFFFFFFFFF AND SUB PUSH2 0x1FB9 JUMPI PUSH1 0x0 PUSH1 0x40 MLOAD PUSH32 0x94280D6200000000000000000000000000000000000000000000000000000000 DUP2 MSTORE PUSH1 0x4 ADD PUSH2 0x1FB0 SWAP2 SWAP1 PUSH2 0x28FE JUMP JUMPDEST PUSH1 0x40 MLOAD DUP1 SWAP2 SUB SWAP1 REVERT JUMPDEST DUP2 PUSH1 0x1 PUSH1 0x0 DUP7 PUSH20 0xFFFFFFFFFFFFFFFFFFFFFFFFFFFFFFFFFFFFFFFF AND PUSH20 0xFFFFFFFFFFFFFFFFFFFFFFFFFFFFFFFFFFFFFFFF AND DUP2 MSTORE PUSH1 0x20 ADD SWAP1 DUP2 MSTORE PUSH1 0x20 ADD PUSH1 0x0 KECCAK256 PUSH1 0x0 DUP6 PUSH20 0xFFFFFFFFFFFFFFFFFFFFFFFFFFFFFFFFFFFFFFFF AND PUSH20 0xFFFFFFFFFFFFFFFFFFFFFFFFFFFFFFFFFFFFFFFF AND DUP2 MSTORE PUSH1 0x20 ADD SWAP1 DUP2 MSTORE PUSH1 0x20 ADD PUSH1 0x0 KECCAK256 DUP2 SWAP1 SSTORE POP DUP1 ISZERO PUSH2 0x20A6 JUMPI DUP3 PUSH20 0xFFFFFFFFFFFFFFFFFFFFFFFFFFFFFFFFFFFFFFFF AND DUP5 PUSH20 0xFFFFFFFFFFFFFFFFFFFFFFFFFFFFFFFFFFFFFFFF AND PUSH32 0x8C5BE1E5EBEC7D5BD14F71427D1E84F3DD0314C0F7B2291E5B200AC8C7C3B925 DUP5 PUSH1 0x40 MLOAD PUSH2 0x209D SWAP2 SWAP1 PUSH2 0x26E7 JUMP JUMPDEST PUSH1 0x40 MLOAD DUP1 SWAP2 SUB SWAP1 LOG3 JUMPDEST POP POP POP POP JUMP JUMPDEST PUSH1 0x0 PUSH20 0xFFFFFFFFFFFFFFFFFFFFFFFFFFFFFFFFFFFFFFFF AND DUP4 PUSH20 0xFFFFFFFFFFFFFFFFFFFFFFFFFFFFFFFFFFFFFFFF AND SUB PUSH2 0x20FE JUMPI DUP1 PUSH1 0x2 PUSH1 0x0 DUP3 DUP3 SLOAD PUSH2 0x20F2 SWAP2 SWAP1 PUSH2 0x2FBB JUMP JUMPDEST SWAP3 POP POP DUP2 SWAP1 SSTORE POP PUSH2 0x21D1 JUMP JUMPDEST PUSH1 0x0 DUP1 PUSH1 0x0 DUP6 PUSH20 0xFFFFFFFFFFFFFFFFFFFFFFFFFFFFFFFFFFFFFFFF AND PUSH20 0xFFFFFFFFFFFFFFFFFFFFFFFFFFFFFFFFFFFFFFFF AND DUP2 MSTORE PUSH1 0x20 ADD SWAP1 DUP2 MSTORE PUSH1 0x20 ADD PUSH1 0x0 KECCAK256 SLOAD SWAP1 POP DUP2 DUP2 LT ISZERO PUSH2 0x218A JUMPI DUP4 DUP2 DUP4 PUSH1 0x40 MLOAD PUSH32 0xE450D38C00000000000000000000000000000000000000000000000000000000 DUP2 MSTORE PUSH1 0x4 ADD PUSH2 0x2181 SWAP4 SWAP3 SWAP2 SWAP1 PUSH2 0x355A JUMP JUMPDEST PUSH1 0x40 MLOAD DUP1 SWAP2 SUB SWAP1 REVERT JUMPDEST DUP2 DUP2 SUB PUSH1 0x0 DUP1 DUP7 PUSH20 0xFFFFFFFFFFFFFFFFFFFFFFFFFFFFFFFFFFFFFFFF AND PUSH20 0xFFFFFFFFFFFFFFFFFFFFFFFFFFFFFFFFFFFFFFFF AND DUP2 MSTORE PUSH1 0x20 ADD SWAP1 DUP2 MSTORE PUSH1 0x20 ADD PUSH1 0x0 KECCAK256 DUP2 SWAP1 SSTORE POP POP JUMPDEST PUSH1 0x0 PUSH20 0xFFFFFFFFFFFFFFFFFFFFFFFFFFFFFFFFFFFFFFFF AND DUP3 PUSH20 0xFFFFFFFFFFFFFFFFFFFFFFFFFFFFFFFFFFFFFFFF AND SUB PUSH2 0x221A JUMPI DUP1 PUSH1 0x2 PUSH1 0x0 DUP3 DUP3 SLOAD SUB SWAP3 POP POP DUP2 SWAP1 SSTORE POP PUSH2 0x2267 JUMP JUMPDEST DUP1 PUSH1 0x0 DUP1 DUP5 PUSH20 0xFFFFFFFFFFFFFFFFFFFFFFFFFFFFFFFFFFFFFFFF AND PUSH20 0xFFFFFFFFFFFFFFFFFFFFFFFFFFFFFFFFFFFFFFFF AND DUP2 MSTORE PUSH1 0x20 ADD SWAP1 DUP2 MSTORE PUSH1 0x20 ADD PUSH1 0x0 KECCAK256 PUSH1 0x0 DUP3 DUP3 SLOAD ADD SWAP3 POP POP DUP2 SWAP1 SSTORE POP JUMPDEST DUP2 PUSH20 0xFFFFFFFFFFFFFFFFFFFFFFFFFFFFFFFFFFFFFFFF AND DUP4 PUSH20 0xFFFFFFFFFFFFFFFFFFFFFFFFFFFFFFFFFFFFFFFF AND PUSH32 0xDDF252AD1BE2C89B69C2B068FC378DAA952BA7F163C4A11628F55A4DF523B3EF DUP4 PUSH1 0x40 MLOAD PUSH2 0x22C4 SWAP2 SWAP1 PUSH2 0x26E7 JUMP JUMPDEST PUSH1 0x40 MLOAD DUP1 SWAP2 SUB SWAP1 LOG3 POP POP POP JUMP JUMPDEST PUSH1 0x0 PUSH2 0x22DC DUP5 PUSH2 0x22EB JUMP JUMPDEST DUP3 DUP5 XOR MUL DUP3 XOR SWAP1 POP SWAP4 SWAP3 POP POP POP JUMP JUMPDEST PUSH1 0x0 DUP2 ISZERO ISZERO SWAP1 POP SWAP2 SWAP1 POP JUMP JUMPDEST PUSH1 0x40 MLOAD DUP1 PUSH2 0x100 ADD PUSH1 0x40 MSTORE DUP1 PUSH1 0x60 DUP2 MSTORE PUSH1 0x20 ADD PUSH1 0x60 DUP2 MSTORE PUSH1 0x20 ADD PUSH1 0x0 DUP2 MSTORE PUSH1 0x20 ADD PUSH1 0x0 ISZERO ISZERO DUP2 MSTORE PUSH1 0x20 ADD PUSH1 0x0 PUSH20 0xFFFFFFFFFFFFFFFFFFFFFFFFFFFFFFFFFFFFFFFF AND DUP2 MSTORE PUSH1 0x20 ADD PUSH1 0x0 DUP2 MSTORE PUSH1 0x20 ADD PUSH1 0x60 DUP2 MSTORE PUSH1 0x20 ADD PUSH1 0x0 ISZERO ISZERO DUP2 MSTORE POP SWAP1 JUMP JUMPDEST PUSH1 0x40 MLOAD DUP1 PUSH1 0x60 ADD PUSH1 0x40 MSTORE DUP1 PUSH1 0x0 DUP2 MSTORE PUSH1 0x20 ADD PUSH1 0x0 DUP2 MSTORE PUSH1 0x20 ADD PUSH1 0x0 DUP2 MSTORE POP SWAP1 JUMP JUMPDEST PUSH1 0x0 PUSH1 0x40 MLOAD SWAP1 POP SWAP1 JUMP JUMPDEST PUSH1 0x0 DUP1 REVERT JUMPDEST PUSH1 0x0 DUP1 REVERT JUMPDEST PUSH1 0x0 DUP1 REVERT JUMPDEST PUSH1 0x0 DUP1 REVERT JUMPDEST PUSH1 0x0 PUSH1 0x1F NOT PUSH1 0x1F DUP4 ADD AND SWAP1 POP SWAP2 SWAP1 POP JUMP JUMPDEST PUSH32 0x4E487B7100000000000000000000000000000000000000000000000000000000 PUSH1 0x0 MSTORE PUSH1 0x41 PUSH1 0x4 MSTORE PUSH1 0x24 PUSH1 0x0 REVERT JUMPDEST PUSH2 0x23DE DUP3 PUSH2 0x2395 JUMP JUMPDEST DUP2 ADD DUP2 DUP2 LT PUSH8 0xFFFFFFFFFFFFFFFF DUP3 GT OR ISZERO PUSH2 0x23FD JUMPI PUSH2 0x23FC PUSH2 0x23A6 JUMP JUMPDEST JUMPDEST DUP1 PUSH1 0x40 MSTORE POP POP POP JUMP JUMPDEST PUSH1 0x0 PUSH2 0x2410 PUSH2 0x2377 JUMP JUMPDEST SWAP1 POP PUSH2 0x241C DUP3 DUP3 PUSH2 0x23D5 JUMP JUMPDEST SWAP2 SWAP1 POP JUMP JUMPDEST PUSH1 0x0 PUSH8 0xFFFFFFFFFFFFFFFF DUP3 GT ISZERO PUSH2 0x243C JUMPI PUSH2 0x243B PUSH2 0x23A6 JUMP JUMPDEST JUMPDEST PUSH2 0x2445 DUP3 PUSH2 0x2395 JUMP JUMPDEST SWAP1 POP PUSH1 0x20 DUP2 ADD SWAP1 POP SWAP2 SWAP1 POP JUMP JUMPDEST DUP3 DUP2 DUP4 CALLDATACOPY PUSH1 0x0 DUP4 DUP4 ADD MSTORE POP POP POP JUMP JUMPDEST PUSH1 0x0 PUSH2 0x2474 PUSH2 0x246F DUP5 PUSH2 0x2421 JUMP JUMPDEST PUSH2 0x2406 JUMP JUMPDEST SWAP1 POP DUP3 DUP2 MSTORE PUSH1 0x20 DUP2 ADD DUP5 DUP5 DUP5 ADD GT ISZERO PUSH2 0x2490 JUMPI PUSH2 0x248F PUSH2 0x2390 JUMP JUMPDEST JUMPDEST PUSH2 0x249B DUP5 DUP3 DUP6 PUSH2 0x2452 JUMP JUMPDEST POP SWAP4 SWAP3 POP POP POP JUMP JUMPDEST PUSH1 0x0 DUP3 PUSH1 0x1F DUP4 ADD SLT PUSH2 0x24B8 JUMPI PUSH2 0x24B7 PUSH2 0x238B JUMP JUMPDEST JUMPDEST DUP2 CALLDATALOAD PUSH2 0x24C8 DUP5 DUP3 PUSH1 0x20 DUP7 ADD PUSH2 0x2461 JUMP JUMPDEST SWAP2 POP POP SWAP3 SWAP2 POP POP JUMP JUMPDEST PUSH1 0x0 DUP2 SWAP1 POP SWAP2 SWAP1 POP JUMP JUMPDEST PUSH2 0x24E4 DUP2 PUSH2 0x24D1 JUMP JUMPDEST DUP2 EQ PUSH2 0x24EF JUMPI PUSH1 0x0 DUP1 REVERT JUMPDEST POP JUMP JUMPDEST PUSH1 0x0 DUP2 CALLDATALOAD SWAP1 POP PUSH2 0x2501 DUP2 PUSH2 0x24DB JUMP JUMPDEST SWAP3 SWAP2 POP POP JUMP JUMPDEST PUSH1 0x0 DUP1 PUSH1 0x40 DUP4 DUP6 SUB SLT ISZERO PUSH2 0x251E JUMPI PUSH2 0x251D PUSH2 0x2381 JUMP JUMPDEST JUMPDEST PUSH1 0x0 DUP4 ADD CALLDATALOAD PUSH8 0xFFFFFFFFFFFFFFFF DUP2 GT ISZERO PUSH2 0x253C JUMPI PUSH2 0x253B PUSH2 0x2386 JUMP JUMPDEST JUMPDEST PUSH2 0x2548 DUP6 DUP3 DUP7 ADD PUSH2 0x24A3 JUMP JUMPDEST SWAP3 POP POP PUSH1 0x20 PUSH2 0x2559 DUP6 DUP3 DUP7 ADD PUSH2 0x24F2 JUMP JUMPDEST SWAP2 POP POP SWAP3 POP SWAP3 SWAP1 POP JUMP JUMPDEST PUSH1 0x0 DUP2 MLOAD SWAP1 POP SWAP2 SWAP1 POP JUMP JUMPDEST PUSH1 0x0 DUP3 DUP3 MSTORE PUSH1 0x20 DUP3 ADD SWAP1 POP SWAP3 SWAP2 POP POP JUMP JUMPDEST PUSH1 0x0 JUMPDEST DUP4 DUP2 LT ISZERO PUSH2 0x259D JUMPI DUP1 DUP3 ADD MLOAD DUP2 DUP5 ADD MSTORE PUSH1 0x20 DUP2 ADD SWAP1 POP PUSH2 0x2582 JUMP JUMPDEST PUSH1 0x0 DUP5 DUP5 ADD MSTORE POP POP POP POP JUMP JUMPDEST PUSH1 0x0 PUSH2 0x25B4 DUP3 PUSH2 0x2563 JUMP JUMPDEST PUSH2 0x25BE DUP2 DUP6 PUSH2 0x256E JUMP JUMPDEST SWAP4 POP PUSH2 0x25CE DUP2 DUP6 PUSH1 0x20 DUP7 ADD PUSH2 0x257F JUMP JUMPDEST PUSH2 0x25D7 DUP2 PUSH2 0x2395 JUMP JUMPDEST DUP5 ADD SWAP2 POP POP SWAP3 SWAP2 POP POP JUMP JUMPDEST PUSH1 0x0 PUSH1 0x20 DUP3 ADD SWAP1 POP DUP2 DUP2 SUB PUSH1 0x0 DUP4 ADD MSTORE PUSH2 0x25FC DUP2 DUP5 PUSH2 0x25A9 JUMP JUMPDEST SWAP1 POP SWAP3 SWAP2 POP POP JUMP JUMPDEST PUSH1 0x0 PUSH20 0xFFFFFFFFFFFFFFFFFFFFFFFFFFFFFFFFFFFFFFFF DUP3 AND SWAP1 POP SWAP2 SWAP1 POP JUMP JUMPDEST PUSH1 0x0 PUSH2 0x262F DUP3 PUSH2 0x2604 JUMP JUMPDEST SWAP1 POP SWAP2 SWAP1 POP JUMP JUMPDEST PUSH2 0x263F DUP2 PUSH2 0x2624 JUMP JUMPDEST DUP2 EQ PUSH2 0x264A JUMPI PUSH1 0x0 DUP1 REVERT JUMPDEST POP JUMP JUMPDEST PUSH1 0x0 DUP2 CALLDATALOAD SWAP1 POP PUSH2 0x265C DUP2 PUSH2 0x2636 JUMP JUMPDEST SWAP3 SWAP2 POP POP JUMP JUMPDEST PUSH1 0x0 DUP1 PUSH1 0x40 DUP4 DUP6 SUB SLT ISZERO PUSH2 0x2679 JUMPI PUSH2 0x2678 PUSH2 0x2381 JUMP JUMPDEST JUMPDEST PUSH1 0x0 PUSH2 0x2687 DUP6 DUP3 DUP7 ADD PUSH2 0x264D JUMP JUMPDEST SWAP3 POP POP PUSH1 0x20 PUSH2 0x2698 DUP6 DUP3 DUP7 ADD PUSH2 0x24F2 JUMP JUMPDEST SWAP2 POP POP SWAP3 POP SWAP3 SWAP1 POP JUMP JUMPDEST PUSH1 0x0 DUP2 ISZERO ISZERO SWAP1 POP SWAP2 SWAP1 POP JUMP JUMPDEST PUSH2 0x26B7 DUP2 PUSH2 0x26A2 JUMP JUMPDEST DUP3 MSTORE POP POP JUMP JUMPDEST PUSH1 0x0 PUSH1 0x20 DUP3 ADD SWAP1 POP PUSH2 0x26D2 PUSH1 0x0 DUP4 ADD DUP5 PUSH2 0x26AE JUMP JUMPDEST SWAP3 SWAP2 POP POP JUMP JUMPDEST PUSH2 0x26E1 DUP2 PUSH2 0x24D1 JUMP JUMPDEST DUP3 MSTORE POP POP JUMP JUMPDEST PUSH1 0x0 PUSH1 0x20 DUP3 ADD SWAP1 POP PUSH2 0x26FC PUSH1 0x0 DUP4 ADD DUP5 PUSH2 0x26D8 JUMP JUMPDEST SWAP3 SWAP2 POP POP JUMP JUMPDEST PUSH1 0x0 DUP1 PUSH1 0x0 PUSH1 0x60 DUP5 DUP7 SUB SLT ISZERO PUSH2 0x271B JUMPI PUSH2 0x271A PUSH2 0x2381 JUMP JUMPDEST JUMPDEST PUSH1 0x0 PUSH2 0x2729 DUP7 DUP3 DUP8 ADD PUSH2 0x264D JUMP JUMPDEST SWAP4 POP POP PUSH1 0x20 PUSH2 0x273A DUP7 DUP3 DUP8 ADD PUSH2 0x264D JUMP JUMPDEST SWAP3 POP POP PUSH1 0x40 PUSH2 0x274B DUP7 DUP3 DUP8 ADD PUSH2 0x24F2 JUMP JUMPDEST SWAP2 POP POP SWAP3 POP SWAP3 POP SWAP3 JUMP JUMPDEST PUSH1 0x0 PUSH1 0x20 DUP3 DUP5 SUB SLT ISZERO PUSH2 0x276B JUMPI PUSH2 0x276A PUSH2 0x2381 JUMP JUMPDEST JUMPDEST PUSH1 0x0 PUSH2 0x2779 DUP5 DUP3 DUP6 ADD PUSH2 0x24F2 JUMP JUMPDEST SWAP2 POP POP SWAP3 SWAP2 POP POP JUMP JUMPDEST PUSH1 0x0 PUSH1 0xFF DUP3 AND SWAP1 POP SWAP2 SWAP1 POP JUMP JUMPDEST PUSH2 0x2798 DUP2 PUSH2 0x2782 JUMP JUMPDEST DUP3 MSTORE POP POP JUMP JUMPDEST PUSH1 0x0 PUSH1 0x20 DUP3 ADD SWAP1 POP PUSH2 0x27B3 PUSH1 0x0 DUP4 ADD DUP5 PUSH2 0x278F JUMP JUMPDEST SWAP3 SWAP2 POP POP JUMP JUMPDEST PUSH2 0x27C2 DUP2 PUSH2 0x2624 JUMP JUMPDEST DUP3 MSTORE POP POP JUMP JUMPDEST PUSH1 0x0 PUSH2 0x100 DUP3 ADD SWAP1 POP DUP2 DUP2 SUB PUSH1 0x0 DUP4 ADD MSTORE PUSH2 0x27E3 DUP2 DUP12 PUSH2 0x25A9 JUMP JUMPDEST SWAP1 POP DUP2 DUP2 SUB PUSH1 0x20 DUP4 ADD MSTORE PUSH2 0x27F7 DUP2 DUP11 PUSH2 0x25A9 JUMP JUMPDEST SWAP1 POP PUSH2 0x2806 PUSH1 0x40 DUP4 ADD DUP10 PUSH2 0x26D8 JUMP JUMPDEST PUSH2 0x2813 PUSH1 0x60 DUP4 ADD DUP9 PUSH2 0x26AE JUMP JUMPDEST PUSH2 0x2820 PUSH1 0x80 DUP4 ADD DUP8 PUSH2 0x27B9 JUMP JUMPDEST PUSH2 0x282D PUSH1 0xA0 DUP4 ADD DUP7 PUSH2 0x26D8 JUMP JUMPDEST DUP2 DUP2 SUB PUSH1 0xC0 DUP4 ADD MSTORE PUSH2 0x283F DUP2 DUP6 PUSH2 0x25A9 JUMP JUMPDEST SWAP1 POP PUSH2 0x284E PUSH1 0xE0 DUP4 ADD DUP5 PUSH2 0x26AE JUMP JUMPDEST SWAP10 SWAP9 POP POP POP POP POP POP POP POP POP JUMP JUMPDEST PUSH1 0x0 PUSH1 0x60 DUP3 ADD SWAP1 POP PUSH2 0x2870 PUSH1 0x0 DUP4 ADD DUP7 PUSH2 0x26D8 JUMP JUMPDEST PUSH2 0x287D PUSH1 0x20 DUP4 ADD DUP6 PUSH2 0x26D8 JUMP JUMPDEST PUSH2 0x288A PUSH1 0x40 DUP4 ADD DUP5 PUSH2 0x26D8 JUMP JUMPDEST SWAP5 SWAP4 POP POP POP POP JUMP JUMPDEST PUSH2 0x289B DUP2 PUSH2 0x26A2 JUMP JUMPDEST DUP2 EQ PUSH2 0x28A6 JUMPI PUSH1 0x0 DUP1 REVERT JUMPDEST POP JUMP JUMPDEST PUSH1 0x0 DUP2 CALLDATALOAD SWAP1 POP PUSH2 0x28B8 DUP2 PUSH2 0x2892 JUMP JUMPDEST SWAP3 SWAP2 POP POP JUMP JUMPDEST PUSH1 0x0 DUP1 PUSH1 0x40 DUP4 DUP6 SUB SLT ISZERO PUSH2 0x28D5 JUMPI PUSH2 0x28D4 PUSH2 0x2381 JUMP JUMPDEST JUMPDEST PUSH1 0x0 PUSH2 0x28E3 DUP6 DUP3 DUP7 ADD PUSH2 0x24F2 JUMP JUMPDEST SWAP3 POP POP PUSH1 0x20 PUSH2 0x28F4 DUP6 DUP3 DUP7 ADD PUSH2 0x28A9 JUMP JUMPDEST SWAP2 POP POP SWAP3 POP SWAP3 SWAP1 POP JUMP JUMPDEST PUSH1 0x0 PUSH1 0x20 DUP3 ADD SWAP1 POP PUSH2 0x2913 PUSH1 0x0 DUP4 ADD DUP5 PUSH2 0x27B9 JUMP JUMPDEST SWAP3 SWAP2 POP POP JUMP JUMPDEST PUSH1 0x0 DUP3 DUP3 MSTORE PUSH1 0x20 DUP3 ADD SWAP1 POP SWAP3 SWAP2 POP POP JUMP JUMPDEST PUSH1 0x0 PUSH2 0x2935 DUP3 PUSH2 0x2563 JUMP JUMPDEST PUSH2 0x293F DUP2 DUP6 PUSH2 0x2919 JUMP JUMPDEST SWAP4 POP PUSH2 0x294F DUP2 DUP6 PUSH1 0x20 DUP7 ADD PUSH2 0x257F JUMP JUMPDEST PUSH2 0x2958 DUP2 PUSH2 0x2395 JUMP JUMPDEST DUP5 ADD SWAP2 POP POP SWAP3 SWAP2 POP POP JUMP JUMPDEST PUSH2 0x296C DUP2 PUSH2 0x24D1 JUMP JUMPDEST DUP3 MSTORE POP POP JUMP JUMPDEST PUSH2 0x297B DUP2 PUSH2 0x26A2 JUMP JUMPDEST DUP3 MSTORE POP POP JUMP JUMPDEST PUSH2 0x298A DUP2 PUSH2 0x2624 JUMP JUMPDEST DUP3 MSTORE POP POP JUMP JUMPDEST PUSH1 0x0 PUSH2 0x100 DUP4 ADD PUSH1 0x0 DUP4 ADD MLOAD DUP5 DUP3 SUB PUSH1 0x0 DUP7 ADD MSTORE PUSH2 0x29AE DUP3 DUP3 PUSH2 0x292A JUMP JUMPDEST SWAP2 POP POP PUSH1 0x20 DUP4 ADD MLOAD DUP5 DUP3 SUB PUSH1 0x20 DUP7 ADD MSTORE PUSH2 0x29C8 DUP3 DUP3 PUSH2 0x292A JUMP JUMPDEST SWAP2 POP POP PUSH1 0x40 DUP4 ADD MLOAD PUSH2 0x29DD PUSH1 0x40 DUP7 ADD DUP3 PUSH2 0x2963 JUMP JUMPDEST POP PUSH1 0x60 DUP4 ADD MLOAD PUSH2 0x29F0 PUSH1 0x60 DUP7 ADD DUP3 PUSH2 0x2972 JUMP JUMPDEST POP PUSH1 0x80 DUP4 ADD MLOAD PUSH2 0x2A03 PUSH1 0x80 DUP7 ADD DUP3 PUSH2 0x2981 JUMP JUMPDEST POP PUSH1 0xA0 DUP4 ADD MLOAD PUSH2 0x2A16 PUSH1 0xA0 DUP7 ADD DUP3 PUSH2 0x2963 JUMP JUMPDEST POP PUSH1 0xC0 DUP4 ADD MLOAD DUP5 DUP3 SUB PUSH1 0xC0 DUP7 ADD MSTORE PUSH2 0x2A2E DUP3 DUP3 PUSH2 0x292A JUMP JUMPDEST SWAP2 POP POP PUSH1 0xE0 DUP4 ADD MLOAD PUSH2 0x2A43 PUSH1 0xE0 DUP7 ADD DUP3 PUSH2 0x2972 JUMP JUMPDEST POP DUP1 SWAP2 POP POP SWAP3 SWAP2 POP POP JUMP JUMPDEST PUSH1 0x0 PUSH1 0x20 DUP3 ADD SWAP1 POP DUP2 DUP2 SUB PUSH1 0x0 DUP4 ADD MSTORE PUSH2 0x2A68 DUP2 DUP5 PUSH2 0x2990 JUMP JUMPDEST SWAP1 POP SWAP3 SWAP2 POP POP JUMP JUMPDEST PUSH1 0x0 PUSH1 0x20 DUP3 DUP5 SUB SLT ISZERO PUSH2 0x2A86 JUMPI PUSH2 0x2A85 PUSH2 0x2381 JUMP JUMPDEST JUMPDEST PUSH1 0x0 PUSH2 0x2A94 DUP5 DUP3 DUP6 ADD PUSH2 0x264D JUMP JUMPDEST SWAP2 POP POP SWAP3 SWAP2 POP POP JUMP JUMPDEST PUSH1 0x0 DUP2 MLOAD SWAP1 POP SWAP2 SWAP1 POP JUMP JUMPDEST PUSH1 0x0 DUP3 DUP3 MSTORE PUSH1 0x20 DUP3 ADD SWAP1 POP SWAP3 SWAP2 POP POP JUMP JUMPDEST PUSH1 0x0 DUP2 SWAP1 POP PUSH1 0x20 DUP3 ADD SWAP1 POP SWAP2 SWAP1 POP JUMP JUMPDEST PUSH1 0x60 DUP3 ADD PUSH1 0x0 DUP3 ADD MLOAD PUSH2 0x2ADF PUSH1 0x0 DUP6 ADD DUP3 PUSH2 0x2963 JUMP JUMPDEST POP PUSH1 0x20 DUP3 ADD MLOAD PUSH2 0x2AF2 PUSH1 0x20 DUP6 ADD DUP3 PUSH2 0x2963 JUMP JUMPDEST POP PUSH1 0x40 DUP3 ADD MLOAD PUSH2 0x2B05 PUSH1 0x40 DUP6 ADD DUP3 PUSH2 0x2963 JUMP JUMPDEST POP POP POP POP JUMP JUMPDEST PUSH1 0x0 PUSH2 0x2B17 DUP4 DUP4 PUSH2 0x2AC9 JUMP JUMPDEST PUSH1 0x60 DUP4 ADD SWAP1 POP SWAP3 SWAP2 POP POP JUMP JUMPDEST PUSH1 0x0 PUSH1 0x20 DUP3 ADD SWAP1 POP SWAP2 SWAP1 POP JUMP JUMPDEST PUSH1 0x0 PUSH2 0x2B3B DUP3 PUSH2 0x2A9D JUMP JUMPDEST PUSH2 0x2B45 DUP2 DUP6 PUSH2 0x2AA8 JUMP JUMPDEST SWAP4 POP PUSH2 0x2B50 DUP4 PUSH2 0x2AB9 JUMP JUMPDEST DUP1 PUSH1 0x0 JUMPDEST DUP4 DUP2 LT ISZERO PUSH2 0x2B81 JUMPI DUP2 MLOAD PUSH2 0x2B68 DUP9 DUP3 PUSH2 0x2B0B JUMP JUMPDEST SWAP8 POP PUSH2 0x2B73 DUP4 PUSH2 0x2B23 JUMP JUMPDEST SWAP3 POP POP PUSH1 0x1 DUP2 ADD SWAP1 POP PUSH2 0x2B54 JUMP JUMPDEST POP DUP6 SWAP4 POP POP POP POP SWAP3 SWAP2 POP POP JUMP JUMPDEST PUSH1 0x0 PUSH1 0x20 DUP3 ADD SWAP1 POP DUP2 DUP2 SUB PUSH1 0x0 DUP4 ADD MSTORE PUSH2 0x2BA8 DUP2 DUP5 PUSH2 0x2B30 JUMP JUMPDEST SWAP1 POP SWAP3 SWAP2 POP POP JUMP JUMPDEST PUSH1 0x0 PUSH1 0x20 DUP3 DUP5 SUB SLT ISZERO PUSH2 0x2BC6 JUMPI PUSH2 0x2BC5 PUSH2 0x2381 JUMP JUMPDEST JUMPDEST PUSH1 0x0 PUSH2 0x2BD4 DUP5 DUP3 DUP6 ADD PUSH2 0x28A9 JUMP JUMPDEST SWAP2 POP POP SWAP3 SWAP2 POP POP JUMP JUMPDEST PUSH1 0x0 DUP1 PUSH1 0x40 DUP4 DUP6 SUB SLT ISZERO PUSH2 0x2BF4 JUMPI PUSH2 0x2BF3 PUSH2 0x2381 JUMP JUMPDEST JUMPDEST PUSH1 0x0 PUSH2 0x2C02 DUP6 DUP3 DUP7 ADD PUSH2 0x264D JUMP JUMPDEST SWAP3 POP POP PUSH1 0x20 PUSH2 0x2C13 DUP6 DUP3 DUP7 ADD PUSH2 0x264D JUMP JUMPDEST SWAP2 POP POP SWAP3 POP SWAP3 SWAP1 POP JUMP JUMPDEST PUSH1 0x0 PUSH1 0xC0 DUP3 ADD SWAP1 POP PUSH2 0x2C32 PUSH1 0x0 DUP4 ADD DUP10 PUSH2 0x26D8 JUMP JUMPDEST PUSH2 0x2C3F PUSH1 0x20 DUP4 ADD DUP9 PUSH2 0x26D8 JUMP JUMPDEST PUSH2 0x2C4C PUSH1 0x40 DUP4 ADD DUP8 PUSH2 0x26D8 JUMP JUMPDEST PUSH2 0x2C59 PUSH1 0x60 DUP4 ADD DUP7 PUSH2 0x26D8 JUMP JUMPDEST PUSH2 0x2C66 PUSH1 0x80 DUP4 ADD DUP6 PUSH2 0x26D8 JUMP JUMPDEST PUSH2 0x2C73 PUSH1 0xA0 DUP4 ADD DUP5 PUSH2 0x26AE JUMP JUMPDEST SWAP8 SWAP7 POP POP POP POP POP POP POP JUMP JUMPDEST PUSH32 0x4E487B7100000000000000000000000000000000000000000000000000000000 PUSH1 0x0 MSTORE PUSH1 0x22 PUSH1 0x4 MSTORE PUSH1 0x24 PUSH1 0x0 REVERT JUMPDEST PUSH1 0x0 PUSH1 0x2 DUP3 DIV SWAP1 POP PUSH1 0x1 DUP3 AND DUP1 PUSH2 0x2CC5 JUMPI PUSH1 0x7F DUP3 AND SWAP2 POP JUMPDEST PUSH1 0x20 DUP3 LT DUP2 SUB PUSH2 0x2CD8 JUMPI PUSH2 0x2CD7 PUSH2 0x2C7E JUMP JUMPDEST JUMPDEST POP SWAP2 SWAP1 POP JUMP JUMPDEST PUSH1 0x0 DUP2 SWAP1 POP DUP2 PUSH1 0x0 MSTORE PUSH1 0x20 PUSH1 0x0 KECCAK256 SWAP1 POP SWAP2 SWAP1 POP JUMP JUMPDEST PUSH1 0x0 PUSH1 0x20 PUSH1 0x1F DUP4 ADD DIV SWAP1 POP SWAP2 SWAP1 POP JUMP JUMPDEST PUSH1 0x0 DUP3 DUP3 SHL SWAP1 POP SWAP3 SWAP2 POP POP JUMP JUMPDEST PUSH1 0x0 PUSH1 0x8 DUP4 MUL PUSH2 0x2D40 PUSH32 0xFFFFFFFFFFFFFFFFFFFFFFFFFFFFFFFFFFFFFFFFFFFFFFFFFFFFFFFFFFFFFFFF DUP3 PUSH2 0x2D03 JUMP JUMPDEST PUSH2 0x2D4A DUP7 DUP4 PUSH2 0x2D03 JUMP JUMPDEST SWAP6 POP DUP1 NOT DUP5 AND SWAP4 POP DUP1 DUP7 AND DUP5 OR SWAP3 POP POP POP SWAP4 SWAP3 POP POP POP JUMP JUMPDEST PUSH1 0x0 DUP2 SWAP1 POP SWAP2 SWAP1 POP JUMP JUMPDEST PUSH1 0x0 PUSH2 0x2D87 PUSH2 0x2D82 PUSH2 0x2D7D DUP5 PUSH2 0x24D1 JUMP JUMPDEST PUSH2 0x2D62 JUMP JUMPDEST PUSH2 0x24D1 JUMP JUMPDEST SWAP1 POP SWAP2 SWAP1 POP JUMP JUMPDEST PUSH1 0x0 DUP2 SWAP1 POP SWAP2 SWAP1 POP JUMP JUMPDEST PUSH2 0x2DA1 DUP4 PUSH2 0x2D6C JUMP JUMPDEST PUSH2 0x2DB5 PUSH2 0x2DAD DUP3 PUSH2 0x2D8E JUMP JUMPDEST DUP5 DUP5 SLOAD PUSH2 0x2D10 JUMP JUMPDEST DUP3 SSTORE POP POP POP POP JUMP JUMPDEST PUSH1 0x0 SWAP1 JUMP JUMPDEST PUSH2 0x2DCA PUSH2 0x2DBD JUMP JUMPDEST PUSH2 0x2DD5 DUP2 DUP5 DUP5 PUSH2 0x2D98 JUMP JUMPDEST POP POP POP JUMP JUMPDEST JUMPDEST DUP2 DUP2 LT ISZERO PUSH2 0x2DF9 JUMPI PUSH2 0x2DEE PUSH1 0x0 DUP3 PUSH2 0x2DC2 JUMP JUMPDEST PUSH1 0x1 DUP2 ADD SWAP1 POP PUSH2 0x2DDB JUMP JUMPDEST POP POP JUMP JUMPDEST PUSH1 0x1F DUP3 GT ISZERO PUSH2 0x2E3E JUMPI PUSH2 0x2E0F DUP2 PUSH2 0x2CDE JUMP JUMPDEST PUSH2 0x2E18 DUP5 PUSH2 0x2CF3 JUMP JUMPDEST DUP2 ADD PUSH1 0x20 DUP6 LT ISZERO PUSH2 0x2E27 JUMPI DUP2 SWAP1 POP JUMPDEST PUSH2 0x2E3B PUSH2 0x2E33 DUP6 PUSH2 0x2CF3 JUMP JUMPDEST DUP4 ADD DUP3 PUSH2 0x2DDA JUMP JUMPDEST POP POP JUMPDEST POP POP POP JUMP JUMPDEST PUSH1 0x0 DUP3 DUP3 SHR SWAP1 POP SWAP3 SWAP2 POP POP JUMP JUMPDEST PUSH1 0x0 PUSH2 0x2E61 PUSH1 0x0 NOT DUP5 PUSH1 0x8 MUL PUSH2 0x2E43 JUMP JUMPDEST NOT DUP1 DUP4 AND SWAP2 POP POP SWAP3 SWAP2 POP POP JUMP JUMPDEST PUSH1 0x0 PUSH2 0x2E7A DUP4 DUP4 PUSH2 0x2E50 JUMP JUMPDEST SWAP2 POP DUP3 PUSH1 0x2 MUL DUP3 OR SWAP1 POP SWAP3 SWAP2 POP POP JUMP JUMPDEST PUSH2 0x2E93 DUP3 PUSH2 0x2563 JUMP JUMPDEST PUSH8 0xFFFFFFFFFFFFFFFF DUP2 GT ISZERO PUSH2 0x2EAC JUMPI PUSH2 0x2EAB PUSH2 0x23A6 JUMP JUMPDEST JUMPDEST PUSH2 0x2EB6 DUP3 SLOAD PUSH2 0x2CAD JUMP JUMPDEST PUSH2 0x2EC1 DUP3 DUP3 DUP6 PUSH2 0x2DFD JUMP JUMPDEST PUSH1 0x0 PUSH1 0x20 SWAP1 POP PUSH1 0x1F DUP4 GT PUSH1 0x1 DUP2 EQ PUSH2 0x2EF4 JUMPI PUSH1 0x0 DUP5 ISZERO PUSH2 0x2EE2 JUMPI DUP3 DUP8 ADD MLOAD SWAP1 POP JUMPDEST PUSH2 0x2EEC DUP6 DUP3 PUSH2 0x2E6E JUMP JUMPDEST DUP7 SSTORE POP PUSH2 0x2F54 JUMP JUMPDEST PUSH1 0x1F NOT DUP5 AND PUSH2 0x2F02 DUP7 PUSH2 0x2CDE JUMP JUMPDEST PUSH1 0x0 JUMPDEST DUP3 DUP2 LT ISZERO PUSH2 0x2F2A JUMPI DUP5 DUP10 ADD MLOAD DUP3 SSTORE PUSH1 0x1 DUP3 ADD SWAP2 POP PUSH1 0x20 DUP6 ADD SWAP5 POP PUSH1 0x20 DUP2 ADD SWAP1 POP PUSH2 0x2F05 JUMP JUMPDEST DUP7 DUP4 LT ISZERO PUSH2 0x2F47 JUMPI DUP5 DUP10 ADD MLOAD PUSH2 0x2F43 PUSH1 0x1F DUP10 AND DUP3 PUSH2 0x2E50 JUMP JUMPDEST DUP4 SSTORE POP JUMPDEST PUSH1 0x1 PUSH1 0x2 DUP9 MUL ADD DUP9 SSTORE POP POP POP JUMPDEST POP POP POP POP POP POP JUMP JUMPDEST PUSH1 0x0 PUSH1 0x40 DUP3 ADD SWAP1 POP DUP2 DUP2 SUB PUSH1 0x0 DUP4 ADD MSTORE PUSH2 0x2F76 DUP2 DUP6 PUSH2 0x25A9 JUMP JUMPDEST SWAP1 POP PUSH2 0x2F85 PUSH1 0x20 DUP4 ADD DUP5 PUSH2 0x26D8 JUMP JUMPDEST SWAP4 SWAP3 POP POP POP JUMP JUMPDEST PUSH32 0x4E487B7100000000000000000000000000000000000000000000000000000000 PUSH1 0x0 MSTORE PUSH1 0x11 PUSH1 0x4 MSTORE PUSH1 0x24 PUSH1 0x0 REVERT JUMPDEST PUSH1 0x0 PUSH2 0x2FC6 DUP3 PUSH2 0x24D1 JUMP JUMPDEST SWAP2 POP PUSH2 0x2FD1 DUP4 PUSH2 0x24D1 JUMP JUMPDEST SWAP3 POP DUP3 DUP3 ADD SWAP1 POP DUP1 DUP3 GT ISZERO PUSH2 0x2FE9 JUMPI PUSH2 0x2FE8 PUSH2 0x2F8C JUMP JUMPDEST JUMPDEST SWAP3 SWAP2 POP POP JUMP JUMPDEST PUSH32 0x496E73756666696369656E7420657863657373206C6971756964697479000000 PUSH1 0x0 DUP3 ADD MSTORE POP JUMP JUMPDEST PUSH1 0x0 PUSH2 0x3025 PUSH1 0x1D DUP4 PUSH2 0x256E JUMP JUMPDEST SWAP2 POP PUSH2 0x3030 DUP3 PUSH2 0x2FEF JUMP JUMPDEST PUSH1 0x20 DUP3 ADD SWAP1 POP SWAP2 SWAP1 POP JUMP JUMPDEST PUSH1 0x0 PUSH1 0x20 DUP3 ADD SWAP1 POP DUP2 DUP2 SUB PUSH1 0x0 DUP4 ADD MSTORE PUSH2 0x3054 DUP2 PUSH2 0x3018 JUMP JUMPDEST SWAP1 POP SWAP2 SWAP1 POP JUMP JUMPDEST PUSH1 0x0 PUSH2 0x3066 DUP3 PUSH2 0x24D1 JUMP JUMPDEST SWAP2 POP PUSH2 0x3071 DUP4 PUSH2 0x24D1 JUMP JUMPDEST SWAP3 POP DUP3 DUP3 SUB SWAP1 POP DUP2 DUP2 GT ISZERO PUSH2 0x3089 JUMPI PUSH2 0x3088 PUSH2 0x2F8C JUMP JUMPDEST JUMPDEST SWAP3 SWAP2 POP POP JUMP JUMPDEST PUSH32 0x54726164696E6720697320706175736564000000000000000000000000000000 PUSH1 0x0 DUP3 ADD MSTORE POP JUMP JUMPDEST PUSH1 0x0 PUSH2 0x30C5 PUSH1 0x11 DUP4 PUSH2 0x256E JUMP JUMPDEST SWAP2 POP PUSH2 0x30D0 DUP3 PUSH2 0x308F JUMP JUMPDEST PUSH1 0x20 DUP3 ADD SWAP1 POP SWAP2 SWAP1 POP JUMP JUMPDEST PUSH1 0x0 PUSH1 0x20 DUP3 ADD SWAP1 POP DUP2 DUP2 SUB PUSH1 0x0 DUP4 ADD MSTORE PUSH2 0x30F4 DUP2 PUSH2 0x30B8 JUMP JUMPDEST SWAP1 POP SWAP2 SWAP1 POP JUMP JUMPDEST PUSH32 0x416D6F756E74206D7573742062652067726561746572207468616E2030000000 PUSH1 0x0 DUP3 ADD MSTORE POP JUMP JUMPDEST PUSH1 0x0 PUSH2 0x3131 PUSH1 0x1D DUP4 PUSH2 0x256E JUMP JUMPDEST SWAP2 POP PUSH2 0x313C DUP3 PUSH2 0x30FB JUMP JUMPDEST PUSH1 0x20 DUP3 ADD SWAP1 POP SWAP2 SWAP1 POP JUMP JUMPDEST PUSH1 0x0 PUSH1 0x20 DUP3 ADD SWAP1 POP DUP2 DUP2 SUB PUSH1 0x0 DUP4 ADD MSTORE PUSH2 0x3160 DUP2 PUSH2 0x3124 JUMP JUMPDEST SWAP1 POP SWAP2 SWAP1 POP JUMP JUMPDEST PUSH32 0x506174656E74206E6F7420666F722073616C6500000000000000000000000000 PUSH1 0x0 DUP3 ADD MSTORE POP JUMP JUMPDEST PUSH1 0x0 PUSH2 0x319D PUSH1 0x13 DUP4 PUSH2 0x256E JUMP JUMPDEST SWAP2 POP PUSH2 0x31A8 DUP3 PUSH2 0x3167 JUMP JUMPDEST PUSH1 0x20 DUP3 ADD SWAP1 POP SWAP2 SWAP1 POP JUMP JUMPDEST PUSH1 0x0 PUSH1 0x20 DUP3 ADD SWAP1 POP DUP2 DUP2 SUB PUSH1 0x0 DUP4 ADD MSTORE PUSH2 0x31CC DUP2 PUSH2 0x3190 JUMP JUMPDEST SWAP1 POP SWAP2 SWAP1 POP JUMP JUMPDEST PUSH32 0x496E73756666696369656E74206C697175696469747900000000000000000000 PUSH1 0x0 DUP3 ADD MSTORE POP JUMP JUMPDEST PUSH1 0x0 PUSH2 0x3209 PUSH1 0x16 DUP4 PUSH2 0x256E JUMP JUMPDEST SWAP2 POP PUSH2 0x3214 DUP3 PUSH2 0x31D3 JUMP JUMPDEST PUSH1 0x20 DUP3 ADD SWAP1 POP SWAP2 SWAP1 POP JUMP JUMPDEST PUSH1 0x0 PUSH1 0x20 DUP3 ADD SWAP1 POP DUP2 DUP2 SUB PUSH1 0x0 DUP4 ADD MSTORE PUSH2 0x3238 DUP2 PUSH2 0x31FC JUMP JUMPDEST SWAP1 POP SWAP2 SWAP1 POP JUMP JUMPDEST PUSH1 0x0 PUSH2 0x324A DUP3 PUSH2 0x24D1 JUMP JUMPDEST SWAP2 POP PUSH2 0x3255 DUP4 PUSH2 0x24D1 JUMP JUMPDEST SWAP3 POP DUP3 DUP3 MUL PUSH2 0x3263 DUP2 PUSH2 0x24D1 JUMP JUMPDEST SWAP2 POP DUP3 DUP3 DIV DUP5 EQ DUP4 ISZERO OR PUSH2 0x327A JUMPI PUSH2 0x3279 PUSH2 0x2F8C JUMP JUMPDEST JUMPDEST POP SWAP3 SWAP2 POP POP JUMP JUMPDEST PUSH32 0x4E487B7100000000000000000000000000000000000000000000000000000000 PUSH1 0x0 MSTORE PUSH1 0x12 PUSH1 0x4 MSTORE PUSH1 0x24 PUSH1 0x0 REVERT JUMPDEST PUSH1 0x0 PUSH2 0x32BB DUP3 PUSH2 0x24D1 JUMP JUMPDEST SWAP2 POP PUSH2 0x32C6 DUP4 PUSH2 0x24D1 JUMP JUMPDEST SWAP3 POP DUP3 PUSH2 0x32D6 JUMPI PUSH2 0x32D5 PUSH2 0x3281 JUMP JUMPDEST JUMPDEST DUP3 DUP3 DIV SWAP1 POP SWAP3 SWAP2 POP POP JUMP JUMPDEST PUSH32 0x496E73756666696369656E74207061796D656E74000000000000000000000000 PUSH1 0x0 DUP3 ADD MSTORE POP JUMP JUMPDEST PUSH1 0x0 PUSH2 0x3317 PUSH1 0x14 DUP4 PUSH2 0x256E JUMP JUMPDEST SWAP2 POP PUSH2 0x3322 DUP3 PUSH2 0x32E1 JUMP JUMPDEST PUSH1 0x20 DUP3 ADD SWAP1 POP SWAP2 SWAP1 POP JUMP JUMPDEST PUSH1 0x0 PUSH1 0x20 DUP3 ADD SWAP1 POP DUP2 DUP2 SUB PUSH1 0x0 DUP4 ADD MSTORE PUSH2 0x3346 DUP2 PUSH2 0x330A JUMP JUMPDEST SWAP1 POP SWAP2 SWAP1 POP JUMP JUMPDEST PUSH1 0x0 PUSH2 0x3358 DUP3 PUSH2 0x24D1 JUMP JUMPDEST SWAP2 POP PUSH32 0xFFFFFFFFFFFFFFFFFFFFFFFFFFFFFFFFFFFFFFFFFFFFFFFFFFFFFFFFFFFFFFFF DUP3 SUB PUSH2 0x338A JUMPI PUSH2 0x3389 PUSH2 0x2F8C JUMP JUMPDEST JUMPDEST PUSH1 0x1 DUP3 ADD SWAP1 POP SWAP2 SWAP1 POP JUMP JUMPDEST PUSH1 0x0 PUSH1 0x40 DUP3 ADD SWAP1 POP PUSH2 0x33AA PUSH1 0x0 DUP4 ADD DUP6 PUSH2 0x26D8 JUMP JUMPDEST PUSH2 0x33B7 PUSH1 0x20 DUP4 ADD DUP5 PUSH2 0x26D8 JUMP JUMPDEST SWAP4 SWAP3 POP POP POP JUMP JUMPDEST PUSH32 0x496E73756666696369656E742062616C616E6365000000000000000000000000 PUSH1 0x0 DUP3 ADD MSTORE POP JUMP JUMPDEST PUSH1 0x0 PUSH2 0x33F4 PUSH1 0x14 DUP4 PUSH2 0x256E JUMP JUMPDEST SWAP2 POP PUSH2 0x33FF DUP3 PUSH2 0x33BE JUMP JUMPDEST PUSH1 0x20 DUP3 ADD SWAP1 POP SWAP2 SWAP1 POP JUMP JUMPDEST PUSH1 0x0 PUSH1 0x20 DUP3 ADD SWAP1 POP DUP2 DUP2 SUB PUSH1 0x0 DUP4 ADD MSTORE PUSH2 0x3423 DUP2 PUSH2 0x33E7 JUMP JUMPDEST SWAP1 POP SWAP2 SWAP1 POP JUMP JUMPDEST PUSH32 0x4E6F206C69717569646974790000000000000000000000000000000000000000 PUSH1 0x0 DUP3 ADD MSTORE POP JUMP JUMPDEST PUSH1 0x0 PUSH2 0x3460 PUSH1 0xC DUP4 PUSH2 0x256E JUMP JUMPDEST SWAP2 POP PUSH2 0x346B DUP3 PUSH2 0x342A JUMP JUMPDEST PUSH1 0x20 DUP3 ADD SWAP1 POP SWAP2 SWAP1 POP JUMP JUMPDEST PUSH1 0x0 PUSH1 0x20 DUP3 ADD SWAP1 POP DUP2 DUP2 SUB PUSH1 0x0 DUP4 ADD MSTORE PUSH2 0x348F DUP2 PUSH2 0x3453 JUMP JUMPDEST SWAP1 POP SWAP2 SWAP1 POP JUMP JUMPDEST PUSH32 0x496E73756666696369656E74206C697175696469747920666F722073616C6500 PUSH1 0x0 DUP3 ADD MSTORE POP JUMP JUMPDEST PUSH1 0x0 PUSH2 0x34CC PUSH1 0x1F DUP4 PUSH2 0x256E JUMP JUMPDEST SWAP2 POP PUSH2 0x34D7 DUP3 PUSH2 0x3496 JUMP JUMPDEST PUSH1 0x20 DUP3 ADD SWAP1 POP SWAP2 SWAP1 POP JUMP JUMPDEST PUSH1 0x0 PUSH1 0x20 DUP3 ADD SWAP1 POP DUP2 DUP2 SUB PUSH1 0x0 DUP4 ADD MSTORE PUSH2 0x34FB DUP2 PUSH2 0x34BF JUMP JUMPDEST SWAP1 POP SWAP2 SWAP1 POP JUMP JUMPDEST PUSH1 0x0 PUSH2 0x350D DUP3 PUSH2 0x24D1 JUMP JUMPDEST SWAP2 POP PUSH1 0x0 DUP3 SUB PUSH2 0x3520 JUMPI PUSH2 0x351F PUSH2 0x2F8C JUMP JUMPDEST JUMPDEST PUSH1 0x1 DUP3 SUB SWAP1 POP SWAP2 SWAP1 POP JUMP JUMPDEST PUSH32 0x4E487B7100000000000000000000000000000000000000000000000000000000 PUSH1 0x0 MSTORE PUSH1 0x32 PUSH1 0x4 MSTORE PUSH1 0x24 PUSH1 0x0 REVERT JUMPDEST PUSH1 0x0 PUSH1 0x60 DUP3 ADD SWAP1 POP PUSH2 0x356F PUSH1 0x0 DUP4 ADD DUP7 PUSH2 0x27B9 JUMP JUMPDEST PUSH2 0x357C PUSH1 0x20 DUP4 ADD DUP6 PUSH2 0x26D8 JUMP JUMPDEST PUSH2 0x3589 PUSH1 0x40 DUP4 ADD DUP5 PUSH2 0x26D8 JUMP JUMPDEST SWAP5 SWAP4 POP POP POP POP JUMP INVALID LOG2 PUSH5 0x6970667358 0x22 SLT KECCAK256 CALLCODE 0xF6 POP MSIZE 0xCF 0xBE 0x4B CREATE2 0xBF CALLDATASIZE PUSH24 0x95C3BA78DB2B06024AA7432A69532799D80E532CB864736F PUSH13 0x63430008180033000000000000 "},"methodIdentifiers":{"MAX_SUPPLY()":"32cb6b0c","MIN_LIQUIDITY()":"21b77d63","MIN_PRICE()":"ad9f20a6","allowance(address,address)":"dd62ed3e","approve(address,uint256)":"095ea7b3","balanceOf(address)":"70a08231","basePrice()":"c7876ea4","buyTokens(uint256)":"3610724e","calculatePrice(uint256,bool)":"5fe3854e","currentPrice()":"9d1b464a","decimals()":"313ce567","getPatentDetails()":"67bf602b","getTokenMetrics()":"f0d673f3","getTradeHistory(uint256)":"873c5e60","holdersCount()":"6b4ed21b","isTrading()":"6e9087db","lastPriceUpdate()":"6949faeb","liquidityPool()":"665a11ca","name()":"06fdde03","owner()":"8da5cb5b","patentDetails()":"52dc0f96","patentId()":"8654aa34","patentRegistryAddress()":"6485b6bb","renounceOwnership()":"715018a6","sellTokens(uint256)":"6c11bcd3","setPatentForSale(bool)":"d3bc9e2a","symbol()":"95d89b41","totalSupply()":"18160ddd","tradeHistory(uint256)":"5b0c5dbd","transfer(address,uint256)":"a9059cbb","transferFrom(address,address,uint256)":"23b872dd","transferOwnership(address)":"f2fde38b","updatePatentDetails(string,uint256)":"045fa779","userTrades(address)":"6a6ae606","volume24h()":"140b9d84","withdrawExcessLiquidity(uint256)":"2d9e3f62"}}}}}