{"contracts/PatentToken.sol":{"PatentToken":{"abi":[{"inputs":[{"internalType":"string","name":"name","type":"string"},{"internalType":"string","name":"symbol","type":"string"},{"internalType":"address","name":"_patentRegistryAddress","type":"address"},{"internalType":"uint256","name":"_patentId","type":"uint256"},{"internalType":"address","name":"initialOwner","type":"address"}],"stateMutability":"payable","type":"constructor"},{"inputs":[{"internalType":"address","name":"spender","type":"address"},{"internalType":"uint256","name":"allowance","type":"uint256"},{"internalType":"uint256","name":"needed","type":"uint256"}],"name":"ERC20InsufficientAllowance","type":"error"},{"inputs":[{"internalType":"address","name":"sender","type":"address"},{"internalType":"uint256","name":"balance","type":"uint256"},{"internalType":"uint256","name":"needed","type":"uint256"}],"name":"ERC20InsufficientBalance","type":"error"},{"inputs":[{"internalType":"address","name":"approver","type":"address"}],"name":"ERC20InvalidApprover","type":"error"},{"inputs":[{"internalType":"address","name":"receiver","type":"address"}],"name":"ERC20InvalidReceiver","type":"error"},{"inputs":[{"internalType":"address","name":"sender","type":"address"}],"name":"ERC20InvalidSender","type":"error"},{"inputs":[{"internalType":"address","name":"spender","type":"address"}],"name":"ERC20InvalidSpender","type":"error"},{"inputs":[{"internalType":"address","name":"owner","type":"address"}],"name":"OwnableInvalidOwner","type":"error"},{"inputs":[{"internalType":"address","name":"account","type":"address"}],"name":"OwnableUnauthorizedAccount","type":"error"},{"inputs":[],"name":"ReentrancyGuardReentrantCall","type":"error"},{"anonymous":false,"inputs":[{"indexed":true,"internalType":"address","name":"owner","type":"address"},{"indexed":true,"internalType":"address","name":"spender","type":"address"},{"indexed":false,"internalType":"uint256","name":"value","type":"uint256"}],"name":"Approval","type":"event"},{"anonymous":false,"inputs":[{"indexed":true,"internalType":"address","name":"provider","type":"address"},{"indexed":false,"internalType":"uint256","name":"amount","type":"uint256"}],"name":"LiquidityAdded","type":"event"},{"anonymous":false,"inputs":[{"indexed":true,"internalType":"address","name":"provider","type":"address"},{"indexed":false,"internalType":"uint256","name":"amount","type":"uint256"}],"name":"LiquidityRemoved","type":"event"},{"anonymous":false,"inputs":[{"indexed":true,"internalType":"address","name":"previousOwner","type":"address"},{"indexed":true,"internalType":"address","name":"newOwner","type":"address"}],"name":"OwnershipTransferred","type":"event"},{"anonymous":false,"inputs":[{"indexed":false,"internalType":"string","name":"ipfsHash","type":"string"},{"indexed":false,"internalType":"uint256","name":"price","type":"uint256"}],"name":"PatentDetailsUpdated","type":"event"},{"anonymous":false,"inputs":[{"indexed":false,"internalType":"uint256","name":"oldPrice","type":"uint256"},{"indexed":false,"internalType":"uint256","name":"newPrice","type":"uint256"},{"indexed":false,"internalType":"uint256","name":"timestamp","type":"uint256"}],"name":"PriceUpdated","type":"event"},{"anonymous":false,"inputs":[{"indexed":true,"internalType":"address","name":"buyer","type":"address"},{"indexed":false,"internalType":"uint256","name":"amount","type":"uint256"},{"indexed":false,"internalType":"uint256","name":"price","type":"uint256"}],"name":"TokensPurchased","type":"event"},{"anonymous":false,"inputs":[{"indexed":true,"internalType":"address","name":"seller","type":"address"},{"indexed":false,"internalType":"uint256","name":"amount","type":"uint256"},{"indexed":false,"internalType":"uint256","name":"price","type":"uint256"}],"name":"TokensSold","type":"event"},{"anonymous":false,"inputs":[{"indexed":true,"internalType":"address","name":"from","type":"address"},{"indexed":true,"internalType":"address","name":"to","type":"address"},{"indexed":false,"internalType":"uint256","name":"value","type":"uint256"}],"name":"Transfer","type":"event"},{"stateMutability":"payable","type":"fallback"},{"inputs":[],"name":"MAX_SUPPLY","outputs":[{"internalType":"uint256","name":"","type":"uint256"}],"stateMutability":"view","type":"function"},{"inputs":[],"name":"MIN_LIQUIDITY","outputs":[{"internalType":"uint256","name":"","type":"uint256"}],"stateMutability":"view","type":"function"},{"inputs":[],"name":"MIN_PRICE","outputs":[{"internalType":"uint256","name":"","type":"uint256"}],"stateMutability":"view","type":"function"},{"inputs":[{"internalType":"address","name":"owner","type":"address"},{"internalType":"address","name":"spender","type":"address"}],"name":"allowance","outputs":[{"internalType":"uint256","name":"","type":"uint256"}],"stateMutability":"view","type":"function"},{"inputs":[{"internalType":"address","name":"spender","type":"address"},{"internalType":"uint256","name":"value","type":"uint256"}],"name":"approve","outputs":[{"internalType":"bool","name":"","type":"bool"}],"stateMutability":"nonpayable","type":"function"},{"inputs":[{"internalType":"address","name":"account","type":"address"}],"name":"balanceOf","outputs":[{"internalType":"uint256","name":"","type":"uint256"}],"stateMutability":"view","type":"function"},{"inputs":[],"name":"basePrice","outputs":[{"internalType":"uint256","name":"","type":"uint256"}],"stateMutability":"view","type":"function"},{"inputs":[{"internalType":"uint256","name":"amount","type":"uint256"}],"name":"buyTokens","outputs":[],"stateMutability":"payable","type":"function"},{"inputs":[{"internalType":"uint256","name":"amount","type":"uint256"}],"name":"calculatePrice","outputs":[{"internalType":"uint256","name":"","type":"uint256"}],"stateMutability":"view","type":"function"},{"inputs":[],"name":"currentPrice","outputs":[{"internalType":"uint256","name":"","type":"uint256"}],"stateMutability":"view","type":"function"},{"inputs":[],"name":"decimals","outputs":[{"internalType":"uint8","name":"","type":"uint8"}],"stateMutability":"view","type":"function"},{"inputs":[],"name":"getPatentDetails","outputs":[{"components":[{"internalType":"string","name":"title","type":"string"},{"internalType":"string","name":"ipfsHash","type":"string"},{"internalType":"uint256","name":"price","type":"uint256"},{"internalType":"bool","name":"isForSale","type":"bool"},{"internalType":"address","name":"inventor","type":"address"},{"internalType":"uint256","name":"createdAt","type":"uint256"},{"internalType":"string","name":"patentId","type":"string"},{"internalType":"bool","name":"isVerified","type":"bool"}],"internalType":"struct PatentToken.Patent","name":"","type":"tuple"}],"stateMutability":"view","type":"function"},{"inputs":[],"name":"getTokenMetrics","outputs":[{"internalType":"uint256","name":"_currentPrice","type":"uint256"},{"internalType":"uint256","name":"_basePrice","type":"uint256"},{"internalType":"uint256","name":"_liquidityPool","type":"uint256"},{"internalType":"uint256","name":"_volume24h","type":"uint256"},{"internalType":"uint256","name":"_holdersCount","type":"uint256"},{"internalType":"bool","name":"_isTrading","type":"bool"}],"stateMutability":"view","type":"function"},{"inputs":[{"internalType":"uint256","name":"count","type":"uint256"}],"name":"getTradeHistory","outputs":[{"components":[{"internalType":"uint256","name":"timestamp","type":"uint256"},{"internalType":"uint256","name":"price","type":"uint256"},{"internalType":"uint256","name":"volume","type":"uint256"}],"internalType":"struct PatentToken.TradeMetrics[]","name":"","type":"tuple[]"}],"stateMutability":"view","type":"function"},{"inputs":[],"name":"holdersCount","outputs":[{"internalType":"uint256","name":"","type":"uint256"}],"stateMutability":"view","type":"function"},{"inputs":[],"name":"isTrading","outputs":[{"internalType":"bool","name":"","type":"bool"}],"stateMutability":"view","type":"function"},{"inputs":[],"name":"lastPriceUpdate","outputs":[{"internalType":"uint256","name":"","type":"uint256"}],"stateMutability":"view","type":"function"},{"inputs":[],"name":"liquidityPool","outputs":[{"internalType":"uint256","name":"","type":"uint256"}],"stateMutability":"view","type":"function"},{"inputs":[],"name":"name","outputs":[{"internalType":"string","name":"","type":"string"}],"stateMutability":"view","type":"function"},{"inputs":[],"name":"owner","outputs":[{"internalType":"address","name":"","type":"address"}],"stateMutability":"view","type":"function"},{"inputs":[],"name":"patentDetails","outputs":[{"internalType":"string","name":"title","type":"string"},{"internalType":"string","name":"ipfsHash","type":"string"},{"internalType":"uint256","name":"price","type":"uint256"},{"internalType":"bool","name":"isForSale","type":"bool"},{"internalType":"address","name":"inventor","type":"address"},{"internalType":"uint256","name":"createdAt","type":"uint256"},{"internalType":"string","name":"patentId","type":"string"},{"internalType":"bool","name":"isVerified","type":"bool"}],"stateMutability":"view","type":"function"},{"inputs":[],"name":"patentId","outputs":[{"internalType":"uint256","name":"","type":"uint256"}],"stateMutability":"view","type":"function"},{"inputs":[],"name":"patentRegistryAddress","outputs":[{"internalType":"address","name":"","type":"address"}],"stateMutability":"view","type":"function"},{"inputs":[],"name":"renounceOwnership","outputs":[],"stateMutability":"nonpayable","type":"function"},{"inputs":[{"internalType":"uint256","name":"amount","type":"uint256"}],"name":"sellTokens","outputs":[],"stateMutability":"nonpayable","type":"function"},{"inputs":[{"internalType":"bool","name":"forSale","type":"bool"}],"name":"setPatentForSale","outputs":[],"stateMutability":"nonpayable","type":"function"},{"inputs":[],"name":"symbol","outputs":[{"internalType":"string","name":"","type":"string"}],"stateMutability":"view","type":"function"},{"inputs":[],"name":"totalSupply","outputs":[{"internalType":"uint256","name":"","type":"uint256"}],"stateMutability":"view","type":"function"},{"inputs":[{"internalType":"uint256","name":"","type":"uint256"}],"name":"tradeHistory","outputs":[{"internalType":"uint256","name":"timestamp","type":"uint256"},{"internalType":"uint256","name":"price","type":"uint256"},{"internalType":"uint256","name":"volume","type":"uint256"}],"stateMutability":"view","type":"function"},{"inputs":[{"internalType":"address","name":"to","type":"address"},{"internalType":"uint256","name":"value","type":"uint256"}],"name":"transfer","outputs":[{"internalType":"bool","name":"","type":"bool"}],"stateMutability":"nonpayable","type":"function"},{"inputs":[{"internalType":"address","name":"from","type":"address"},{"internalType":"address","name":"to","type":"address"},{"internalType":"uint256","name":"value","type":"uint256"}],"name":"transferFrom","outputs":[{"internalType":"bool","name":"","type":"bool"}],"stateMutability":"nonpayable","type":"function"},{"inputs":[{"internalType":"address","name":"newOwner","type":"address"}],"name":"transferOwnership","outputs":[],"stateMutability":"nonpayable","type":"function"},{"inputs":[{"internalType":"string","name":"newIpfsHash","type":"string"},{"internalType":"uint256","name":"newPrice","type":"uint256"}],"name":"updatePatentDetails","outputs":[],"stateMutability":"nonpayable","type":"function"},{"inputs":[{"internalType":"address","name":"","type":"address"}],"name":"userTrades","outputs":[{"internalType":"uint256","name":"","type":"uint256"}],"stateMutability":"view","type":"function"},{"inputs":[],"name":"virtualReserve","outputs":[{"internalType":"uint256","name":"","type":"uint256"}],"stateMutability":"view","type":"function"},{"inputs":[],"name":"volume24h","outputs":[{"internalType":"uint256","name":"","type":"uint256"}],"stateMutability":"view","type":"function"},{"inputs":[{"internalType":"uint256","name":"amount","type":"uint256"}],"name":"withdrawExcessLiquidity","outputs":[],"stateMutability":"nonpayable","type":"function"},{"stateMutability":"payable","type":"receive"}],"evm":{"bytecode":{"linkReferences":{},"object":"60c080604052620028fb80380380916200001a828562000b0d565b8339810160a08282031262000b085781516001600160401b03811162000b0857816200004891840162000b31565b602083015190916001600160401b03821162000b08576200006b91840162000b31565b916200007a6040820162000ba8565b916200008e60806060840151930162000ba8565b815190916001600160401b038211620005b05760035490600182811c9216801562000afd575b60208310146200058f5781601f84931162000a88575b50602090601f8311600114620009fd57600092620009f1575b50508160011b916000199060031b1c1916176003555b83516001600160401b038111620005b057600454600181811c91168015620009e6575b60208210146200058f57601f81116200097c575b50602094601f82116001146200090f5794819293949560009262000903575b50508160011b916000199060031b1c1916176004555b6001600160a01b0381168015620008ea57600580546001600160a01b03198116831790915560405191906001600160a01b03167f8be0079c531659141344cd1fd0a4f28419497f9722a3daafe3b4186f6b6457e0600080a3600160065567016345785d8a00003410620008a8575090620002166000926402540be40080600755600855846080528260a052600160ff1960145416176014554260125534601055620002103062000bcb565b62000bcb565b69d3c21bcecceda100000060155560405163138da1af60e31b8152600481019190915291829060249082906001600160a01b03165afa80156200089c57600090819282838490859286948796620007b2575b50604051976001600160401b036101008a01908111908a1117620005b05761010089016040908152888a5260208a0191909152880152151560608701526001600160a01b0316608086015260a085015260c0840152151560e08301528051906001600160401b038211620005b05760095490600182811c92168015620007a7575b60208310146200058f5781601f84931162000746575b50602090601f8311600114620006c857600092620006bc575b50508160011b916000199060031b1c1916176009555b60208101518051906001600160401b038211620005b057600a5490600182811c92168015620006b1575b60208310146200058f5781601f84931162000650575b50602090601f8311600114620005d257600092620005c6575b50508160011b916000199060031b1c191617600a555b6040810151600b5560608101511515600c5460ff610100600160a81b03608085015160081b1692169060018060a81b0319161717600c5560a0810151600d5560c08101519081519160018060401b038311620005b057600e54600181811c91168015620005a5575b60208210146200058f57601f811162000536575b50602090601f8411600114620004b95760e0939160009183620004ad575b50508160011b916000199060031b1c191617600e555b0151151560ff8019600f5416911617600f556040513481527fc17cea59c2955cb181b03393209566960365771dbba9dc3d510180e7cb31208860203392a2604051611c34908162000c67823960805181610c0a015260a0518161063d0152f35b01519050388062000437565b600e60009081526000805160206200289b833981519152929190601f198616905b8181106200051d575091600193918660e097941062000503575b505050811b01600e556200044d565b015160001960f88460031b161c19169055388080620004f4565b92936020600181928786015181550195019301620004da565b600e6000526000805160206200289b833981519152601f850160051c8101916020861062000584575b601f0160051c01905b81811062000577575062000419565b6000815560010162000568565b90915081906200055f565b634e487b7160e01b600052602260045260246000fd5b90607f169062000405565b634e487b7160e01b600052604160045260246000fd5b01519050388062000387565b600a60009081529350600080516020620028bb83398151915291905b601f198416851062000634576001945083601f198116106200061a575b505050811b01600a556200039d565b015160001960f88460031b161c191690553880806200060b565b81810151835560209485019460019093019290910190620005ee565b600a600052909150600080516020620028bb833981519152601f840160051c810160208510620006a9575b90849392915b601f830160051c82018110620006995750506200036e565b6000815585945060010162000681565b50806200067b565b91607f169162000358565b01519050388062000318565b600960009081529350600080516020620028db83398151915291905b601f19841685106200072a576001945083601f1981161062000710575b505050811b016009556200032e565b015160001960f88460031b161c1916905538808062000701565b81810151835560209485019460019093019290910190620006e4565b6009600052909150600080516020620028db833981519152601f840160051c8101602085106200079f575b90849392915b601f830160051c820181106200078f575050620002ff565b6000815585945060010162000777565b508062000771565b91607f1691620002e9565b9697505050505050503d918281833e620007cd838362000b0d565b610100828481010312620008915781516001600160401b0381116200089857620007fd9084840190840162000b31565b60208301516001600160401b0381116200089457620008229085850190850162000b31565b92604081015194620008376060830162000bbd565b93620008466080840162000ba8565b9060a08401519260c08501519160018060401b03831162000891575062000879620008819260e092870190870162000b31565b940162000bbd565b9395969490919293943862000268565b80fd5b8280fd5b5080fd5b6040513d6000823e3d90fd5b62461bcd60e51b815260206004820152601e60248201527f496e73756666696369656e7420696e697469616c206c697175696469747900006044820152606490fd5b604051631e4fbdf760e01b815260006004820152602490fd5b0151905038806200014f565b601f19821695600460005260206000209160005b888110620009635750836001959697981062000949575b505050811b0160045562000165565b015160001960f88460031b161c191690553880806200093a565b9192602060018192868501518155019401920162000923565b60046000527f8a35acfbc15ff81a39ae7d344fd709f28e8600b4aa8c65c6b64bfe7fe36bd19b601f830160051c81019160208410620009db575b601f0160051c01905b818110620009ce575062000130565b60008155600101620009bf565b9091508190620009b6565b90607f16906200011c565b015190503880620000e3565b600360009081527fc2575a0e9e593c00f959f8c92f12db2869c3395a3b0502d05e2516446f71f85b9350601f198516905b81811062000a6f575090846001959493921062000a55575b505050811b01600355620000f9565b015160001960f88460031b161c1916905538808062000a46565b9293602060018192878601518155019501930162000a2e565b60036000529091507fc2575a0e9e593c00f959f8c92f12db2869c3395a3b0502d05e2516446f71f85b601f840160051c8101916020851062000af2575b90601f859493920160051c01905b81811062000ae25750620000ca565b6000815584935060010162000ad3565b909150819062000ac5565b91607f1691620000b4565b600080fd5b601f909101601f19168101906001600160401b03821190821017620005b057604052565b919080601f8401121562000b08578251906001600160401b038211620005b0576040519160209162000b6d601f8301601f191684018562000b0d565b81845282828701011162000b085760005b81811062000b9457508260009394955001015290565b858101830151848201840152820162000b7e565b51906001600160a01b038216820362000b0857565b5190811515820362000b0857565b6001600160a01b0316801562000c4d576002546969e10de76676d080000080820180921162000c375760207fddf252ad1be2c89b69c2b068fc378daa952ba7f163c4a11628f55a4df523b3ef9160009360025584845283825260408420818154019055604051908152a3565b634e487b7160e01b600052601160045260246000fd5b60405163ec442f0560e01b815260006004820152602490fdfe6080604081815260048036101561001e575b505050361561001c57005b005b600092833560e01c908163045fa779146113665750806306fdde0314611293578063095ea7b3146111ea578063140b9d84146111cb57806318160ddd146111ac57806321b77d631461118957806323b872dd146110965780632d9e3f6214610fc1578063313ce56714610fa557806332cb6b0c14610f805780633610724e14610d3257806352dc0f9614610c8b5780635b0c5dbd14610c395780636485b6bb14610bf5578063665a11ca14610bd657806367bf602b14610a9b5780636949faeb14610a7c5780636a6ae60614610a445780636b4ed21b14610a255780636c11bcd3146107375780636e9087db1461071357806370a08231146106dc578063715018a61461067f57806380c08a5d146106605780638654aa3414610625578063873c5e60146104ef5780638da5cb5b146104c657806395d89b41146103dc5780639d1b464a146103bd578063a9059cbb1461038c578063ad9f20a61461036c578063ae10426514610342578063c7876ea414610323578063d3bc9e2a146102ec578063dd62ed3e146102a3578063f0d673f3146102505763f2fde38b03610011573461024c57602036600319011261024c576101d7611660565b906101e061190c565b6001600160a01b03918216928315610236575050600554826bffffffffffffffffffffffff60a01b821617600555167f8be0079c531659141344cd1fd0a4f28419497f9722a3daafe3b4186f6b6457e08380a380f35b51631e4fbdf760e01b8152908101849052602490fd5b8280fd5b50503461029f578160031936011261029f5760c0906008549060075490601054601154906013549260ff60145416948151968752602087015285015260608401526080830152151560a0820152f35b5080fd5b50503461029f578060031936011261029f57806020926102c1611660565b6102c961167b565b6001600160a01b0391821683526001865283832091168252845220549051908152f35b83823461029f57602036600319011261029f573580151580910361029f5761031261190c565b60ff8019600c5416911617600c5580f35b50503461029f578160031936011261029f576020906007549051908152f35b509134610369576020366003190112610369575061036260209235611a98565b9051908152f35b80fd5b50503461029f578160031936011261029f57602090516402540be4008152f35b50503461029f578060031936011261029f576020906103b66103ac611660565b6024359033611938565b5160018152f35b50503461029f578160031936011261029f576020906008549051908152f35b50903461024c578260031936011261024c57805191838154906103fe82611691565b8086529260019280841690811561049b575060011461043f575b61043b8686610429828b03836115fe565b51918291602083526020830190611620565b0390f35b815294507f8a35acfbc15ff81a39ae7d344fd709f28e8600b4aa8c65c6b64bfe7fe36bd19b5b8286106104835750505061042982602061043b958201019438610418565b80546020878701810191909152909501948101610465565b905061043b97508693506020925061042994915060ff191682840152151560051b8201019438610418565b50503461029f578160031936011261029f5760055490516001600160a01b039091168152602090f35b508234610369576020918260031936011261029f573590601654918280821091180282189161051d83611bd2565b9261052a865194856115fe565b808452601f1961053982611bd2565b0185845b8281106105ff57505050825b81811061059e57505050835192808401908085528351809252808686019401925b8281106105775785850386f35b8351805186528083015186840152870151878601526060909401939281019260010161056a565b806105bd6105b86105fa936105b38688611ba2565b611a16565b6118bb565b5060028951916105cc836115af565b8054835260018101548a8401520154898201526105e98288611bea565b526105f48187611bea565b50611b93565b610549565b885161060a816115af565b8681528683820152868a82015282828901015201869061053d565b50503461029f578160031936011261029f57602090517f00000000000000000000000000000000000000000000000000000000000000008152f35b50503461029f578160031936011261029f576020906015549051908152f35b833461036957806003193601126103695761069861190c565b600580546001600160a01b0319811690915581906001600160a01b03167f8be0079c531659141344cd1fd0a4f28419497f9722a3daafe3b4186f6b6457e08280a380f35b50503461029f57602036600319011261029f5760209181906001600160a01b03610704611660565b16815280845220549051908152f35b50503461029f578160031936011261029f5760209060ff6014541690519015158152f35b50903461024c5760209182600319360112610a21578035610756611baf565b61076460ff60145416611af8565b61076f811515611a39565b3385528484528083862054106109e85760105480156109b65761079182611a98565b92670de0b6b3a76400006107a58585611a85565b04809210610973576107b8833033611938565b301561095c57308752868652848720548381106109305790838892308452838952038683205583600254036002558186518581527fddf252ad1be2c89b69c2b068fc378daa952ba7f163c4a11628f55a4df523b3ef893092a3846008554260125561082584601154611a16565b6011553382528187528582205415610903575b508080809361085d885161084b816115af565b428152888b820152878a820152611b38565b61086981601054611ba2565b6010558181156108fa575b3390f1156108f057817f15819dd2fd9f6418b142e798d08a18d0bf06ea368f4480b7b0d3f75bd966bc489484519283528201527f2dcf9433d75db0d8b1c172641f85e319ffe4ad22e108a95d1847ceb906e5195d833392a26008549151918252602082015242604082015280606081015b0390a1600160065580f35b82513d86823e3d90fd5b506108fc610874565b6013549150811561091d5750600019016013558580610838565b634e487b7160e01b885260119052602487fd5b855163391434e360e21b8152309281019283526020830191909152604082018490529081906060010390fd5b8451634b637e8f60e11b8152908101879052602490fd5b845162461bcd60e51b8152908101869052601f60248201527f496e73756666696369656e74206c697175696469747920666f722073616c65006044820152606490fd5b835162461bcd60e51b8152808401869052600c60248201526b4e6f206c697175696469747960a01b6044820152606490fd5b5082606492519162461bcd60e51b83528201526014602482015273496e73756666696369656e742062616c616e636560601b6044820152fd5b8380fd5b50503461029f578160031936011261029f576020906013549051908152f35b50503461029f57602036600319011261029f5760209181906001600160a01b03610a6c611660565b1681526017845220549051908152f35b50503461029f578160031936011261029f576020906012549051908152f35b8284346103695780600319360112610369578151602091610abb826115e1565b60e06060928381528385820152828682015282848201528260808201528260a08201528360c08201520152825192610af2846115e1565b610afa6116cb565b8452610bca610b07611789565b91848601928352600b5490808701918252600c548588019060ff811615158252608089019060018060a01b03809160081c168252600d549160a08b01928352610b4e611822565b9360c08c0194855260ff600f54169960e08d019a15158b52610b9f87519d8e9d8e52519a8d610b8b6101009d8e6020840152610120830190611620565b915190601f199a8b82850301910152611620565b9751908c015251151560808b0152511660a08901525160c088015251908683030160e0870152611620565b91511515908301520390f35b50503461029f578160031936011261029f576020906010549051908152f35b50503461029f578160031936011261029f57517f00000000000000000000000000000000000000000000000000000000000000006001600160a01b03168152602090f35b5082903461029f57602036600319011261029f5735906016548210156103695750610c63906118bb565b5080546001820154600290920154925190815260208101919091526040810191909152606090f35b50503461029f578160031936011261029f57610ce690610ca96116cb565b90610d26610cb5611789565b91600b54600c54600d5490610cc8611822565b92610cf460ff600f54169786519a8b9a610100808d528c0190611620565b908a820360208c0152611620565b9488015260ff81161515606088015260081c6001600160a01b0316608087015260a086015284820360c0860152611620565b90151560e08301520390f35b50602080600319360112610a21578135610d4a611baf565b610d5860ff60145416611af8565b610d63811515611a39565b60ff600c541615610f4957610d7781611a98565b91670de0b6b3a7640000610d8b8484611a85565b0493843410610f1157308752868252828688205410610ed05750610db0823330611938565b610dd08551610dbe816115af565b42815284838201528387820152611b38565b85600854948460085542601255610de984601154611a16565b601155338252818352838783205414610ebd575b610e0981601054611a16565b601055803411610e86575b5050936108e591837f15819dd2fd9f6418b142e798d08a18d0bf06ea368f4480b7b0d3f75bd966bc489683519283528201527f8fafebcaf9d154343dad25669bfa277f4fbacd7ac6b0c4fed522580e040a0f33823392a251928352602083019190915242604083015281906060820190565b8180610e93819334611ba2565b818115610eb4575b3390f115610eaa578538610e14565b84513d87823e3d90fd5b506108fc610e9b565b610ec8601354611b93565b601355610dfd565b60649186519162461bcd60e51b8352820152601e60248201527f4e6f7420656e6f75676820746f6b656e7320696e2073616c6520706f6f6c00006044820152fd5b60649186519162461bcd60e51b83528201526014602482015273125b9cdd59999a58da595b9d081c185e5b595b9d60621b6044820152fd5b50606492519162461bcd60e51b83528201526013602482015272506174656e74206e6f7420666f722073616c6560681b6044820152fd5b50503461029f578160031936011261029f576020905169d3c21bcecceda10000008152f35b50503461029f578160031936011261029f576020905160128152f35b503461024c57602036600319011261024c57803590610fde61190c565b6010549067016345785d8a000083810180911161108357821115611040575083808361100c82958395611ba2565b6010556005546001600160a01b0316828215611037575bf11561102d575080f35b51903d90823e3d90fd5b506108fc611023565b606490602085519162461bcd60e51b8352820152601d60248201527f496e73756666696369656e7420657863657373206c69717569646974790000006044820152fd5b634e487b7160e01b865260118252602486fd5b508234610369576060366003190112610369576110b1611660565b6110b961167b565b916044359360018060a01b0383168083526001602052868320338452602052868320549160001983106110f5575b6020886103b6898989611938565b86831061115d57811561114657331561112f575082526001602090815286832033845281529186902090859003905582906103b6876110e7565b8751634a1406b160e11b8152908101849052602490fd5b875163e602df0560e01b8152908101849052602490fd5b8751637dc7a0d960e11b8152339181019182526020820193909352604081018790528291506060010390fd5b50503461029f578160031936011261029f576020905167016345785d8a00008152f35b50503461029f578160031936011261029f576020906002549051908152f35b50503461029f578160031936011261029f576020906011549051908152f35b503461024c578160031936011261024c57611203611660565b60243590331561127c576001600160a01b031691821561126557508083602095338152600187528181208582528752205582519081527f8c5be1e5ebec7d5bd14f71427d1e84f3dd0314c0f7b2291e5b200ac8c7c3b925843392a35160018152f35b8351634a1406b160e11b8152908101859052602490fd5b835163e602df0560e01b8152808401869052602490fd5b50503461029f578160031936011261029f57805190826003546112b581611691565b8085529160019180831690811561133e57506001146112e1575b5050506104298261043b9403836115fe565b9450600385527fc2575a0e9e593c00f959f8c92f12db2869c3395a3b0502d05e2516446f71f85b5b8286106113265750505061042982602061043b95820101946112cf565b80546020878701810191909152909501948101611309565b61043b97508693506020925061042994915060ff191682840152151560051b820101946112cf565b849150833461024c578060031936011261024c5783359367ffffffffffffffff908186116115ab57366023870112156115ab57858101359180831161159857602092601f19976113bd858a601f85011601886115fe565b8187523660248383010111611594578188926024879301838a013787010152602435916113e861190c565b855191821161158157506113fd600a54611691565b601f811161151f575b508296601f821160011461148157508086977fc0d21bdc9727f7d39495ff4dd003e22925de85f1e81aacfd7caa71e65034e9df9791611476575b508160011b916000199060031b1c191617600a555b80600b5561146c8351948486958652850190611620565b918301520390a180f35b905085015188611440565b8116600a87527fc65a7bb8d6351c1cf70c95a316cc6a92839c986682d98bc35f958f4883f9d2a890875b8181106115085750907fc0d21bdc9727f7d39495ff4dd003e22925de85f1e81aacfd7caa71e65034e9df97988360019493106114ef575b5050811b01600a55611455565b87015160001960f88460031b161c1916905588806114e2565b878a015183559885019860019092019185016114ab565b600a87527fc65a7bb8d6351c1cf70c95a316cc6a92839c986682d98bc35f958f4883f9d2a8601f830160051c810191858410611577575b601f0160051c01905b81811061156c5750611406565b87815560010161155f565b9091508190611556565b634e487b7160e01b875260419052602486fd5b8780fd5b634e487b7160e01b865260418252602486fd5b8480fd5b6060810190811067ffffffffffffffff8211176115cb57604052565b634e487b7160e01b600052604160045260246000fd5b610100810190811067ffffffffffffffff8211176115cb57604052565b90601f8019910116810190811067ffffffffffffffff8211176115cb57604052565b919082519283825260005b84811061164c575050826000602080949584010152601f8019910116010190565b60208183018101518483018201520161162b565b600435906001600160a01b038216820361167657565b600080fd5b602435906001600160a01b038216820361167657565b90600182811c921680156116c1575b60208310146116ab57565b634e487b7160e01b600052602260045260246000fd5b91607f16916116a0565b60405190600082600954916116df83611691565b808352926001908181169081156117675750600114611708575b50611706925003836115fe565b565b6009600090815291507f6e1540171b6c0c960b71a7020d9f60077f6af931a8bbf590da0223dacf75c7af5b84831061174c57506117069350508101602001386116f9565b81935090816020925483858a01015201910190918592611733565b90506020925061170694915060ff191682840152151560051b820101386116f9565b60405190600082600a549161179d83611691565b8083529260019081811690811561176757506001146117c35750611706925003836115fe565b600a600090815291507fc65a7bb8d6351c1cf70c95a316cc6a92839c986682d98bc35f958f4883f9d2a85b84831061180757506117069350508101602001386116f9565b81935090816020925483858a010152019101909185926117ee565b60405190600082600e549161183683611691565b80835292600190818116908115611767575060011461185c5750611706925003836115fe565b600e600090815291507fbb7b4a454dc3493923482f07822329ed19e8244eff582cc204f8554c3620c3fd5b8483106118a057506117069350508101602001386116f9565b81935090816020925483858a01015201910190918592611887565b6016548110156118f6576003906016600052027fd833147d7dc355ba459fc788f669e58cfaf9dc25ddcd0702e87d69c7b51242890190600090565b634e487b7160e01b600052603260045260246000fd5b6005546001600160a01b0316330361192057565b60405163118cdaa760e01b8152336004820152602490fd5b916001600160a01b038084169283156119fd57169283156119e457600090838252816020526040822054908382106119b2575091604082827fddf252ad1be2c89b69c2b068fc378daa952ba7f163c4a11628f55a4df523b3ef958760209652828652038282205586815220818154019055604051908152a3565b60405163391434e360e21b81526001600160a01b03919091166004820152602481019190915260448101839052606490fd5b60405163ec442f0560e01b815260006004820152602490fd5b604051634b637e8f60e11b815260006004820152602490fd5b91908201809211611a2357565b634e487b7160e01b600052601160045260246000fd5b15611a4057565b60405162461bcd60e51b815260206004820152601d60248201527f416d6f756e74206d7573742062652067726561746572207468616e20300000006044820152606490fd5b81810292918115918404141715611a2357565b8015611aa48115611a39565b670de0b6b3a7640000808302928304141715611a235760155460018101809111611a23578015611ae2576402540be40091048101809111611a235790565b634e487b7160e01b600052601260045260246000fd5b15611aff57565b60405162461bcd60e51b8152602060048201526011602482015270151c98591a5b99c81a5cc81c185d5cd959607a1b6044820152606490fd5b601654680100000000000000008110156115cb57806001611b5c92016016556118bb565b919091611b7d57604081600292518455602081015160018501550151910155565b634e487b7160e01b600052600060045260246000fd5b6000198114611a235760010190565b91908203918211611a2357565b600260065414611bc0576002600655565b604051633ee5aeb560e01b8152600490fd5b67ffffffffffffffff81116115cb5760051b60200190565b80518210156118f65760209160051b01019056fea2646970667358221220376fe9f696829a61b832158676d642fe35a9f0da2419a884298d60c03ebfc67964736f6c63430008140033bb7b4a454dc3493923482f07822329ed19e8244eff582cc204f8554c3620c3fdc65a7bb8d6351c1cf70c95a316cc6a92839c986682d98bc35f958f4883f9d2a86e1540171b6c0c960b71a7020d9f60077f6af931a8bbf590da0223dacf75c7af","opcodes":"PUSH1 0xC0 DUP1 PUSH1 0x40 MSTORE PUSH3 0x28FB DUP1 CODESIZE SUB DUP1 SWAP2 PUSH3 0x1A DUP3 DUP6 PUSH3 0xB0D JUMP JUMPDEST DUP4 CODECOPY DUP2 ADD PUSH1 0xA0 DUP3 DUP3 SUB SLT PUSH3 0xB08 JUMPI DUP2 MLOAD PUSH1 0x1 PUSH1 0x1 PUSH1 0x40 SHL SUB DUP2 GT PUSH3 0xB08 JUMPI DUP2 PUSH3 0x48 SWAP2 DUP5 ADD PUSH3 0xB31 JUMP JUMPDEST PUSH1 0x20 DUP4 ADD MLOAD SWAP1 SWAP2 PUSH1 0x1 PUSH1 0x1 PUSH1 0x40 SHL SUB DUP3 GT PUSH3 0xB08 JUMPI PUSH3 0x6B SWAP2 DUP5 ADD PUSH3 0xB31 JUMP JUMPDEST SWAP2 PUSH3 0x7A PUSH1 0x40 DUP3 ADD PUSH3 0xBA8 JUMP JUMPDEST SWAP2 PUSH3 0x8E PUSH1 0x80 PUSH1 0x60 DUP5 ADD MLOAD SWAP4 ADD PUSH3 0xBA8 JUMP JUMPDEST DUP2 MLOAD SWAP1 SWAP2 PUSH1 0x1 PUSH1 0x1 PUSH1 0x40 SHL SUB DUP3 GT PUSH3 0x5B0 JUMPI PUSH1 0x3 SLOAD SWAP1 PUSH1 0x1 DUP3 DUP2 SHR SWAP3 AND DUP1 ISZERO PUSH3 0xAFD JUMPI JUMPDEST PUSH1 0x20 DUP4 LT EQ PUSH3 0x58F JUMPI DUP2 PUSH1 0x1F DUP5 SWAP4 GT PUSH3 0xA88 JUMPI JUMPDEST POP PUSH1 0x20 SWAP1 PUSH1 0x1F DUP4 GT PUSH1 0x1 EQ PUSH3 0x9FD JUMPI PUSH1 0x0 SWAP3 PUSH3 0x9F1 JUMPI JUMPDEST POP POP DUP2 PUSH1 0x1 SHL SWAP2 PUSH1 0x0 NOT SWAP1 PUSH1 0x3 SHL SHR NOT AND OR PUSH1 0x3 SSTORE JUMPDEST DUP4 MLOAD PUSH1 0x1 PUSH1 0x1 PUSH1 0x40 SHL SUB DUP2 GT PUSH3 0x5B0 JUMPI PUSH1 0x4 SLOAD PUSH1 0x1 DUP2 DUP2 SHR SWAP2 AND DUP1 ISZERO PUSH3 0x9E6 JUMPI JUMPDEST PUSH1 0x20 DUP3 LT EQ PUSH3 0x58F JUMPI PUSH1 0x1F DUP2 GT PUSH3 0x97C JUMPI JUMPDEST POP PUSH1 0x20 SWAP5 PUSH1 0x1F DUP3 GT PUSH1 0x1 EQ PUSH3 0x90F JUMPI SWAP5 DUP2 SWAP3 SWAP4 SWAP5 SWAP6 PUSH1 0x0 SWAP3 PUSH3 0x903 JUMPI JUMPDEST POP POP DUP2 PUSH1 0x1 SHL SWAP2 PUSH1 0x0 NOT SWAP1 PUSH1 0x3 SHL SHR NOT AND OR PUSH1 0x4 SSTORE JUMPDEST PUSH1 0x1 PUSH1 0x1 PUSH1 0xA0 SHL SUB DUP2 AND DUP1 ISZERO PUSH3 0x8EA JUMPI PUSH1 0x5 DUP1 SLOAD PUSH1 0x1 PUSH1 0x1 PUSH1 0xA0 SHL SUB NOT DUP2 AND DUP4 OR SWAP1 SWAP2 SSTORE PUSH1 0x40 MLOAD SWAP2 SWAP1 PUSH1 0x1 PUSH1 0x1 PUSH1 0xA0 SHL SUB AND PUSH32 0x8BE0079C531659141344CD1FD0A4F28419497F9722A3DAAFE3B4186F6B6457E0 PUSH1 0x0 DUP1 LOG3 PUSH1 0x1 PUSH1 0x6 SSTORE PUSH8 0x16345785D8A0000 CALLVALUE LT PUSH3 0x8A8 JUMPI POP SWAP1 PUSH3 0x216 PUSH1 0x0 SWAP3 PUSH5 0x2540BE400 DUP1 PUSH1 0x7 SSTORE PUSH1 0x8 SSTORE DUP5 PUSH1 0x80 MSTORE DUP3 PUSH1 0xA0 MSTORE PUSH1 0x1 PUSH1 0xFF NOT PUSH1 0x14 SLOAD AND OR PUSH1 0x14 SSTORE TIMESTAMP PUSH1 0x12 SSTORE CALLVALUE PUSH1 0x10 SSTORE PUSH3 0x210 ADDRESS PUSH3 0xBCB JUMP JUMPDEST PUSH3 0xBCB JUMP JUMPDEST PUSH10 0xD3C21BCECCEDA1000000 PUSH1 0x15 SSTORE PUSH1 0x40 MLOAD PUSH4 0x138DA1AF PUSH1 0xE3 SHL DUP2 MSTORE PUSH1 0x4 DUP2 ADD SWAP2 SWAP1 SWAP2 MSTORE SWAP2 DUP3 SWAP1 PUSH1 0x24 SWAP1 DUP3 SWAP1 PUSH1 0x1 PUSH1 0x1 PUSH1 0xA0 SHL SUB AND GAS STATICCALL DUP1 ISZERO PUSH3 0x89C JUMPI PUSH1 0x0 SWAP1 DUP2 SWAP3 DUP3 DUP4 DUP5 SWAP1 DUP6 SWAP3 DUP7 SWAP5 DUP8 SWAP7 PUSH3 0x7B2 JUMPI JUMPDEST POP PUSH1 0x40 MLOAD SWAP8 PUSH1 0x1 PUSH1 0x1 PUSH1 0x40 SHL SUB PUSH2 0x100 DUP11 ADD SWAP1 DUP2 GT SWAP1 DUP11 GT OR PUSH3 0x5B0 JUMPI PUSH2 0x100 DUP10 ADD PUSH1 0x40 SWAP1 DUP2 MSTORE DUP9 DUP11 MSTORE PUSH1 0x20 DUP11 ADD SWAP2 SWAP1 SWAP2 MSTORE DUP9 ADD MSTORE ISZERO ISZERO PUSH1 0x60 DUP8 ADD MSTORE PUSH1 0x1 PUSH1 0x1 PUSH1 0xA0 SHL SUB AND PUSH1 0x80 DUP7 ADD MSTORE PUSH1 0xA0 DUP6 ADD MSTORE PUSH1 0xC0 DUP5 ADD MSTORE ISZERO ISZERO PUSH1 0xE0 DUP4 ADD MSTORE DUP1 MLOAD SWAP1 PUSH1 0x1 PUSH1 0x1 PUSH1 0x40 SHL SUB DUP3 GT PUSH3 0x5B0 JUMPI PUSH1 0x9 SLOAD SWAP1 PUSH1 0x1 DUP3 DUP2 SHR SWAP3 AND DUP1 ISZERO PUSH3 0x7A7 JUMPI JUMPDEST PUSH1 0x20 DUP4 LT EQ PUSH3 0x58F JUMPI DUP2 PUSH1 0x1F DUP5 SWAP4 GT PUSH3 0x746 JUMPI JUMPDEST POP PUSH1 0x20 SWAP1 PUSH1 0x1F DUP4 GT PUSH1 0x1 EQ PUSH3 0x6C8 JUMPI PUSH1 0x0 SWAP3 PUSH3 0x6BC JUMPI JUMPDEST POP POP DUP2 PUSH1 0x1 SHL SWAP2 PUSH1 0x0 NOT SWAP1 PUSH1 0x3 SHL SHR NOT AND OR PUSH1 0x9 SSTORE JUMPDEST PUSH1 0x20 DUP2 ADD MLOAD DUP1 MLOAD SWAP1 PUSH1 0x1 PUSH1 0x1 PUSH1 0x40 SHL SUB DUP3 GT PUSH3 0x5B0 JUMPI PUSH1 0xA SLOAD SWAP1 PUSH1 0x1 DUP3 DUP2 SHR SWAP3 AND DUP1 ISZERO PUSH3 0x6B1 JUMPI JUMPDEST PUSH1 0x20 DUP4 LT EQ PUSH3 0x58F JUMPI DUP2 PUSH1 0x1F DUP5 SWAP4 GT PUSH3 0x650 JUMPI JUMPDEST POP PUSH1 0x20 SWAP1 PUSH1 0x1F DUP4 GT PUSH1 0x1 EQ PUSH3 0x5D2 JUMPI PUSH1 0x0 SWAP3 PUSH3 0x5C6 JUMPI JUMPDEST POP POP DUP2 PUSH1 0x1 SHL SWAP2 PUSH1 0x0 NOT SWAP1 PUSH1 0x3 SHL SHR NOT AND OR PUSH1 0xA SSTORE JUMPDEST PUSH1 0x40 DUP2 ADD MLOAD PUSH1 0xB SSTORE PUSH1 0x60 DUP2 ADD MLOAD ISZERO ISZERO PUSH1 0xC SLOAD PUSH1 0xFF PUSH2 0x100 PUSH1 0x1 PUSH1 0xA8 SHL SUB PUSH1 0x80 DUP6 ADD MLOAD PUSH1 0x8 SHL AND SWAP3 AND SWAP1 PUSH1 0x1 DUP1 PUSH1 0xA8 SHL SUB NOT AND OR OR PUSH1 0xC SSTORE PUSH1 0xA0 DUP2 ADD MLOAD PUSH1 0xD SSTORE PUSH1 0xC0 DUP2 ADD MLOAD SWAP1 DUP2 MLOAD SWAP2 PUSH1 0x1 DUP1 PUSH1 0x40 SHL SUB DUP4 GT PUSH3 0x5B0 JUMPI PUSH1 0xE SLOAD PUSH1 0x1 DUP2 DUP2 SHR SWAP2 AND DUP1 ISZERO PUSH3 0x5A5 JUMPI JUMPDEST PUSH1 0x20 DUP3 LT EQ PUSH3 0x58F JUMPI PUSH1 0x1F DUP2 GT PUSH3 0x536 JUMPI JUMPDEST POP PUSH1 0x20 SWAP1 PUSH1 0x1F DUP5 GT PUSH1 0x1 EQ PUSH3 0x4B9 JUMPI PUSH1 0xE0 SWAP4 SWAP2 PUSH1 0x0 SWAP2 DUP4 PUSH3 0x4AD JUMPI JUMPDEST POP POP DUP2 PUSH1 0x1 SHL SWAP2 PUSH1 0x0 NOT SWAP1 PUSH1 0x3 SHL SHR NOT AND OR PUSH1 0xE SSTORE JUMPDEST ADD MLOAD ISZERO ISZERO PUSH1 0xFF DUP1 NOT PUSH1 0xF SLOAD AND SWAP2 AND OR PUSH1 0xF SSTORE PUSH1 0x40 MLOAD CALLVALUE DUP2 MSTORE PUSH32 0xC17CEA59C2955CB181B03393209566960365771DBBA9DC3D510180E7CB312088 PUSH1 0x20 CALLER SWAP3 LOG2 PUSH1 0x40 MLOAD PUSH2 0x1C34 SWAP1 DUP2 PUSH3 0xC67 DUP3 CODECOPY PUSH1 0x80 MLOAD DUP2 PUSH2 0xC0A ADD MSTORE PUSH1 0xA0 MLOAD DUP2 PUSH2 0x63D ADD MSTORE RETURN JUMPDEST ADD MLOAD SWAP1 POP CODESIZE DUP1 PUSH3 0x437 JUMP JUMPDEST PUSH1 0xE PUSH1 0x0 SWAP1 DUP2 MSTORE PUSH1 0x0 DUP1 MLOAD PUSH1 0x20 PUSH3 0x289B DUP4 CODECOPY DUP2 MLOAD SWAP2 MSTORE SWAP3 SWAP2 SWAP1 PUSH1 0x1F NOT DUP7 AND SWAP1 JUMPDEST DUP2 DUP2 LT PUSH3 0x51D JUMPI POP SWAP2 PUSH1 0x1 SWAP4 SWAP2 DUP7 PUSH1 0xE0 SWAP8 SWAP5 LT PUSH3 0x503 JUMPI JUMPDEST POP POP POP DUP2 SHL ADD PUSH1 0xE SSTORE PUSH3 0x44D JUMP JUMPDEST ADD MLOAD PUSH1 0x0 NOT PUSH1 0xF8 DUP5 PUSH1 0x3 SHL AND SHR NOT AND SWAP1 SSTORE CODESIZE DUP1 DUP1 PUSH3 0x4F4 JUMP JUMPDEST SWAP3 SWAP4 PUSH1 0x20 PUSH1 0x1 DUP2 SWAP3 DUP8 DUP7 ADD MLOAD DUP2 SSTORE ADD SWAP6 ADD SWAP4 ADD PUSH3 0x4DA JUMP JUMPDEST PUSH1 0xE PUSH1 0x0 MSTORE PUSH1 0x0 DUP1 MLOAD PUSH1 0x20 PUSH3 0x289B DUP4 CODECOPY DUP2 MLOAD SWAP2 MSTORE PUSH1 0x1F DUP6 ADD PUSH1 0x5 SHR DUP2 ADD SWAP2 PUSH1 0x20 DUP7 LT PUSH3 0x584 JUMPI JUMPDEST PUSH1 0x1F ADD PUSH1 0x5 SHR ADD SWAP1 JUMPDEST DUP2 DUP2 LT PUSH3 0x577 JUMPI POP PUSH3 0x419 JUMP JUMPDEST PUSH1 0x0 DUP2 SSTORE PUSH1 0x1 ADD PUSH3 0x568 JUMP JUMPDEST SWAP1 SWAP2 POP DUP2 SWAP1 PUSH3 0x55F JUMP JUMPDEST PUSH4 0x4E487B71 PUSH1 0xE0 SHL PUSH1 0x0 MSTORE PUSH1 0x22 PUSH1 0x4 MSTORE PUSH1 0x24 PUSH1 0x0 REVERT JUMPDEST SWAP1 PUSH1 0x7F AND SWAP1 PUSH3 0x405 JUMP JUMPDEST PUSH4 0x4E487B71 PUSH1 0xE0 SHL PUSH1 0x0 MSTORE PUSH1 0x41 PUSH1 0x4 MSTORE PUSH1 0x24 PUSH1 0x0 REVERT JUMPDEST ADD MLOAD SWAP1 POP CODESIZE DUP1 PUSH3 0x387 JUMP JUMPDEST PUSH1 0xA PUSH1 0x0 SWAP1 DUP2 MSTORE SWAP4 POP PUSH1 0x0 DUP1 MLOAD PUSH1 0x20 PUSH3 0x28BB DUP4 CODECOPY DUP2 MLOAD SWAP2 MSTORE SWAP2 SWAP1 JUMPDEST PUSH1 0x1F NOT DUP5 AND DUP6 LT PUSH3 0x634 JUMPI PUSH1 0x1 SWAP5 POP DUP4 PUSH1 0x1F NOT DUP2 AND LT PUSH3 0x61A JUMPI JUMPDEST POP POP POP DUP2 SHL ADD PUSH1 0xA SSTORE PUSH3 0x39D JUMP JUMPDEST ADD MLOAD PUSH1 0x0 NOT PUSH1 0xF8 DUP5 PUSH1 0x3 SHL AND SHR NOT AND SWAP1 SSTORE CODESIZE DUP1 DUP1 PUSH3 0x60B JUMP JUMPDEST DUP2 DUP2 ADD MLOAD DUP4 SSTORE PUSH1 0x20 SWAP5 DUP6 ADD SWAP5 PUSH1 0x1 SWAP1 SWAP4 ADD SWAP3 SWAP1 SWAP2 ADD SWAP1 PUSH3 0x5EE JUMP JUMPDEST PUSH1 0xA PUSH1 0x0 MSTORE SWAP1 SWAP2 POP PUSH1 0x0 DUP1 MLOAD PUSH1 0x20 PUSH3 0x28BB DUP4 CODECOPY DUP2 MLOAD SWAP2 MSTORE PUSH1 0x1F DUP5 ADD PUSH1 0x5 SHR DUP2 ADD PUSH1 0x20 DUP6 LT PUSH3 0x6A9 JUMPI JUMPDEST SWAP1 DUP5 SWAP4 SWAP3 SWAP2 JUMPDEST PUSH1 0x1F DUP4 ADD PUSH1 0x5 SHR DUP3 ADD DUP2 LT PUSH3 0x699 JUMPI POP POP PUSH3 0x36E JUMP JUMPDEST PUSH1 0x0 DUP2 SSTORE DUP6 SWAP5 POP PUSH1 0x1 ADD PUSH3 0x681 JUMP JUMPDEST POP DUP1 PUSH3 0x67B JUMP JUMPDEST SWAP2 PUSH1 0x7F AND SWAP2 PUSH3 0x358 JUMP JUMPDEST ADD MLOAD SWAP1 POP CODESIZE DUP1 PUSH3 0x318 JUMP JUMPDEST PUSH1 0x9 PUSH1 0x0 SWAP1 DUP2 MSTORE SWAP4 POP PUSH1 0x0 DUP1 MLOAD PUSH1 0x20 PUSH3 0x28DB DUP4 CODECOPY DUP2 MLOAD SWAP2 MSTORE SWAP2 SWAP1 JUMPDEST PUSH1 0x1F NOT DUP5 AND DUP6 LT PUSH3 0x72A JUMPI PUSH1 0x1 SWAP5 POP DUP4 PUSH1 0x1F NOT DUP2 AND LT PUSH3 0x710 JUMPI JUMPDEST POP POP POP DUP2 SHL ADD PUSH1 0x9 SSTORE PUSH3 0x32E JUMP JUMPDEST ADD MLOAD PUSH1 0x0 NOT PUSH1 0xF8 DUP5 PUSH1 0x3 SHL AND SHR NOT AND SWAP1 SSTORE CODESIZE DUP1 DUP1 PUSH3 0x701 JUMP JUMPDEST DUP2 DUP2 ADD MLOAD DUP4 SSTORE PUSH1 0x20 SWAP5 DUP6 ADD SWAP5 PUSH1 0x1 SWAP1 SWAP4 ADD SWAP3 SWAP1 SWAP2 ADD SWAP1 PUSH3 0x6E4 JUMP JUMPDEST PUSH1 0x9 PUSH1 0x0 MSTORE SWAP1 SWAP2 POP PUSH1 0x0 DUP1 MLOAD PUSH1 0x20 PUSH3 0x28DB DUP4 CODECOPY DUP2 MLOAD SWAP2 MSTORE PUSH1 0x1F DUP5 ADD PUSH1 0x5 SHR DUP2 ADD PUSH1 0x20 DUP6 LT PUSH3 0x79F JUMPI JUMPDEST SWAP1 DUP5 SWAP4 SWAP3 SWAP2 JUMPDEST PUSH1 0x1F DUP4 ADD PUSH1 0x5 SHR DUP3 ADD DUP2 LT PUSH3 0x78F JUMPI POP POP PUSH3 0x2FF JUMP JUMPDEST PUSH1 0x0 DUP2 SSTORE DUP6 SWAP5 POP PUSH1 0x1 ADD PUSH3 0x777 JUMP JUMPDEST POP DUP1 PUSH3 0x771 JUMP JUMPDEST SWAP2 PUSH1 0x7F AND SWAP2 PUSH3 0x2E9 JUMP JUMPDEST SWAP7 SWAP8 POP POP POP POP POP POP POP RETURNDATASIZE SWAP2 DUP3 DUP2 DUP4 RETURNDATACOPY PUSH3 0x7CD DUP4 DUP4 PUSH3 0xB0D JUMP JUMPDEST PUSH2 0x100 DUP3 DUP5 DUP2 ADD SUB SLT PUSH3 0x891 JUMPI DUP2 MLOAD PUSH1 0x1 PUSH1 0x1 PUSH1 0x40 SHL SUB DUP2 GT PUSH3 0x898 JUMPI PUSH3 0x7FD SWAP1 DUP5 DUP5 ADD SWAP1 DUP5 ADD PUSH3 0xB31 JUMP JUMPDEST PUSH1 0x20 DUP4 ADD MLOAD PUSH1 0x1 PUSH1 0x1 PUSH1 0x40 SHL SUB DUP2 GT PUSH3 0x894 JUMPI PUSH3 0x822 SWAP1 DUP6 DUP6 ADD SWAP1 DUP6 ADD PUSH3 0xB31 JUMP JUMPDEST SWAP3 PUSH1 0x40 DUP2 ADD MLOAD SWAP5 PUSH3 0x837 PUSH1 0x60 DUP4 ADD PUSH3 0xBBD JUMP JUMPDEST SWAP4 PUSH3 0x846 PUSH1 0x80 DUP5 ADD PUSH3 0xBA8 JUMP JUMPDEST SWAP1 PUSH1 0xA0 DUP5 ADD MLOAD SWAP3 PUSH1 0xC0 DUP6 ADD MLOAD SWAP2 PUSH1 0x1 DUP1 PUSH1 0x40 SHL SUB DUP4 GT PUSH3 0x891 JUMPI POP PUSH3 0x879 PUSH3 0x881 SWAP3 PUSH1 0xE0 SWAP3 DUP8 ADD SWAP1 DUP8 ADD PUSH3 0xB31 JUMP JUMPDEST SWAP5 ADD PUSH3 0xBBD JUMP JUMPDEST SWAP4 SWAP6 SWAP7 SWAP5 SWAP1 SWAP2 SWAP3 SWAP4 SWAP5 CODESIZE PUSH3 0x268 JUMP JUMPDEST DUP1 REVERT JUMPDEST DUP3 DUP1 REVERT JUMPDEST POP DUP1 REVERT JUMPDEST PUSH1 0x40 MLOAD RETURNDATASIZE PUSH1 0x0 DUP3 RETURNDATACOPY RETURNDATASIZE SWAP1 REVERT JUMPDEST PUSH3 0x461BCD PUSH1 0xE5 SHL DUP2 MSTORE PUSH1 0x20 PUSH1 0x4 DUP3 ADD MSTORE PUSH1 0x1E PUSH1 0x24 DUP3 ADD MSTORE PUSH32 0x496E73756666696369656E7420696E697469616C206C69717569646974790000 PUSH1 0x44 DUP3 ADD MSTORE PUSH1 0x64 SWAP1 REVERT JUMPDEST PUSH1 0x40 MLOAD PUSH4 0x1E4FBDF7 PUSH1 0xE0 SHL DUP2 MSTORE PUSH1 0x0 PUSH1 0x4 DUP3 ADD MSTORE PUSH1 0x24 SWAP1 REVERT JUMPDEST ADD MLOAD SWAP1 POP CODESIZE DUP1 PUSH3 0x14F JUMP JUMPDEST PUSH1 0x1F NOT DUP3 AND SWAP6 PUSH1 0x4 PUSH1 0x0 MSTORE PUSH1 0x20 PUSH1 0x0 KECCAK256 SWAP2 PUSH1 0x0 JUMPDEST DUP9 DUP2 LT PUSH3 0x963 JUMPI POP DUP4 PUSH1 0x1 SWAP6 SWAP7 SWAP8 SWAP9 LT PUSH3 0x949 JUMPI JUMPDEST POP POP POP DUP2 SHL ADD PUSH1 0x4 SSTORE PUSH3 0x165 JUMP JUMPDEST ADD MLOAD PUSH1 0x0 NOT PUSH1 0xF8 DUP5 PUSH1 0x3 SHL AND SHR NOT AND SWAP1 SSTORE CODESIZE DUP1 DUP1 PUSH3 0x93A JUMP JUMPDEST SWAP2 SWAP3 PUSH1 0x20 PUSH1 0x1 DUP2 SWAP3 DUP7 DUP6 ADD MLOAD DUP2 SSTORE ADD SWAP5 ADD SWAP3 ADD PUSH3 0x923 JUMP JUMPDEST PUSH1 0x4 PUSH1 0x0 MSTORE PUSH32 0x8A35ACFBC15FF81A39AE7D344FD709F28E8600B4AA8C65C6B64BFE7FE36BD19B PUSH1 0x1F DUP4 ADD PUSH1 0x5 SHR DUP2 ADD SWAP2 PUSH1 0x20 DUP5 LT PUSH3 0x9DB JUMPI JUMPDEST PUSH1 0x1F ADD PUSH1 0x5 SHR ADD SWAP1 JUMPDEST DUP2 DUP2 LT PUSH3 0x9CE JUMPI POP PUSH3 0x130 JUMP JUMPDEST PUSH1 0x0 DUP2 SSTORE PUSH1 0x1 ADD PUSH3 0x9BF JUMP JUMPDEST SWAP1 SWAP2 POP DUP2 SWAP1 PUSH3 0x9B6 JUMP JUMPDEST SWAP1 PUSH1 0x7F AND SWAP1 PUSH3 0x11C JUMP JUMPDEST ADD MLOAD SWAP1 POP CODESIZE DUP1 PUSH3 0xE3 JUMP JUMPDEST PUSH1 0x3 PUSH1 0x0 SWAP1 DUP2 MSTORE PUSH32 0xC2575A0E9E593C00F959F8C92F12DB2869C3395A3B0502D05E2516446F71F85B SWAP4 POP PUSH1 0x1F NOT DUP6 AND SWAP1 JUMPDEST DUP2 DUP2 LT PUSH3 0xA6F JUMPI POP SWAP1 DUP5 PUSH1 0x1 SWAP6 SWAP5 SWAP4 SWAP3 LT PUSH3 0xA55 JUMPI JUMPDEST POP POP POP DUP2 SHL ADD PUSH1 0x3 SSTORE PUSH3 0xF9 JUMP JUMPDEST ADD MLOAD PUSH1 0x0 NOT PUSH1 0xF8 DUP5 PUSH1 0x3 SHL AND SHR NOT AND SWAP1 SSTORE CODESIZE DUP1 DUP1 PUSH3 0xA46 JUMP JUMPDEST SWAP3 SWAP4 PUSH1 0x20 PUSH1 0x1 DUP2 SWAP3 DUP8 DUP7 ADD MLOAD DUP2 SSTORE ADD SWAP6 ADD SWAP4 ADD PUSH3 0xA2E JUMP JUMPDEST PUSH1 0x3 PUSH1 0x0 MSTORE SWAP1 SWAP2 POP PUSH32 0xC2575A0E9E593C00F959F8C92F12DB2869C3395A3B0502D05E2516446F71F85B PUSH1 0x1F DUP5 ADD PUSH1 0x5 SHR DUP2 ADD SWAP2 PUSH1 0x20 DUP6 LT PUSH3 0xAF2 JUMPI JUMPDEST SWAP1 PUSH1 0x1F DUP6 SWAP5 SWAP4 SWAP3 ADD PUSH1 0x5 SHR ADD SWAP1 JUMPDEST DUP2 DUP2 LT PUSH3 0xAE2 JUMPI POP PUSH3 0xCA JUMP JUMPDEST PUSH1 0x0 DUP2 SSTORE DUP5 SWAP4 POP PUSH1 0x1 ADD PUSH3 0xAD3 JUMP JUMPDEST SWAP1 SWAP2 POP DUP2 SWAP1 PUSH3 0xAC5 JUMP JUMPDEST SWAP2 PUSH1 0x7F AND SWAP2 PUSH3 0xB4 JUMP JUMPDEST PUSH1 0x0 DUP1 REVERT JUMPDEST PUSH1 0x1F SWAP1 SWAP2 ADD PUSH1 0x1F NOT AND DUP2 ADD SWAP1 PUSH1 0x1 PUSH1 0x1 PUSH1 0x40 SHL SUB DUP3 GT SWAP1 DUP3 LT OR PUSH3 0x5B0 JUMPI PUSH1 0x40 MSTORE JUMP JUMPDEST SWAP2 SWAP1 DUP1 PUSH1 0x1F DUP5 ADD SLT ISZERO PUSH3 0xB08 JUMPI DUP3 MLOAD SWAP1 PUSH1 0x1 PUSH1 0x1 PUSH1 0x40 SHL SUB DUP3 GT PUSH3 0x5B0 JUMPI PUSH1 0x40 MLOAD SWAP2 PUSH1 0x20 SWAP2 PUSH3 0xB6D PUSH1 0x1F DUP4 ADD PUSH1 0x1F NOT AND DUP5 ADD DUP6 PUSH3 0xB0D JUMP JUMPDEST DUP2 DUP5 MSTORE DUP3 DUP3 DUP8 ADD ADD GT PUSH3 0xB08 JUMPI PUSH1 0x0 JUMPDEST DUP2 DUP2 LT PUSH3 0xB94 JUMPI POP DUP3 PUSH1 0x0 SWAP4 SWAP5 SWAP6 POP ADD ADD MSTORE SWAP1 JUMP JUMPDEST DUP6 DUP2 ADD DUP4 ADD MLOAD DUP5 DUP3 ADD DUP5 ADD MSTORE DUP3 ADD PUSH3 0xB7E JUMP JUMPDEST MLOAD SWAP1 PUSH1 0x1 PUSH1 0x1 PUSH1 0xA0 SHL SUB DUP3 AND DUP3 SUB PUSH3 0xB08 JUMPI JUMP JUMPDEST MLOAD SWAP1 DUP2 ISZERO ISZERO DUP3 SUB PUSH3 0xB08 JUMPI JUMP JUMPDEST PUSH1 0x1 PUSH1 0x1 PUSH1 0xA0 SHL SUB AND DUP1 ISZERO PUSH3 0xC4D JUMPI PUSH1 0x2 SLOAD PUSH10 0x69E10DE76676D0800000 DUP1 DUP3 ADD DUP1 SWAP3 GT PUSH3 0xC37 JUMPI PUSH1 0x20 PUSH32 0xDDF252AD1BE2C89B69C2B068FC378DAA952BA7F163C4A11628F55A4DF523B3EF SWAP2 PUSH1 0x0 SWAP4 PUSH1 0x2 SSTORE DUP5 DUP5 MSTORE DUP4 DUP3 MSTORE PUSH1 0x40 DUP5 KECCAK256 DUP2 DUP2 SLOAD ADD SWAP1 SSTORE PUSH1 0x40 MLOAD SWAP1 DUP2 MSTORE LOG3 JUMP JUMPDEST PUSH4 0x4E487B71 PUSH1 0xE0 SHL PUSH1 0x0 MSTORE PUSH1 0x11 PUSH1 0x4 MSTORE PUSH1 0x24 PUSH1 0x0 REVERT JUMPDEST PUSH1 0x40 MLOAD PUSH4 0xEC442F05 PUSH1 0xE0 SHL DUP2 MSTORE PUSH1 0x0 PUSH1 0x4 DUP3 ADD MSTORE PUSH1 0x24 SWAP1 REVERT INVALID PUSH1 0x80 PUSH1 0x40 DUP2 DUP2 MSTORE PUSH1 0x4 DUP1 CALLDATASIZE LT ISZERO PUSH2 0x1E JUMPI JUMPDEST POP POP POP CALLDATASIZE ISZERO PUSH2 0x1C JUMPI STOP JUMPDEST STOP JUMPDEST PUSH1 0x0 SWAP3 DUP4 CALLDATALOAD PUSH1 0xE0 SHR SWAP1 DUP2 PUSH4 0x45FA779 EQ PUSH2 0x1366 JUMPI POP DUP1 PUSH4 0x6FDDE03 EQ PUSH2 0x1293 JUMPI DUP1 PUSH4 0x95EA7B3 EQ PUSH2 0x11EA JUMPI DUP1 PUSH4 0x140B9D84 EQ PUSH2 0x11CB JUMPI DUP1 PUSH4 0x18160DDD EQ PUSH2 0x11AC JUMPI DUP1 PUSH4 0x21B77D63 EQ PUSH2 0x1189 JUMPI DUP1 PUSH4 0x23B872DD EQ PUSH2 0x1096 JUMPI DUP1 PUSH4 0x2D9E3F62 EQ PUSH2 0xFC1 JUMPI DUP1 PUSH4 0x313CE567 EQ PUSH2 0xFA5 JUMPI DUP1 PUSH4 0x32CB6B0C EQ PUSH2 0xF80 JUMPI DUP1 PUSH4 0x3610724E EQ PUSH2 0xD32 JUMPI DUP1 PUSH4 0x52DC0F96 EQ PUSH2 0xC8B JUMPI DUP1 PUSH4 0x5B0C5DBD EQ PUSH2 0xC39 JUMPI DUP1 PUSH4 0x6485B6BB EQ PUSH2 0xBF5 JUMPI DUP1 PUSH4 0x665A11CA EQ PUSH2 0xBD6 JUMPI DUP1 PUSH4 0x67BF602B EQ PUSH2 0xA9B JUMPI DUP1 PUSH4 0x6949FAEB EQ PUSH2 0xA7C JUMPI DUP1 PUSH4 0x6A6AE606 EQ PUSH2 0xA44 JUMPI DUP1 PUSH4 0x6B4ED21B EQ PUSH2 0xA25 JUMPI DUP1 PUSH4 0x6C11BCD3 EQ PUSH2 0x737 JUMPI DUP1 PUSH4 0x6E9087DB EQ PUSH2 0x713 JUMPI DUP1 PUSH4 0x70A08231 EQ PUSH2 0x6DC JUMPI DUP1 PUSH4 0x715018A6 EQ PUSH2 0x67F JUMPI DUP1 PUSH4 0x80C08A5D EQ PUSH2 0x660 JUMPI DUP1 PUSH4 0x8654AA34 EQ PUSH2 0x625 JUMPI DUP1 PUSH4 0x873C5E60 EQ PUSH2 0x4EF JUMPI DUP1 PUSH4 0x8DA5CB5B EQ PUSH2 0x4C6 JUMPI DUP1 PUSH4 0x95D89B41 EQ PUSH2 0x3DC JUMPI DUP1 PUSH4 0x9D1B464A EQ PUSH2 0x3BD JUMPI DUP1 PUSH4 0xA9059CBB EQ PUSH2 0x38C JUMPI DUP1 PUSH4 0xAD9F20A6 EQ PUSH2 0x36C JUMPI DUP1 PUSH4 0xAE104265 EQ PUSH2 0x342 JUMPI DUP1 PUSH4 0xC7876EA4 EQ PUSH2 0x323 JUMPI DUP1 PUSH4 0xD3BC9E2A EQ PUSH2 0x2EC JUMPI DUP1 PUSH4 0xDD62ED3E EQ PUSH2 0x2A3 JUMPI DUP1 PUSH4 0xF0D673F3 EQ PUSH2 0x250 JUMPI PUSH4 0xF2FDE38B SUB PUSH2 0x11 JUMPI CALLVALUE PUSH2 0x24C JUMPI PUSH1 0x20 CALLDATASIZE PUSH1 0x3 NOT ADD SLT PUSH2 0x24C JUMPI PUSH2 0x1D7 PUSH2 0x1660 JUMP JUMPDEST SWAP1 PUSH2 0x1E0 PUSH2 0x190C JUMP JUMPDEST PUSH1 0x1 PUSH1 0x1 PUSH1 0xA0 SHL SUB SWAP2 DUP3 AND SWAP3 DUP4 ISZERO PUSH2 0x236 JUMPI POP POP PUSH1 0x5 SLOAD DUP3 PUSH12 0xFFFFFFFFFFFFFFFFFFFFFFFF PUSH1 0xA0 SHL DUP3 AND OR PUSH1 0x5 SSTORE AND PUSH32 0x8BE0079C531659141344CD1FD0A4F28419497F9722A3DAAFE3B4186F6B6457E0 DUP4 DUP1 LOG3 DUP1 RETURN JUMPDEST MLOAD PUSH4 0x1E4FBDF7 PUSH1 0xE0 SHL DUP2 MSTORE SWAP1 DUP2 ADD DUP5 SWAP1 MSTORE PUSH1 0x24 SWAP1 REVERT JUMPDEST DUP3 DUP1 REVERT JUMPDEST POP POP CALLVALUE PUSH2 0x29F JUMPI DUP2 PUSH1 0x3 NOT CALLDATASIZE ADD SLT PUSH2 0x29F JUMPI PUSH1 0xC0 SWAP1 PUSH1 0x8 SLOAD SWAP1 PUSH1 0x7 SLOAD SWAP1 PUSH1 0x10 SLOAD PUSH1 0x11 SLOAD SWAP1 PUSH1 0x13 SLOAD SWAP3 PUSH1 0xFF PUSH1 0x14 SLOAD AND SWAP5 DUP2 MLOAD SWAP7 DUP8 MSTORE PUSH1 0x20 DUP8 ADD MSTORE DUP6 ADD MSTORE PUSH1 0x60 DUP5 ADD MSTORE PUSH1 0x80 DUP4 ADD MSTORE ISZERO ISZERO PUSH1 0xA0 DUP3 ADD MSTORE RETURN JUMPDEST POP DUP1 REVERT JUMPDEST POP POP CALLVALUE PUSH2 0x29F JUMPI DUP1 PUSH1 0x3 NOT CALLDATASIZE ADD SLT PUSH2 0x29F JUMPI DUP1 PUSH1 0x20 SWAP3 PUSH2 0x2C1 PUSH2 0x1660 JUMP JUMPDEST PUSH2 0x2C9 PUSH2 0x167B JUMP JUMPDEST PUSH1 0x1 PUSH1 0x1 PUSH1 0xA0 SHL SUB SWAP2 DUP3 AND DUP4 MSTORE PUSH1 0x1 DUP7 MSTORE DUP4 DUP4 KECCAK256 SWAP2 AND DUP3 MSTORE DUP5 MSTORE KECCAK256 SLOAD SWAP1 MLOAD SWAP1 DUP2 MSTORE RETURN JUMPDEST DUP4 DUP3 CALLVALUE PUSH2 0x29F JUMPI PUSH1 0x20 CALLDATASIZE PUSH1 0x3 NOT ADD SLT PUSH2 0x29F JUMPI CALLDATALOAD DUP1 ISZERO ISZERO DUP1 SWAP2 SUB PUSH2 0x29F JUMPI PUSH2 0x312 PUSH2 0x190C JUMP JUMPDEST PUSH1 0xFF DUP1 NOT PUSH1 0xC SLOAD AND SWAP2 AND OR PUSH1 0xC SSTORE DUP1 RETURN JUMPDEST POP POP CALLVALUE PUSH2 0x29F JUMPI DUP2 PUSH1 0x3 NOT CALLDATASIZE ADD SLT PUSH2 0x29F JUMPI PUSH1 0x20 SWAP1 PUSH1 0x7 SLOAD SWAP1 MLOAD SWAP1 DUP2 MSTORE RETURN JUMPDEST POP SWAP2 CALLVALUE PUSH2 0x369 JUMPI PUSH1 0x20 CALLDATASIZE PUSH1 0x3 NOT ADD SLT PUSH2 0x369 JUMPI POP PUSH2 0x362 PUSH1 0x20 SWAP3 CALLDATALOAD PUSH2 0x1A98 JUMP JUMPDEST SWAP1 MLOAD SWAP1 DUP2 MSTORE RETURN JUMPDEST DUP1 REVERT JUMPDEST POP POP CALLVALUE PUSH2 0x29F JUMPI DUP2 PUSH1 0x3 NOT CALLDATASIZE ADD SLT PUSH2 0x29F JUMPI PUSH1 0x20 SWAP1 MLOAD PUSH5 0x2540BE400 DUP2 MSTORE RETURN JUMPDEST POP POP CALLVALUE PUSH2 0x29F JUMPI DUP1 PUSH1 0x3 NOT CALLDATASIZE ADD SLT PUSH2 0x29F JUMPI PUSH1 0x20 SWAP1 PUSH2 0x3B6 PUSH2 0x3AC PUSH2 0x1660 JUMP JUMPDEST PUSH1 0x24 CALLDATALOAD SWAP1 CALLER PUSH2 0x1938 JUMP JUMPDEST MLOAD PUSH1 0x1 DUP2 MSTORE RETURN JUMPDEST POP POP CALLVALUE PUSH2 0x29F JUMPI DUP2 PUSH1 0x3 NOT CALLDATASIZE ADD SLT PUSH2 0x29F JUMPI PUSH1 0x20 SWAP1 PUSH1 0x8 SLOAD SWAP1 MLOAD SWAP1 DUP2 MSTORE RETURN JUMPDEST POP SWAP1 CALLVALUE PUSH2 0x24C JUMPI DUP3 PUSH1 0x3 NOT CALLDATASIZE ADD SLT PUSH2 0x24C JUMPI DUP1 MLOAD SWAP2 DUP4 DUP2 SLOAD SWAP1 PUSH2 0x3FE DUP3 PUSH2 0x1691 JUMP JUMPDEST DUP1 DUP7 MSTORE SWAP3 PUSH1 0x1 SWAP3 DUP1 DUP5 AND SWAP1 DUP2 ISZERO PUSH2 0x49B JUMPI POP PUSH1 0x1 EQ PUSH2 0x43F JUMPI JUMPDEST PUSH2 0x43B DUP7 DUP7 PUSH2 0x429 DUP3 DUP12 SUB DUP4 PUSH2 0x15FE JUMP JUMPDEST MLOAD SWAP2 DUP3 SWAP2 PUSH1 0x20 DUP4 MSTORE PUSH1 0x20 DUP4 ADD SWAP1 PUSH2 0x1620 JUMP JUMPDEST SUB SWAP1 RETURN JUMPDEST DUP2 MSTORE SWAP5 POP PUSH32 0x8A35ACFBC15FF81A39AE7D344FD709F28E8600B4AA8C65C6B64BFE7FE36BD19B JUMPDEST DUP3 DUP7 LT PUSH2 0x483 JUMPI POP POP POP PUSH2 0x429 DUP3 PUSH1 0x20 PUSH2 0x43B SWAP6 DUP3 ADD ADD SWAP5 CODESIZE PUSH2 0x418 JUMP JUMPDEST DUP1 SLOAD PUSH1 0x20 DUP8 DUP8 ADD DUP2 ADD SWAP2 SWAP1 SWAP2 MSTORE SWAP1 SWAP6 ADD SWAP5 DUP2 ADD PUSH2 0x465 JUMP JUMPDEST SWAP1 POP PUSH2 0x43B SWAP8 POP DUP7 SWAP4 POP PUSH1 0x20 SWAP3 POP PUSH2 0x429 SWAP5 SWAP2 POP PUSH1 0xFF NOT AND DUP3 DUP5 ADD MSTORE ISZERO ISZERO PUSH1 0x5 SHL DUP3 ADD ADD SWAP5 CODESIZE PUSH2 0x418 JUMP JUMPDEST POP POP CALLVALUE PUSH2 0x29F JUMPI DUP2 PUSH1 0x3 NOT CALLDATASIZE ADD SLT PUSH2 0x29F JUMPI PUSH1 0x5 SLOAD SWAP1 MLOAD PUSH1 0x1 PUSH1 0x1 PUSH1 0xA0 SHL SUB SWAP1 SWAP2 AND DUP2 MSTORE PUSH1 0x20 SWAP1 RETURN JUMPDEST POP DUP3 CALLVALUE PUSH2 0x369 JUMPI PUSH1 0x20 SWAP2 DUP3 PUSH1 0x3 NOT CALLDATASIZE ADD SLT PUSH2 0x29F JUMPI CALLDATALOAD SWAP1 PUSH1 0x16 SLOAD SWAP2 DUP3 DUP1 DUP3 LT SWAP2 XOR MUL DUP3 XOR SWAP2 PUSH2 0x51D DUP4 PUSH2 0x1BD2 JUMP JUMPDEST SWAP3 PUSH2 0x52A DUP7 MLOAD SWAP5 DUP6 PUSH2 0x15FE JUMP JUMPDEST DUP1 DUP5 MSTORE PUSH1 0x1F NOT PUSH2 0x539 DUP3 PUSH2 0x1BD2 JUMP JUMPDEST ADD DUP6 DUP5 JUMPDEST DUP3 DUP2 LT PUSH2 0x5FF JUMPI POP POP POP DUP3 JUMPDEST DUP2 DUP2 LT PUSH2 0x59E JUMPI POP POP POP DUP4 MLOAD SWAP3 DUP1 DUP5 ADD SWAP1 DUP1 DUP6 MSTORE DUP4 MLOAD DUP1 SWAP3 MSTORE DUP1 DUP7 DUP7 ADD SWAP5 ADD SWAP3 JUMPDEST DUP3 DUP2 LT PUSH2 0x577 JUMPI DUP6 DUP6 SUB DUP7 RETURN JUMPDEST DUP4 MLOAD DUP1 MLOAD DUP7 MSTORE DUP1 DUP4 ADD MLOAD DUP7 DUP5 ADD MSTORE DUP8 ADD MLOAD DUP8 DUP7 ADD MSTORE PUSH1 0x60 SWAP1 SWAP5 ADD SWAP4 SWAP3 DUP2 ADD SWAP3 PUSH1 0x1 ADD PUSH2 0x56A JUMP JUMPDEST DUP1 PUSH2 0x5BD PUSH2 0x5B8 PUSH2 0x5FA SWAP4 PUSH2 0x5B3 DUP7 DUP9 PUSH2 0x1BA2 JUMP JUMPDEST PUSH2 0x1A16 JUMP JUMPDEST PUSH2 0x18BB JUMP JUMPDEST POP PUSH1 0x2 DUP10 MLOAD SWAP2 PUSH2 0x5CC DUP4 PUSH2 0x15AF JUMP JUMPDEST DUP1 SLOAD DUP4 MSTORE PUSH1 0x1 DUP2 ADD SLOAD DUP11 DUP5 ADD MSTORE ADD SLOAD DUP10 DUP3 ADD MSTORE PUSH2 0x5E9 DUP3 DUP9 PUSH2 0x1BEA JUMP JUMPDEST MSTORE PUSH2 0x5F4 DUP2 DUP8 PUSH2 0x1BEA JUMP JUMPDEST POP PUSH2 0x1B93 JUMP JUMPDEST PUSH2 0x549 JUMP JUMPDEST DUP9 MLOAD PUSH2 0x60A DUP2 PUSH2 0x15AF JUMP JUMPDEST DUP7 DUP2 MSTORE DUP7 DUP4 DUP3 ADD MSTORE DUP7 DUP11 DUP3 ADD MSTORE DUP3 DUP3 DUP10 ADD ADD MSTORE ADD DUP7 SWAP1 PUSH2 0x53D JUMP JUMPDEST POP POP CALLVALUE PUSH2 0x29F JUMPI DUP2 PUSH1 0x3 NOT CALLDATASIZE ADD SLT PUSH2 0x29F JUMPI PUSH1 0x20 SWAP1 MLOAD PUSH32 0x0 DUP2 MSTORE RETURN JUMPDEST POP POP CALLVALUE PUSH2 0x29F JUMPI DUP2 PUSH1 0x3 NOT CALLDATASIZE ADD SLT PUSH2 0x29F JUMPI PUSH1 0x20 SWAP1 PUSH1 0x15 SLOAD SWAP1 MLOAD SWAP1 DUP2 MSTORE RETURN JUMPDEST DUP4 CALLVALUE PUSH2 0x369 JUMPI DUP1 PUSH1 0x3 NOT CALLDATASIZE ADD SLT PUSH2 0x369 JUMPI PUSH2 0x698 PUSH2 0x190C JUMP JUMPDEST PUSH1 0x5 DUP1 SLOAD PUSH1 0x1 PUSH1 0x1 PUSH1 0xA0 SHL SUB NOT DUP2 AND SWAP1 SWAP2 SSTORE DUP2 SWAP1 PUSH1 0x1 PUSH1 0x1 PUSH1 0xA0 SHL SUB AND PUSH32 0x8BE0079C531659141344CD1FD0A4F28419497F9722A3DAAFE3B4186F6B6457E0 DUP3 DUP1 LOG3 DUP1 RETURN JUMPDEST POP POP CALLVALUE PUSH2 0x29F JUMPI PUSH1 0x20 CALLDATASIZE PUSH1 0x3 NOT ADD SLT PUSH2 0x29F JUMPI PUSH1 0x20 SWAP2 DUP2 SWAP1 PUSH1 0x1 PUSH1 0x1 PUSH1 0xA0 SHL SUB PUSH2 0x704 PUSH2 0x1660 JUMP JUMPDEST AND DUP2 MSTORE DUP1 DUP5 MSTORE KECCAK256 SLOAD SWAP1 MLOAD SWAP1 DUP2 MSTORE RETURN JUMPDEST POP POP CALLVALUE PUSH2 0x29F JUMPI DUP2 PUSH1 0x3 NOT CALLDATASIZE ADD SLT PUSH2 0x29F JUMPI PUSH1 0x20 SWAP1 PUSH1 0xFF PUSH1 0x14 SLOAD AND SWAP1 MLOAD SWAP1 ISZERO ISZERO DUP2 MSTORE RETURN JUMPDEST POP SWAP1 CALLVALUE PUSH2 0x24C JUMPI PUSH1 0x20 SWAP2 DUP3 PUSH1 0x3 NOT CALLDATASIZE ADD SLT PUSH2 0xA21 JUMPI DUP1 CALLDATALOAD PUSH2 0x756 PUSH2 0x1BAF JUMP JUMPDEST PUSH2 0x764 PUSH1 0xFF PUSH1 0x14 SLOAD AND PUSH2 0x1AF8 JUMP JUMPDEST PUSH2 0x76F DUP2 ISZERO ISZERO PUSH2 0x1A39 JUMP JUMPDEST CALLER DUP6 MSTORE DUP5 DUP5 MSTORE DUP1 DUP4 DUP7 KECCAK256 SLOAD LT PUSH2 0x9E8 JUMPI PUSH1 0x10 SLOAD DUP1 ISZERO PUSH2 0x9B6 JUMPI PUSH2 0x791 DUP3 PUSH2 0x1A98 JUMP JUMPDEST SWAP3 PUSH8 0xDE0B6B3A7640000 PUSH2 0x7A5 DUP6 DUP6 PUSH2 0x1A85 JUMP JUMPDEST DIV DUP1 SWAP3 LT PUSH2 0x973 JUMPI PUSH2 0x7B8 DUP4 ADDRESS CALLER PUSH2 0x1938 JUMP JUMPDEST ADDRESS ISZERO PUSH2 0x95C JUMPI ADDRESS DUP8 MSTORE DUP7 DUP7 MSTORE DUP5 DUP8 KECCAK256 SLOAD DUP4 DUP2 LT PUSH2 0x930 JUMPI SWAP1 DUP4 DUP9 SWAP3 ADDRESS DUP5 MSTORE DUP4 DUP10 MSTORE SUB DUP7 DUP4 KECCAK256 SSTORE DUP4 PUSH1 0x2 SLOAD SUB PUSH1 0x2 SSTORE DUP2 DUP7 MLOAD DUP6 DUP2 MSTORE PUSH32 0xDDF252AD1BE2C89B69C2B068FC378DAA952BA7F163C4A11628F55A4DF523B3EF DUP10 ADDRESS SWAP3 LOG3 DUP5 PUSH1 0x8 SSTORE TIMESTAMP PUSH1 0x12 SSTORE PUSH2 0x825 DUP5 PUSH1 0x11 SLOAD PUSH2 0x1A16 JUMP JUMPDEST PUSH1 0x11 SSTORE CALLER DUP3 MSTORE DUP2 DUP8 MSTORE DUP6 DUP3 KECCAK256 SLOAD ISZERO PUSH2 0x903 JUMPI JUMPDEST POP DUP1 DUP1 DUP1 SWAP4 PUSH2 0x85D DUP9 MLOAD PUSH2 0x84B DUP2 PUSH2 0x15AF JUMP JUMPDEST TIMESTAMP DUP2 MSTORE DUP9 DUP12 DUP3 ADD MSTORE DUP8 DUP11 DUP3 ADD MSTORE PUSH2 0x1B38 JUMP JUMPDEST PUSH2 0x869 DUP2 PUSH1 0x10 SLOAD PUSH2 0x1BA2 JUMP JUMPDEST PUSH1 0x10 SSTORE DUP2 DUP2 ISZERO PUSH2 0x8FA JUMPI JUMPDEST CALLER SWAP1 CALL ISZERO PUSH2 0x8F0 JUMPI DUP2 PUSH32 0x15819DD2FD9F6418B142E798D08A18D0BF06EA368F4480B7B0D3F75BD966BC48 SWAP5 DUP5 MLOAD SWAP3 DUP4 MSTORE DUP3 ADD MSTORE PUSH32 0x2DCF9433D75DB0D8B1C172641F85E319FFE4AD22E108A95D1847CEB906E5195D DUP4 CALLER SWAP3 LOG2 PUSH1 0x8 SLOAD SWAP2 MLOAD SWAP2 DUP3 MSTORE PUSH1 0x20 DUP3 ADD MSTORE TIMESTAMP PUSH1 0x40 DUP3 ADD MSTORE DUP1 PUSH1 0x60 DUP2 ADD JUMPDEST SUB SWAP1 LOG1 PUSH1 0x1 PUSH1 0x6 SSTORE DUP1 RETURN JUMPDEST DUP3 MLOAD RETURNDATASIZE DUP7 DUP3 RETURNDATACOPY RETURNDATASIZE SWAP1 REVERT JUMPDEST POP PUSH2 0x8FC PUSH2 0x874 JUMP JUMPDEST PUSH1 0x13 SLOAD SWAP2 POP DUP2 ISZERO PUSH2 0x91D JUMPI POP PUSH1 0x0 NOT ADD PUSH1 0x13 SSTORE DUP6 DUP1 PUSH2 0x838 JUMP JUMPDEST PUSH4 0x4E487B71 PUSH1 0xE0 SHL DUP9 MSTORE PUSH1 0x11 SWAP1 MSTORE PUSH1 0x24 DUP8 REVERT JUMPDEST DUP6 MLOAD PUSH4 0x391434E3 PUSH1 0xE2 SHL DUP2 MSTORE ADDRESS SWAP3 DUP2 ADD SWAP3 DUP4 MSTORE PUSH1 0x20 DUP4 ADD SWAP2 SWAP1 SWAP2 MSTORE PUSH1 0x40 DUP3 ADD DUP5 SWAP1 MSTORE SWAP1 DUP2 SWAP1 PUSH1 0x60 ADD SUB SWAP1 REVERT JUMPDEST DUP5 MLOAD PUSH4 0x4B637E8F PUSH1 0xE1 SHL DUP2 MSTORE SWAP1 DUP2 ADD DUP8 SWAP1 MSTORE PUSH1 0x24 SWAP1 REVERT JUMPDEST DUP5 MLOAD PUSH3 0x461BCD PUSH1 0xE5 SHL DUP2 MSTORE SWAP1 DUP2 ADD DUP7 SWAP1 MSTORE PUSH1 0x1F PUSH1 0x24 DUP3 ADD MSTORE PUSH32 0x496E73756666696369656E74206C697175696469747920666F722073616C6500 PUSH1 0x44 DUP3 ADD MSTORE PUSH1 0x64 SWAP1 REVERT JUMPDEST DUP4 MLOAD PUSH3 0x461BCD PUSH1 0xE5 SHL DUP2 MSTORE DUP1 DUP5 ADD DUP7 SWAP1 MSTORE PUSH1 0xC PUSH1 0x24 DUP3 ADD MSTORE PUSH12 0x4E6F206C6971756964697479 PUSH1 0xA0 SHL PUSH1 0x44 DUP3 ADD MSTORE PUSH1 0x64 SWAP1 REVERT JUMPDEST POP DUP3 PUSH1 0x64 SWAP3 MLOAD SWAP2 PUSH3 0x461BCD PUSH1 0xE5 SHL DUP4 MSTORE DUP3 ADD MSTORE PUSH1 0x14 PUSH1 0x24 DUP3 ADD MSTORE PUSH20 0x496E73756666696369656E742062616C616E6365 PUSH1 0x60 SHL PUSH1 0x44 DUP3 ADD MSTORE REVERT JUMPDEST DUP4 DUP1 REVERT JUMPDEST POP POP CALLVALUE PUSH2 0x29F JUMPI DUP2 PUSH1 0x3 NOT CALLDATASIZE ADD SLT PUSH2 0x29F JUMPI PUSH1 0x20 SWAP1 PUSH1 0x13 SLOAD SWAP1 MLOAD SWAP1 DUP2 MSTORE RETURN JUMPDEST POP POP CALLVALUE PUSH2 0x29F JUMPI PUSH1 0x20 CALLDATASIZE PUSH1 0x3 NOT ADD SLT PUSH2 0x29F JUMPI PUSH1 0x20 SWAP2 DUP2 SWAP1 PUSH1 0x1 PUSH1 0x1 PUSH1 0xA0 SHL SUB PUSH2 0xA6C PUSH2 0x1660 JUMP JUMPDEST AND DUP2 MSTORE PUSH1 0x17 DUP5 MSTORE KECCAK256 SLOAD SWAP1 MLOAD SWAP1 DUP2 MSTORE RETURN JUMPDEST POP POP CALLVALUE PUSH2 0x29F JUMPI DUP2 PUSH1 0x3 NOT CALLDATASIZE ADD SLT PUSH2 0x29F JUMPI PUSH1 0x20 SWAP1 PUSH1 0x12 SLOAD SWAP1 MLOAD SWAP1 DUP2 MSTORE RETURN JUMPDEST DUP3 DUP5 CALLVALUE PUSH2 0x369 JUMPI DUP1 PUSH1 0x3 NOT CALLDATASIZE ADD SLT PUSH2 0x369 JUMPI DUP2 MLOAD PUSH1 0x20 SWAP2 PUSH2 0xABB DUP3 PUSH2 0x15E1 JUMP JUMPDEST PUSH1 0xE0 PUSH1 0x60 SWAP3 DUP4 DUP2 MSTORE DUP4 DUP6 DUP3 ADD MSTORE DUP3 DUP7 DUP3 ADD MSTORE DUP3 DUP5 DUP3 ADD MSTORE DUP3 PUSH1 0x80 DUP3 ADD MSTORE DUP3 PUSH1 0xA0 DUP3 ADD MSTORE DUP4 PUSH1 0xC0 DUP3 ADD MSTORE ADD MSTORE DUP3 MLOAD SWAP3 PUSH2 0xAF2 DUP5 PUSH2 0x15E1 JUMP JUMPDEST PUSH2 0xAFA PUSH2 0x16CB JUMP JUMPDEST DUP5 MSTORE PUSH2 0xBCA PUSH2 0xB07 PUSH2 0x1789 JUMP JUMPDEST SWAP2 DUP5 DUP7 ADD SWAP3 DUP4 MSTORE PUSH1 0xB SLOAD SWAP1 DUP1 DUP8 ADD SWAP2 DUP3 MSTORE PUSH1 0xC SLOAD DUP6 DUP9 ADD SWAP1 PUSH1 0xFF DUP2 AND ISZERO ISZERO DUP3 MSTORE PUSH1 0x80 DUP10 ADD SWAP1 PUSH1 0x1 DUP1 PUSH1 0xA0 SHL SUB DUP1 SWAP2 PUSH1 0x8 SHR AND DUP3 MSTORE PUSH1 0xD SLOAD SWAP2 PUSH1 0xA0 DUP12 ADD SWAP3 DUP4 MSTORE PUSH2 0xB4E PUSH2 0x1822 JUMP JUMPDEST SWAP4 PUSH1 0xC0 DUP13 ADD SWAP5 DUP6 MSTORE PUSH1 0xFF PUSH1 0xF SLOAD AND SWAP10 PUSH1 0xE0 DUP14 ADD SWAP11 ISZERO ISZERO DUP12 MSTORE PUSH2 0xB9F DUP8 MLOAD SWAP14 DUP15 SWAP14 DUP15 MSTORE MLOAD SWAP11 DUP14 PUSH2 0xB8B PUSH2 0x100 SWAP14 DUP15 PUSH1 0x20 DUP5 ADD MSTORE PUSH2 0x120 DUP4 ADD SWAP1 PUSH2 0x1620 JUMP JUMPDEST SWAP2 MLOAD SWAP1 PUSH1 0x1F NOT SWAP11 DUP12 DUP3 DUP6 SUB ADD SWAP2 ADD MSTORE PUSH2 0x1620 JUMP JUMPDEST SWAP8 MLOAD SWAP1 DUP13 ADD MSTORE MLOAD ISZERO ISZERO PUSH1 0x80 DUP12 ADD MSTORE MLOAD AND PUSH1 0xA0 DUP10 ADD MSTORE MLOAD PUSH1 0xC0 DUP9 ADD MSTORE MLOAD SWAP1 DUP7 DUP4 SUB ADD PUSH1 0xE0 DUP8 ADD MSTORE PUSH2 0x1620 JUMP JUMPDEST SWAP2 MLOAD ISZERO ISZERO SWAP1 DUP4 ADD MSTORE SUB SWAP1 RETURN JUMPDEST POP POP CALLVALUE PUSH2 0x29F JUMPI DUP2 PUSH1 0x3 NOT CALLDATASIZE ADD SLT PUSH2 0x29F JUMPI PUSH1 0x20 SWAP1 PUSH1 0x10 SLOAD SWAP1 MLOAD SWAP1 DUP2 MSTORE RETURN JUMPDEST POP POP CALLVALUE PUSH2 0x29F JUMPI DUP2 PUSH1 0x3 NOT CALLDATASIZE ADD SLT PUSH2 0x29F JUMPI MLOAD PUSH32 0x0 PUSH1 0x1 PUSH1 0x1 PUSH1 0xA0 SHL SUB AND DUP2 MSTORE PUSH1 0x20 SWAP1 RETURN JUMPDEST POP DUP3 SWAP1 CALLVALUE PUSH2 0x29F JUMPI PUSH1 0x20 CALLDATASIZE PUSH1 0x3 NOT ADD SLT PUSH2 0x29F JUMPI CALLDATALOAD SWAP1 PUSH1 0x16 SLOAD DUP3 LT ISZERO PUSH2 0x369 JUMPI POP PUSH2 0xC63 SWAP1 PUSH2 0x18BB JUMP JUMPDEST POP DUP1 SLOAD PUSH1 0x1 DUP3 ADD SLOAD PUSH1 0x2 SWAP1 SWAP3 ADD SLOAD SWAP3 MLOAD SWAP1 DUP2 MSTORE PUSH1 0x20 DUP2 ADD SWAP2 SWAP1 SWAP2 MSTORE PUSH1 0x40 DUP2 ADD SWAP2 SWAP1 SWAP2 MSTORE PUSH1 0x60 SWAP1 RETURN JUMPDEST POP POP CALLVALUE PUSH2 0x29F JUMPI DUP2 PUSH1 0x3 NOT CALLDATASIZE ADD SLT PUSH2 0x29F JUMPI PUSH2 0xCE6 SWAP1 PUSH2 0xCA9 PUSH2 0x16CB JUMP JUMPDEST SWAP1 PUSH2 0xD26 PUSH2 0xCB5 PUSH2 0x1789 JUMP JUMPDEST SWAP2 PUSH1 0xB SLOAD PUSH1 0xC SLOAD PUSH1 0xD SLOAD SWAP1 PUSH2 0xCC8 PUSH2 0x1822 JUMP JUMPDEST SWAP3 PUSH2 0xCF4 PUSH1 0xFF PUSH1 0xF SLOAD AND SWAP8 DUP7 MLOAD SWAP11 DUP12 SWAP11 PUSH2 0x100 DUP1 DUP14 MSTORE DUP13 ADD SWAP1 PUSH2 0x1620 JUMP JUMPDEST SWAP1 DUP11 DUP3 SUB PUSH1 0x20 DUP13 ADD MSTORE PUSH2 0x1620 JUMP JUMPDEST SWAP5 DUP9 ADD MSTORE PUSH1 0xFF DUP2 AND ISZERO ISZERO PUSH1 0x60 DUP9 ADD MSTORE PUSH1 0x8 SHR PUSH1 0x1 PUSH1 0x1 PUSH1 0xA0 SHL SUB AND PUSH1 0x80 DUP8 ADD MSTORE PUSH1 0xA0 DUP7 ADD MSTORE DUP5 DUP3 SUB PUSH1 0xC0 DUP7 ADD MSTORE PUSH2 0x1620 JUMP JUMPDEST SWAP1 ISZERO ISZERO PUSH1 0xE0 DUP4 ADD MSTORE SUB SWAP1 RETURN JUMPDEST POP PUSH1 0x20 DUP1 PUSH1 0x3 NOT CALLDATASIZE ADD SLT PUSH2 0xA21 JUMPI DUP2 CALLDATALOAD PUSH2 0xD4A PUSH2 0x1BAF JUMP JUMPDEST PUSH2 0xD58 PUSH1 0xFF PUSH1 0x14 SLOAD AND PUSH2 0x1AF8 JUMP JUMPDEST PUSH2 0xD63 DUP2 ISZERO ISZERO PUSH2 0x1A39 JUMP JUMPDEST PUSH1 0xFF PUSH1 0xC SLOAD AND ISZERO PUSH2 0xF49 JUMPI PUSH2 0xD77 DUP2 PUSH2 0x1A98 JUMP JUMPDEST SWAP2 PUSH8 0xDE0B6B3A7640000 PUSH2 0xD8B DUP5 DUP5 PUSH2 0x1A85 JUMP JUMPDEST DIV SWAP4 DUP5 CALLVALUE LT PUSH2 0xF11 JUMPI ADDRESS DUP8 MSTORE DUP7 DUP3 MSTORE DUP3 DUP7 DUP9 KECCAK256 SLOAD LT PUSH2 0xED0 JUMPI POP PUSH2 0xDB0 DUP3 CALLER ADDRESS PUSH2 0x1938 JUMP JUMPDEST PUSH2 0xDD0 DUP6 MLOAD PUSH2 0xDBE DUP2 PUSH2 0x15AF JUMP JUMPDEST TIMESTAMP DUP2 MSTORE DUP5 DUP4 DUP3 ADD MSTORE DUP4 DUP8 DUP3 ADD MSTORE PUSH2 0x1B38 JUMP JUMPDEST DUP6 PUSH1 0x8 SLOAD SWAP5 DUP5 PUSH1 0x8 SSTORE TIMESTAMP PUSH1 0x12 SSTORE PUSH2 0xDE9 DUP5 PUSH1 0x11 SLOAD PUSH2 0x1A16 JUMP JUMPDEST PUSH1 0x11 SSTORE CALLER DUP3 MSTORE DUP2 DUP4 MSTORE DUP4 DUP8 DUP4 KECCAK256 SLOAD EQ PUSH2 0xEBD JUMPI JUMPDEST PUSH2 0xE09 DUP2 PUSH1 0x10 SLOAD PUSH2 0x1A16 JUMP JUMPDEST PUSH1 0x10 SSTORE DUP1 CALLVALUE GT PUSH2 0xE86 JUMPI JUMPDEST POP POP SWAP4 PUSH2 0x8E5 SWAP2 DUP4 PUSH32 0x15819DD2FD9F6418B142E798D08A18D0BF06EA368F4480B7B0D3F75BD966BC48 SWAP7 DUP4 MLOAD SWAP3 DUP4 MSTORE DUP3 ADD MSTORE PUSH32 0x8FAFEBCAF9D154343DAD25669BFA277F4FBACD7AC6B0C4FED522580E040A0F33 DUP3 CALLER SWAP3 LOG2 MLOAD SWAP3 DUP4 MSTORE PUSH1 0x20 DUP4 ADD SWAP2 SWAP1 SWAP2 MSTORE TIMESTAMP PUSH1 0x40 DUP4 ADD MSTORE DUP2 SWAP1 PUSH1 0x60 DUP3 ADD SWAP1 JUMP JUMPDEST DUP2 DUP1 PUSH2 0xE93 DUP2 SWAP4 CALLVALUE PUSH2 0x1BA2 JUMP JUMPDEST DUP2 DUP2 ISZERO PUSH2 0xEB4 JUMPI JUMPDEST CALLER SWAP1 CALL ISZERO PUSH2 0xEAA JUMPI DUP6 CODESIZE PUSH2 0xE14 JUMP JUMPDEST DUP5 MLOAD RETURNDATASIZE DUP8 DUP3 RETURNDATACOPY RETURNDATASIZE SWAP1 REVERT JUMPDEST POP PUSH2 0x8FC PUSH2 0xE9B JUMP JUMPDEST PUSH2 0xEC8 PUSH1 0x13 SLOAD PUSH2 0x1B93 JUMP JUMPDEST PUSH1 0x13 SSTORE PUSH2 0xDFD JUMP JUMPDEST PUSH1 0x64 SWAP2 DUP7 MLOAD SWAP2 PUSH3 0x461BCD PUSH1 0xE5 SHL DUP4 MSTORE DUP3 ADD MSTORE PUSH1 0x1E PUSH1 0x24 DUP3 ADD MSTORE PUSH32 0x4E6F7420656E6F75676820746F6B656E7320696E2073616C6520706F6F6C0000 PUSH1 0x44 DUP3 ADD MSTORE REVERT JUMPDEST PUSH1 0x64 SWAP2 DUP7 MLOAD SWAP2 PUSH3 0x461BCD PUSH1 0xE5 SHL DUP4 MSTORE DUP3 ADD MSTORE PUSH1 0x14 PUSH1 0x24 DUP3 ADD MSTORE PUSH20 0x125B9CDD59999A58DA595B9D081C185E5B595B9D PUSH1 0x62 SHL PUSH1 0x44 DUP3 ADD MSTORE REVERT JUMPDEST POP PUSH1 0x64 SWAP3 MLOAD SWAP2 PUSH3 0x461BCD PUSH1 0xE5 SHL DUP4 MSTORE DUP3 ADD MSTORE PUSH1 0x13 PUSH1 0x24 DUP3 ADD MSTORE PUSH19 0x506174656E74206E6F7420666F722073616C65 PUSH1 0x68 SHL PUSH1 0x44 DUP3 ADD MSTORE REVERT JUMPDEST POP POP CALLVALUE PUSH2 0x29F JUMPI DUP2 PUSH1 0x3 NOT CALLDATASIZE ADD SLT PUSH2 0x29F JUMPI PUSH1 0x20 SWAP1 MLOAD PUSH10 0xD3C21BCECCEDA1000000 DUP2 MSTORE RETURN JUMPDEST POP POP CALLVALUE PUSH2 0x29F JUMPI DUP2 PUSH1 0x3 NOT CALLDATASIZE ADD SLT PUSH2 0x29F JUMPI PUSH1 0x20 SWAP1 MLOAD PUSH1 0x12 DUP2 MSTORE RETURN JUMPDEST POP CALLVALUE PUSH2 0x24C JUMPI PUSH1 0x20 CALLDATASIZE PUSH1 0x3 NOT ADD SLT PUSH2 0x24C JUMPI DUP1 CALLDATALOAD SWAP1 PUSH2 0xFDE PUSH2 0x190C JUMP JUMPDEST PUSH1 0x10 SLOAD SWAP1 PUSH8 0x16345785D8A0000 DUP4 DUP2 ADD DUP1 SWAP2 GT PUSH2 0x1083 JUMPI DUP3 GT ISZERO PUSH2 0x1040 JUMPI POP DUP4 DUP1 DUP4 PUSH2 0x100C DUP3 SWAP6 DUP4 SWAP6 PUSH2 0x1BA2 JUMP JUMPDEST PUSH1 0x10 SSTORE PUSH1 0x5 SLOAD PUSH1 0x1 PUSH1 0x1 PUSH1 0xA0 SHL SUB AND DUP3 DUP3 ISZERO PUSH2 0x1037 JUMPI JUMPDEST CALL ISZERO PUSH2 0x102D JUMPI POP DUP1 RETURN JUMPDEST MLOAD SWAP1 RETURNDATASIZE SWAP1 DUP3 RETURNDATACOPY RETURNDATASIZE SWAP1 REVERT JUMPDEST POP PUSH2 0x8FC PUSH2 0x1023 JUMP JUMPDEST PUSH1 0x64 SWAP1 PUSH1 0x20 DUP6 MLOAD SWAP2 PUSH3 0x461BCD PUSH1 0xE5 SHL DUP4 MSTORE DUP3 ADD MSTORE PUSH1 0x1D PUSH1 0x24 DUP3 ADD MSTORE PUSH32 0x496E73756666696369656E7420657863657373206C6971756964697479000000 PUSH1 0x44 DUP3 ADD MSTORE REVERT JUMPDEST PUSH4 0x4E487B71 PUSH1 0xE0 SHL DUP7 MSTORE PUSH1 0x11 DUP3 MSTORE PUSH1 0x24 DUP7 REVERT JUMPDEST POP DUP3 CALLVALUE PUSH2 0x369 JUMPI PUSH1 0x60 CALLDATASIZE PUSH1 0x3 NOT ADD SLT PUSH2 0x369 JUMPI PUSH2 0x10B1 PUSH2 0x1660 JUMP JUMPDEST PUSH2 0x10B9 PUSH2 0x167B JUMP JUMPDEST SWAP2 PUSH1 0x44 CALLDATALOAD SWAP4 PUSH1 0x1 DUP1 PUSH1 0xA0 SHL SUB DUP4 AND DUP1 DUP4 MSTORE PUSH1 0x1 PUSH1 0x20 MSTORE DUP7 DUP4 KECCAK256 CALLER DUP5 MSTORE PUSH1 0x20 MSTORE DUP7 DUP4 KECCAK256 SLOAD SWAP2 PUSH1 0x0 NOT DUP4 LT PUSH2 0x10F5 JUMPI JUMPDEST PUSH1 0x20 DUP9 PUSH2 0x3B6 DUP10 DUP10 DUP10 PUSH2 0x1938 JUMP JUMPDEST DUP7 DUP4 LT PUSH2 0x115D JUMPI DUP2 ISZERO PUSH2 0x1146 JUMPI CALLER ISZERO PUSH2 0x112F JUMPI POP DUP3 MSTORE PUSH1 0x1 PUSH1 0x20 SWAP1 DUP2 MSTORE DUP7 DUP4 KECCAK256 CALLER DUP5 MSTORE DUP2 MSTORE SWAP2 DUP7 SWAP1 KECCAK256 SWAP1 DUP6 SWAP1 SUB SWAP1 SSTORE DUP3 SWAP1 PUSH2 0x3B6 DUP8 PUSH2 0x10E7 JUMP JUMPDEST DUP8 MLOAD PUSH4 0x4A1406B1 PUSH1 0xE1 SHL DUP2 MSTORE SWAP1 DUP2 ADD DUP5 SWAP1 MSTORE PUSH1 0x24 SWAP1 REVERT JUMPDEST DUP8 MLOAD PUSH4 0xE602DF05 PUSH1 0xE0 SHL DUP2 MSTORE SWAP1 DUP2 ADD DUP5 SWAP1 MSTORE PUSH1 0x24 SWAP1 REVERT JUMPDEST DUP8 MLOAD PUSH4 0x7DC7A0D9 PUSH1 0xE1 SHL DUP2 MSTORE CALLER SWAP2 DUP2 ADD SWAP2 DUP3 MSTORE PUSH1 0x20 DUP3 ADD SWAP4 SWAP1 SWAP4 MSTORE PUSH1 0x40 DUP2 ADD DUP8 SWAP1 MSTORE DUP3 SWAP2 POP PUSH1 0x60 ADD SUB SWAP1 REVERT JUMPDEST POP POP CALLVALUE PUSH2 0x29F JUMPI DUP2 PUSH1 0x3 NOT CALLDATASIZE ADD SLT PUSH2 0x29F JUMPI PUSH1 0x20 SWAP1 MLOAD PUSH8 0x16345785D8A0000 DUP2 MSTORE RETURN JUMPDEST POP POP CALLVALUE PUSH2 0x29F JUMPI DUP2 PUSH1 0x3 NOT CALLDATASIZE ADD SLT PUSH2 0x29F JUMPI PUSH1 0x20 SWAP1 PUSH1 0x2 SLOAD SWAP1 MLOAD SWAP1 DUP2 MSTORE RETURN JUMPDEST POP POP CALLVALUE PUSH2 0x29F JUMPI DUP2 PUSH1 0x3 NOT CALLDATASIZE ADD SLT PUSH2 0x29F JUMPI PUSH1 0x20 SWAP1 PUSH1 0x11 SLOAD SWAP1 MLOAD SWAP1 DUP2 MSTORE RETURN JUMPDEST POP CALLVALUE PUSH2 0x24C JUMPI DUP2 PUSH1 0x3 NOT CALLDATASIZE ADD SLT PUSH2 0x24C JUMPI PUSH2 0x1203 PUSH2 0x1660 JUMP JUMPDEST PUSH1 0x24 CALLDATALOAD SWAP1 CALLER ISZERO PUSH2 0x127C JUMPI PUSH1 0x1 PUSH1 0x1 PUSH1 0xA0 SHL SUB AND SWAP2 DUP3 ISZERO PUSH2 0x1265 JUMPI POP DUP1 DUP4 PUSH1 0x20 SWAP6 CALLER DUP2 MSTORE PUSH1 0x1 DUP8 MSTORE DUP2 DUP2 KECCAK256 DUP6 DUP3 MSTORE DUP8 MSTORE KECCAK256 SSTORE DUP3 MLOAD SWAP1 DUP2 MSTORE PUSH32 0x8C5BE1E5EBEC7D5BD14F71427D1E84F3DD0314C0F7B2291E5B200AC8C7C3B925 DUP5 CALLER SWAP3 LOG3 MLOAD PUSH1 0x1 DUP2 MSTORE RETURN JUMPDEST DUP4 MLOAD PUSH4 0x4A1406B1 PUSH1 0xE1 SHL DUP2 MSTORE SWAP1 DUP2 ADD DUP6 SWAP1 MSTORE PUSH1 0x24 SWAP1 REVERT JUMPDEST DUP4 MLOAD PUSH4 0xE602DF05 PUSH1 0xE0 SHL DUP2 MSTORE DUP1 DUP5 ADD DUP7 SWAP1 MSTORE PUSH1 0x24 SWAP1 REVERT JUMPDEST POP POP CALLVALUE PUSH2 0x29F JUMPI DUP2 PUSH1 0x3 NOT CALLDATASIZE ADD SLT PUSH2 0x29F JUMPI DUP1 MLOAD SWAP1 DUP3 PUSH1 0x3 SLOAD PUSH2 0x12B5 DUP2 PUSH2 0x1691 JUMP JUMPDEST DUP1 DUP6 MSTORE SWAP2 PUSH1 0x1 SWAP2 DUP1 DUP4 AND SWAP1 DUP2 ISZERO PUSH2 0x133E JUMPI POP PUSH1 0x1 EQ PUSH2 0x12E1 JUMPI JUMPDEST POP POP POP PUSH2 0x429 DUP3 PUSH2 0x43B SWAP5 SUB DUP4 PUSH2 0x15FE JUMP JUMPDEST SWAP5 POP PUSH1 0x3 DUP6 MSTORE PUSH32 0xC2575A0E9E593C00F959F8C92F12DB2869C3395A3B0502D05E2516446F71F85B JUMPDEST DUP3 DUP7 LT PUSH2 0x1326 JUMPI POP POP POP PUSH2 0x429 DUP3 PUSH1 0x20 PUSH2 0x43B SWAP6 DUP3 ADD ADD SWAP5 PUSH2 0x12CF JUMP JUMPDEST DUP1 SLOAD PUSH1 0x20 DUP8 DUP8 ADD DUP2 ADD SWAP2 SWAP1 SWAP2 MSTORE SWAP1 SWAP6 ADD SWAP5 DUP2 ADD PUSH2 0x1309 JUMP JUMPDEST PUSH2 0x43B SWAP8 POP DUP7 SWAP4 POP PUSH1 0x20 SWAP3 POP PUSH2 0x429 SWAP5 SWAP2 POP PUSH1 0xFF NOT AND DUP3 DUP5 ADD MSTORE ISZERO ISZERO PUSH1 0x5 SHL DUP3 ADD ADD SWAP5 PUSH2 0x12CF JUMP JUMPDEST DUP5 SWAP2 POP DUP4 CALLVALUE PUSH2 0x24C JUMPI DUP1 PUSH1 0x3 NOT CALLDATASIZE ADD SLT PUSH2 0x24C JUMPI DUP4 CALLDATALOAD SWAP4 PUSH8 0xFFFFFFFFFFFFFFFF SWAP1 DUP2 DUP7 GT PUSH2 0x15AB JUMPI CALLDATASIZE PUSH1 0x23 DUP8 ADD SLT ISZERO PUSH2 0x15AB JUMPI DUP6 DUP2 ADD CALLDATALOAD SWAP2 DUP1 DUP4 GT PUSH2 0x1598 JUMPI PUSH1 0x20 SWAP3 PUSH1 0x1F NOT SWAP8 PUSH2 0x13BD DUP6 DUP11 PUSH1 0x1F DUP6 ADD AND ADD DUP9 PUSH2 0x15FE JUMP JUMPDEST DUP2 DUP8 MSTORE CALLDATASIZE PUSH1 0x24 DUP4 DUP4 ADD ADD GT PUSH2 0x1594 JUMPI DUP2 DUP9 SWAP3 PUSH1 0x24 DUP8 SWAP4 ADD DUP4 DUP11 ADD CALLDATACOPY DUP8 ADD ADD MSTORE PUSH1 0x24 CALLDATALOAD SWAP2 PUSH2 0x13E8 PUSH2 0x190C JUMP JUMPDEST DUP6 MLOAD SWAP2 DUP3 GT PUSH2 0x1581 JUMPI POP PUSH2 0x13FD PUSH1 0xA SLOAD PUSH2 0x1691 JUMP JUMPDEST PUSH1 0x1F DUP2 GT PUSH2 0x151F JUMPI JUMPDEST POP DUP3 SWAP7 PUSH1 0x1F DUP3 GT PUSH1 0x1 EQ PUSH2 0x1481 JUMPI POP DUP1 DUP7 SWAP8 PUSH32 0xC0D21BDC9727F7D39495FF4DD003E22925DE85F1E81AACFD7CAA71E65034E9DF SWAP8 SWAP2 PUSH2 0x1476 JUMPI JUMPDEST POP DUP2 PUSH1 0x1 SHL SWAP2 PUSH1 0x0 NOT SWAP1 PUSH1 0x3 SHL SHR NOT AND OR PUSH1 0xA SSTORE JUMPDEST DUP1 PUSH1 0xB SSTORE PUSH2 0x146C DUP4 MLOAD SWAP5 DUP5 DUP7 SWAP6 DUP7 MSTORE DUP6 ADD SWAP1 PUSH2 0x1620 JUMP JUMPDEST SWAP2 DUP4 ADD MSTORE SUB SWAP1 LOG1 DUP1 RETURN JUMPDEST SWAP1 POP DUP6 ADD MLOAD DUP9 PUSH2 0x1440 JUMP JUMPDEST DUP2 AND PUSH1 0xA DUP8 MSTORE PUSH32 0xC65A7BB8D6351C1CF70C95A316CC6A92839C986682D98BC35F958F4883F9D2A8 SWAP1 DUP8 JUMPDEST DUP2 DUP2 LT PUSH2 0x1508 JUMPI POP SWAP1 PUSH32 0xC0D21BDC9727F7D39495FF4DD003E22925DE85F1E81AACFD7CAA71E65034E9DF SWAP8 SWAP9 DUP4 PUSH1 0x1 SWAP5 SWAP4 LT PUSH2 0x14EF JUMPI JUMPDEST POP POP DUP2 SHL ADD PUSH1 0xA SSTORE PUSH2 0x1455 JUMP JUMPDEST DUP8 ADD MLOAD PUSH1 0x0 NOT PUSH1 0xF8 DUP5 PUSH1 0x3 SHL AND SHR NOT AND SWAP1 SSTORE DUP9 DUP1 PUSH2 0x14E2 JUMP JUMPDEST DUP8 DUP11 ADD MLOAD DUP4 SSTORE SWAP9 DUP6 ADD SWAP9 PUSH1 0x1 SWAP1 SWAP3 ADD SWAP2 DUP6 ADD PUSH2 0x14AB JUMP JUMPDEST PUSH1 0xA DUP8 MSTORE PUSH32 0xC65A7BB8D6351C1CF70C95A316CC6A92839C986682D98BC35F958F4883F9D2A8 PUSH1 0x1F DUP4 ADD PUSH1 0x5 SHR DUP2 ADD SWAP2 DUP6 DUP5 LT PUSH2 0x1577 JUMPI JUMPDEST PUSH1 0x1F ADD PUSH1 0x5 SHR ADD SWAP1 JUMPDEST DUP2 DUP2 LT PUSH2 0x156C JUMPI POP PUSH2 0x1406 JUMP JUMPDEST DUP8 DUP2 SSTORE PUSH1 0x1 ADD PUSH2 0x155F JUMP JUMPDEST SWAP1 SWAP2 POP DUP2 SWAP1 PUSH2 0x1556 JUMP JUMPDEST PUSH4 0x4E487B71 PUSH1 0xE0 SHL DUP8 MSTORE PUSH1 0x41 SWAP1 MSTORE PUSH1 0x24 DUP7 REVERT JUMPDEST DUP8 DUP1 REVERT JUMPDEST PUSH4 0x4E487B71 PUSH1 0xE0 SHL DUP7 MSTORE PUSH1 0x41 DUP3 MSTORE PUSH1 0x24 DUP7 REVERT JUMPDEST DUP5 DUP1 REVERT JUMPDEST PUSH1 0x60 DUP2 ADD SWAP1 DUP2 LT PUSH8 0xFFFFFFFFFFFFFFFF DUP3 GT OR PUSH2 0x15CB JUMPI PUSH1 0x40 MSTORE JUMP JUMPDEST PUSH4 0x4E487B71 PUSH1 0xE0 SHL PUSH1 0x0 MSTORE PUSH1 0x41 PUSH1 0x4 MSTORE PUSH1 0x24 PUSH1 0x0 REVERT JUMPDEST PUSH2 0x100 DUP2 ADD SWAP1 DUP2 LT PUSH8 0xFFFFFFFFFFFFFFFF DUP3 GT OR PUSH2 0x15CB JUMPI PUSH1 0x40 MSTORE JUMP JUMPDEST SWAP1 PUSH1 0x1F DUP1 NOT SWAP2 ADD AND DUP2 ADD SWAP1 DUP2 LT PUSH8 0xFFFFFFFFFFFFFFFF DUP3 GT OR PUSH2 0x15CB JUMPI PUSH1 0x40 MSTORE JUMP JUMPDEST SWAP2 SWAP1 DUP3 MLOAD SWAP3 DUP4 DUP3 MSTORE PUSH1 0x0 JUMPDEST DUP5 DUP2 LT PUSH2 0x164C JUMPI POP POP DUP3 PUSH1 0x0 PUSH1 0x20 DUP1 SWAP5 SWAP6 DUP5 ADD ADD MSTORE PUSH1 0x1F DUP1 NOT SWAP2 ADD AND ADD ADD SWAP1 JUMP JUMPDEST PUSH1 0x20 DUP2 DUP4 ADD DUP2 ADD MLOAD DUP5 DUP4 ADD DUP3 ADD MSTORE ADD PUSH2 0x162B JUMP JUMPDEST PUSH1 0x4 CALLDATALOAD SWAP1 PUSH1 0x1 PUSH1 0x1 PUSH1 0xA0 SHL SUB DUP3 AND DUP3 SUB PUSH2 0x1676 JUMPI JUMP JUMPDEST PUSH1 0x0 DUP1 REVERT JUMPDEST PUSH1 0x24 CALLDATALOAD SWAP1 PUSH1 0x1 PUSH1 0x1 PUSH1 0xA0 SHL SUB DUP3 AND DUP3 SUB PUSH2 0x1676 JUMPI JUMP JUMPDEST SWAP1 PUSH1 0x1 DUP3 DUP2 SHR SWAP3 AND DUP1 ISZERO PUSH2 0x16C1 JUMPI JUMPDEST PUSH1 0x20 DUP4 LT EQ PUSH2 0x16AB JUMPI JUMP JUMPDEST PUSH4 0x4E487B71 PUSH1 0xE0 SHL PUSH1 0x0 MSTORE PUSH1 0x22 PUSH1 0x4 MSTORE PUSH1 0x24 PUSH1 0x0 REVERT JUMPDEST SWAP2 PUSH1 0x7F AND SWAP2 PUSH2 0x16A0 JUMP JUMPDEST PUSH1 0x40 MLOAD SWAP1 PUSH1 0x0 DUP3 PUSH1 0x9 SLOAD SWAP2 PUSH2 0x16DF DUP4 PUSH2 0x1691 JUMP JUMPDEST DUP1 DUP4 MSTORE SWAP3 PUSH1 0x1 SWAP1 DUP2 DUP2 AND SWAP1 DUP2 ISZERO PUSH2 0x1767 JUMPI POP PUSH1 0x1 EQ PUSH2 0x1708 JUMPI JUMPDEST POP PUSH2 0x1706 SWAP3 POP SUB DUP4 PUSH2 0x15FE JUMP JUMPDEST JUMP JUMPDEST PUSH1 0x9 PUSH1 0x0 SWAP1 DUP2 MSTORE SWAP2 POP PUSH32 0x6E1540171B6C0C960B71A7020D9F60077F6AF931A8BBF590DA0223DACF75C7AF JUMPDEST DUP5 DUP4 LT PUSH2 0x174C JUMPI POP PUSH2 0x1706 SWAP4 POP POP DUP2 ADD PUSH1 0x20 ADD CODESIZE PUSH2 0x16F9 JUMP JUMPDEST DUP2 SWAP4 POP SWAP1 DUP2 PUSH1 0x20 SWAP3 SLOAD DUP4 DUP6 DUP11 ADD ADD MSTORE ADD SWAP2 ADD SWAP1 SWAP2 DUP6 SWAP3 PUSH2 0x1733 JUMP JUMPDEST SWAP1 POP PUSH1 0x20 SWAP3 POP PUSH2 0x1706 SWAP5 SWAP2 POP PUSH1 0xFF NOT AND DUP3 DUP5 ADD MSTORE ISZERO ISZERO PUSH1 0x5 SHL DUP3 ADD ADD CODESIZE PUSH2 0x16F9 JUMP JUMPDEST PUSH1 0x40 MLOAD SWAP1 PUSH1 0x0 DUP3 PUSH1 0xA SLOAD SWAP2 PUSH2 0x179D DUP4 PUSH2 0x1691 JUMP JUMPDEST DUP1 DUP4 MSTORE SWAP3 PUSH1 0x1 SWAP1 DUP2 DUP2 AND SWAP1 DUP2 ISZERO PUSH2 0x1767 JUMPI POP PUSH1 0x1 EQ PUSH2 0x17C3 JUMPI POP PUSH2 0x1706 SWAP3 POP SUB DUP4 PUSH2 0x15FE JUMP JUMPDEST PUSH1 0xA PUSH1 0x0 SWAP1 DUP2 MSTORE SWAP2 POP PUSH32 0xC65A7BB8D6351C1CF70C95A316CC6A92839C986682D98BC35F958F4883F9D2A8 JUMPDEST DUP5 DUP4 LT PUSH2 0x1807 JUMPI POP PUSH2 0x1706 SWAP4 POP POP DUP2 ADD PUSH1 0x20 ADD CODESIZE PUSH2 0x16F9 JUMP JUMPDEST DUP2 SWAP4 POP SWAP1 DUP2 PUSH1 0x20 SWAP3 SLOAD DUP4 DUP6 DUP11 ADD ADD MSTORE ADD SWAP2 ADD SWAP1 SWAP2 DUP6 SWAP3 PUSH2 0x17EE JUMP JUMPDEST PUSH1 0x40 MLOAD SWAP1 PUSH1 0x0 DUP3 PUSH1 0xE SLOAD SWAP2 PUSH2 0x1836 DUP4 PUSH2 0x1691 JUMP JUMPDEST DUP1 DUP4 MSTORE SWAP3 PUSH1 0x1 SWAP1 DUP2 DUP2 AND SWAP1 DUP2 ISZERO PUSH2 0x1767 JUMPI POP PUSH1 0x1 EQ PUSH2 0x185C JUMPI POP PUSH2 0x1706 SWAP3 POP SUB DUP4 PUSH2 0x15FE JUMP JUMPDEST PUSH1 0xE PUSH1 0x0 SWAP1 DUP2 MSTORE SWAP2 POP PUSH32 0xBB7B4A454DC3493923482F07822329ED19E8244EFF582CC204F8554C3620C3FD JUMPDEST DUP5 DUP4 LT PUSH2 0x18A0 JUMPI POP PUSH2 0x1706 SWAP4 POP POP DUP2 ADD PUSH1 0x20 ADD CODESIZE PUSH2 0x16F9 JUMP JUMPDEST DUP2 SWAP4 POP SWAP1 DUP2 PUSH1 0x20 SWAP3 SLOAD DUP4 DUP6 DUP11 ADD ADD MSTORE ADD SWAP2 ADD SWAP1 SWAP2 DUP6 SWAP3 PUSH2 0x1887 JUMP JUMPDEST PUSH1 0x16 SLOAD DUP2 LT ISZERO PUSH2 0x18F6 JUMPI PUSH1 0x3 SWAP1 PUSH1 0x16 PUSH1 0x0 MSTORE MUL PUSH32 0xD833147D7DC355BA459FC788F669E58CFAF9DC25DDCD0702E87D69C7B5124289 ADD SWAP1 PUSH1 0x0 SWAP1 JUMP JUMPDEST PUSH4 0x4E487B71 PUSH1 0xE0 SHL PUSH1 0x0 MSTORE PUSH1 0x32 PUSH1 0x4 MSTORE PUSH1 0x24 PUSH1 0x0 REVERT JUMPDEST PUSH1 0x5 SLOAD PUSH1 0x1 PUSH1 0x1 PUSH1 0xA0 SHL SUB AND CALLER SUB PUSH2 0x1920 JUMPI JUMP JUMPDEST PUSH1 0x40 MLOAD PUSH4 0x118CDAA7 PUSH1 0xE0 SHL DUP2 MSTORE CALLER PUSH1 0x4 DUP3 ADD MSTORE PUSH1 0x24 SWAP1 REVERT JUMPDEST SWAP2 PUSH1 0x1 PUSH1 0x1 PUSH1 0xA0 SHL SUB DUP1 DUP5 AND SWAP3 DUP4 ISZERO PUSH2 0x19FD JUMPI AND SWAP3 DUP4 ISZERO PUSH2 0x19E4 JUMPI PUSH1 0x0 SWAP1 DUP4 DUP3 MSTORE DUP2 PUSH1 0x20 MSTORE PUSH1 0x40 DUP3 KECCAK256 SLOAD SWAP1 DUP4 DUP3 LT PUSH2 0x19B2 JUMPI POP SWAP2 PUSH1 0x40 DUP3 DUP3 PUSH32 0xDDF252AD1BE2C89B69C2B068FC378DAA952BA7F163C4A11628F55A4DF523B3EF SWAP6 DUP8 PUSH1 0x20 SWAP7 MSTORE DUP3 DUP7 MSTORE SUB DUP3 DUP3 KECCAK256 SSTORE DUP7 DUP2 MSTORE KECCAK256 DUP2 DUP2 SLOAD ADD SWAP1 SSTORE PUSH1 0x40 MLOAD SWAP1 DUP2 MSTORE LOG3 JUMP JUMPDEST PUSH1 0x40 MLOAD PUSH4 0x391434E3 PUSH1 0xE2 SHL DUP2 MSTORE PUSH1 0x1 PUSH1 0x1 PUSH1 0xA0 SHL SUB SWAP2 SWAP1 SWAP2 AND PUSH1 0x4 DUP3 ADD MSTORE PUSH1 0x24 DUP2 ADD SWAP2 SWAP1 SWAP2 MSTORE PUSH1 0x44 DUP2 ADD DUP4 SWAP1 MSTORE PUSH1 0x64 SWAP1 REVERT JUMPDEST PUSH1 0x40 MLOAD PUSH4 0xEC442F05 PUSH1 0xE0 SHL DUP2 MSTORE PUSH1 0x0 PUSH1 0x4 DUP3 ADD MSTORE PUSH1 0x24 SWAP1 REVERT JUMPDEST PUSH1 0x40 MLOAD PUSH4 0x4B637E8F PUSH1 0xE1 SHL DUP2 MSTORE PUSH1 0x0 PUSH1 0x4 DUP3 ADD MSTORE PUSH1 0x24 SWAP1 REVERT JUMPDEST SWAP2 SWAP1 DUP3 ADD DUP1 SWAP3 GT PUSH2 0x1A23 JUMPI JUMP JUMPDEST PUSH4 0x4E487B71 PUSH1 0xE0 SHL PUSH1 0x0 MSTORE PUSH1 0x11 PUSH1 0x4 MSTORE PUSH1 0x24 PUSH1 0x0 REVERT JUMPDEST ISZERO PUSH2 0x1A40 JUMPI JUMP JUMPDEST PUSH1 0x40 MLOAD PUSH3 0x461BCD PUSH1 0xE5 SHL DUP2 MSTORE PUSH1 0x20 PUSH1 0x4 DUP3 ADD MSTORE PUSH1 0x1D PUSH1 0x24 DUP3 ADD MSTORE PUSH32 0x416D6F756E74206D7573742062652067726561746572207468616E2030000000 PUSH1 0x44 DUP3 ADD MSTORE PUSH1 0x64 SWAP1 REVERT JUMPDEST DUP2 DUP2 MUL SWAP3 SWAP2 DUP2 ISZERO SWAP2 DUP5 DIV EQ OR ISZERO PUSH2 0x1A23 JUMPI JUMP JUMPDEST DUP1 ISZERO PUSH2 0x1AA4 DUP2 ISZERO PUSH2 0x1A39 JUMP JUMPDEST PUSH8 0xDE0B6B3A7640000 DUP1 DUP4 MUL SWAP3 DUP4 DIV EQ OR ISZERO PUSH2 0x1A23 JUMPI PUSH1 0x15 SLOAD PUSH1 0x1 DUP2 ADD DUP1 SWAP2 GT PUSH2 0x1A23 JUMPI DUP1 ISZERO PUSH2 0x1AE2 JUMPI PUSH5 0x2540BE400 SWAP2 DIV DUP2 ADD DUP1 SWAP2 GT PUSH2 0x1A23 JUMPI SWAP1 JUMP JUMPDEST PUSH4 0x4E487B71 PUSH1 0xE0 SHL PUSH1 0x0 MSTORE PUSH1 0x12 PUSH1 0x4 MSTORE PUSH1 0x24 PUSH1 0x0 REVERT JUMPDEST ISZERO PUSH2 0x1AFF JUMPI JUMP JUMPDEST PUSH1 0x40 MLOAD PUSH3 0x461BCD PUSH1 0xE5 SHL DUP2 MSTORE PUSH1 0x20 PUSH1 0x4 DUP3 ADD MSTORE PUSH1 0x11 PUSH1 0x24 DUP3 ADD MSTORE PUSH17 0x151C98591A5B99C81A5CC81C185D5CD959 PUSH1 0x7A SHL PUSH1 0x44 DUP3 ADD MSTORE PUSH1 0x64 SWAP1 REVERT JUMPDEST PUSH1 0x16 SLOAD PUSH9 0x10000000000000000 DUP2 LT ISZERO PUSH2 0x15CB JUMPI DUP1 PUSH1 0x1 PUSH2 0x1B5C SWAP3 ADD PUSH1 0x16 SSTORE PUSH2 0x18BB JUMP JUMPDEST SWAP2 SWAP1 SWAP2 PUSH2 0x1B7D JUMPI PUSH1 0x40 DUP2 PUSH1 0x2 SWAP3 MLOAD DUP5 SSTORE PUSH1 0x20 DUP2 ADD MLOAD PUSH1 0x1 DUP6 ADD SSTORE ADD MLOAD SWAP2 ADD SSTORE JUMP JUMPDEST PUSH4 0x4E487B71 PUSH1 0xE0 SHL PUSH1 0x0 MSTORE PUSH1 0x0 PUSH1 0x4 MSTORE PUSH1 0x24 PUSH1 0x0 REVERT JUMPDEST PUSH1 0x0 NOT DUP2 EQ PUSH2 0x1A23 JUMPI PUSH1 0x1 ADD SWAP1 JUMP JUMPDEST SWAP2 SWAP1 DUP3 SUB SWAP2 DUP3 GT PUSH2 0x1A23 JUMPI JUMP JUMPDEST PUSH1 0x2 PUSH1 0x6 SLOAD EQ PUSH2 0x1BC0 JUMPI PUSH1 0x2 PUSH1 0x6 SSTORE JUMP JUMPDEST PUSH1 0x40 MLOAD PUSH4 0x3EE5AEB5 PUSH1 0xE0 SHL DUP2 MSTORE PUSH1 0x4 SWAP1 REVERT JUMPDEST PUSH8 0xFFFFFFFFFFFFFFFF DUP2 GT PUSH2 0x15CB JUMPI PUSH1 0x5 SHL PUSH1 0x20 ADD SWAP1 JUMP JUMPDEST DUP1 MLOAD DUP3 LT ISZERO PUSH2 0x18F6 JUMPI PUSH1 0x20 SWAP2 PUSH1 0x5 SHL ADD ADD SWAP1 JUMP INVALID LOG2 PUSH5 0x6970667358 0x22 SLT KECCAK256 CALLDATACOPY PUSH16 0xE9F696829A61B832158676D642FE35A9 CREATE 0xDA 0x24 NOT 0xA8 DUP5 0x29 DUP14 PUSH1 0xC0 RETURNDATACOPY 0xBF 0xC6 PUSH26 0x64736F6C63430008140033BB7B4A454DC3493923482F07822329 0xED NOT 0xE8 0x24 0x4E SELFDESTRUCT PC 0x2C 0xC2 DIV 0xF8 SSTORE 0x4C CALLDATASIZE KECCAK256 0xC3 REVERT 0xC6 GAS PUSH28 0xB8D6351C1CF70C95A316CC6A92839C986682D98BC35F958F4883F9D2 0xA8 PUSH15 0x1540171B6C0C960B71A7020D9F6007 PUSH32 0x6AF931A8BBF590DA0223DACF75C7AF0000000000000000000000000000000000 "},"methodIdentifiers":{"MAX_SUPPLY()":"32cb6b0c","MIN_LIQUIDITY()":"21b77d63","MIN_PRICE()":"ad9f20a6","allowance(address,address)":"dd62ed3e","approve(address,uint256)":"095ea7b3","balanceOf(address)":"70a08231","basePrice()":"c7876ea4","buyTokens(uint256)":"3610724e","calculatePrice(uint256)":"ae104265","currentPrice()":"9d1b464a","decimals()":"313ce567","getPatentDetails()":"67bf602b","getTokenMetrics()":"f0d673f3","getTradeHistory(uint256)":"873c5e60","holdersCount()":"6b4ed21b","isTrading()":"6e9087db","lastPriceUpdate()":"6949faeb","liquidityPool()":"665a11ca","name()":"06fdde03","owner()":"8da5cb5b","patentDetails()":"52dc0f96","patentId()":"8654aa34","patentRegistryAddress()":"6485b6bb","renounceOwnership()":"715018a6","sellTokens(uint256)":"6c11bcd3","setPatentForSale(bool)":"d3bc9e2a","symbol()":"95d89b41","totalSupply()":"18160ddd","tradeHistory(uint256)":"5b0c5dbd","transfer(address,uint256)":"a9059cbb","transferFrom(address,address,uint256)":"23b872dd","transferOwnership(address)":"f2fde38b","updatePatentDetails(string,uint256)":"045fa779","userTrades(address)":"6a6ae606","virtualReserve()":"80c08a5d","volume24h()":"140b9d84","withdrawExcessLiquidity(uint256)":"2d9e3f62"}}}}}