{"contracts/PatentStaking.sol":{"PatentStaking":{"abi":[{"inputs":[{"internalType":"address","name":"_patentFactory","type":"address"}],"stateMutability":"nonpayable","type":"constructor"},{"inputs":[{"internalType":"address","name":"sender","type":"address"},{"internalType":"uint256","name":"tokenId","type":"uint256"},{"internalType":"address","name":"owner","type":"address"}],"name":"ERC721IncorrectOwner","type":"error"},{"inputs":[{"internalType":"address","name":"operator","type":"address"},{"internalType":"uint256","name":"tokenId","type":"uint256"}],"name":"ERC721InsufficientApproval","type":"error"},{"inputs":[{"internalType":"address","name":"approver","type":"address"}],"name":"ERC721InvalidApprover","type":"error"},{"inputs":[{"internalType":"address","name":"operator","type":"address"}],"name":"ERC721InvalidOperator","type":"error"},{"inputs":[{"internalType":"address","name":"owner","type":"address"}],"name":"ERC721InvalidOwner","type":"error"},{"inputs":[{"internalType":"address","name":"receiver","type":"address"}],"name":"ERC721InvalidReceiver","type":"error"},{"inputs":[{"internalType":"address","name":"sender","type":"address"}],"name":"ERC721InvalidSender","type":"error"},{"inputs":[{"internalType":"uint256","name":"tokenId","type":"uint256"}],"name":"ERC721NonexistentToken","type":"error"},{"inputs":[{"internalType":"address","name":"owner","type":"address"}],"name":"OwnableInvalidOwner","type":"error"},{"inputs":[{"internalType":"address","name":"account","type":"address"}],"name":"OwnableUnauthorizedAccount","type":"error"},{"inputs":[],"name":"ReentrancyGuardReentrantCall","type":"error"},{"anonymous":false,"inputs":[{"indexed":true,"internalType":"address","name":"owner","type":"address"},{"indexed":true,"internalType":"address","name":"approved","type":"address"},{"indexed":true,"internalType":"uint256","name":"tokenId","type":"uint256"}],"name":"Approval","type":"event"},{"anonymous":false,"inputs":[{"indexed":true,"internalType":"address","name":"owner","type":"address"},{"indexed":true,"internalType":"address","name":"operator","type":"address"},{"indexed":false,"internalType":"bool","name":"approved","type":"bool"}],"name":"ApprovalForAll","type":"event"},{"anonymous":false,"inputs":[{"indexed":true,"internalType":"address","name":"previousOwner","type":"address"},{"indexed":true,"internalType":"address","name":"newOwner","type":"address"}],"name":"OwnershipTransferred","type":"event"},{"anonymous":false,"inputs":[{"indexed":true,"internalType":"address","name":"user","type":"address"},{"indexed":true,"internalType":"address","name":"patentToken","type":"address"},{"indexed":false,"internalType":"uint256","name":"amount","type":"uint256"},{"indexed":false,"internalType":"uint256","name":"nftId","type":"uint256"}],"name":"Staked","type":"event"},{"anonymous":false,"inputs":[{"indexed":true,"internalType":"address","name":"from","type":"address"},{"indexed":true,"internalType":"address","name":"to","type":"address"},{"indexed":true,"internalType":"uint256","name":"tokenId","type":"uint256"}],"name":"Transfer","type":"event"},{"anonymous":false,"inputs":[{"indexed":true,"internalType":"address","name":"user","type":"address"},{"indexed":true,"internalType":"address","name":"patentToken","type":"address"},{"indexed":false,"internalType":"uint256","name":"amount","type":"uint256"},{"indexed":false,"internalType":"uint256","name":"nftId","type":"uint256"}],"name":"Unstaked","type":"event"},{"inputs":[],"name":"STAKE_REQUIREMENT","outputs":[{"internalType":"uint256","name":"","type":"uint256"}],"stateMutability":"view","type":"function"},{"inputs":[{"internalType":"address","name":"to","type":"address"},{"internalType":"uint256","name":"tokenId","type":"uint256"}],"name":"approve","outputs":[],"stateMutability":"nonpayable","type":"function"},{"inputs":[{"internalType":"address","name":"owner","type":"address"}],"name":"balanceOf","outputs":[{"internalType":"uint256","name":"","type":"uint256"}],"stateMutability":"view","type":"function"},{"inputs":[{"internalType":"uint256","name":"tokenId","type":"uint256"}],"name":"getApproved","outputs":[{"internalType":"address","name":"","type":"address"}],"stateMutability":"view","type":"function"},{"inputs":[{"internalType":"uint256","name":"tokenId","type":"uint256"}],"name":"getPatentTokenForNFT","outputs":[{"internalType":"address","name":"","type":"address"}],"stateMutability":"view","type":"function"},{"inputs":[{"internalType":"address","name":"owner","type":"address"},{"internalType":"address","name":"operator","type":"address"}],"name":"isApprovedForAll","outputs":[{"internalType":"bool","name":"","type":"bool"}],"stateMutability":"view","type":"function"},{"inputs":[],"name":"name","outputs":[{"internalType":"string","name":"","type":"string"}],"stateMutability":"view","type":"function"},{"inputs":[{"internalType":"address","name":"","type":"address"}],"name":"nextTokenId","outputs":[{"internalType":"uint256","name":"","type":"uint256"}],"stateMutability":"view","type":"function"},{"inputs":[],"name":"owner","outputs":[{"internalType":"address","name":"","type":"address"}],"stateMutability":"view","type":"function"},{"inputs":[{"internalType":"uint256","name":"tokenId","type":"uint256"}],"name":"ownerOf","outputs":[{"internalType":"address","name":"","type":"address"}],"stateMutability":"view","type":"function"},{"inputs":[],"name":"patentFactory","outputs":[{"internalType":"address","name":"","type":"address"}],"stateMutability":"view","type":"function"},{"inputs":[],"name":"renounceOwnership","outputs":[],"stateMutability":"nonpayable","type":"function"},{"inputs":[{"internalType":"address","name":"from","type":"address"},{"internalType":"address","name":"to","type":"address"},{"internalType":"uint256","name":"tokenId","type":"uint256"}],"name":"safeTransferFrom","outputs":[],"stateMutability":"nonpayable","type":"function"},{"inputs":[{"internalType":"address","name":"from","type":"address"},{"internalType":"address","name":"to","type":"address"},{"internalType":"uint256","name":"tokenId","type":"uint256"},{"internalType":"bytes","name":"data","type":"bytes"}],"name":"safeTransferFrom","outputs":[],"stateMutability":"nonpayable","type":"function"},{"inputs":[{"internalType":"address","name":"operator","type":"address"},{"internalType":"bool","name":"approved","type":"bool"}],"name":"setApprovalForAll","outputs":[],"stateMutability":"nonpayable","type":"function"},{"inputs":[{"internalType":"address","name":"patentToken","type":"address"},{"internalType":"uint256","name":"amount","type":"uint256"}],"name":"stake","outputs":[],"stateMutability":"nonpayable","type":"function"},{"inputs":[{"internalType":"uint256","name":"","type":"uint256"}],"name":"stakedAmount","outputs":[{"internalType":"uint256","name":"","type":"uint256"}],"stateMutability":"view","type":"function"},{"inputs":[{"internalType":"bytes4","name":"interfaceId","type":"bytes4"}],"name":"supportsInterface","outputs":[{"internalType":"bool","name":"","type":"bool"}],"stateMutability":"view","type":"function"},{"inputs":[],"name":"symbol","outputs":[{"internalType":"string","name":"","type":"string"}],"stateMutability":"view","type":"function"},{"inputs":[{"internalType":"uint256","name":"tokenId","type":"uint256"}],"name":"tokenURI","outputs":[{"internalType":"string","name":"","type":"string"}],"stateMutability":"view","type":"function"},{"inputs":[{"internalType":"address","name":"from","type":"address"},{"internalType":"address","name":"to","type":"address"},{"internalType":"uint256","name":"tokenId","type":"uint256"}],"name":"transferFrom","outputs":[],"stateMutability":"nonpayable","type":"function"},{"inputs":[{"internalType":"address","name":"newOwner","type":"address"}],"name":"transferOwnership","outputs":[],"stateMutability":"nonpayable","type":"function"},{"inputs":[{"internalType":"uint256","name":"tokenId","type":"uint256"}],"name":"unstake","outputs":[],"stateMutability":"nonpayable","type":"function"}],"evm":{"bytecode":{"linkReferences":{},"object":"60a0346200041a57601f1990601f906001600160401b036200168938819003848101861684018381118582101762000404578492829160405283396020938491810103126200041a5751936001600160a01b0393848616928387036200041a57620000696200041f565b91601383527f506174656e742055736167652052696768747300000000000000000000000000868401526200009d6200041f565b6003815262282aa960e91b8782015283519483861162000404576000958654956001968781811c91168015620003f9575b8b821014620003e55790818684931162000392575b508a908683116001146200032f57899262000323575b5050600019600383901b1c191690861b1786555b81519384116200030f5784548581811c9116801562000304575b89821014620002f057908184869594931162000299575b508892841160011462000238575085926200022c575b5050600019600383901b1c191690821b1781555b60065533156200021457600754903360018060a01b03198316176007557f8be0079c531659141344cd1fd0a4f28419497f9722a3daafe3b4186f6b6457e0604051953393169180a315620001d357826080526040516112499081620004408239608051816108a50152f35b62461bcd60e51b82526004820152601760248201527f496e76616c696420666163746f72792061646472657373000000000000000000604482015260649150fd5b60249060405190631e4fbdf760e01b82526004820152fd5b01519050388062000154565b85875288872086959093929116875b8a82821062000282575050841162000268575b505050811b01815562000168565b015160001960f88460031b161c191690553880806200025a565b838501518655889790950194938401930162000247565b90919293508587528887208480870160051c8201928b8810620002e6575b9187968992969594930160051c01915b828110620002d75750506200013e565b898155879650889101620002c7565b92508192620002b7565b634e487b7160e01b87526022600452602487fd5b90607f169062000127565b634e487b7160e01b86526041600452602486fd5b015190503880620000f9565b9084899416918a80528c8b20928d8c905b8282106200037a575050841162000360575b505050811b0186556200010d565b015160001960f88460031b161c1916905538808062000352565b8385015186558c979095019493840193018e62000340565b9091508880528a89208680850160051c8201928d8610620003db575b918a91869594930160051c01915b828110620003cc575050620000e3565b8b81558594508a9101620003bc565b92508192620003ae565b634e487b7160e01b89526022600452602489fd5b90607f1690620000ce565b634e487b7160e01b600052604160045260246000fd5b600080fd5b60408051919082016001600160401b03811183821017620004045760405256fe6080604081815260048036101561001557600080fd5b600092833560e01c90816301ffc9a714610cc05750806306fdde0314610bf5578063081812fc14610bba578063095ea7b314610ade57806323b872dd14610ac65780632e17de78146108fd57806342842e0e146108d457806358722a07146108905780635a459ed4146108695780636352211e1461083857806368ee9d6d1461081757806370a08231146107c2578063715018a6146107655780638da5cb5b1461073c57806395d89b4114610623578063a22cb46514610582578063adc9772e1461033c578063b88d4fde146102b3578063c118258b1461028f578063c852b1bf14610257578063c87b56dd14610204578063e985e9c5146101b25763f2fde38b1461012057600080fd5b346101ae5760203660031901126101ae57610139610d6c565b90610142610e42565b6001600160a01b03918216928315610198575050600754826bffffffffffffffffffffffff60a01b821617600755167f8be0079c531659141344cd1fd0a4f28419497f9722a3daafe3b4186f6b6457e08380a380f35b51631e4fbdf760e01b8152908101849052602490fd5b8280fd5b50503461020057806003193601126102005760ff816020936101d2610d6c565b6101da610d87565b6001600160a01b0391821683526005875283832091168252855220549151911615158152f35b5080fd5b5091903461020057602036600319011261020057610225610253933561115f565b5081815161023281610dd2565b5280519161023f83610dd2565b825251918291602083526020830190610d2c565b0390f35b5050346102005760203660031901126102005760209181906001600160a01b0361027f610d6c565b1681526009845220549051908152f35b50503461020057816003193601126102005760209051683635c9adc5dea000008152f35b5090346101ae5760803660031901126101ae576102ce610d6c565b6102d6610d87565b846064359467ffffffffffffffff86116102005736602387011215610200578501359461030e61030587610e26565b95519586610e04565b8585523660248783010111610200578561033996602460209301838801378501015260443591611010565b80f35b50346101ae57816003193601126101ae57610355610d6c565b916024928335926103646111f0565b683635c9adc5dea0000084106105405782516323b872dd60e01b815233828201523081870152604481018590526001600160a01b0392831695602092909183816064818c8c5af190811561053657906103c4918a91610509575b506111b2565b86885260098352848820805494600019918287146104f75760018701905533156104e1578590818b5260028652878b20541680151592836104af575b5033808c5260038752888c2080546001019055828c5260028752888c2080546001600160a01b03191682179055907fddf252ad1be2c89b69c2b068fc378daa952ba7f163c4a11628f55a4df523b3ef8c80a461049b575050907f6c86f3fd5118b3aa8bb4f389a617046de0a3d3d477de1a1673d227f802f616dc929181875260088152848388205582519485528401523392a3600160065580f35b84516339e3563760e11b8152908101889052fd5b600083815260046020526040902080546001600160a01b0319169055818c5260038752888c2090815401905538610400565b50508451633250574960e11b8152908101889052fd5b634e487b7160e01b8b5260118452848bfd5b6105299150853d871161052f575b6105218183610e04565b81019061119a565b386103be565b503d610517565b86513d8b823e3d90fd5b606490601f86602086519362461bcd60e51b85528401528201527f4d757374207374616b65206174206c65617374203130303020746f6b656e73006044820152fd5b5090346101ae57806003193601126101ae5761059c610d6c565b906024359182151580930361061f576001600160a01b031692831561060a5750338452600560205280842083855260205280842060ff1981541660ff8416179055519081527f17307eab39ab6107e8899845ad3d59bd9653f200f220920489ca2b5937696c3160203392a380f35b836024925191630b61174360e31b8352820152fd5b8480fd5b5091346107395780600319360112610739578151918160019283549384811c9181861695861561072f575b602096878510811461071c578899509688969785829a5291826000146106f557505060011461069a575b505050610253929161068b910385610e04565b51928284938452830190610d2c565b91908693508083527fb10e2d527612073b26eecdfd717e6a320cf44b4afac2b0732d9fcbe2b7fa0cf65b8284106106dd575050508201018161068b610253610678565b8054848a0186015288955087949093019281016106c4565b60ff19168782015293151560051b8601909301935084925061068b91506102539050610678565b634e487b7160e01b835260228a52602483fd5b92607f169261064e565b80fd5b50503461020057816003193601126102005760075490516001600160a01b039091168152602090f35b833461073957806003193601126107395761077e610e42565b600780546001600160a01b0319811690915581906001600160a01b03167f8be0079c531659141344cd1fd0a4f28419497f9722a3daafe3b4186f6b6457e08280a380f35b509134610739576020366003190112610739576001600160a01b036107e5610d6c565b169283156108025750806020938392526003845220549051908152f35b91516322718ad960e21b815291820152602490fd5b5090346101ae5760203660031901126101ae576020925051903560601c8152f35b50913461073957602036600319011261073957506108586020923561115f565b90516001600160a01b039091168152f35b50346101ae5760203660031901126101ae5760209282913581526008845220549051908152f35b505034610200578160031936011261020057517f00000000000000000000000000000000000000000000000000000000000000006001600160a01b03168152602090f35b50503461020057610339906108e836610d9d565b919251926108f584610dd2565b858452611010565b50919034610200576020806003193601126101ae5783359161091d6111f0565b6109268361115f565b6001600160a01b0393903390851603610a8f578085526008835281852054928160601c9460028252838720541682878215928315610a5c575b8282526002855286822080546001600160a01b03191690557fddf252ad1be2c89b69c2b068fc378daa952ba7f163c4a11628f55a4df523b3ef8280a4610a4557825163a9059cbb60e01b81523397810197885260208801859052959681908790819060400103818a895af1958615610a3b577f06cc7e90b4f2b554a9614b0caa84f909f3498c820ae47c731f490c28c07f7d3b949596610a05918991610a2457506111b2565b81875260088152868381205582519485528401523392a3600160065580f35b6105299150833d851161052f576105218183610e04565b83513d89823e3d90fd5b8251637e27328960e01b8152808801839052602490fd5b600083815260046020526040902080546001600160a01b031916905580825260038552868220805460001901905561095f565b815162461bcd60e51b815280870184905260116024820152702737ba103a34329027232a1037bbb732b960791b6044820152606490fd5b833461073957610339610ad836610d9d565b91610e6e565b5090346101ae57806003193601126101ae57610af8610d6c565b91602435610b058161115f565b33151580610ba7575b80610b7e575b610b68576001600160a01b039485169482918691167f8c5be1e5ebec7d5bd14f71427d1e84f3dd0314c0f7b2291e5b200ac8c7c3b9258880a48452602052822080546001600160a01b031916909117905580f35b835163a9fbf51f60e01b81523381850152602490fd5b506001600160a01b03811686526005602090815284872033885290528386205460ff1615610b14565b506001600160a01b038116331415610b0e565b50346101ae5760203660031901126101ae57918260209335610bdb8161115f565b50825283528190205490516001600160a01b039091168152f35b50913461073957806003193601126107395781519181825492600184811c91818616958615610cb6575b602096878510811461071c578899509688969785829a5291826000146106f5575050600114610c5b57505050610253929161068b910385610e04565b91908693508280527f290decd9548b62a8d60345a988386fc84ba6bc95484008f6362f93160ef3e5635b828410610c9e575050508201018161068b610253610678565b8054848a018601528895508794909301928101610c85565b92607f1692610c1f565b925050346101ae5760203660031901126101ae573563ffffffff60e01b81168091036101ae57602092506380ac58cd60e01b8114908115610d1b575b8115610d0a575b5015158152f35b6301ffc9a760e01b14905038610d03565b635b5e139f60e01b81149150610cfc565b919082519283825260005b848110610d58575050826000602080949584010152601f8019910116010190565b602081830181015184830182015201610d37565b600435906001600160a01b0382168203610d8257565b600080fd5b602435906001600160a01b0382168203610d8257565b6060906003190112610d82576001600160a01b03906004358281168103610d8257916024359081168103610d82579060443590565b6020810190811067ffffffffffffffff821117610dee57604052565b634e487b7160e01b600052604160045260246000fd5b90601f8019910116810190811067ffffffffffffffff821117610dee57604052565b67ffffffffffffffff8111610dee57601f01601f191660200190565b6007546001600160a01b03163303610e5657565b60405163118cdaa760e01b8152336004820152602490fd5b6001600160a01b039182169290918315610ff757600092828452826020956002875260409684888820541696879133151580610f5e575b509060027fddf252ad1be2c89b69c2b068fc378daa952ba7f163c4a11628f55a4df523b3ef9284610f2b575b858352600381528b8320805460010190558683525289812080546001600160a01b0319168517905580a41692838303610f0a5750505050565b6064945051926364283d7b60e01b8452600484015260248301526044820152fd5b600087815260046020526040902080546001600160a01b0319169055848352600381528b83208054600019019055610ed1565b91939450915080610fb6575b15610f7a57859291879138610ea5565b878688610f97576024915190637e27328960e01b82526004820152fd5b905163177e802f60e01b81523360048201526024810191909152604490fd5b503387148015610fdb575b80610f6a5750858252600481523385898420541614610f6a565b5086825260058152878220338352815260ff8883205416610fc1565b604051633250574960e11b815260006004820152602490fd5b61101b838383610e6e565b813b611028575b50505050565b604051630a85bd0160e11b8082523360048301526001600160a01b03928316602483015260448201949094526080606482015260209592909116939092908390611076906084830190610d2c565b039285816000958187895af184918161111f575b506110ea575050503d6000146110e2573d6110a481610e26565b906110b26040519283610e04565b81528091843d92013e5b805192836110dd57604051633250574960e11b815260048101849052602490fd5b019050fd5b5060606110bc565b919450915063ffffffff60e01b1603611107575038808080611022565b60249060405190633250574960e11b82526004820152fd5b9091508681813d8311611158575b6111378183610e04565b8101031261061f57516001600160e01b03198116810361061f57903861108a565b503d61112d565b6000818152600260205260409020546001600160a01b0316908115611182575090565b60249060405190637e27328960e01b82526004820152fd5b90816020910312610d8257518015158103610d825790565b156111b957565b60405162461bcd60e51b815260206004820152600f60248201526e151c985b9cd9995c8819985a5b1959608a1b6044820152606490fd5b600260065414611201576002600655565b604051633ee5aeb560e01b8152600490fdfea2646970667358221220f6a219ca0699d3487e1b0aa8a7e3383c0a222b83e400591e04f29904d89e9caa64736f6c63430008140033","opcodes":"PUSH1 0xA0 CALLVALUE PUSH3 0x41A JUMPI PUSH1 0x1F NOT SWAP1 PUSH1 0x1F SWAP1 PUSH1 0x1 PUSH1 0x1 PUSH1 0x40 SHL SUB PUSH3 0x1689 CODESIZE DUP2 SWAP1 SUB DUP5 DUP2 ADD DUP7 AND DUP5 ADD DUP4 DUP2 GT DUP6 DUP3 LT OR PUSH3 0x404 JUMPI DUP5 SWAP3 DUP3 SWAP2 PUSH1 0x40 MSTORE DUP4 CODECOPY PUSH1 0x20 SWAP4 DUP5 SWAP2 DUP2 ADD SUB SLT PUSH3 0x41A JUMPI MLOAD SWAP4 PUSH1 0x1 PUSH1 0x1 PUSH1 0xA0 SHL SUB SWAP4 DUP5 DUP7 AND SWAP3 DUP4 DUP8 SUB PUSH3 0x41A JUMPI PUSH3 0x69 PUSH3 0x41F JUMP JUMPDEST SWAP2 PUSH1 0x13 DUP4 MSTORE PUSH32 0x506174656E742055736167652052696768747300000000000000000000000000 DUP7 DUP5 ADD MSTORE PUSH3 0x9D PUSH3 0x41F JUMP JUMPDEST PUSH1 0x3 DUP2 MSTORE PUSH3 0x282AA9 PUSH1 0xE9 SHL DUP8 DUP3 ADD MSTORE DUP4 MLOAD SWAP5 DUP4 DUP7 GT PUSH3 0x404 JUMPI PUSH1 0x0 SWAP6 DUP7 SLOAD SWAP6 PUSH1 0x1 SWAP7 DUP8 DUP2 DUP2 SHR SWAP2 AND DUP1 ISZERO PUSH3 0x3F9 JUMPI JUMPDEST DUP12 DUP3 LT EQ PUSH3 0x3E5 JUMPI SWAP1 DUP2 DUP7 DUP5 SWAP4 GT PUSH3 0x392 JUMPI JUMPDEST POP DUP11 SWAP1 DUP7 DUP4 GT PUSH1 0x1 EQ PUSH3 0x32F JUMPI DUP10 SWAP3 PUSH3 0x323 JUMPI JUMPDEST POP POP PUSH1 0x0 NOT PUSH1 0x3 DUP4 SWAP1 SHL SHR NOT AND SWAP1 DUP7 SHL OR DUP7 SSTORE JUMPDEST DUP2 MLOAD SWAP4 DUP5 GT PUSH3 0x30F JUMPI DUP5 SLOAD DUP6 DUP2 DUP2 SHR SWAP2 AND DUP1 ISZERO PUSH3 0x304 JUMPI JUMPDEST DUP10 DUP3 LT EQ PUSH3 0x2F0 JUMPI SWAP1 DUP2 DUP5 DUP7 SWAP6 SWAP5 SWAP4 GT PUSH3 0x299 JUMPI JUMPDEST POP DUP9 SWAP3 DUP5 GT PUSH1 0x1 EQ PUSH3 0x238 JUMPI POP DUP6 SWAP3 PUSH3 0x22C JUMPI JUMPDEST POP POP PUSH1 0x0 NOT PUSH1 0x3 DUP4 SWAP1 SHL SHR NOT AND SWAP1 DUP3 SHL OR DUP2 SSTORE JUMPDEST PUSH1 0x6 SSTORE CALLER ISZERO PUSH3 0x214 JUMPI PUSH1 0x7 SLOAD SWAP1 CALLER PUSH1 0x1 DUP1 PUSH1 0xA0 SHL SUB NOT DUP4 AND OR PUSH1 0x7 SSTORE PUSH32 0x8BE0079C531659141344CD1FD0A4F28419497F9722A3DAAFE3B4186F6B6457E0 PUSH1 0x40 MLOAD SWAP6 CALLER SWAP4 AND SWAP2 DUP1 LOG3 ISZERO PUSH3 0x1D3 JUMPI DUP3 PUSH1 0x80 MSTORE PUSH1 0x40 MLOAD PUSH2 0x1249 SWAP1 DUP2 PUSH3 0x440 DUP3 CODECOPY PUSH1 0x80 MLOAD DUP2 PUSH2 0x8A5 ADD MSTORE RETURN JUMPDEST PUSH3 0x461BCD PUSH1 0xE5 SHL DUP3 MSTORE PUSH1 0x4 DUP3 ADD MSTORE PUSH1 0x17 PUSH1 0x24 DUP3 ADD MSTORE PUSH32 0x496E76616C696420666163746F72792061646472657373000000000000000000 PUSH1 0x44 DUP3 ADD MSTORE PUSH1 0x64 SWAP2 POP REVERT JUMPDEST PUSH1 0x24 SWAP1 PUSH1 0x40 MLOAD SWAP1 PUSH4 0x1E4FBDF7 PUSH1 0xE0 SHL DUP3 MSTORE PUSH1 0x4 DUP3 ADD MSTORE REVERT JUMPDEST ADD MLOAD SWAP1 POP CODESIZE DUP1 PUSH3 0x154 JUMP JUMPDEST DUP6 DUP8 MSTORE DUP9 DUP8 KECCAK256 DUP7 SWAP6 SWAP1 SWAP4 SWAP3 SWAP2 AND DUP8 JUMPDEST DUP11 DUP3 DUP3 LT PUSH3 0x282 JUMPI POP POP DUP5 GT PUSH3 0x268 JUMPI JUMPDEST POP POP POP DUP2 SHL ADD DUP2 SSTORE PUSH3 0x168 JUMP JUMPDEST ADD MLOAD PUSH1 0x0 NOT PUSH1 0xF8 DUP5 PUSH1 0x3 SHL AND SHR NOT AND SWAP1 SSTORE CODESIZE DUP1 DUP1 PUSH3 0x25A JUMP JUMPDEST DUP4 DUP6 ADD MLOAD DUP7 SSTORE DUP9 SWAP8 SWAP1 SWAP6 ADD SWAP5 SWAP4 DUP5 ADD SWAP4 ADD PUSH3 0x247 JUMP JUMPDEST SWAP1 SWAP2 SWAP3 SWAP4 POP DUP6 DUP8 MSTORE DUP9 DUP8 KECCAK256 DUP5 DUP1 DUP8 ADD PUSH1 0x5 SHR DUP3 ADD SWAP3 DUP12 DUP9 LT PUSH3 0x2E6 JUMPI JUMPDEST SWAP2 DUP8 SWAP7 DUP10 SWAP3 SWAP7 SWAP6 SWAP5 SWAP4 ADD PUSH1 0x5 SHR ADD SWAP2 JUMPDEST DUP3 DUP2 LT PUSH3 0x2D7 JUMPI POP POP PUSH3 0x13E JUMP JUMPDEST DUP10 DUP2 SSTORE DUP8 SWAP7 POP DUP9 SWAP2 ADD PUSH3 0x2C7 JUMP JUMPDEST SWAP3 POP DUP2 SWAP3 PUSH3 0x2B7 JUMP JUMPDEST PUSH4 0x4E487B71 PUSH1 0xE0 SHL DUP8 MSTORE PUSH1 0x22 PUSH1 0x4 MSTORE PUSH1 0x24 DUP8 REVERT JUMPDEST SWAP1 PUSH1 0x7F AND SWAP1 PUSH3 0x127 JUMP JUMPDEST PUSH4 0x4E487B71 PUSH1 0xE0 SHL DUP7 MSTORE PUSH1 0x41 PUSH1 0x4 MSTORE PUSH1 0x24 DUP7 REVERT JUMPDEST ADD MLOAD SWAP1 POP CODESIZE DUP1 PUSH3 0xF9 JUMP JUMPDEST SWAP1 DUP5 DUP10 SWAP5 AND SWAP2 DUP11 DUP1 MSTORE DUP13 DUP12 KECCAK256 SWAP3 DUP14 DUP13 SWAP1 JUMPDEST DUP3 DUP3 LT PUSH3 0x37A JUMPI POP POP DUP5 GT PUSH3 0x360 JUMPI JUMPDEST POP POP POP DUP2 SHL ADD DUP7 SSTORE PUSH3 0x10D JUMP JUMPDEST ADD MLOAD PUSH1 0x0 NOT PUSH1 0xF8 DUP5 PUSH1 0x3 SHL AND SHR NOT AND SWAP1 SSTORE CODESIZE DUP1 DUP1 PUSH3 0x352 JUMP JUMPDEST DUP4 DUP6 ADD MLOAD DUP7 SSTORE DUP13 SWAP8 SWAP1 SWAP6 ADD SWAP5 SWAP4 DUP5 ADD SWAP4 ADD DUP15 PUSH3 0x340 JUMP JUMPDEST SWAP1 SWAP2 POP DUP9 DUP1 MSTORE DUP11 DUP10 KECCAK256 DUP7 DUP1 DUP6 ADD PUSH1 0x5 SHR DUP3 ADD SWAP3 DUP14 DUP7 LT PUSH3 0x3DB JUMPI JUMPDEST SWAP2 DUP11 SWAP2 DUP7 SWAP6 SWAP5 SWAP4 ADD PUSH1 0x5 SHR ADD SWAP2 JUMPDEST DUP3 DUP2 LT PUSH3 0x3CC JUMPI POP POP PUSH3 0xE3 JUMP JUMPDEST DUP12 DUP2 SSTORE DUP6 SWAP5 POP DUP11 SWAP2 ADD PUSH3 0x3BC JUMP JUMPDEST SWAP3 POP DUP2 SWAP3 PUSH3 0x3AE JUMP JUMPDEST PUSH4 0x4E487B71 PUSH1 0xE0 SHL DUP10 MSTORE PUSH1 0x22 PUSH1 0x4 MSTORE PUSH1 0x24 DUP10 REVERT JUMPDEST SWAP1 PUSH1 0x7F AND SWAP1 PUSH3 0xCE JUMP JUMPDEST PUSH4 0x4E487B71 PUSH1 0xE0 SHL PUSH1 0x0 MSTORE PUSH1 0x41 PUSH1 0x4 MSTORE PUSH1 0x24 PUSH1 0x0 REVERT JUMPDEST PUSH1 0x0 DUP1 REVERT JUMPDEST PUSH1 0x40 DUP1 MLOAD SWAP2 SWAP1 DUP3 ADD PUSH1 0x1 PUSH1 0x1 PUSH1 0x40 SHL SUB DUP2 GT DUP4 DUP3 LT OR PUSH3 0x404 JUMPI PUSH1 0x40 MSTORE JUMP INVALID PUSH1 0x80 PUSH1 0x40 DUP2 DUP2 MSTORE PUSH1 0x4 DUP1 CALLDATASIZE LT ISZERO PUSH2 0x15 JUMPI PUSH1 0x0 DUP1 REVERT JUMPDEST PUSH1 0x0 SWAP3 DUP4 CALLDATALOAD PUSH1 0xE0 SHR SWAP1 DUP2 PUSH4 0x1FFC9A7 EQ PUSH2 0xCC0 JUMPI POP DUP1 PUSH4 0x6FDDE03 EQ PUSH2 0xBF5 JUMPI DUP1 PUSH4 0x81812FC EQ PUSH2 0xBBA JUMPI DUP1 PUSH4 0x95EA7B3 EQ PUSH2 0xADE JUMPI DUP1 PUSH4 0x23B872DD EQ PUSH2 0xAC6 JUMPI DUP1 PUSH4 0x2E17DE78 EQ PUSH2 0x8FD JUMPI DUP1 PUSH4 0x42842E0E EQ PUSH2 0x8D4 JUMPI DUP1 PUSH4 0x58722A07 EQ PUSH2 0x890 JUMPI DUP1 PUSH4 0x5A459ED4 EQ PUSH2 0x869 JUMPI DUP1 PUSH4 0x6352211E EQ PUSH2 0x838 JUMPI DUP1 PUSH4 0x68EE9D6D EQ PUSH2 0x817 JUMPI DUP1 PUSH4 0x70A08231 EQ PUSH2 0x7C2 JUMPI DUP1 PUSH4 0x715018A6 EQ PUSH2 0x765 JUMPI DUP1 PUSH4 0x8DA5CB5B EQ PUSH2 0x73C JUMPI DUP1 PUSH4 0x95D89B41 EQ PUSH2 0x623 JUMPI DUP1 PUSH4 0xA22CB465 EQ PUSH2 0x582 JUMPI DUP1 PUSH4 0xADC9772E EQ PUSH2 0x33C JUMPI DUP1 PUSH4 0xB88D4FDE EQ PUSH2 0x2B3 JUMPI DUP1 PUSH4 0xC118258B EQ PUSH2 0x28F JUMPI DUP1 PUSH4 0xC852B1BF EQ PUSH2 0x257 JUMPI DUP1 PUSH4 0xC87B56DD EQ PUSH2 0x204 JUMPI DUP1 PUSH4 0xE985E9C5 EQ PUSH2 0x1B2 JUMPI PUSH4 0xF2FDE38B EQ PUSH2 0x120 JUMPI PUSH1 0x0 DUP1 REVERT JUMPDEST CALLVALUE PUSH2 0x1AE JUMPI PUSH1 0x20 CALLDATASIZE PUSH1 0x3 NOT ADD SLT PUSH2 0x1AE JUMPI PUSH2 0x139 PUSH2 0xD6C JUMP JUMPDEST SWAP1 PUSH2 0x142 PUSH2 0xE42 JUMP JUMPDEST PUSH1 0x1 PUSH1 0x1 PUSH1 0xA0 SHL SUB SWAP2 DUP3 AND SWAP3 DUP4 ISZERO PUSH2 0x198 JUMPI POP POP PUSH1 0x7 SLOAD DUP3 PUSH12 0xFFFFFFFFFFFFFFFFFFFFFFFF PUSH1 0xA0 SHL DUP3 AND OR PUSH1 0x7 SSTORE AND PUSH32 0x8BE0079C531659141344CD1FD0A4F28419497F9722A3DAAFE3B4186F6B6457E0 DUP4 DUP1 LOG3 DUP1 RETURN JUMPDEST MLOAD PUSH4 0x1E4FBDF7 PUSH1 0xE0 SHL DUP2 MSTORE SWAP1 DUP2 ADD DUP5 SWAP1 MSTORE PUSH1 0x24 SWAP1 REVERT JUMPDEST DUP3 DUP1 REVERT JUMPDEST POP POP CALLVALUE PUSH2 0x200 JUMPI DUP1 PUSH1 0x3 NOT CALLDATASIZE ADD SLT PUSH2 0x200 JUMPI PUSH1 0xFF DUP2 PUSH1 0x20 SWAP4 PUSH2 0x1D2 PUSH2 0xD6C JUMP JUMPDEST PUSH2 0x1DA PUSH2 0xD87 JUMP JUMPDEST PUSH1 0x1 PUSH1 0x1 PUSH1 0xA0 SHL SUB SWAP2 DUP3 AND DUP4 MSTORE PUSH1 0x5 DUP8 MSTORE DUP4 DUP4 KECCAK256 SWAP2 AND DUP3 MSTORE DUP6 MSTORE KECCAK256 SLOAD SWAP2 MLOAD SWAP2 AND ISZERO ISZERO DUP2 MSTORE RETURN JUMPDEST POP DUP1 REVERT JUMPDEST POP SWAP2 SWAP1 CALLVALUE PUSH2 0x200 JUMPI PUSH1 0x20 CALLDATASIZE PUSH1 0x3 NOT ADD SLT PUSH2 0x200 JUMPI PUSH2 0x225 PUSH2 0x253 SWAP4 CALLDATALOAD PUSH2 0x115F JUMP JUMPDEST POP DUP2 DUP2 MLOAD PUSH2 0x232 DUP2 PUSH2 0xDD2 JUMP JUMPDEST MSTORE DUP1 MLOAD SWAP2 PUSH2 0x23F DUP4 PUSH2 0xDD2 JUMP JUMPDEST DUP3 MSTORE MLOAD SWAP2 DUP3 SWAP2 PUSH1 0x20 DUP4 MSTORE PUSH1 0x20 DUP4 ADD SWAP1 PUSH2 0xD2C JUMP JUMPDEST SUB SWAP1 RETURN JUMPDEST POP POP CALLVALUE PUSH2 0x200 JUMPI PUSH1 0x20 CALLDATASIZE PUSH1 0x3 NOT ADD SLT PUSH2 0x200 JUMPI PUSH1 0x20 SWAP2 DUP2 SWAP1 PUSH1 0x1 PUSH1 0x1 PUSH1 0xA0 SHL SUB PUSH2 0x27F PUSH2 0xD6C JUMP JUMPDEST AND DUP2 MSTORE PUSH1 0x9 DUP5 MSTORE KECCAK256 SLOAD SWAP1 MLOAD SWAP1 DUP2 MSTORE RETURN JUMPDEST POP POP CALLVALUE PUSH2 0x200 JUMPI DUP2 PUSH1 0x3 NOT CALLDATASIZE ADD SLT PUSH2 0x200 JUMPI PUSH1 0x20 SWAP1 MLOAD PUSH9 0x3635C9ADC5DEA00000 DUP2 MSTORE RETURN JUMPDEST POP SWAP1 CALLVALUE PUSH2 0x1AE JUMPI PUSH1 0x80 CALLDATASIZE PUSH1 0x3 NOT ADD SLT PUSH2 0x1AE JUMPI PUSH2 0x2CE PUSH2 0xD6C JUMP JUMPDEST PUSH2 0x2D6 PUSH2 0xD87 JUMP JUMPDEST DUP5 PUSH1 0x64 CALLDATALOAD SWAP5 PUSH8 0xFFFFFFFFFFFFFFFF DUP7 GT PUSH2 0x200 JUMPI CALLDATASIZE PUSH1 0x23 DUP8 ADD SLT ISZERO PUSH2 0x200 JUMPI DUP6 ADD CALLDATALOAD SWAP5 PUSH2 0x30E PUSH2 0x305 DUP8 PUSH2 0xE26 JUMP JUMPDEST SWAP6 MLOAD SWAP6 DUP7 PUSH2 0xE04 JUMP JUMPDEST DUP6 DUP6 MSTORE CALLDATASIZE PUSH1 0x24 DUP8 DUP4 ADD ADD GT PUSH2 0x200 JUMPI DUP6 PUSH2 0x339 SWAP7 PUSH1 0x24 PUSH1 0x20 SWAP4 ADD DUP4 DUP9 ADD CALLDATACOPY DUP6 ADD ADD MSTORE PUSH1 0x44 CALLDATALOAD SWAP2 PUSH2 0x1010 JUMP JUMPDEST DUP1 RETURN JUMPDEST POP CALLVALUE PUSH2 0x1AE JUMPI DUP2 PUSH1 0x3 NOT CALLDATASIZE ADD SLT PUSH2 0x1AE JUMPI PUSH2 0x355 PUSH2 0xD6C JUMP JUMPDEST SWAP2 PUSH1 0x24 SWAP3 DUP4 CALLDATALOAD SWAP3 PUSH2 0x364 PUSH2 0x11F0 JUMP JUMPDEST PUSH9 0x3635C9ADC5DEA00000 DUP5 LT PUSH2 0x540 JUMPI DUP3 MLOAD PUSH4 0x23B872DD PUSH1 0xE0 SHL DUP2 MSTORE CALLER DUP3 DUP3 ADD MSTORE ADDRESS DUP2 DUP8 ADD MSTORE PUSH1 0x44 DUP2 ADD DUP6 SWAP1 MSTORE PUSH1 0x1 PUSH1 0x1 PUSH1 0xA0 SHL SUB SWAP3 DUP4 AND SWAP6 PUSH1 0x20 SWAP3 SWAP1 SWAP2 DUP4 DUP2 PUSH1 0x64 DUP2 DUP13 DUP13 GAS CALL SWAP1 DUP2 ISZERO PUSH2 0x536 JUMPI SWAP1 PUSH2 0x3C4 SWAP2 DUP11 SWAP2 PUSH2 0x509 JUMPI JUMPDEST POP PUSH2 0x11B2 JUMP JUMPDEST DUP7 DUP9 MSTORE PUSH1 0x9 DUP4 MSTORE DUP5 DUP9 KECCAK256 DUP1 SLOAD SWAP5 PUSH1 0x0 NOT SWAP2 DUP3 DUP8 EQ PUSH2 0x4F7 JUMPI PUSH1 0x1 DUP8 ADD SWAP1 SSTORE CALLER ISZERO PUSH2 0x4E1 JUMPI DUP6 SWAP1 DUP2 DUP12 MSTORE PUSH1 0x2 DUP7 MSTORE DUP8 DUP12 KECCAK256 SLOAD AND DUP1 ISZERO ISZERO SWAP3 DUP4 PUSH2 0x4AF JUMPI JUMPDEST POP CALLER DUP1 DUP13 MSTORE PUSH1 0x3 DUP8 MSTORE DUP9 DUP13 KECCAK256 DUP1 SLOAD PUSH1 0x1 ADD SWAP1 SSTORE DUP3 DUP13 MSTORE PUSH1 0x2 DUP8 MSTORE DUP9 DUP13 KECCAK256 DUP1 SLOAD PUSH1 0x1 PUSH1 0x1 PUSH1 0xA0 SHL SUB NOT AND DUP3 OR SWAP1 SSTORE SWAP1 PUSH32 0xDDF252AD1BE2C89B69C2B068FC378DAA952BA7F163C4A11628F55A4DF523B3EF DUP13 DUP1 LOG4 PUSH2 0x49B JUMPI POP POP SWAP1 PUSH32 0x6C86F3FD5118B3AA8BB4F389A617046DE0A3D3D477DE1A1673D227F802F616DC SWAP3 SWAP2 DUP2 DUP8 MSTORE PUSH1 0x8 DUP2 MSTORE DUP5 DUP4 DUP9 KECCAK256 SSTORE DUP3 MLOAD SWAP5 DUP6 MSTORE DUP5 ADD MSTORE CALLER SWAP3 LOG3 PUSH1 0x1 PUSH1 0x6 SSTORE DUP1 RETURN JUMPDEST DUP5 MLOAD PUSH4 0x39E35637 PUSH1 0xE1 SHL DUP2 MSTORE SWAP1 DUP2 ADD DUP9 SWAP1 MSTORE REVERT JUMPDEST PUSH1 0x0 DUP4 DUP2 MSTORE PUSH1 0x4 PUSH1 0x20 MSTORE PUSH1 0x40 SWAP1 KECCAK256 DUP1 SLOAD PUSH1 0x1 PUSH1 0x1 PUSH1 0xA0 SHL SUB NOT AND SWAP1 SSTORE DUP2 DUP13 MSTORE PUSH1 0x3 DUP8 MSTORE DUP9 DUP13 KECCAK256 SWAP1 DUP2 SLOAD ADD SWAP1 SSTORE CODESIZE PUSH2 0x400 JUMP JUMPDEST POP POP DUP5 MLOAD PUSH4 0x32505749 PUSH1 0xE1 SHL DUP2 MSTORE SWAP1 DUP2 ADD DUP9 SWAP1 MSTORE REVERT JUMPDEST PUSH4 0x4E487B71 PUSH1 0xE0 SHL DUP12 MSTORE PUSH1 0x11 DUP5 MSTORE DUP5 DUP12 REVERT JUMPDEST PUSH2 0x529 SWAP2 POP DUP6 RETURNDATASIZE DUP8 GT PUSH2 0x52F JUMPI JUMPDEST PUSH2 0x521 DUP2 DUP4 PUSH2 0xE04 JUMP JUMPDEST DUP2 ADD SWAP1 PUSH2 0x119A JUMP JUMPDEST CODESIZE PUSH2 0x3BE JUMP JUMPDEST POP RETURNDATASIZE PUSH2 0x517 JUMP JUMPDEST DUP7 MLOAD RETURNDATASIZE DUP12 DUP3 RETURNDATACOPY RETURNDATASIZE SWAP1 REVERT JUMPDEST PUSH1 0x64 SWAP1 PUSH1 0x1F DUP7 PUSH1 0x20 DUP7 MLOAD SWAP4 PUSH3 0x461BCD PUSH1 0xE5 SHL DUP6 MSTORE DUP5 ADD MSTORE DUP3 ADD MSTORE PUSH32 0x4D757374207374616B65206174206C65617374203130303020746F6B656E7300 PUSH1 0x44 DUP3 ADD MSTORE REVERT JUMPDEST POP SWAP1 CALLVALUE PUSH2 0x1AE JUMPI DUP1 PUSH1 0x3 NOT CALLDATASIZE ADD SLT PUSH2 0x1AE JUMPI PUSH2 0x59C PUSH2 0xD6C JUMP JUMPDEST SWAP1 PUSH1 0x24 CALLDATALOAD SWAP2 DUP3 ISZERO ISZERO DUP1 SWAP4 SUB PUSH2 0x61F JUMPI PUSH1 0x1 PUSH1 0x1 PUSH1 0xA0 SHL SUB AND SWAP3 DUP4 ISZERO PUSH2 0x60A JUMPI POP CALLER DUP5 MSTORE PUSH1 0x5 PUSH1 0x20 MSTORE DUP1 DUP5 KECCAK256 DUP4 DUP6 MSTORE PUSH1 0x20 MSTORE DUP1 DUP5 KECCAK256 PUSH1 0xFF NOT DUP2 SLOAD AND PUSH1 0xFF DUP5 AND OR SWAP1 SSTORE MLOAD SWAP1 DUP2 MSTORE PUSH32 0x17307EAB39AB6107E8899845AD3D59BD9653F200F220920489CA2B5937696C31 PUSH1 0x20 CALLER SWAP3 LOG3 DUP1 RETURN JUMPDEST DUP4 PUSH1 0x24 SWAP3 MLOAD SWAP2 PUSH4 0xB611743 PUSH1 0xE3 SHL DUP4 MSTORE DUP3 ADD MSTORE REVERT JUMPDEST DUP5 DUP1 REVERT JUMPDEST POP SWAP2 CALLVALUE PUSH2 0x739 JUMPI DUP1 PUSH1 0x3 NOT CALLDATASIZE ADD SLT PUSH2 0x739 JUMPI DUP2 MLOAD SWAP2 DUP2 PUSH1 0x1 SWAP3 DUP4 SLOAD SWAP4 DUP5 DUP2 SHR SWAP2 DUP2 DUP7 AND SWAP6 DUP7 ISZERO PUSH2 0x72F JUMPI JUMPDEST PUSH1 0x20 SWAP7 DUP8 DUP6 LT DUP2 EQ PUSH2 0x71C JUMPI DUP9 SWAP10 POP SWAP7 DUP9 SWAP7 SWAP8 DUP6 DUP3 SWAP11 MSTORE SWAP2 DUP3 PUSH1 0x0 EQ PUSH2 0x6F5 JUMPI POP POP PUSH1 0x1 EQ PUSH2 0x69A JUMPI JUMPDEST POP POP POP PUSH2 0x253 SWAP3 SWAP2 PUSH2 0x68B SWAP2 SUB DUP6 PUSH2 0xE04 JUMP JUMPDEST MLOAD SWAP3 DUP3 DUP5 SWAP4 DUP5 MSTORE DUP4 ADD SWAP1 PUSH2 0xD2C JUMP JUMPDEST SWAP2 SWAP1 DUP7 SWAP4 POP DUP1 DUP4 MSTORE PUSH32 0xB10E2D527612073B26EECDFD717E6A320CF44B4AFAC2B0732D9FCBE2B7FA0CF6 JUMPDEST DUP3 DUP5 LT PUSH2 0x6DD JUMPI POP POP POP DUP3 ADD ADD DUP2 PUSH2 0x68B PUSH2 0x253 PUSH2 0x678 JUMP JUMPDEST DUP1 SLOAD DUP5 DUP11 ADD DUP7 ADD MSTORE DUP9 SWAP6 POP DUP8 SWAP5 SWAP1 SWAP4 ADD SWAP3 DUP2 ADD PUSH2 0x6C4 JUMP JUMPDEST PUSH1 0xFF NOT AND DUP8 DUP3 ADD MSTORE SWAP4 ISZERO ISZERO PUSH1 0x5 SHL DUP7 ADD SWAP1 SWAP4 ADD SWAP4 POP DUP5 SWAP3 POP PUSH2 0x68B SWAP2 POP PUSH2 0x253 SWAP1 POP PUSH2 0x678 JUMP JUMPDEST PUSH4 0x4E487B71 PUSH1 0xE0 SHL DUP4 MSTORE PUSH1 0x22 DUP11 MSTORE PUSH1 0x24 DUP4 REVERT JUMPDEST SWAP3 PUSH1 0x7F AND SWAP3 PUSH2 0x64E JUMP JUMPDEST DUP1 REVERT JUMPDEST POP POP CALLVALUE PUSH2 0x200 JUMPI DUP2 PUSH1 0x3 NOT CALLDATASIZE ADD SLT PUSH2 0x200 JUMPI PUSH1 0x7 SLOAD SWAP1 MLOAD PUSH1 0x1 PUSH1 0x1 PUSH1 0xA0 SHL SUB SWAP1 SWAP2 AND DUP2 MSTORE PUSH1 0x20 SWAP1 RETURN JUMPDEST DUP4 CALLVALUE PUSH2 0x739 JUMPI DUP1 PUSH1 0x3 NOT CALLDATASIZE ADD SLT PUSH2 0x739 JUMPI PUSH2 0x77E PUSH2 0xE42 JUMP JUMPDEST PUSH1 0x7 DUP1 SLOAD PUSH1 0x1 PUSH1 0x1 PUSH1 0xA0 SHL SUB NOT DUP2 AND SWAP1 SWAP2 SSTORE DUP2 SWAP1 PUSH1 0x1 PUSH1 0x1 PUSH1 0xA0 SHL SUB AND PUSH32 0x8BE0079C531659141344CD1FD0A4F28419497F9722A3DAAFE3B4186F6B6457E0 DUP3 DUP1 LOG3 DUP1 RETURN JUMPDEST POP SWAP2 CALLVALUE PUSH2 0x739 JUMPI PUSH1 0x20 CALLDATASIZE PUSH1 0x3 NOT ADD SLT PUSH2 0x739 JUMPI PUSH1 0x1 PUSH1 0x1 PUSH1 0xA0 SHL SUB PUSH2 0x7E5 PUSH2 0xD6C JUMP JUMPDEST AND SWAP3 DUP4 ISZERO PUSH2 0x802 JUMPI POP DUP1 PUSH1 0x20 SWAP4 DUP4 SWAP3 MSTORE PUSH1 0x3 DUP5 MSTORE KECCAK256 SLOAD SWAP1 MLOAD SWAP1 DUP2 MSTORE RETURN JUMPDEST SWAP2 MLOAD PUSH4 0x22718AD9 PUSH1 0xE2 SHL DUP2 MSTORE SWAP2 DUP3 ADD MSTORE PUSH1 0x24 SWAP1 REVERT JUMPDEST POP SWAP1 CALLVALUE PUSH2 0x1AE JUMPI PUSH1 0x20 CALLDATASIZE PUSH1 0x3 NOT ADD SLT PUSH2 0x1AE JUMPI PUSH1 0x20 SWAP3 POP MLOAD SWAP1 CALLDATALOAD PUSH1 0x60 SHR DUP2 MSTORE RETURN JUMPDEST POP SWAP2 CALLVALUE PUSH2 0x739 JUMPI PUSH1 0x20 CALLDATASIZE PUSH1 0x3 NOT ADD SLT PUSH2 0x739 JUMPI POP PUSH2 0x858 PUSH1 0x20 SWAP3 CALLDATALOAD PUSH2 0x115F JUMP JUMPDEST SWAP1 MLOAD PUSH1 0x1 PUSH1 0x1 PUSH1 0xA0 SHL SUB SWAP1 SWAP2 AND DUP2 MSTORE RETURN JUMPDEST POP CALLVALUE PUSH2 0x1AE JUMPI PUSH1 0x20 CALLDATASIZE PUSH1 0x3 NOT ADD SLT PUSH2 0x1AE JUMPI PUSH1 0x20 SWAP3 DUP3 SWAP2 CALLDATALOAD DUP2 MSTORE PUSH1 0x8 DUP5 MSTORE KECCAK256 SLOAD SWAP1 MLOAD SWAP1 DUP2 MSTORE RETURN JUMPDEST POP POP CALLVALUE PUSH2 0x200 JUMPI DUP2 PUSH1 0x3 NOT CALLDATASIZE ADD SLT PUSH2 0x200 JUMPI MLOAD PUSH32 0x0 PUSH1 0x1 PUSH1 0x1 PUSH1 0xA0 SHL SUB AND DUP2 MSTORE PUSH1 0x20 SWAP1 RETURN JUMPDEST POP POP CALLVALUE PUSH2 0x200 JUMPI PUSH2 0x339 SWAP1 PUSH2 0x8E8 CALLDATASIZE PUSH2 0xD9D JUMP JUMPDEST SWAP2 SWAP3 MLOAD SWAP3 PUSH2 0x8F5 DUP5 PUSH2 0xDD2 JUMP JUMPDEST DUP6 DUP5 MSTORE PUSH2 0x1010 JUMP JUMPDEST POP SWAP2 SWAP1 CALLVALUE PUSH2 0x200 JUMPI PUSH1 0x20 DUP1 PUSH1 0x3 NOT CALLDATASIZE ADD SLT PUSH2 0x1AE JUMPI DUP4 CALLDATALOAD SWAP2 PUSH2 0x91D PUSH2 0x11F0 JUMP JUMPDEST PUSH2 0x926 DUP4 PUSH2 0x115F JUMP JUMPDEST PUSH1 0x1 PUSH1 0x1 PUSH1 0xA0 SHL SUB SWAP4 SWAP1 CALLER SWAP1 DUP6 AND SUB PUSH2 0xA8F JUMPI DUP1 DUP6 MSTORE PUSH1 0x8 DUP4 MSTORE DUP2 DUP6 KECCAK256 SLOAD SWAP3 DUP2 PUSH1 0x60 SHR SWAP5 PUSH1 0x2 DUP3 MSTORE DUP4 DUP8 KECCAK256 SLOAD AND DUP3 DUP8 DUP3 ISZERO SWAP3 DUP4 ISZERO PUSH2 0xA5C JUMPI JUMPDEST DUP3 DUP3 MSTORE PUSH1 0x2 DUP6 MSTORE DUP7 DUP3 KECCAK256 DUP1 SLOAD PUSH1 0x1 PUSH1 0x1 PUSH1 0xA0 SHL SUB NOT AND SWAP1 SSTORE PUSH32 0xDDF252AD1BE2C89B69C2B068FC378DAA952BA7F163C4A11628F55A4DF523B3EF DUP3 DUP1 LOG4 PUSH2 0xA45 JUMPI DUP3 MLOAD PUSH4 0xA9059CBB PUSH1 0xE0 SHL DUP2 MSTORE CALLER SWAP8 DUP2 ADD SWAP8 DUP9 MSTORE PUSH1 0x20 DUP9 ADD DUP6 SWAP1 MSTORE SWAP6 SWAP7 DUP2 SWAP1 DUP8 SWAP1 DUP2 SWAP1 PUSH1 0x40 ADD SUB DUP2 DUP11 DUP10 GAS CALL SWAP6 DUP7 ISZERO PUSH2 0xA3B JUMPI PUSH32 0x6CC7E90B4F2B554A9614B0CAA84F909F3498C820AE47C731F490C28C07F7D3B SWAP5 SWAP6 SWAP7 PUSH2 0xA05 SWAP2 DUP10 SWAP2 PUSH2 0xA24 JUMPI POP PUSH2 0x11B2 JUMP JUMPDEST DUP2 DUP8 MSTORE PUSH1 0x8 DUP2 MSTORE DUP7 DUP4 DUP2 KECCAK256 SSTORE DUP3 MLOAD SWAP5 DUP6 MSTORE DUP5 ADD MSTORE CALLER SWAP3 LOG3 PUSH1 0x1 PUSH1 0x6 SSTORE DUP1 RETURN JUMPDEST PUSH2 0x529 SWAP2 POP DUP4 RETURNDATASIZE DUP6 GT PUSH2 0x52F JUMPI PUSH2 0x521 DUP2 DUP4 PUSH2 0xE04 JUMP JUMPDEST DUP4 MLOAD RETURNDATASIZE DUP10 DUP3 RETURNDATACOPY RETURNDATASIZE SWAP1 REVERT JUMPDEST DUP3 MLOAD PUSH4 0x7E273289 PUSH1 0xE0 SHL DUP2 MSTORE DUP1 DUP9 ADD DUP4 SWAP1 MSTORE PUSH1 0x24 SWAP1 REVERT JUMPDEST PUSH1 0x0 DUP4 DUP2 MSTORE PUSH1 0x4 PUSH1 0x20 MSTORE PUSH1 0x40 SWAP1 KECCAK256 DUP1 SLOAD PUSH1 0x1 PUSH1 0x1 PUSH1 0xA0 SHL SUB NOT AND SWAP1 SSTORE DUP1 DUP3 MSTORE PUSH1 0x3 DUP6 MSTORE DUP7 DUP3 KECCAK256 DUP1 SLOAD PUSH1 0x0 NOT ADD SWAP1 SSTORE PUSH2 0x95F JUMP JUMPDEST DUP2 MLOAD PUSH3 0x461BCD PUSH1 0xE5 SHL DUP2 MSTORE DUP1 DUP8 ADD DUP5 SWAP1 MSTORE PUSH1 0x11 PUSH1 0x24 DUP3 ADD MSTORE PUSH17 0x2737BA103A34329027232A1037BBB732B9 PUSH1 0x79 SHL PUSH1 0x44 DUP3 ADD MSTORE PUSH1 0x64 SWAP1 REVERT JUMPDEST DUP4 CALLVALUE PUSH2 0x739 JUMPI PUSH2 0x339 PUSH2 0xAD8 CALLDATASIZE PUSH2 0xD9D JUMP JUMPDEST SWAP2 PUSH2 0xE6E JUMP JUMPDEST POP SWAP1 CALLVALUE PUSH2 0x1AE JUMPI DUP1 PUSH1 0x3 NOT CALLDATASIZE ADD SLT PUSH2 0x1AE JUMPI PUSH2 0xAF8 PUSH2 0xD6C JUMP JUMPDEST SWAP2 PUSH1 0x24 CALLDATALOAD PUSH2 0xB05 DUP2 PUSH2 0x115F JUMP JUMPDEST CALLER ISZERO ISZERO DUP1 PUSH2 0xBA7 JUMPI JUMPDEST DUP1 PUSH2 0xB7E JUMPI JUMPDEST PUSH2 0xB68 JUMPI PUSH1 0x1 PUSH1 0x1 PUSH1 0xA0 SHL SUB SWAP5 DUP6 AND SWAP5 DUP3 SWAP2 DUP7 SWAP2 AND PUSH32 0x8C5BE1E5EBEC7D5BD14F71427D1E84F3DD0314C0F7B2291E5B200AC8C7C3B925 DUP9 DUP1 LOG4 DUP5 MSTORE PUSH1 0x20 MSTORE DUP3 KECCAK256 DUP1 SLOAD PUSH1 0x1 PUSH1 0x1 PUSH1 0xA0 SHL SUB NOT AND SWAP1 SWAP2 OR SWAP1 SSTORE DUP1 RETURN JUMPDEST DUP4 MLOAD PUSH4 0xA9FBF51F PUSH1 0xE0 SHL DUP2 MSTORE CALLER DUP2 DUP6 ADD MSTORE PUSH1 0x24 SWAP1 REVERT JUMPDEST POP PUSH1 0x1 PUSH1 0x1 PUSH1 0xA0 SHL SUB DUP2 AND DUP7 MSTORE PUSH1 0x5 PUSH1 0x20 SWAP1 DUP2 MSTORE DUP5 DUP8 KECCAK256 CALLER DUP9 MSTORE SWAP1 MSTORE DUP4 DUP7 KECCAK256 SLOAD PUSH1 0xFF AND ISZERO PUSH2 0xB14 JUMP JUMPDEST POP PUSH1 0x1 PUSH1 0x1 PUSH1 0xA0 SHL SUB DUP2 AND CALLER EQ ISZERO PUSH2 0xB0E JUMP JUMPDEST POP CALLVALUE PUSH2 0x1AE JUMPI PUSH1 0x20 CALLDATASIZE PUSH1 0x3 NOT ADD SLT PUSH2 0x1AE JUMPI SWAP2 DUP3 PUSH1 0x20 SWAP4 CALLDATALOAD PUSH2 0xBDB DUP2 PUSH2 0x115F JUMP JUMPDEST POP DUP3 MSTORE DUP4 MSTORE DUP2 SWAP1 KECCAK256 SLOAD SWAP1 MLOAD PUSH1 0x1 PUSH1 0x1 PUSH1 0xA0 SHL SUB SWAP1 SWAP2 AND DUP2 MSTORE RETURN JUMPDEST POP SWAP2 CALLVALUE PUSH2 0x739 JUMPI DUP1 PUSH1 0x3 NOT CALLDATASIZE ADD SLT PUSH2 0x739 JUMPI DUP2 MLOAD SWAP2 DUP2 DUP3 SLOAD SWAP3 PUSH1 0x1 DUP5 DUP2 SHR SWAP2 DUP2 DUP7 AND SWAP6 DUP7 ISZERO PUSH2 0xCB6 JUMPI JUMPDEST PUSH1 0x20 SWAP7 DUP8 DUP6 LT DUP2 EQ PUSH2 0x71C JUMPI DUP9 SWAP10 POP SWAP7 DUP9 SWAP7 SWAP8 DUP6 DUP3 SWAP11 MSTORE SWAP2 DUP3 PUSH1 0x0 EQ PUSH2 0x6F5 JUMPI POP POP PUSH1 0x1 EQ PUSH2 0xC5B JUMPI POP POP POP PUSH2 0x253 SWAP3 SWAP2 PUSH2 0x68B SWAP2 SUB DUP6 PUSH2 0xE04 JUMP JUMPDEST SWAP2 SWAP1 DUP7 SWAP4 POP DUP3 DUP1 MSTORE PUSH32 0x290DECD9548B62A8D60345A988386FC84BA6BC95484008F6362F93160EF3E563 JUMPDEST DUP3 DUP5 LT PUSH2 0xC9E JUMPI POP POP POP DUP3 ADD ADD DUP2 PUSH2 0x68B PUSH2 0x253 PUSH2 0x678 JUMP JUMPDEST DUP1 SLOAD DUP5 DUP11 ADD DUP7 ADD MSTORE DUP9 SWAP6 POP DUP8 SWAP5 SWAP1 SWAP4 ADD SWAP3 DUP2 ADD PUSH2 0xC85 JUMP JUMPDEST SWAP3 PUSH1 0x7F AND SWAP3 PUSH2 0xC1F JUMP JUMPDEST SWAP3 POP POP CALLVALUE PUSH2 0x1AE JUMPI PUSH1 0x20 CALLDATASIZE PUSH1 0x3 NOT ADD SLT PUSH2 0x1AE JUMPI CALLDATALOAD PUSH4 0xFFFFFFFF PUSH1 0xE0 SHL DUP2 AND DUP1 SWAP2 SUB PUSH2 0x1AE JUMPI PUSH1 0x20 SWAP3 POP PUSH4 0x80AC58CD PUSH1 0xE0 SHL DUP2 EQ SWAP1 DUP2 ISZERO PUSH2 0xD1B JUMPI JUMPDEST DUP2 ISZERO PUSH2 0xD0A JUMPI JUMPDEST POP ISZERO ISZERO DUP2 MSTORE RETURN JUMPDEST PUSH4 0x1FFC9A7 PUSH1 0xE0 SHL EQ SWAP1 POP CODESIZE PUSH2 0xD03 JUMP JUMPDEST PUSH4 0x5B5E139F PUSH1 0xE0 SHL DUP2 EQ SWAP2 POP PUSH2 0xCFC JUMP JUMPDEST SWAP2 SWAP1 DUP3 MLOAD SWAP3 DUP4 DUP3 MSTORE PUSH1 0x0 JUMPDEST DUP5 DUP2 LT PUSH2 0xD58 JUMPI POP POP DUP3 PUSH1 0x0 PUSH1 0x20 DUP1 SWAP5 SWAP6 DUP5 ADD ADD MSTORE PUSH1 0x1F DUP1 NOT SWAP2 ADD AND ADD ADD SWAP1 JUMP JUMPDEST PUSH1 0x20 DUP2 DUP4 ADD DUP2 ADD MLOAD DUP5 DUP4 ADD DUP3 ADD MSTORE ADD PUSH2 0xD37 JUMP JUMPDEST PUSH1 0x4 CALLDATALOAD SWAP1 PUSH1 0x1 PUSH1 0x1 PUSH1 0xA0 SHL SUB DUP3 AND DUP3 SUB PUSH2 0xD82 JUMPI JUMP JUMPDEST PUSH1 0x0 DUP1 REVERT JUMPDEST PUSH1 0x24 CALLDATALOAD SWAP1 PUSH1 0x1 PUSH1 0x1 PUSH1 0xA0 SHL SUB DUP3 AND DUP3 SUB PUSH2 0xD82 JUMPI JUMP JUMPDEST PUSH1 0x60 SWAP1 PUSH1 0x3 NOT ADD SLT PUSH2 0xD82 JUMPI PUSH1 0x1 PUSH1 0x1 PUSH1 0xA0 SHL SUB SWAP1 PUSH1 0x4 CALLDATALOAD DUP3 DUP2 AND DUP2 SUB PUSH2 0xD82 JUMPI SWAP2 PUSH1 0x24 CALLDATALOAD SWAP1 DUP2 AND DUP2 SUB PUSH2 0xD82 JUMPI SWAP1 PUSH1 0x44 CALLDATALOAD SWAP1 JUMP JUMPDEST PUSH1 0x20 DUP2 ADD SWAP1 DUP2 LT PUSH8 0xFFFFFFFFFFFFFFFF DUP3 GT OR PUSH2 0xDEE JUMPI PUSH1 0x40 MSTORE JUMP JUMPDEST PUSH4 0x4E487B71 PUSH1 0xE0 SHL PUSH1 0x0 MSTORE PUSH1 0x41 PUSH1 0x4 MSTORE PUSH1 0x24 PUSH1 0x0 REVERT JUMPDEST SWAP1 PUSH1 0x1F DUP1 NOT SWAP2 ADD AND DUP2 ADD SWAP1 DUP2 LT PUSH8 0xFFFFFFFFFFFFFFFF DUP3 GT OR PUSH2 0xDEE JUMPI PUSH1 0x40 MSTORE JUMP JUMPDEST PUSH8 0xFFFFFFFFFFFFFFFF DUP2 GT PUSH2 0xDEE JUMPI PUSH1 0x1F ADD PUSH1 0x1F NOT AND PUSH1 0x20 ADD SWAP1 JUMP JUMPDEST PUSH1 0x7 SLOAD PUSH1 0x1 PUSH1 0x1 PUSH1 0xA0 SHL SUB AND CALLER SUB PUSH2 0xE56 JUMPI JUMP JUMPDEST PUSH1 0x40 MLOAD PUSH4 0x118CDAA7 PUSH1 0xE0 SHL DUP2 MSTORE CALLER PUSH1 0x4 DUP3 ADD MSTORE PUSH1 0x24 SWAP1 REVERT JUMPDEST PUSH1 0x1 PUSH1 0x1 PUSH1 0xA0 SHL SUB SWAP2 DUP3 AND SWAP3 SWAP1 SWAP2 DUP4 ISZERO PUSH2 0xFF7 JUMPI PUSH1 0x0 SWAP3 DUP3 DUP5 MSTORE DUP3 PUSH1 0x20 SWAP6 PUSH1 0x2 DUP8 MSTORE PUSH1 0x40 SWAP7 DUP5 DUP9 DUP9 KECCAK256 SLOAD AND SWAP7 DUP8 SWAP2 CALLER ISZERO ISZERO DUP1 PUSH2 0xF5E JUMPI JUMPDEST POP SWAP1 PUSH1 0x2 PUSH32 0xDDF252AD1BE2C89B69C2B068FC378DAA952BA7F163C4A11628F55A4DF523B3EF SWAP3 DUP5 PUSH2 0xF2B JUMPI JUMPDEST DUP6 DUP4 MSTORE PUSH1 0x3 DUP2 MSTORE DUP12 DUP4 KECCAK256 DUP1 SLOAD PUSH1 0x1 ADD SWAP1 SSTORE DUP7 DUP4 MSTORE MSTORE DUP10 DUP2 KECCAK256 DUP1 SLOAD PUSH1 0x1 PUSH1 0x1 PUSH1 0xA0 SHL SUB NOT AND DUP6 OR SWAP1 SSTORE DUP1 LOG4 AND SWAP3 DUP4 DUP4 SUB PUSH2 0xF0A JUMPI POP POP POP POP JUMP JUMPDEST PUSH1 0x64 SWAP5 POP MLOAD SWAP3 PUSH4 0x64283D7B PUSH1 0xE0 SHL DUP5 MSTORE PUSH1 0x4 DUP5 ADD MSTORE PUSH1 0x24 DUP4 ADD MSTORE PUSH1 0x44 DUP3 ADD MSTORE REVERT JUMPDEST PUSH1 0x0 DUP8 DUP2 MSTORE PUSH1 0x4 PUSH1 0x20 MSTORE PUSH1 0x40 SWAP1 KECCAK256 DUP1 SLOAD PUSH1 0x1 PUSH1 0x1 PUSH1 0xA0 SHL SUB NOT AND SWAP1 SSTORE DUP5 DUP4 MSTORE PUSH1 0x3 DUP2 MSTORE DUP12 DUP4 KECCAK256 DUP1 SLOAD PUSH1 0x0 NOT ADD SWAP1 SSTORE PUSH2 0xED1 JUMP JUMPDEST SWAP2 SWAP4 SWAP5 POP SWAP2 POP DUP1 PUSH2 0xFB6 JUMPI JUMPDEST ISZERO PUSH2 0xF7A JUMPI DUP6 SWAP3 SWAP2 DUP8 SWAP2 CODESIZE PUSH2 0xEA5 JUMP JUMPDEST DUP8 DUP7 DUP9 PUSH2 0xF97 JUMPI PUSH1 0x24 SWAP2 MLOAD SWAP1 PUSH4 0x7E273289 PUSH1 0xE0 SHL DUP3 MSTORE PUSH1 0x4 DUP3 ADD MSTORE REVERT JUMPDEST SWAP1 MLOAD PUSH4 0x177E802F PUSH1 0xE0 SHL DUP2 MSTORE CALLER PUSH1 0x4 DUP3 ADD MSTORE PUSH1 0x24 DUP2 ADD SWAP2 SWAP1 SWAP2 MSTORE PUSH1 0x44 SWAP1 REVERT JUMPDEST POP CALLER DUP8 EQ DUP1 ISZERO PUSH2 0xFDB JUMPI JUMPDEST DUP1 PUSH2 0xF6A JUMPI POP DUP6 DUP3 MSTORE PUSH1 0x4 DUP2 MSTORE CALLER DUP6 DUP10 DUP5 KECCAK256 SLOAD AND EQ PUSH2 0xF6A JUMP JUMPDEST POP DUP7 DUP3 MSTORE PUSH1 0x5 DUP2 MSTORE DUP8 DUP3 KECCAK256 CALLER DUP4 MSTORE DUP2 MSTORE PUSH1 0xFF DUP9 DUP4 KECCAK256 SLOAD AND PUSH2 0xFC1 JUMP JUMPDEST PUSH1 0x40 MLOAD PUSH4 0x32505749 PUSH1 0xE1 SHL DUP2 MSTORE PUSH1 0x0 PUSH1 0x4 DUP3 ADD MSTORE PUSH1 0x24 SWAP1 REVERT JUMPDEST PUSH2 0x101B DUP4 DUP4 DUP4 PUSH2 0xE6E JUMP JUMPDEST DUP2 EXTCODESIZE PUSH2 0x1028 JUMPI JUMPDEST POP POP POP POP JUMP JUMPDEST PUSH1 0x40 MLOAD PUSH4 0xA85BD01 PUSH1 0xE1 SHL DUP1 DUP3 MSTORE CALLER PUSH1 0x4 DUP4 ADD MSTORE PUSH1 0x1 PUSH1 0x1 PUSH1 0xA0 SHL SUB SWAP3 DUP4 AND PUSH1 0x24 DUP4 ADD MSTORE PUSH1 0x44 DUP3 ADD SWAP5 SWAP1 SWAP5 MSTORE PUSH1 0x80 PUSH1 0x64 DUP3 ADD MSTORE PUSH1 0x20 SWAP6 SWAP3 SWAP1 SWAP2 AND SWAP4 SWAP1 SWAP3 SWAP1 DUP4 SWAP1 PUSH2 0x1076 SWAP1 PUSH1 0x84 DUP4 ADD SWAP1 PUSH2 0xD2C JUMP JUMPDEST SUB SWAP3 DUP6 DUP2 PUSH1 0x0 SWAP6 DUP2 DUP8 DUP10 GAS CALL DUP5 SWAP2 DUP2 PUSH2 0x111F JUMPI JUMPDEST POP PUSH2 0x10EA JUMPI POP POP POP RETURNDATASIZE PUSH1 0x0 EQ PUSH2 0x10E2 JUMPI RETURNDATASIZE PUSH2 0x10A4 DUP2 PUSH2 0xE26 JUMP JUMPDEST SWAP1 PUSH2 0x10B2 PUSH1 0x40 MLOAD SWAP3 DUP4 PUSH2 0xE04 JUMP JUMPDEST DUP2 MSTORE DUP1 SWAP2 DUP5 RETURNDATASIZE SWAP3 ADD RETURNDATACOPY JUMPDEST DUP1 MLOAD SWAP3 DUP4 PUSH2 0x10DD JUMPI PUSH1 0x40 MLOAD PUSH4 0x32505749 PUSH1 0xE1 SHL DUP2 MSTORE PUSH1 0x4 DUP2 ADD DUP5 SWAP1 MSTORE PUSH1 0x24 SWAP1 REVERT JUMPDEST ADD SWAP1 POP REVERT JUMPDEST POP PUSH1 0x60 PUSH2 0x10BC JUMP JUMPDEST SWAP2 SWAP5 POP SWAP2 POP PUSH4 0xFFFFFFFF PUSH1 0xE0 SHL AND SUB PUSH2 0x1107 JUMPI POP CODESIZE DUP1 DUP1 DUP1 PUSH2 0x1022 JUMP JUMPDEST PUSH1 0x24 SWAP1 PUSH1 0x40 MLOAD SWAP1 PUSH4 0x32505749 PUSH1 0xE1 SHL DUP3 MSTORE PUSH1 0x4 DUP3 ADD MSTORE REVERT JUMPDEST SWAP1 SWAP2 POP DUP7 DUP2 DUP2 RETURNDATASIZE DUP4 GT PUSH2 0x1158 JUMPI JUMPDEST PUSH2 0x1137 DUP2 DUP4 PUSH2 0xE04 JUMP JUMPDEST DUP2 ADD SUB SLT PUSH2 0x61F JUMPI MLOAD PUSH1 0x1 PUSH1 0x1 PUSH1 0xE0 SHL SUB NOT DUP2 AND DUP2 SUB PUSH2 0x61F JUMPI SWAP1 CODESIZE PUSH2 0x108A JUMP JUMPDEST POP RETURNDATASIZE PUSH2 0x112D JUMP JUMPDEST PUSH1 0x0 DUP2 DUP2 MSTORE PUSH1 0x2 PUSH1 0x20 MSTORE PUSH1 0x40 SWAP1 KECCAK256 SLOAD PUSH1 0x1 PUSH1 0x1 PUSH1 0xA0 SHL SUB AND SWAP1 DUP2 ISZERO PUSH2 0x1182 JUMPI POP SWAP1 JUMP JUMPDEST PUSH1 0x24 SWAP1 PUSH1 0x40 MLOAD SWAP1 PUSH4 0x7E273289 PUSH1 0xE0 SHL DUP3 MSTORE PUSH1 0x4 DUP3 ADD MSTORE REVERT JUMPDEST SWAP1 DUP2 PUSH1 0x20 SWAP2 SUB SLT PUSH2 0xD82 JUMPI MLOAD DUP1 ISZERO ISZERO DUP2 SUB PUSH2 0xD82 JUMPI SWAP1 JUMP JUMPDEST ISZERO PUSH2 0x11B9 JUMPI JUMP JUMPDEST PUSH1 0x40 MLOAD PUSH3 0x461BCD PUSH1 0xE5 SHL DUP2 MSTORE PUSH1 0x20 PUSH1 0x4 DUP3 ADD MSTORE PUSH1 0xF PUSH1 0x24 DUP3 ADD MSTORE PUSH15 0x151C985B9CD9995C8819985A5B1959 PUSH1 0x8A SHL PUSH1 0x44 DUP3 ADD MSTORE PUSH1 0x64 SWAP1 REVERT JUMPDEST PUSH1 0x2 PUSH1 0x6 SLOAD EQ PUSH2 0x1201 JUMPI PUSH1 0x2 PUSH1 0x6 SSTORE JUMP JUMPDEST PUSH1 0x40 MLOAD PUSH4 0x3EE5AEB5 PUSH1 0xE0 SHL DUP2 MSTORE PUSH1 0x4 SWAP1 REVERT INVALID LOG2 PUSH5 0x6970667358 0x22 SLT KECCAK256 0xF6 LOG2 NOT 0xCA MOD SWAP10 0xD3 BASEFEE PUSH31 0x1B0AA8A7E3383C0A222B83E400591E04F29904D89E9CAA64736F6C63430008 EQ STOP CALLER "},"methodIdentifiers":{"STAKE_REQUIREMENT()":"c118258b","approve(address,uint256)":"095ea7b3","balanceOf(address)":"70a08231","getApproved(uint256)":"081812fc","getPatentTokenForNFT(uint256)":"68ee9d6d","isApprovedForAll(address,address)":"e985e9c5","name()":"06fdde03","nextTokenId(address)":"c852b1bf","owner()":"8da5cb5b","ownerOf(uint256)":"6352211e","patentFactory()":"58722a07","renounceOwnership()":"715018a6","safeTransferFrom(address,address,uint256)":"42842e0e","safeTransferFrom(address,address,uint256,bytes)":"b88d4fde","setApprovalForAll(address,bool)":"a22cb465","stake(address,uint256)":"adc9772e","stakedAmount(uint256)":"5a459ed4","supportsInterface(bytes4)":"01ffc9a7","symbol()":"95d89b41","tokenURI(uint256)":"c87b56dd","transferFrom(address,address,uint256)":"23b872dd","transferOwnership(address)":"f2fde38b","unstake(uint256)":"2e17de78"}}}}}