{"contracts/PatentToken.sol":{"PatentToken":{"abi":[{"inputs":[{"internalType":"string","name":"name","type":"string"},{"internalType":"string","name":"symbol","type":"string"},{"internalType":"address","name":"_patentRegistryAddress","type":"address"},{"internalType":"uint256","name":"_patentId","type":"uint256"},{"internalType":"address","name":"initialOwner","type":"address"}],"stateMutability":"payable","type":"constructor"},{"inputs":[{"internalType":"address","name":"spender","type":"address"},{"internalType":"uint256","name":"allowance","type":"uint256"},{"internalType":"uint256","name":"needed","type":"uint256"}],"name":"ERC20InsufficientAllowance","type":"error"},{"inputs":[{"internalType":"address","name":"sender","type":"address"},{"internalType":"uint256","name":"balance","type":"uint256"},{"internalType":"uint256","name":"needed","type":"uint256"}],"name":"ERC20InsufficientBalance","type":"error"},{"inputs":[{"internalType":"address","name":"approver","type":"address"}],"name":"ERC20InvalidApprover","type":"error"},{"inputs":[{"internalType":"address","name":"receiver","type":"address"}],"name":"ERC20InvalidReceiver","type":"error"},{"inputs":[{"internalType":"address","name":"sender","type":"address"}],"name":"ERC20InvalidSender","type":"error"},{"inputs":[{"internalType":"address","name":"spender","type":"address"}],"name":"ERC20InvalidSpender","type":"error"},{"inputs":[{"internalType":"address","name":"owner","type":"address"}],"name":"OwnableInvalidOwner","type":"error"},{"inputs":[{"internalType":"address","name":"account","type":"address"}],"name":"OwnableUnauthorizedAccount","type":"error"},{"inputs":[],"name":"ReentrancyGuardReentrantCall","type":"error"},{"anonymous":false,"inputs":[{"indexed":true,"internalType":"address","name":"owner","type":"address"},{"indexed":true,"internalType":"address","name":"spender","type":"address"},{"indexed":false,"internalType":"uint256","name":"value","type":"uint256"}],"name":"Approval","type":"event"},{"anonymous":false,"inputs":[{"indexed":true,"internalType":"address","name":"provider","type":"address"},{"indexed":false,"internalType":"uint256","name":"amount","type":"uint256"}],"name":"LiquidityAdded","type":"event"},{"anonymous":false,"inputs":[{"indexed":true,"internalType":"address","name":"provider","type":"address"},{"indexed":false,"internalType":"uint256","name":"amount","type":"uint256"}],"name":"LiquidityRemoved","type":"event"},{"anonymous":false,"inputs":[{"indexed":true,"internalType":"address","name":"previousOwner","type":"address"},{"indexed":true,"internalType":"address","name":"newOwner","type":"address"}],"name":"OwnershipTransferred","type":"event"},{"anonymous":false,"inputs":[{"indexed":false,"internalType":"string","name":"ipfsHash","type":"string"},{"indexed":false,"internalType":"uint256","name":"price","type":"uint256"}],"name":"PatentDetailsUpdated","type":"event"},{"anonymous":false,"inputs":[{"indexed":false,"internalType":"uint256","name":"oldPrice","type":"uint256"},{"indexed":false,"internalType":"uint256","name":"newPrice","type":"uint256"},{"indexed":false,"internalType":"uint256","name":"timestamp","type":"uint256"}],"name":"PriceUpdated","type":"event"},{"anonymous":false,"inputs":[{"indexed":true,"internalType":"address","name":"buyer","type":"address"},{"indexed":false,"internalType":"uint256","name":"amount","type":"uint256"},{"indexed":false,"internalType":"uint256","name":"price","type":"uint256"}],"name":"TokensPurchased","type":"event"},{"anonymous":false,"inputs":[{"indexed":true,"internalType":"address","name":"seller","type":"address"},{"indexed":false,"internalType":"uint256","name":"amount","type":"uint256"},{"indexed":false,"internalType":"uint256","name":"price","type":"uint256"}],"name":"TokensSold","type":"event"},{"anonymous":false,"inputs":[{"indexed":true,"internalType":"address","name":"from","type":"address"},{"indexed":true,"internalType":"address","name":"to","type":"address"},{"indexed":false,"internalType":"uint256","name":"value","type":"uint256"}],"name":"Transfer","type":"event"},{"stateMutability":"payable","type":"fallback"},{"inputs":[],"name":"MAX_SUPPLY","outputs":[{"internalType":"uint256","name":"","type":"uint256"}],"stateMutability":"view","type":"function"},{"inputs":[],"name":"MIN_LIQUIDITY","outputs":[{"internalType":"uint256","name":"","type":"uint256"}],"stateMutability":"view","type":"function"},{"inputs":[],"name":"MIN_PRICE","outputs":[{"internalType":"uint256","name":"","type":"uint256"}],"stateMutability":"view","type":"function"},{"inputs":[{"internalType":"address","name":"owner","type":"address"},{"internalType":"address","name":"spender","type":"address"}],"name":"allowance","outputs":[{"internalType":"uint256","name":"","type":"uint256"}],"stateMutability":"view","type":"function"},{"inputs":[{"internalType":"address","name":"spender","type":"address"},{"internalType":"uint256","name":"value","type":"uint256"}],"name":"approve","outputs":[{"internalType":"bool","name":"","type":"bool"}],"stateMutability":"nonpayable","type":"function"},{"inputs":[{"internalType":"address","name":"account","type":"address"}],"name":"balanceOf","outputs":[{"internalType":"uint256","name":"","type":"uint256"}],"stateMutability":"view","type":"function"},{"inputs":[],"name":"basePrice","outputs":[{"internalType":"uint256","name":"","type":"uint256"}],"stateMutability":"view","type":"function"},{"inputs":[{"internalType":"uint256","name":"amount","type":"uint256"}],"name":"buyTokens","outputs":[],"stateMutability":"payable","type":"function"},{"inputs":[{"internalType":"uint256","name":"amount","type":"uint256"}],"name":"calculatePrice","outputs":[{"internalType":"uint256","name":"","type":"uint256"}],"stateMutability":"view","type":"function"},{"inputs":[],"name":"currentPrice","outputs":[{"internalType":"uint256","name":"","type":"uint256"}],"stateMutability":"view","type":"function"},{"inputs":[],"name":"decimals","outputs":[{"internalType":"uint8","name":"","type":"uint8"}],"stateMutability":"view","type":"function"},{"inputs":[],"name":"getPatentDetails","outputs":[{"components":[{"internalType":"string","name":"title","type":"string"},{"internalType":"string","name":"ipfsHash","type":"string"},{"internalType":"uint256","name":"price","type":"uint256"},{"internalType":"bool","name":"isForSale","type":"bool"},{"internalType":"address","name":"inventor","type":"address"},{"internalType":"uint256","name":"createdAt","type":"uint256"},{"internalType":"string","name":"patentId","type":"string"},{"internalType":"bool","name":"isVerified","type":"bool"}],"internalType":"struct PatentToken.Patent","name":"","type":"tuple"}],"stateMutability":"view","type":"function"},{"inputs":[],"name":"getTokenMetrics","outputs":[{"internalType":"uint256","name":"_currentPrice","type":"uint256"},{"internalType":"uint256","name":"_basePrice","type":"uint256"},{"internalType":"uint256","name":"_liquidityPool","type":"uint256"},{"internalType":"uint256","name":"_volume24h","type":"uint256"},{"internalType":"uint256","name":"_holdersCount","type":"uint256"},{"internalType":"bool","name":"_isTrading","type":"bool"}],"stateMutability":"view","type":"function"},{"inputs":[{"internalType":"uint256","name":"count","type":"uint256"}],"name":"getTradeHistory","outputs":[{"components":[{"internalType":"uint256","name":"timestamp","type":"uint256"},{"internalType":"uint256","name":"price","type":"uint256"},{"internalType":"uint256","name":"volume","type":"uint256"}],"internalType":"struct PatentToken.TradeMetrics[]","name":"","type":"tuple[]"}],"stateMutability":"view","type":"function"},{"inputs":[],"name":"holdersCount","outputs":[{"internalType":"uint256","name":"","type":"uint256"}],"stateMutability":"view","type":"function"},{"inputs":[],"name":"isTrading","outputs":[{"internalType":"bool","name":"","type":"bool"}],"stateMutability":"view","type":"function"},{"inputs":[],"name":"lastPriceUpdate","outputs":[{"internalType":"uint256","name":"","type":"uint256"}],"stateMutability":"view","type":"function"},{"inputs":[],"name":"liquidityPool","outputs":[{"internalType":"uint256","name":"","type":"uint256"}],"stateMutability":"view","type":"function"},{"inputs":[],"name":"name","outputs":[{"internalType":"string","name":"","type":"string"}],"stateMutability":"view","type":"function"},{"inputs":[],"name":"owner","outputs":[{"internalType":"address","name":"","type":"address"}],"stateMutability":"view","type":"function"},{"inputs":[],"name":"patentDetails","outputs":[{"internalType":"string","name":"title","type":"string"},{"internalType":"string","name":"ipfsHash","type":"string"},{"internalType":"uint256","name":"price","type":"uint256"},{"internalType":"bool","name":"isForSale","type":"bool"},{"internalType":"address","name":"inventor","type":"address"},{"internalType":"uint256","name":"createdAt","type":"uint256"},{"internalType":"string","name":"patentId","type":"string"},{"internalType":"bool","name":"isVerified","type":"bool"}],"stateMutability":"view","type":"function"},{"inputs":[],"name":"patentId","outputs":[{"internalType":"uint256","name":"","type":"uint256"}],"stateMutability":"view","type":"function"},{"inputs":[],"name":"patentRegistryAddress","outputs":[{"internalType":"address","name":"","type":"address"}],"stateMutability":"view","type":"function"},{"inputs":[],"name":"renounceOwnership","outputs":[],"stateMutability":"nonpayable","type":"function"},{"inputs":[{"internalType":"uint256","name":"amount","type":"uint256"}],"name":"sellTokens","outputs":[],"stateMutability":"nonpayable","type":"function"},{"inputs":[{"internalType":"bool","name":"forSale","type":"bool"}],"name":"setPatentForSale","outputs":[],"stateMutability":"nonpayable","type":"function"},{"inputs":[],"name":"symbol","outputs":[{"internalType":"string","name":"","type":"string"}],"stateMutability":"view","type":"function"},{"inputs":[],"name":"totalSupply","outputs":[{"internalType":"uint256","name":"","type":"uint256"}],"stateMutability":"view","type":"function"},{"inputs":[{"internalType":"uint256","name":"","type":"uint256"}],"name":"tradeHistory","outputs":[{"internalType":"uint256","name":"timestamp","type":"uint256"},{"internalType":"uint256","name":"price","type":"uint256"},{"internalType":"uint256","name":"volume","type":"uint256"}],"stateMutability":"view","type":"function"},{"inputs":[{"internalType":"address","name":"to","type":"address"},{"internalType":"uint256","name":"value","type":"uint256"}],"name":"transfer","outputs":[{"internalType":"bool","name":"","type":"bool"}],"stateMutability":"nonpayable","type":"function"},{"inputs":[{"internalType":"address","name":"from","type":"address"},{"internalType":"address","name":"to","type":"address"},{"internalType":"uint256","name":"value","type":"uint256"}],"name":"transferFrom","outputs":[{"internalType":"bool","name":"","type":"bool"}],"stateMutability":"nonpayable","type":"function"},{"inputs":[{"internalType":"address","name":"newOwner","type":"address"}],"name":"transferOwnership","outputs":[],"stateMutability":"nonpayable","type":"function"},{"inputs":[{"internalType":"string","name":"newIpfsHash","type":"string"},{"internalType":"uint256","name":"newPrice","type":"uint256"}],"name":"updatePatentDetails","outputs":[],"stateMutability":"nonpayable","type":"function"},{"inputs":[{"internalType":"address","name":"","type":"address"}],"name":"userTrades","outputs":[{"internalType":"uint256","name":"","type":"uint256"}],"stateMutability":"view","type":"function"},{"inputs":[],"name":"volume24h","outputs":[{"internalType":"uint256","name":"","type":"uint256"}],"stateMutability":"view","type":"function"},{"inputs":[{"internalType":"uint256","name":"amount","type":"uint256"}],"name":"withdrawExcessLiquidity","outputs":[],"stateMutability":"nonpayable","type":"function"},{"stateMutability":"payable","type":"receive"}],"evm":{"bytecode":{"linkReferences":{},"object":"60c0806040526200284c80380380916200001a828562000aff565b8339810160a08282031262000afa5781516001600160401b03811162000afa57816200004891840162000b23565b602083015190916001600160401b03821162000afa576200006b91840162000b23565b916200007a6040820162000b9a565b916200008e60806060840151930162000b9a565b815190916001600160401b038211620005a25760035490600182811c9216801562000aef575b6020831014620005815781601f84931162000a7a575b50602090601f8311600114620009ef57600092620009e3575b50508160011b916000199060031b1c1916176003555b83516001600160401b038111620005a257600454600181811c91168015620009d8575b60208210146200058157601f81116200096e575b50602094601f82116001146200090157948192939495600092620008f5575b50508160011b916000199060031b1c1916176004555b6001600160a01b0381168015620008dc57600580546001600160a01b03198116831790915560405191906001600160a01b03167f8be0079c531659141344cd1fd0a4f28419497f9722a3daafe3b4186f6b6457e0600080a3600160065567016345785d8a000034106200089a575090620002166000926402540be40080600755600855846080528260a052600160ff1960145416176014554260125534601055620002103062000bbd565b62000bbd565b60405163138da1af60e31b8152600481019190915291829060249082906001600160a01b03165afa80156200088e57600090819282838490859286948796620007a4575b50604051976001600160401b036101008a01908111908a1117620005a25761010089016040908152888a5260208a0191909152880152151560608701526001600160a01b0316608086015260a085015260c0840152151560e08301528051906001600160401b038211620005a25760095490600182811c9216801562000799575b6020831014620005815781601f84931162000738575b50602090601f8311600114620006ba57600092620006ae575b50508160011b916000199060031b1c1916176009555b60208101518051906001600160401b038211620005a257600a5490600182811c92168015620006a3575b6020831014620005815781601f84931162000642575b50602090601f8311600114620005c457600092620005b8575b50508160011b916000199060031b1c191617600a555b6040810151600b5560608101511515600c5460ff610100600160a81b03608085015160081b1692169060018060a81b0319161717600c5560a0810151600d5560c08101519081519160018060401b038311620005a257600e54600181811c9116801562000597575b60208210146200058157601f811162000528575b50602090601f8411600114620004ab5760e09391600091836200049f575b50508160011b916000199060031b1c191617600e555b0151151560ff8019600f5416911617600f556040513481527fc17cea59c2955cb181b03393209566960365771dbba9dc3d510180e7cb31208860203392a2604051611b93908162000c59823960805181610b46015260a051816106320152f35b01519050388062000429565b600e6000908152600080516020620027ec833981519152929190601f198616905b8181106200050f575091600193918660e0979410620004f5575b505050811b01600e556200043f565b015160001960f88460031b161c19169055388080620004e6565b92936020600181928786015181550195019301620004cc565b600e600052600080516020620027ec833981519152601f850160051c8101916020861062000576575b601f0160051c01905b8181106200056957506200040b565b600081556001016200055a565b909150819062000551565b634e487b7160e01b600052602260045260246000fd5b90607f1690620003f7565b634e487b7160e01b600052604160045260246000fd5b01519050388062000379565b600a600090815293506000805160206200280c83398151915291905b601f198416851062000626576001945083601f198116106200060c575b505050811b01600a556200038f565b015160001960f88460031b161c19169055388080620005fd565b81810151835560209485019460019093019290910190620005e0565b600a6000529091506000805160206200280c833981519152601f840160051c8101602085106200069b575b90849392915b601f830160051c820181106200068b57505062000360565b6000815585945060010162000673565b50806200066d565b91607f16916200034a565b0151905038806200030a565b6009600090815293506000805160206200282c83398151915291905b601f19841685106200071c576001945083601f1981161062000702575b505050811b0160095562000320565b015160001960f88460031b161c19169055388080620006f3565b81810151835560209485019460019093019290910190620006d6565b60096000529091506000805160206200282c833981519152601f840160051c81016020851062000791575b90849392915b601f830160051c8201811062000781575050620002f1565b6000815585945060010162000769565b508062000763565b91607f1691620002db565b9697505050505050503d918281833e620007bf838362000aff565b610100828481010312620008835781516001600160401b0381116200088a57620007ef9084840190840162000b23565b60208301516001600160401b0381116200088657620008149085850190850162000b23565b92604081015194620008296060830162000baf565b93620008386080840162000b9a565b9060a08401519260c08501519160018060401b0383116200088357506200086b620008739260e092870190870162000b23565b940162000baf565b939596949091929394386200025a565b80fd5b8280fd5b5080fd5b6040513d6000823e3d90fd5b62461bcd60e51b815260206004820152601e60248201527f496e73756666696369656e7420696e697469616c206c697175696469747900006044820152606490fd5b604051631e4fbdf760e01b815260006004820152602490fd5b0151905038806200014f565b601f19821695600460005260206000209160005b88811062000955575083600195969798106200093b575b505050811b0160045562000165565b015160001960f88460031b161c191690553880806200092c565b9192602060018192868501518155019401920162000915565b60046000527f8a35acfbc15ff81a39ae7d344fd709f28e8600b4aa8c65c6b64bfe7fe36bd19b601f830160051c81019160208410620009cd575b601f0160051c01905b818110620009c0575062000130565b60008155600101620009b1565b9091508190620009a8565b90607f16906200011c565b015190503880620000e3565b600360009081527fc2575a0e9e593c00f959f8c92f12db2869c3395a3b0502d05e2516446f71f85b9350601f198516905b81811062000a61575090846001959493921062000a47575b505050811b01600355620000f9565b015160001960f88460031b161c1916905538808062000a38565b9293602060018192878601518155019501930162000a20565b60036000529091507fc2575a0e9e593c00f959f8c92f12db2869c3395a3b0502d05e2516446f71f85b601f840160051c8101916020851062000ae4575b90601f859493920160051c01905b81811062000ad45750620000ca565b6000815584935060010162000ac5565b909150819062000ab7565b91607f1691620000b4565b600080fd5b601f909101601f19168101906001600160401b03821190821017620005a257604052565b919080601f8401121562000afa578251906001600160401b038211620005a2576040519160209162000b5f601f8301601f191684018562000aff565b81845282828701011162000afa5760005b81811062000b8657508260009394955001015290565b858101830151848201840152820162000b70565b51906001600160a01b038216820362000afa57565b5190811515820362000afa57565b6001600160a01b0316801562000c3f576002546969e10de76676d080000080820180921162000c295760207fddf252ad1be2c89b69c2b068fc378daa952ba7f163c4a11628f55a4df523b3ef9160009360025584845283825260408420818154019055604051908152a3565b634e487b7160e01b600052601160045260246000fd5b60405163ec442f0560e01b815260006004820152602490fdfe6080604081815260048036101561001e575b505050361561001c57005b005b600092833560e01c908163045fa779146112915750806306fdde03146111be578063095ea7b314611115578063140b9d84146110f657806318160ddd146110d757806321b77d63146110b457806323b872dd14610fc15780632d9e3f6214610eec578063313ce56714610ed057806332cb6b0c14610eab5780633610724e14610c6e57806352dc0f9614610bc75780635b0c5dbd14610b755780636485b6bb14610b31578063665a11ca14610b1257806367bf602b146109d75780636949faeb146109b85780636a6ae606146109805780636b4ed21b146109615780636c11bcd31461070d5780636e9087db146106e957806370a08231146106b2578063715018a6146106555780638654aa341461061a578063873c5e60146104e45780638da5cb5b146104bb57806395d89b41146103d15780639d1b464a146103b2578063a9059cbb14610381578063ad9f20a614610361578063ae10426514610337578063c7876ea414610318578063d3bc9e2a146102e1578063dd62ed3e14610298578063f0d673f3146102455763f2fde38b036100115734610241576020366003190112610241576101cc61158b565b906101d5611837565b6001600160a01b0391821692831561022b575050600554826bffffffffffffffffffffffff60a01b821617600555167f8be0079c531659141344cd1fd0a4f28419497f9722a3daafe3b4186f6b6457e08380a380f35b51631e4fbdf760e01b8152908101849052602490fd5b8280fd5b50503461029457816003193601126102945760c0906008549060075490601054601154906013549260ff60145416948151968752602087015285015260608401526080830152151560a0820152f35b5080fd5b505034610294578060031936011261029457806020926102b661158b565b6102be6115a6565b6001600160a01b0391821683526001865283832091168252845220549051908152f35b838234610294576020366003190112610294573580151580910361029457610307611837565b60ff8019600c5416911617600c5580f35b5050346102945781600319360112610294576020906007549051908152f35b50913461035e57602036600319011261035e5750610357602092356119c3565b9051908152f35b80fd5b505034610294578160031936011261029457602090516402540be4008152f35b5050346102945780600319360112610294576020906103ab6103a161158b565b6024359033611863565b5160018152f35b5050346102945781600319360112610294576020906008549051908152f35b509034610241578260031936011261024157805191838154906103f3826115bc565b808652926001928084169081156104905750600114610434575b610430868661041e828b0383611529565b5191829160208352602083019061154b565b0390f35b815294507f8a35acfbc15ff81a39ae7d344fd709f28e8600b4aa8c65c6b64bfe7fe36bd19b5b8286106104785750505061041e82602061043095820101943861040d565b8054602087870181019190915290950194810161045a565b905061043097508693506020925061041e94915060ff191682840152151560051b820101943861040d565b50503461029457816003193601126102945760055490516001600160a01b039091168152602090f35b50823461035e5760209182600319360112610294573590601554918280821091180282189161051283611b31565b9261051f86519485611529565b808452601f1961052e82611b31565b0185845b8281106105f457505050825b81811061059357505050835192808401908085528351809252808686019401925b82811061056c5785850386f35b8351805186528083015186840152870151878601526060909401939281019260010161055f565b806105b26105ad6105ef936105a88688611b01565b611941565b6117e6565b5060028951916105c1836114da565b8054835260018101548a8401520154898201526105de8288611b49565b526105e98187611b49565b50611af2565b61053e565b88516105ff816114da565b8681528683820152868a820152828289010152018690610532565b505034610294578160031936011261029457602090517f00000000000000000000000000000000000000000000000000000000000000008152f35b833461035e578060031936011261035e5761066e611837565b600580546001600160a01b0319811690915581906001600160a01b03167f8be0079c531659141344cd1fd0a4f28419497f9722a3daafe3b4186f6b6457e08280a380f35b5050346102945760203660031901126102945760209181906001600160a01b036106da61158b565b16815280845220549051908152f35b50503461029457816003193601126102945760209060ff6014541690519015158152f35b509034610241576020918260031936011261095d57803561072c611b0e565b61073a60ff60145416611a57565b610745811515611964565b3385528484528083862054106109245760105480156108f257610767826119c3565b92670de0b6b3a764000061077b85856119b0565b048092106108af578690610790843033611863565b84600855426012556107a484601154611941565b6011553382528187528582205415610882575b50808080936107dc88516107ca816114da565b428152888b820152878a820152611a97565b6107e881601054611b01565b601055818115610879575b3390f11561086f57817f15819dd2fd9f6418b142e798d08a18d0bf06ea368f4480b7b0d3f75bd966bc489484519283528201527f2dcf9433d75db0d8b1c172641f85e319ffe4ad22e108a95d1847ceb906e5195d833392a26008549151918252602082015242604082015280606081015b0390a1600160065580f35b82513d86823e3d90fd5b506108fc6107f3565b6013549150811561089c57506000190160135585806107b7565b634e487b7160e01b885260119052602487fd5b845162461bcd60e51b8152908101869052601f60248201527f496e73756666696369656e74206c697175696469747920666f722073616c65006044820152606490fd5b835162461bcd60e51b8152808401869052600c60248201526b4e6f206c697175696469747960a01b6044820152606490fd5b5082606492519162461bcd60e51b83528201526014602482015273496e73756666696369656e742062616c616e636560601b6044820152fd5b8380fd5b5050346102945781600319360112610294576020906013549051908152f35b5050346102945760203660031901126102945760209181906001600160a01b036109a861158b565b1681526016845220549051908152f35b5050346102945781600319360112610294576020906012549051908152f35b82843461035e578060031936011261035e5781516020916109f78261150c565b60e06060928381528385820152828682015282848201528260808201528260a08201528360c08201520152825192610a2e8461150c565b610a366115f6565b8452610b06610a436116b4565b91848601928352600b5490808701918252600c548588019060ff811615158252608089019060018060a01b03809160081c168252600d549160a08b01928352610a8a61174d565b9360c08c0194855260ff600f54169960e08d019a15158b52610adb87519d8e9d8e52519a8d610ac76101009d8e602084015261012083019061154b565b915190601f199a8b8285030191015261154b565b9751908c015251151560808b0152511660a08901525160c088015251908683030160e087015261154b565b91511515908301520390f35b5050346102945781600319360112610294576020906010549051908152f35b505034610294578160031936011261029457517f00000000000000000000000000000000000000000000000000000000000000006001600160a01b03168152602090f35b5082903461029457602036600319011261029457359060155482101561035e5750610b9f906117e6565b5080546001820154600290920154925190815260208101919091526040810191909152606090f35b505034610294578160031936011261029457610c2290610be56115f6565b90610c62610bf16116b4565b91600b54600c54600d5490610c0461174d565b92610c3060ff600f54169786519a8b9a610100808d528c019061154b565b908a820360208c015261154b565b9488015260ff81161515606088015260081c6001600160a01b0316608087015260a086015284820360c086015261154b565b90151560e08301520390f35b50906020918260031936011261095d578035610c88611b0e565b610c9660ff60145416611a57565b610ca1811515611964565b60ff600c541615610e7357308552848452828520548111610e3857610cc5816119c3565b91670de0b6b3a7640000610cd984846119b0565b0490813410610dfe57508590610cf0833330611863565b610d108551610cfe816114da565b42815285888201528487820152611a97565b8360085542601255610d2483601154611941565b601155338252818652828583205414610deb575b610d4481601054611941565b601055803411610dbe575b5050817f15819dd2fd9f6418b142e798d08a18d0bf06ea368f4480b7b0d3f75bd966bc489484519283528201527f8fafebcaf9d154343dad25669bfa277f4fbacd7ac6b0c4fed522580e040a0f33833392a2600854915191825260208201524260408201528060608101610864565b8180610dcb819334611b01565b818115610de2575b3390f11561086f578438610d4f565b506108fc610dd3565b610df6601354611af2565b601355610d38565b845162461bcd60e51b81529081018690526014602482015273125b9cdd59999a58da595b9d081c185e5b595b9d60621b6044820152606490fd5b5082606492519162461bcd60e51b83528201526016602482015275496e73756666696369656e74206c697175696469747960501b6044820152fd5b5082606492519162461bcd60e51b83528201526013602482015272506174656e74206e6f7420666f722073616c6560681b6044820152fd5b5050346102945781600319360112610294576020905169d3c21bcecceda10000008152f35b5050346102945781600319360112610294576020905160128152f35b503461024157602036600319011261024157803590610f09611837565b6010549067016345785d8a0000838101809111610fae57821115610f6b5750838083610f3782958395611b01565b6010556005546001600160a01b0316828215610f62575bf115610f58575080f35b51903d90823e3d90fd5b506108fc610f4e565b606490602085519162461bcd60e51b8352820152601d60248201527f496e73756666696369656e7420657863657373206c69717569646974790000006044820152fd5b634e487b7160e01b865260118252602486fd5b50823461035e57606036600319011261035e57610fdc61158b565b610fe46115a6565b916044359360018060a01b038316808352600160205286832033845260205286832054916000198310611020575b6020886103ab898989611863565b86831061108857811561107157331561105a575082526001602090815286832033845281529186902090859003905582906103ab87611012565b8751634a1406b160e11b8152908101849052602490fd5b875163e602df0560e01b8152908101849052602490fd5b8751637dc7a0d960e11b8152339181019182526020820193909352604081018790528291506060010390fd5b5050346102945781600319360112610294576020905167016345785d8a00008152f35b5050346102945781600319360112610294576020906002549051908152f35b5050346102945781600319360112610294576020906011549051908152f35b503461024157816003193601126102415761112e61158b565b6024359033156111a7576001600160a01b031691821561119057508083602095338152600187528181208582528752205582519081527f8c5be1e5ebec7d5bd14f71427d1e84f3dd0314c0f7b2291e5b200ac8c7c3b925843392a35160018152f35b8351634a1406b160e11b8152908101859052602490fd5b835163e602df0560e01b8152808401869052602490fd5b505034610294578160031936011261029457805190826003546111e0816115bc565b80855291600191808316908115611269575060011461120c575b50505061041e82610430940383611529565b9450600385527fc2575a0e9e593c00f959f8c92f12db2869c3395a3b0502d05e2516446f71f85b5b8286106112515750505061041e82602061043095820101946111fa565b80546020878701810191909152909501948101611234565b61043097508693506020925061041e94915060ff191682840152151560051b820101946111fa565b849150833461024157806003193601126102415783359367ffffffffffffffff908186116114d657366023870112156114d65785810135918083116114c357602092601f19976112e8858a601f8501160188611529565b81875236602483830101116114bf578188926024879301838a01378701015260243591611313611837565b85519182116114ac5750611328600a546115bc565b601f811161144a575b508296601f82116001146113ac57508086977fc0d21bdc9727f7d39495ff4dd003e22925de85f1e81aacfd7caa71e65034e9df97916113a1575b508160011b916000199060031b1c191617600a555b80600b55611397835194848695865285019061154b565b918301520390a180f35b90508501518861136b565b8116600a87527fc65a7bb8d6351c1cf70c95a316cc6a92839c986682d98bc35f958f4883f9d2a890875b8181106114335750907fc0d21bdc9727f7d39495ff4dd003e22925de85f1e81aacfd7caa71e65034e9df979883600194931061141a575b5050811b01600a55611380565b87015160001960f88460031b161c19169055888061140d565b878a015183559885019860019092019185016113d6565b600a87527fc65a7bb8d6351c1cf70c95a316cc6a92839c986682d98bc35f958f4883f9d2a8601f830160051c8101918584106114a2575b601f0160051c01905b8181106114975750611331565b87815560010161148a565b9091508190611481565b634e487b7160e01b875260419052602486fd5b8780fd5b634e487b7160e01b865260418252602486fd5b8480fd5b6060810190811067ffffffffffffffff8211176114f657604052565b634e487b7160e01b600052604160045260246000fd5b610100810190811067ffffffffffffffff8211176114f657604052565b90601f8019910116810190811067ffffffffffffffff8211176114f657604052565b919082519283825260005b848110611577575050826000602080949584010152601f8019910116010190565b602081830181015184830182015201611556565b600435906001600160a01b03821682036115a157565b600080fd5b602435906001600160a01b03821682036115a157565b90600182811c921680156115ec575b60208310146115d657565b634e487b7160e01b600052602260045260246000fd5b91607f16916115cb565b604051906000826009549161160a836115bc565b808352926001908181169081156116925750600114611633575b5061163192500383611529565b565b6009600090815291507f6e1540171b6c0c960b71a7020d9f60077f6af931a8bbf590da0223dacf75c7af5b8483106116775750611631935050810160200138611624565b81935090816020925483858a0101520191019091859261165e565b90506020925061163194915060ff191682840152151560051b82010138611624565b60405190600082600a54916116c8836115bc565b8083529260019081811690811561169257506001146116ee575061163192500383611529565b600a600090815291507fc65a7bb8d6351c1cf70c95a316cc6a92839c986682d98bc35f958f4883f9d2a85b8483106117325750611631935050810160200138611624565b81935090816020925483858a01015201910190918592611719565b60405190600082600e5491611761836115bc565b808352926001908181169081156116925750600114611787575061163192500383611529565b600e600090815291507fbb7b4a454dc3493923482f07822329ed19e8244eff582cc204f8554c3620c3fd5b8483106117cb5750611631935050810160200138611624565b81935090816020925483858a010152019101909185926117b2565b601554811015611821576003906015600052027f55f448fdea98c4d29eb340757ef0a66cd03dbb9538908a6a81d96026b71ec4750190600090565b634e487b7160e01b600052603260045260246000fd5b6005546001600160a01b0316330361184b57565b60405163118cdaa760e01b8152336004820152602490fd5b916001600160a01b03808416928315611928571692831561190f57600090838252816020526040822054908382106118dd575091604082827fddf252ad1be2c89b69c2b068fc378daa952ba7f163c4a11628f55a4df523b3ef958760209652828652038282205586815220818154019055604051908152a3565b60405163391434e360e21b81526001600160a01b03919091166004820152602481019190915260448101839052606490fd5b60405163ec442f0560e01b815260006004820152602490fd5b604051634b637e8f60e11b815260006004820152602490fd5b9190820180921161194e57565b634e487b7160e01b600052601160045260246000fd5b1561196b57565b60405162461bcd60e51b815260206004820152601d60248201527f416d6f756e74206d7573742062652067726561746572207468616e20300000006044820152606490fd5b8181029291811591840414171561194e57565b80156119cf8115611964565b60009030825281602052604082205490670de0b6b3a7640000808502948504141715611a435760018101809111611a43578015611a2f576402540be40092048201809211611a1b575090565b634e487b7160e01b81526011600452602490fd5b634e487b7160e01b82526012600452602482fd5b634e487b7160e01b82526011600452602482fd5b15611a5e57565b60405162461bcd60e51b8152602060048201526011602482015270151c98591a5b99c81a5cc81c185d5cd959607a1b6044820152606490fd5b601554680100000000000000008110156114f657806001611abb92016015556117e6565b919091611adc57604081600292518455602081015160018501550151910155565b634e487b7160e01b600052600060045260246000fd5b600019811461194e5760010190565b9190820391821161194e57565b600260065414611b1f576002600655565b604051633ee5aeb560e01b8152600490fd5b67ffffffffffffffff81116114f65760051b60200190565b80518210156118215760209160051b01019056fea2646970667358221220f60320c70a91a0066052fc6a8b4c5880f8a173c6b4f3318df9037fe31959d8e264736f6c63430008140033bb7b4a454dc3493923482f07822329ed19e8244eff582cc204f8554c3620c3fdc65a7bb8d6351c1cf70c95a316cc6a92839c986682d98bc35f958f4883f9d2a86e1540171b6c0c960b71a7020d9f60077f6af931a8bbf590da0223dacf75c7af","opcodes":"PUSH1 0xC0 DUP1 PUSH1 0x40 MSTORE PUSH3 0x284C DUP1 CODESIZE SUB DUP1 SWAP2 PUSH3 0x1A DUP3 DUP6 PUSH3 0xAFF JUMP JUMPDEST DUP4 CODECOPY DUP2 ADD PUSH1 0xA0 DUP3 DUP3 SUB SLT PUSH3 0xAFA JUMPI DUP2 MLOAD PUSH1 0x1 PUSH1 0x1 PUSH1 0x40 SHL SUB DUP2 GT PUSH3 0xAFA JUMPI DUP2 PUSH3 0x48 SWAP2 DUP5 ADD PUSH3 0xB23 JUMP JUMPDEST PUSH1 0x20 DUP4 ADD MLOAD SWAP1 SWAP2 PUSH1 0x1 PUSH1 0x1 PUSH1 0x40 SHL SUB DUP3 GT PUSH3 0xAFA JUMPI PUSH3 0x6B SWAP2 DUP5 ADD PUSH3 0xB23 JUMP JUMPDEST SWAP2 PUSH3 0x7A PUSH1 0x40 DUP3 ADD PUSH3 0xB9A JUMP JUMPDEST SWAP2 PUSH3 0x8E PUSH1 0x80 PUSH1 0x60 DUP5 ADD MLOAD SWAP4 ADD PUSH3 0xB9A JUMP JUMPDEST DUP2 MLOAD SWAP1 SWAP2 PUSH1 0x1 PUSH1 0x1 PUSH1 0x40 SHL SUB DUP3 GT PUSH3 0x5A2 JUMPI PUSH1 0x3 SLOAD SWAP1 PUSH1 0x1 DUP3 DUP2 SHR SWAP3 AND DUP1 ISZERO PUSH3 0xAEF JUMPI JUMPDEST PUSH1 0x20 DUP4 LT EQ PUSH3 0x581 JUMPI DUP2 PUSH1 0x1F DUP5 SWAP4 GT PUSH3 0xA7A JUMPI JUMPDEST POP PUSH1 0x20 SWAP1 PUSH1 0x1F DUP4 GT PUSH1 0x1 EQ PUSH3 0x9EF JUMPI PUSH1 0x0 SWAP3 PUSH3 0x9E3 JUMPI JUMPDEST POP POP DUP2 PUSH1 0x1 SHL SWAP2 PUSH1 0x0 NOT SWAP1 PUSH1 0x3 SHL SHR NOT AND OR PUSH1 0x3 SSTORE JUMPDEST DUP4 MLOAD PUSH1 0x1 PUSH1 0x1 PUSH1 0x40 SHL SUB DUP2 GT PUSH3 0x5A2 JUMPI PUSH1 0x4 SLOAD PUSH1 0x1 DUP2 DUP2 SHR SWAP2 AND DUP1 ISZERO PUSH3 0x9D8 JUMPI JUMPDEST PUSH1 0x20 DUP3 LT EQ PUSH3 0x581 JUMPI PUSH1 0x1F DUP2 GT PUSH3 0x96E JUMPI JUMPDEST POP PUSH1 0x20 SWAP5 PUSH1 0x1F DUP3 GT PUSH1 0x1 EQ PUSH3 0x901 JUMPI SWAP5 DUP2 SWAP3 SWAP4 SWAP5 SWAP6 PUSH1 0x0 SWAP3 PUSH3 0x8F5 JUMPI JUMPDEST POP POP DUP2 PUSH1 0x1 SHL SWAP2 PUSH1 0x0 NOT SWAP1 PUSH1 0x3 SHL SHR NOT AND OR PUSH1 0x4 SSTORE JUMPDEST PUSH1 0x1 PUSH1 0x1 PUSH1 0xA0 SHL SUB DUP2 AND DUP1 ISZERO PUSH3 0x8DC JUMPI PUSH1 0x5 DUP1 SLOAD PUSH1 0x1 PUSH1 0x1 PUSH1 0xA0 SHL SUB NOT DUP2 AND DUP4 OR SWAP1 SWAP2 SSTORE PUSH1 0x40 MLOAD SWAP2 SWAP1 PUSH1 0x1 PUSH1 0x1 PUSH1 0xA0 SHL SUB AND PUSH32 0x8BE0079C531659141344CD1FD0A4F28419497F9722A3DAAFE3B4186F6B6457E0 PUSH1 0x0 DUP1 LOG3 PUSH1 0x1 PUSH1 0x6 SSTORE PUSH8 0x16345785D8A0000 CALLVALUE LT PUSH3 0x89A JUMPI POP SWAP1 PUSH3 0x216 PUSH1 0x0 SWAP3 PUSH5 0x2540BE400 DUP1 PUSH1 0x7 SSTORE PUSH1 0x8 SSTORE DUP5 PUSH1 0x80 MSTORE DUP3 PUSH1 0xA0 MSTORE PUSH1 0x1 PUSH1 0xFF NOT PUSH1 0x14 SLOAD AND OR PUSH1 0x14 SSTORE TIMESTAMP PUSH1 0x12 SSTORE CALLVALUE PUSH1 0x10 SSTORE PUSH3 0x210 ADDRESS PUSH3 0xBBD JUMP JUMPDEST PUSH3 0xBBD JUMP JUMPDEST PUSH1 0x40 MLOAD PUSH4 0x138DA1AF PUSH1 0xE3 SHL DUP2 MSTORE PUSH1 0x4 DUP2 ADD SWAP2 SWAP1 SWAP2 MSTORE SWAP2 DUP3 SWAP1 PUSH1 0x24 SWAP1 DUP3 SWAP1 PUSH1 0x1 PUSH1 0x1 PUSH1 0xA0 SHL SUB AND GAS STATICCALL DUP1 ISZERO PUSH3 0x88E JUMPI PUSH1 0x0 SWAP1 DUP2 SWAP3 DUP3 DUP4 DUP5 SWAP1 DUP6 SWAP3 DUP7 SWAP5 DUP8 SWAP7 PUSH3 0x7A4 JUMPI JUMPDEST POP PUSH1 0x40 MLOAD SWAP8 PUSH1 0x1 PUSH1 0x1 PUSH1 0x40 SHL SUB PUSH2 0x100 DUP11 ADD SWAP1 DUP2 GT SWAP1 DUP11 GT OR PUSH3 0x5A2 JUMPI PUSH2 0x100 DUP10 ADD PUSH1 0x40 SWAP1 DUP2 MSTORE DUP9 DUP11 MSTORE PUSH1 0x20 DUP11 ADD SWAP2 SWAP1 SWAP2 MSTORE DUP9 ADD MSTORE ISZERO ISZERO PUSH1 0x60 DUP8 ADD MSTORE PUSH1 0x1 PUSH1 0x1 PUSH1 0xA0 SHL SUB AND PUSH1 0x80 DUP7 ADD MSTORE PUSH1 0xA0 DUP6 ADD MSTORE PUSH1 0xC0 DUP5 ADD MSTORE ISZERO ISZERO PUSH1 0xE0 DUP4 ADD MSTORE DUP1 MLOAD SWAP1 PUSH1 0x1 PUSH1 0x1 PUSH1 0x40 SHL SUB DUP3 GT PUSH3 0x5A2 JUMPI PUSH1 0x9 SLOAD SWAP1 PUSH1 0x1 DUP3 DUP2 SHR SWAP3 AND DUP1 ISZERO PUSH3 0x799 JUMPI JUMPDEST PUSH1 0x20 DUP4 LT EQ PUSH3 0x581 JUMPI DUP2 PUSH1 0x1F DUP5 SWAP4 GT PUSH3 0x738 JUMPI JUMPDEST POP PUSH1 0x20 SWAP1 PUSH1 0x1F DUP4 GT PUSH1 0x1 EQ PUSH3 0x6BA JUMPI PUSH1 0x0 SWAP3 PUSH3 0x6AE JUMPI JUMPDEST POP POP DUP2 PUSH1 0x1 SHL SWAP2 PUSH1 0x0 NOT SWAP1 PUSH1 0x3 SHL SHR NOT AND OR PUSH1 0x9 SSTORE JUMPDEST PUSH1 0x20 DUP2 ADD MLOAD DUP1 MLOAD SWAP1 PUSH1 0x1 PUSH1 0x1 PUSH1 0x40 SHL SUB DUP3 GT PUSH3 0x5A2 JUMPI PUSH1 0xA SLOAD SWAP1 PUSH1 0x1 DUP3 DUP2 SHR SWAP3 AND DUP1 ISZERO PUSH3 0x6A3 JUMPI JUMPDEST PUSH1 0x20 DUP4 LT EQ PUSH3 0x581 JUMPI DUP2 PUSH1 0x1F DUP5 SWAP4 GT PUSH3 0x642 JUMPI JUMPDEST POP PUSH1 0x20 SWAP1 PUSH1 0x1F DUP4 GT PUSH1 0x1 EQ PUSH3 0x5C4 JUMPI PUSH1 0x0 SWAP3 PUSH3 0x5B8 JUMPI JUMPDEST POP POP DUP2 PUSH1 0x1 SHL SWAP2 PUSH1 0x0 NOT SWAP1 PUSH1 0x3 SHL SHR NOT AND OR PUSH1 0xA SSTORE JUMPDEST PUSH1 0x40 DUP2 ADD MLOAD PUSH1 0xB SSTORE PUSH1 0x60 DUP2 ADD MLOAD ISZERO ISZERO PUSH1 0xC SLOAD PUSH1 0xFF PUSH2 0x100 PUSH1 0x1 PUSH1 0xA8 SHL SUB PUSH1 0x80 DUP6 ADD MLOAD PUSH1 0x8 SHL AND SWAP3 AND SWAP1 PUSH1 0x1 DUP1 PUSH1 0xA8 SHL SUB NOT AND OR OR PUSH1 0xC SSTORE PUSH1 0xA0 DUP2 ADD MLOAD PUSH1 0xD SSTORE PUSH1 0xC0 DUP2 ADD MLOAD SWAP1 DUP2 MLOAD SWAP2 PUSH1 0x1 DUP1 PUSH1 0x40 SHL SUB DUP4 GT PUSH3 0x5A2 JUMPI PUSH1 0xE SLOAD PUSH1 0x1 DUP2 DUP2 SHR SWAP2 AND DUP1 ISZERO PUSH3 0x597 JUMPI JUMPDEST PUSH1 0x20 DUP3 LT EQ PUSH3 0x581 JUMPI PUSH1 0x1F DUP2 GT PUSH3 0x528 JUMPI JUMPDEST POP PUSH1 0x20 SWAP1 PUSH1 0x1F DUP5 GT PUSH1 0x1 EQ PUSH3 0x4AB JUMPI PUSH1 0xE0 SWAP4 SWAP2 PUSH1 0x0 SWAP2 DUP4 PUSH3 0x49F JUMPI JUMPDEST POP POP DUP2 PUSH1 0x1 SHL SWAP2 PUSH1 0x0 NOT SWAP1 PUSH1 0x3 SHL SHR NOT AND OR PUSH1 0xE SSTORE JUMPDEST ADD MLOAD ISZERO ISZERO PUSH1 0xFF DUP1 NOT PUSH1 0xF SLOAD AND SWAP2 AND OR PUSH1 0xF SSTORE PUSH1 0x40 MLOAD CALLVALUE DUP2 MSTORE PUSH32 0xC17CEA59C2955CB181B03393209566960365771DBBA9DC3D510180E7CB312088 PUSH1 0x20 CALLER SWAP3 LOG2 PUSH1 0x40 MLOAD PUSH2 0x1B93 SWAP1 DUP2 PUSH3 0xC59 DUP3 CODECOPY PUSH1 0x80 MLOAD DUP2 PUSH2 0xB46 ADD MSTORE PUSH1 0xA0 MLOAD DUP2 PUSH2 0x632 ADD MSTORE RETURN JUMPDEST ADD MLOAD SWAP1 POP CODESIZE DUP1 PUSH3 0x429 JUMP JUMPDEST PUSH1 0xE PUSH1 0x0 SWAP1 DUP2 MSTORE PUSH1 0x0 DUP1 MLOAD PUSH1 0x20 PUSH3 0x27EC DUP4 CODECOPY DUP2 MLOAD SWAP2 MSTORE SWAP3 SWAP2 SWAP1 PUSH1 0x1F NOT DUP7 AND SWAP1 JUMPDEST DUP2 DUP2 LT PUSH3 0x50F JUMPI POP SWAP2 PUSH1 0x1 SWAP4 SWAP2 DUP7 PUSH1 0xE0 SWAP8 SWAP5 LT PUSH3 0x4F5 JUMPI JUMPDEST POP POP POP DUP2 SHL ADD PUSH1 0xE SSTORE PUSH3 0x43F JUMP JUMPDEST ADD MLOAD PUSH1 0x0 NOT PUSH1 0xF8 DUP5 PUSH1 0x3 SHL AND SHR NOT AND SWAP1 SSTORE CODESIZE DUP1 DUP1 PUSH3 0x4E6 JUMP JUMPDEST SWAP3 SWAP4 PUSH1 0x20 PUSH1 0x1 DUP2 SWAP3 DUP8 DUP7 ADD MLOAD DUP2 SSTORE ADD SWAP6 ADD SWAP4 ADD PUSH3 0x4CC JUMP JUMPDEST PUSH1 0xE PUSH1 0x0 MSTORE PUSH1 0x0 DUP1 MLOAD PUSH1 0x20 PUSH3 0x27EC DUP4 CODECOPY DUP2 MLOAD SWAP2 MSTORE PUSH1 0x1F DUP6 ADD PUSH1 0x5 SHR DUP2 ADD SWAP2 PUSH1 0x20 DUP7 LT PUSH3 0x576 JUMPI JUMPDEST PUSH1 0x1F ADD PUSH1 0x5 SHR ADD SWAP1 JUMPDEST DUP2 DUP2 LT PUSH3 0x569 JUMPI POP PUSH3 0x40B JUMP JUMPDEST PUSH1 0x0 DUP2 SSTORE PUSH1 0x1 ADD PUSH3 0x55A JUMP JUMPDEST SWAP1 SWAP2 POP DUP2 SWAP1 PUSH3 0x551 JUMP JUMPDEST PUSH4 0x4E487B71 PUSH1 0xE0 SHL PUSH1 0x0 MSTORE PUSH1 0x22 PUSH1 0x4 MSTORE PUSH1 0x24 PUSH1 0x0 REVERT JUMPDEST SWAP1 PUSH1 0x7F AND SWAP1 PUSH3 0x3F7 JUMP JUMPDEST PUSH4 0x4E487B71 PUSH1 0xE0 SHL PUSH1 0x0 MSTORE PUSH1 0x41 PUSH1 0x4 MSTORE PUSH1 0x24 PUSH1 0x0 REVERT JUMPDEST ADD MLOAD SWAP1 POP CODESIZE DUP1 PUSH3 0x379 JUMP JUMPDEST PUSH1 0xA PUSH1 0x0 SWAP1 DUP2 MSTORE SWAP4 POP PUSH1 0x0 DUP1 MLOAD PUSH1 0x20 PUSH3 0x280C DUP4 CODECOPY DUP2 MLOAD SWAP2 MSTORE SWAP2 SWAP1 JUMPDEST PUSH1 0x1F NOT DUP5 AND DUP6 LT PUSH3 0x626 JUMPI PUSH1 0x1 SWAP5 POP DUP4 PUSH1 0x1F NOT DUP2 AND LT PUSH3 0x60C JUMPI JUMPDEST POP POP POP DUP2 SHL ADD PUSH1 0xA SSTORE PUSH3 0x38F JUMP JUMPDEST ADD MLOAD PUSH1 0x0 NOT PUSH1 0xF8 DUP5 PUSH1 0x3 SHL AND SHR NOT AND SWAP1 SSTORE CODESIZE DUP1 DUP1 PUSH3 0x5FD JUMP JUMPDEST DUP2 DUP2 ADD MLOAD DUP4 SSTORE PUSH1 0x20 SWAP5 DUP6 ADD SWAP5 PUSH1 0x1 SWAP1 SWAP4 ADD SWAP3 SWAP1 SWAP2 ADD SWAP1 PUSH3 0x5E0 JUMP JUMPDEST PUSH1 0xA PUSH1 0x0 MSTORE SWAP1 SWAP2 POP PUSH1 0x0 DUP1 MLOAD PUSH1 0x20 PUSH3 0x280C DUP4 CODECOPY DUP2 MLOAD SWAP2 MSTORE PUSH1 0x1F DUP5 ADD PUSH1 0x5 SHR DUP2 ADD PUSH1 0x20 DUP6 LT PUSH3 0x69B JUMPI JUMPDEST SWAP1 DUP5 SWAP4 SWAP3 SWAP2 JUMPDEST PUSH1 0x1F DUP4 ADD PUSH1 0x5 SHR DUP3 ADD DUP2 LT PUSH3 0x68B JUMPI POP POP PUSH3 0x360 JUMP JUMPDEST PUSH1 0x0 DUP2 SSTORE DUP6 SWAP5 POP PUSH1 0x1 ADD PUSH3 0x673 JUMP JUMPDEST POP DUP1 PUSH3 0x66D JUMP JUMPDEST SWAP2 PUSH1 0x7F AND SWAP2 PUSH3 0x34A JUMP JUMPDEST ADD MLOAD SWAP1 POP CODESIZE DUP1 PUSH3 0x30A JUMP JUMPDEST PUSH1 0x9 PUSH1 0x0 SWAP1 DUP2 MSTORE SWAP4 POP PUSH1 0x0 DUP1 MLOAD PUSH1 0x20 PUSH3 0x282C DUP4 CODECOPY DUP2 MLOAD SWAP2 MSTORE SWAP2 SWAP1 JUMPDEST PUSH1 0x1F NOT DUP5 AND DUP6 LT PUSH3 0x71C JUMPI PUSH1 0x1 SWAP5 POP DUP4 PUSH1 0x1F NOT DUP2 AND LT PUSH3 0x702 JUMPI JUMPDEST POP POP POP DUP2 SHL ADD PUSH1 0x9 SSTORE PUSH3 0x320 JUMP JUMPDEST ADD MLOAD PUSH1 0x0 NOT PUSH1 0xF8 DUP5 PUSH1 0x3 SHL AND SHR NOT AND SWAP1 SSTORE CODESIZE DUP1 DUP1 PUSH3 0x6F3 JUMP JUMPDEST DUP2 DUP2 ADD MLOAD DUP4 SSTORE PUSH1 0x20 SWAP5 DUP6 ADD SWAP5 PUSH1 0x1 SWAP1 SWAP4 ADD SWAP3 SWAP1 SWAP2 ADD SWAP1 PUSH3 0x6D6 JUMP JUMPDEST PUSH1 0x9 PUSH1 0x0 MSTORE SWAP1 SWAP2 POP PUSH1 0x0 DUP1 MLOAD PUSH1 0x20 PUSH3 0x282C DUP4 CODECOPY DUP2 MLOAD SWAP2 MSTORE PUSH1 0x1F DUP5 ADD PUSH1 0x5 SHR DUP2 ADD PUSH1 0x20 DUP6 LT PUSH3 0x791 JUMPI JUMPDEST SWAP1 DUP5 SWAP4 SWAP3 SWAP2 JUMPDEST PUSH1 0x1F DUP4 ADD PUSH1 0x5 SHR DUP3 ADD DUP2 LT PUSH3 0x781 JUMPI POP POP PUSH3 0x2F1 JUMP JUMPDEST PUSH1 0x0 DUP2 SSTORE DUP6 SWAP5 POP PUSH1 0x1 ADD PUSH3 0x769 JUMP JUMPDEST POP DUP1 PUSH3 0x763 JUMP JUMPDEST SWAP2 PUSH1 0x7F AND SWAP2 PUSH3 0x2DB JUMP JUMPDEST SWAP7 SWAP8 POP POP POP POP POP POP POP RETURNDATASIZE SWAP2 DUP3 DUP2 DUP4 RETURNDATACOPY PUSH3 0x7BF DUP4 DUP4 PUSH3 0xAFF JUMP JUMPDEST PUSH2 0x100 DUP3 DUP5 DUP2 ADD SUB SLT PUSH3 0x883 JUMPI DUP2 MLOAD PUSH1 0x1 PUSH1 0x1 PUSH1 0x40 SHL SUB DUP2 GT PUSH3 0x88A JUMPI PUSH3 0x7EF SWAP1 DUP5 DUP5 ADD SWAP1 DUP5 ADD PUSH3 0xB23 JUMP JUMPDEST PUSH1 0x20 DUP4 ADD MLOAD PUSH1 0x1 PUSH1 0x1 PUSH1 0x40 SHL SUB DUP2 GT PUSH3 0x886 JUMPI PUSH3 0x814 SWAP1 DUP6 DUP6 ADD SWAP1 DUP6 ADD PUSH3 0xB23 JUMP JUMPDEST SWAP3 PUSH1 0x40 DUP2 ADD MLOAD SWAP5 PUSH3 0x829 PUSH1 0x60 DUP4 ADD PUSH3 0xBAF JUMP JUMPDEST SWAP4 PUSH3 0x838 PUSH1 0x80 DUP5 ADD PUSH3 0xB9A JUMP JUMPDEST SWAP1 PUSH1 0xA0 DUP5 ADD MLOAD SWAP3 PUSH1 0xC0 DUP6 ADD MLOAD SWAP2 PUSH1 0x1 DUP1 PUSH1 0x40 SHL SUB DUP4 GT PUSH3 0x883 JUMPI POP PUSH3 0x86B PUSH3 0x873 SWAP3 PUSH1 0xE0 SWAP3 DUP8 ADD SWAP1 DUP8 ADD PUSH3 0xB23 JUMP JUMPDEST SWAP5 ADD PUSH3 0xBAF JUMP JUMPDEST SWAP4 SWAP6 SWAP7 SWAP5 SWAP1 SWAP2 SWAP3 SWAP4 SWAP5 CODESIZE PUSH3 0x25A JUMP JUMPDEST DUP1 REVERT JUMPDEST DUP3 DUP1 REVERT JUMPDEST POP DUP1 REVERT JUMPDEST PUSH1 0x40 MLOAD RETURNDATASIZE PUSH1 0x0 DUP3 RETURNDATACOPY RETURNDATASIZE SWAP1 REVERT JUMPDEST PUSH3 0x461BCD PUSH1 0xE5 SHL DUP2 MSTORE PUSH1 0x20 PUSH1 0x4 DUP3 ADD MSTORE PUSH1 0x1E PUSH1 0x24 DUP3 ADD MSTORE PUSH32 0x496E73756666696369656E7420696E697469616C206C69717569646974790000 PUSH1 0x44 DUP3 ADD MSTORE PUSH1 0x64 SWAP1 REVERT JUMPDEST PUSH1 0x40 MLOAD PUSH4 0x1E4FBDF7 PUSH1 0xE0 SHL DUP2 MSTORE PUSH1 0x0 PUSH1 0x4 DUP3 ADD MSTORE PUSH1 0x24 SWAP1 REVERT JUMPDEST ADD MLOAD SWAP1 POP CODESIZE DUP1 PUSH3 0x14F JUMP JUMPDEST PUSH1 0x1F NOT DUP3 AND SWAP6 PUSH1 0x4 PUSH1 0x0 MSTORE PUSH1 0x20 PUSH1 0x0 KECCAK256 SWAP2 PUSH1 0x0 JUMPDEST DUP9 DUP2 LT PUSH3 0x955 JUMPI POP DUP4 PUSH1 0x1 SWAP6 SWAP7 SWAP8 SWAP9 LT PUSH3 0x93B JUMPI JUMPDEST POP POP POP DUP2 SHL ADD PUSH1 0x4 SSTORE PUSH3 0x165 JUMP JUMPDEST ADD MLOAD PUSH1 0x0 NOT PUSH1 0xF8 DUP5 PUSH1 0x3 SHL AND SHR NOT AND SWAP1 SSTORE CODESIZE DUP1 DUP1 PUSH3 0x92C JUMP JUMPDEST SWAP2 SWAP3 PUSH1 0x20 PUSH1 0x1 DUP2 SWAP3 DUP7 DUP6 ADD MLOAD DUP2 SSTORE ADD SWAP5 ADD SWAP3 ADD PUSH3 0x915 JUMP JUMPDEST PUSH1 0x4 PUSH1 0x0 MSTORE PUSH32 0x8A35ACFBC15FF81A39AE7D344FD709F28E8600B4AA8C65C6B64BFE7FE36BD19B PUSH1 0x1F DUP4 ADD PUSH1 0x5 SHR DUP2 ADD SWAP2 PUSH1 0x20 DUP5 LT PUSH3 0x9CD JUMPI JUMPDEST PUSH1 0x1F ADD PUSH1 0x5 SHR ADD SWAP1 JUMPDEST DUP2 DUP2 LT PUSH3 0x9C0 JUMPI POP PUSH3 0x130 JUMP JUMPDEST PUSH1 0x0 DUP2 SSTORE PUSH1 0x1 ADD PUSH3 0x9B1 JUMP JUMPDEST SWAP1 SWAP2 POP DUP2 SWAP1 PUSH3 0x9A8 JUMP JUMPDEST SWAP1 PUSH1 0x7F AND SWAP1 PUSH3 0x11C JUMP JUMPDEST ADD MLOAD SWAP1 POP CODESIZE DUP1 PUSH3 0xE3 JUMP JUMPDEST PUSH1 0x3 PUSH1 0x0 SWAP1 DUP2 MSTORE PUSH32 0xC2575A0E9E593C00F959F8C92F12DB2869C3395A3B0502D05E2516446F71F85B SWAP4 POP PUSH1 0x1F NOT DUP6 AND SWAP1 JUMPDEST DUP2 DUP2 LT PUSH3 0xA61 JUMPI POP SWAP1 DUP5 PUSH1 0x1 SWAP6 SWAP5 SWAP4 SWAP3 LT PUSH3 0xA47 JUMPI JUMPDEST POP POP POP DUP2 SHL ADD PUSH1 0x3 SSTORE PUSH3 0xF9 JUMP JUMPDEST ADD MLOAD PUSH1 0x0 NOT PUSH1 0xF8 DUP5 PUSH1 0x3 SHL AND SHR NOT AND SWAP1 SSTORE CODESIZE DUP1 DUP1 PUSH3 0xA38 JUMP JUMPDEST SWAP3 SWAP4 PUSH1 0x20 PUSH1 0x1 DUP2 SWAP3 DUP8 DUP7 ADD MLOAD DUP2 SSTORE ADD SWAP6 ADD SWAP4 ADD PUSH3 0xA20 JUMP JUMPDEST PUSH1 0x3 PUSH1 0x0 MSTORE SWAP1 SWAP2 POP PUSH32 0xC2575A0E9E593C00F959F8C92F12DB2869C3395A3B0502D05E2516446F71F85B PUSH1 0x1F DUP5 ADD PUSH1 0x5 SHR DUP2 ADD SWAP2 PUSH1 0x20 DUP6 LT PUSH3 0xAE4 JUMPI JUMPDEST SWAP1 PUSH1 0x1F DUP6 SWAP5 SWAP4 SWAP3 ADD PUSH1 0x5 SHR ADD SWAP1 JUMPDEST DUP2 DUP2 LT PUSH3 0xAD4 JUMPI POP PUSH3 0xCA JUMP JUMPDEST PUSH1 0x0 DUP2 SSTORE DUP5 SWAP4 POP PUSH1 0x1 ADD PUSH3 0xAC5 JUMP JUMPDEST SWAP1 SWAP2 POP DUP2 SWAP1 PUSH3 0xAB7 JUMP JUMPDEST SWAP2 PUSH1 0x7F AND SWAP2 PUSH3 0xB4 JUMP JUMPDEST PUSH1 0x0 DUP1 REVERT JUMPDEST PUSH1 0x1F SWAP1 SWAP2 ADD PUSH1 0x1F NOT AND DUP2 ADD SWAP1 PUSH1 0x1 PUSH1 0x1 PUSH1 0x40 SHL SUB DUP3 GT SWAP1 DUP3 LT OR PUSH3 0x5A2 JUMPI PUSH1 0x40 MSTORE JUMP JUMPDEST SWAP2 SWAP1 DUP1 PUSH1 0x1F DUP5 ADD SLT ISZERO PUSH3 0xAFA JUMPI DUP3 MLOAD SWAP1 PUSH1 0x1 PUSH1 0x1 PUSH1 0x40 SHL SUB DUP3 GT PUSH3 0x5A2 JUMPI PUSH1 0x40 MLOAD SWAP2 PUSH1 0x20 SWAP2 PUSH3 0xB5F PUSH1 0x1F DUP4 ADD PUSH1 0x1F NOT AND DUP5 ADD DUP6 PUSH3 0xAFF JUMP JUMPDEST DUP2 DUP5 MSTORE DUP3 DUP3 DUP8 ADD ADD GT PUSH3 0xAFA JUMPI PUSH1 0x0 JUMPDEST DUP2 DUP2 LT PUSH3 0xB86 JUMPI POP DUP3 PUSH1 0x0 SWAP4 SWAP5 SWAP6 POP ADD ADD MSTORE SWAP1 JUMP JUMPDEST DUP6 DUP2 ADD DUP4 ADD MLOAD DUP5 DUP3 ADD DUP5 ADD MSTORE DUP3 ADD PUSH3 0xB70 JUMP JUMPDEST MLOAD SWAP1 PUSH1 0x1 PUSH1 0x1 PUSH1 0xA0 SHL SUB DUP3 AND DUP3 SUB PUSH3 0xAFA JUMPI JUMP JUMPDEST MLOAD SWAP1 DUP2 ISZERO ISZERO DUP3 SUB PUSH3 0xAFA JUMPI JUMP JUMPDEST PUSH1 0x1 PUSH1 0x1 PUSH1 0xA0 SHL SUB AND DUP1 ISZERO PUSH3 0xC3F JUMPI PUSH1 0x2 SLOAD PUSH10 0x69E10DE76676D0800000 DUP1 DUP3 ADD DUP1 SWAP3 GT PUSH3 0xC29 JUMPI PUSH1 0x20 PUSH32 0xDDF252AD1BE2C89B69C2B068FC378DAA952BA7F163C4A11628F55A4DF523B3EF SWAP2 PUSH1 0x0 SWAP4 PUSH1 0x2 SSTORE DUP5 DUP5 MSTORE DUP4 DUP3 MSTORE PUSH1 0x40 DUP5 KECCAK256 DUP2 DUP2 SLOAD ADD SWAP1 SSTORE PUSH1 0x40 MLOAD SWAP1 DUP2 MSTORE LOG3 JUMP JUMPDEST PUSH4 0x4E487B71 PUSH1 0xE0 SHL PUSH1 0x0 MSTORE PUSH1 0x11 PUSH1 0x4 MSTORE PUSH1 0x24 PUSH1 0x0 REVERT JUMPDEST PUSH1 0x40 MLOAD PUSH4 0xEC442F05 PUSH1 0xE0 SHL DUP2 MSTORE PUSH1 0x0 PUSH1 0x4 DUP3 ADD MSTORE PUSH1 0x24 SWAP1 REVERT INVALID PUSH1 0x80 PUSH1 0x40 DUP2 DUP2 MSTORE PUSH1 0x4 DUP1 CALLDATASIZE LT ISZERO PUSH2 0x1E JUMPI JUMPDEST POP POP POP CALLDATASIZE ISZERO PUSH2 0x1C JUMPI STOP JUMPDEST STOP JUMPDEST PUSH1 0x0 SWAP3 DUP4 CALLDATALOAD PUSH1 0xE0 SHR SWAP1 DUP2 PUSH4 0x45FA779 EQ PUSH2 0x1291 JUMPI POP DUP1 PUSH4 0x6FDDE03 EQ PUSH2 0x11BE JUMPI DUP1 PUSH4 0x95EA7B3 EQ PUSH2 0x1115 JUMPI DUP1 PUSH4 0x140B9D84 EQ PUSH2 0x10F6 JUMPI DUP1 PUSH4 0x18160DDD EQ PUSH2 0x10D7 JUMPI DUP1 PUSH4 0x21B77D63 EQ PUSH2 0x10B4 JUMPI DUP1 PUSH4 0x23B872DD EQ PUSH2 0xFC1 JUMPI DUP1 PUSH4 0x2D9E3F62 EQ PUSH2 0xEEC JUMPI DUP1 PUSH4 0x313CE567 EQ PUSH2 0xED0 JUMPI DUP1 PUSH4 0x32CB6B0C EQ PUSH2 0xEAB JUMPI DUP1 PUSH4 0x3610724E EQ PUSH2 0xC6E JUMPI DUP1 PUSH4 0x52DC0F96 EQ PUSH2 0xBC7 JUMPI DUP1 PUSH4 0x5B0C5DBD EQ PUSH2 0xB75 JUMPI DUP1 PUSH4 0x6485B6BB EQ PUSH2 0xB31 JUMPI DUP1 PUSH4 0x665A11CA EQ PUSH2 0xB12 JUMPI DUP1 PUSH4 0x67BF602B EQ PUSH2 0x9D7 JUMPI DUP1 PUSH4 0x6949FAEB EQ PUSH2 0x9B8 JUMPI DUP1 PUSH4 0x6A6AE606 EQ PUSH2 0x980 JUMPI DUP1 PUSH4 0x6B4ED21B EQ PUSH2 0x961 JUMPI DUP1 PUSH4 0x6C11BCD3 EQ PUSH2 0x70D JUMPI DUP1 PUSH4 0x6E9087DB EQ PUSH2 0x6E9 JUMPI DUP1 PUSH4 0x70A08231 EQ PUSH2 0x6B2 JUMPI DUP1 PUSH4 0x715018A6 EQ PUSH2 0x655 JUMPI DUP1 PUSH4 0x8654AA34 EQ PUSH2 0x61A JUMPI DUP1 PUSH4 0x873C5E60 EQ PUSH2 0x4E4 JUMPI DUP1 PUSH4 0x8DA5CB5B EQ PUSH2 0x4BB JUMPI DUP1 PUSH4 0x95D89B41 EQ PUSH2 0x3D1 JUMPI DUP1 PUSH4 0x9D1B464A EQ PUSH2 0x3B2 JUMPI DUP1 PUSH4 0xA9059CBB EQ PUSH2 0x381 JUMPI DUP1 PUSH4 0xAD9F20A6 EQ PUSH2 0x361 JUMPI DUP1 PUSH4 0xAE104265 EQ PUSH2 0x337 JUMPI DUP1 PUSH4 0xC7876EA4 EQ PUSH2 0x318 JUMPI DUP1 PUSH4 0xD3BC9E2A EQ PUSH2 0x2E1 JUMPI DUP1 PUSH4 0xDD62ED3E EQ PUSH2 0x298 JUMPI DUP1 PUSH4 0xF0D673F3 EQ PUSH2 0x245 JUMPI PUSH4 0xF2FDE38B SUB PUSH2 0x11 JUMPI CALLVALUE PUSH2 0x241 JUMPI PUSH1 0x20 CALLDATASIZE PUSH1 0x3 NOT ADD SLT PUSH2 0x241 JUMPI PUSH2 0x1CC PUSH2 0x158B JUMP JUMPDEST SWAP1 PUSH2 0x1D5 PUSH2 0x1837 JUMP JUMPDEST PUSH1 0x1 PUSH1 0x1 PUSH1 0xA0 SHL SUB SWAP2 DUP3 AND SWAP3 DUP4 ISZERO PUSH2 0x22B JUMPI POP POP PUSH1 0x5 SLOAD DUP3 PUSH12 0xFFFFFFFFFFFFFFFFFFFFFFFF PUSH1 0xA0 SHL DUP3 AND OR PUSH1 0x5 SSTORE AND PUSH32 0x8BE0079C531659141344CD1FD0A4F28419497F9722A3DAAFE3B4186F6B6457E0 DUP4 DUP1 LOG3 DUP1 RETURN JUMPDEST MLOAD PUSH4 0x1E4FBDF7 PUSH1 0xE0 SHL DUP2 MSTORE SWAP1 DUP2 ADD DUP5 SWAP1 MSTORE PUSH1 0x24 SWAP1 REVERT JUMPDEST DUP3 DUP1 REVERT JUMPDEST POP POP CALLVALUE PUSH2 0x294 JUMPI DUP2 PUSH1 0x3 NOT CALLDATASIZE ADD SLT PUSH2 0x294 JUMPI PUSH1 0xC0 SWAP1 PUSH1 0x8 SLOAD SWAP1 PUSH1 0x7 SLOAD SWAP1 PUSH1 0x10 SLOAD PUSH1 0x11 SLOAD SWAP1 PUSH1 0x13 SLOAD SWAP3 PUSH1 0xFF PUSH1 0x14 SLOAD AND SWAP5 DUP2 MLOAD SWAP7 DUP8 MSTORE PUSH1 0x20 DUP8 ADD MSTORE DUP6 ADD MSTORE PUSH1 0x60 DUP5 ADD MSTORE PUSH1 0x80 DUP4 ADD MSTORE ISZERO ISZERO PUSH1 0xA0 DUP3 ADD MSTORE RETURN JUMPDEST POP DUP1 REVERT JUMPDEST POP POP CALLVALUE PUSH2 0x294 JUMPI DUP1 PUSH1 0x3 NOT CALLDATASIZE ADD SLT PUSH2 0x294 JUMPI DUP1 PUSH1 0x20 SWAP3 PUSH2 0x2B6 PUSH2 0x158B JUMP JUMPDEST PUSH2 0x2BE PUSH2 0x15A6 JUMP JUMPDEST PUSH1 0x1 PUSH1 0x1 PUSH1 0xA0 SHL SUB SWAP2 DUP3 AND DUP4 MSTORE PUSH1 0x1 DUP7 MSTORE DUP4 DUP4 KECCAK256 SWAP2 AND DUP3 MSTORE DUP5 MSTORE KECCAK256 SLOAD SWAP1 MLOAD SWAP1 DUP2 MSTORE RETURN JUMPDEST DUP4 DUP3 CALLVALUE PUSH2 0x294 JUMPI PUSH1 0x20 CALLDATASIZE PUSH1 0x3 NOT ADD SLT PUSH2 0x294 JUMPI CALLDATALOAD DUP1 ISZERO ISZERO DUP1 SWAP2 SUB PUSH2 0x294 JUMPI PUSH2 0x307 PUSH2 0x1837 JUMP JUMPDEST PUSH1 0xFF DUP1 NOT PUSH1 0xC SLOAD AND SWAP2 AND OR PUSH1 0xC SSTORE DUP1 RETURN JUMPDEST POP POP CALLVALUE PUSH2 0x294 JUMPI DUP2 PUSH1 0x3 NOT CALLDATASIZE ADD SLT PUSH2 0x294 JUMPI PUSH1 0x20 SWAP1 PUSH1 0x7 SLOAD SWAP1 MLOAD SWAP1 DUP2 MSTORE RETURN JUMPDEST POP SWAP2 CALLVALUE PUSH2 0x35E JUMPI PUSH1 0x20 CALLDATASIZE PUSH1 0x3 NOT ADD SLT PUSH2 0x35E JUMPI POP PUSH2 0x357 PUSH1 0x20 SWAP3 CALLDATALOAD PUSH2 0x19C3 JUMP JUMPDEST SWAP1 MLOAD SWAP1 DUP2 MSTORE RETURN JUMPDEST DUP1 REVERT JUMPDEST POP POP CALLVALUE PUSH2 0x294 JUMPI DUP2 PUSH1 0x3 NOT CALLDATASIZE ADD SLT PUSH2 0x294 JUMPI PUSH1 0x20 SWAP1 MLOAD PUSH5 0x2540BE400 DUP2 MSTORE RETURN JUMPDEST POP POP CALLVALUE PUSH2 0x294 JUMPI DUP1 PUSH1 0x3 NOT CALLDATASIZE ADD SLT PUSH2 0x294 JUMPI PUSH1 0x20 SWAP1 PUSH2 0x3AB PUSH2 0x3A1 PUSH2 0x158B JUMP JUMPDEST PUSH1 0x24 CALLDATALOAD SWAP1 CALLER PUSH2 0x1863 JUMP JUMPDEST MLOAD PUSH1 0x1 DUP2 MSTORE RETURN JUMPDEST POP POP CALLVALUE PUSH2 0x294 JUMPI DUP2 PUSH1 0x3 NOT CALLDATASIZE ADD SLT PUSH2 0x294 JUMPI PUSH1 0x20 SWAP1 PUSH1 0x8 SLOAD SWAP1 MLOAD SWAP1 DUP2 MSTORE RETURN JUMPDEST POP SWAP1 CALLVALUE PUSH2 0x241 JUMPI DUP3 PUSH1 0x3 NOT CALLDATASIZE ADD SLT PUSH2 0x241 JUMPI DUP1 MLOAD SWAP2 DUP4 DUP2 SLOAD SWAP1 PUSH2 0x3F3 DUP3 PUSH2 0x15BC JUMP JUMPDEST DUP1 DUP7 MSTORE SWAP3 PUSH1 0x1 SWAP3 DUP1 DUP5 AND SWAP1 DUP2 ISZERO PUSH2 0x490 JUMPI POP PUSH1 0x1 EQ PUSH2 0x434 JUMPI JUMPDEST PUSH2 0x430 DUP7 DUP7 PUSH2 0x41E DUP3 DUP12 SUB DUP4 PUSH2 0x1529 JUMP JUMPDEST MLOAD SWAP2 DUP3 SWAP2 PUSH1 0x20 DUP4 MSTORE PUSH1 0x20 DUP4 ADD SWAP1 PUSH2 0x154B JUMP JUMPDEST SUB SWAP1 RETURN JUMPDEST DUP2 MSTORE SWAP5 POP PUSH32 0x8A35ACFBC15FF81A39AE7D344FD709F28E8600B4AA8C65C6B64BFE7FE36BD19B JUMPDEST DUP3 DUP7 LT PUSH2 0x478 JUMPI POP POP POP PUSH2 0x41E DUP3 PUSH1 0x20 PUSH2 0x430 SWAP6 DUP3 ADD ADD SWAP5 CODESIZE PUSH2 0x40D JUMP JUMPDEST DUP1 SLOAD PUSH1 0x20 DUP8 DUP8 ADD DUP2 ADD SWAP2 SWAP1 SWAP2 MSTORE SWAP1 SWAP6 ADD SWAP5 DUP2 ADD PUSH2 0x45A JUMP JUMPDEST SWAP1 POP PUSH2 0x430 SWAP8 POP DUP7 SWAP4 POP PUSH1 0x20 SWAP3 POP PUSH2 0x41E SWAP5 SWAP2 POP PUSH1 0xFF NOT AND DUP3 DUP5 ADD MSTORE ISZERO ISZERO PUSH1 0x5 SHL DUP3 ADD ADD SWAP5 CODESIZE PUSH2 0x40D JUMP JUMPDEST POP POP CALLVALUE PUSH2 0x294 JUMPI DUP2 PUSH1 0x3 NOT CALLDATASIZE ADD SLT PUSH2 0x294 JUMPI PUSH1 0x5 SLOAD SWAP1 MLOAD PUSH1 0x1 PUSH1 0x1 PUSH1 0xA0 SHL SUB SWAP1 SWAP2 AND DUP2 MSTORE PUSH1 0x20 SWAP1 RETURN JUMPDEST POP DUP3 CALLVALUE PUSH2 0x35E JUMPI PUSH1 0x20 SWAP2 DUP3 PUSH1 0x3 NOT CALLDATASIZE ADD SLT PUSH2 0x294 JUMPI CALLDATALOAD SWAP1 PUSH1 0x15 SLOAD SWAP2 DUP3 DUP1 DUP3 LT SWAP2 XOR MUL DUP3 XOR SWAP2 PUSH2 0x512 DUP4 PUSH2 0x1B31 JUMP JUMPDEST SWAP3 PUSH2 0x51F DUP7 MLOAD SWAP5 DUP6 PUSH2 0x1529 JUMP JUMPDEST DUP1 DUP5 MSTORE PUSH1 0x1F NOT PUSH2 0x52E DUP3 PUSH2 0x1B31 JUMP JUMPDEST ADD DUP6 DUP5 JUMPDEST DUP3 DUP2 LT PUSH2 0x5F4 JUMPI POP POP POP DUP3 JUMPDEST DUP2 DUP2 LT PUSH2 0x593 JUMPI POP POP POP DUP4 MLOAD SWAP3 DUP1 DUP5 ADD SWAP1 DUP1 DUP6 MSTORE DUP4 MLOAD DUP1 SWAP3 MSTORE DUP1 DUP7 DUP7 ADD SWAP5 ADD SWAP3 JUMPDEST DUP3 DUP2 LT PUSH2 0x56C JUMPI DUP6 DUP6 SUB DUP7 RETURN JUMPDEST DUP4 MLOAD DUP1 MLOAD DUP7 MSTORE DUP1 DUP4 ADD MLOAD DUP7 DUP5 ADD MSTORE DUP8 ADD MLOAD DUP8 DUP7 ADD MSTORE PUSH1 0x60 SWAP1 SWAP5 ADD SWAP4 SWAP3 DUP2 ADD SWAP3 PUSH1 0x1 ADD PUSH2 0x55F JUMP JUMPDEST DUP1 PUSH2 0x5B2 PUSH2 0x5AD PUSH2 0x5EF SWAP4 PUSH2 0x5A8 DUP7 DUP9 PUSH2 0x1B01 JUMP JUMPDEST PUSH2 0x1941 JUMP JUMPDEST PUSH2 0x17E6 JUMP JUMPDEST POP PUSH1 0x2 DUP10 MLOAD SWAP2 PUSH2 0x5C1 DUP4 PUSH2 0x14DA JUMP JUMPDEST DUP1 SLOAD DUP4 MSTORE PUSH1 0x1 DUP2 ADD SLOAD DUP11 DUP5 ADD MSTORE ADD SLOAD DUP10 DUP3 ADD MSTORE PUSH2 0x5DE DUP3 DUP9 PUSH2 0x1B49 JUMP JUMPDEST MSTORE PUSH2 0x5E9 DUP2 DUP8 PUSH2 0x1B49 JUMP JUMPDEST POP PUSH2 0x1AF2 JUMP JUMPDEST PUSH2 0x53E JUMP JUMPDEST DUP9 MLOAD PUSH2 0x5FF DUP2 PUSH2 0x14DA JUMP JUMPDEST DUP7 DUP2 MSTORE DUP7 DUP4 DUP3 ADD MSTORE DUP7 DUP11 DUP3 ADD MSTORE DUP3 DUP3 DUP10 ADD ADD MSTORE ADD DUP7 SWAP1 PUSH2 0x532 JUMP JUMPDEST POP POP CALLVALUE PUSH2 0x294 JUMPI DUP2 PUSH1 0x3 NOT CALLDATASIZE ADD SLT PUSH2 0x294 JUMPI PUSH1 0x20 SWAP1 MLOAD PUSH32 0x0 DUP2 MSTORE RETURN JUMPDEST DUP4 CALLVALUE PUSH2 0x35E JUMPI DUP1 PUSH1 0x3 NOT CALLDATASIZE ADD SLT PUSH2 0x35E JUMPI PUSH2 0x66E PUSH2 0x1837 JUMP JUMPDEST PUSH1 0x5 DUP1 SLOAD PUSH1 0x1 PUSH1 0x1 PUSH1 0xA0 SHL SUB NOT DUP2 AND SWAP1 SWAP2 SSTORE DUP2 SWAP1 PUSH1 0x1 PUSH1 0x1 PUSH1 0xA0 SHL SUB AND PUSH32 0x8BE0079C531659141344CD1FD0A4F28419497F9722A3DAAFE3B4186F6B6457E0 DUP3 DUP1 LOG3 DUP1 RETURN JUMPDEST POP POP CALLVALUE PUSH2 0x294 JUMPI PUSH1 0x20 CALLDATASIZE PUSH1 0x3 NOT ADD SLT PUSH2 0x294 JUMPI PUSH1 0x20 SWAP2 DUP2 SWAP1 PUSH1 0x1 PUSH1 0x1 PUSH1 0xA0 SHL SUB PUSH2 0x6DA PUSH2 0x158B JUMP JUMPDEST AND DUP2 MSTORE DUP1 DUP5 MSTORE KECCAK256 SLOAD SWAP1 MLOAD SWAP1 DUP2 MSTORE RETURN JUMPDEST POP POP CALLVALUE PUSH2 0x294 JUMPI DUP2 PUSH1 0x3 NOT CALLDATASIZE ADD SLT PUSH2 0x294 JUMPI PUSH1 0x20 SWAP1 PUSH1 0xFF PUSH1 0x14 SLOAD AND SWAP1 MLOAD SWAP1 ISZERO ISZERO DUP2 MSTORE RETURN JUMPDEST POP SWAP1 CALLVALUE PUSH2 0x241 JUMPI PUSH1 0x20 SWAP2 DUP3 PUSH1 0x3 NOT CALLDATASIZE ADD SLT PUSH2 0x95D JUMPI DUP1 CALLDATALOAD PUSH2 0x72C PUSH2 0x1B0E JUMP JUMPDEST PUSH2 0x73A PUSH1 0xFF PUSH1 0x14 SLOAD AND PUSH2 0x1A57 JUMP JUMPDEST PUSH2 0x745 DUP2 ISZERO ISZERO PUSH2 0x1964 JUMP JUMPDEST CALLER DUP6 MSTORE DUP5 DUP5 MSTORE DUP1 DUP4 DUP7 KECCAK256 SLOAD LT PUSH2 0x924 JUMPI PUSH1 0x10 SLOAD DUP1 ISZERO PUSH2 0x8F2 JUMPI PUSH2 0x767 DUP3 PUSH2 0x19C3 JUMP JUMPDEST SWAP3 PUSH8 0xDE0B6B3A7640000 PUSH2 0x77B DUP6 DUP6 PUSH2 0x19B0 JUMP JUMPDEST DIV DUP1 SWAP3 LT PUSH2 0x8AF JUMPI DUP7 SWAP1 PUSH2 0x790 DUP5 ADDRESS CALLER PUSH2 0x1863 JUMP JUMPDEST DUP5 PUSH1 0x8 SSTORE TIMESTAMP PUSH1 0x12 SSTORE PUSH2 0x7A4 DUP5 PUSH1 0x11 SLOAD PUSH2 0x1941 JUMP JUMPDEST PUSH1 0x11 SSTORE CALLER DUP3 MSTORE DUP2 DUP8 MSTORE DUP6 DUP3 KECCAK256 SLOAD ISZERO PUSH2 0x882 JUMPI JUMPDEST POP DUP1 DUP1 DUP1 SWAP4 PUSH2 0x7DC DUP9 MLOAD PUSH2 0x7CA DUP2 PUSH2 0x14DA JUMP JUMPDEST TIMESTAMP DUP2 MSTORE DUP9 DUP12 DUP3 ADD MSTORE DUP8 DUP11 DUP3 ADD MSTORE PUSH2 0x1A97 JUMP JUMPDEST PUSH2 0x7E8 DUP2 PUSH1 0x10 SLOAD PUSH2 0x1B01 JUMP JUMPDEST PUSH1 0x10 SSTORE DUP2 DUP2 ISZERO PUSH2 0x879 JUMPI JUMPDEST CALLER SWAP1 CALL ISZERO PUSH2 0x86F JUMPI DUP2 PUSH32 0x15819DD2FD9F6418B142E798D08A18D0BF06EA368F4480B7B0D3F75BD966BC48 SWAP5 DUP5 MLOAD SWAP3 DUP4 MSTORE DUP3 ADD MSTORE PUSH32 0x2DCF9433D75DB0D8B1C172641F85E319FFE4AD22E108A95D1847CEB906E5195D DUP4 CALLER SWAP3 LOG2 PUSH1 0x8 SLOAD SWAP2 MLOAD SWAP2 DUP3 MSTORE PUSH1 0x20 DUP3 ADD MSTORE TIMESTAMP PUSH1 0x40 DUP3 ADD MSTORE DUP1 PUSH1 0x60 DUP2 ADD JUMPDEST SUB SWAP1 LOG1 PUSH1 0x1 PUSH1 0x6 SSTORE DUP1 RETURN JUMPDEST DUP3 MLOAD RETURNDATASIZE DUP7 DUP3 RETURNDATACOPY RETURNDATASIZE SWAP1 REVERT JUMPDEST POP PUSH2 0x8FC PUSH2 0x7F3 JUMP JUMPDEST PUSH1 0x13 SLOAD SWAP2 POP DUP2 ISZERO PUSH2 0x89C JUMPI POP PUSH1 0x0 NOT ADD PUSH1 0x13 SSTORE DUP6 DUP1 PUSH2 0x7B7 JUMP JUMPDEST PUSH4 0x4E487B71 PUSH1 0xE0 SHL DUP9 MSTORE PUSH1 0x11 SWAP1 MSTORE PUSH1 0x24 DUP8 REVERT JUMPDEST DUP5 MLOAD PUSH3 0x461BCD PUSH1 0xE5 SHL DUP2 MSTORE SWAP1 DUP2 ADD DUP7 SWAP1 MSTORE PUSH1 0x1F PUSH1 0x24 DUP3 ADD MSTORE PUSH32 0x496E73756666696369656E74206C697175696469747920666F722073616C6500 PUSH1 0x44 DUP3 ADD MSTORE PUSH1 0x64 SWAP1 REVERT JUMPDEST DUP4 MLOAD PUSH3 0x461BCD PUSH1 0xE5 SHL DUP2 MSTORE DUP1 DUP5 ADD DUP7 SWAP1 MSTORE PUSH1 0xC PUSH1 0x24 DUP3 ADD MSTORE PUSH12 0x4E6F206C6971756964697479 PUSH1 0xA0 SHL PUSH1 0x44 DUP3 ADD MSTORE PUSH1 0x64 SWAP1 REVERT JUMPDEST POP DUP3 PUSH1 0x64 SWAP3 MLOAD SWAP2 PUSH3 0x461BCD PUSH1 0xE5 SHL DUP4 MSTORE DUP3 ADD MSTORE PUSH1 0x14 PUSH1 0x24 DUP3 ADD MSTORE PUSH20 0x496E73756666696369656E742062616C616E6365 PUSH1 0x60 SHL PUSH1 0x44 DUP3 ADD MSTORE REVERT JUMPDEST DUP4 DUP1 REVERT JUMPDEST POP POP CALLVALUE PUSH2 0x294 JUMPI DUP2 PUSH1 0x3 NOT CALLDATASIZE ADD SLT PUSH2 0x294 JUMPI PUSH1 0x20 SWAP1 PUSH1 0x13 SLOAD SWAP1 MLOAD SWAP1 DUP2 MSTORE RETURN JUMPDEST POP POP CALLVALUE PUSH2 0x294 JUMPI PUSH1 0x20 CALLDATASIZE PUSH1 0x3 NOT ADD SLT PUSH2 0x294 JUMPI PUSH1 0x20 SWAP2 DUP2 SWAP1 PUSH1 0x1 PUSH1 0x1 PUSH1 0xA0 SHL SUB PUSH2 0x9A8 PUSH2 0x158B JUMP JUMPDEST AND DUP2 MSTORE PUSH1 0x16 DUP5 MSTORE KECCAK256 SLOAD SWAP1 MLOAD SWAP1 DUP2 MSTORE RETURN JUMPDEST POP POP CALLVALUE PUSH2 0x294 JUMPI DUP2 PUSH1 0x3 NOT CALLDATASIZE ADD SLT PUSH2 0x294 JUMPI PUSH1 0x20 SWAP1 PUSH1 0x12 SLOAD SWAP1 MLOAD SWAP1 DUP2 MSTORE RETURN JUMPDEST DUP3 DUP5 CALLVALUE PUSH2 0x35E JUMPI DUP1 PUSH1 0x3 NOT CALLDATASIZE ADD SLT PUSH2 0x35E JUMPI DUP2 MLOAD PUSH1 0x20 SWAP2 PUSH2 0x9F7 DUP3 PUSH2 0x150C JUMP JUMPDEST PUSH1 0xE0 PUSH1 0x60 SWAP3 DUP4 DUP2 MSTORE DUP4 DUP6 DUP3 ADD MSTORE DUP3 DUP7 DUP3 ADD MSTORE DUP3 DUP5 DUP3 ADD MSTORE DUP3 PUSH1 0x80 DUP3 ADD MSTORE DUP3 PUSH1 0xA0 DUP3 ADD MSTORE DUP4 PUSH1 0xC0 DUP3 ADD MSTORE ADD MSTORE DUP3 MLOAD SWAP3 PUSH2 0xA2E DUP5 PUSH2 0x150C JUMP JUMPDEST PUSH2 0xA36 PUSH2 0x15F6 JUMP JUMPDEST DUP5 MSTORE PUSH2 0xB06 PUSH2 0xA43 PUSH2 0x16B4 JUMP JUMPDEST SWAP2 DUP5 DUP7 ADD SWAP3 DUP4 MSTORE PUSH1 0xB SLOAD SWAP1 DUP1 DUP8 ADD SWAP2 DUP3 MSTORE PUSH1 0xC SLOAD DUP6 DUP9 ADD SWAP1 PUSH1 0xFF DUP2 AND ISZERO ISZERO DUP3 MSTORE PUSH1 0x80 DUP10 ADD SWAP1 PUSH1 0x1 DUP1 PUSH1 0xA0 SHL SUB DUP1 SWAP2 PUSH1 0x8 SHR AND DUP3 MSTORE PUSH1 0xD SLOAD SWAP2 PUSH1 0xA0 DUP12 ADD SWAP3 DUP4 MSTORE PUSH2 0xA8A PUSH2 0x174D JUMP JUMPDEST SWAP4 PUSH1 0xC0 DUP13 ADD SWAP5 DUP6 MSTORE PUSH1 0xFF PUSH1 0xF SLOAD AND SWAP10 PUSH1 0xE0 DUP14 ADD SWAP11 ISZERO ISZERO DUP12 MSTORE PUSH2 0xADB DUP8 MLOAD SWAP14 DUP15 SWAP14 DUP15 MSTORE MLOAD SWAP11 DUP14 PUSH2 0xAC7 PUSH2 0x100 SWAP14 DUP15 PUSH1 0x20 DUP5 ADD MSTORE PUSH2 0x120 DUP4 ADD SWAP1 PUSH2 0x154B JUMP JUMPDEST SWAP2 MLOAD SWAP1 PUSH1 0x1F NOT SWAP11 DUP12 DUP3 DUP6 SUB ADD SWAP2 ADD MSTORE PUSH2 0x154B JUMP JUMPDEST SWAP8 MLOAD SWAP1 DUP13 ADD MSTORE MLOAD ISZERO ISZERO PUSH1 0x80 DUP12 ADD MSTORE MLOAD AND PUSH1 0xA0 DUP10 ADD MSTORE MLOAD PUSH1 0xC0 DUP9 ADD MSTORE MLOAD SWAP1 DUP7 DUP4 SUB ADD PUSH1 0xE0 DUP8 ADD MSTORE PUSH2 0x154B JUMP JUMPDEST SWAP2 MLOAD ISZERO ISZERO SWAP1 DUP4 ADD MSTORE SUB SWAP1 RETURN JUMPDEST POP POP CALLVALUE PUSH2 0x294 JUMPI DUP2 PUSH1 0x3 NOT CALLDATASIZE ADD SLT PUSH2 0x294 JUMPI PUSH1 0x20 SWAP1 PUSH1 0x10 SLOAD SWAP1 MLOAD SWAP1 DUP2 MSTORE RETURN JUMPDEST POP POP CALLVALUE PUSH2 0x294 JUMPI DUP2 PUSH1 0x3 NOT CALLDATASIZE ADD SLT PUSH2 0x294 JUMPI MLOAD PUSH32 0x0 PUSH1 0x1 PUSH1 0x1 PUSH1 0xA0 SHL SUB AND DUP2 MSTORE PUSH1 0x20 SWAP1 RETURN JUMPDEST POP DUP3 SWAP1 CALLVALUE PUSH2 0x294 JUMPI PUSH1 0x20 CALLDATASIZE PUSH1 0x3 NOT ADD SLT PUSH2 0x294 JUMPI CALLDATALOAD SWAP1 PUSH1 0x15 SLOAD DUP3 LT ISZERO PUSH2 0x35E JUMPI POP PUSH2 0xB9F SWAP1 PUSH2 0x17E6 JUMP JUMPDEST POP DUP1 SLOAD PUSH1 0x1 DUP3 ADD SLOAD PUSH1 0x2 SWAP1 SWAP3 ADD SLOAD SWAP3 MLOAD SWAP1 DUP2 MSTORE PUSH1 0x20 DUP2 ADD SWAP2 SWAP1 SWAP2 MSTORE PUSH1 0x40 DUP2 ADD SWAP2 SWAP1 SWAP2 MSTORE PUSH1 0x60 SWAP1 RETURN JUMPDEST POP POP CALLVALUE PUSH2 0x294 JUMPI DUP2 PUSH1 0x3 NOT CALLDATASIZE ADD SLT PUSH2 0x294 JUMPI PUSH2 0xC22 SWAP1 PUSH2 0xBE5 PUSH2 0x15F6 JUMP JUMPDEST SWAP1 PUSH2 0xC62 PUSH2 0xBF1 PUSH2 0x16B4 JUMP JUMPDEST SWAP2 PUSH1 0xB SLOAD PUSH1 0xC SLOAD PUSH1 0xD SLOAD SWAP1 PUSH2 0xC04 PUSH2 0x174D JUMP JUMPDEST SWAP3 PUSH2 0xC30 PUSH1 0xFF PUSH1 0xF SLOAD AND SWAP8 DUP7 MLOAD SWAP11 DUP12 SWAP11 PUSH2 0x100 DUP1 DUP14 MSTORE DUP13 ADD SWAP1 PUSH2 0x154B JUMP JUMPDEST SWAP1 DUP11 DUP3 SUB PUSH1 0x20 DUP13 ADD MSTORE PUSH2 0x154B JUMP JUMPDEST SWAP5 DUP9 ADD MSTORE PUSH1 0xFF DUP2 AND ISZERO ISZERO PUSH1 0x60 DUP9 ADD MSTORE PUSH1 0x8 SHR PUSH1 0x1 PUSH1 0x1 PUSH1 0xA0 SHL SUB AND PUSH1 0x80 DUP8 ADD MSTORE PUSH1 0xA0 DUP7 ADD MSTORE DUP5 DUP3 SUB PUSH1 0xC0 DUP7 ADD MSTORE PUSH2 0x154B JUMP JUMPDEST SWAP1 ISZERO ISZERO PUSH1 0xE0 DUP4 ADD MSTORE SUB SWAP1 RETURN JUMPDEST POP SWAP1 PUSH1 0x20 SWAP2 DUP3 PUSH1 0x3 NOT CALLDATASIZE ADD SLT PUSH2 0x95D JUMPI DUP1 CALLDATALOAD PUSH2 0xC88 PUSH2 0x1B0E JUMP JUMPDEST PUSH2 0xC96 PUSH1 0xFF PUSH1 0x14 SLOAD AND PUSH2 0x1A57 JUMP JUMPDEST PUSH2 0xCA1 DUP2 ISZERO ISZERO PUSH2 0x1964 JUMP JUMPDEST PUSH1 0xFF PUSH1 0xC SLOAD AND ISZERO PUSH2 0xE73 JUMPI ADDRESS DUP6 MSTORE DUP5 DUP5 MSTORE DUP3 DUP6 KECCAK256 SLOAD DUP2 GT PUSH2 0xE38 JUMPI PUSH2 0xCC5 DUP2 PUSH2 0x19C3 JUMP JUMPDEST SWAP2 PUSH8 0xDE0B6B3A7640000 PUSH2 0xCD9 DUP5 DUP5 PUSH2 0x19B0 JUMP JUMPDEST DIV SWAP1 DUP2 CALLVALUE LT PUSH2 0xDFE JUMPI POP DUP6 SWAP1 PUSH2 0xCF0 DUP4 CALLER ADDRESS PUSH2 0x1863 JUMP JUMPDEST PUSH2 0xD10 DUP6 MLOAD PUSH2 0xCFE DUP2 PUSH2 0x14DA JUMP JUMPDEST TIMESTAMP DUP2 MSTORE DUP6 DUP9 DUP3 ADD MSTORE DUP5 DUP8 DUP3 ADD MSTORE PUSH2 0x1A97 JUMP JUMPDEST DUP4 PUSH1 0x8 SSTORE TIMESTAMP PUSH1 0x12 SSTORE PUSH2 0xD24 DUP4 PUSH1 0x11 SLOAD PUSH2 0x1941 JUMP JUMPDEST PUSH1 0x11 SSTORE CALLER DUP3 MSTORE DUP2 DUP7 MSTORE DUP3 DUP6 DUP4 KECCAK256 SLOAD EQ PUSH2 0xDEB JUMPI JUMPDEST PUSH2 0xD44 DUP2 PUSH1 0x10 SLOAD PUSH2 0x1941 JUMP JUMPDEST PUSH1 0x10 SSTORE DUP1 CALLVALUE GT PUSH2 0xDBE JUMPI JUMPDEST POP POP DUP2 PUSH32 0x15819DD2FD9F6418B142E798D08A18D0BF06EA368F4480B7B0D3F75BD966BC48 SWAP5 DUP5 MLOAD SWAP3 DUP4 MSTORE DUP3 ADD MSTORE PUSH32 0x8FAFEBCAF9D154343DAD25669BFA277F4FBACD7AC6B0C4FED522580E040A0F33 DUP4 CALLER SWAP3 LOG2 PUSH1 0x8 SLOAD SWAP2 MLOAD SWAP2 DUP3 MSTORE PUSH1 0x20 DUP3 ADD MSTORE TIMESTAMP PUSH1 0x40 DUP3 ADD MSTORE DUP1 PUSH1 0x60 DUP2 ADD PUSH2 0x864 JUMP JUMPDEST DUP2 DUP1 PUSH2 0xDCB DUP2 SWAP4 CALLVALUE PUSH2 0x1B01 JUMP JUMPDEST DUP2 DUP2 ISZERO PUSH2 0xDE2 JUMPI JUMPDEST CALLER SWAP1 CALL ISZERO PUSH2 0x86F JUMPI DUP5 CODESIZE PUSH2 0xD4F JUMP JUMPDEST POP PUSH2 0x8FC PUSH2 0xDD3 JUMP JUMPDEST PUSH2 0xDF6 PUSH1 0x13 SLOAD PUSH2 0x1AF2 JUMP JUMPDEST PUSH1 0x13 SSTORE PUSH2 0xD38 JUMP JUMPDEST DUP5 MLOAD PUSH3 0x461BCD PUSH1 0xE5 SHL DUP2 MSTORE SWAP1 DUP2 ADD DUP7 SWAP1 MSTORE PUSH1 0x14 PUSH1 0x24 DUP3 ADD MSTORE PUSH20 0x125B9CDD59999A58DA595B9D081C185E5B595B9D PUSH1 0x62 SHL PUSH1 0x44 DUP3 ADD MSTORE PUSH1 0x64 SWAP1 REVERT JUMPDEST POP DUP3 PUSH1 0x64 SWAP3 MLOAD SWAP2 PUSH3 0x461BCD PUSH1 0xE5 SHL DUP4 MSTORE DUP3 ADD MSTORE PUSH1 0x16 PUSH1 0x24 DUP3 ADD MSTORE PUSH22 0x496E73756666696369656E74206C6971756964697479 PUSH1 0x50 SHL PUSH1 0x44 DUP3 ADD MSTORE REVERT JUMPDEST POP DUP3 PUSH1 0x64 SWAP3 MLOAD SWAP2 PUSH3 0x461BCD PUSH1 0xE5 SHL DUP4 MSTORE DUP3 ADD MSTORE PUSH1 0x13 PUSH1 0x24 DUP3 ADD MSTORE PUSH19 0x506174656E74206E6F7420666F722073616C65 PUSH1 0x68 SHL PUSH1 0x44 DUP3 ADD MSTORE REVERT JUMPDEST POP POP CALLVALUE PUSH2 0x294 JUMPI DUP2 PUSH1 0x3 NOT CALLDATASIZE ADD SLT PUSH2 0x294 JUMPI PUSH1 0x20 SWAP1 MLOAD PUSH10 0xD3C21BCECCEDA1000000 DUP2 MSTORE RETURN JUMPDEST POP POP CALLVALUE PUSH2 0x294 JUMPI DUP2 PUSH1 0x3 NOT CALLDATASIZE ADD SLT PUSH2 0x294 JUMPI PUSH1 0x20 SWAP1 MLOAD PUSH1 0x12 DUP2 MSTORE RETURN JUMPDEST POP CALLVALUE PUSH2 0x241 JUMPI PUSH1 0x20 CALLDATASIZE PUSH1 0x3 NOT ADD SLT PUSH2 0x241 JUMPI DUP1 CALLDATALOAD SWAP1 PUSH2 0xF09 PUSH2 0x1837 JUMP JUMPDEST PUSH1 0x10 SLOAD SWAP1 PUSH8 0x16345785D8A0000 DUP4 DUP2 ADD DUP1 SWAP2 GT PUSH2 0xFAE JUMPI DUP3 GT ISZERO PUSH2 0xF6B JUMPI POP DUP4 DUP1 DUP4 PUSH2 0xF37 DUP3 SWAP6 DUP4 SWAP6 PUSH2 0x1B01 JUMP JUMPDEST PUSH1 0x10 SSTORE PUSH1 0x5 SLOAD PUSH1 0x1 PUSH1 0x1 PUSH1 0xA0 SHL SUB AND DUP3 DUP3 ISZERO PUSH2 0xF62 JUMPI JUMPDEST CALL ISZERO PUSH2 0xF58 JUMPI POP DUP1 RETURN JUMPDEST MLOAD SWAP1 RETURNDATASIZE SWAP1 DUP3 RETURNDATACOPY RETURNDATASIZE SWAP1 REVERT JUMPDEST POP PUSH2 0x8FC PUSH2 0xF4E JUMP JUMPDEST PUSH1 0x64 SWAP1 PUSH1 0x20 DUP6 MLOAD SWAP2 PUSH3 0x461BCD PUSH1 0xE5 SHL DUP4 MSTORE DUP3 ADD MSTORE PUSH1 0x1D PUSH1 0x24 DUP3 ADD MSTORE PUSH32 0x496E73756666696369656E7420657863657373206C6971756964697479000000 PUSH1 0x44 DUP3 ADD MSTORE REVERT JUMPDEST PUSH4 0x4E487B71 PUSH1 0xE0 SHL DUP7 MSTORE PUSH1 0x11 DUP3 MSTORE PUSH1 0x24 DUP7 REVERT JUMPDEST POP DUP3 CALLVALUE PUSH2 0x35E JUMPI PUSH1 0x60 CALLDATASIZE PUSH1 0x3 NOT ADD SLT PUSH2 0x35E JUMPI PUSH2 0xFDC PUSH2 0x158B JUMP JUMPDEST PUSH2 0xFE4 PUSH2 0x15A6 JUMP JUMPDEST SWAP2 PUSH1 0x44 CALLDATALOAD SWAP4 PUSH1 0x1 DUP1 PUSH1 0xA0 SHL SUB DUP4 AND DUP1 DUP4 MSTORE PUSH1 0x1 PUSH1 0x20 MSTORE DUP7 DUP4 KECCAK256 CALLER DUP5 MSTORE PUSH1 0x20 MSTORE DUP7 DUP4 KECCAK256 SLOAD SWAP2 PUSH1 0x0 NOT DUP4 LT PUSH2 0x1020 JUMPI JUMPDEST PUSH1 0x20 DUP9 PUSH2 0x3AB DUP10 DUP10 DUP10 PUSH2 0x1863 JUMP JUMPDEST DUP7 DUP4 LT PUSH2 0x1088 JUMPI DUP2 ISZERO PUSH2 0x1071 JUMPI CALLER ISZERO PUSH2 0x105A JUMPI POP DUP3 MSTORE PUSH1 0x1 PUSH1 0x20 SWAP1 DUP2 MSTORE DUP7 DUP4 KECCAK256 CALLER DUP5 MSTORE DUP2 MSTORE SWAP2 DUP7 SWAP1 KECCAK256 SWAP1 DUP6 SWAP1 SUB SWAP1 SSTORE DUP3 SWAP1 PUSH2 0x3AB DUP8 PUSH2 0x1012 JUMP JUMPDEST DUP8 MLOAD PUSH4 0x4A1406B1 PUSH1 0xE1 SHL DUP2 MSTORE SWAP1 DUP2 ADD DUP5 SWAP1 MSTORE PUSH1 0x24 SWAP1 REVERT JUMPDEST DUP8 MLOAD PUSH4 0xE602DF05 PUSH1 0xE0 SHL DUP2 MSTORE SWAP1 DUP2 ADD DUP5 SWAP1 MSTORE PUSH1 0x24 SWAP1 REVERT JUMPDEST DUP8 MLOAD PUSH4 0x7DC7A0D9 PUSH1 0xE1 SHL DUP2 MSTORE CALLER SWAP2 DUP2 ADD SWAP2 DUP3 MSTORE PUSH1 0x20 DUP3 ADD SWAP4 SWAP1 SWAP4 MSTORE PUSH1 0x40 DUP2 ADD DUP8 SWAP1 MSTORE DUP3 SWAP2 POP PUSH1 0x60 ADD SUB SWAP1 REVERT JUMPDEST POP POP CALLVALUE PUSH2 0x294 JUMPI DUP2 PUSH1 0x3 NOT CALLDATASIZE ADD SLT PUSH2 0x294 JUMPI PUSH1 0x20 SWAP1 MLOAD PUSH8 0x16345785D8A0000 DUP2 MSTORE RETURN JUMPDEST POP POP CALLVALUE PUSH2 0x294 JUMPI DUP2 PUSH1 0x3 NOT CALLDATASIZE ADD SLT PUSH2 0x294 JUMPI PUSH1 0x20 SWAP1 PUSH1 0x2 SLOAD SWAP1 MLOAD SWAP1 DUP2 MSTORE RETURN JUMPDEST POP POP CALLVALUE PUSH2 0x294 JUMPI DUP2 PUSH1 0x3 NOT CALLDATASIZE ADD SLT PUSH2 0x294 JUMPI PUSH1 0x20 SWAP1 PUSH1 0x11 SLOAD SWAP1 MLOAD SWAP1 DUP2 MSTORE RETURN JUMPDEST POP CALLVALUE PUSH2 0x241 JUMPI DUP2 PUSH1 0x3 NOT CALLDATASIZE ADD SLT PUSH2 0x241 JUMPI PUSH2 0x112E PUSH2 0x158B JUMP JUMPDEST PUSH1 0x24 CALLDATALOAD SWAP1 CALLER ISZERO PUSH2 0x11A7 JUMPI PUSH1 0x1 PUSH1 0x1 PUSH1 0xA0 SHL SUB AND SWAP2 DUP3 ISZERO PUSH2 0x1190 JUMPI POP DUP1 DUP4 PUSH1 0x20 SWAP6 CALLER DUP2 MSTORE PUSH1 0x1 DUP8 MSTORE DUP2 DUP2 KECCAK256 DUP6 DUP3 MSTORE DUP8 MSTORE KECCAK256 SSTORE DUP3 MLOAD SWAP1 DUP2 MSTORE PUSH32 0x8C5BE1E5EBEC7D5BD14F71427D1E84F3DD0314C0F7B2291E5B200AC8C7C3B925 DUP5 CALLER SWAP3 LOG3 MLOAD PUSH1 0x1 DUP2 MSTORE RETURN JUMPDEST DUP4 MLOAD PUSH4 0x4A1406B1 PUSH1 0xE1 SHL DUP2 MSTORE SWAP1 DUP2 ADD DUP6 SWAP1 MSTORE PUSH1 0x24 SWAP1 REVERT JUMPDEST DUP4 MLOAD PUSH4 0xE602DF05 PUSH1 0xE0 SHL DUP2 MSTORE DUP1 DUP5 ADD DUP7 SWAP1 MSTORE PUSH1 0x24 SWAP1 REVERT JUMPDEST POP POP CALLVALUE PUSH2 0x294 JUMPI DUP2 PUSH1 0x3 NOT CALLDATASIZE ADD SLT PUSH2 0x294 JUMPI DUP1 MLOAD SWAP1 DUP3 PUSH1 0x3 SLOAD PUSH2 0x11E0 DUP2 PUSH2 0x15BC JUMP JUMPDEST DUP1 DUP6 MSTORE SWAP2 PUSH1 0x1 SWAP2 DUP1 DUP4 AND SWAP1 DUP2 ISZERO PUSH2 0x1269 JUMPI POP PUSH1 0x1 EQ PUSH2 0x120C JUMPI JUMPDEST POP POP POP PUSH2 0x41E DUP3 PUSH2 0x430 SWAP5 SUB DUP4 PUSH2 0x1529 JUMP JUMPDEST SWAP5 POP PUSH1 0x3 DUP6 MSTORE PUSH32 0xC2575A0E9E593C00F959F8C92F12DB2869C3395A3B0502D05E2516446F71F85B JUMPDEST DUP3 DUP7 LT PUSH2 0x1251 JUMPI POP POP POP PUSH2 0x41E DUP3 PUSH1 0x20 PUSH2 0x430 SWAP6 DUP3 ADD ADD SWAP5 PUSH2 0x11FA JUMP JUMPDEST DUP1 SLOAD PUSH1 0x20 DUP8 DUP8 ADD DUP2 ADD SWAP2 SWAP1 SWAP2 MSTORE SWAP1 SWAP6 ADD SWAP5 DUP2 ADD PUSH2 0x1234 JUMP JUMPDEST PUSH2 0x430 SWAP8 POP DUP7 SWAP4 POP PUSH1 0x20 SWAP3 POP PUSH2 0x41E SWAP5 SWAP2 POP PUSH1 0xFF NOT AND DUP3 DUP5 ADD MSTORE ISZERO ISZERO PUSH1 0x5 SHL DUP3 ADD ADD SWAP5 PUSH2 0x11FA JUMP JUMPDEST DUP5 SWAP2 POP DUP4 CALLVALUE PUSH2 0x241 JUMPI DUP1 PUSH1 0x3 NOT CALLDATASIZE ADD SLT PUSH2 0x241 JUMPI DUP4 CALLDATALOAD SWAP4 PUSH8 0xFFFFFFFFFFFFFFFF SWAP1 DUP2 DUP7 GT PUSH2 0x14D6 JUMPI CALLDATASIZE PUSH1 0x23 DUP8 ADD SLT ISZERO PUSH2 0x14D6 JUMPI DUP6 DUP2 ADD CALLDATALOAD SWAP2 DUP1 DUP4 GT PUSH2 0x14C3 JUMPI PUSH1 0x20 SWAP3 PUSH1 0x1F NOT SWAP8 PUSH2 0x12E8 DUP6 DUP11 PUSH1 0x1F DUP6 ADD AND ADD DUP9 PUSH2 0x1529 JUMP JUMPDEST DUP2 DUP8 MSTORE CALLDATASIZE PUSH1 0x24 DUP4 DUP4 ADD ADD GT PUSH2 0x14BF JUMPI DUP2 DUP9 SWAP3 PUSH1 0x24 DUP8 SWAP4 ADD DUP4 DUP11 ADD CALLDATACOPY DUP8 ADD ADD MSTORE PUSH1 0x24 CALLDATALOAD SWAP2 PUSH2 0x1313 PUSH2 0x1837 JUMP JUMPDEST DUP6 MLOAD SWAP2 DUP3 GT PUSH2 0x14AC JUMPI POP PUSH2 0x1328 PUSH1 0xA SLOAD PUSH2 0x15BC JUMP JUMPDEST PUSH1 0x1F DUP2 GT PUSH2 0x144A JUMPI JUMPDEST POP DUP3 SWAP7 PUSH1 0x1F DUP3 GT PUSH1 0x1 EQ PUSH2 0x13AC JUMPI POP DUP1 DUP7 SWAP8 PUSH32 0xC0D21BDC9727F7D39495FF4DD003E22925DE85F1E81AACFD7CAA71E65034E9DF SWAP8 SWAP2 PUSH2 0x13A1 JUMPI JUMPDEST POP DUP2 PUSH1 0x1 SHL SWAP2 PUSH1 0x0 NOT SWAP1 PUSH1 0x3 SHL SHR NOT AND OR PUSH1 0xA SSTORE JUMPDEST DUP1 PUSH1 0xB SSTORE PUSH2 0x1397 DUP4 MLOAD SWAP5 DUP5 DUP7 SWAP6 DUP7 MSTORE DUP6 ADD SWAP1 PUSH2 0x154B JUMP JUMPDEST SWAP2 DUP4 ADD MSTORE SUB SWAP1 LOG1 DUP1 RETURN JUMPDEST SWAP1 POP DUP6 ADD MLOAD DUP9 PUSH2 0x136B JUMP JUMPDEST DUP2 AND PUSH1 0xA DUP8 MSTORE PUSH32 0xC65A7BB8D6351C1CF70C95A316CC6A92839C986682D98BC35F958F4883F9D2A8 SWAP1 DUP8 JUMPDEST DUP2 DUP2 LT PUSH2 0x1433 JUMPI POP SWAP1 PUSH32 0xC0D21BDC9727F7D39495FF4DD003E22925DE85F1E81AACFD7CAA71E65034E9DF SWAP8 SWAP9 DUP4 PUSH1 0x1 SWAP5 SWAP4 LT PUSH2 0x141A JUMPI JUMPDEST POP POP DUP2 SHL ADD PUSH1 0xA SSTORE PUSH2 0x1380 JUMP JUMPDEST DUP8 ADD MLOAD PUSH1 0x0 NOT PUSH1 0xF8 DUP5 PUSH1 0x3 SHL AND SHR NOT AND SWAP1 SSTORE DUP9 DUP1 PUSH2 0x140D JUMP JUMPDEST DUP8 DUP11 ADD MLOAD DUP4 SSTORE SWAP9 DUP6 ADD SWAP9 PUSH1 0x1 SWAP1 SWAP3 ADD SWAP2 DUP6 ADD PUSH2 0x13D6 JUMP JUMPDEST PUSH1 0xA DUP8 MSTORE PUSH32 0xC65A7BB8D6351C1CF70C95A316CC6A92839C986682D98BC35F958F4883F9D2A8 PUSH1 0x1F DUP4 ADD PUSH1 0x5 SHR DUP2 ADD SWAP2 DUP6 DUP5 LT PUSH2 0x14A2 JUMPI JUMPDEST PUSH1 0x1F ADD PUSH1 0x5 SHR ADD SWAP1 JUMPDEST DUP2 DUP2 LT PUSH2 0x1497 JUMPI POP PUSH2 0x1331 JUMP JUMPDEST DUP8 DUP2 SSTORE PUSH1 0x1 ADD PUSH2 0x148A JUMP JUMPDEST SWAP1 SWAP2 POP DUP2 SWAP1 PUSH2 0x1481 JUMP JUMPDEST PUSH4 0x4E487B71 PUSH1 0xE0 SHL DUP8 MSTORE PUSH1 0x41 SWAP1 MSTORE PUSH1 0x24 DUP7 REVERT JUMPDEST DUP8 DUP1 REVERT JUMPDEST PUSH4 0x4E487B71 PUSH1 0xE0 SHL DUP7 MSTORE PUSH1 0x41 DUP3 MSTORE PUSH1 0x24 DUP7 REVERT JUMPDEST DUP5 DUP1 REVERT JUMPDEST PUSH1 0x60 DUP2 ADD SWAP1 DUP2 LT PUSH8 0xFFFFFFFFFFFFFFFF DUP3 GT OR PUSH2 0x14F6 JUMPI PUSH1 0x40 MSTORE JUMP JUMPDEST PUSH4 0x4E487B71 PUSH1 0xE0 SHL PUSH1 0x0 MSTORE PUSH1 0x41 PUSH1 0x4 MSTORE PUSH1 0x24 PUSH1 0x0 REVERT JUMPDEST PUSH2 0x100 DUP2 ADD SWAP1 DUP2 LT PUSH8 0xFFFFFFFFFFFFFFFF DUP3 GT OR PUSH2 0x14F6 JUMPI PUSH1 0x40 MSTORE JUMP JUMPDEST SWAP1 PUSH1 0x1F DUP1 NOT SWAP2 ADD AND DUP2 ADD SWAP1 DUP2 LT PUSH8 0xFFFFFFFFFFFFFFFF DUP3 GT OR PUSH2 0x14F6 JUMPI PUSH1 0x40 MSTORE JUMP JUMPDEST SWAP2 SWAP1 DUP3 MLOAD SWAP3 DUP4 DUP3 MSTORE PUSH1 0x0 JUMPDEST DUP5 DUP2 LT PUSH2 0x1577 JUMPI POP POP DUP3 PUSH1 0x0 PUSH1 0x20 DUP1 SWAP5 SWAP6 DUP5 ADD ADD MSTORE PUSH1 0x1F DUP1 NOT SWAP2 ADD AND ADD ADD SWAP1 JUMP JUMPDEST PUSH1 0x20 DUP2 DUP4 ADD DUP2 ADD MLOAD DUP5 DUP4 ADD DUP3 ADD MSTORE ADD PUSH2 0x1556 JUMP JUMPDEST PUSH1 0x4 CALLDATALOAD SWAP1 PUSH1 0x1 PUSH1 0x1 PUSH1 0xA0 SHL SUB DUP3 AND DUP3 SUB PUSH2 0x15A1 JUMPI JUMP JUMPDEST PUSH1 0x0 DUP1 REVERT JUMPDEST PUSH1 0x24 CALLDATALOAD SWAP1 PUSH1 0x1 PUSH1 0x1 PUSH1 0xA0 SHL SUB DUP3 AND DUP3 SUB PUSH2 0x15A1 JUMPI JUMP JUMPDEST SWAP1 PUSH1 0x1 DUP3 DUP2 SHR SWAP3 AND DUP1 ISZERO PUSH2 0x15EC JUMPI JUMPDEST PUSH1 0x20 DUP4 LT EQ PUSH2 0x15D6 JUMPI JUMP JUMPDEST PUSH4 0x4E487B71 PUSH1 0xE0 SHL PUSH1 0x0 MSTORE PUSH1 0x22 PUSH1 0x4 MSTORE PUSH1 0x24 PUSH1 0x0 REVERT JUMPDEST SWAP2 PUSH1 0x7F AND SWAP2 PUSH2 0x15CB JUMP JUMPDEST PUSH1 0x40 MLOAD SWAP1 PUSH1 0x0 DUP3 PUSH1 0x9 SLOAD SWAP2 PUSH2 0x160A DUP4 PUSH2 0x15BC JUMP JUMPDEST DUP1 DUP4 MSTORE SWAP3 PUSH1 0x1 SWAP1 DUP2 DUP2 AND SWAP1 DUP2 ISZERO PUSH2 0x1692 JUMPI POP PUSH1 0x1 EQ PUSH2 0x1633 JUMPI JUMPDEST POP PUSH2 0x1631 SWAP3 POP SUB DUP4 PUSH2 0x1529 JUMP JUMPDEST JUMP JUMPDEST PUSH1 0x9 PUSH1 0x0 SWAP1 DUP2 MSTORE SWAP2 POP PUSH32 0x6E1540171B6C0C960B71A7020D9F60077F6AF931A8BBF590DA0223DACF75C7AF JUMPDEST DUP5 DUP4 LT PUSH2 0x1677 JUMPI POP PUSH2 0x1631 SWAP4 POP POP DUP2 ADD PUSH1 0x20 ADD CODESIZE PUSH2 0x1624 JUMP JUMPDEST DUP2 SWAP4 POP SWAP1 DUP2 PUSH1 0x20 SWAP3 SLOAD DUP4 DUP6 DUP11 ADD ADD MSTORE ADD SWAP2 ADD SWAP1 SWAP2 DUP6 SWAP3 PUSH2 0x165E JUMP JUMPDEST SWAP1 POP PUSH1 0x20 SWAP3 POP PUSH2 0x1631 SWAP5 SWAP2 POP PUSH1 0xFF NOT AND DUP3 DUP5 ADD MSTORE ISZERO ISZERO PUSH1 0x5 SHL DUP3 ADD ADD CODESIZE PUSH2 0x1624 JUMP JUMPDEST PUSH1 0x40 MLOAD SWAP1 PUSH1 0x0 DUP3 PUSH1 0xA SLOAD SWAP2 PUSH2 0x16C8 DUP4 PUSH2 0x15BC JUMP JUMPDEST DUP1 DUP4 MSTORE SWAP3 PUSH1 0x1 SWAP1 DUP2 DUP2 AND SWAP1 DUP2 ISZERO PUSH2 0x1692 JUMPI POP PUSH1 0x1 EQ PUSH2 0x16EE JUMPI POP PUSH2 0x1631 SWAP3 POP SUB DUP4 PUSH2 0x1529 JUMP JUMPDEST PUSH1 0xA PUSH1 0x0 SWAP1 DUP2 MSTORE SWAP2 POP PUSH32 0xC65A7BB8D6351C1CF70C95A316CC6A92839C986682D98BC35F958F4883F9D2A8 JUMPDEST DUP5 DUP4 LT PUSH2 0x1732 JUMPI POP PUSH2 0x1631 SWAP4 POP POP DUP2 ADD PUSH1 0x20 ADD CODESIZE PUSH2 0x1624 JUMP JUMPDEST DUP2 SWAP4 POP SWAP1 DUP2 PUSH1 0x20 SWAP3 SLOAD DUP4 DUP6 DUP11 ADD ADD MSTORE ADD SWAP2 ADD SWAP1 SWAP2 DUP6 SWAP3 PUSH2 0x1719 JUMP JUMPDEST PUSH1 0x40 MLOAD SWAP1 PUSH1 0x0 DUP3 PUSH1 0xE SLOAD SWAP2 PUSH2 0x1761 DUP4 PUSH2 0x15BC JUMP JUMPDEST DUP1 DUP4 MSTORE SWAP3 PUSH1 0x1 SWAP1 DUP2 DUP2 AND SWAP1 DUP2 ISZERO PUSH2 0x1692 JUMPI POP PUSH1 0x1 EQ PUSH2 0x1787 JUMPI POP PUSH2 0x1631 SWAP3 POP SUB DUP4 PUSH2 0x1529 JUMP JUMPDEST PUSH1 0xE PUSH1 0x0 SWAP1 DUP2 MSTORE SWAP2 POP PUSH32 0xBB7B4A454DC3493923482F07822329ED19E8244EFF582CC204F8554C3620C3FD JUMPDEST DUP5 DUP4 LT PUSH2 0x17CB JUMPI POP PUSH2 0x1631 SWAP4 POP POP DUP2 ADD PUSH1 0x20 ADD CODESIZE PUSH2 0x1624 JUMP JUMPDEST DUP2 SWAP4 POP SWAP1 DUP2 PUSH1 0x20 SWAP3 SLOAD DUP4 DUP6 DUP11 ADD ADD MSTORE ADD SWAP2 ADD SWAP1 SWAP2 DUP6 SWAP3 PUSH2 0x17B2 JUMP JUMPDEST PUSH1 0x15 SLOAD DUP2 LT ISZERO PUSH2 0x1821 JUMPI PUSH1 0x3 SWAP1 PUSH1 0x15 PUSH1 0x0 MSTORE MUL PUSH32 0x55F448FDEA98C4D29EB340757EF0A66CD03DBB9538908A6A81D96026B71EC475 ADD SWAP1 PUSH1 0x0 SWAP1 JUMP JUMPDEST PUSH4 0x4E487B71 PUSH1 0xE0 SHL PUSH1 0x0 MSTORE PUSH1 0x32 PUSH1 0x4 MSTORE PUSH1 0x24 PUSH1 0x0 REVERT JUMPDEST PUSH1 0x5 SLOAD PUSH1 0x1 PUSH1 0x1 PUSH1 0xA0 SHL SUB AND CALLER SUB PUSH2 0x184B JUMPI JUMP JUMPDEST PUSH1 0x40 MLOAD PUSH4 0x118CDAA7 PUSH1 0xE0 SHL DUP2 MSTORE CALLER PUSH1 0x4 DUP3 ADD MSTORE PUSH1 0x24 SWAP1 REVERT JUMPDEST SWAP2 PUSH1 0x1 PUSH1 0x1 PUSH1 0xA0 SHL SUB DUP1 DUP5 AND SWAP3 DUP4 ISZERO PUSH2 0x1928 JUMPI AND SWAP3 DUP4 ISZERO PUSH2 0x190F JUMPI PUSH1 0x0 SWAP1 DUP4 DUP3 MSTORE DUP2 PUSH1 0x20 MSTORE PUSH1 0x40 DUP3 KECCAK256 SLOAD SWAP1 DUP4 DUP3 LT PUSH2 0x18DD JUMPI POP SWAP2 PUSH1 0x40 DUP3 DUP3 PUSH32 0xDDF252AD1BE2C89B69C2B068FC378DAA952BA7F163C4A11628F55A4DF523B3EF SWAP6 DUP8 PUSH1 0x20 SWAP7 MSTORE DUP3 DUP7 MSTORE SUB DUP3 DUP3 KECCAK256 SSTORE DUP7 DUP2 MSTORE KECCAK256 DUP2 DUP2 SLOAD ADD SWAP1 SSTORE PUSH1 0x40 MLOAD SWAP1 DUP2 MSTORE LOG3 JUMP JUMPDEST PUSH1 0x40 MLOAD PUSH4 0x391434E3 PUSH1 0xE2 SHL DUP2 MSTORE PUSH1 0x1 PUSH1 0x1 PUSH1 0xA0 SHL SUB SWAP2 SWAP1 SWAP2 AND PUSH1 0x4 DUP3 ADD MSTORE PUSH1 0x24 DUP2 ADD SWAP2 SWAP1 SWAP2 MSTORE PUSH1 0x44 DUP2 ADD DUP4 SWAP1 MSTORE PUSH1 0x64 SWAP1 REVERT JUMPDEST PUSH1 0x40 MLOAD PUSH4 0xEC442F05 PUSH1 0xE0 SHL DUP2 MSTORE PUSH1 0x0 PUSH1 0x4 DUP3 ADD MSTORE PUSH1 0x24 SWAP1 REVERT JUMPDEST PUSH1 0x40 MLOAD PUSH4 0x4B637E8F PUSH1 0xE1 SHL DUP2 MSTORE PUSH1 0x0 PUSH1 0x4 DUP3 ADD MSTORE PUSH1 0x24 SWAP1 REVERT JUMPDEST SWAP2 SWAP1 DUP3 ADD DUP1 SWAP3 GT PUSH2 0x194E JUMPI JUMP JUMPDEST PUSH4 0x4E487B71 PUSH1 0xE0 SHL PUSH1 0x0 MSTORE PUSH1 0x11 PUSH1 0x4 MSTORE PUSH1 0x24 PUSH1 0x0 REVERT JUMPDEST ISZERO PUSH2 0x196B JUMPI JUMP JUMPDEST PUSH1 0x40 MLOAD PUSH3 0x461BCD PUSH1 0xE5 SHL DUP2 MSTORE PUSH1 0x20 PUSH1 0x4 DUP3 ADD MSTORE PUSH1 0x1D PUSH1 0x24 DUP3 ADD MSTORE PUSH32 0x416D6F756E74206D7573742062652067726561746572207468616E2030000000 PUSH1 0x44 DUP3 ADD MSTORE PUSH1 0x64 SWAP1 REVERT JUMPDEST DUP2 DUP2 MUL SWAP3 SWAP2 DUP2 ISZERO SWAP2 DUP5 DIV EQ OR ISZERO PUSH2 0x194E JUMPI JUMP JUMPDEST DUP1 ISZERO PUSH2 0x19CF DUP2 ISZERO PUSH2 0x1964 JUMP JUMPDEST PUSH1 0x0 SWAP1 ADDRESS DUP3 MSTORE DUP2 PUSH1 0x20 MSTORE PUSH1 0x40 DUP3 KECCAK256 SLOAD SWAP1 PUSH8 0xDE0B6B3A7640000 DUP1 DUP6 MUL SWAP5 DUP6 DIV EQ OR ISZERO PUSH2 0x1A43 JUMPI PUSH1 0x1 DUP2 ADD DUP1 SWAP2 GT PUSH2 0x1A43 JUMPI DUP1 ISZERO PUSH2 0x1A2F JUMPI PUSH5 0x2540BE400 SWAP3 DIV DUP3 ADD DUP1 SWAP3 GT PUSH2 0x1A1B JUMPI POP SWAP1 JUMP JUMPDEST PUSH4 0x4E487B71 PUSH1 0xE0 SHL DUP2 MSTORE PUSH1 0x11 PUSH1 0x4 MSTORE PUSH1 0x24 SWAP1 REVERT JUMPDEST PUSH4 0x4E487B71 PUSH1 0xE0 SHL DUP3 MSTORE PUSH1 0x12 PUSH1 0x4 MSTORE PUSH1 0x24 DUP3 REVERT JUMPDEST PUSH4 0x4E487B71 PUSH1 0xE0 SHL DUP3 MSTORE PUSH1 0x11 PUSH1 0x4 MSTORE PUSH1 0x24 DUP3 REVERT JUMPDEST ISZERO PUSH2 0x1A5E JUMPI JUMP JUMPDEST PUSH1 0x40 MLOAD PUSH3 0x461BCD PUSH1 0xE5 SHL DUP2 MSTORE PUSH1 0x20 PUSH1 0x4 DUP3 ADD MSTORE PUSH1 0x11 PUSH1 0x24 DUP3 ADD MSTORE PUSH17 0x151C98591A5B99C81A5CC81C185D5CD959 PUSH1 0x7A SHL PUSH1 0x44 DUP3 ADD MSTORE PUSH1 0x64 SWAP1 REVERT JUMPDEST PUSH1 0x15 SLOAD PUSH9 0x10000000000000000 DUP2 LT ISZERO PUSH2 0x14F6 JUMPI DUP1 PUSH1 0x1 PUSH2 0x1ABB SWAP3 ADD PUSH1 0x15 SSTORE PUSH2 0x17E6 JUMP JUMPDEST SWAP2 SWAP1 SWAP2 PUSH2 0x1ADC JUMPI PUSH1 0x40 DUP2 PUSH1 0x2 SWAP3 MLOAD DUP5 SSTORE PUSH1 0x20 DUP2 ADD MLOAD PUSH1 0x1 DUP6 ADD SSTORE ADD MLOAD SWAP2 ADD SSTORE JUMP JUMPDEST PUSH4 0x4E487B71 PUSH1 0xE0 SHL PUSH1 0x0 MSTORE PUSH1 0x0 PUSH1 0x4 MSTORE PUSH1 0x24 PUSH1 0x0 REVERT JUMPDEST PUSH1 0x0 NOT DUP2 EQ PUSH2 0x194E JUMPI PUSH1 0x1 ADD SWAP1 JUMP JUMPDEST SWAP2 SWAP1 DUP3 SUB SWAP2 DUP3 GT PUSH2 0x194E JUMPI JUMP JUMPDEST PUSH1 0x2 PUSH1 0x6 SLOAD EQ PUSH2 0x1B1F JUMPI PUSH1 0x2 PUSH1 0x6 SSTORE JUMP JUMPDEST PUSH1 0x40 MLOAD PUSH4 0x3EE5AEB5 PUSH1 0xE0 SHL DUP2 MSTORE PUSH1 0x4 SWAP1 REVERT JUMPDEST PUSH8 0xFFFFFFFFFFFFFFFF DUP2 GT PUSH2 0x14F6 JUMPI PUSH1 0x5 SHL PUSH1 0x20 ADD SWAP1 JUMP JUMPDEST DUP1 MLOAD DUP3 LT ISZERO PUSH2 0x1821 JUMPI PUSH1 0x20 SWAP2 PUSH1 0x5 SHL ADD ADD SWAP1 JUMP INVALID LOG2 PUSH5 0x6970667358 0x22 SLT KECCAK256 0xF6 SUB KECCAK256 0xC7 EXP SWAP2 LOG0 MOD PUSH1 0x52 0xFC PUSH11 0x8B4C5880F8A173C6B4F331 DUP14 0xF9 SUB PUSH32 0xE31959D8E264736F6C63430008140033BB7B4A454DC3493923482F07822329ED NOT 0xE8 0x24 0x4E SELFDESTRUCT PC 0x2C 0xC2 DIV 0xF8 SSTORE 0x4C CALLDATASIZE KECCAK256 0xC3 REVERT 0xC6 GAS PUSH28 0xB8D6351C1CF70C95A316CC6A92839C986682D98BC35F958F4883F9D2 0xA8 PUSH15 0x1540171B6C0C960B71A7020D9F6007 PUSH32 0x6AF931A8BBF590DA0223DACF75C7AF0000000000000000000000000000000000 "},"methodIdentifiers":{"MAX_SUPPLY()":"32cb6b0c","MIN_LIQUIDITY()":"21b77d63","MIN_PRICE()":"ad9f20a6","allowance(address,address)":"dd62ed3e","approve(address,uint256)":"095ea7b3","balanceOf(address)":"70a08231","basePrice()":"c7876ea4","buyTokens(uint256)":"3610724e","calculatePrice(uint256)":"ae104265","currentPrice()":"9d1b464a","decimals()":"313ce567","getPatentDetails()":"67bf602b","getTokenMetrics()":"f0d673f3","getTradeHistory(uint256)":"873c5e60","holdersCount()":"6b4ed21b","isTrading()":"6e9087db","lastPriceUpdate()":"6949faeb","liquidityPool()":"665a11ca","name()":"06fdde03","owner()":"8da5cb5b","patentDetails()":"52dc0f96","patentId()":"8654aa34","patentRegistryAddress()":"6485b6bb","renounceOwnership()":"715018a6","sellTokens(uint256)":"6c11bcd3","setPatentForSale(bool)":"d3bc9e2a","symbol()":"95d89b41","totalSupply()":"18160ddd","tradeHistory(uint256)":"5b0c5dbd","transfer(address,uint256)":"a9059cbb","transferFrom(address,address,uint256)":"23b872dd","transferOwnership(address)":"f2fde38b","updatePatentDetails(string,uint256)":"045fa779","userTrades(address)":"6a6ae606","volume24h()":"140b9d84","withdrawExcessLiquidity(uint256)":"2d9e3f62"}}}}}