{"contracts/IPatentRegistry.sol":{"PatentRegistry":{"abi":[{"inputs":[],"stateMutability":"nonpayable","type":"constructor"},{"anonymous":false,"inputs":[{"indexed":true,"internalType":"address","name":"previousOwner","type":"address"},{"indexed":true,"internalType":"address","name":"newOwner","type":"address"}],"name":"OwnershipTransferred","type":"event"},{"anonymous":false,"inputs":[{"indexed":true,"internalType":"uint256","name":"patentId","type":"uint256"},{"indexed":false,"internalType":"string","name":"title","type":"string"},{"indexed":false,"internalType":"address","name":"inventor","type":"address"}],"name":"PatentRegistered","type":"event"},{"anonymous":false,"inputs":[{"indexed":true,"internalType":"uint256","name":"patentId","type":"uint256"},{"indexed":false,"internalType":"string","name":"ipfsHash","type":"string"}],"name":"PatentUpdated","type":"event"},{"anonymous":false,"inputs":[{"indexed":true,"internalType":"uint256","name":"patentId","type":"uint256"}],"name":"PatentVerified","type":"event"},{"anonymous":false,"inputs":[{"indexed":false,"internalType":"address","name":"account","type":"address"}],"name":"Paused","type":"event"},{"anonymous":false,"inputs":[{"indexed":false,"internalType":"address","name":"account","type":"address"}],"name":"Unpaused","type":"event"},{"inputs":[{"internalType":"address","name":"inventor","type":"address"}],"name":"getInventorPatents","outputs":[{"internalType":"uint256[]","name":"","type":"uint256[]"}],"stateMutability":"view","type":"function"},{"inputs":[{"internalType":"uint256","name":"patentId","type":"uint256"}],"name":"getPatent","outputs":[{"internalType":"string","name":"title","type":"string"},{"internalType":"string","name":"ipfsHash","type":"string"},{"internalType":"uint256","name":"price","type":"uint256"},{"internalType":"bool","name":"isForSale","type":"bool"},{"internalType":"address","name":"inventor","type":"address"},{"internalType":"uint256","name":"createdAt","type":"uint256"},{"internalType":"string","name":"patentIdStr","type":"string"},{"internalType":"bool","name":"isVerified","type":"bool"}],"stateMutability":"view","type":"function"},{"inputs":[],"name":"getTotalPatents","outputs":[{"internalType":"uint256","name":"","type":"uint256"}],"stateMutability":"view","type":"function"},{"inputs":[],"name":"owner","outputs":[{"internalType":"address","name":"","type":"address"}],"stateMutability":"view","type":"function"},{"inputs":[{"internalType":"string","name":"patentId","type":"string"}],"name":"patentExists","outputs":[{"internalType":"bool","name":"","type":"bool"}],"stateMutability":"view","type":"function"},{"inputs":[],"name":"pause","outputs":[],"stateMutability":"nonpayable","type":"function"},{"inputs":[],"name":"paused","outputs":[{"internalType":"bool","name":"","type":"bool"}],"stateMutability":"view","type":"function"},{"inputs":[{"internalType":"string","name":"title","type":"string"},{"internalType":"string","name":"ipfsHash","type":"string"},{"internalType":"string","name":"patentId","type":"string"}],"name":"registerPatent","outputs":[{"internalType":"uint256","name":"","type":"uint256"}],"stateMutability":"nonpayable","type":"function"},{"inputs":[],"name":"renounceOwnership","outputs":[],"stateMutability":"nonpayable","type":"function"},{"inputs":[{"internalType":"uint256","name":"patentId","type":"uint256"},{"internalType":"uint256","name":"newPrice","type":"uint256"}],"name":"setPatentPrice","outputs":[],"stateMutability":"nonpayable","type":"function"},{"inputs":[{"internalType":"address","name":"newOwner","type":"address"}],"name":"transferOwnership","outputs":[],"stateMutability":"nonpayable","type":"function"},{"inputs":[],"name":"unpause","outputs":[],"stateMutability":"nonpayable","type":"function"},{"inputs":[{"internalType":"uint256","name":"patentId","type":"uint256"},{"internalType":"string","name":"newIpfsHash","type":"string"}],"name":"updatePatentMetadata","outputs":[],"stateMutability":"nonpayable","type":"function"},{"inputs":[{"internalType":"uint256","name":"patentId","type":"uint256"}],"name":"verifyPatent","outputs":[],"stateMutability":"nonpayable","type":"function"}],"evm":{"bytecode":{"linkReferences":{},"object":"608080604052346100335760018055600080546001600160a81b0319163360ff60a01b19161790556112d390816100398239f35b600080fdfe6080604052600436101561001257600080fd5b60003560e01c806303c628da14610ec657806309f63a5314610dca5780631274abfd14610be75780633f4ba83a14610b3d57806345cd275f146104c957806350674e65146104885780635c975abb14610462578063715018a6146104045780638456cb591461038e5780638da5cb5b146103655780639c6d0d7814610290578063b3b412f11461022e578063b6cc81c8146101765763f2fde38b146100b657600080fd5b34610171576020366003190112610171576004356001600160a01b038181169182900361017157600054908116906100ef82331461105d565b821561012c576001600160a01b031916821760009081557f8be0079c531659141344cd1fd0a4f28419497f9722a3daafe3b4186f6b6457e09080a3005b60405162461bcd60e51b815260206004820152601d60248201527f4e6577206f776e657220697320746865207a65726f20616464726573730000006044820152606490fd5b600080fd5b3461017157602080600319360112610171576004356001600160a01b038116908190036101715760005260048152604060002060405190818382549182815201908192600052846000209060005b8682821061021a5786866101da82880383610f9c565b604051928392818401908285525180915260408401929160005b82811061020357505050500390f35b8351855286955093810193928101926001016101f4565b8354855290930192600192830192016101c4565b346101715760203660031901126101715760043567ffffffffffffffff81116101715760ff61027a602061026781943690600401610fbe565b8160405193828580945193849201611015565b8101600381520301902054166040519015158152f35b34610171576020366003190112610171576004356000526002602052610326604060002060038101549061035960018060a01b038360081c16916102d5831515611170565b600281015490600481015460ff6006830154169460ff6102f4846111f7565b976103346103106005610309600189016111f7565b97016111f7565b956040519b8c9b8c6101008091528d0190611038565b908b820360208d0152611038565b9560408a01521615156060880152608087015260a086015284820360c0860152611038565b90151560e08301520390f35b34610171576000366003190112610171576000546040516001600160a01b039091168152602090f35b34610171576000366003190112610171576000546103b6336001600160a01b0383161461105d565b6103c660ff8260a01c16156110a9565b60ff60a01b1916600160a01b176000556040513381527f62e78cea01bee320cd4e420270b5ea74000d11b0c9f74754ebdbfc544b05a25890602090a1005b346101715760003660031901126101715760008054906001600160a01b03821661042f33821461105d565b7f8be0079c531659141344cd1fd0a4f28419497f9722a3daafe3b4186f6b6457e08280a36001600160a01b031916600055005b3461017157600036600319011261017157602060ff60005460a01c166040519015158152f35b346101715760003660031901126101715760015460001981019081116104b357602090604051908152f35b634e487b7160e01b600052601160045260246000fd5b346101715760603660031901126101715760043567ffffffffffffffff8111610171576104fa903690600401610fbe565b60243567ffffffffffffffff81116101715761051a903690600401610fbe565b60443567ffffffffffffffff81116101715761053a903690600401610fbe565b61054c60ff60005460a01c16156110a9565b60ff60405160208184516105638183858901611015565b810160038152030190205416610af857825115610abb57610586825115156110ea565b6001549160001983146104b3576001830160015560405190610100820182811067ffffffffffffffff82111761083d57604052848252602082015260006040820152600060608201523360808201524260a08201528160c0820152600060e0820152826000526002602052604060002090805180519067ffffffffffffffff821161083d5781906106178554611136565b601f8111610a6b575b50602090601f83116001146109ff576000926109f4575b50508160011b916000199060031b1c19161782555b602081015180519067ffffffffffffffff821161083d5781906106726001860154611136565b601f81116109a1575b50602090601f831160011461092f57600092610924575b50508160011b916000199060031b1c19161760018301555b60408101516002830155600382016106d460608301511515829060ff801983541691151516179055565b60808201518154610100600160a81b03191660089190911b610100600160a81b031617905560a0810151600483015560c081015180519067ffffffffffffffff821161083d576107276005850154611136565b601f81116108dd575b50602090601f831160011461085e5760e06107899694846102679560209895600695600092610853575b50508160011b916000199060031b1c19161760058501555b0151151591019060ff801983541691151516179055565b81016003815203019020600160ff198254161790553360005260046020526040600020918254926801000000000000000084101561083d5760018401808255841015610827576108178392836020967feebda3320ab960cd070929d355df316d58dd891ad055b9a64fd302a318a1894394600052876000200155604051918291604083526040830190611038565b33878301520390a2604051908152f35b634e487b7160e01b600052603260045260246000fd5b634e487b7160e01b600052604160045260246000fd5b015190508c8061075a565b906005850160005260206000209160005b601f19851681106108c5575061078996946001856020989560069560e09561026799601f198116106108ac575b505050811b016005850155610772565b015160001960f88460031b161c191690558c808061089c565b9192602060018192868501518155019401920161086f565b600585016000526020600020601f840160051c81016020851061091d575b601f830160051c82018110610911575050610730565b600081556001016108fb565b50806108fb565b015190508780610692565b9250600185016000526020600020906000935b601f1984168510610986576001945083601f1981161061096d575b505050811b0160018301556106aa565b015160001960f88460031b161c1916905587808061095d565b81810151835560209485019460019093019290910190610942565b909150600185016000526020600020601f840160051c8101602085106109ed575b90849392915b601f830160051c820181106109de57505061067b565b600081558594506001016109c8565b50806109c2565b015190508780610637565b9250846000526020600020906000935b601f1984168510610a50576001945083601f19811610610a37575b505050811b01825561064c565b015160001960f88460031b161c19169055878080610a2a565b81810151835560209485019460019093019290910190610a0f565b909150846000526020600020601f840160051c810160208510610ab4575b90849392915b601f830160051c82018110610aa5575050610620565b60008155859450600101610a8f565b5080610a89565b60405162461bcd60e51b81526020600482015260156024820152745469746c652063616e6e6f7420626520656d70747960581b6044820152606490fd5b60405162461bcd60e51b815260206004820152601860248201527f506174656e7420494420616c72656164792065786973747300000000000000006044820152606490fd5b3461017157600036600319011261017157600054610b65336001600160a01b0383161461105d565b60ff8160a01c1615610ba95760ff60a01b19166000556040513381527f5db9ee0a495bf2e6ff9c91a7834c1ba4fdd244a5e8aa4e537bd38aeae4b073aa90602090a1005b60405162461bcd60e51b815260206004820152601660248201527510dbdb9d1c9858dd081a5cc81b9bdd081c185d5cd95960521b6044820152606490fd5b346101715760403660031901126101715767ffffffffffffffff60043560243582811161017157610c1c903690600401610fbe565b610c2e60ff60005460a01c16156110a9565b81600052602060028152610c5660018060a01b0360036040600020015460081c1633146111b4565b610c62825115156110ea565b82600052600281526001938460406000200190835190811161083d57610c888254611136565b601f8111610d81575b508295601f8211600114610d02578180917fb310ebf52cd4065ada291320bc4944ebfbc2db41482b7a1d1e1d67cfbddccd8c9798600093610cf7575b501b916000199060031b1c19161790555b610cf2604051928284938452830190611038565b0390a2005b870151925089610ccd565b90601f1981169683600052846000209060005b898110610d6c5750827fb310ebf52cd4065ada291320bc4944ebfbc2db41482b7a1d1e1d67cfbddccd8c989910610d53575b5050811b019055610cde565b86015160001960f88460031b161c191690558780610d47565b87820151835591840191908601908601610d15565b8260005283600020601f830160051c810191858410610dc0575b601f0160051c019087905b828110610db4575050610c91565b60008155018790610da6565b9091508190610d9b565b3461017157602036600319011261017157600435610e25600054610e0860ff60018060a01b0392610dfe848216331461105d565b60a01c16156110a9565b82600052600260205260036040600020015460081c161515611170565b80600052600260205260ff60066040600020015416610e81578060005260026020526006604060002001600160ff198254161790557f9ecbe1c2c56f8bbdaa41b2ee1602155bbcad497cb96424cbe7a57843cfd2e81b600080a2005b60405162461bcd60e51b815260206004820152601760248201527f506174656e7420616c72656164792076657269666965640000000000000000006044820152606490fd5b3461017157604036600319011261017157600435602435610eef60ff60005460a01c16156110a9565b816000526002602052610f1660018060a01b0360036040600020015460081c1633146111b4565b81600052600260205260ff6006604060002001541615610f6157610f5f9160005260026020526003604060002091806002840155151591019060ff801983541691151516179055565b005b60405162461bcd60e51b815260206004820152601360248201527214185d195b9d081b9bdd081d995c9a599a5959606a1b6044820152606490fd5b90601f8019910116810190811067ffffffffffffffff82111761083d57604052565b81601f820112156101715780359067ffffffffffffffff821161083d5760405192610ff3601f8401601f191660200185610f9c565b8284526020838301011161017157816000926020809301838601378301015290565b60005b8381106110285750506000910152565b8181015183820152602001611018565b9060209161105181518092818552858086019101611015565b601f01601f1916010190565b1561106457565b60405162461bcd60e51b815260206004820152601760248201527f43616c6c6572206973206e6f7420746865206f776e65720000000000000000006044820152606490fd5b156110b057565b60405162461bcd60e51b815260206004820152601260248201527110dbdb9d1c9858dd081a5cc81c185d5cd95960721b6044820152606490fd5b156110f157565b60405162461bcd60e51b815260206004820152601960248201527f4950465320686173682063616e6e6f7420626520656d707479000000000000006044820152606490fd5b90600182811c92168015611166575b602083101461115057565b634e487b7160e01b600052602260045260246000fd5b91607f1691611145565b1561117757565b60405162461bcd60e51b815260206004820152601560248201527414185d195b9d08191bd95cc81b9bdd08195e1a5cdd605a1b6044820152606490fd5b156111bb57565b60405162461bcd60e51b81526020600482015260146024820152732737ba103a3432903830ba32b73a1037bbb732b960611b6044820152606490fd5b906040519182600082549261120b84611136565b90818452600194858116908160001461127a5750600114611237575b505061123592500383610f9c565b565b9093915060005260209081600020936000915b81831061126257505061123593508201013880611227565b8554888401850152948501948794509183019161124a565b91505061123594506020925060ff191682840152151560051b820101388061122756fea2646970667358221220abc36f50ab4564f25ac08a97ac0e5f3d6f20d8c39fafc782b22c1ed88a3f885064736f6c63430008140033","opcodes":"PUSH1 0x80 DUP1 PUSH1 0x40 MSTORE CALLVALUE PUSH2 0x33 JUMPI PUSH1 0x1 DUP1 SSTORE PUSH1 0x0 DUP1 SLOAD PUSH1 0x1 PUSH1 0x1 PUSH1 0xA8 SHL SUB NOT AND CALLER PUSH1 0xFF PUSH1 0xA0 SHL NOT AND OR SWAP1 SSTORE PUSH2 0x12D3 SWAP1 DUP2 PUSH2 0x39 DUP3 CODECOPY RETURN JUMPDEST PUSH1 0x0 DUP1 REVERT INVALID PUSH1 0x80 PUSH1 0x40 MSTORE PUSH1 0x4 CALLDATASIZE LT ISZERO PUSH2 0x12 JUMPI PUSH1 0x0 DUP1 REVERT JUMPDEST PUSH1 0x0 CALLDATALOAD PUSH1 0xE0 SHR DUP1 PUSH4 0x3C628DA EQ PUSH2 0xEC6 JUMPI DUP1 PUSH4 0x9F63A53 EQ PUSH2 0xDCA JUMPI DUP1 PUSH4 0x1274ABFD EQ PUSH2 0xBE7 JUMPI DUP1 PUSH4 0x3F4BA83A EQ PUSH2 0xB3D JUMPI DUP1 PUSH4 0x45CD275F EQ PUSH2 0x4C9 JUMPI DUP1 PUSH4 0x50674E65 EQ PUSH2 0x488 JUMPI DUP1 PUSH4 0x5C975ABB EQ PUSH2 0x462 JUMPI DUP1 PUSH4 0x715018A6 EQ PUSH2 0x404 JUMPI DUP1 PUSH4 0x8456CB59 EQ PUSH2 0x38E JUMPI DUP1 PUSH4 0x8DA5CB5B EQ PUSH2 0x365 JUMPI DUP1 PUSH4 0x9C6D0D78 EQ PUSH2 0x290 JUMPI DUP1 PUSH4 0xB3B412F1 EQ PUSH2 0x22E JUMPI DUP1 PUSH4 0xB6CC81C8 EQ PUSH2 0x176 JUMPI PUSH4 0xF2FDE38B EQ PUSH2 0xB6 JUMPI PUSH1 0x0 DUP1 REVERT JUMPDEST CALLVALUE PUSH2 0x171 JUMPI PUSH1 0x20 CALLDATASIZE PUSH1 0x3 NOT ADD SLT PUSH2 0x171 JUMPI PUSH1 0x4 CALLDATALOAD PUSH1 0x1 PUSH1 0x1 PUSH1 0xA0 SHL SUB DUP2 DUP2 AND SWAP2 DUP3 SWAP1 SUB PUSH2 0x171 JUMPI PUSH1 0x0 SLOAD SWAP1 DUP2 AND SWAP1 PUSH2 0xEF DUP3 CALLER EQ PUSH2 0x105D JUMP JUMPDEST DUP3 ISZERO PUSH2 0x12C JUMPI PUSH1 0x1 PUSH1 0x1 PUSH1 0xA0 SHL SUB NOT AND DUP3 OR PUSH1 0x0 SWAP1 DUP2 SSTORE PUSH32 0x8BE0079C531659141344CD1FD0A4F28419497F9722A3DAAFE3B4186F6B6457E0 SWAP1 DUP1 LOG3 STOP JUMPDEST PUSH1 0x40 MLOAD PUSH3 0x461BCD PUSH1 0xE5 SHL DUP2 MSTORE PUSH1 0x20 PUSH1 0x4 DUP3 ADD MSTORE PUSH1 0x1D PUSH1 0x24 DUP3 ADD MSTORE PUSH32 0x4E6577206F776E657220697320746865207A65726F2061646472657373000000 PUSH1 0x44 DUP3 ADD MSTORE PUSH1 0x64 SWAP1 REVERT JUMPDEST PUSH1 0x0 DUP1 REVERT JUMPDEST CALLVALUE PUSH2 0x171 JUMPI PUSH1 0x20 DUP1 PUSH1 0x3 NOT CALLDATASIZE ADD SLT PUSH2 0x171 JUMPI PUSH1 0x4 CALLDATALOAD PUSH1 0x1 PUSH1 0x1 PUSH1 0xA0 SHL SUB DUP2 AND SWAP1 DUP2 SWAP1 SUB PUSH2 0x171 JUMPI PUSH1 0x0 MSTORE PUSH1 0x4 DUP2 MSTORE PUSH1 0x40 PUSH1 0x0 KECCAK256 PUSH1 0x40 MLOAD SWAP1 DUP2 DUP4 DUP3 SLOAD SWAP2 DUP3 DUP2 MSTORE ADD SWAP1 DUP2 SWAP3 PUSH1 0x0 MSTORE DUP5 PUSH1 0x0 KECCAK256 SWAP1 PUSH1 0x0 JUMPDEST DUP7 DUP3 DUP3 LT PUSH2 0x21A JUMPI DUP7 DUP7 PUSH2 0x1DA DUP3 DUP9 SUB DUP4 PUSH2 0xF9C JUMP JUMPDEST PUSH1 0x40 MLOAD SWAP3 DUP4 SWAP3 DUP2 DUP5 ADD SWAP1 DUP3 DUP6 MSTORE MLOAD DUP1 SWAP2 MSTORE PUSH1 0x40 DUP5 ADD SWAP3 SWAP2 PUSH1 0x0 JUMPDEST DUP3 DUP2 LT PUSH2 0x203 JUMPI POP POP POP POP SUB SWAP1 RETURN JUMPDEST DUP4 MLOAD DUP6 MSTORE DUP7 SWAP6 POP SWAP4 DUP2 ADD SWAP4 SWAP3 DUP2 ADD SWAP3 PUSH1 0x1 ADD PUSH2 0x1F4 JUMP JUMPDEST DUP4 SLOAD DUP6 MSTORE SWAP1 SWAP4 ADD SWAP3 PUSH1 0x1 SWAP3 DUP4 ADD SWAP3 ADD PUSH2 0x1C4 JUMP JUMPDEST CALLVALUE PUSH2 0x171 JUMPI PUSH1 0x20 CALLDATASIZE PUSH1 0x3 NOT ADD SLT PUSH2 0x171 JUMPI PUSH1 0x4 CALLDATALOAD PUSH8 0xFFFFFFFFFFFFFFFF DUP2 GT PUSH2 0x171 JUMPI PUSH1 0xFF PUSH2 0x27A PUSH1 0x20 PUSH2 0x267 DUP2 SWAP5 CALLDATASIZE SWAP1 PUSH1 0x4 ADD PUSH2 0xFBE JUMP JUMPDEST DUP2 PUSH1 0x40 MLOAD SWAP4 DUP3 DUP6 DUP1 SWAP5 MLOAD SWAP4 DUP5 SWAP3 ADD PUSH2 0x1015 JUMP JUMPDEST DUP2 ADD PUSH1 0x3 DUP2 MSTORE SUB ADD SWAP1 KECCAK256 SLOAD AND PUSH1 0x40 MLOAD SWAP1 ISZERO ISZERO DUP2 MSTORE RETURN JUMPDEST CALLVALUE PUSH2 0x171 JUMPI PUSH1 0x20 CALLDATASIZE PUSH1 0x3 NOT ADD SLT PUSH2 0x171 JUMPI PUSH1 0x4 CALLDATALOAD PUSH1 0x0 MSTORE PUSH1 0x2 PUSH1 0x20 MSTORE PUSH2 0x326 PUSH1 0x40 PUSH1 0x0 KECCAK256 PUSH1 0x3 DUP2 ADD SLOAD SWAP1 PUSH2 0x359 PUSH1 0x1 DUP1 PUSH1 0xA0 SHL SUB DUP4 PUSH1 0x8 SHR AND SWAP2 PUSH2 0x2D5 DUP4 ISZERO ISZERO PUSH2 0x1170 JUMP JUMPDEST PUSH1 0x2 DUP2 ADD SLOAD SWAP1 PUSH1 0x4 DUP2 ADD SLOAD PUSH1 0xFF PUSH1 0x6 DUP4 ADD SLOAD AND SWAP5 PUSH1 0xFF PUSH2 0x2F4 DUP5 PUSH2 0x11F7 JUMP JUMPDEST SWAP8 PUSH2 0x334 PUSH2 0x310 PUSH1 0x5 PUSH2 0x309 PUSH1 0x1 DUP10 ADD PUSH2 0x11F7 JUMP JUMPDEST SWAP8 ADD PUSH2 0x11F7 JUMP JUMPDEST SWAP6 PUSH1 0x40 MLOAD SWAP12 DUP13 SWAP12 DUP13 PUSH2 0x100 DUP1 SWAP2 MSTORE DUP14 ADD SWAP1 PUSH2 0x1038 JUMP JUMPDEST SWAP1 DUP12 DUP3 SUB PUSH1 0x20 DUP14 ADD MSTORE PUSH2 0x1038 JUMP JUMPDEST SWAP6 PUSH1 0x40 DUP11 ADD MSTORE AND ISZERO ISZERO PUSH1 0x60 DUP9 ADD MSTORE PUSH1 0x80 DUP8 ADD MSTORE PUSH1 0xA0 DUP7 ADD MSTORE DUP5 DUP3 SUB PUSH1 0xC0 DUP7 ADD MSTORE PUSH2 0x1038 JUMP JUMPDEST SWAP1 ISZERO ISZERO PUSH1 0xE0 DUP4 ADD MSTORE SUB SWAP1 RETURN JUMPDEST CALLVALUE PUSH2 0x171 JUMPI PUSH1 0x0 CALLDATASIZE PUSH1 0x3 NOT ADD SLT PUSH2 0x171 JUMPI PUSH1 0x0 SLOAD PUSH1 0x40 MLOAD PUSH1 0x1 PUSH1 0x1 PUSH1 0xA0 SHL SUB SWAP1 SWAP2 AND DUP2 MSTORE PUSH1 0x20 SWAP1 RETURN JUMPDEST CALLVALUE PUSH2 0x171 JUMPI PUSH1 0x0 CALLDATASIZE PUSH1 0x3 NOT ADD SLT PUSH2 0x171 JUMPI PUSH1 0x0 SLOAD PUSH2 0x3B6 CALLER PUSH1 0x1 PUSH1 0x1 PUSH1 0xA0 SHL SUB DUP4 AND EQ PUSH2 0x105D JUMP JUMPDEST PUSH2 0x3C6 PUSH1 0xFF DUP3 PUSH1 0xA0 SHR AND ISZERO PUSH2 0x10A9 JUMP JUMPDEST PUSH1 0xFF PUSH1 0xA0 SHL NOT AND PUSH1 0x1 PUSH1 0xA0 SHL OR PUSH1 0x0 SSTORE PUSH1 0x40 MLOAD CALLER DUP2 MSTORE PUSH32 0x62E78CEA01BEE320CD4E420270B5EA74000D11B0C9F74754EBDBFC544B05A258 SWAP1 PUSH1 0x20 SWAP1 LOG1 STOP JUMPDEST CALLVALUE PUSH2 0x171 JUMPI PUSH1 0x0 CALLDATASIZE PUSH1 0x3 NOT ADD SLT PUSH2 0x171 JUMPI PUSH1 0x0 DUP1 SLOAD SWAP1 PUSH1 0x1 PUSH1 0x1 PUSH1 0xA0 SHL SUB DUP3 AND PUSH2 0x42F CALLER DUP3 EQ PUSH2 0x105D JUMP JUMPDEST PUSH32 0x8BE0079C531659141344CD1FD0A4F28419497F9722A3DAAFE3B4186F6B6457E0 DUP3 DUP1 LOG3 PUSH1 0x1 PUSH1 0x1 PUSH1 0xA0 SHL SUB NOT AND PUSH1 0x0 SSTORE STOP JUMPDEST CALLVALUE PUSH2 0x171 JUMPI PUSH1 0x0 CALLDATASIZE PUSH1 0x3 NOT ADD SLT PUSH2 0x171 JUMPI PUSH1 0x20 PUSH1 0xFF PUSH1 0x0 SLOAD PUSH1 0xA0 SHR AND PUSH1 0x40 MLOAD SWAP1 ISZERO ISZERO DUP2 MSTORE RETURN JUMPDEST CALLVALUE PUSH2 0x171 JUMPI PUSH1 0x0 CALLDATASIZE PUSH1 0x3 NOT ADD SLT PUSH2 0x171 JUMPI PUSH1 0x1 SLOAD PUSH1 0x0 NOT DUP2 ADD SWAP1 DUP2 GT PUSH2 0x4B3 JUMPI PUSH1 0x20 SWAP1 PUSH1 0x40 MLOAD SWAP1 DUP2 MSTORE RETURN JUMPDEST PUSH4 0x4E487B71 PUSH1 0xE0 SHL PUSH1 0x0 MSTORE PUSH1 0x11 PUSH1 0x4 MSTORE PUSH1 0x24 PUSH1 0x0 REVERT JUMPDEST CALLVALUE PUSH2 0x171 JUMPI PUSH1 0x60 CALLDATASIZE PUSH1 0x3 NOT ADD SLT PUSH2 0x171 JUMPI PUSH1 0x4 CALLDATALOAD PUSH8 0xFFFFFFFFFFFFFFFF DUP2 GT PUSH2 0x171 JUMPI PUSH2 0x4FA SWAP1 CALLDATASIZE SWAP1 PUSH1 0x4 ADD PUSH2 0xFBE JUMP JUMPDEST PUSH1 0x24 CALLDATALOAD PUSH8 0xFFFFFFFFFFFFFFFF DUP2 GT PUSH2 0x171 JUMPI PUSH2 0x51A SWAP1 CALLDATASIZE SWAP1 PUSH1 0x4 ADD PUSH2 0xFBE JUMP JUMPDEST PUSH1 0x44 CALLDATALOAD PUSH8 0xFFFFFFFFFFFFFFFF DUP2 GT PUSH2 0x171 JUMPI PUSH2 0x53A SWAP1 CALLDATASIZE SWAP1 PUSH1 0x4 ADD PUSH2 0xFBE JUMP JUMPDEST PUSH2 0x54C PUSH1 0xFF PUSH1 0x0 SLOAD PUSH1 0xA0 SHR AND ISZERO PUSH2 0x10A9 JUMP JUMPDEST PUSH1 0xFF PUSH1 0x40 MLOAD PUSH1 0x20 DUP2 DUP5 MLOAD PUSH2 0x563 DUP2 DUP4 DUP6 DUP10 ADD PUSH2 0x1015 JUMP JUMPDEST DUP2 ADD PUSH1 0x3 DUP2 MSTORE SUB ADD SWAP1 KECCAK256 SLOAD AND PUSH2 0xAF8 JUMPI DUP3 MLOAD ISZERO PUSH2 0xABB JUMPI PUSH2 0x586 DUP3 MLOAD ISZERO ISZERO PUSH2 0x10EA JUMP JUMPDEST PUSH1 0x1 SLOAD SWAP2 PUSH1 0x0 NOT DUP4 EQ PUSH2 0x4B3 JUMPI PUSH1 0x1 DUP4 ADD PUSH1 0x1 SSTORE PUSH1 0x40 MLOAD SWAP1 PUSH2 0x100 DUP3 ADD DUP3 DUP2 LT PUSH8 0xFFFFFFFFFFFFFFFF DUP3 GT OR PUSH2 0x83D JUMPI PUSH1 0x40 MSTORE DUP5 DUP3 MSTORE PUSH1 0x20 DUP3 ADD MSTORE PUSH1 0x0 PUSH1 0x40 DUP3 ADD MSTORE PUSH1 0x0 PUSH1 0x60 DUP3 ADD MSTORE CALLER PUSH1 0x80 DUP3 ADD MSTORE TIMESTAMP PUSH1 0xA0 DUP3 ADD MSTORE DUP2 PUSH1 0xC0 DUP3 ADD MSTORE PUSH1 0x0 PUSH1 0xE0 DUP3 ADD MSTORE DUP3 PUSH1 0x0 MSTORE PUSH1 0x2 PUSH1 0x20 MSTORE PUSH1 0x40 PUSH1 0x0 KECCAK256 SWAP1 DUP1 MLOAD DUP1 MLOAD SWAP1 PUSH8 0xFFFFFFFFFFFFFFFF DUP3 GT PUSH2 0x83D JUMPI DUP2 SWAP1 PUSH2 0x617 DUP6 SLOAD PUSH2 0x1136 JUMP JUMPDEST PUSH1 0x1F DUP2 GT PUSH2 0xA6B JUMPI JUMPDEST POP PUSH1 0x20 SWAP1 PUSH1 0x1F DUP4 GT PUSH1 0x1 EQ PUSH2 0x9FF JUMPI PUSH1 0x0 SWAP3 PUSH2 0x9F4 JUMPI JUMPDEST POP POP DUP2 PUSH1 0x1 SHL SWAP2 PUSH1 0x0 NOT SWAP1 PUSH1 0x3 SHL SHR NOT AND OR DUP3 SSTORE JUMPDEST PUSH1 0x20 DUP2 ADD MLOAD DUP1 MLOAD SWAP1 PUSH8 0xFFFFFFFFFFFFFFFF DUP3 GT PUSH2 0x83D JUMPI DUP2 SWAP1 PUSH2 0x672 PUSH1 0x1 DUP7 ADD SLOAD PUSH2 0x1136 JUMP JUMPDEST PUSH1 0x1F DUP2 GT PUSH2 0x9A1 JUMPI JUMPDEST POP PUSH1 0x20 SWAP1 PUSH1 0x1F DUP4 GT PUSH1 0x1 EQ PUSH2 0x92F JUMPI PUSH1 0x0 SWAP3 PUSH2 0x924 JUMPI JUMPDEST POP POP DUP2 PUSH1 0x1 SHL SWAP2 PUSH1 0x0 NOT SWAP1 PUSH1 0x3 SHL SHR NOT AND OR PUSH1 0x1 DUP4 ADD SSTORE JUMPDEST PUSH1 0x40 DUP2 ADD MLOAD PUSH1 0x2 DUP4 ADD SSTORE PUSH1 0x3 DUP3 ADD PUSH2 0x6D4 PUSH1 0x60 DUP4 ADD MLOAD ISZERO ISZERO DUP3 SWAP1 PUSH1 0xFF DUP1 NOT DUP4 SLOAD AND SWAP2 ISZERO ISZERO AND OR SWAP1 SSTORE JUMP JUMPDEST PUSH1 0x80 DUP3 ADD MLOAD DUP2 SLOAD PUSH2 0x100 PUSH1 0x1 PUSH1 0xA8 SHL SUB NOT AND PUSH1 0x8 SWAP2 SWAP1 SWAP2 SHL PUSH2 0x100 PUSH1 0x1 PUSH1 0xA8 SHL SUB AND OR SWAP1 SSTORE PUSH1 0xA0 DUP2 ADD MLOAD PUSH1 0x4 DUP4 ADD SSTORE PUSH1 0xC0 DUP2 ADD MLOAD DUP1 MLOAD SWAP1 PUSH8 0xFFFFFFFFFFFFFFFF DUP3 GT PUSH2 0x83D JUMPI PUSH2 0x727 PUSH1 0x5 DUP6 ADD SLOAD PUSH2 0x1136 JUMP JUMPDEST PUSH1 0x1F DUP2 GT PUSH2 0x8DD JUMPI JUMPDEST POP PUSH1 0x20 SWAP1 PUSH1 0x1F DUP4 GT PUSH1 0x1 EQ PUSH2 0x85E JUMPI PUSH1 0xE0 PUSH2 0x789 SWAP7 SWAP5 DUP5 PUSH2 0x267 SWAP6 PUSH1 0x20 SWAP9 SWAP6 PUSH1 0x6 SWAP6 PUSH1 0x0 SWAP3 PUSH2 0x853 JUMPI JUMPDEST POP POP DUP2 PUSH1 0x1 SHL SWAP2 PUSH1 0x0 NOT SWAP1 PUSH1 0x3 SHL SHR NOT AND OR PUSH1 0x5 DUP6 ADD SSTORE JUMPDEST ADD MLOAD ISZERO ISZERO SWAP2 ADD SWAP1 PUSH1 0xFF DUP1 NOT DUP4 SLOAD AND SWAP2 ISZERO ISZERO AND OR SWAP1 SSTORE JUMP JUMPDEST DUP2 ADD PUSH1 0x3 DUP2 MSTORE SUB ADD SWAP1 KECCAK256 PUSH1 0x1 PUSH1 0xFF NOT DUP3 SLOAD AND OR SWAP1 SSTORE CALLER PUSH1 0x0 MSTORE PUSH1 0x4 PUSH1 0x20 MSTORE PUSH1 0x40 PUSH1 0x0 KECCAK256 SWAP2 DUP3 SLOAD SWAP3 PUSH9 0x10000000000000000 DUP5 LT ISZERO PUSH2 0x83D JUMPI PUSH1 0x1 DUP5 ADD DUP1 DUP3 SSTORE DUP5 LT ISZERO PUSH2 0x827 JUMPI PUSH2 0x817 DUP4 SWAP3 DUP4 PUSH1 0x20 SWAP7 PUSH32 0xEEBDA3320AB960CD070929D355DF316D58DD891AD055B9A64FD302A318A18943 SWAP5 PUSH1 0x0 MSTORE DUP8 PUSH1 0x0 KECCAK256 ADD SSTORE PUSH1 0x40 MLOAD SWAP2 DUP3 SWAP2 PUSH1 0x40 DUP4 MSTORE PUSH1 0x40 DUP4 ADD SWAP1 PUSH2 0x1038 JUMP JUMPDEST CALLER DUP8 DUP4 ADD MSTORE SUB SWAP1 LOG2 PUSH1 0x40 MLOAD SWAP1 DUP2 MSTORE RETURN JUMPDEST PUSH4 0x4E487B71 PUSH1 0xE0 SHL PUSH1 0x0 MSTORE PUSH1 0x32 PUSH1 0x4 MSTORE PUSH1 0x24 PUSH1 0x0 REVERT JUMPDEST PUSH4 0x4E487B71 PUSH1 0xE0 SHL PUSH1 0x0 MSTORE PUSH1 0x41 PUSH1 0x4 MSTORE PUSH1 0x24 PUSH1 0x0 REVERT JUMPDEST ADD MLOAD SWAP1 POP DUP13 DUP1 PUSH2 0x75A JUMP JUMPDEST SWAP1 PUSH1 0x5 DUP6 ADD PUSH1 0x0 MSTORE PUSH1 0x20 PUSH1 0x0 KECCAK256 SWAP2 PUSH1 0x0 JUMPDEST PUSH1 0x1F NOT DUP6 AND DUP2 LT PUSH2 0x8C5 JUMPI POP PUSH2 0x789 SWAP7 SWAP5 PUSH1 0x1 DUP6 PUSH1 0x20 SWAP9 SWAP6 PUSH1 0x6 SWAP6 PUSH1 0xE0 SWAP6 PUSH2 0x267 SWAP10 PUSH1 0x1F NOT DUP2 AND LT PUSH2 0x8AC JUMPI JUMPDEST POP POP POP DUP2 SHL ADD PUSH1 0x5 DUP6 ADD SSTORE PUSH2 0x772 JUMP JUMPDEST ADD MLOAD PUSH1 0x0 NOT PUSH1 0xF8 DUP5 PUSH1 0x3 SHL AND SHR NOT AND SWAP1 SSTORE DUP13 DUP1 DUP1 PUSH2 0x89C JUMP JUMPDEST SWAP2 SWAP3 PUSH1 0x20 PUSH1 0x1 DUP2 SWAP3 DUP7 DUP6 ADD MLOAD DUP2 SSTORE ADD SWAP5 ADD SWAP3 ADD PUSH2 0x86F JUMP JUMPDEST PUSH1 0x5 DUP6 ADD PUSH1 0x0 MSTORE PUSH1 0x20 PUSH1 0x0 KECCAK256 PUSH1 0x1F DUP5 ADD PUSH1 0x5 SHR DUP2 ADD PUSH1 0x20 DUP6 LT PUSH2 0x91D JUMPI JUMPDEST PUSH1 0x1F DUP4 ADD PUSH1 0x5 SHR DUP3 ADD DUP2 LT PUSH2 0x911 JUMPI POP POP PUSH2 0x730 JUMP JUMPDEST PUSH1 0x0 DUP2 SSTORE PUSH1 0x1 ADD PUSH2 0x8FB JUMP JUMPDEST POP DUP1 PUSH2 0x8FB JUMP JUMPDEST ADD MLOAD SWAP1 POP DUP8 DUP1 PUSH2 0x692 JUMP JUMPDEST SWAP3 POP PUSH1 0x1 DUP6 ADD PUSH1 0x0 MSTORE PUSH1 0x20 PUSH1 0x0 KECCAK256 SWAP1 PUSH1 0x0 SWAP4 JUMPDEST PUSH1 0x1F NOT DUP5 AND DUP6 LT PUSH2 0x986 JUMPI PUSH1 0x1 SWAP5 POP DUP4 PUSH1 0x1F NOT DUP2 AND LT PUSH2 0x96D JUMPI JUMPDEST POP POP POP DUP2 SHL ADD PUSH1 0x1 DUP4 ADD SSTORE PUSH2 0x6AA JUMP JUMPDEST ADD MLOAD PUSH1 0x0 NOT PUSH1 0xF8 DUP5 PUSH1 0x3 SHL AND SHR NOT AND SWAP1 SSTORE DUP8 DUP1 DUP1 PUSH2 0x95D JUMP JUMPDEST DUP2 DUP2 ADD MLOAD DUP4 SSTORE PUSH1 0x20 SWAP5 DUP6 ADD SWAP5 PUSH1 0x1 SWAP1 SWAP4 ADD SWAP3 SWAP1 SWAP2 ADD SWAP1 PUSH2 0x942 JUMP JUMPDEST SWAP1 SWAP2 POP PUSH1 0x1 DUP6 ADD PUSH1 0x0 MSTORE PUSH1 0x20 PUSH1 0x0 KECCAK256 PUSH1 0x1F DUP5 ADD PUSH1 0x5 SHR DUP2 ADD PUSH1 0x20 DUP6 LT PUSH2 0x9ED JUMPI JUMPDEST SWAP1 DUP5 SWAP4 SWAP3 SWAP2 JUMPDEST PUSH1 0x1F DUP4 ADD PUSH1 0x5 SHR DUP3 ADD DUP2 LT PUSH2 0x9DE JUMPI POP POP PUSH2 0x67B JUMP JUMPDEST PUSH1 0x0 DUP2 SSTORE DUP6 SWAP5 POP PUSH1 0x1 ADD PUSH2 0x9C8 JUMP JUMPDEST POP DUP1 PUSH2 0x9C2 JUMP JUMPDEST ADD MLOAD SWAP1 POP DUP8 DUP1 PUSH2 0x637 JUMP JUMPDEST SWAP3 POP DUP5 PUSH1 0x0 MSTORE PUSH1 0x20 PUSH1 0x0 KECCAK256 SWAP1 PUSH1 0x0 SWAP4 JUMPDEST PUSH1 0x1F NOT DUP5 AND DUP6 LT PUSH2 0xA50 JUMPI PUSH1 0x1 SWAP5 POP DUP4 PUSH1 0x1F NOT DUP2 AND LT PUSH2 0xA37 JUMPI JUMPDEST POP POP POP DUP2 SHL ADD DUP3 SSTORE PUSH2 0x64C JUMP JUMPDEST ADD MLOAD PUSH1 0x0 NOT PUSH1 0xF8 DUP5 PUSH1 0x3 SHL AND SHR NOT AND SWAP1 SSTORE DUP8 DUP1 DUP1 PUSH2 0xA2A JUMP JUMPDEST DUP2 DUP2 ADD MLOAD DUP4 SSTORE PUSH1 0x20 SWAP5 DUP6 ADD SWAP5 PUSH1 0x1 SWAP1 SWAP4 ADD SWAP3 SWAP1 SWAP2 ADD SWAP1 PUSH2 0xA0F JUMP JUMPDEST SWAP1 SWAP2 POP DUP5 PUSH1 0x0 MSTORE PUSH1 0x20 PUSH1 0x0 KECCAK256 PUSH1 0x1F DUP5 ADD PUSH1 0x5 SHR DUP2 ADD PUSH1 0x20 DUP6 LT PUSH2 0xAB4 JUMPI JUMPDEST SWAP1 DUP5 SWAP4 SWAP3 SWAP2 JUMPDEST PUSH1 0x1F DUP4 ADD PUSH1 0x5 SHR DUP3 ADD DUP2 LT PUSH2 0xAA5 JUMPI POP POP PUSH2 0x620 JUMP JUMPDEST PUSH1 0x0 DUP2 SSTORE DUP6 SWAP5 POP PUSH1 0x1 ADD PUSH2 0xA8F JUMP JUMPDEST POP DUP1 PUSH2 0xA89 JUMP JUMPDEST PUSH1 0x40 MLOAD PUSH3 0x461BCD PUSH1 0xE5 SHL DUP2 MSTORE PUSH1 0x20 PUSH1 0x4 DUP3 ADD MSTORE PUSH1 0x15 PUSH1 0x24 DUP3 ADD MSTORE PUSH21 0x5469746C652063616E6E6F7420626520656D707479 PUSH1 0x58 SHL PUSH1 0x44 DUP3 ADD MSTORE PUSH1 0x64 SWAP1 REVERT JUMPDEST PUSH1 0x40 MLOAD PUSH3 0x461BCD PUSH1 0xE5 SHL DUP2 MSTORE PUSH1 0x20 PUSH1 0x4 DUP3 ADD MSTORE PUSH1 0x18 PUSH1 0x24 DUP3 ADD MSTORE PUSH32 0x506174656E7420494420616C7265616479206578697374730000000000000000 PUSH1 0x44 DUP3 ADD MSTORE PUSH1 0x64 SWAP1 REVERT JUMPDEST CALLVALUE PUSH2 0x171 JUMPI PUSH1 0x0 CALLDATASIZE PUSH1 0x3 NOT ADD SLT PUSH2 0x171 JUMPI PUSH1 0x0 SLOAD PUSH2 0xB65 CALLER PUSH1 0x1 PUSH1 0x1 PUSH1 0xA0 SHL SUB DUP4 AND EQ PUSH2 0x105D JUMP JUMPDEST PUSH1 0xFF DUP2 PUSH1 0xA0 SHR AND ISZERO PUSH2 0xBA9 JUMPI PUSH1 0xFF PUSH1 0xA0 SHL NOT AND PUSH1 0x0 SSTORE PUSH1 0x40 MLOAD CALLER DUP2 MSTORE PUSH32 0x5DB9EE0A495BF2E6FF9C91A7834C1BA4FDD244A5E8AA4E537BD38AEAE4B073AA SWAP1 PUSH1 0x20 SWAP1 LOG1 STOP JUMPDEST PUSH1 0x40 MLOAD PUSH3 0x461BCD PUSH1 0xE5 SHL DUP2 MSTORE PUSH1 0x20 PUSH1 0x4 DUP3 ADD MSTORE PUSH1 0x16 PUSH1 0x24 DUP3 ADD MSTORE PUSH22 0x10DBDB9D1C9858DD081A5CC81B9BDD081C185D5CD959 PUSH1 0x52 SHL PUSH1 0x44 DUP3 ADD MSTORE PUSH1 0x64 SWAP1 REVERT JUMPDEST CALLVALUE PUSH2 0x171 JUMPI PUSH1 0x40 CALLDATASIZE PUSH1 0x3 NOT ADD SLT PUSH2 0x171 JUMPI PUSH8 0xFFFFFFFFFFFFFFFF PUSH1 0x4 CALLDATALOAD PUSH1 0x24 CALLDATALOAD DUP3 DUP2 GT PUSH2 0x171 JUMPI PUSH2 0xC1C SWAP1 CALLDATASIZE SWAP1 PUSH1 0x4 ADD PUSH2 0xFBE JUMP JUMPDEST PUSH2 0xC2E PUSH1 0xFF PUSH1 0x0 SLOAD PUSH1 0xA0 SHR AND ISZERO PUSH2 0x10A9 JUMP JUMPDEST DUP2 PUSH1 0x0 MSTORE PUSH1 0x20 PUSH1 0x2 DUP2 MSTORE PUSH2 0xC56 PUSH1 0x1 DUP1 PUSH1 0xA0 SHL SUB PUSH1 0x3 PUSH1 0x40 PUSH1 0x0 KECCAK256 ADD SLOAD PUSH1 0x8 SHR AND CALLER EQ PUSH2 0x11B4 JUMP JUMPDEST PUSH2 0xC62 DUP3 MLOAD ISZERO ISZERO PUSH2 0x10EA JUMP JUMPDEST DUP3 PUSH1 0x0 MSTORE PUSH1 0x2 DUP2 MSTORE PUSH1 0x1 SWAP4 DUP5 PUSH1 0x40 PUSH1 0x0 KECCAK256 ADD SWAP1 DUP4 MLOAD SWAP1 DUP2 GT PUSH2 0x83D JUMPI PUSH2 0xC88 DUP3 SLOAD PUSH2 0x1136 JUMP JUMPDEST PUSH1 0x1F DUP2 GT PUSH2 0xD81 JUMPI JUMPDEST POP DUP3 SWAP6 PUSH1 0x1F DUP3 GT PUSH1 0x1 EQ PUSH2 0xD02 JUMPI DUP2 DUP1 SWAP2 PUSH32 0xB310EBF52CD4065ADA291320BC4944EBFBC2DB41482B7A1D1E1D67CFBDDCCD8C SWAP8 SWAP9 PUSH1 0x0 SWAP4 PUSH2 0xCF7 JUMPI JUMPDEST POP SHL SWAP2 PUSH1 0x0 NOT SWAP1 PUSH1 0x3 SHL SHR NOT AND OR SWAP1 SSTORE JUMPDEST PUSH2 0xCF2 PUSH1 0x40 MLOAD SWAP3 DUP3 DUP5 SWAP4 DUP5 MSTORE DUP4 ADD SWAP1 PUSH2 0x1038 JUMP JUMPDEST SUB SWAP1 LOG2 STOP JUMPDEST DUP8 ADD MLOAD SWAP3 POP DUP10 PUSH2 0xCCD JUMP JUMPDEST SWAP1 PUSH1 0x1F NOT DUP2 AND SWAP7 DUP4 PUSH1 0x0 MSTORE DUP5 PUSH1 0x0 KECCAK256 SWAP1 PUSH1 0x0 JUMPDEST DUP10 DUP2 LT PUSH2 0xD6C JUMPI POP DUP3 PUSH32 0xB310EBF52CD4065ADA291320BC4944EBFBC2DB41482B7A1D1E1D67CFBDDCCD8C SWAP9 SWAP10 LT PUSH2 0xD53 JUMPI JUMPDEST POP POP DUP2 SHL ADD SWAP1 SSTORE PUSH2 0xCDE JUMP JUMPDEST DUP7 ADD MLOAD PUSH1 0x0 NOT PUSH1 0xF8 DUP5 PUSH1 0x3 SHL AND SHR NOT AND SWAP1 SSTORE DUP8 DUP1 PUSH2 0xD47 JUMP JUMPDEST DUP8 DUP3 ADD MLOAD DUP4 SSTORE SWAP2 DUP5 ADD SWAP2 SWAP1 DUP7 ADD SWAP1 DUP7 ADD PUSH2 0xD15 JUMP JUMPDEST DUP3 PUSH1 0x0 MSTORE DUP4 PUSH1 0x0 KECCAK256 PUSH1 0x1F DUP4 ADD PUSH1 0x5 SHR DUP2 ADD SWAP2 DUP6 DUP5 LT PUSH2 0xDC0 JUMPI JUMPDEST PUSH1 0x1F ADD PUSH1 0x5 SHR ADD SWAP1 DUP8 SWAP1 JUMPDEST DUP3 DUP2 LT PUSH2 0xDB4 JUMPI POP POP PUSH2 0xC91 JUMP JUMPDEST PUSH1 0x0 DUP2 SSTORE ADD DUP8 SWAP1 PUSH2 0xDA6 JUMP JUMPDEST SWAP1 SWAP2 POP DUP2 SWAP1 PUSH2 0xD9B JUMP JUMPDEST CALLVALUE PUSH2 0x171 JUMPI PUSH1 0x20 CALLDATASIZE PUSH1 0x3 NOT ADD SLT PUSH2 0x171 JUMPI PUSH1 0x4 CALLDATALOAD PUSH2 0xE25 PUSH1 0x0 SLOAD PUSH2 0xE08 PUSH1 0xFF PUSH1 0x1 DUP1 PUSH1 0xA0 SHL SUB SWAP3 PUSH2 0xDFE DUP5 DUP3 AND CALLER EQ PUSH2 0x105D JUMP JUMPDEST PUSH1 0xA0 SHR AND ISZERO PUSH2 0x10A9 JUMP JUMPDEST DUP3 PUSH1 0x0 MSTORE PUSH1 0x2 PUSH1 0x20 MSTORE PUSH1 0x3 PUSH1 0x40 PUSH1 0x0 KECCAK256 ADD SLOAD PUSH1 0x8 SHR AND ISZERO ISZERO PUSH2 0x1170 JUMP JUMPDEST DUP1 PUSH1 0x0 MSTORE PUSH1 0x2 PUSH1 0x20 MSTORE PUSH1 0xFF PUSH1 0x6 PUSH1 0x40 PUSH1 0x0 KECCAK256 ADD SLOAD AND PUSH2 0xE81 JUMPI DUP1 PUSH1 0x0 MSTORE PUSH1 0x2 PUSH1 0x20 MSTORE PUSH1 0x6 PUSH1 0x40 PUSH1 0x0 KECCAK256 ADD PUSH1 0x1 PUSH1 0xFF NOT DUP3 SLOAD AND OR SWAP1 SSTORE PUSH32 0x9ECBE1C2C56F8BBDAA41B2EE1602155BBCAD497CB96424CBE7A57843CFD2E81B PUSH1 0x0 DUP1 LOG2 STOP JUMPDEST PUSH1 0x40 MLOAD PUSH3 0x461BCD PUSH1 0xE5 SHL DUP2 MSTORE PUSH1 0x20 PUSH1 0x4 DUP3 ADD MSTORE PUSH1 0x17 PUSH1 0x24 DUP3 ADD MSTORE PUSH32 0x506174656E7420616C7265616479207665726966696564000000000000000000 PUSH1 0x44 DUP3 ADD MSTORE PUSH1 0x64 SWAP1 REVERT JUMPDEST CALLVALUE PUSH2 0x171 JUMPI PUSH1 0x40 CALLDATASIZE PUSH1 0x3 NOT ADD SLT PUSH2 0x171 JUMPI PUSH1 0x4 CALLDATALOAD PUSH1 0x24 CALLDATALOAD PUSH2 0xEEF PUSH1 0xFF PUSH1 0x0 SLOAD PUSH1 0xA0 SHR AND ISZERO PUSH2 0x10A9 JUMP JUMPDEST DUP2 PUSH1 0x0 MSTORE PUSH1 0x2 PUSH1 0x20 MSTORE PUSH2 0xF16 PUSH1 0x1 DUP1 PUSH1 0xA0 SHL SUB PUSH1 0x3 PUSH1 0x40 PUSH1 0x0 KECCAK256 ADD SLOAD PUSH1 0x8 SHR AND CALLER EQ PUSH2 0x11B4 JUMP JUMPDEST DUP2 PUSH1 0x0 MSTORE PUSH1 0x2 PUSH1 0x20 MSTORE PUSH1 0xFF PUSH1 0x6 PUSH1 0x40 PUSH1 0x0 KECCAK256 ADD SLOAD AND ISZERO PUSH2 0xF61 JUMPI PUSH2 0xF5F SWAP2 PUSH1 0x0 MSTORE PUSH1 0x2 PUSH1 0x20 MSTORE PUSH1 0x3 PUSH1 0x40 PUSH1 0x0 KECCAK256 SWAP2 DUP1 PUSH1 0x2 DUP5 ADD SSTORE ISZERO ISZERO SWAP2 ADD SWAP1 PUSH1 0xFF DUP1 NOT DUP4 SLOAD AND SWAP2 ISZERO ISZERO AND OR SWAP1 SSTORE JUMP JUMPDEST STOP JUMPDEST PUSH1 0x40 MLOAD PUSH3 0x461BCD PUSH1 0xE5 SHL DUP2 MSTORE PUSH1 0x20 PUSH1 0x4 DUP3 ADD MSTORE PUSH1 0x13 PUSH1 0x24 DUP3 ADD MSTORE PUSH19 0x14185D195B9D081B9BDD081D995C9A599A5959 PUSH1 0x6A SHL PUSH1 0x44 DUP3 ADD MSTORE PUSH1 0x64 SWAP1 REVERT JUMPDEST SWAP1 PUSH1 0x1F DUP1 NOT SWAP2 ADD AND DUP2 ADD SWAP1 DUP2 LT PUSH8 0xFFFFFFFFFFFFFFFF DUP3 GT OR PUSH2 0x83D JUMPI PUSH1 0x40 MSTORE JUMP JUMPDEST DUP2 PUSH1 0x1F DUP3 ADD SLT ISZERO PUSH2 0x171 JUMPI DUP1 CALLDATALOAD SWAP1 PUSH8 0xFFFFFFFFFFFFFFFF DUP3 GT PUSH2 0x83D JUMPI PUSH1 0x40 MLOAD SWAP3 PUSH2 0xFF3 PUSH1 0x1F DUP5 ADD PUSH1 0x1F NOT AND PUSH1 0x20 ADD DUP6 PUSH2 0xF9C JUMP JUMPDEST DUP3 DUP5 MSTORE PUSH1 0x20 DUP4 DUP4 ADD ADD GT PUSH2 0x171 JUMPI DUP2 PUSH1 0x0 SWAP3 PUSH1 0x20 DUP1 SWAP4 ADD DUP4 DUP7 ADD CALLDATACOPY DUP4 ADD ADD MSTORE SWAP1 JUMP JUMPDEST PUSH1 0x0 JUMPDEST DUP4 DUP2 LT PUSH2 0x1028 JUMPI POP POP PUSH1 0x0 SWAP2 ADD MSTORE JUMP JUMPDEST DUP2 DUP2 ADD MLOAD DUP4 DUP3 ADD MSTORE PUSH1 0x20 ADD PUSH2 0x1018 JUMP JUMPDEST SWAP1 PUSH1 0x20 SWAP2 PUSH2 0x1051 DUP2 MLOAD DUP1 SWAP3 DUP2 DUP6 MSTORE DUP6 DUP1 DUP7 ADD SWAP2 ADD PUSH2 0x1015 JUMP JUMPDEST PUSH1 0x1F ADD PUSH1 0x1F NOT AND ADD ADD SWAP1 JUMP JUMPDEST ISZERO PUSH2 0x1064 JUMPI JUMP JUMPDEST PUSH1 0x40 MLOAD PUSH3 0x461BCD PUSH1 0xE5 SHL DUP2 MSTORE PUSH1 0x20 PUSH1 0x4 DUP3 ADD MSTORE PUSH1 0x17 PUSH1 0x24 DUP3 ADD MSTORE PUSH32 0x43616C6C6572206973206E6F7420746865206F776E6572000000000000000000 PUSH1 0x44 DUP3 ADD MSTORE PUSH1 0x64 SWAP1 REVERT JUMPDEST ISZERO PUSH2 0x10B0 JUMPI JUMP JUMPDEST PUSH1 0x40 MLOAD PUSH3 0x461BCD PUSH1 0xE5 SHL DUP2 MSTORE PUSH1 0x20 PUSH1 0x4 DUP3 ADD MSTORE PUSH1 0x12 PUSH1 0x24 DUP3 ADD MSTORE PUSH18 0x10DBDB9D1C9858DD081A5CC81C185D5CD959 PUSH1 0x72 SHL PUSH1 0x44 DUP3 ADD MSTORE PUSH1 0x64 SWAP1 REVERT JUMPDEST ISZERO PUSH2 0x10F1 JUMPI JUMP JUMPDEST PUSH1 0x40 MLOAD PUSH3 0x461BCD PUSH1 0xE5 SHL DUP2 MSTORE PUSH1 0x20 PUSH1 0x4 DUP3 ADD MSTORE PUSH1 0x19 PUSH1 0x24 DUP3 ADD MSTORE PUSH32 0x4950465320686173682063616E6E6F7420626520656D70747900000000000000 PUSH1 0x44 DUP3 ADD MSTORE PUSH1 0x64 SWAP1 REVERT JUMPDEST SWAP1 PUSH1 0x1 DUP3 DUP2 SHR SWAP3 AND DUP1 ISZERO PUSH2 0x1166 JUMPI JUMPDEST PUSH1 0x20 DUP4 LT EQ PUSH2 0x1150 JUMPI JUMP JUMPDEST PUSH4 0x4E487B71 PUSH1 0xE0 SHL PUSH1 0x0 MSTORE PUSH1 0x22 PUSH1 0x4 MSTORE PUSH1 0x24 PUSH1 0x0 REVERT JUMPDEST SWAP2 PUSH1 0x7F AND SWAP2 PUSH2 0x1145 JUMP JUMPDEST ISZERO PUSH2 0x1177 JUMPI JUMP JUMPDEST PUSH1 0x40 MLOAD PUSH3 0x461BCD PUSH1 0xE5 SHL DUP2 MSTORE PUSH1 0x20 PUSH1 0x4 DUP3 ADD MSTORE PUSH1 0x15 PUSH1 0x24 DUP3 ADD MSTORE PUSH21 0x14185D195B9D08191BD95CC81B9BDD08195E1A5CDD PUSH1 0x5A SHL PUSH1 0x44 DUP3 ADD MSTORE PUSH1 0x64 SWAP1 REVERT JUMPDEST ISZERO PUSH2 0x11BB JUMPI JUMP JUMPDEST PUSH1 0x40 MLOAD PUSH3 0x461BCD PUSH1 0xE5 SHL DUP2 MSTORE PUSH1 0x20 PUSH1 0x4 DUP3 ADD MSTORE PUSH1 0x14 PUSH1 0x24 DUP3 ADD MSTORE PUSH20 0x2737BA103A3432903830BA32B73A1037BBB732B9 PUSH1 0x61 SHL PUSH1 0x44 DUP3 ADD MSTORE PUSH1 0x64 SWAP1 REVERT JUMPDEST SWAP1 PUSH1 0x40 MLOAD SWAP2 DUP3 PUSH1 0x0 DUP3 SLOAD SWAP3 PUSH2 0x120B DUP5 PUSH2 0x1136 JUMP JUMPDEST SWAP1 DUP2 DUP5 MSTORE PUSH1 0x1 SWAP5 DUP6 DUP2 AND SWAP1 DUP2 PUSH1 0x0 EQ PUSH2 0x127A JUMPI POP PUSH1 0x1 EQ PUSH2 0x1237 JUMPI JUMPDEST POP POP PUSH2 0x1235 SWAP3 POP SUB DUP4 PUSH2 0xF9C JUMP JUMPDEST JUMP JUMPDEST SWAP1 SWAP4 SWAP2 POP PUSH1 0x0 MSTORE PUSH1 0x20 SWAP1 DUP2 PUSH1 0x0 KECCAK256 SWAP4 PUSH1 0x0 SWAP2 JUMPDEST DUP2 DUP4 LT PUSH2 0x1262 JUMPI POP POP PUSH2 0x1235 SWAP4 POP DUP3 ADD ADD CODESIZE DUP1 PUSH2 0x1227 JUMP JUMPDEST DUP6 SLOAD DUP9 DUP5 ADD DUP6 ADD MSTORE SWAP5 DUP6 ADD SWAP5 DUP8 SWAP5 POP SWAP2 DUP4 ADD SWAP2 PUSH2 0x124A JUMP JUMPDEST SWAP2 POP POP PUSH2 0x1235 SWAP5 POP PUSH1 0x20 SWAP3 POP PUSH1 0xFF NOT AND DUP3 DUP5 ADD MSTORE ISZERO ISZERO PUSH1 0x5 SHL DUP3 ADD ADD CODESIZE DUP1 PUSH2 0x1227 JUMP INVALID LOG2 PUSH5 0x6970667358 0x22 SLT KECCAK256 0xAB 0xC3 PUSH16 0x50AB4564F25AC08A97AC0E5F3D6F20D8 0xC3 SWAP16 0xAF 0xC7 DUP3 0xB2 0x2C 0x1E 0xD8 DUP11 EXTCODEHASH DUP9 POP PUSH5 0x736F6C6343 STOP ADDMOD EQ STOP CALLER "},"methodIdentifiers":{"getInventorPatents(address)":"b6cc81c8","getPatent(uint256)":"9c6d0d78","getTotalPatents()":"50674e65","owner()":"8da5cb5b","patentExists(string)":"b3b412f1","pause()":"8456cb59","paused()":"5c975abb","registerPatent(string,string,string)":"45cd275f","renounceOwnership()":"715018a6","setPatentPrice(uint256,uint256)":"03c628da","transferOwnership(address)":"f2fde38b","unpause()":"3f4ba83a","updatePatentMetadata(uint256,string)":"1274abfd","verifyPatent(uint256)":"09f63a53"}}}}}