{"contracts/PatentStaking.sol":{"PatentStaking":{"abi":[{"inputs":[{"internalType":"address","name":"_patentFactory","type":"address"}],"stateMutability":"nonpayable","type":"constructor"},{"inputs":[{"internalType":"address","name":"sender","type":"address"},{"internalType":"uint256","name":"tokenId","type":"uint256"},{"internalType":"address","name":"owner","type":"address"}],"name":"ERC721IncorrectOwner","type":"error"},{"inputs":[{"internalType":"address","name":"operator","type":"address"},{"internalType":"uint256","name":"tokenId","type":"uint256"}],"name":"ERC721InsufficientApproval","type":"error"},{"inputs":[{"internalType":"address","name":"approver","type":"address"}],"name":"ERC721InvalidApprover","type":"error"},{"inputs":[{"internalType":"address","name":"operator","type":"address"}],"name":"ERC721InvalidOperator","type":"error"},{"inputs":[{"internalType":"address","name":"owner","type":"address"}],"name":"ERC721InvalidOwner","type":"error"},{"inputs":[{"internalType":"address","name":"receiver","type":"address"}],"name":"ERC721InvalidReceiver","type":"error"},{"inputs":[{"internalType":"address","name":"sender","type":"address"}],"name":"ERC721InvalidSender","type":"error"},{"inputs":[{"internalType":"uint256","name":"tokenId","type":"uint256"}],"name":"ERC721NonexistentToken","type":"error"},{"inputs":[{"internalType":"address","name":"owner","type":"address"}],"name":"OwnableInvalidOwner","type":"error"},{"inputs":[{"internalType":"address","name":"account","type":"address"}],"name":"OwnableUnauthorizedAccount","type":"error"},{"inputs":[],"name":"ReentrancyGuardReentrantCall","type":"error"},{"anonymous":false,"inputs":[{"indexed":true,"internalType":"address","name":"owner","type":"address"},{"indexed":true,"internalType":"address","name":"approved","type":"address"},{"indexed":true,"internalType":"uint256","name":"tokenId","type":"uint256"}],"name":"Approval","type":"event"},{"anonymous":false,"inputs":[{"indexed":true,"internalType":"address","name":"owner","type":"address"},{"indexed":true,"internalType":"address","name":"operator","type":"address"},{"indexed":false,"internalType":"bool","name":"approved","type":"bool"}],"name":"ApprovalForAll","type":"event"},{"anonymous":false,"inputs":[{"indexed":true,"internalType":"address","name":"previousOwner","type":"address"},{"indexed":true,"internalType":"address","name":"newOwner","type":"address"}],"name":"OwnershipTransferred","type":"event"},{"anonymous":false,"inputs":[{"indexed":true,"internalType":"address","name":"user","type":"address"},{"indexed":true,"internalType":"address","name":"patentToken","type":"address"},{"indexed":false,"internalType":"uint256","name":"amount","type":"uint256"},{"indexed":false,"internalType":"uint256","name":"nftId","type":"uint256"}],"name":"Staked","type":"event"},{"anonymous":false,"inputs":[{"indexed":true,"internalType":"address","name":"from","type":"address"},{"indexed":true,"internalType":"address","name":"to","type":"address"},{"indexed":true,"internalType":"uint256","name":"tokenId","type":"uint256"}],"name":"Transfer","type":"event"},{"anonymous":false,"inputs":[{"indexed":true,"internalType":"address","name":"user","type":"address"},{"indexed":true,"internalType":"address","name":"patentToken","type":"address"},{"indexed":false,"internalType":"uint256","name":"amount","type":"uint256"},{"indexed":false,"internalType":"uint256","name":"nftId","type":"uint256"}],"name":"Unstaked","type":"event"},{"inputs":[],"name":"STAKE_REQUIREMENT","outputs":[{"internalType":"uint256","name":"","type":"uint256"}],"stateMutability":"view","type":"function"},{"inputs":[{"internalType":"address","name":"to","type":"address"},{"internalType":"uint256","name":"tokenId","type":"uint256"}],"name":"approve","outputs":[],"stateMutability":"nonpayable","type":"function"},{"inputs":[{"internalType":"address","name":"owner","type":"address"}],"name":"balanceOf","outputs":[{"internalType":"uint256","name":"","type":"uint256"}],"stateMutability":"view","type":"function"},{"inputs":[{"internalType":"uint256","name":"tokenId","type":"uint256"}],"name":"getApproved","outputs":[{"internalType":"address","name":"","type":"address"}],"stateMutability":"view","type":"function"},{"inputs":[{"internalType":"uint256","name":"tokenId","type":"uint256"}],"name":"getPatentTokenForNFT","outputs":[{"internalType":"address","name":"","type":"address"}],"stateMutability":"view","type":"function"},{"inputs":[{"internalType":"address","name":"owner","type":"address"},{"internalType":"address","name":"operator","type":"address"}],"name":"isApprovedForAll","outputs":[{"internalType":"bool","name":"","type":"bool"}],"stateMutability":"view","type":"function"},{"inputs":[],"name":"name","outputs":[{"internalType":"string","name":"","type":"string"}],"stateMutability":"view","type":"function"},{"inputs":[{"internalType":"address","name":"","type":"address"}],"name":"nextTokenId","outputs":[{"internalType":"uint256","name":"","type":"uint256"}],"stateMutability":"view","type":"function"},{"inputs":[],"name":"owner","outputs":[{"internalType":"address","name":"","type":"address"}],"stateMutability":"view","type":"function"},{"inputs":[{"internalType":"uint256","name":"tokenId","type":"uint256"}],"name":"ownerOf","outputs":[{"internalType":"address","name":"","type":"address"}],"stateMutability":"view","type":"function"},{"inputs":[],"name":"patentFactory","outputs":[{"internalType":"address","name":"","type":"address"}],"stateMutability":"view","type":"function"},{"inputs":[],"name":"renounceOwnership","outputs":[],"stateMutability":"nonpayable","type":"function"},{"inputs":[{"internalType":"address","name":"from","type":"address"},{"internalType":"address","name":"to","type":"address"},{"internalType":"uint256","name":"tokenId","type":"uint256"}],"name":"safeTransferFrom","outputs":[],"stateMutability":"nonpayable","type":"function"},{"inputs":[{"internalType":"address","name":"from","type":"address"},{"internalType":"address","name":"to","type":"address"},{"internalType":"uint256","name":"tokenId","type":"uint256"},{"internalType":"bytes","name":"data","type":"bytes"}],"name":"safeTransferFrom","outputs":[],"stateMutability":"nonpayable","type":"function"},{"inputs":[{"internalType":"address","name":"operator","type":"address"},{"internalType":"bool","name":"approved","type":"bool"}],"name":"setApprovalForAll","outputs":[],"stateMutability":"nonpayable","type":"function"},{"inputs":[{"internalType":"address","name":"patentToken","type":"address"},{"internalType":"uint256","name":"amount","type":"uint256"},{"internalType":"string","name":"patentTitle","type":"string"},{"internalType":"string","name":"imageUrl","type":"string"}],"name":"stake","outputs":[],"stateMutability":"nonpayable","type":"function"},{"inputs":[{"internalType":"uint256","name":"","type":"uint256"}],"name":"stakes","outputs":[{"internalType":"uint256","name":"amount","type":"uint256"},{"internalType":"address","name":"patentToken","type":"address"},{"internalType":"string","name":"patentTitle","type":"string"},{"internalType":"string","name":"imageUrl","type":"string"}],"stateMutability":"view","type":"function"},{"inputs":[{"internalType":"bytes4","name":"interfaceId","type":"bytes4"}],"name":"supportsInterface","outputs":[{"internalType":"bool","name":"","type":"bool"}],"stateMutability":"view","type":"function"},{"inputs":[],"name":"symbol","outputs":[{"internalType":"string","name":"","type":"string"}],"stateMutability":"view","type":"function"},{"inputs":[{"internalType":"uint256","name":"tokenId","type":"uint256"}],"name":"tokenURI","outputs":[{"internalType":"string","name":"","type":"string"}],"stateMutability":"view","type":"function"},{"inputs":[{"internalType":"address","name":"from","type":"address"},{"internalType":"address","name":"to","type":"address"},{"internalType":"uint256","name":"tokenId","type":"uint256"}],"name":"transferFrom","outputs":[],"stateMutability":"nonpayable","type":"function"},{"inputs":[{"internalType":"address","name":"newOwner","type":"address"}],"name":"transferOwnership","outputs":[],"stateMutability":"nonpayable","type":"function"},{"inputs":[{"internalType":"uint256","name":"tokenId","type":"uint256"}],"name":"unstake","outputs":[],"stateMutability":"nonpayable","type":"function"}],"evm":{"bytecode":{"linkReferences":{},"object":"60a0346200041a57601f1990601f906001600160401b0362001eb738819003848101861684018381118582101762000404578492829160405283396020938491810103126200041a5751936001600160a01b0393848616928387036200041a57620000696200041f565b91601383527f506174656e742055736167652052696768747300000000000000000000000000868401526200009d6200041f565b6003815262282aa960e91b8782015283519483861162000404576000958654956001968781811c91168015620003f9575b8b821014620003e55790818684931162000392575b508a908683116001146200032f57899262000323575b5050600019600383901b1c191690861b1786555b81519384116200030f5784548581811c9116801562000304575b89821014620002f057908184869594931162000299575b508892841160011462000238575085926200022c575b5050600019600383901b1c191690821b1781555b60065533156200021457600754903360018060a01b03198316176007557f8be0079c531659141344cd1fd0a4f28419497f9722a3daafe3b4186f6b6457e0604051953393169180a315620001d35782608052604051611a77908162000440823960805181610d9b0152f35b62461bcd60e51b82526004820152601760248201527f496e76616c696420666163746f72792061646472657373000000000000000000604482015260649150fd5b60249060405190631e4fbdf760e01b82526004820152fd5b01519050388062000154565b85875288872086959093929116875b8a82821062000282575050841162000268575b505050811b01815562000168565b015160001960f88460031b161c191690553880806200025a565b838501518655889790950194938401930162000247565b90919293508587528887208480870160051c8201928b8810620002e6575b9187968992969594930160051c01915b828110620002d75750506200013e565b898155879650889101620002c7565b92508192620002b7565b634e487b7160e01b87526022600452602487fd5b90607f169062000127565b634e487b7160e01b86526041600452602486fd5b015190503880620000f9565b9084899416918a80528c8b20928d8c905b8282106200037a575050841162000360575b505050811b0186556200010d565b015160001960f88460031b161c1916905538808062000352565b8385015186558c979095019493840193018e62000340565b9091508880528a89208680850160051c8201928d8610620003db575b918a91869594930160051c01915b828110620003cc575050620000e3565b8b81558594508a9101620003bc565b92508192620003ae565b634e487b7160e01b89526022600452602489fd5b90607f1690620000ce565b634e487b7160e01b600052604160045260246000fd5b600080fd5b60408051919082016001600160401b03811183821017620004045760405256fe608080604052600436101561001357600080fd5b60003560e01c90816301ffc9a71461120a5750806306fdde0314611167578063081812fc14611129578063095ea7b31461104257806323b872dd1461102b5780632e17de7814610df257806342842e0e14610dca57806358722a0714610d855780636352211e14610d5557806368ee9d6d14610cfb57806370a0823114610ca2578063715018a614610c455780638da5cb5b14610c1c57806395d89b4114610b3d578063a22cb46514610a98578063b88d4fde14610a36578063c118258b14610a12578063c852b1bf146109d8578063c87b56dd146107b1578063d5a44f861461072e578063e896816214610205578063e985e9c5146101af5763f2fde38b1461011c57600080fd5b346101aa5760203660031901126101aa576101356112bd565b61013d6114c9565b6001600160a01b0390811690811561019157600754826bffffffffffffffffffffffff60a01b821617600755167f8be0079c531659141344cd1fd0a4f28419497f9722a3daafe3b4186f6b6457e0600080a3005b604051631e4fbdf760e01b815260006004820152602490fd5b600080fd5b346101aa5760403660031901126101aa576101c86112bd565b6101d06112d3565b9060018060a01b03809116600052600560205260406000209116600052602052602060ff604060002054166040519015158152f35b346101aa5760803660031901126101aa5761021e6112bd565b60443567ffffffffffffffff81116101aa5761023e9036906004016114ab565b9060643567ffffffffffffffff81116101aa5761025f9036906004016114ab565b90610268611879565b683635c9adc5dea00000602435106106e9576040516323b872dd60e01b8152336004820152306024808301919091523560448201526001600160a01b03929060208160648160008789165af180156106dd576102cc916000916106ae575b50611824565b8282166000526009602052604060002093845494600019861461069857600186019055331561067f5784600052600260205283604060002054169081151580610648575b336000526003602052604060002060018154019055866000526002602052866040600020936bffffffffffffffffffffffff60a01b94338682541617905533907fddf252ad1be2c89b69c2b068fc378daa952ba7f163c4a11628f55a4df523b3ef600080a461062f57604051926103868461131e565b602435845260208401908686168252604085019283526060850152866000526008602052604060002092845184558660018501925116908254161790555180519067ffffffffffffffff8211610565576103e360028401546113cb565b601f81116105fa575b50602090601f83116001146105865791806060949260039460009261057b575b50508160011b9160001990851b1c19161760028201555b0191015180519067ffffffffffffffff821161056557819061044584546113cb565b601f8111610528575b50602090601f83116001146104c2576000926104b7575b50508160011b916000199060031b1c19161790555b604051926024358452602084015216907f6c86f3fd5118b3aa8bb4f389a617046de0a3d3d477de1a1673d227f802f616dc60403392a36001600655005b015190508680610465565b6000858152602081209350601f198516905b81811061051057509084600195949392106104f7575b505050811b01905561047a565b015160001960f88460031b161c191690558680806104ea565b929360206001819287860151815501950193016104d4565b61055590856000526020600020601f850160051c8101916020861061055b575b601f0160051c0190611862565b8761044e565b9091508190610548565b634e487b7160e01b600052604160045260246000fd5b01519050898061040c565b906002840160005260206000209160005b601f19851681106105e25750926060949260019260039583601f198116106105ca575b505050811b016002820155610423565b015160001983871b60f8161c191690558980806105ba565b91926020600181928685015181550194019201610597565b61062990600285016000526020600020601f850160051c8101916020861061055b57601f0160051c0190611862565b876103ec565b6040516339e3563760e11b815260006004820152602490fd5b600087815260046020526040902080546001600160a01b031916905582600052600360205260406000206000198154019055610310565b604051633250574960e11b815260006004820152602490fd5b634e487b7160e01b600052601160045260246000fd5b6106d0915060203d6020116106d6575b6106c88183611356565b81019061180c565b866102c6565b503d6106be565b6040513d6000823e3d90fd5b60405162461bcd60e51b815260206004820152601f60248201527f4d757374207374616b65206174206c65617374203130303020746f6b656e73006044820152606490fd5b346101aa5760203660031901126101aa576004356000908152600860205260409020805460018201546001600160a01b0316916107ad9061079f610780600361077960028501611405565b9301611405565b9160405195869586526020860152608060408601526080850190611298565b908382036060850152611298565b0390f35b346101aa576020806003193601126101aa576004356000818152600260205260409020546107e9906001600160a01b031615156118e5565b6000526008815260606108fc607460406000206040516108088161131e565b8154815260018201546001600160a01b03168682015261083d600361082f60028501611405565b936040840194855201611405565b9485910152516040519384917f7b226e616d65223a2022506174656e74204e4654202d20000000000000000000878401526108818151809289603787019101611275565b82017f222c20226465736372697074696f6e223a20225573616765207269676874732060378201527f4e465420666f7220706174656e74222c2022696d616765223a2022000000000060578201526108e28251809389607285019101611275565b0161227d60f01b6072820152036054810184520182611356565b604051606081019181831067ffffffffffffffff8411176105655761097292604052604082527f4142434445464748494a4b4c4d4e4f505152535455565758595a616263646566848301527f6768696a6b6c6d6e6f707172737475767778797a303132333435363738392b2f6040830152611928565b906109c4603d60405180947f646174613a6170706c69636174696f6e2f6a736f6e3b6261736536342c000000858301526109b481518092878686019101611275565b810103601d810185520183611356565b6107ad604051928284938452830190611298565b346101aa5760203660031901126101aa576001600160a01b036109f96112bd565b1660005260096020526020604060002054604051908152f35b346101aa5760003660031901126101aa576020604051683635c9adc5dea000008152f35b346101aa5760803660031901126101aa57610a4f6112bd565b610a576112d3565b6064359167ffffffffffffffff83116101aa57366023840112156101aa57610a8c610a96933690602481600401359101611394565b916044359161167e565b005b346101aa5760403660031901126101aa57610ab16112bd565b602435908115158092036101aa576001600160a01b0316908115610b2457336000526005602052604060002082600052602052604060002060ff1981541660ff83161790556040519081527f17307eab39ab6107e8899845ad3d59bd9653f200f220920489ca2b5937696c3160203392a3005b604051630b61174360e31b815260048101839052602490fd5b346101aa5760003660031901126101aa5760405160006001805490610b61826113cb565b80855291818116908115610bf55750600114610b9c575b6107ad84610b8881860382611356565b604051918291602083526020830190611298565b600081815292507fb10e2d527612073b26eecdfd717e6a320cf44b4afac2b0732d9fcbe2b7fa0cf65b828410610bdd575050508101602001610b8882610b78565b80546020858701810191909152909301928101610bc5565b60ff191660208087019190915292151560051b85019092019250610b889150839050610b78565b346101aa5760003660031901126101aa576007546040516001600160a01b039091168152602090f35b346101aa5760003660031901126101aa57610c5e6114c9565b600780546001600160a01b031981169091556000906001600160a01b03167f8be0079c531659141344cd1fd0a4f28419497f9722a3daafe3b4186f6b6457e08280a3005b346101aa5760203660031901126101aa576001600160a01b03610cc36112bd565b168015610ce25760005260036020526020604060002054604051908152f35b6040516322718ad960e21b815260006004820152602490fd5b346101aa5760203660031901126101aa57600435600081815260026020526040902054610d32906001600160a01b031615156118e5565b6000526008602052602060018060a01b0360016040600020015416604051908152f35b346101aa5760203660031901126101aa576020610d736004356117d1565b6040516001600160a01b039091168152f35b346101aa5760003660031901126101aa576040517f00000000000000000000000000000000000000000000000000000000000000006001600160a01b03168152602090f35b346101aa57610a96610ddb366112e9565b9060405192610de98461133a565b6000845261167e565b346101aa576020806003193601126101aa5760043590610e10611879565b610e19826117d1565b6001600160a01b0392903390841603610ff257806000526008825260406000209260405193610e478561131e565b80548552610e7560038360018401541692868801938452610e6a60028201611405565b604089015201611405565b6060860152826000526002845281604060002054168360008215928315610fbf575b828252600288526040822080546001600160a01b03191690557fddf252ad1be2c89b69c2b068fc378daa952ba7f163c4a11628f55a4df523b3ef8280a4610fa6578051855160405163a9059cbb60e01b815233600482015260248101919091529085908290604490829060009088165af180156106dd57610f1f91600091610f895750611824565b8260005260088452610f4e600360406000206000815560006001820155610f486002820161189c565b0161189c565b51169251916040519283528201527f06cc7e90b4f2b554a9614b0caa84f909f3498c820ae47c731f490c28c07f7d3b60403392a36001600655005b610fa09150863d88116106d6576106c88183611356565b876102c6565b604051637e27328960e01b815260048101849052602490fd5b600083815260046020526040902080546001600160a01b0319169055808252600388526040822082198154019055610e97565b60405162461bcd60e51b81526004810183905260116024820152702737ba103a34329027232a1037bbb732b960791b6044820152606490fd5b346101aa57610a9661103c366112e9565b916114f5565b346101aa5760403660031901126101aa5761105b6112bd565b602435611067816117d1565b33151580611116575b806110e9575b6110d1576001600160a01b039283169282918491167f8c5be1e5ebec7d5bd14f71427d1e84f3dd0314c0f7b2291e5b200ac8c7c3b925600080a4600090815260046020526040902080546001600160a01b0319169091179055005b60405163a9fbf51f60e01b8152336004820152602490fd5b5060018060a01b038116600052600560205260406000203360005260205260ff6040600020541615611076565b506001600160a01b038116331415611070565b346101aa5760203660031901126101aa57600435611146816117d1565b506000526004602052602060018060a01b0360406000205416604051908152f35b346101aa5760003660031901126101aa5760405160008054611188816113cb565b80845290600190818116908115610bf557506001146111b1576107ad84610b8881860382611356565b600080805292507f290decd9548b62a8d60345a988386fc84ba6bc95484008f6362f93160ef3e5635b8284106111f2575050508101602001610b8882610b78565b805460208587018101919091529093019281016111da565b346101aa5760203660031901126101aa576004359063ffffffff60e01b82168092036101aa576020916380ac58cd60e01b8114908115611264575b8115611253575b5015158152f35b6301ffc9a760e01b1490508361124c565b635b5e139f60e01b81149150611245565b60005b8381106112885750506000910152565b8181015183820152602001611278565b906020916112b181518092818552858086019101611275565b601f01601f1916010190565b600435906001600160a01b03821682036101aa57565b602435906001600160a01b03821682036101aa57565b60609060031901126101aa576001600160a01b039060043582811681036101aa579160243590811681036101aa579060443590565b6080810190811067ffffffffffffffff82111761056557604052565b6020810190811067ffffffffffffffff82111761056557604052565b90601f8019910116810190811067ffffffffffffffff82111761056557604052565b67ffffffffffffffff811161056557601f01601f191660200190565b9291926113a082611378565b916113ae6040519384611356565b8294818452818301116101aa578281602093846000960137010152565b90600182811c921680156113fb575b60208310146113e557565b634e487b7160e01b600052602260045260246000fd5b91607f16916113da565b9060405191826000825492611419846113cb565b9081845260019485811690816000146114885750600114611445575b505061144392500383611356565b565b9093915060005260209081600020936000915b81831061147057505061144393508201013880611435565b85548884018501529485019487945091830191611458565b91505061144394506020925060ff191682840152151560051b8201013880611435565b9080601f830112156101aa578160206114c693359101611394565b90565b6007546001600160a01b031633036114dd57565b60405163118cdaa760e01b8152336004820152602490fd5b6001600160a01b03918216929091831561067f576000928284528260209560028752604096848888205416968791331515806115e5575b509060027fddf252ad1be2c89b69c2b068fc378daa952ba7f163c4a11628f55a4df523b3ef92846115b2575b858352600381528b8320805460010190558683525289812080546001600160a01b0319168517905580a416928383036115915750505050565b6064945051926364283d7b60e01b8452600484015260248301526044820152fd5b600087815260046020526040902080546001600160a01b0319169055848352600381528b83208054600019019055611558565b9193945091508061163d575b156116015785929187913861152c565b87868861161e576024915190637e27328960e01b82526004820152fd5b905163177e802f60e01b81523360048201526024810191909152604490fd5b503387148015611662575b806115f157508582526004815233858984205416146115f1565b5086825260058152878220338352815260ff8883205416611648565b6116898383836114f5565b813b611696575b50505050565b604051630a85bd0160e11b8082523360048301526001600160a01b039283166024830152604482019490945260806064820152602095929091169390929083906116e4906084830190611298565b039285816000958187895af184918161178d575b50611758575050503d600014611750573d61171281611378565b906117206040519283611356565b81528091843d92013e5b8051928361174b57604051633250574960e11b815260048101849052602490fd5b019050fd5b50606061172a565b919450915063ffffffff60e01b1603611775575038808080611690565b60249060405190633250574960e11b82526004820152fd5b9091508681813d83116117ca575b6117a58183611356565b810103126117c657516001600160e01b0319811681036117c65790386116f8565b8480fd5b503d61179b565b6000818152600260205260409020546001600160a01b03169081156117f4575090565b60249060405190637e27328960e01b82526004820152fd5b908160209103126101aa575180151581036101aa5790565b1561182b57565b60405162461bcd60e51b815260206004820152600f60248201526e151c985b9cd9995c8819985a5b1959608a1b6044820152606490fd5b81811061186d575050565b60008155600101611862565b60026006541461188a576002600655565b604051633ee5aeb560e01b8152600490fd5b6118a681546113cb565b90816118b0575050565b81601f600093116001146118c2575055565b9080839182526118e1601f60208420940160051c840160018501611862565b5555565b156118ec57565b60405162461bcd60e51b8152602060048201526014602482015273151bdad95b88191bd95cc81b9bdd08195e1a5cdd60621b6044820152606490fd5b805115611a2c5780516002918282018092116106985760039182900480841b94906001600160fe1b03811603610698579261197b61196586611378565b956119736040519788611356565b808752611378565b6020860190601f190136823793829183518401906020820192835194600085525b8381106119db5750505050525106806001146119c8576002146119bd575090565b603d90600019015390565b50603d9081600019820153600119015390565b87600491999293949901918251600190603f9082828260121c16880101518453828282600c1c16880101518385015382828260061c168801015188850153168501015189820153019792919061199c565b5050604051611a3a8161133a565b600081529056fea2646970667358221220ab44acc36fed2e7e3dd7ba4d648ffa136c8498b3d9472ab870853e8d4bf452d564736f6c63430008140033","opcodes":"PUSH1 0xA0 CALLVALUE PUSH3 0x41A JUMPI PUSH1 0x1F NOT SWAP1 PUSH1 0x1F SWAP1 PUSH1 0x1 PUSH1 0x1 PUSH1 0x40 SHL SUB PUSH3 0x1EB7 CODESIZE DUP2 SWAP1 SUB DUP5 DUP2 ADD DUP7 AND DUP5 ADD DUP4 DUP2 GT DUP6 DUP3 LT OR PUSH3 0x404 JUMPI DUP5 SWAP3 DUP3 SWAP2 PUSH1 0x40 MSTORE DUP4 CODECOPY PUSH1 0x20 SWAP4 DUP5 SWAP2 DUP2 ADD SUB SLT PUSH3 0x41A JUMPI MLOAD SWAP4 PUSH1 0x1 PUSH1 0x1 PUSH1 0xA0 SHL SUB SWAP4 DUP5 DUP7 AND SWAP3 DUP4 DUP8 SUB PUSH3 0x41A JUMPI PUSH3 0x69 PUSH3 0x41F JUMP JUMPDEST SWAP2 PUSH1 0x13 DUP4 MSTORE PUSH32 0x506174656E742055736167652052696768747300000000000000000000000000 DUP7 DUP5 ADD MSTORE PUSH3 0x9D PUSH3 0x41F JUMP JUMPDEST PUSH1 0x3 DUP2 MSTORE PUSH3 0x282AA9 PUSH1 0xE9 SHL DUP8 DUP3 ADD MSTORE DUP4 MLOAD SWAP5 DUP4 DUP7 GT PUSH3 0x404 JUMPI PUSH1 0x0 SWAP6 DUP7 SLOAD SWAP6 PUSH1 0x1 SWAP7 DUP8 DUP2 DUP2 SHR SWAP2 AND DUP1 ISZERO PUSH3 0x3F9 JUMPI JUMPDEST DUP12 DUP3 LT EQ PUSH3 0x3E5 JUMPI SWAP1 DUP2 DUP7 DUP5 SWAP4 GT PUSH3 0x392 JUMPI JUMPDEST POP DUP11 SWAP1 DUP7 DUP4 GT PUSH1 0x1 EQ PUSH3 0x32F JUMPI DUP10 SWAP3 PUSH3 0x323 JUMPI JUMPDEST POP POP PUSH1 0x0 NOT PUSH1 0x3 DUP4 SWAP1 SHL SHR NOT AND SWAP1 DUP7 SHL OR DUP7 SSTORE JUMPDEST DUP2 MLOAD SWAP4 DUP5 GT PUSH3 0x30F JUMPI DUP5 SLOAD DUP6 DUP2 DUP2 SHR SWAP2 AND DUP1 ISZERO PUSH3 0x304 JUMPI JUMPDEST DUP10 DUP3 LT EQ PUSH3 0x2F0 JUMPI SWAP1 DUP2 DUP5 DUP7 SWAP6 SWAP5 SWAP4 GT PUSH3 0x299 JUMPI JUMPDEST POP DUP9 SWAP3 DUP5 GT PUSH1 0x1 EQ PUSH3 0x238 JUMPI POP DUP6 SWAP3 PUSH3 0x22C JUMPI JUMPDEST POP POP PUSH1 0x0 NOT PUSH1 0x3 DUP4 SWAP1 SHL SHR NOT AND SWAP1 DUP3 SHL OR DUP2 SSTORE JUMPDEST PUSH1 0x6 SSTORE CALLER ISZERO PUSH3 0x214 JUMPI PUSH1 0x7 SLOAD SWAP1 CALLER PUSH1 0x1 DUP1 PUSH1 0xA0 SHL SUB NOT DUP4 AND OR PUSH1 0x7 SSTORE PUSH32 0x8BE0079C531659141344CD1FD0A4F28419497F9722A3DAAFE3B4186F6B6457E0 PUSH1 0x40 MLOAD SWAP6 CALLER SWAP4 AND SWAP2 DUP1 LOG3 ISZERO PUSH3 0x1D3 JUMPI DUP3 PUSH1 0x80 MSTORE PUSH1 0x40 MLOAD PUSH2 0x1A77 SWAP1 DUP2 PUSH3 0x440 DUP3 CODECOPY PUSH1 0x80 MLOAD DUP2 PUSH2 0xD9B ADD MSTORE RETURN JUMPDEST PUSH3 0x461BCD PUSH1 0xE5 SHL DUP3 MSTORE PUSH1 0x4 DUP3 ADD MSTORE PUSH1 0x17 PUSH1 0x24 DUP3 ADD MSTORE PUSH32 0x496E76616C696420666163746F72792061646472657373000000000000000000 PUSH1 0x44 DUP3 ADD MSTORE PUSH1 0x64 SWAP2 POP REVERT JUMPDEST PUSH1 0x24 SWAP1 PUSH1 0x40 MLOAD SWAP1 PUSH4 0x1E4FBDF7 PUSH1 0xE0 SHL DUP3 MSTORE PUSH1 0x4 DUP3 ADD MSTORE REVERT JUMPDEST ADD MLOAD SWAP1 POP CODESIZE DUP1 PUSH3 0x154 JUMP JUMPDEST DUP6 DUP8 MSTORE DUP9 DUP8 KECCAK256 DUP7 SWAP6 SWAP1 SWAP4 SWAP3 SWAP2 AND DUP8 JUMPDEST DUP11 DUP3 DUP3 LT PUSH3 0x282 JUMPI POP POP DUP5 GT PUSH3 0x268 JUMPI JUMPDEST POP POP POP DUP2 SHL ADD DUP2 SSTORE PUSH3 0x168 JUMP JUMPDEST ADD MLOAD PUSH1 0x0 NOT PUSH1 0xF8 DUP5 PUSH1 0x3 SHL AND SHR NOT AND SWAP1 SSTORE CODESIZE DUP1 DUP1 PUSH3 0x25A JUMP JUMPDEST DUP4 DUP6 ADD MLOAD DUP7 SSTORE DUP9 SWAP8 SWAP1 SWAP6 ADD SWAP5 SWAP4 DUP5 ADD SWAP4 ADD PUSH3 0x247 JUMP JUMPDEST SWAP1 SWAP2 SWAP3 SWAP4 POP DUP6 DUP8 MSTORE DUP9 DUP8 KECCAK256 DUP5 DUP1 DUP8 ADD PUSH1 0x5 SHR DUP3 ADD SWAP3 DUP12 DUP9 LT PUSH3 0x2E6 JUMPI JUMPDEST SWAP2 DUP8 SWAP7 DUP10 SWAP3 SWAP7 SWAP6 SWAP5 SWAP4 ADD PUSH1 0x5 SHR ADD SWAP2 JUMPDEST DUP3 DUP2 LT PUSH3 0x2D7 JUMPI POP POP PUSH3 0x13E JUMP JUMPDEST DUP10 DUP2 SSTORE DUP8 SWAP7 POP DUP9 SWAP2 ADD PUSH3 0x2C7 JUMP JUMPDEST SWAP3 POP DUP2 SWAP3 PUSH3 0x2B7 JUMP JUMPDEST PUSH4 0x4E487B71 PUSH1 0xE0 SHL DUP8 MSTORE PUSH1 0x22 PUSH1 0x4 MSTORE PUSH1 0x24 DUP8 REVERT JUMPDEST SWAP1 PUSH1 0x7F AND SWAP1 PUSH3 0x127 JUMP JUMPDEST PUSH4 0x4E487B71 PUSH1 0xE0 SHL DUP7 MSTORE PUSH1 0x41 PUSH1 0x4 MSTORE PUSH1 0x24 DUP7 REVERT JUMPDEST ADD MLOAD SWAP1 POP CODESIZE DUP1 PUSH3 0xF9 JUMP JUMPDEST SWAP1 DUP5 DUP10 SWAP5 AND SWAP2 DUP11 DUP1 MSTORE DUP13 DUP12 KECCAK256 SWAP3 DUP14 DUP13 SWAP1 JUMPDEST DUP3 DUP3 LT PUSH3 0x37A JUMPI POP POP DUP5 GT PUSH3 0x360 JUMPI JUMPDEST POP POP POP DUP2 SHL ADD DUP7 SSTORE PUSH3 0x10D JUMP JUMPDEST ADD MLOAD PUSH1 0x0 NOT PUSH1 0xF8 DUP5 PUSH1 0x3 SHL AND SHR NOT AND SWAP1 SSTORE CODESIZE DUP1 DUP1 PUSH3 0x352 JUMP JUMPDEST DUP4 DUP6 ADD MLOAD DUP7 SSTORE DUP13 SWAP8 SWAP1 SWAP6 ADD SWAP5 SWAP4 DUP5 ADD SWAP4 ADD DUP15 PUSH3 0x340 JUMP JUMPDEST SWAP1 SWAP2 POP DUP9 DUP1 MSTORE DUP11 DUP10 KECCAK256 DUP7 DUP1 DUP6 ADD PUSH1 0x5 SHR DUP3 ADD SWAP3 DUP14 DUP7 LT PUSH3 0x3DB JUMPI JUMPDEST SWAP2 DUP11 SWAP2 DUP7 SWAP6 SWAP5 SWAP4 ADD PUSH1 0x5 SHR ADD SWAP2 JUMPDEST DUP3 DUP2 LT PUSH3 0x3CC JUMPI POP POP PUSH3 0xE3 JUMP JUMPDEST DUP12 DUP2 SSTORE DUP6 SWAP5 POP DUP11 SWAP2 ADD PUSH3 0x3BC JUMP JUMPDEST SWAP3 POP DUP2 SWAP3 PUSH3 0x3AE JUMP JUMPDEST PUSH4 0x4E487B71 PUSH1 0xE0 SHL DUP10 MSTORE PUSH1 0x22 PUSH1 0x4 MSTORE PUSH1 0x24 DUP10 REVERT JUMPDEST SWAP1 PUSH1 0x7F AND SWAP1 PUSH3 0xCE JUMP JUMPDEST PUSH4 0x4E487B71 PUSH1 0xE0 SHL PUSH1 0x0 MSTORE PUSH1 0x41 PUSH1 0x4 MSTORE PUSH1 0x24 PUSH1 0x0 REVERT JUMPDEST PUSH1 0x0 DUP1 REVERT JUMPDEST PUSH1 0x40 DUP1 MLOAD SWAP2 SWAP1 DUP3 ADD PUSH1 0x1 PUSH1 0x1 PUSH1 0x40 SHL SUB DUP2 GT DUP4 DUP3 LT OR PUSH3 0x404 JUMPI PUSH1 0x40 MSTORE JUMP INVALID PUSH1 0x80 DUP1 PUSH1 0x40 MSTORE PUSH1 0x4 CALLDATASIZE LT ISZERO PUSH2 0x13 JUMPI PUSH1 0x0 DUP1 REVERT JUMPDEST PUSH1 0x0 CALLDATALOAD PUSH1 0xE0 SHR SWAP1 DUP2 PUSH4 0x1FFC9A7 EQ PUSH2 0x120A JUMPI POP DUP1 PUSH4 0x6FDDE03 EQ PUSH2 0x1167 JUMPI DUP1 PUSH4 0x81812FC EQ PUSH2 0x1129 JUMPI DUP1 PUSH4 0x95EA7B3 EQ PUSH2 0x1042 JUMPI DUP1 PUSH4 0x23B872DD EQ PUSH2 0x102B JUMPI DUP1 PUSH4 0x2E17DE78 EQ PUSH2 0xDF2 JUMPI DUP1 PUSH4 0x42842E0E EQ PUSH2 0xDCA JUMPI DUP1 PUSH4 0x58722A07 EQ PUSH2 0xD85 JUMPI DUP1 PUSH4 0x6352211E EQ PUSH2 0xD55 JUMPI DUP1 PUSH4 0x68EE9D6D EQ PUSH2 0xCFB JUMPI DUP1 PUSH4 0x70A08231 EQ PUSH2 0xCA2 JUMPI DUP1 PUSH4 0x715018A6 EQ PUSH2 0xC45 JUMPI DUP1 PUSH4 0x8DA5CB5B EQ PUSH2 0xC1C JUMPI DUP1 PUSH4 0x95D89B41 EQ PUSH2 0xB3D JUMPI DUP1 PUSH4 0xA22CB465 EQ PUSH2 0xA98 JUMPI DUP1 PUSH4 0xB88D4FDE EQ PUSH2 0xA36 JUMPI DUP1 PUSH4 0xC118258B EQ PUSH2 0xA12 JUMPI DUP1 PUSH4 0xC852B1BF EQ PUSH2 0x9D8 JUMPI DUP1 PUSH4 0xC87B56DD EQ PUSH2 0x7B1 JUMPI DUP1 PUSH4 0xD5A44F86 EQ PUSH2 0x72E JUMPI DUP1 PUSH4 0xE8968162 EQ PUSH2 0x205 JUMPI DUP1 PUSH4 0xE985E9C5 EQ PUSH2 0x1AF JUMPI PUSH4 0xF2FDE38B EQ PUSH2 0x11C JUMPI PUSH1 0x0 DUP1 REVERT JUMPDEST CALLVALUE PUSH2 0x1AA JUMPI PUSH1 0x20 CALLDATASIZE PUSH1 0x3 NOT ADD SLT PUSH2 0x1AA JUMPI PUSH2 0x135 PUSH2 0x12BD JUMP JUMPDEST PUSH2 0x13D PUSH2 0x14C9 JUMP JUMPDEST PUSH1 0x1 PUSH1 0x1 PUSH1 0xA0 SHL SUB SWAP1 DUP2 AND SWAP1 DUP2 ISZERO PUSH2 0x191 JUMPI PUSH1 0x7 SLOAD DUP3 PUSH12 0xFFFFFFFFFFFFFFFFFFFFFFFF PUSH1 0xA0 SHL DUP3 AND OR PUSH1 0x7 SSTORE AND PUSH32 0x8BE0079C531659141344CD1FD0A4F28419497F9722A3DAAFE3B4186F6B6457E0 PUSH1 0x0 DUP1 LOG3 STOP JUMPDEST PUSH1 0x40 MLOAD PUSH4 0x1E4FBDF7 PUSH1 0xE0 SHL DUP2 MSTORE PUSH1 0x0 PUSH1 0x4 DUP3 ADD MSTORE PUSH1 0x24 SWAP1 REVERT JUMPDEST PUSH1 0x0 DUP1 REVERT JUMPDEST CALLVALUE PUSH2 0x1AA JUMPI PUSH1 0x40 CALLDATASIZE PUSH1 0x3 NOT ADD SLT PUSH2 0x1AA JUMPI PUSH2 0x1C8 PUSH2 0x12BD JUMP JUMPDEST PUSH2 0x1D0 PUSH2 0x12D3 JUMP JUMPDEST SWAP1 PUSH1 0x1 DUP1 PUSH1 0xA0 SHL SUB DUP1 SWAP2 AND PUSH1 0x0 MSTORE PUSH1 0x5 PUSH1 0x20 MSTORE PUSH1 0x40 PUSH1 0x0 KECCAK256 SWAP2 AND PUSH1 0x0 MSTORE PUSH1 0x20 MSTORE PUSH1 0x20 PUSH1 0xFF PUSH1 0x40 PUSH1 0x0 KECCAK256 SLOAD AND PUSH1 0x40 MLOAD SWAP1 ISZERO ISZERO DUP2 MSTORE RETURN JUMPDEST CALLVALUE PUSH2 0x1AA JUMPI PUSH1 0x80 CALLDATASIZE PUSH1 0x3 NOT ADD SLT PUSH2 0x1AA JUMPI PUSH2 0x21E PUSH2 0x12BD JUMP JUMPDEST PUSH1 0x44 CALLDATALOAD PUSH8 0xFFFFFFFFFFFFFFFF DUP2 GT PUSH2 0x1AA JUMPI PUSH2 0x23E SWAP1 CALLDATASIZE SWAP1 PUSH1 0x4 ADD PUSH2 0x14AB JUMP JUMPDEST SWAP1 PUSH1 0x64 CALLDATALOAD PUSH8 0xFFFFFFFFFFFFFFFF DUP2 GT PUSH2 0x1AA JUMPI PUSH2 0x25F SWAP1 CALLDATASIZE SWAP1 PUSH1 0x4 ADD PUSH2 0x14AB JUMP JUMPDEST SWAP1 PUSH2 0x268 PUSH2 0x1879 JUMP JUMPDEST PUSH9 0x3635C9ADC5DEA00000 PUSH1 0x24 CALLDATALOAD LT PUSH2 0x6E9 JUMPI PUSH1 0x40 MLOAD PUSH4 0x23B872DD PUSH1 0xE0 SHL DUP2 MSTORE CALLER PUSH1 0x4 DUP3 ADD MSTORE ADDRESS PUSH1 0x24 DUP1 DUP4 ADD SWAP2 SWAP1 SWAP2 MSTORE CALLDATALOAD PUSH1 0x44 DUP3 ADD MSTORE PUSH1 0x1 PUSH1 0x1 PUSH1 0xA0 SHL SUB SWAP3 SWAP1 PUSH1 0x20 DUP2 PUSH1 0x64 DUP2 PUSH1 0x0 DUP8 DUP10 AND GAS CALL DUP1 ISZERO PUSH2 0x6DD JUMPI PUSH2 0x2CC SWAP2 PUSH1 0x0 SWAP2 PUSH2 0x6AE JUMPI JUMPDEST POP PUSH2 0x1824 JUMP JUMPDEST DUP3 DUP3 AND PUSH1 0x0 MSTORE PUSH1 0x9 PUSH1 0x20 MSTORE PUSH1 0x40 PUSH1 0x0 KECCAK256 SWAP4 DUP5 SLOAD SWAP5 PUSH1 0x0 NOT DUP7 EQ PUSH2 0x698 JUMPI PUSH1 0x1 DUP7 ADD SWAP1 SSTORE CALLER ISZERO PUSH2 0x67F JUMPI DUP5 PUSH1 0x0 MSTORE PUSH1 0x2 PUSH1 0x20 MSTORE DUP4 PUSH1 0x40 PUSH1 0x0 KECCAK256 SLOAD AND SWAP1 DUP2 ISZERO ISZERO DUP1 PUSH2 0x648 JUMPI JUMPDEST CALLER PUSH1 0x0 MSTORE PUSH1 0x3 PUSH1 0x20 MSTORE PUSH1 0x40 PUSH1 0x0 KECCAK256 PUSH1 0x1 DUP2 SLOAD ADD SWAP1 SSTORE DUP7 PUSH1 0x0 MSTORE PUSH1 0x2 PUSH1 0x20 MSTORE DUP7 PUSH1 0x40 PUSH1 0x0 KECCAK256 SWAP4 PUSH12 0xFFFFFFFFFFFFFFFFFFFFFFFF PUSH1 0xA0 SHL SWAP5 CALLER DUP7 DUP3 SLOAD AND OR SWAP1 SSTORE CALLER SWAP1 PUSH32 0xDDF252AD1BE2C89B69C2B068FC378DAA952BA7F163C4A11628F55A4DF523B3EF PUSH1 0x0 DUP1 LOG4 PUSH2 0x62F JUMPI PUSH1 0x40 MLOAD SWAP3 PUSH2 0x386 DUP5 PUSH2 0x131E JUMP JUMPDEST PUSH1 0x24 CALLDATALOAD DUP5 MSTORE PUSH1 0x20 DUP5 ADD SWAP1 DUP7 DUP7 AND DUP3 MSTORE PUSH1 0x40 DUP6 ADD SWAP3 DUP4 MSTORE PUSH1 0x60 DUP6 ADD MSTORE DUP7 PUSH1 0x0 MSTORE PUSH1 0x8 PUSH1 0x20 MSTORE PUSH1 0x40 PUSH1 0x0 KECCAK256 SWAP3 DUP5 MLOAD DUP5 SSTORE DUP7 PUSH1 0x1 DUP6 ADD SWAP3 MLOAD AND SWAP1 DUP3 SLOAD AND OR SWAP1 SSTORE MLOAD DUP1 MLOAD SWAP1 PUSH8 0xFFFFFFFFFFFFFFFF DUP3 GT PUSH2 0x565 JUMPI PUSH2 0x3E3 PUSH1 0x2 DUP5 ADD SLOAD PUSH2 0x13CB JUMP JUMPDEST PUSH1 0x1F DUP2 GT PUSH2 0x5FA JUMPI JUMPDEST POP PUSH1 0x20 SWAP1 PUSH1 0x1F DUP4 GT PUSH1 0x1 EQ PUSH2 0x586 JUMPI SWAP2 DUP1 PUSH1 0x60 SWAP5 SWAP3 PUSH1 0x3 SWAP5 PUSH1 0x0 SWAP3 PUSH2 0x57B JUMPI JUMPDEST POP POP DUP2 PUSH1 0x1 SHL SWAP2 PUSH1 0x0 NOT SWAP1 DUP6 SHL SHR NOT AND OR PUSH1 0x2 DUP3 ADD SSTORE JUMPDEST ADD SWAP2 ADD MLOAD DUP1 MLOAD SWAP1 PUSH8 0xFFFFFFFFFFFFFFFF DUP3 GT PUSH2 0x565 JUMPI DUP2 SWAP1 PUSH2 0x445 DUP5 SLOAD PUSH2 0x13CB JUMP JUMPDEST PUSH1 0x1F DUP2 GT PUSH2 0x528 JUMPI JUMPDEST POP PUSH1 0x20 SWAP1 PUSH1 0x1F DUP4 GT PUSH1 0x1 EQ PUSH2 0x4C2 JUMPI PUSH1 0x0 SWAP3 PUSH2 0x4B7 JUMPI JUMPDEST POP POP DUP2 PUSH1 0x1 SHL SWAP2 PUSH1 0x0 NOT SWAP1 PUSH1 0x3 SHL SHR NOT AND OR SWAP1 SSTORE JUMPDEST PUSH1 0x40 MLOAD SWAP3 PUSH1 0x24 CALLDATALOAD DUP5 MSTORE PUSH1 0x20 DUP5 ADD MSTORE AND SWAP1 PUSH32 0x6C86F3FD5118B3AA8BB4F389A617046DE0A3D3D477DE1A1673D227F802F616DC PUSH1 0x40 CALLER SWAP3 LOG3 PUSH1 0x1 PUSH1 0x6 SSTORE STOP JUMPDEST ADD MLOAD SWAP1 POP DUP7 DUP1 PUSH2 0x465 JUMP JUMPDEST PUSH1 0x0 DUP6 DUP2 MSTORE PUSH1 0x20 DUP2 KECCAK256 SWAP4 POP PUSH1 0x1F NOT DUP6 AND SWAP1 JUMPDEST DUP2 DUP2 LT PUSH2 0x510 JUMPI POP SWAP1 DUP5 PUSH1 0x1 SWAP6 SWAP5 SWAP4 SWAP3 LT PUSH2 0x4F7 JUMPI JUMPDEST POP POP POP DUP2 SHL ADD SWAP1 SSTORE PUSH2 0x47A JUMP JUMPDEST ADD MLOAD PUSH1 0x0 NOT PUSH1 0xF8 DUP5 PUSH1 0x3 SHL AND SHR NOT AND SWAP1 SSTORE DUP7 DUP1 DUP1 PUSH2 0x4EA JUMP JUMPDEST SWAP3 SWAP4 PUSH1 0x20 PUSH1 0x1 DUP2 SWAP3 DUP8 DUP7 ADD MLOAD DUP2 SSTORE ADD SWAP6 ADD SWAP4 ADD PUSH2 0x4D4 JUMP JUMPDEST PUSH2 0x555 SWAP1 DUP6 PUSH1 0x0 MSTORE PUSH1 0x20 PUSH1 0x0 KECCAK256 PUSH1 0x1F DUP6 ADD PUSH1 0x5 SHR DUP2 ADD SWAP2 PUSH1 0x20 DUP7 LT PUSH2 0x55B JUMPI JUMPDEST PUSH1 0x1F ADD PUSH1 0x5 SHR ADD SWAP1 PUSH2 0x1862 JUMP JUMPDEST DUP8 PUSH2 0x44E JUMP JUMPDEST SWAP1 SWAP2 POP DUP2 SWAP1 PUSH2 0x548 JUMP JUMPDEST PUSH4 0x4E487B71 PUSH1 0xE0 SHL PUSH1 0x0 MSTORE PUSH1 0x41 PUSH1 0x4 MSTORE PUSH1 0x24 PUSH1 0x0 REVERT JUMPDEST ADD MLOAD SWAP1 POP DUP10 DUP1 PUSH2 0x40C JUMP JUMPDEST SWAP1 PUSH1 0x2 DUP5 ADD PUSH1 0x0 MSTORE PUSH1 0x20 PUSH1 0x0 KECCAK256 SWAP2 PUSH1 0x0 JUMPDEST PUSH1 0x1F NOT DUP6 AND DUP2 LT PUSH2 0x5E2 JUMPI POP SWAP3 PUSH1 0x60 SWAP5 SWAP3 PUSH1 0x1 SWAP3 PUSH1 0x3 SWAP6 DUP4 PUSH1 0x1F NOT DUP2 AND LT PUSH2 0x5CA JUMPI JUMPDEST POP POP POP DUP2 SHL ADD PUSH1 0x2 DUP3 ADD SSTORE PUSH2 0x423 JUMP JUMPDEST ADD MLOAD PUSH1 0x0 NOT DUP4 DUP8 SHL PUSH1 0xF8 AND SHR NOT AND SWAP1 SSTORE DUP10 DUP1 DUP1 PUSH2 0x5BA JUMP JUMPDEST SWAP2 SWAP3 PUSH1 0x20 PUSH1 0x1 DUP2 SWAP3 DUP7 DUP6 ADD MLOAD DUP2 SSTORE ADD SWAP5 ADD SWAP3 ADD PUSH2 0x597 JUMP JUMPDEST PUSH2 0x629 SWAP1 PUSH1 0x2 DUP6 ADD PUSH1 0x0 MSTORE PUSH1 0x20 PUSH1 0x0 KECCAK256 PUSH1 0x1F DUP6 ADD PUSH1 0x5 SHR DUP2 ADD SWAP2 PUSH1 0x20 DUP7 LT PUSH2 0x55B JUMPI PUSH1 0x1F ADD PUSH1 0x5 SHR ADD SWAP1 PUSH2 0x1862 JUMP JUMPDEST DUP8 PUSH2 0x3EC JUMP JUMPDEST PUSH1 0x40 MLOAD PUSH4 0x39E35637 PUSH1 0xE1 SHL DUP2 MSTORE PUSH1 0x0 PUSH1 0x4 DUP3 ADD MSTORE PUSH1 0x24 SWAP1 REVERT JUMPDEST PUSH1 0x0 DUP8 DUP2 MSTORE PUSH1 0x4 PUSH1 0x20 MSTORE PUSH1 0x40 SWAP1 KECCAK256 DUP1 SLOAD PUSH1 0x1 PUSH1 0x1 PUSH1 0xA0 SHL SUB NOT AND SWAP1 SSTORE DUP3 PUSH1 0x0 MSTORE PUSH1 0x3 PUSH1 0x20 MSTORE PUSH1 0x40 PUSH1 0x0 KECCAK256 PUSH1 0x0 NOT DUP2 SLOAD ADD SWAP1 SSTORE PUSH2 0x310 JUMP JUMPDEST PUSH1 0x40 MLOAD PUSH4 0x32505749 PUSH1 0xE1 SHL DUP2 MSTORE PUSH1 0x0 PUSH1 0x4 DUP3 ADD MSTORE PUSH1 0x24 SWAP1 REVERT JUMPDEST PUSH4 0x4E487B71 PUSH1 0xE0 SHL PUSH1 0x0 MSTORE PUSH1 0x11 PUSH1 0x4 MSTORE PUSH1 0x24 PUSH1 0x0 REVERT JUMPDEST PUSH2 0x6D0 SWAP2 POP PUSH1 0x20 RETURNDATASIZE PUSH1 0x20 GT PUSH2 0x6D6 JUMPI JUMPDEST PUSH2 0x6C8 DUP2 DUP4 PUSH2 0x1356 JUMP JUMPDEST DUP2 ADD SWAP1 PUSH2 0x180C JUMP JUMPDEST DUP7 PUSH2 0x2C6 JUMP JUMPDEST POP RETURNDATASIZE PUSH2 0x6BE JUMP JUMPDEST PUSH1 0x40 MLOAD RETURNDATASIZE PUSH1 0x0 DUP3 RETURNDATACOPY RETURNDATASIZE SWAP1 REVERT JUMPDEST PUSH1 0x40 MLOAD PUSH3 0x461BCD PUSH1 0xE5 SHL DUP2 MSTORE PUSH1 0x20 PUSH1 0x4 DUP3 ADD MSTORE PUSH1 0x1F PUSH1 0x24 DUP3 ADD MSTORE PUSH32 0x4D757374207374616B65206174206C65617374203130303020746F6B656E7300 PUSH1 0x44 DUP3 ADD MSTORE PUSH1 0x64 SWAP1 REVERT JUMPDEST CALLVALUE PUSH2 0x1AA JUMPI PUSH1 0x20 CALLDATASIZE PUSH1 0x3 NOT ADD SLT PUSH2 0x1AA JUMPI PUSH1 0x4 CALLDATALOAD PUSH1 0x0 SWAP1 DUP2 MSTORE PUSH1 0x8 PUSH1 0x20 MSTORE PUSH1 0x40 SWAP1 KECCAK256 DUP1 SLOAD PUSH1 0x1 DUP3 ADD SLOAD PUSH1 0x1 PUSH1 0x1 PUSH1 0xA0 SHL SUB AND SWAP2 PUSH2 0x7AD SWAP1 PUSH2 0x79F PUSH2 0x780 PUSH1 0x3 PUSH2 0x779 PUSH1 0x2 DUP6 ADD PUSH2 0x1405 JUMP JUMPDEST SWAP4 ADD PUSH2 0x1405 JUMP JUMPDEST SWAP2 PUSH1 0x40 MLOAD SWAP6 DUP7 SWAP6 DUP7 MSTORE PUSH1 0x20 DUP7 ADD MSTORE PUSH1 0x80 PUSH1 0x40 DUP7 ADD MSTORE PUSH1 0x80 DUP6 ADD SWAP1 PUSH2 0x1298 JUMP JUMPDEST SWAP1 DUP4 DUP3 SUB PUSH1 0x60 DUP6 ADD MSTORE PUSH2 0x1298 JUMP JUMPDEST SUB SWAP1 RETURN JUMPDEST CALLVALUE PUSH2 0x1AA JUMPI PUSH1 0x20 DUP1 PUSH1 0x3 NOT CALLDATASIZE ADD SLT PUSH2 0x1AA JUMPI PUSH1 0x4 CALLDATALOAD PUSH1 0x0 DUP2 DUP2 MSTORE PUSH1 0x2 PUSH1 0x20 MSTORE PUSH1 0x40 SWAP1 KECCAK256 SLOAD PUSH2 0x7E9 SWAP1 PUSH1 0x1 PUSH1 0x1 PUSH1 0xA0 SHL SUB AND ISZERO ISZERO PUSH2 0x18E5 JUMP JUMPDEST PUSH1 0x0 MSTORE PUSH1 0x8 DUP2 MSTORE PUSH1 0x60 PUSH2 0x8FC PUSH1 0x74 PUSH1 0x40 PUSH1 0x0 KECCAK256 PUSH1 0x40 MLOAD PUSH2 0x808 DUP2 PUSH2 0x131E JUMP JUMPDEST DUP2 SLOAD DUP2 MSTORE PUSH1 0x1 DUP3 ADD SLOAD PUSH1 0x1 PUSH1 0x1 PUSH1 0xA0 SHL SUB AND DUP7 DUP3 ADD MSTORE PUSH2 0x83D PUSH1 0x3 PUSH2 0x82F PUSH1 0x2 DUP6 ADD PUSH2 0x1405 JUMP JUMPDEST SWAP4 PUSH1 0x40 DUP5 ADD SWAP5 DUP6 MSTORE ADD PUSH2 0x1405 JUMP JUMPDEST SWAP5 DUP6 SWAP2 ADD MSTORE MLOAD PUSH1 0x40 MLOAD SWAP4 DUP5 SWAP2 PUSH32 0x7B226E616D65223A2022506174656E74204E4654202D20000000000000000000 DUP8 DUP5 ADD MSTORE PUSH2 0x881 DUP2 MLOAD DUP1 SWAP3 DUP10 PUSH1 0x37 DUP8 ADD SWAP2 ADD PUSH2 0x1275 JUMP JUMPDEST DUP3 ADD PUSH32 0x222C20226465736372697074696F6E223A202255736167652072696768747320 PUSH1 0x37 DUP3 ADD MSTORE PUSH32 0x4E465420666F7220706174656E74222C2022696D616765223A20220000000000 PUSH1 0x57 DUP3 ADD MSTORE PUSH2 0x8E2 DUP3 MLOAD DUP1 SWAP4 DUP10 PUSH1 0x72 DUP6 ADD SWAP2 ADD PUSH2 0x1275 JUMP JUMPDEST ADD PUSH2 0x227D PUSH1 0xF0 SHL PUSH1 0x72 DUP3 ADD MSTORE SUB PUSH1 0x54 DUP2 ADD DUP5 MSTORE ADD DUP3 PUSH2 0x1356 JUMP JUMPDEST PUSH1 0x40 MLOAD PUSH1 0x60 DUP2 ADD SWAP2 DUP2 DUP4 LT PUSH8 0xFFFFFFFFFFFFFFFF DUP5 GT OR PUSH2 0x565 JUMPI PUSH2 0x972 SWAP3 PUSH1 0x40 MSTORE PUSH1 0x40 DUP3 MSTORE PUSH32 0x4142434445464748494A4B4C4D4E4F505152535455565758595A616263646566 DUP5 DUP4 ADD MSTORE PUSH32 0x6768696A6B6C6D6E6F707172737475767778797A303132333435363738392B2F PUSH1 0x40 DUP4 ADD MSTORE PUSH2 0x1928 JUMP JUMPDEST SWAP1 PUSH2 0x9C4 PUSH1 0x3D PUSH1 0x40 MLOAD DUP1 SWAP5 PUSH32 0x646174613A6170706C69636174696F6E2F6A736F6E3B6261736536342C000000 DUP6 DUP4 ADD MSTORE PUSH2 0x9B4 DUP2 MLOAD DUP1 SWAP3 DUP8 DUP7 DUP7 ADD SWAP2 ADD PUSH2 0x1275 JUMP JUMPDEST DUP2 ADD SUB PUSH1 0x1D DUP2 ADD DUP6 MSTORE ADD DUP4 PUSH2 0x1356 JUMP JUMPDEST PUSH2 0x7AD PUSH1 0x40 MLOAD SWAP3 DUP3 DUP5 SWAP4 DUP5 MSTORE DUP4 ADD SWAP1 PUSH2 0x1298 JUMP JUMPDEST CALLVALUE PUSH2 0x1AA JUMPI PUSH1 0x20 CALLDATASIZE PUSH1 0x3 NOT ADD SLT PUSH2 0x1AA JUMPI PUSH1 0x1 PUSH1 0x1 PUSH1 0xA0 SHL SUB PUSH2 0x9F9 PUSH2 0x12BD JUMP JUMPDEST AND PUSH1 0x0 MSTORE PUSH1 0x9 PUSH1 0x20 MSTORE PUSH1 0x20 PUSH1 0x40 PUSH1 0x0 KECCAK256 SLOAD PUSH1 0x40 MLOAD SWAP1 DUP2 MSTORE RETURN JUMPDEST CALLVALUE PUSH2 0x1AA JUMPI PUSH1 0x0 CALLDATASIZE PUSH1 0x3 NOT ADD SLT PUSH2 0x1AA JUMPI PUSH1 0x20 PUSH1 0x40 MLOAD PUSH9 0x3635C9ADC5DEA00000 DUP2 MSTORE RETURN JUMPDEST CALLVALUE PUSH2 0x1AA JUMPI PUSH1 0x80 CALLDATASIZE PUSH1 0x3 NOT ADD SLT PUSH2 0x1AA JUMPI PUSH2 0xA4F PUSH2 0x12BD JUMP JUMPDEST PUSH2 0xA57 PUSH2 0x12D3 JUMP JUMPDEST PUSH1 0x64 CALLDATALOAD SWAP2 PUSH8 0xFFFFFFFFFFFFFFFF DUP4 GT PUSH2 0x1AA JUMPI CALLDATASIZE PUSH1 0x23 DUP5 ADD SLT ISZERO PUSH2 0x1AA JUMPI PUSH2 0xA8C PUSH2 0xA96 SWAP4 CALLDATASIZE SWAP1 PUSH1 0x24 DUP2 PUSH1 0x4 ADD CALLDATALOAD SWAP2 ADD PUSH2 0x1394 JUMP JUMPDEST SWAP2 PUSH1 0x44 CALLDATALOAD SWAP2 PUSH2 0x167E JUMP JUMPDEST STOP JUMPDEST CALLVALUE PUSH2 0x1AA JUMPI PUSH1 0x40 CALLDATASIZE PUSH1 0x3 NOT ADD SLT PUSH2 0x1AA JUMPI PUSH2 0xAB1 PUSH2 0x12BD JUMP JUMPDEST PUSH1 0x24 CALLDATALOAD SWAP1 DUP2 ISZERO ISZERO DUP1 SWAP3 SUB PUSH2 0x1AA JUMPI PUSH1 0x1 PUSH1 0x1 PUSH1 0xA0 SHL SUB AND SWAP1 DUP2 ISZERO PUSH2 0xB24 JUMPI CALLER PUSH1 0x0 MSTORE PUSH1 0x5 PUSH1 0x20 MSTORE PUSH1 0x40 PUSH1 0x0 KECCAK256 DUP3 PUSH1 0x0 MSTORE PUSH1 0x20 MSTORE PUSH1 0x40 PUSH1 0x0 KECCAK256 PUSH1 0xFF NOT DUP2 SLOAD AND PUSH1 0xFF DUP4 AND OR SWAP1 SSTORE PUSH1 0x40 MLOAD SWAP1 DUP2 MSTORE PUSH32 0x17307EAB39AB6107E8899845AD3D59BD9653F200F220920489CA2B5937696C31 PUSH1 0x20 CALLER SWAP3 LOG3 STOP JUMPDEST PUSH1 0x40 MLOAD PUSH4 0xB611743 PUSH1 0xE3 SHL DUP2 MSTORE PUSH1 0x4 DUP2 ADD DUP4 SWAP1 MSTORE PUSH1 0x24 SWAP1 REVERT JUMPDEST CALLVALUE PUSH2 0x1AA JUMPI PUSH1 0x0 CALLDATASIZE PUSH1 0x3 NOT ADD SLT PUSH2 0x1AA JUMPI PUSH1 0x40 MLOAD PUSH1 0x0 PUSH1 0x1 DUP1 SLOAD SWAP1 PUSH2 0xB61 DUP3 PUSH2 0x13CB JUMP JUMPDEST DUP1 DUP6 MSTORE SWAP2 DUP2 DUP2 AND SWAP1 DUP2 ISZERO PUSH2 0xBF5 JUMPI POP PUSH1 0x1 EQ PUSH2 0xB9C JUMPI JUMPDEST PUSH2 0x7AD DUP5 PUSH2 0xB88 DUP2 DUP7 SUB DUP3 PUSH2 0x1356 JUMP JUMPDEST PUSH1 0x40 MLOAD SWAP2 DUP3 SWAP2 PUSH1 0x20 DUP4 MSTORE PUSH1 0x20 DUP4 ADD SWAP1 PUSH2 0x1298 JUMP JUMPDEST PUSH1 0x0 DUP2 DUP2 MSTORE SWAP3 POP PUSH32 0xB10E2D527612073B26EECDFD717E6A320CF44B4AFAC2B0732D9FCBE2B7FA0CF6 JUMPDEST DUP3 DUP5 LT PUSH2 0xBDD JUMPI POP POP POP DUP2 ADD PUSH1 0x20 ADD PUSH2 0xB88 DUP3 PUSH2 0xB78 JUMP JUMPDEST DUP1 SLOAD PUSH1 0x20 DUP6 DUP8 ADD DUP2 ADD SWAP2 SWAP1 SWAP2 MSTORE SWAP1 SWAP4 ADD SWAP3 DUP2 ADD PUSH2 0xBC5 JUMP JUMPDEST PUSH1 0xFF NOT AND PUSH1 0x20 DUP1 DUP8 ADD SWAP2 SWAP1 SWAP2 MSTORE SWAP3 ISZERO ISZERO PUSH1 0x5 SHL DUP6 ADD SWAP1 SWAP3 ADD SWAP3 POP PUSH2 0xB88 SWAP2 POP DUP4 SWAP1 POP PUSH2 0xB78 JUMP JUMPDEST CALLVALUE PUSH2 0x1AA JUMPI PUSH1 0x0 CALLDATASIZE PUSH1 0x3 NOT ADD SLT PUSH2 0x1AA JUMPI PUSH1 0x7 SLOAD PUSH1 0x40 MLOAD PUSH1 0x1 PUSH1 0x1 PUSH1 0xA0 SHL SUB SWAP1 SWAP2 AND DUP2 MSTORE PUSH1 0x20 SWAP1 RETURN JUMPDEST CALLVALUE PUSH2 0x1AA JUMPI PUSH1 0x0 CALLDATASIZE PUSH1 0x3 NOT ADD SLT PUSH2 0x1AA JUMPI PUSH2 0xC5E PUSH2 0x14C9 JUMP JUMPDEST PUSH1 0x7 DUP1 SLOAD PUSH1 0x1 PUSH1 0x1 PUSH1 0xA0 SHL SUB NOT DUP2 AND SWAP1 SWAP2 SSTORE PUSH1 0x0 SWAP1 PUSH1 0x1 PUSH1 0x1 PUSH1 0xA0 SHL SUB AND PUSH32 0x8BE0079C531659141344CD1FD0A4F28419497F9722A3DAAFE3B4186F6B6457E0 DUP3 DUP1 LOG3 STOP JUMPDEST CALLVALUE PUSH2 0x1AA JUMPI PUSH1 0x20 CALLDATASIZE PUSH1 0x3 NOT ADD SLT PUSH2 0x1AA JUMPI PUSH1 0x1 PUSH1 0x1 PUSH1 0xA0 SHL SUB PUSH2 0xCC3 PUSH2 0x12BD JUMP JUMPDEST AND DUP1 ISZERO PUSH2 0xCE2 JUMPI PUSH1 0x0 MSTORE PUSH1 0x3 PUSH1 0x20 MSTORE PUSH1 0x20 PUSH1 0x40 PUSH1 0x0 KECCAK256 SLOAD PUSH1 0x40 MLOAD SWAP1 DUP2 MSTORE RETURN JUMPDEST PUSH1 0x40 MLOAD PUSH4 0x22718AD9 PUSH1 0xE2 SHL DUP2 MSTORE PUSH1 0x0 PUSH1 0x4 DUP3 ADD MSTORE PUSH1 0x24 SWAP1 REVERT JUMPDEST CALLVALUE PUSH2 0x1AA JUMPI PUSH1 0x20 CALLDATASIZE PUSH1 0x3 NOT ADD SLT PUSH2 0x1AA JUMPI PUSH1 0x4 CALLDATALOAD PUSH1 0x0 DUP2 DUP2 MSTORE PUSH1 0x2 PUSH1 0x20 MSTORE PUSH1 0x40 SWAP1 KECCAK256 SLOAD PUSH2 0xD32 SWAP1 PUSH1 0x1 PUSH1 0x1 PUSH1 0xA0 SHL SUB AND ISZERO ISZERO PUSH2 0x18E5 JUMP JUMPDEST PUSH1 0x0 MSTORE PUSH1 0x8 PUSH1 0x20 MSTORE PUSH1 0x20 PUSH1 0x1 DUP1 PUSH1 0xA0 SHL SUB PUSH1 0x1 PUSH1 0x40 PUSH1 0x0 KECCAK256 ADD SLOAD AND PUSH1 0x40 MLOAD SWAP1 DUP2 MSTORE RETURN JUMPDEST CALLVALUE PUSH2 0x1AA JUMPI PUSH1 0x20 CALLDATASIZE PUSH1 0x3 NOT ADD SLT PUSH2 0x1AA JUMPI PUSH1 0x20 PUSH2 0xD73 PUSH1 0x4 CALLDATALOAD PUSH2 0x17D1 JUMP JUMPDEST PUSH1 0x40 MLOAD PUSH1 0x1 PUSH1 0x1 PUSH1 0xA0 SHL SUB SWAP1 SWAP2 AND DUP2 MSTORE RETURN JUMPDEST CALLVALUE PUSH2 0x1AA JUMPI PUSH1 0x0 CALLDATASIZE PUSH1 0x3 NOT ADD SLT PUSH2 0x1AA JUMPI PUSH1 0x40 MLOAD PUSH32 0x0 PUSH1 0x1 PUSH1 0x1 PUSH1 0xA0 SHL SUB AND DUP2 MSTORE PUSH1 0x20 SWAP1 RETURN JUMPDEST CALLVALUE PUSH2 0x1AA JUMPI PUSH2 0xA96 PUSH2 0xDDB CALLDATASIZE PUSH2 0x12E9 JUMP JUMPDEST SWAP1 PUSH1 0x40 MLOAD SWAP3 PUSH2 0xDE9 DUP5 PUSH2 0x133A JUMP JUMPDEST PUSH1 0x0 DUP5 MSTORE PUSH2 0x167E JUMP JUMPDEST CALLVALUE PUSH2 0x1AA JUMPI PUSH1 0x20 DUP1 PUSH1 0x3 NOT CALLDATASIZE ADD SLT PUSH2 0x1AA JUMPI PUSH1 0x4 CALLDATALOAD SWAP1 PUSH2 0xE10 PUSH2 0x1879 JUMP JUMPDEST PUSH2 0xE19 DUP3 PUSH2 0x17D1 JUMP JUMPDEST PUSH1 0x1 PUSH1 0x1 PUSH1 0xA0 SHL SUB SWAP3 SWAP1 CALLER SWAP1 DUP5 AND SUB PUSH2 0xFF2 JUMPI DUP1 PUSH1 0x0 MSTORE PUSH1 0x8 DUP3 MSTORE PUSH1 0x40 PUSH1 0x0 KECCAK256 SWAP3 PUSH1 0x40 MLOAD SWAP4 PUSH2 0xE47 DUP6 PUSH2 0x131E JUMP JUMPDEST DUP1 SLOAD DUP6 MSTORE PUSH2 0xE75 PUSH1 0x3 DUP4 PUSH1 0x1 DUP5 ADD SLOAD AND SWAP3 DUP7 DUP9 ADD SWAP4 DUP5 MSTORE PUSH2 0xE6A PUSH1 0x2 DUP3 ADD PUSH2 0x1405 JUMP JUMPDEST PUSH1 0x40 DUP10 ADD MSTORE ADD PUSH2 0x1405 JUMP JUMPDEST PUSH1 0x60 DUP7 ADD MSTORE DUP3 PUSH1 0x0 MSTORE PUSH1 0x2 DUP5 MSTORE DUP2 PUSH1 0x40 PUSH1 0x0 KECCAK256 SLOAD AND DUP4 PUSH1 0x0 DUP3 ISZERO SWAP3 DUP4 ISZERO PUSH2 0xFBF JUMPI JUMPDEST DUP3 DUP3 MSTORE PUSH1 0x2 DUP9 MSTORE PUSH1 0x40 DUP3 KECCAK256 DUP1 SLOAD PUSH1 0x1 PUSH1 0x1 PUSH1 0xA0 SHL SUB NOT AND SWAP1 SSTORE PUSH32 0xDDF252AD1BE2C89B69C2B068FC378DAA952BA7F163C4A11628F55A4DF523B3EF DUP3 DUP1 LOG4 PUSH2 0xFA6 JUMPI DUP1 MLOAD DUP6 MLOAD PUSH1 0x40 MLOAD PUSH4 0xA9059CBB PUSH1 0xE0 SHL DUP2 MSTORE CALLER PUSH1 0x4 DUP3 ADD MSTORE PUSH1 0x24 DUP2 ADD SWAP2 SWAP1 SWAP2 MSTORE SWAP1 DUP6 SWAP1 DUP3 SWAP1 PUSH1 0x44 SWAP1 DUP3 SWAP1 PUSH1 0x0 SWAP1 DUP9 AND GAS CALL DUP1 ISZERO PUSH2 0x6DD JUMPI PUSH2 0xF1F SWAP2 PUSH1 0x0 SWAP2 PUSH2 0xF89 JUMPI POP PUSH2 0x1824 JUMP JUMPDEST DUP3 PUSH1 0x0 MSTORE PUSH1 0x8 DUP5 MSTORE PUSH2 0xF4E PUSH1 0x3 PUSH1 0x40 PUSH1 0x0 KECCAK256 PUSH1 0x0 DUP2 SSTORE PUSH1 0x0 PUSH1 0x1 DUP3 ADD SSTORE PUSH2 0xF48 PUSH1 0x2 DUP3 ADD PUSH2 0x189C JUMP JUMPDEST ADD PUSH2 0x189C JUMP JUMPDEST MLOAD AND SWAP3 MLOAD SWAP2 PUSH1 0x40 MLOAD SWAP3 DUP4 MSTORE DUP3 ADD MSTORE PUSH32 0x6CC7E90B4F2B554A9614B0CAA84F909F3498C820AE47C731F490C28C07F7D3B PUSH1 0x40 CALLER SWAP3 LOG3 PUSH1 0x1 PUSH1 0x6 SSTORE STOP JUMPDEST PUSH2 0xFA0 SWAP2 POP DUP7 RETURNDATASIZE DUP9 GT PUSH2 0x6D6 JUMPI PUSH2 0x6C8 DUP2 DUP4 PUSH2 0x1356 JUMP JUMPDEST DUP8 PUSH2 0x2C6 JUMP JUMPDEST PUSH1 0x40 MLOAD PUSH4 0x7E273289 PUSH1 0xE0 SHL DUP2 MSTORE PUSH1 0x4 DUP2 ADD DUP5 SWAP1 MSTORE PUSH1 0x24 SWAP1 REVERT JUMPDEST PUSH1 0x0 DUP4 DUP2 MSTORE PUSH1 0x4 PUSH1 0x20 MSTORE PUSH1 0x40 SWAP1 KECCAK256 DUP1 SLOAD PUSH1 0x1 PUSH1 0x1 PUSH1 0xA0 SHL SUB NOT AND SWAP1 SSTORE DUP1 DUP3 MSTORE PUSH1 0x3 DUP9 MSTORE PUSH1 0x40 DUP3 KECCAK256 DUP3 NOT DUP2 SLOAD ADD SWAP1 SSTORE PUSH2 0xE97 JUMP JUMPDEST PUSH1 0x40 MLOAD PUSH3 0x461BCD PUSH1 0xE5 SHL DUP2 MSTORE PUSH1 0x4 DUP2 ADD DUP4 SWAP1 MSTORE PUSH1 0x11 PUSH1 0x24 DUP3 ADD MSTORE PUSH17 0x2737BA103A34329027232A1037BBB732B9 PUSH1 0x79 SHL PUSH1 0x44 DUP3 ADD MSTORE PUSH1 0x64 SWAP1 REVERT JUMPDEST CALLVALUE PUSH2 0x1AA JUMPI PUSH2 0xA96 PUSH2 0x103C CALLDATASIZE PUSH2 0x12E9 JUMP JUMPDEST SWAP2 PUSH2 0x14F5 JUMP JUMPDEST CALLVALUE PUSH2 0x1AA JUMPI PUSH1 0x40 CALLDATASIZE PUSH1 0x3 NOT ADD SLT PUSH2 0x1AA JUMPI PUSH2 0x105B PUSH2 0x12BD JUMP JUMPDEST PUSH1 0x24 CALLDATALOAD PUSH2 0x1067 DUP2 PUSH2 0x17D1 JUMP JUMPDEST CALLER ISZERO ISZERO DUP1 PUSH2 0x1116 JUMPI JUMPDEST DUP1 PUSH2 0x10E9 JUMPI JUMPDEST PUSH2 0x10D1 JUMPI PUSH1 0x1 PUSH1 0x1 PUSH1 0xA0 SHL SUB SWAP3 DUP4 AND SWAP3 DUP3 SWAP2 DUP5 SWAP2 AND PUSH32 0x8C5BE1E5EBEC7D5BD14F71427D1E84F3DD0314C0F7B2291E5B200AC8C7C3B925 PUSH1 0x0 DUP1 LOG4 PUSH1 0x0 SWAP1 DUP2 MSTORE PUSH1 0x4 PUSH1 0x20 MSTORE PUSH1 0x40 SWAP1 KECCAK256 DUP1 SLOAD PUSH1 0x1 PUSH1 0x1 PUSH1 0xA0 SHL SUB NOT AND SWAP1 SWAP2 OR SWAP1 SSTORE STOP JUMPDEST PUSH1 0x40 MLOAD PUSH4 0xA9FBF51F PUSH1 0xE0 SHL DUP2 MSTORE CALLER PUSH1 0x4 DUP3 ADD MSTORE PUSH1 0x24 SWAP1 REVERT JUMPDEST POP PUSH1 0x1 DUP1 PUSH1 0xA0 SHL SUB DUP2 AND PUSH1 0x0 MSTORE PUSH1 0x5 PUSH1 0x20 MSTORE PUSH1 0x40 PUSH1 0x0 KECCAK256 CALLER PUSH1 0x0 MSTORE PUSH1 0x20 MSTORE PUSH1 0xFF PUSH1 0x40 PUSH1 0x0 KECCAK256 SLOAD AND ISZERO PUSH2 0x1076 JUMP JUMPDEST POP PUSH1 0x1 PUSH1 0x1 PUSH1 0xA0 SHL SUB DUP2 AND CALLER EQ ISZERO PUSH2 0x1070 JUMP JUMPDEST CALLVALUE PUSH2 0x1AA JUMPI PUSH1 0x20 CALLDATASIZE PUSH1 0x3 NOT ADD SLT PUSH2 0x1AA JUMPI PUSH1 0x4 CALLDATALOAD PUSH2 0x1146 DUP2 PUSH2 0x17D1 JUMP JUMPDEST POP PUSH1 0x0 MSTORE PUSH1 0x4 PUSH1 0x20 MSTORE PUSH1 0x20 PUSH1 0x1 DUP1 PUSH1 0xA0 SHL SUB PUSH1 0x40 PUSH1 0x0 KECCAK256 SLOAD AND PUSH1 0x40 MLOAD SWAP1 DUP2 MSTORE RETURN JUMPDEST CALLVALUE PUSH2 0x1AA JUMPI PUSH1 0x0 CALLDATASIZE PUSH1 0x3 NOT ADD SLT PUSH2 0x1AA JUMPI PUSH1 0x40 MLOAD PUSH1 0x0 DUP1 SLOAD PUSH2 0x1188 DUP2 PUSH2 0x13CB JUMP JUMPDEST DUP1 DUP5 MSTORE SWAP1 PUSH1 0x1 SWAP1 DUP2 DUP2 AND SWAP1 DUP2 ISZERO PUSH2 0xBF5 JUMPI POP PUSH1 0x1 EQ PUSH2 0x11B1 JUMPI PUSH2 0x7AD DUP5 PUSH2 0xB88 DUP2 DUP7 SUB DUP3 PUSH2 0x1356 JUMP JUMPDEST PUSH1 0x0 DUP1 DUP1 MSTORE SWAP3 POP PUSH32 0x290DECD9548B62A8D60345A988386FC84BA6BC95484008F6362F93160EF3E563 JUMPDEST DUP3 DUP5 LT PUSH2 0x11F2 JUMPI POP POP POP DUP2 ADD PUSH1 0x20 ADD PUSH2 0xB88 DUP3 PUSH2 0xB78 JUMP JUMPDEST DUP1 SLOAD PUSH1 0x20 DUP6 DUP8 ADD DUP2 ADD SWAP2 SWAP1 SWAP2 MSTORE SWAP1 SWAP4 ADD SWAP3 DUP2 ADD PUSH2 0x11DA JUMP JUMPDEST CALLVALUE PUSH2 0x1AA JUMPI PUSH1 0x20 CALLDATASIZE PUSH1 0x3 NOT ADD SLT PUSH2 0x1AA JUMPI PUSH1 0x4 CALLDATALOAD SWAP1 PUSH4 0xFFFFFFFF PUSH1 0xE0 SHL DUP3 AND DUP1 SWAP3 SUB PUSH2 0x1AA JUMPI PUSH1 0x20 SWAP2 PUSH4 0x80AC58CD PUSH1 0xE0 SHL DUP2 EQ SWAP1 DUP2 ISZERO PUSH2 0x1264 JUMPI JUMPDEST DUP2 ISZERO PUSH2 0x1253 JUMPI JUMPDEST POP ISZERO ISZERO DUP2 MSTORE RETURN JUMPDEST PUSH4 0x1FFC9A7 PUSH1 0xE0 SHL EQ SWAP1 POP DUP4 PUSH2 0x124C JUMP JUMPDEST PUSH4 0x5B5E139F PUSH1 0xE0 SHL DUP2 EQ SWAP2 POP PUSH2 0x1245 JUMP JUMPDEST PUSH1 0x0 JUMPDEST DUP4 DUP2 LT PUSH2 0x1288 JUMPI POP POP PUSH1 0x0 SWAP2 ADD MSTORE JUMP JUMPDEST DUP2 DUP2 ADD MLOAD DUP4 DUP3 ADD MSTORE PUSH1 0x20 ADD PUSH2 0x1278 JUMP JUMPDEST SWAP1 PUSH1 0x20 SWAP2 PUSH2 0x12B1 DUP2 MLOAD DUP1 SWAP3 DUP2 DUP6 MSTORE DUP6 DUP1 DUP7 ADD SWAP2 ADD PUSH2 0x1275 JUMP JUMPDEST PUSH1 0x1F ADD PUSH1 0x1F NOT AND ADD ADD SWAP1 JUMP JUMPDEST PUSH1 0x4 CALLDATALOAD SWAP1 PUSH1 0x1 PUSH1 0x1 PUSH1 0xA0 SHL SUB DUP3 AND DUP3 SUB PUSH2 0x1AA JUMPI JUMP JUMPDEST PUSH1 0x24 CALLDATALOAD SWAP1 PUSH1 0x1 PUSH1 0x1 PUSH1 0xA0 SHL SUB DUP3 AND DUP3 SUB PUSH2 0x1AA JUMPI JUMP JUMPDEST PUSH1 0x60 SWAP1 PUSH1 0x3 NOT ADD SLT PUSH2 0x1AA JUMPI PUSH1 0x1 PUSH1 0x1 PUSH1 0xA0 SHL SUB SWAP1 PUSH1 0x4 CALLDATALOAD DUP3 DUP2 AND DUP2 SUB PUSH2 0x1AA JUMPI SWAP2 PUSH1 0x24 CALLDATALOAD SWAP1 DUP2 AND DUP2 SUB PUSH2 0x1AA JUMPI SWAP1 PUSH1 0x44 CALLDATALOAD SWAP1 JUMP JUMPDEST PUSH1 0x80 DUP2 ADD SWAP1 DUP2 LT PUSH8 0xFFFFFFFFFFFFFFFF DUP3 GT OR PUSH2 0x565 JUMPI PUSH1 0x40 MSTORE JUMP JUMPDEST PUSH1 0x20 DUP2 ADD SWAP1 DUP2 LT PUSH8 0xFFFFFFFFFFFFFFFF DUP3 GT OR PUSH2 0x565 JUMPI PUSH1 0x40 MSTORE JUMP JUMPDEST SWAP1 PUSH1 0x1F DUP1 NOT SWAP2 ADD AND DUP2 ADD SWAP1 DUP2 LT PUSH8 0xFFFFFFFFFFFFFFFF DUP3 GT OR PUSH2 0x565 JUMPI PUSH1 0x40 MSTORE JUMP JUMPDEST PUSH8 0xFFFFFFFFFFFFFFFF DUP2 GT PUSH2 0x565 JUMPI PUSH1 0x1F ADD PUSH1 0x1F NOT AND PUSH1 0x20 ADD SWAP1 JUMP JUMPDEST SWAP3 SWAP2 SWAP3 PUSH2 0x13A0 DUP3 PUSH2 0x1378 JUMP JUMPDEST SWAP2 PUSH2 0x13AE PUSH1 0x40 MLOAD SWAP4 DUP5 PUSH2 0x1356 JUMP JUMPDEST DUP3 SWAP5 DUP2 DUP5 MSTORE DUP2 DUP4 ADD GT PUSH2 0x1AA JUMPI DUP3 DUP2 PUSH1 0x20 SWAP4 DUP5 PUSH1 0x0 SWAP7 ADD CALLDATACOPY ADD ADD MSTORE JUMP JUMPDEST SWAP1 PUSH1 0x1 DUP3 DUP2 SHR SWAP3 AND DUP1 ISZERO PUSH2 0x13FB JUMPI JUMPDEST PUSH1 0x20 DUP4 LT EQ PUSH2 0x13E5 JUMPI JUMP JUMPDEST PUSH4 0x4E487B71 PUSH1 0xE0 SHL PUSH1 0x0 MSTORE PUSH1 0x22 PUSH1 0x4 MSTORE PUSH1 0x24 PUSH1 0x0 REVERT JUMPDEST SWAP2 PUSH1 0x7F AND SWAP2 PUSH2 0x13DA JUMP JUMPDEST SWAP1 PUSH1 0x40 MLOAD SWAP2 DUP3 PUSH1 0x0 DUP3 SLOAD SWAP3 PUSH2 0x1419 DUP5 PUSH2 0x13CB JUMP JUMPDEST SWAP1 DUP2 DUP5 MSTORE PUSH1 0x1 SWAP5 DUP6 DUP2 AND SWAP1 DUP2 PUSH1 0x0 EQ PUSH2 0x1488 JUMPI POP PUSH1 0x1 EQ PUSH2 0x1445 JUMPI JUMPDEST POP POP PUSH2 0x1443 SWAP3 POP SUB DUP4 PUSH2 0x1356 JUMP JUMPDEST JUMP JUMPDEST SWAP1 SWAP4 SWAP2 POP PUSH1 0x0 MSTORE PUSH1 0x20 SWAP1 DUP2 PUSH1 0x0 KECCAK256 SWAP4 PUSH1 0x0 SWAP2 JUMPDEST DUP2 DUP4 LT PUSH2 0x1470 JUMPI POP POP PUSH2 0x1443 SWAP4 POP DUP3 ADD ADD CODESIZE DUP1 PUSH2 0x1435 JUMP JUMPDEST DUP6 SLOAD DUP9 DUP5 ADD DUP6 ADD MSTORE SWAP5 DUP6 ADD SWAP5 DUP8 SWAP5 POP SWAP2 DUP4 ADD SWAP2 PUSH2 0x1458 JUMP JUMPDEST SWAP2 POP POP PUSH2 0x1443 SWAP5 POP PUSH1 0x20 SWAP3 POP PUSH1 0xFF NOT AND DUP3 DUP5 ADD MSTORE ISZERO ISZERO PUSH1 0x5 SHL DUP3 ADD ADD CODESIZE DUP1 PUSH2 0x1435 JUMP JUMPDEST SWAP1 DUP1 PUSH1 0x1F DUP4 ADD SLT ISZERO PUSH2 0x1AA JUMPI DUP2 PUSH1 0x20 PUSH2 0x14C6 SWAP4 CALLDATALOAD SWAP2 ADD PUSH2 0x1394 JUMP JUMPDEST SWAP1 JUMP JUMPDEST PUSH1 0x7 SLOAD PUSH1 0x1 PUSH1 0x1 PUSH1 0xA0 SHL SUB AND CALLER SUB PUSH2 0x14DD JUMPI JUMP JUMPDEST PUSH1 0x40 MLOAD PUSH4 0x118CDAA7 PUSH1 0xE0 SHL DUP2 MSTORE CALLER PUSH1 0x4 DUP3 ADD MSTORE PUSH1 0x24 SWAP1 REVERT JUMPDEST PUSH1 0x1 PUSH1 0x1 PUSH1 0xA0 SHL SUB SWAP2 DUP3 AND SWAP3 SWAP1 SWAP2 DUP4 ISZERO PUSH2 0x67F JUMPI PUSH1 0x0 SWAP3 DUP3 DUP5 MSTORE DUP3 PUSH1 0x20 SWAP6 PUSH1 0x2 DUP8 MSTORE PUSH1 0x40 SWAP7 DUP5 DUP9 DUP9 KECCAK256 SLOAD AND SWAP7 DUP8 SWAP2 CALLER ISZERO ISZERO DUP1 PUSH2 0x15E5 JUMPI JUMPDEST POP SWAP1 PUSH1 0x2 PUSH32 0xDDF252AD1BE2C89B69C2B068FC378DAA952BA7F163C4A11628F55A4DF523B3EF SWAP3 DUP5 PUSH2 0x15B2 JUMPI JUMPDEST DUP6 DUP4 MSTORE PUSH1 0x3 DUP2 MSTORE DUP12 DUP4 KECCAK256 DUP1 SLOAD PUSH1 0x1 ADD SWAP1 SSTORE DUP7 DUP4 MSTORE MSTORE DUP10 DUP2 KECCAK256 DUP1 SLOAD PUSH1 0x1 PUSH1 0x1 PUSH1 0xA0 SHL SUB NOT AND DUP6 OR SWAP1 SSTORE DUP1 LOG4 AND SWAP3 DUP4 DUP4 SUB PUSH2 0x1591 JUMPI POP POP POP POP JUMP JUMPDEST PUSH1 0x64 SWAP5 POP MLOAD SWAP3 PUSH4 0x64283D7B PUSH1 0xE0 SHL DUP5 MSTORE PUSH1 0x4 DUP5 ADD MSTORE PUSH1 0x24 DUP4 ADD MSTORE PUSH1 0x44 DUP3 ADD MSTORE REVERT JUMPDEST PUSH1 0x0 DUP8 DUP2 MSTORE PUSH1 0x4 PUSH1 0x20 MSTORE PUSH1 0x40 SWAP1 KECCAK256 DUP1 SLOAD PUSH1 0x1 PUSH1 0x1 PUSH1 0xA0 SHL SUB NOT AND SWAP1 SSTORE DUP5 DUP4 MSTORE PUSH1 0x3 DUP2 MSTORE DUP12 DUP4 KECCAK256 DUP1 SLOAD PUSH1 0x0 NOT ADD SWAP1 SSTORE PUSH2 0x1558 JUMP JUMPDEST SWAP2 SWAP4 SWAP5 POP SWAP2 POP DUP1 PUSH2 0x163D JUMPI JUMPDEST ISZERO PUSH2 0x1601 JUMPI DUP6 SWAP3 SWAP2 DUP8 SWAP2 CODESIZE PUSH2 0x152C JUMP JUMPDEST DUP8 DUP7 DUP9 PUSH2 0x161E JUMPI PUSH1 0x24 SWAP2 MLOAD SWAP1 PUSH4 0x7E273289 PUSH1 0xE0 SHL DUP3 MSTORE PUSH1 0x4 DUP3 ADD MSTORE REVERT JUMPDEST SWAP1 MLOAD PUSH4 0x177E802F PUSH1 0xE0 SHL DUP2 MSTORE CALLER PUSH1 0x4 DUP3 ADD MSTORE PUSH1 0x24 DUP2 ADD SWAP2 SWAP1 SWAP2 MSTORE PUSH1 0x44 SWAP1 REVERT JUMPDEST POP CALLER DUP8 EQ DUP1 ISZERO PUSH2 0x1662 JUMPI JUMPDEST DUP1 PUSH2 0x15F1 JUMPI POP DUP6 DUP3 MSTORE PUSH1 0x4 DUP2 MSTORE CALLER DUP6 DUP10 DUP5 KECCAK256 SLOAD AND EQ PUSH2 0x15F1 JUMP JUMPDEST POP DUP7 DUP3 MSTORE PUSH1 0x5 DUP2 MSTORE DUP8 DUP3 KECCAK256 CALLER DUP4 MSTORE DUP2 MSTORE PUSH1 0xFF DUP9 DUP4 KECCAK256 SLOAD AND PUSH2 0x1648 JUMP JUMPDEST PUSH2 0x1689 DUP4 DUP4 DUP4 PUSH2 0x14F5 JUMP JUMPDEST DUP2 EXTCODESIZE PUSH2 0x1696 JUMPI JUMPDEST POP POP POP POP JUMP JUMPDEST PUSH1 0x40 MLOAD PUSH4 0xA85BD01 PUSH1 0xE1 SHL DUP1 DUP3 MSTORE CALLER PUSH1 0x4 DUP4 ADD MSTORE PUSH1 0x1 PUSH1 0x1 PUSH1 0xA0 SHL SUB SWAP3 DUP4 AND PUSH1 0x24 DUP4 ADD MSTORE PUSH1 0x44 DUP3 ADD SWAP5 SWAP1 SWAP5 MSTORE PUSH1 0x80 PUSH1 0x64 DUP3 ADD MSTORE PUSH1 0x20 SWAP6 SWAP3 SWAP1 SWAP2 AND SWAP4 SWAP1 SWAP3 SWAP1 DUP4 SWAP1 PUSH2 0x16E4 SWAP1 PUSH1 0x84 DUP4 ADD SWAP1 PUSH2 0x1298 JUMP JUMPDEST SUB SWAP3 DUP6 DUP2 PUSH1 0x0 SWAP6 DUP2 DUP8 DUP10 GAS CALL DUP5 SWAP2 DUP2 PUSH2 0x178D JUMPI JUMPDEST POP PUSH2 0x1758 JUMPI POP POP POP RETURNDATASIZE PUSH1 0x0 EQ PUSH2 0x1750 JUMPI RETURNDATASIZE PUSH2 0x1712 DUP2 PUSH2 0x1378 JUMP JUMPDEST SWAP1 PUSH2 0x1720 PUSH1 0x40 MLOAD SWAP3 DUP4 PUSH2 0x1356 JUMP JUMPDEST DUP2 MSTORE DUP1 SWAP2 DUP5 RETURNDATASIZE SWAP3 ADD RETURNDATACOPY JUMPDEST DUP1 MLOAD SWAP3 DUP4 PUSH2 0x174B JUMPI PUSH1 0x40 MLOAD PUSH4 0x32505749 PUSH1 0xE1 SHL DUP2 MSTORE PUSH1 0x4 DUP2 ADD DUP5 SWAP1 MSTORE PUSH1 0x24 SWAP1 REVERT JUMPDEST ADD SWAP1 POP REVERT JUMPDEST POP PUSH1 0x60 PUSH2 0x172A JUMP JUMPDEST SWAP2 SWAP5 POP SWAP2 POP PUSH4 0xFFFFFFFF PUSH1 0xE0 SHL AND SUB PUSH2 0x1775 JUMPI POP CODESIZE DUP1 DUP1 DUP1 PUSH2 0x1690 JUMP JUMPDEST PUSH1 0x24 SWAP1 PUSH1 0x40 MLOAD SWAP1 PUSH4 0x32505749 PUSH1 0xE1 SHL DUP3 MSTORE PUSH1 0x4 DUP3 ADD MSTORE REVERT JUMPDEST SWAP1 SWAP2 POP DUP7 DUP2 DUP2 RETURNDATASIZE DUP4 GT PUSH2 0x17CA JUMPI JUMPDEST PUSH2 0x17A5 DUP2 DUP4 PUSH2 0x1356 JUMP JUMPDEST DUP2 ADD SUB SLT PUSH2 0x17C6 JUMPI MLOAD PUSH1 0x1 PUSH1 0x1 PUSH1 0xE0 SHL SUB NOT DUP2 AND DUP2 SUB PUSH2 0x17C6 JUMPI SWAP1 CODESIZE PUSH2 0x16F8 JUMP JUMPDEST DUP5 DUP1 REVERT JUMPDEST POP RETURNDATASIZE PUSH2 0x179B JUMP JUMPDEST PUSH1 0x0 DUP2 DUP2 MSTORE PUSH1 0x2 PUSH1 0x20 MSTORE PUSH1 0x40 SWAP1 KECCAK256 SLOAD PUSH1 0x1 PUSH1 0x1 PUSH1 0xA0 SHL SUB AND SWAP1 DUP2 ISZERO PUSH2 0x17F4 JUMPI POP SWAP1 JUMP JUMPDEST PUSH1 0x24 SWAP1 PUSH1 0x40 MLOAD SWAP1 PUSH4 0x7E273289 PUSH1 0xE0 SHL DUP3 MSTORE PUSH1 0x4 DUP3 ADD MSTORE REVERT JUMPDEST SWAP1 DUP2 PUSH1 0x20 SWAP2 SUB SLT PUSH2 0x1AA JUMPI MLOAD DUP1 ISZERO ISZERO DUP2 SUB PUSH2 0x1AA JUMPI SWAP1 JUMP JUMPDEST ISZERO PUSH2 0x182B JUMPI JUMP JUMPDEST PUSH1 0x40 MLOAD PUSH3 0x461BCD PUSH1 0xE5 SHL DUP2 MSTORE PUSH1 0x20 PUSH1 0x4 DUP3 ADD MSTORE PUSH1 0xF PUSH1 0x24 DUP3 ADD MSTORE PUSH15 0x151C985B9CD9995C8819985A5B1959 PUSH1 0x8A SHL PUSH1 0x44 DUP3 ADD MSTORE PUSH1 0x64 SWAP1 REVERT JUMPDEST DUP2 DUP2 LT PUSH2 0x186D JUMPI POP POP JUMP JUMPDEST PUSH1 0x0 DUP2 SSTORE PUSH1 0x1 ADD PUSH2 0x1862 JUMP JUMPDEST PUSH1 0x2 PUSH1 0x6 SLOAD EQ PUSH2 0x188A JUMPI PUSH1 0x2 PUSH1 0x6 SSTORE JUMP JUMPDEST PUSH1 0x40 MLOAD PUSH4 0x3EE5AEB5 PUSH1 0xE0 SHL DUP2 MSTORE PUSH1 0x4 SWAP1 REVERT JUMPDEST PUSH2 0x18A6 DUP2 SLOAD PUSH2 0x13CB JUMP JUMPDEST SWAP1 DUP2 PUSH2 0x18B0 JUMPI POP POP JUMP JUMPDEST DUP2 PUSH1 0x1F PUSH1 0x0 SWAP4 GT PUSH1 0x1 EQ PUSH2 0x18C2 JUMPI POP SSTORE JUMP JUMPDEST SWAP1 DUP1 DUP4 SWAP2 DUP3 MSTORE PUSH2 0x18E1 PUSH1 0x1F PUSH1 0x20 DUP5 KECCAK256 SWAP5 ADD PUSH1 0x5 SHR DUP5 ADD PUSH1 0x1 DUP6 ADD PUSH2 0x1862 JUMP JUMPDEST SSTORE SSTORE JUMP JUMPDEST ISZERO PUSH2 0x18EC JUMPI JUMP JUMPDEST PUSH1 0x40 MLOAD PUSH3 0x461BCD PUSH1 0xE5 SHL DUP2 MSTORE PUSH1 0x20 PUSH1 0x4 DUP3 ADD MSTORE PUSH1 0x14 PUSH1 0x24 DUP3 ADD MSTORE PUSH20 0x151BDAD95B88191BD95CC81B9BDD08195E1A5CDD PUSH1 0x62 SHL PUSH1 0x44 DUP3 ADD MSTORE PUSH1 0x64 SWAP1 REVERT JUMPDEST DUP1 MLOAD ISZERO PUSH2 0x1A2C JUMPI DUP1 MLOAD PUSH1 0x2 SWAP2 DUP3 DUP3 ADD DUP1 SWAP3 GT PUSH2 0x698 JUMPI PUSH1 0x3 SWAP2 DUP3 SWAP1 DIV DUP1 DUP5 SHL SWAP5 SWAP1 PUSH1 0x1 PUSH1 0x1 PUSH1 0xFE SHL SUB DUP2 AND SUB PUSH2 0x698 JUMPI SWAP3 PUSH2 0x197B PUSH2 0x1965 DUP7 PUSH2 0x1378 JUMP JUMPDEST SWAP6 PUSH2 0x1973 PUSH1 0x40 MLOAD SWAP8 DUP9 PUSH2 0x1356 JUMP JUMPDEST DUP1 DUP8 MSTORE PUSH2 0x1378 JUMP JUMPDEST PUSH1 0x20 DUP7 ADD SWAP1 PUSH1 0x1F NOT ADD CALLDATASIZE DUP3 CALLDATACOPY SWAP4 DUP3 SWAP2 DUP4 MLOAD DUP5 ADD SWAP1 PUSH1 0x20 DUP3 ADD SWAP3 DUP4 MLOAD SWAP5 PUSH1 0x0 DUP6 MSTORE JUMPDEST DUP4 DUP2 LT PUSH2 0x19DB JUMPI POP POP POP POP MSTORE MLOAD MOD DUP1 PUSH1 0x1 EQ PUSH2 0x19C8 JUMPI PUSH1 0x2 EQ PUSH2 0x19BD JUMPI POP SWAP1 JUMP JUMPDEST PUSH1 0x3D SWAP1 PUSH1 0x0 NOT ADD MSTORE8 SWAP1 JUMP JUMPDEST POP PUSH1 0x3D SWAP1 DUP2 PUSH1 0x0 NOT DUP3 ADD MSTORE8 PUSH1 0x1 NOT ADD MSTORE8 SWAP1 JUMP JUMPDEST DUP8 PUSH1 0x4 SWAP2 SWAP10 SWAP3 SWAP4 SWAP5 SWAP10 ADD SWAP2 DUP3 MLOAD PUSH1 0x1 SWAP1 PUSH1 0x3F SWAP1 DUP3 DUP3 DUP3 PUSH1 0x12 SHR AND DUP9 ADD ADD MLOAD DUP5 MSTORE8 DUP3 DUP3 DUP3 PUSH1 0xC SHR AND DUP9 ADD ADD MLOAD DUP4 DUP6 ADD MSTORE8 DUP3 DUP3 DUP3 PUSH1 0x6 SHR AND DUP9 ADD ADD MLOAD DUP9 DUP6 ADD MSTORE8 AND DUP6 ADD ADD MLOAD DUP10 DUP3 ADD MSTORE8 ADD SWAP8 SWAP3 SWAP2 SWAP1 PUSH2 0x199C JUMP JUMPDEST POP POP PUSH1 0x40 MLOAD PUSH2 0x1A3A DUP2 PUSH2 0x133A JUMP JUMPDEST PUSH1 0x0 DUP2 MSTORE SWAP1 JUMP INVALID LOG2 PUSH5 0x6970667358 0x22 SLT KECCAK256 0xAB PREVRANDAO 0xAC 0xC3 PUSH16 0xED2E7E3DD7BA4D648FFA136C8498B3D9 SELFBALANCE 0x2A 0xB8 PUSH17 0x853E8D4BF452D564736F6C634300081400 CALLER "},"methodIdentifiers":{"STAKE_REQUIREMENT()":"c118258b","approve(address,uint256)":"095ea7b3","balanceOf(address)":"70a08231","getApproved(uint256)":"081812fc","getPatentTokenForNFT(uint256)":"68ee9d6d","isApprovedForAll(address,address)":"e985e9c5","name()":"06fdde03","nextTokenId(address)":"c852b1bf","owner()":"8da5cb5b","ownerOf(uint256)":"6352211e","patentFactory()":"58722a07","renounceOwnership()":"715018a6","safeTransferFrom(address,address,uint256)":"42842e0e","safeTransferFrom(address,address,uint256,bytes)":"b88d4fde","setApprovalForAll(address,bool)":"a22cb465","stake(address,uint256,string,string)":"e8968162","stakes(uint256)":"d5a44f86","supportsInterface(bytes4)":"01ffc9a7","symbol()":"95d89b41","tokenURI(uint256)":"c87b56dd","transferFrom(address,address,uint256)":"23b872dd","transferOwnership(address)":"f2fde38b","unstake(uint256)":"2e17de78"}}}}}