{
  "_format": "hh-sol-artifact-1",
  "contractName": "PatentStaking",
  "sourceName": "contracts/PatentStaking.sol",
  "abi": [
    {
      "inputs": [
        {
          "internalType": "address",
          "name": "_patentFactory",
          "type": "address"
        }
      ],
      "stateMutability": "nonpayable",
      "type": "constructor"
    },
    {
      "inputs": [
        {
          "internalType": "address",
          "name": "sender",
          "type": "address"
        },
        {
          "internalType": "uint256",
          "name": "tokenId",
          "type": "uint256"
        },
        {
          "internalType": "address",
          "name": "owner",
          "type": "address"
        }
      ],
      "name": "ERC721IncorrectOwner",
      "type": "error"
    },
    {
      "inputs": [
        {
          "internalType": "address",
          "name": "operator",
          "type": "address"
        },
        {
          "internalType": "uint256",
          "name": "tokenId",
          "type": "uint256"
        }
      ],
      "name": "ERC721InsufficientApproval",
      "type": "error"
    },
    {
      "inputs": [
        {
          "internalType": "address",
          "name": "approver",
          "type": "address"
        }
      ],
      "name": "ERC721InvalidApprover",
      "type": "error"
    },
    {
      "inputs": [
        {
          "internalType": "address",
          "name": "operator",
          "type": "address"
        }
      ],
      "name": "ERC721InvalidOperator",
      "type": "error"
    },
    {
      "inputs": [
        {
          "internalType": "address",
          "name": "owner",
          "type": "address"
        }
      ],
      "name": "ERC721InvalidOwner",
      "type": "error"
    },
    {
      "inputs": [
        {
          "internalType": "address",
          "name": "receiver",
          "type": "address"
        }
      ],
      "name": "ERC721InvalidReceiver",
      "type": "error"
    },
    {
      "inputs": [
        {
          "internalType": "address",
          "name": "sender",
          "type": "address"
        }
      ],
      "name": "ERC721InvalidSender",
      "type": "error"
    },
    {
      "inputs": [
        {
          "internalType": "uint256",
          "name": "tokenId",
          "type": "uint256"
        }
      ],
      "name": "ERC721NonexistentToken",
      "type": "error"
    },
    {
      "inputs": [
        {
          "internalType": "address",
          "name": "owner",
          "type": "address"
        }
      ],
      "name": "OwnableInvalidOwner",
      "type": "error"
    },
    {
      "inputs": [
        {
          "internalType": "address",
          "name": "account",
          "type": "address"
        }
      ],
      "name": "OwnableUnauthorizedAccount",
      "type": "error"
    },
    {
      "inputs": [],
      "name": "ReentrancyGuardReentrantCall",
      "type": "error"
    },
    {
      "anonymous": false,
      "inputs": [
        {
          "indexed": true,
          "internalType": "address",
          "name": "owner",
          "type": "address"
        },
        {
          "indexed": true,
          "internalType": "address",
          "name": "approved",
          "type": "address"
        },
        {
          "indexed": true,
          "internalType": "uint256",
          "name": "tokenId",
          "type": "uint256"
        }
      ],
      "name": "Approval",
      "type": "event"
    },
    {
      "anonymous": false,
      "inputs": [
        {
          "indexed": true,
          "internalType": "address",
          "name": "owner",
          "type": "address"
        },
        {
          "indexed": true,
          "internalType": "address",
          "name": "operator",
          "type": "address"
        },
        {
          "indexed": false,
          "internalType": "bool",
          "name": "approved",
          "type": "bool"
        }
      ],
      "name": "ApprovalForAll",
      "type": "event"
    },
    {
      "anonymous": false,
      "inputs": [
        {
          "indexed": true,
          "internalType": "address",
          "name": "previousOwner",
          "type": "address"
        },
        {
          "indexed": true,
          "internalType": "address",
          "name": "newOwner",
          "type": "address"
        }
      ],
      "name": "OwnershipTransferred",
      "type": "event"
    },
    {
      "anonymous": false,
      "inputs": [
        {
          "indexed": true,
          "internalType": "address",
          "name": "user",
          "type": "address"
        },
        {
          "indexed": true,
          "internalType": "address",
          "name": "patentToken",
          "type": "address"
        },
        {
          "indexed": false,
          "internalType": "uint256",
          "name": "amount",
          "type": "uint256"
        },
        {
          "indexed": false,
          "internalType": "uint256",
          "name": "nftId",
          "type": "uint256"
        }
      ],
      "name": "Staked",
      "type": "event"
    },
    {
      "anonymous": false,
      "inputs": [
        {
          "indexed": true,
          "internalType": "address",
          "name": "from",
          "type": "address"
        },
        {
          "indexed": true,
          "internalType": "address",
          "name": "to",
          "type": "address"
        },
        {
          "indexed": true,
          "internalType": "uint256",
          "name": "tokenId",
          "type": "uint256"
        }
      ],
      "name": "Transfer",
      "type": "event"
    },
    {
      "anonymous": false,
      "inputs": [
        {
          "indexed": true,
          "internalType": "address",
          "name": "user",
          "type": "address"
        },
        {
          "indexed": true,
          "internalType": "address",
          "name": "patentToken",
          "type": "address"
        },
        {
          "indexed": false,
          "internalType": "uint256",
          "name": "amount",
          "type": "uint256"
        },
        {
          "indexed": false,
          "internalType": "uint256",
          "name": "nftId",
          "type": "uint256"
        }
      ],
      "name": "Unstaked",
      "type": "event"
    },
    {
      "inputs": [],
      "name": "STAKE_REQUIREMENT",
      "outputs": [
        {
          "internalType": "uint256",
          "name": "",
          "type": "uint256"
        }
      ],
      "stateMutability": "view",
      "type": "function"
    },
    {
      "inputs": [
        {
          "internalType": "address",
          "name": "to",
          "type": "address"
        },
        {
          "internalType": "uint256",
          "name": "tokenId",
          "type": "uint256"
        }
      ],
      "name": "approve",
      "outputs": [],
      "stateMutability": "nonpayable",
      "type": "function"
    },
    {
      "inputs": [
        {
          "internalType": "address",
          "name": "owner",
          "type": "address"
        }
      ],
      "name": "balanceOf",
      "outputs": [
        {
          "internalType": "uint256",
          "name": "",
          "type": "uint256"
        }
      ],
      "stateMutability": "view",
      "type": "function"
    },
    {
      "inputs": [
        {
          "internalType": "uint256",
          "name": "tokenId",
          "type": "uint256"
        }
      ],
      "name": "getApproved",
      "outputs": [
        {
          "internalType": "address",
          "name": "",
          "type": "address"
        }
      ],
      "stateMutability": "view",
      "type": "function"
    },
    {
      "inputs": [
        {
          "internalType": "uint256",
          "name": "tokenId",
          "type": "uint256"
        }
      ],
      "name": "getPatentTokenForNFT",
      "outputs": [
        {
          "internalType": "address",
          "name": "",
          "type": "address"
        }
      ],
      "stateMutability": "view",
      "type": "function"
    },
    {
      "inputs": [
        {
          "internalType": "address",
          "name": "owner",
          "type": "address"
        },
        {
          "internalType": "address",
          "name": "operator",
          "type": "address"
        }
      ],
      "name": "isApprovedForAll",
      "outputs": [
        {
          "internalType": "bool",
          "name": "",
          "type": "bool"
        }
      ],
      "stateMutability": "view",
      "type": "function"
    },
    {
      "inputs": [],
      "name": "name",
      "outputs": [
        {
          "internalType": "string",
          "name": "",
          "type": "string"
        }
      ],
      "stateMutability": "view",
      "type": "function"
    },
    {
      "inputs": [
        {
          "internalType": "address",
          "name": "",
          "type": "address"
        }
      ],
      "name": "nextTokenId",
      "outputs": [
        {
          "internalType": "uint256",
          "name": "",
          "type": "uint256"
        }
      ],
      "stateMutability": "view",
      "type": "function"
    },
    {
      "inputs": [],
      "name": "owner",
      "outputs": [
        {
          "internalType": "address",
          "name": "",
          "type": "address"
        }
      ],
      "stateMutability": "view",
      "type": "function"
    },
    {
      "inputs": [
        {
          "internalType": "uint256",
          "name": "tokenId",
          "type": "uint256"
        }
      ],
      "name": "ownerOf",
      "outputs": [
        {
          "internalType": "address",
          "name": "",
          "type": "address"
        }
      ],
      "stateMutability": "view",
      "type": "function"
    },
    {
      "inputs": [],
      "name": "patentFactory",
      "outputs": [
        {
          "internalType": "address",
          "name": "",
          "type": "address"
        }
      ],
      "stateMutability": "view",
      "type": "function"
    },
    {
      "inputs": [],
      "name": "renounceOwnership",
      "outputs": [],
      "stateMutability": "nonpayable",
      "type": "function"
    },
    {
      "inputs": [
        {
          "internalType": "address",
          "name": "from",
          "type": "address"
        },
        {
          "internalType": "address",
          "name": "to",
          "type": "address"
        },
        {
          "internalType": "uint256",
          "name": "tokenId",
          "type": "uint256"
        }
      ],
      "name": "safeTransferFrom",
      "outputs": [],
      "stateMutability": "nonpayable",
      "type": "function"
    },
    {
      "inputs": [
        {
          "internalType": "address",
          "name": "from",
          "type": "address"
        },
        {
          "internalType": "address",
          "name": "to",
          "type": "address"
        },
        {
          "internalType": "uint256",
          "name": "tokenId",
          "type": "uint256"
        },
        {
          "internalType": "bytes",
          "name": "data",
          "type": "bytes"
        }
      ],
      "name": "safeTransferFrom",
      "outputs": [],
      "stateMutability": "nonpayable",
      "type": "function"
    },
    {
      "inputs": [
        {
          "internalType": "address",
          "name": "operator",
          "type": "address"
        },
        {
          "internalType": "bool",
          "name": "approved",
          "type": "bool"
        }
      ],
      "name": "setApprovalForAll",
      "outputs": [],
      "stateMutability": "nonpayable",
      "type": "function"
    },
    {
      "inputs": [
        {
          "internalType": "address",
          "name": "patentToken",
          "type": "address"
        },
        {
          "internalType": "uint256",
          "name": "amount",
          "type": "uint256"
        },
        {
          "internalType": "string",
          "name": "patentTitle",
          "type": "string"
        },
        {
          "internalType": "string",
          "name": "imageUrl",
          "type": "string"
        }
      ],
      "name": "stake",
      "outputs": [],
      "stateMutability": "nonpayable",
      "type": "function"
    },
    {
      "inputs": [
        {
          "internalType": "uint256",
          "name": "",
          "type": "uint256"
        }
      ],
      "name": "stakes",
      "outputs": [
        {
          "internalType": "uint256",
          "name": "amount",
          "type": "uint256"
        },
        {
          "internalType": "address",
          "name": "patentToken",
          "type": "address"
        },
        {
          "internalType": "string",
          "name": "patentTitle",
          "type": "string"
        },
        {
          "internalType": "string",
          "name": "imageUrl",
          "type": "string"
        }
      ],
      "stateMutability": "view",
      "type": "function"
    },
    {
      "inputs": [
        {
          "internalType": "bytes4",
          "name": "interfaceId",
          "type": "bytes4"
        }
      ],
      "name": "supportsInterface",
      "outputs": [
        {
          "internalType": "bool",
          "name": "",
          "type": "bool"
        }
      ],
      "stateMutability": "view",
      "type": "function"
    },
    {
      "inputs": [],
      "name": "symbol",
      "outputs": [
        {
          "internalType": "string",
          "name": "",
          "type": "string"
        }
      ],
      "stateMutability": "view",
      "type": "function"
    },
    {
      "inputs": [
        {
          "internalType": "uint256",
          "name": "tokenId",
          "type": "uint256"
        }
      ],
      "name": "tokenURI",
      "outputs": [
        {
          "internalType": "string",
          "name": "",
          "type": "string"
        }
      ],
      "stateMutability": "view",
      "type": "function"
    },
    {
      "inputs": [
        {
          "internalType": "address",
          "name": "from",
          "type": "address"
        },
        {
          "internalType": "address",
          "name": "to",
          "type": "address"
        },
        {
          "internalType": "uint256",
          "name": "tokenId",
          "type": "uint256"
        }
      ],
      "name": "transferFrom",
      "outputs": [],
      "stateMutability": "nonpayable",
      "type": "function"
    },
    {
      "inputs": [
        {
          "internalType": "address",
          "name": "newOwner",
          "type": "address"
        }
      ],
      "name": "transferOwnership",
      "outputs": [],
      "stateMutability": "nonpayable",
      "type": "function"
    },
    {
      "inputs": [
        {
          "internalType": "uint256",
          "name": "tokenId",
          "type": "uint256"
        }
      ],
      "name": "unstake",
      "outputs": [],
      "stateMutability": "nonpayable",
      "type": "function"
    }
  ],
  "bytecode": "0x60a0346200041a57601f1990601f906001600160401b0362001eb738819003848101861684018381118582101762000404578492829160405283396020938491810103126200041a5751936001600160a01b0393848616928387036200041a57620000696200041f565b91601383527f506174656e742055736167652052696768747300000000000000000000000000868401526200009d6200041f565b6003815262282aa960e91b8782015283519483861162000404576000958654956001968781811c91168015620003f9575b8b821014620003e55790818684931162000392575b508a908683116001146200032f57899262000323575b5050600019600383901b1c191690861b1786555b81519384116200030f5784548581811c9116801562000304575b89821014620002f057908184869594931162000299575b508892841160011462000238575085926200022c575b5050600019600383901b1c191690821b1781555b60065533156200021457600754903360018060a01b03198316176007557f8be0079c531659141344cd1fd0a4f28419497f9722a3daafe3b4186f6b6457e0604051953393169180a315620001d35782608052604051611a77908162000440823960805181610d9b0152f35b62461bcd60e51b82526004820152601760248201527f496e76616c696420666163746f72792061646472657373000000000000000000604482015260649150fd5b60249060405190631e4fbdf760e01b82526004820152fd5b01519050388062000154565b85875288872086959093929116875b8a82821062000282575050841162000268575b505050811b01815562000168565b015160001960f88460031b161c191690553880806200025a565b838501518655889790950194938401930162000247565b90919293508587528887208480870160051c8201928b8810620002e6575b9187968992969594930160051c01915b828110620002d75750506200013e565b898155879650889101620002c7565b92508192620002b7565b634e487b7160e01b87526022600452602487fd5b90607f169062000127565b634e487b7160e01b86526041600452602486fd5b015190503880620000f9565b9084899416918a80528c8b20928d8c905b8282106200037a575050841162000360575b505050811b0186556200010d565b015160001960f88460031b161c1916905538808062000352565b8385015186558c979095019493840193018e62000340565b9091508880528a89208680850160051c8201928d8610620003db575b918a91869594930160051c01915b828110620003cc575050620000e3565b8b81558594508a9101620003bc565b92508192620003ae565b634e487b7160e01b89526022600452602489fd5b90607f1690620000ce565b634e487b7160e01b600052604160045260246000fd5b600080fd5b60408051919082016001600160401b03811183821017620004045760405256fe608080604052600436101561001357600080fd5b60003560e01c90816301ffc9a71461120a5750806306fdde0314611167578063081812fc14611129578063095ea7b31461104257806323b872dd1461102b5780632e17de7814610df257806342842e0e14610dca57806358722a0714610d855780636352211e14610d5557806368ee9d6d14610cfb57806370a0823114610ca2578063715018a614610c455780638da5cb5b14610c1c57806395d89b4114610b3d578063a22cb46514610a98578063b88d4fde14610a36578063c118258b14610a12578063c852b1bf146109d8578063c87b56dd146107b1578063d5a44f861461072e578063e896816214610205578063e985e9c5146101af5763f2fde38b1461011c57600080fd5b346101aa5760203660031901126101aa576101356112bd565b61013d6114c9565b6001600160a01b0390811690811561019157600754826bffffffffffffffffffffffff60a01b821617600755167f8be0079c531659141344cd1fd0a4f28419497f9722a3daafe3b4186f6b6457e0600080a3005b604051631e4fbdf760e01b815260006004820152602490fd5b600080fd5b346101aa5760403660031901126101aa576101c86112bd565b6101d06112d3565b9060018060a01b03809116600052600560205260406000209116600052602052602060ff604060002054166040519015158152f35b346101aa5760803660031901126101aa5761021e6112bd565b60443567ffffffffffffffff81116101aa5761023e9036906004016114ab565b9060643567ffffffffffffffff81116101aa5761025f9036906004016114ab565b90610268611879565b683635c9adc5dea00000602435106106e9576040516323b872dd60e01b8152336004820152306024808301919091523560448201526001600160a01b03929060208160648160008789165af180156106dd576102cc916000916106ae575b50611824565b8282166000526009602052604060002093845494600019861461069857600186019055331561067f5784600052600260205283604060002054169081151580610648575b336000526003602052604060002060018154019055866000526002602052866040600020936bffffffffffffffffffffffff60a01b94338682541617905533907fddf252ad1be2c89b69c2b068fc378daa952ba7f163c4a11628f55a4df523b3ef600080a461062f57604051926103868461131e565b602435845260208401908686168252604085019283526060850152866000526008602052604060002092845184558660018501925116908254161790555180519067ffffffffffffffff8211610565576103e360028401546113cb565b601f81116105fa575b50602090601f83116001146105865791806060949260039460009261057b575b50508160011b9160001990851b1c19161760028201555b0191015180519067ffffffffffffffff821161056557819061044584546113cb565b601f8111610528575b50602090601f83116001146104c2576000926104b7575b50508160011b916000199060031b1c19161790555b604051926024358452602084015216907f6c86f3fd5118b3aa8bb4f389a617046de0a3d3d477de1a1673d227f802f616dc60403392a36001600655005b015190508680610465565b6000858152602081209350601f198516905b81811061051057509084600195949392106104f7575b505050811b01905561047a565b015160001960f88460031b161c191690558680806104ea565b929360206001819287860151815501950193016104d4565b61055590856000526020600020601f850160051c8101916020861061055b575b601f0160051c0190611862565b8761044e565b9091508190610548565b634e487b7160e01b600052604160045260246000fd5b01519050898061040c565b906002840160005260206000209160005b601f19851681106105e25750926060949260019260039583601f198116106105ca575b505050811b016002820155610423565b015160001983871b60f8161c191690558980806105ba565b91926020600181928685015181550194019201610597565b61062990600285016000526020600020601f850160051c8101916020861061055b57601f0160051c0190611862565b876103ec565b6040516339e3563760e11b815260006004820152602490fd5b600087815260046020526040902080546001600160a01b031916905582600052600360205260406000206000198154019055610310565b604051633250574960e11b815260006004820152602490fd5b634e487b7160e01b600052601160045260246000fd5b6106d0915060203d6020116106d6575b6106c88183611356565b81019061180c565b866102c6565b503d6106be565b6040513d6000823e3d90fd5b60405162461bcd60e51b815260206004820152601f60248201527f4d757374207374616b65206174206c65617374203130303020746f6b656e73006044820152606490fd5b346101aa5760203660031901126101aa576004356000908152600860205260409020805460018201546001600160a01b0316916107ad9061079f610780600361077960028501611405565b9301611405565b9160405195869586526020860152608060408601526080850190611298565b908382036060850152611298565b0390f35b346101aa576020806003193601126101aa576004356000818152600260205260409020546107e9906001600160a01b031615156118e5565b6000526008815260606108fc607460406000206040516108088161131e565b8154815260018201546001600160a01b03168682015261083d600361082f60028501611405565b936040840194855201611405565b9485910152516040519384917f7b226e616d65223a2022506174656e74204e4654202d20000000000000000000878401526108818151809289603787019101611275565b82017f222c20226465736372697074696f6e223a20225573616765207269676874732060378201527f4e465420666f7220706174656e74222c2022696d616765223a2022000000000060578201526108e28251809389607285019101611275565b0161227d60f01b6072820152036054810184520182611356565b604051606081019181831067ffffffffffffffff8411176105655761097292604052604082527f4142434445464748494a4b4c4d4e4f505152535455565758595a616263646566848301527f6768696a6b6c6d6e6f707172737475767778797a303132333435363738392b2f6040830152611928565b906109c4603d60405180947f646174613a6170706c69636174696f6e2f6a736f6e3b6261736536342c000000858301526109b481518092878686019101611275565b810103601d810185520183611356565b6107ad604051928284938452830190611298565b346101aa5760203660031901126101aa576001600160a01b036109f96112bd565b1660005260096020526020604060002054604051908152f35b346101aa5760003660031901126101aa576020604051683635c9adc5dea000008152f35b346101aa5760803660031901126101aa57610a4f6112bd565b610a576112d3565b6064359167ffffffffffffffff83116101aa57366023840112156101aa57610a8c610a96933690602481600401359101611394565b916044359161167e565b005b346101aa5760403660031901126101aa57610ab16112bd565b602435908115158092036101aa576001600160a01b0316908115610b2457336000526005602052604060002082600052602052604060002060ff1981541660ff83161790556040519081527f17307eab39ab6107e8899845ad3d59bd9653f200f220920489ca2b5937696c3160203392a3005b604051630b61174360e31b815260048101839052602490fd5b346101aa5760003660031901126101aa5760405160006001805490610b61826113cb565b80855291818116908115610bf55750600114610b9c575b6107ad84610b8881860382611356565b604051918291602083526020830190611298565b600081815292507fb10e2d527612073b26eecdfd717e6a320cf44b4afac2b0732d9fcbe2b7fa0cf65b828410610bdd575050508101602001610b8882610b78565b80546020858701810191909152909301928101610bc5565b60ff191660208087019190915292151560051b85019092019250610b889150839050610b78565b346101aa5760003660031901126101aa576007546040516001600160a01b039091168152602090f35b346101aa5760003660031901126101aa57610c5e6114c9565b600780546001600160a01b031981169091556000906001600160a01b03167f8be0079c531659141344cd1fd0a4f28419497f9722a3daafe3b4186f6b6457e08280a3005b346101aa5760203660031901126101aa576001600160a01b03610cc36112bd565b168015610ce25760005260036020526020604060002054604051908152f35b6040516322718ad960e21b815260006004820152602490fd5b346101aa5760203660031901126101aa57600435600081815260026020526040902054610d32906001600160a01b031615156118e5565b6000526008602052602060018060a01b0360016040600020015416604051908152f35b346101aa5760203660031901126101aa576020610d736004356117d1565b6040516001600160a01b039091168152f35b346101aa5760003660031901126101aa576040517f00000000000000000000000000000000000000000000000000000000000000006001600160a01b03168152602090f35b346101aa57610a96610ddb366112e9565b9060405192610de98461133a565b6000845261167e565b346101aa576020806003193601126101aa5760043590610e10611879565b610e19826117d1565b6001600160a01b0392903390841603610ff257806000526008825260406000209260405193610e478561131e565b80548552610e7560038360018401541692868801938452610e6a60028201611405565b604089015201611405565b6060860152826000526002845281604060002054168360008215928315610fbf575b828252600288526040822080546001600160a01b03191690557fddf252ad1be2c89b69c2b068fc378daa952ba7f163c4a11628f55a4df523b3ef8280a4610fa6578051855160405163a9059cbb60e01b815233600482015260248101919091529085908290604490829060009088165af180156106dd57610f1f91600091610f895750611824565b8260005260088452610f4e600360406000206000815560006001820155610f486002820161189c565b0161189c565b51169251916040519283528201527f06cc7e90b4f2b554a9614b0caa84f909f3498c820ae47c731f490c28c07f7d3b60403392a36001600655005b610fa09150863d88116106d6576106c88183611356565b876102c6565b604051637e27328960e01b815260048101849052602490fd5b600083815260046020526040902080546001600160a01b0319169055808252600388526040822082198154019055610e97565b60405162461bcd60e51b81526004810183905260116024820152702737ba103a34329027232a1037bbb732b960791b6044820152606490fd5b346101aa57610a9661103c366112e9565b916114f5565b346101aa5760403660031901126101aa5761105b6112bd565b602435611067816117d1565b33151580611116575b806110e9575b6110d1576001600160a01b039283169282918491167f8c5be1e5ebec7d5bd14f71427d1e84f3dd0314c0f7b2291e5b200ac8c7c3b925600080a4600090815260046020526040902080546001600160a01b0319169091179055005b60405163a9fbf51f60e01b8152336004820152602490fd5b5060018060a01b038116600052600560205260406000203360005260205260ff6040600020541615611076565b506001600160a01b038116331415611070565b346101aa5760203660031901126101aa57600435611146816117d1565b506000526004602052602060018060a01b0360406000205416604051908152f35b346101aa5760003660031901126101aa5760405160008054611188816113cb565b80845290600190818116908115610bf557506001146111b1576107ad84610b8881860382611356565b600080805292507f290decd9548b62a8d60345a988386fc84ba6bc95484008f6362f93160ef3e5635b8284106111f2575050508101602001610b8882610b78565b805460208587018101919091529093019281016111da565b346101aa5760203660031901126101aa576004359063ffffffff60e01b82168092036101aa576020916380ac58cd60e01b8114908115611264575b8115611253575b5015158152f35b6301ffc9a760e01b1490508361124c565b635b5e139f60e01b81149150611245565b60005b8381106112885750506000910152565b8181015183820152602001611278565b906020916112b181518092818552858086019101611275565b601f01601f1916010190565b600435906001600160a01b03821682036101aa57565b602435906001600160a01b03821682036101aa57565b60609060031901126101aa576001600160a01b039060043582811681036101aa579160243590811681036101aa579060443590565b6080810190811067ffffffffffffffff82111761056557604052565b6020810190811067ffffffffffffffff82111761056557604052565b90601f8019910116810190811067ffffffffffffffff82111761056557604052565b67ffffffffffffffff811161056557601f01601f191660200190565b9291926113a082611378565b916113ae6040519384611356565b8294818452818301116101aa578281602093846000960137010152565b90600182811c921680156113fb575b60208310146113e557565b634e487b7160e01b600052602260045260246000fd5b91607f16916113da565b9060405191826000825492611419846113cb565b9081845260019485811690816000146114885750600114611445575b505061144392500383611356565b565b9093915060005260209081600020936000915b81831061147057505061144393508201013880611435565b85548884018501529485019487945091830191611458565b91505061144394506020925060ff191682840152151560051b8201013880611435565b9080601f830112156101aa578160206114c693359101611394565b90565b6007546001600160a01b031633036114dd57565b60405163118cdaa760e01b8152336004820152602490fd5b6001600160a01b03918216929091831561067f576000928284528260209560028752604096848888205416968791331515806115e5575b509060027fddf252ad1be2c89b69c2b068fc378daa952ba7f163c4a11628f55a4df523b3ef92846115b2575b858352600381528b8320805460010190558683525289812080546001600160a01b0319168517905580a416928383036115915750505050565b6064945051926364283d7b60e01b8452600484015260248301526044820152fd5b600087815260046020526040902080546001600160a01b0319169055848352600381528b83208054600019019055611558565b9193945091508061163d575b156116015785929187913861152c565b87868861161e576024915190637e27328960e01b82526004820152fd5b905163177e802f60e01b81523360048201526024810191909152604490fd5b503387148015611662575b806115f157508582526004815233858984205416146115f1565b5086825260058152878220338352815260ff8883205416611648565b6116898383836114f5565b813b611696575b50505050565b604051630a85bd0160e11b8082523360048301526001600160a01b039283166024830152604482019490945260806064820152602095929091169390929083906116e4906084830190611298565b039285816000958187895af184918161178d575b50611758575050503d600014611750573d61171281611378565b906117206040519283611356565b81528091843d92013e5b8051928361174b57604051633250574960e11b815260048101849052602490fd5b019050fd5b50606061172a565b919450915063ffffffff60e01b1603611775575038808080611690565b60249060405190633250574960e11b82526004820152fd5b9091508681813d83116117ca575b6117a58183611356565b810103126117c657516001600160e01b0319811681036117c65790386116f8565b8480fd5b503d61179b565b6000818152600260205260409020546001600160a01b03169081156117f4575090565b60249060405190637e27328960e01b82526004820152fd5b908160209103126101aa575180151581036101aa5790565b1561182b57565b60405162461bcd60e51b815260206004820152600f60248201526e151c985b9cd9995c8819985a5b1959608a1b6044820152606490fd5b81811061186d575050565b60008155600101611862565b60026006541461188a576002600655565b604051633ee5aeb560e01b8152600490fd5b6118a681546113cb565b90816118b0575050565b81601f600093116001146118c2575055565b9080839182526118e1601f60208420940160051c840160018501611862565b5555565b156118ec57565b60405162461bcd60e51b8152602060048201526014602482015273151bdad95b88191bd95cc81b9bdd08195e1a5cdd60621b6044820152606490fd5b805115611a2c5780516002918282018092116106985760039182900480841b94906001600160fe1b03811603610698579261197b61196586611378565b956119736040519788611356565b808752611378565b6020860190601f190136823793829183518401906020820192835194600085525b8381106119db5750505050525106806001146119c8576002146119bd575090565b603d90600019015390565b50603d9081600019820153600119015390565b87600491999293949901918251600190603f9082828260121c16880101518453828282600c1c16880101518385015382828260061c168801015188850153168501015189820153019792919061199c565b5050604051611a3a8161133a565b600081529056fea2646970667358221220ab44acc36fed2e7e3dd7ba4d648ffa136c8498b3d9472ab870853e8d4bf452d564736f6c63430008140033",
  "linkReferences": {},
  "deployedLinkReferences": {}
}