{
  "_format": "hh-sol-artifact-1",
  "contractName": "PatentStaking",
  "sourceName": "contracts/PatentStaking.sol",
  "abi": [
    {
      "inputs": [
        {
          "internalType": "address",
          "name": "_patentFactory",
          "type": "address"
        }
      ],
      "stateMutability": "nonpayable",
      "type": "constructor"
    },
    {
      "inputs": [
        {
          "internalType": "address",
          "name": "sender",
          "type": "address"
        },
        {
          "internalType": "uint256",
          "name": "tokenId",
          "type": "uint256"
        },
        {
          "internalType": "address",
          "name": "owner",
          "type": "address"
        }
      ],
      "name": "ERC721IncorrectOwner",
      "type": "error"
    },
    {
      "inputs": [
        {
          "internalType": "address",
          "name": "operator",
          "type": "address"
        },
        {
          "internalType": "uint256",
          "name": "tokenId",
          "type": "uint256"
        }
      ],
      "name": "ERC721InsufficientApproval",
      "type": "error"
    },
    {
      "inputs": [
        {
          "internalType": "address",
          "name": "approver",
          "type": "address"
        }
      ],
      "name": "ERC721InvalidApprover",
      "type": "error"
    },
    {
      "inputs": [
        {
          "internalType": "address",
          "name": "operator",
          "type": "address"
        }
      ],
      "name": "ERC721InvalidOperator",
      "type": "error"
    },
    {
      "inputs": [
        {
          "internalType": "address",
          "name": "owner",
          "type": "address"
        }
      ],
      "name": "ERC721InvalidOwner",
      "type": "error"
    },
    {
      "inputs": [
        {
          "internalType": "address",
          "name": "receiver",
          "type": "address"
        }
      ],
      "name": "ERC721InvalidReceiver",
      "type": "error"
    },
    {
      "inputs": [
        {
          "internalType": "address",
          "name": "sender",
          "type": "address"
        }
      ],
      "name": "ERC721InvalidSender",
      "type": "error"
    },
    {
      "inputs": [
        {
          "internalType": "uint256",
          "name": "tokenId",
          "type": "uint256"
        }
      ],
      "name": "ERC721NonexistentToken",
      "type": "error"
    },
    {
      "inputs": [
        {
          "internalType": "address",
          "name": "owner",
          "type": "address"
        }
      ],
      "name": "OwnableInvalidOwner",
      "type": "error"
    },
    {
      "inputs": [
        {
          "internalType": "address",
          "name": "account",
          "type": "address"
        }
      ],
      "name": "OwnableUnauthorizedAccount",
      "type": "error"
    },
    {
      "inputs": [],
      "name": "ReentrancyGuardReentrantCall",
      "type": "error"
    },
    {
      "anonymous": false,
      "inputs": [
        {
          "indexed": true,
          "internalType": "address",
          "name": "owner",
          "type": "address"
        },
        {
          "indexed": true,
          "internalType": "address",
          "name": "approved",
          "type": "address"
        },
        {
          "indexed": true,
          "internalType": "uint256",
          "name": "tokenId",
          "type": "uint256"
        }
      ],
      "name": "Approval",
      "type": "event"
    },
    {
      "anonymous": false,
      "inputs": [
        {
          "indexed": true,
          "internalType": "address",
          "name": "owner",
          "type": "address"
        },
        {
          "indexed": true,
          "internalType": "address",
          "name": "operator",
          "type": "address"
        },
        {
          "indexed": false,
          "internalType": "bool",
          "name": "approved",
          "type": "bool"
        }
      ],
      "name": "ApprovalForAll",
      "type": "event"
    },
    {
      "anonymous": false,
      "inputs": [
        {
          "indexed": true,
          "internalType": "address",
          "name": "previousOwner",
          "type": "address"
        },
        {
          "indexed": true,
          "internalType": "address",
          "name": "newOwner",
          "type": "address"
        }
      ],
      "name": "OwnershipTransferred",
      "type": "event"
    },
    {
      "anonymous": false,
      "inputs": [
        {
          "indexed": true,
          "internalType": "address",
          "name": "user",
          "type": "address"
        },
        {
          "indexed": true,
          "internalType": "address",
          "name": "patentToken",
          "type": "address"
        },
        {
          "indexed": false,
          "internalType": "uint256",
          "name": "amount",
          "type": "uint256"
        },
        {
          "indexed": false,
          "internalType": "uint256",
          "name": "nftId",
          "type": "uint256"
        }
      ],
      "name": "Staked",
      "type": "event"
    },
    {
      "anonymous": false,
      "inputs": [
        {
          "indexed": true,
          "internalType": "address",
          "name": "from",
          "type": "address"
        },
        {
          "indexed": true,
          "internalType": "address",
          "name": "to",
          "type": "address"
        },
        {
          "indexed": true,
          "internalType": "uint256",
          "name": "tokenId",
          "type": "uint256"
        }
      ],
      "name": "Transfer",
      "type": "event"
    },
    {
      "anonymous": false,
      "inputs": [
        {
          "indexed": true,
          "internalType": "address",
          "name": "user",
          "type": "address"
        },
        {
          "indexed": true,
          "internalType": "address",
          "name": "patentToken",
          "type": "address"
        },
        {
          "indexed": false,
          "internalType": "uint256",
          "name": "amount",
          "type": "uint256"
        },
        {
          "indexed": false,
          "internalType": "uint256",
          "name": "nftId",
          "type": "uint256"
        }
      ],
      "name": "Unstaked",
      "type": "event"
    },
    {
      "inputs": [],
      "name": "STAKE_REQUIREMENT",
      "outputs": [
        {
          "internalType": "uint256",
          "name": "",
          "type": "uint256"
        }
      ],
      "stateMutability": "view",
      "type": "function"
    },
    {
      "inputs": [
        {
          "internalType": "address",
          "name": "to",
          "type": "address"
        },
        {
          "internalType": "uint256",
          "name": "tokenId",
          "type": "uint256"
        }
      ],
      "name": "approve",
      "outputs": [],
      "stateMutability": "nonpayable",
      "type": "function"
    },
    {
      "inputs": [
        {
          "internalType": "address",
          "name": "owner",
          "type": "address"
        }
      ],
      "name": "balanceOf",
      "outputs": [
        {
          "internalType": "uint256",
          "name": "",
          "type": "uint256"
        }
      ],
      "stateMutability": "view",
      "type": "function"
    },
    {
      "inputs": [
        {
          "internalType": "uint256",
          "name": "tokenId",
          "type": "uint256"
        }
      ],
      "name": "getApproved",
      "outputs": [
        {
          "internalType": "address",
          "name": "",
          "type": "address"
        }
      ],
      "stateMutability": "view",
      "type": "function"
    },
    {
      "inputs": [
        {
          "internalType": "uint256",
          "name": "tokenId",
          "type": "uint256"
        }
      ],
      "name": "getPatentTokenForNFT",
      "outputs": [
        {
          "internalType": "address",
          "name": "",
          "type": "address"
        }
      ],
      "stateMutability": "view",
      "type": "function"
    },
    {
      "inputs": [
        {
          "internalType": "address",
          "name": "owner",
          "type": "address"
        },
        {
          "internalType": "address",
          "name": "operator",
          "type": "address"
        }
      ],
      "name": "isApprovedForAll",
      "outputs": [
        {
          "internalType": "bool",
          "name": "",
          "type": "bool"
        }
      ],
      "stateMutability": "view",
      "type": "function"
    },
    {
      "inputs": [],
      "name": "name",
      "outputs": [
        {
          "internalType": "string",
          "name": "",
          "type": "string"
        }
      ],
      "stateMutability": "view",
      "type": "function"
    },
    {
      "inputs": [
        {
          "internalType": "address",
          "name": "",
          "type": "address"
        }
      ],
      "name": "nextTokenId",
      "outputs": [
        {
          "internalType": "uint256",
          "name": "",
          "type": "uint256"
        }
      ],
      "stateMutability": "view",
      "type": "function"
    },
    {
      "inputs": [],
      "name": "owner",
      "outputs": [
        {
          "internalType": "address",
          "name": "",
          "type": "address"
        }
      ],
      "stateMutability": "view",
      "type": "function"
    },
    {
      "inputs": [
        {
          "internalType": "uint256",
          "name": "tokenId",
          "type": "uint256"
        }
      ],
      "name": "ownerOf",
      "outputs": [
        {
          "internalType": "address",
          "name": "",
          "type": "address"
        }
      ],
      "stateMutability": "view",
      "type": "function"
    },
    {
      "inputs": [],
      "name": "patentFactory",
      "outputs": [
        {
          "internalType": "address",
          "name": "",
          "type": "address"
        }
      ],
      "stateMutability": "view",
      "type": "function"
    },
    {
      "inputs": [],
      "name": "renounceOwnership",
      "outputs": [],
      "stateMutability": "nonpayable",
      "type": "function"
    },
    {
      "inputs": [
        {
          "internalType": "address",
          "name": "from",
          "type": "address"
        },
        {
          "internalType": "address",
          "name": "to",
          "type": "address"
        },
        {
          "internalType": "uint256",
          "name": "tokenId",
          "type": "uint256"
        }
      ],
      "name": "safeTransferFrom",
      "outputs": [],
      "stateMutability": "nonpayable",
      "type": "function"
    },
    {
      "inputs": [
        {
          "internalType": "address",
          "name": "from",
          "type": "address"
        },
        {
          "internalType": "address",
          "name": "to",
          "type": "address"
        },
        {
          "internalType": "uint256",
          "name": "tokenId",
          "type": "uint256"
        },
        {
          "internalType": "bytes",
          "name": "data",
          "type": "bytes"
        }
      ],
      "name": "safeTransferFrom",
      "outputs": [],
      "stateMutability": "nonpayable",
      "type": "function"
    },
    {
      "inputs": [
        {
          "internalType": "address",
          "name": "operator",
          "type": "address"
        },
        {
          "internalType": "bool",
          "name": "approved",
          "type": "bool"
        }
      ],
      "name": "setApprovalForAll",
      "outputs": [],
      "stateMutability": "nonpayable",
      "type": "function"
    },
    {
      "inputs": [
        {
          "internalType": "address",
          "name": "patentToken",
          "type": "address"
        },
        {
          "internalType": "uint256",
          "name": "amount",
          "type": "uint256"
        }
      ],
      "name": "stake",
      "outputs": [],
      "stateMutability": "nonpayable",
      "type": "function"
    },
    {
      "inputs": [
        {
          "internalType": "uint256",
          "name": "",
          "type": "uint256"
        }
      ],
      "name": "stakedAmount",
      "outputs": [
        {
          "internalType": "uint256",
          "name": "",
          "type": "uint256"
        }
      ],
      "stateMutability": "view",
      "type": "function"
    },
    {
      "inputs": [
        {
          "internalType": "bytes4",
          "name": "interfaceId",
          "type": "bytes4"
        }
      ],
      "name": "supportsInterface",
      "outputs": [
        {
          "internalType": "bool",
          "name": "",
          "type": "bool"
        }
      ],
      "stateMutability": "view",
      "type": "function"
    },
    {
      "inputs": [],
      "name": "symbol",
      "outputs": [
        {
          "internalType": "string",
          "name": "",
          "type": "string"
        }
      ],
      "stateMutability": "view",
      "type": "function"
    },
    {
      "inputs": [
        {
          "internalType": "uint256",
          "name": "tokenId",
          "type": "uint256"
        }
      ],
      "name": "tokenURI",
      "outputs": [
        {
          "internalType": "string",
          "name": "",
          "type": "string"
        }
      ],
      "stateMutability": "view",
      "type": "function"
    },
    {
      "inputs": [
        {
          "internalType": "address",
          "name": "from",
          "type": "address"
        },
        {
          "internalType": "address",
          "name": "to",
          "type": "address"
        },
        {
          "internalType": "uint256",
          "name": "tokenId",
          "type": "uint256"
        }
      ],
      "name": "transferFrom",
      "outputs": [],
      "stateMutability": "nonpayable",
      "type": "function"
    },
    {
      "inputs": [
        {
          "internalType": "address",
          "name": "newOwner",
          "type": "address"
        }
      ],
      "name": "transferOwnership",
      "outputs": [],
      "stateMutability": "nonpayable",
      "type": "function"
    },
    {
      "inputs": [
        {
          "internalType": "uint256",
          "name": "tokenId",
          "type": "uint256"
        }
      ],
      "name": "unstake",
      "outputs": [],
      "stateMutability": "nonpayable",
      "type": "function"
    }
  ],
  "bytecode": "0x60a0346200041a57601f1990601f906001600160401b036200168938819003848101861684018381118582101762000404578492829160405283396020938491810103126200041a5751936001600160a01b0393848616928387036200041a57620000696200041f565b91601383527f506174656e742055736167652052696768747300000000000000000000000000868401526200009d6200041f565b6003815262282aa960e91b8782015283519483861162000404576000958654956001968781811c91168015620003f9575b8b821014620003e55790818684931162000392575b508a908683116001146200032f57899262000323575b5050600019600383901b1c191690861b1786555b81519384116200030f5784548581811c9116801562000304575b89821014620002f057908184869594931162000299575b508892841160011462000238575085926200022c575b5050600019600383901b1c191690821b1781555b60065533156200021457600754903360018060a01b03198316176007557f8be0079c531659141344cd1fd0a4f28419497f9722a3daafe3b4186f6b6457e0604051953393169180a315620001d357826080526040516112499081620004408239608051816108a50152f35b62461bcd60e51b82526004820152601760248201527f496e76616c696420666163746f72792061646472657373000000000000000000604482015260649150fd5b60249060405190631e4fbdf760e01b82526004820152fd5b01519050388062000154565b85875288872086959093929116875b8a82821062000282575050841162000268575b505050811b01815562000168565b015160001960f88460031b161c191690553880806200025a565b838501518655889790950194938401930162000247565b90919293508587528887208480870160051c8201928b8810620002e6575b9187968992969594930160051c01915b828110620002d75750506200013e565b898155879650889101620002c7565b92508192620002b7565b634e487b7160e01b87526022600452602487fd5b90607f169062000127565b634e487b7160e01b86526041600452602486fd5b015190503880620000f9565b9084899416918a80528c8b20928d8c905b8282106200037a575050841162000360575b505050811b0186556200010d565b015160001960f88460031b161c1916905538808062000352565b8385015186558c979095019493840193018e62000340565b9091508880528a89208680850160051c8201928d8610620003db575b918a91869594930160051c01915b828110620003cc575050620000e3565b8b81558594508a9101620003bc565b92508192620003ae565b634e487b7160e01b89526022600452602489fd5b90607f1690620000ce565b634e487b7160e01b600052604160045260246000fd5b600080fd5b60408051919082016001600160401b03811183821017620004045760405256fe6080604081815260048036101561001557600080fd5b600092833560e01c90816301ffc9a714610cc05750806306fdde0314610bf5578063081812fc14610bba578063095ea7b314610ade57806323b872dd14610ac65780632e17de78146108fd57806342842e0e146108d457806358722a07146108905780635a459ed4146108695780636352211e1461083857806368ee9d6d1461081757806370a08231146107c2578063715018a6146107655780638da5cb5b1461073c57806395d89b4114610623578063a22cb46514610582578063adc9772e1461033c578063b88d4fde146102b3578063c118258b1461028f578063c852b1bf14610257578063c87b56dd14610204578063e985e9c5146101b25763f2fde38b1461012057600080fd5b346101ae5760203660031901126101ae57610139610d6c565b90610142610e42565b6001600160a01b03918216928315610198575050600754826bffffffffffffffffffffffff60a01b821617600755167f8be0079c531659141344cd1fd0a4f28419497f9722a3daafe3b4186f6b6457e08380a380f35b51631e4fbdf760e01b8152908101849052602490fd5b8280fd5b50503461020057806003193601126102005760ff816020936101d2610d6c565b6101da610d87565b6001600160a01b0391821683526005875283832091168252855220549151911615158152f35b5080fd5b5091903461020057602036600319011261020057610225610253933561115f565b5081815161023281610dd2565b5280519161023f83610dd2565b825251918291602083526020830190610d2c565b0390f35b5050346102005760203660031901126102005760209181906001600160a01b0361027f610d6c565b1681526009845220549051908152f35b50503461020057816003193601126102005760209051683635c9adc5dea000008152f35b5090346101ae5760803660031901126101ae576102ce610d6c565b6102d6610d87565b846064359467ffffffffffffffff86116102005736602387011215610200578501359461030e61030587610e26565b95519586610e04565b8585523660248783010111610200578561033996602460209301838801378501015260443591611010565b80f35b50346101ae57816003193601126101ae57610355610d6c565b916024928335926103646111f0565b683635c9adc5dea0000084106105405782516323b872dd60e01b815233828201523081870152604481018590526001600160a01b0392831695602092909183816064818c8c5af190811561053657906103c4918a91610509575b506111b2565b86885260098352848820805494600019918287146104f75760018701905533156104e1578590818b5260028652878b20541680151592836104af575b5033808c5260038752888c2080546001019055828c5260028752888c2080546001600160a01b03191682179055907fddf252ad1be2c89b69c2b068fc378daa952ba7f163c4a11628f55a4df523b3ef8c80a461049b575050907f6c86f3fd5118b3aa8bb4f389a617046de0a3d3d477de1a1673d227f802f616dc929181875260088152848388205582519485528401523392a3600160065580f35b84516339e3563760e11b8152908101889052fd5b600083815260046020526040902080546001600160a01b0319169055818c5260038752888c2090815401905538610400565b50508451633250574960e11b8152908101889052fd5b634e487b7160e01b8b5260118452848bfd5b6105299150853d871161052f575b6105218183610e04565b81019061119a565b386103be565b503d610517565b86513d8b823e3d90fd5b606490601f86602086519362461bcd60e51b85528401528201527f4d757374207374616b65206174206c65617374203130303020746f6b656e73006044820152fd5b5090346101ae57806003193601126101ae5761059c610d6c565b906024359182151580930361061f576001600160a01b031692831561060a5750338452600560205280842083855260205280842060ff1981541660ff8416179055519081527f17307eab39ab6107e8899845ad3d59bd9653f200f220920489ca2b5937696c3160203392a380f35b836024925191630b61174360e31b8352820152fd5b8480fd5b5091346107395780600319360112610739578151918160019283549384811c9181861695861561072f575b602096878510811461071c578899509688969785829a5291826000146106f557505060011461069a575b505050610253929161068b910385610e04565b51928284938452830190610d2c565b91908693508083527fb10e2d527612073b26eecdfd717e6a320cf44b4afac2b0732d9fcbe2b7fa0cf65b8284106106dd575050508201018161068b610253610678565b8054848a0186015288955087949093019281016106c4565b60ff19168782015293151560051b8601909301935084925061068b91506102539050610678565b634e487b7160e01b835260228a52602483fd5b92607f169261064e565b80fd5b50503461020057816003193601126102005760075490516001600160a01b039091168152602090f35b833461073957806003193601126107395761077e610e42565b600780546001600160a01b0319811690915581906001600160a01b03167f8be0079c531659141344cd1fd0a4f28419497f9722a3daafe3b4186f6b6457e08280a380f35b509134610739576020366003190112610739576001600160a01b036107e5610d6c565b169283156108025750806020938392526003845220549051908152f35b91516322718ad960e21b815291820152602490fd5b5090346101ae5760203660031901126101ae576020925051903560601c8152f35b50913461073957602036600319011261073957506108586020923561115f565b90516001600160a01b039091168152f35b50346101ae5760203660031901126101ae5760209282913581526008845220549051908152f35b505034610200578160031936011261020057517f00000000000000000000000000000000000000000000000000000000000000006001600160a01b03168152602090f35b50503461020057610339906108e836610d9d565b919251926108f584610dd2565b858452611010565b50919034610200576020806003193601126101ae5783359161091d6111f0565b6109268361115f565b6001600160a01b0393903390851603610a8f578085526008835281852054928160601c9460028252838720541682878215928315610a5c575b8282526002855286822080546001600160a01b03191690557fddf252ad1be2c89b69c2b068fc378daa952ba7f163c4a11628f55a4df523b3ef8280a4610a4557825163a9059cbb60e01b81523397810197885260208801859052959681908790819060400103818a895af1958615610a3b577f06cc7e90b4f2b554a9614b0caa84f909f3498c820ae47c731f490c28c07f7d3b949596610a05918991610a2457506111b2565b81875260088152868381205582519485528401523392a3600160065580f35b6105299150833d851161052f576105218183610e04565b83513d89823e3d90fd5b8251637e27328960e01b8152808801839052602490fd5b600083815260046020526040902080546001600160a01b031916905580825260038552868220805460001901905561095f565b815162461bcd60e51b815280870184905260116024820152702737ba103a34329027232a1037bbb732b960791b6044820152606490fd5b833461073957610339610ad836610d9d565b91610e6e565b5090346101ae57806003193601126101ae57610af8610d6c565b91602435610b058161115f565b33151580610ba7575b80610b7e575b610b68576001600160a01b039485169482918691167f8c5be1e5ebec7d5bd14f71427d1e84f3dd0314c0f7b2291e5b200ac8c7c3b9258880a48452602052822080546001600160a01b031916909117905580f35b835163a9fbf51f60e01b81523381850152602490fd5b506001600160a01b03811686526005602090815284872033885290528386205460ff1615610b14565b506001600160a01b038116331415610b0e565b50346101ae5760203660031901126101ae57918260209335610bdb8161115f565b50825283528190205490516001600160a01b039091168152f35b50913461073957806003193601126107395781519181825492600184811c91818616958615610cb6575b602096878510811461071c578899509688969785829a5291826000146106f5575050600114610c5b57505050610253929161068b910385610e04565b91908693508280527f290decd9548b62a8d60345a988386fc84ba6bc95484008f6362f93160ef3e5635b828410610c9e575050508201018161068b610253610678565b8054848a018601528895508794909301928101610c85565b92607f1692610c1f565b925050346101ae5760203660031901126101ae573563ffffffff60e01b81168091036101ae57602092506380ac58cd60e01b8114908115610d1b575b8115610d0a575b5015158152f35b6301ffc9a760e01b14905038610d03565b635b5e139f60e01b81149150610cfc565b919082519283825260005b848110610d58575050826000602080949584010152601f8019910116010190565b602081830181015184830182015201610d37565b600435906001600160a01b0382168203610d8257565b600080fd5b602435906001600160a01b0382168203610d8257565b6060906003190112610d82576001600160a01b03906004358281168103610d8257916024359081168103610d82579060443590565b6020810190811067ffffffffffffffff821117610dee57604052565b634e487b7160e01b600052604160045260246000fd5b90601f8019910116810190811067ffffffffffffffff821117610dee57604052565b67ffffffffffffffff8111610dee57601f01601f191660200190565b6007546001600160a01b03163303610e5657565b60405163118cdaa760e01b8152336004820152602490fd5b6001600160a01b039182169290918315610ff757600092828452826020956002875260409684888820541696879133151580610f5e575b509060027fddf252ad1be2c89b69c2b068fc378daa952ba7f163c4a11628f55a4df523b3ef9284610f2b575b858352600381528b8320805460010190558683525289812080546001600160a01b0319168517905580a41692838303610f0a5750505050565b6064945051926364283d7b60e01b8452600484015260248301526044820152fd5b600087815260046020526040902080546001600160a01b0319169055848352600381528b83208054600019019055610ed1565b91939450915080610fb6575b15610f7a57859291879138610ea5565b878688610f97576024915190637e27328960e01b82526004820152fd5b905163177e802f60e01b81523360048201526024810191909152604490fd5b503387148015610fdb575b80610f6a5750858252600481523385898420541614610f6a565b5086825260058152878220338352815260ff8883205416610fc1565b604051633250574960e11b815260006004820152602490fd5b61101b838383610e6e565b813b611028575b50505050565b604051630a85bd0160e11b8082523360048301526001600160a01b03928316602483015260448201949094526080606482015260209592909116939092908390611076906084830190610d2c565b039285816000958187895af184918161111f575b506110ea575050503d6000146110e2573d6110a481610e26565b906110b26040519283610e04565b81528091843d92013e5b805192836110dd57604051633250574960e11b815260048101849052602490fd5b019050fd5b5060606110bc565b919450915063ffffffff60e01b1603611107575038808080611022565b60249060405190633250574960e11b82526004820152fd5b9091508681813d8311611158575b6111378183610e04565b8101031261061f57516001600160e01b03198116810361061f57903861108a565b503d61112d565b6000818152600260205260409020546001600160a01b0316908115611182575090565b60249060405190637e27328960e01b82526004820152fd5b90816020910312610d8257518015158103610d825790565b156111b957565b60405162461bcd60e51b815260206004820152600f60248201526e151c985b9cd9995c8819985a5b1959608a1b6044820152606490fd5b600260065414611201576002600655565b604051633ee5aeb560e01b8152600490fdfea2646970667358221220f6a219ca0699d3487e1b0aa8a7e3383c0a222b83e400591e04f29904d89e9caa64736f6c63430008140033",
  "linkReferences": {},
  "deployedLinkReferences": {}
}