{
  "_format": "hh-sol-artifact-1",
  "contractName": "PatentRegistry",
  "sourceName": "contracts/IPatentRegistry.sol",
  "abi": [
    {
      "inputs": [],
      "stateMutability": "nonpayable",
      "type": "constructor"
    },
    {
      "anonymous": false,
      "inputs": [
        {
          "indexed": true,
          "internalType": "address",
          "name": "previousOwner",
          "type": "address"
        },
        {
          "indexed": true,
          "internalType": "address",
          "name": "newOwner",
          "type": "address"
        }
      ],
      "name": "OwnershipTransferred",
      "type": "event"
    },
    {
      "anonymous": false,
      "inputs": [
        {
          "indexed": true,
          "internalType": "uint256",
          "name": "patentId",
          "type": "uint256"
        },
        {
          "indexed": false,
          "internalType": "string",
          "name": "title",
          "type": "string"
        },
        {
          "indexed": false,
          "internalType": "address",
          "name": "inventor",
          "type": "address"
        }
      ],
      "name": "PatentRegistered",
      "type": "event"
    },
    {
      "anonymous": false,
      "inputs": [
        {
          "indexed": true,
          "internalType": "uint256",
          "name": "patentId",
          "type": "uint256"
        },
        {
          "indexed": false,
          "internalType": "string",
          "name": "ipfsHash",
          "type": "string"
        }
      ],
      "name": "PatentUpdated",
      "type": "event"
    },
    {
      "anonymous": false,
      "inputs": [
        {
          "indexed": true,
          "internalType": "uint256",
          "name": "patentId",
          "type": "uint256"
        }
      ],
      "name": "PatentVerified",
      "type": "event"
    },
    {
      "anonymous": false,
      "inputs": [
        {
          "indexed": false,
          "internalType": "address",
          "name": "account",
          "type": "address"
        }
      ],
      "name": "Paused",
      "type": "event"
    },
    {
      "anonymous": false,
      "inputs": [
        {
          "indexed": false,
          "internalType": "address",
          "name": "account",
          "type": "address"
        }
      ],
      "name": "Unpaused",
      "type": "event"
    },
    {
      "inputs": [
        {
          "internalType": "address",
          "name": "inventor",
          "type": "address"
        }
      ],
      "name": "getInventorPatents",
      "outputs": [
        {
          "internalType": "uint256[]",
          "name": "",
          "type": "uint256[]"
        }
      ],
      "stateMutability": "view",
      "type": "function"
    },
    {
      "inputs": [
        {
          "internalType": "uint256",
          "name": "patentId",
          "type": "uint256"
        }
      ],
      "name": "getPatent",
      "outputs": [
        {
          "internalType": "string",
          "name": "title",
          "type": "string"
        },
        {
          "internalType": "string",
          "name": "ipfsHash",
          "type": "string"
        },
        {
          "internalType": "uint256",
          "name": "price",
          "type": "uint256"
        },
        {
          "internalType": "bool",
          "name": "isForSale",
          "type": "bool"
        },
        {
          "internalType": "address",
          "name": "inventor",
          "type": "address"
        },
        {
          "internalType": "uint256",
          "name": "createdAt",
          "type": "uint256"
        },
        {
          "internalType": "string",
          "name": "patentIdStr",
          "type": "string"
        },
        {
          "internalType": "bool",
          "name": "isVerified",
          "type": "bool"
        }
      ],
      "stateMutability": "view",
      "type": "function"
    },
    {
      "inputs": [],
      "name": "getTotalPatents",
      "outputs": [
        {
          "internalType": "uint256",
          "name": "",
          "type": "uint256"
        }
      ],
      "stateMutability": "view",
      "type": "function"
    },
    {
      "inputs": [],
      "name": "owner",
      "outputs": [
        {
          "internalType": "address",
          "name": "",
          "type": "address"
        }
      ],
      "stateMutability": "view",
      "type": "function"
    },
    {
      "inputs": [
        {
          "internalType": "string",
          "name": "patentId",
          "type": "string"
        }
      ],
      "name": "patentExists",
      "outputs": [
        {
          "internalType": "bool",
          "name": "",
          "type": "bool"
        }
      ],
      "stateMutability": "view",
      "type": "function"
    },
    {
      "inputs": [],
      "name": "pause",
      "outputs": [],
      "stateMutability": "nonpayable",
      "type": "function"
    },
    {
      "inputs": [],
      "name": "paused",
      "outputs": [
        {
          "internalType": "bool",
          "name": "",
          "type": "bool"
        }
      ],
      "stateMutability": "view",
      "type": "function"
    },
    {
      "inputs": [
        {
          "internalType": "string",
          "name": "title",
          "type": "string"
        },
        {
          "internalType": "string",
          "name": "ipfsHash",
          "type": "string"
        },
        {
          "internalType": "string",
          "name": "patentId",
          "type": "string"
        }
      ],
      "name": "registerPatent",
      "outputs": [
        {
          "internalType": "uint256",
          "name": "",
          "type": "uint256"
        }
      ],
      "stateMutability": "nonpayable",
      "type": "function"
    },
    {
      "inputs": [],
      "name": "renounceOwnership",
      "outputs": [],
      "stateMutability": "nonpayable",
      "type": "function"
    },
    {
      "inputs": [
        {
          "internalType": "uint256",
          "name": "patentId",
          "type": "uint256"
        },
        {
          "internalType": "uint256",
          "name": "newPrice",
          "type": "uint256"
        }
      ],
      "name": "setPatentPrice",
      "outputs": [],
      "stateMutability": "nonpayable",
      "type": "function"
    },
    {
      "inputs": [
        {
          "internalType": "address",
          "name": "newOwner",
          "type": "address"
        }
      ],
      "name": "transferOwnership",
      "outputs": [],
      "stateMutability": "nonpayable",
      "type": "function"
    },
    {
      "inputs": [],
      "name": "unpause",
      "outputs": [],
      "stateMutability": "nonpayable",
      "type": "function"
    },
    {
      "inputs": [
        {
          "internalType": "uint256",
          "name": "patentId",
          "type": "uint256"
        },
        {
          "internalType": "string",
          "name": "newIpfsHash",
          "type": "string"
        }
      ],
      "name": "updatePatentMetadata",
      "outputs": [],
      "stateMutability": "nonpayable",
      "type": "function"
    },
    {
      "inputs": [
        {
          "internalType": "uint256",
          "name": "patentId",
          "type": "uint256"
        }
      ],
      "name": "verifyPatent",
      "outputs": [],
      "stateMutability": "nonpayable",
      "type": "function"
    }
  ],
  "bytecode": "0x60806040526001805534801561001457600080fd5b50336000806101000a81548173ffffffffffffffffffffffffffffffffffffffff021916908373ffffffffffffffffffffffffffffffffffffffff16021790555060008060146101000a81548160ff02191690831515021790555061246f8061007e6000396000f3fe608060405234801561001057600080fd5b50600436106100ea5760003560e01c8063715018a61161008c5780639c6d0d78116100665780639c6d0d78146101eb578063b3b412f114610222578063b6cc81c814610252578063f2fde38b14610282576100ea565b8063715018a6146101b95780638456cb59146101c35780638da5cb5b146101cd576100ea565b80633f4ba83a116100c85780633f4ba83a1461014357806345cd275f1461014d57806350674e651461017d5780635c975abb1461019b576100ea565b806303c628da146100ef57806309f63a531461010b5780631274abfd14610127575b600080fd5b61010960048036038101906101049190611561565b61029e565b005b610125600480360381019061012091906115a1565b610445565b005b610141600480360381019061013c9190611714565b61068b565b005b61014b610823565b005b61016760048036038101906101629190611770565b610953565b6040516101749190611826565b60405180910390f35b610185610ce3565b6040516101929190611826565b60405180910390f35b6101a3610cf8565b6040516101b0919061185c565b60405180910390f35b6101c1610d0e565b005b6101cb610e5a565b005b6101d5610f8c565b6040516101e291906118b8565b60405180910390f35b610205600480360381019061020091906115a1565b610fb5565b604051610219989796959493929190611952565b60405180910390f35b61023c600480360381019061023791906119e5565b61128a565b604051610249919061185c565b60405180910390f35b61026c60048036038101906102679190611a5a565b6112bf565b6040516102799190611b45565b60405180910390f35b61029c60048036038101906102979190611a5a565b611356565b005b600060149054906101000a900460ff16156102ee576040517f08c379a00000000000000000000000000000000000000000000000000000000081526004016102e590611bb3565b60405180910390fd5b3373ffffffffffffffffffffffffffffffffffffffff166002600084815260200190815260200160002060030160019054906101000a900473ffffffffffffffffffffffffffffffffffffffff1673ffffffffffffffffffffffffffffffffffffffff1614610392576040517f08c379a000000000000000000000000000000000000000000000000000000000815260040161038990611c1f565b60405180910390fd5b6002600083815260200190815260200160002060060160009054906101000a900460ff166103f5576040517f08c379a00000000000000000000000000000000000000000000000000000000081526004016103ec90611c8b565b60405180910390fd5b806002600084815260200190815260200160002060020181905550600081116002600084815260200190815260200160002060030160006101000a81548160ff0219169083151502179055505050565b60008054906101000a900473ffffffffffffffffffffffffffffffffffffffff1673ffffffffffffffffffffffffffffffffffffffff163373ffffffffffffffffffffffffffffffffffffffff16146104d3576040517f08c379a00000000000000000000000000000000000000000000000000000000081526004016104ca90611cf7565b60405180910390fd5b600060149054906101000a900460ff1615610523576040517f08c379a000000000000000000000000000000000000000000000000000000000815260040161051a90611bb3565b60405180910390fd5b600073ffffffffffffffffffffffffffffffffffffffff166002600083815260200190815260200160002060030160019054906101000a900473ffffffffffffffffffffffffffffffffffffffff1673ffffffffffffffffffffffffffffffffffffffff16036105c8576040517f08c379a00000000000000000000000000000000000000000000000000000000081526004016105bf90611d63565b60405180910390fd5b6002600082815260200190815260200160002060060160009054906101000a900460ff161561062c576040517f08c379a000000000000000000000000000000000000000000000000000000000815260040161062390611dcf565b60405180910390fd5b60016002600083815260200190815260200160002060060160006101000a81548160ff021916908315150217905550807f9ecbe1c2c56f8bbdaa41b2ee1602155bbcad497cb96424cbe7a57843cfd2e81b60405160405180910390a250565b600060149054906101000a900460ff16156106db576040517f08c379a00000000000000000000000000000000000000000000000000000000081526004016106d290611bb3565b60405180910390fd5b3373ffffffffffffffffffffffffffffffffffffffff166002600084815260200190815260200160002060030160019054906101000a900473ffffffffffffffffffffffffffffffffffffffff1673ffffffffffffffffffffffffffffffffffffffff161461077f576040517f08c379a000000000000000000000000000000000000000000000000000000000815260040161077690611c1f565b60405180910390fd5b60008151116107c3576040517f08c379a00000000000000000000000000000000000000000000000000000000081526004016107ba90611e3b565b60405180910390fd5b806002600084815260200190815260200160002060010190816107e69190612067565b50817fb310ebf52cd4065ada291320bc4944ebfbc2db41482b7a1d1e1d67cfbddccd8c826040516108179190612139565b60405180910390a25050565b60008054906101000a900473ffffffffffffffffffffffffffffffffffffffff1673ffffffffffffffffffffffffffffffffffffffff163373ffffffffffffffffffffffffffffffffffffffff16146108b1576040517f08c379a00000000000000000000000000000000000000000000000000000000081526004016108a890611cf7565b60405180910390fd5b600060149054906101000a900460ff16610900576040517f08c379a00000000000000000000000000000000000000000000000000000000081526004016108f7906121a7565b60405180910390fd5b60008060146101000a81548160ff0219169083151502179055507f5db9ee0a495bf2e6ff9c91a7834c1ba4fdd244a5e8aa4e537bd38aeae4b073aa3360405161094991906118b8565b60405180910390a1565b60008060149054906101000a900460ff16156109a4576040517f08c379a000000000000000000000000000000000000000000000000000000000815260040161099b90611bb3565b60405180910390fd5b6003826040516109b49190612203565b908152602001604051809103902060009054906101000a900460ff1615610a10576040517f08c379a0000000000000000000000000000000000000000000000000000000008152600401610a0790612266565b60405180910390fd5b6000845111610a54576040517f08c379a0000000000000000000000000000000000000000000000000000000008152600401610a4b906122d2565b60405180910390fd5b6000835111610a98576040517f08c379a0000000000000000000000000000000000000000000000000000000008152600401610a8f90611e3b565b60405180910390fd5b6000600154905060016000815480929190610ab290612321565b9190505550604051806101000160405280868152602001858152602001600081526020016000151581526020013373ffffffffffffffffffffffffffffffffffffffff16815260200142815260200184815260200160001515815250600260008381526020019081526020016000206000820151816000019081610b369190612067565b506020820151816001019081610b4c9190612067565b506040820151816002015560608201518160030160006101000a81548160ff02191690831515021790555060808201518160030160016101000a81548173ffffffffffffffffffffffffffffffffffffffff021916908373ffffffffffffffffffffffffffffffffffffffff16021790555060a0820151816004015560c0820151816005019081610bdd9190612067565b5060e08201518160060160006101000a81548160ff0219169083151502179055509050506001600384604051610c139190612203565b908152602001604051809103902060006101000a81548160ff021916908315150217905550600460003373ffffffffffffffffffffffffffffffffffffffff1673ffffffffffffffffffffffffffffffffffffffff168152602001908152602001600020819080600181540180825580915050600190039060005260206000200160009091909190915055807feebda3320ab960cd070929d355df316d58dd891ad055b9a64fd302a318a189438633604051610cd0929190612369565b60405180910390a2809150509392505050565b600060018054610cf39190612399565b905090565b60008060149054906101000a900460ff16905090565b60008054906101000a900473ffffffffffffffffffffffffffffffffffffffff1673ffffffffffffffffffffffffffffffffffffffff163373ffffffffffffffffffffffffffffffffffffffff1614610d9c576040517f08c379a0000000000000000000000000000000000000000000000000000000008152600401610d9390611cf7565b60405180910390fd5b600073ffffffffffffffffffffffffffffffffffffffff1660008054906101000a900473ffffffffffffffffffffffffffffffffffffffff1673ffffffffffffffffffffffffffffffffffffffff167f8be0079c531659141344cd1fd0a4f28419497f9722a3daafe3b4186f6b6457e060405160405180910390a360008060006101000a81548173ffffffffffffffffffffffffffffffffffffffff021916908373ffffffffffffffffffffffffffffffffffffffff160217905550565b60008054906101000a900473ffffffffffffffffffffffffffffffffffffffff1673ffffffffffffffffffffffffffffffffffffffff163373ffffffffffffffffffffffffffffffffffffffff1614610ee8576040517f08c379a0000000000000000000000000000000000000000000000000000000008152600401610edf90611cf7565b60405180910390fd5b600060149054906101000a900460ff1615610f38576040517f08c379a0000000000000000000000000000000000000000000000000000000008152600401610f2f90611bb3565b60405180910390fd5b6001600060146101000a81548160ff0219169083151502179055507f62e78cea01bee320cd4e420270b5ea74000d11b0c9f74754ebdbfc544b05a25833604051610f8291906118b8565b60405180910390a1565b60008060009054906101000a900473ffffffffffffffffffffffffffffffffffffffff16905090565b6060806000806000806060600080600260008b81526020019081526020016000209050600073ffffffffffffffffffffffffffffffffffffffff168160030160019054906101000a900473ffffffffffffffffffffffffffffffffffffffff1673ffffffffffffffffffffffffffffffffffffffff160361106b576040517f08c379a000000000000000000000000000000000000000000000000000000000815260040161106290611d63565b60405180910390fd5b806000018160010182600201548360030160009054906101000a900460ff168460030160019054906101000a900473ffffffffffffffffffffffffffffffffffffffff168560040154866005018760060160009054906101000a900460ff168780546110d690611e8a565b80601f016020809104026020016040519081016040528092919081815260200182805461110290611e8a565b801561114f5780601f106111245761010080835404028352916020019161114f565b820191906000526020600020905b81548152906001019060200180831161113257829003601f168201915b5050505050975086805461116290611e8a565b80601f016020809104026020016040519081016040528092919081815260200182805461118e90611e8a565b80156111db5780601f106111b0576101008083540402835291602001916111db565b820191906000526020600020905b8154815290600101906020018083116111be57829003601f168201915b505050505096508180546111ee90611e8a565b80601f016020809104026020016040519081016040528092919081815260200182805461121a90611e8a565b80156112675780601f1061123c57610100808354040283529160200191611267565b820191906000526020600020905b81548152906001019060200180831161124a57829003601f168201915b505050505091509850985098509850985098509850985050919395975091939597565b600060038260405161129c9190612203565b908152602001604051809103902060009054906101000a900460ff169050919050565b6060600460008373ffffffffffffffffffffffffffffffffffffffff1673ffffffffffffffffffffffffffffffffffffffff16815260200190815260200160002080548060200260200160405190810160405280929190818152602001828054801561134a57602002820191906000526020600020905b815481526020019060010190808311611336575b50505050509050919050565b60008054906101000a900473ffffffffffffffffffffffffffffffffffffffff1673ffffffffffffffffffffffffffffffffffffffff163373ffffffffffffffffffffffffffffffffffffffff16146113e4576040517f08c379a00000000000000000000000000000000000000000000000000000000081526004016113db90611cf7565b60405180910390fd5b600073ffffffffffffffffffffffffffffffffffffffff168173ffffffffffffffffffffffffffffffffffffffff1603611453576040517f08c379a000000000000000000000000000000000000000000000000000000000815260040161144a90612419565b60405180910390fd5b60008060009054906101000a900473ffffffffffffffffffffffffffffffffffffffff169050816000806101000a81548173ffffffffffffffffffffffffffffffffffffffff021916908373ffffffffffffffffffffffffffffffffffffffff1602179055508173ffffffffffffffffffffffffffffffffffffffff168173ffffffffffffffffffffffffffffffffffffffff167f8be0079c531659141344cd1fd0a4f28419497f9722a3daafe3b4186f6b6457e060405160405180910390a35050565b6000604051905090565b600080fd5b600080fd5b6000819050919050565b61153e8161152b565b811461154957600080fd5b50565b60008135905061155b81611535565b92915050565b6000806040838503121561157857611577611521565b5b60006115868582860161154c565b92505060206115978582860161154c565b9150509250929050565b6000602082840312156115b7576115b6611521565b5b60006115c58482850161154c565b91505092915050565b600080fd5b600080fd5b6000601f19601f8301169050919050565b7f4e487b7100000000000000000000000000000000000000000000000000000000600052604160045260246000fd5b611621826115d8565b810181811067ffffffffffffffff821117156116405761163f6115e9565b5b80604052505050565b6000611653611517565b905061165f8282611618565b919050565b600067ffffffffffffffff82111561167f5761167e6115e9565b5b611688826115d8565b9050602081019050919050565b82818337600083830152505050565b60006116b76116b284611664565b611649565b9050828152602081018484840111156116d3576116d26115d3565b5b6116de848285611695565b509392505050565b600082601f8301126116fb576116fa6115ce565b5b813561170b8482602086016116a4565b91505092915050565b6000806040838503121561172b5761172a611521565b5b60006117398582860161154c565b925050602083013567ffffffffffffffff81111561175a57611759611526565b5b611766858286016116e6565b9150509250929050565b60008060006060848603121561178957611788611521565b5b600084013567ffffffffffffffff8111156117a7576117a6611526565b5b6117b3868287016116e6565b935050602084013567ffffffffffffffff8111156117d4576117d3611526565b5b6117e0868287016116e6565b925050604084013567ffffffffffffffff81111561180157611800611526565b5b61180d868287016116e6565b9150509250925092565b6118208161152b565b82525050565b600060208201905061183b6000830184611817565b92915050565b60008115159050919050565b61185681611841565b82525050565b6000602082019050611871600083018461184d565b92915050565b600073ffffffffffffffffffffffffffffffffffffffff82169050919050565b60006118a282611877565b9050919050565b6118b281611897565b82525050565b60006020820190506118cd60008301846118a9565b92915050565b600081519050919050565b600082825260208201905092915050565b60005b8381101561190d5780820151818401526020810190506118f2565b60008484015250505050565b6000611924826118d3565b61192e81856118de565b935061193e8185602086016118ef565b611947816115d8565b840191505092915050565b600061010082019050818103600083015261196d818b611919565b90508181036020830152611981818a611919565b90506119906040830189611817565b61199d606083018861184d565b6119aa60808301876118a9565b6119b760a0830186611817565b81810360c08301526119c98185611919565b90506119d860e083018461184d565b9998505050505050505050565b6000602082840312156119fb576119fa611521565b5b600082013567ffffffffffffffff811115611a1957611a18611526565b5b611a25848285016116e6565b91505092915050565b611a3781611897565b8114611a4257600080fd5b50565b600081359050611a5481611a2e565b92915050565b600060208284031215611a7057611a6f611521565b5b6000611a7e84828501611a45565b91505092915050565b600081519050919050565b600082825260208201905092915050565b6000819050602082019050919050565b611abc8161152b565b82525050565b6000611ace8383611ab3565b60208301905092915050565b6000602082019050919050565b6000611af282611a87565b611afc8185611a92565b9350611b0783611aa3565b8060005b83811015611b38578151611b1f8882611ac2565b9750611b2a83611ada565b925050600181019050611b0b565b5085935050505092915050565b60006020820190508181036000830152611b5f8184611ae7565b905092915050565b7f436f6e7472616374206973207061757365640000000000000000000000000000600082015250565b6000611b9d6012836118de565b9150611ba882611b67565b602082019050919050565b60006020820190508181036000830152611bcc81611b90565b9050919050565b7f4e6f742074686520706174656e74206f776e6572000000000000000000000000600082015250565b6000611c096014836118de565b9150611c1482611bd3565b602082019050919050565b60006020820190508181036000830152611c3881611bfc565b9050919050565b7f506174656e74206e6f7420766572696669656400000000000000000000000000600082015250565b6000611c756013836118de565b9150611c8082611c3f565b602082019050919050565b60006020820190508181036000830152611ca481611c68565b9050919050565b7f43616c6c6572206973206e6f7420746865206f776e6572000000000000000000600082015250565b6000611ce16017836118de565b9150611cec82611cab565b602082019050919050565b60006020820190508181036000830152611d1081611cd4565b9050919050565b7f506174656e7420646f6573206e6f742065786973740000000000000000000000600082015250565b6000611d4d6015836118de565b9150611d5882611d17565b602082019050919050565b60006020820190508181036000830152611d7c81611d40565b9050919050565b7f506174656e7420616c7265616479207665726966696564000000000000000000600082015250565b6000611db96017836118de565b9150611dc482611d83565b602082019050919050565b60006020820190508181036000830152611de881611dac565b9050919050565b7f4950465320686173682063616e6e6f7420626520656d70747900000000000000600082015250565b6000611e256019836118de565b9150611e3082611def565b602082019050919050565b60006020820190508181036000830152611e5481611e18565b9050919050565b7f4e487b7100000000000000000000000000000000000000000000000000000000600052602260045260246000fd5b60006002820490506001821680611ea257607f821691505b602082108103611eb557611eb4611e5b565b5b50919050565b60008190508160005260206000209050919050565b60006020601f8301049050919050565b600082821b905092915050565b600060088302611f1d7fffffffffffffffffffffffffffffffffffffffffffffffffffffffffffffffff82611ee0565b611f278683611ee0565b95508019841693508086168417925050509392505050565b6000819050919050565b6000611f64611f5f611f5a8461152b565b611f3f565b61152b565b9050919050565b6000819050919050565b611f7e83611f49565b611f92611f8a82611f6b565b848454611eed565b825550505050565b600090565b611fa7611f9a565b611fb2818484611f75565b505050565b5b81811015611fd657611fcb600082611f9f565b600181019050611fb8565b5050565b601f82111561201b57611fec81611ebb565b611ff584611ed0565b81016020851015612004578190505b61201861201085611ed0565b830182611fb7565b50505b505050565b600082821c905092915050565b600061203e60001984600802612020565b1980831691505092915050565b6000612057838361202d565b9150826002028217905092915050565b612070826118d3565b67ffffffffffffffff811115612089576120886115e9565b5b6120938254611e8a565b61209e828285611fda565b600060209050601f8311600181146120d157600084156120bf578287015190505b6120c9858261204b565b865550612131565b601f1984166120df86611ebb565b60005b82811015612107578489015182556001820191506020850194506020810190506120e2565b868310156121245784890151612120601f89168261202d565b8355505b6001600288020188555050505b505050505050565b600060208201905081810360008301526121538184611919565b905092915050565b7f436f6e7472616374206973206e6f742070617573656400000000000000000000600082015250565b60006121916016836118de565b915061219c8261215b565b602082019050919050565b600060208201905081810360008301526121c081612184565b9050919050565b600081905092915050565b60006121dd826118d3565b6121e781856121c7565b93506121f78185602086016118ef565b80840191505092915050565b600061220f82846121d2565b915081905092915050565b7f506174656e7420494420616c7265616479206578697374730000000000000000600082015250565b60006122506018836118de565b915061225b8261221a565b602082019050919050565b6000602082019050818103600083015261227f81612243565b9050919050565b7f5469746c652063616e6e6f7420626520656d7074790000000000000000000000600082015250565b60006122bc6015836118de565b91506122c782612286565b602082019050919050565b600060208201905081810360008301526122eb816122af565b9050919050565b7f4e487b7100000000000000000000000000000000000000000000000000000000600052601160045260246000fd5b600061232c8261152b565b91507fffffffffffffffffffffffffffffffffffffffffffffffffffffffffffffffff820361235e5761235d6122f2565b5b600182019050919050565b600060408201905081810360008301526123838185611919565b905061239260208301846118a9565b9392505050565b60006123a48261152b565b91506123af8361152b565b92508282039050818111156123c7576123c66122f2565b5b92915050565b7f4e6577206f776e657220697320746865207a65726f2061646472657373000000600082015250565b6000612403601d836118de565b915061240e826123cd565b602082019050919050565b60006020820190508181036000830152612432816123f6565b905091905056fea264697066735822122005cdd14d8ea2aefa4c0f5b61ac23150472134d015666719b003ca1c23215975d64736f6c63430008180033",
  "linkReferences": {},
  "deployedLinkReferences": {}
}