{
  "_format": "hh-sol-artifact-1",
  "contractName": "PatentRegistry",
  "sourceName": "contracts/IPatentRegistry.sol",
  "abi": [
    {
      "inputs": [],
      "stateMutability": "nonpayable",
      "type": "constructor"
    },
    {
      "anonymous": false,
      "inputs": [
        {
          "indexed": true,
          "internalType": "address",
          "name": "previousOwner",
          "type": "address"
        },
        {
          "indexed": true,
          "internalType": "address",
          "name": "newOwner",
          "type": "address"
        }
      ],
      "name": "OwnershipTransferred",
      "type": "event"
    },
    {
      "anonymous": false,
      "inputs": [
        {
          "indexed": true,
          "internalType": "uint256",
          "name": "patentId",
          "type": "uint256"
        },
        {
          "indexed": false,
          "internalType": "string",
          "name": "title",
          "type": "string"
        },
        {
          "indexed": false,
          "internalType": "address",
          "name": "inventor",
          "type": "address"
        }
      ],
      "name": "PatentRegistered",
      "type": "event"
    },
    {
      "anonymous": false,
      "inputs": [
        {
          "indexed": true,
          "internalType": "uint256",
          "name": "patentId",
          "type": "uint256"
        },
        {
          "indexed": false,
          "internalType": "string",
          "name": "ipfsHash",
          "type": "string"
        }
      ],
      "name": "PatentUpdated",
      "type": "event"
    },
    {
      "anonymous": false,
      "inputs": [
        {
          "indexed": true,
          "internalType": "uint256",
          "name": "patentId",
          "type": "uint256"
        }
      ],
      "name": "PatentVerified",
      "type": "event"
    },
    {
      "anonymous": false,
      "inputs": [
        {
          "indexed": false,
          "internalType": "address",
          "name": "account",
          "type": "address"
        }
      ],
      "name": "Paused",
      "type": "event"
    },
    {
      "anonymous": false,
      "inputs": [
        {
          "indexed": false,
          "internalType": "address",
          "name": "account",
          "type": "address"
        }
      ],
      "name": "Unpaused",
      "type": "event"
    },
    {
      "inputs": [
        {
          "internalType": "address",
          "name": "inventor",
          "type": "address"
        }
      ],
      "name": "getInventorPatents",
      "outputs": [
        {
          "internalType": "uint256[]",
          "name": "",
          "type": "uint256[]"
        }
      ],
      "stateMutability": "view",
      "type": "function"
    },
    {
      "inputs": [
        {
          "internalType": "uint256",
          "name": "patentId",
          "type": "uint256"
        }
      ],
      "name": "getPatent",
      "outputs": [
        {
          "internalType": "string",
          "name": "title",
          "type": "string"
        },
        {
          "internalType": "string",
          "name": "ipfsHash",
          "type": "string"
        },
        {
          "internalType": "uint256",
          "name": "price",
          "type": "uint256"
        },
        {
          "internalType": "bool",
          "name": "isForSale",
          "type": "bool"
        },
        {
          "internalType": "address",
          "name": "inventor",
          "type": "address"
        },
        {
          "internalType": "uint256",
          "name": "createdAt",
          "type": "uint256"
        },
        {
          "internalType": "string",
          "name": "patentIdStr",
          "type": "string"
        },
        {
          "internalType": "bool",
          "name": "isVerified",
          "type": "bool"
        }
      ],
      "stateMutability": "view",
      "type": "function"
    },
    {
      "inputs": [],
      "name": "getTotalPatents",
      "outputs": [
        {
          "internalType": "uint256",
          "name": "",
          "type": "uint256"
        }
      ],
      "stateMutability": "view",
      "type": "function"
    },
    {
      "inputs": [],
      "name": "owner",
      "outputs": [
        {
          "internalType": "address",
          "name": "",
          "type": "address"
        }
      ],
      "stateMutability": "view",
      "type": "function"
    },
    {
      "inputs": [
        {
          "internalType": "string",
          "name": "patentId",
          "type": "string"
        }
      ],
      "name": "patentExists",
      "outputs": [
        {
          "internalType": "bool",
          "name": "",
          "type": "bool"
        }
      ],
      "stateMutability": "view",
      "type": "function"
    },
    {
      "inputs": [],
      "name": "pause",
      "outputs": [],
      "stateMutability": "nonpayable",
      "type": "function"
    },
    {
      "inputs": [],
      "name": "paused",
      "outputs": [
        {
          "internalType": "bool",
          "name": "",
          "type": "bool"
        }
      ],
      "stateMutability": "view",
      "type": "function"
    },
    {
      "inputs": [
        {
          "internalType": "string",
          "name": "title",
          "type": "string"
        },
        {
          "internalType": "string",
          "name": "ipfsHash",
          "type": "string"
        },
        {
          "internalType": "string",
          "name": "patentId",
          "type": "string"
        }
      ],
      "name": "registerPatent",
      "outputs": [
        {
          "internalType": "uint256",
          "name": "",
          "type": "uint256"
        }
      ],
      "stateMutability": "nonpayable",
      "type": "function"
    },
    {
      "inputs": [],
      "name": "renounceOwnership",
      "outputs": [],
      "stateMutability": "nonpayable",
      "type": "function"
    },
    {
      "inputs": [
        {
          "internalType": "uint256",
          "name": "patentId",
          "type": "uint256"
        },
        {
          "internalType": "uint256",
          "name": "newPrice",
          "type": "uint256"
        }
      ],
      "name": "setPatentPrice",
      "outputs": [],
      "stateMutability": "nonpayable",
      "type": "function"
    },
    {
      "inputs": [
        {
          "internalType": "address",
          "name": "newOwner",
          "type": "address"
        }
      ],
      "name": "transferOwnership",
      "outputs": [],
      "stateMutability": "nonpayable",
      "type": "function"
    },
    {
      "inputs": [],
      "name": "unpause",
      "outputs": [],
      "stateMutability": "nonpayable",
      "type": "function"
    },
    {
      "inputs": [
        {
          "internalType": "uint256",
          "name": "patentId",
          "type": "uint256"
        },
        {
          "internalType": "string",
          "name": "newIpfsHash",
          "type": "string"
        }
      ],
      "name": "updatePatentMetadata",
      "outputs": [],
      "stateMutability": "nonpayable",
      "type": "function"
    },
    {
      "inputs": [
        {
          "internalType": "uint256",
          "name": "patentId",
          "type": "uint256"
        }
      ],
      "name": "verifyPatent",
      "outputs": [],
      "stateMutability": "nonpayable",
      "type": "function"
    }
  ],
  "bytecode": "0x608080604052346100335760018055600080546001600160a81b0319163360ff60a01b19161790556112d390816100398239f35b600080fdfe6080604052600436101561001257600080fd5b60003560e01c806303c628da14610ec657806309f63a5314610dca5780631274abfd14610be75780633f4ba83a14610b3d57806345cd275f146104c957806350674e65146104885780635c975abb14610462578063715018a6146104045780638456cb591461038e5780638da5cb5b146103655780639c6d0d7814610290578063b3b412f11461022e578063b6cc81c8146101765763f2fde38b146100b657600080fd5b34610171576020366003190112610171576004356001600160a01b038181169182900361017157600054908116906100ef82331461105d565b821561012c576001600160a01b031916821760009081557f8be0079c531659141344cd1fd0a4f28419497f9722a3daafe3b4186f6b6457e09080a3005b60405162461bcd60e51b815260206004820152601d60248201527f4e6577206f776e657220697320746865207a65726f20616464726573730000006044820152606490fd5b600080fd5b3461017157602080600319360112610171576004356001600160a01b038116908190036101715760005260048152604060002060405190818382549182815201908192600052846000209060005b8682821061021a5786866101da82880383610f9c565b604051928392818401908285525180915260408401929160005b82811061020357505050500390f35b8351855286955093810193928101926001016101f4565b8354855290930192600192830192016101c4565b346101715760203660031901126101715760043567ffffffffffffffff81116101715760ff61027a602061026781943690600401610fbe565b8160405193828580945193849201611015565b8101600381520301902054166040519015158152f35b34610171576020366003190112610171576004356000526002602052610326604060002060038101549061035960018060a01b038360081c16916102d5831515611170565b600281015490600481015460ff6006830154169460ff6102f4846111f7565b976103346103106005610309600189016111f7565b97016111f7565b956040519b8c9b8c6101008091528d0190611038565b908b820360208d0152611038565b9560408a01521615156060880152608087015260a086015284820360c0860152611038565b90151560e08301520390f35b34610171576000366003190112610171576000546040516001600160a01b039091168152602090f35b34610171576000366003190112610171576000546103b6336001600160a01b0383161461105d565b6103c660ff8260a01c16156110a9565b60ff60a01b1916600160a01b176000556040513381527f62e78cea01bee320cd4e420270b5ea74000d11b0c9f74754ebdbfc544b05a25890602090a1005b346101715760003660031901126101715760008054906001600160a01b03821661042f33821461105d565b7f8be0079c531659141344cd1fd0a4f28419497f9722a3daafe3b4186f6b6457e08280a36001600160a01b031916600055005b3461017157600036600319011261017157602060ff60005460a01c166040519015158152f35b346101715760003660031901126101715760015460001981019081116104b357602090604051908152f35b634e487b7160e01b600052601160045260246000fd5b346101715760603660031901126101715760043567ffffffffffffffff8111610171576104fa903690600401610fbe565b60243567ffffffffffffffff81116101715761051a903690600401610fbe565b60443567ffffffffffffffff81116101715761053a903690600401610fbe565b61054c60ff60005460a01c16156110a9565b60ff60405160208184516105638183858901611015565b810160038152030190205416610af857825115610abb57610586825115156110ea565b6001549160001983146104b3576001830160015560405190610100820182811067ffffffffffffffff82111761083d57604052848252602082015260006040820152600060608201523360808201524260a08201528160c0820152600060e0820152826000526002602052604060002090805180519067ffffffffffffffff821161083d5781906106178554611136565b601f8111610a6b575b50602090601f83116001146109ff576000926109f4575b50508160011b916000199060031b1c19161782555b602081015180519067ffffffffffffffff821161083d5781906106726001860154611136565b601f81116109a1575b50602090601f831160011461092f57600092610924575b50508160011b916000199060031b1c19161760018301555b60408101516002830155600382016106d460608301511515829060ff801983541691151516179055565b60808201518154610100600160a81b03191660089190911b610100600160a81b031617905560a0810151600483015560c081015180519067ffffffffffffffff821161083d576107276005850154611136565b601f81116108dd575b50602090601f831160011461085e5760e06107899694846102679560209895600695600092610853575b50508160011b916000199060031b1c19161760058501555b0151151591019060ff801983541691151516179055565b81016003815203019020600160ff198254161790553360005260046020526040600020918254926801000000000000000084101561083d5760018401808255841015610827576108178392836020967feebda3320ab960cd070929d355df316d58dd891ad055b9a64fd302a318a1894394600052876000200155604051918291604083526040830190611038565b33878301520390a2604051908152f35b634e487b7160e01b600052603260045260246000fd5b634e487b7160e01b600052604160045260246000fd5b015190508c8061075a565b906005850160005260206000209160005b601f19851681106108c5575061078996946001856020989560069560e09561026799601f198116106108ac575b505050811b016005850155610772565b015160001960f88460031b161c191690558c808061089c565b9192602060018192868501518155019401920161086f565b600585016000526020600020601f840160051c81016020851061091d575b601f830160051c82018110610911575050610730565b600081556001016108fb565b50806108fb565b015190508780610692565b9250600185016000526020600020906000935b601f1984168510610986576001945083601f1981161061096d575b505050811b0160018301556106aa565b015160001960f88460031b161c1916905587808061095d565b81810151835560209485019460019093019290910190610942565b909150600185016000526020600020601f840160051c8101602085106109ed575b90849392915b601f830160051c820181106109de57505061067b565b600081558594506001016109c8565b50806109c2565b015190508780610637565b9250846000526020600020906000935b601f1984168510610a50576001945083601f19811610610a37575b505050811b01825561064c565b015160001960f88460031b161c19169055878080610a2a565b81810151835560209485019460019093019290910190610a0f565b909150846000526020600020601f840160051c810160208510610ab4575b90849392915b601f830160051c82018110610aa5575050610620565b60008155859450600101610a8f565b5080610a89565b60405162461bcd60e51b81526020600482015260156024820152745469746c652063616e6e6f7420626520656d70747960581b6044820152606490fd5b60405162461bcd60e51b815260206004820152601860248201527f506174656e7420494420616c72656164792065786973747300000000000000006044820152606490fd5b3461017157600036600319011261017157600054610b65336001600160a01b0383161461105d565b60ff8160a01c1615610ba95760ff60a01b19166000556040513381527f5db9ee0a495bf2e6ff9c91a7834c1ba4fdd244a5e8aa4e537bd38aeae4b073aa90602090a1005b60405162461bcd60e51b815260206004820152601660248201527510dbdb9d1c9858dd081a5cc81b9bdd081c185d5cd95960521b6044820152606490fd5b346101715760403660031901126101715767ffffffffffffffff60043560243582811161017157610c1c903690600401610fbe565b610c2e60ff60005460a01c16156110a9565b81600052602060028152610c5660018060a01b0360036040600020015460081c1633146111b4565b610c62825115156110ea565b82600052600281526001938460406000200190835190811161083d57610c888254611136565b601f8111610d81575b508295601f8211600114610d02578180917fb310ebf52cd4065ada291320bc4944ebfbc2db41482b7a1d1e1d67cfbddccd8c9798600093610cf7575b501b916000199060031b1c19161790555b610cf2604051928284938452830190611038565b0390a2005b870151925089610ccd565b90601f1981169683600052846000209060005b898110610d6c5750827fb310ebf52cd4065ada291320bc4944ebfbc2db41482b7a1d1e1d67cfbddccd8c989910610d53575b5050811b019055610cde565b86015160001960f88460031b161c191690558780610d47565b87820151835591840191908601908601610d15565b8260005283600020601f830160051c810191858410610dc0575b601f0160051c019087905b828110610db4575050610c91565b60008155018790610da6565b9091508190610d9b565b3461017157602036600319011261017157600435610e25600054610e0860ff60018060a01b0392610dfe848216331461105d565b60a01c16156110a9565b82600052600260205260036040600020015460081c161515611170565b80600052600260205260ff60066040600020015416610e81578060005260026020526006604060002001600160ff198254161790557f9ecbe1c2c56f8bbdaa41b2ee1602155bbcad497cb96424cbe7a57843cfd2e81b600080a2005b60405162461bcd60e51b815260206004820152601760248201527f506174656e7420616c72656164792076657269666965640000000000000000006044820152606490fd5b3461017157604036600319011261017157600435602435610eef60ff60005460a01c16156110a9565b816000526002602052610f1660018060a01b0360036040600020015460081c1633146111b4565b81600052600260205260ff6006604060002001541615610f6157610f5f9160005260026020526003604060002091806002840155151591019060ff801983541691151516179055565b005b60405162461bcd60e51b815260206004820152601360248201527214185d195b9d081b9bdd081d995c9a599a5959606a1b6044820152606490fd5b90601f8019910116810190811067ffffffffffffffff82111761083d57604052565b81601f820112156101715780359067ffffffffffffffff821161083d5760405192610ff3601f8401601f191660200185610f9c565b8284526020838301011161017157816000926020809301838601378301015290565b60005b8381106110285750506000910152565b8181015183820152602001611018565b9060209161105181518092818552858086019101611015565b601f01601f1916010190565b1561106457565b60405162461bcd60e51b815260206004820152601760248201527f43616c6c6572206973206e6f7420746865206f776e65720000000000000000006044820152606490fd5b156110b057565b60405162461bcd60e51b815260206004820152601260248201527110dbdb9d1c9858dd081a5cc81c185d5cd95960721b6044820152606490fd5b156110f157565b60405162461bcd60e51b815260206004820152601960248201527f4950465320686173682063616e6e6f7420626520656d707479000000000000006044820152606490fd5b90600182811c92168015611166575b602083101461115057565b634e487b7160e01b600052602260045260246000fd5b91607f1691611145565b1561117757565b60405162461bcd60e51b815260206004820152601560248201527414185d195b9d08191bd95cc81b9bdd08195e1a5cdd605a1b6044820152606490fd5b156111bb57565b60405162461bcd60e51b81526020600482015260146024820152732737ba103a3432903830ba32b73a1037bbb732b960611b6044820152606490fd5b906040519182600082549261120b84611136565b90818452600194858116908160001461127a5750600114611237575b505061123592500383610f9c565b565b9093915060005260209081600020936000915b81831061126257505061123593508201013880611227565b8554888401850152948501948794509183019161124a565b91505061123594506020925060ff191682840152151560051b820101388061122756fea2646970667358221220abc36f50ab4564f25ac08a97ac0e5f3d6f20d8c39fafc782b22c1ed88a3f885064736f6c63430008140033",
  "linkReferences": {},
  "deployedLinkReferences": {}
}