{
  "_format": "hh-sol-artifact-1",
  "contractName": "PatentFactory",
  "sourceName": "contracts/PatentFactory.sol",
  "abi": [
    {
      "inputs": [
        {
          "internalType": "address",
          "name": "_patentRegistry",
          "type": "address"
        }
      ],
      "stateMutability": "nonpayable",
      "type": "constructor"
    },
    {
      "inputs": [
        {
          "internalType": "address",
          "name": "owner",
          "type": "address"
        }
      ],
      "name": "OwnableInvalidOwner",
      "type": "error"
    },
    {
      "inputs": [
        {
          "internalType": "address",
          "name": "account",
          "type": "address"
        }
      ],
      "name": "OwnableUnauthorizedAccount",
      "type": "error"
    },
    {
      "anonymous": false,
      "inputs": [
        {
          "indexed": true,
          "internalType": "address",
          "name": "previousOwner",
          "type": "address"
        },
        {
          "indexed": true,
          "internalType": "address",
          "name": "newOwner",
          "type": "address"
        }
      ],
      "name": "OwnershipTransferred",
      "type": "event"
    },
    {
      "anonymous": false,
      "inputs": [
        {
          "indexed": true,
          "internalType": "uint256",
          "name": "patentId",
          "type": "uint256"
        },
        {
          "indexed": false,
          "internalType": "address",
          "name": "tokenAddress",
          "type": "address"
        }
      ],
      "name": "PatentTokenCreated",
      "type": "event"
    },
    {
      "inputs": [
        {
          "internalType": "string",
          "name": "name",
          "type": "string"
        },
        {
          "internalType": "string",
          "name": "symbol",
          "type": "string"
        },
        {
          "internalType": "uint256",
          "name": "patentId",
          "type": "uint256"
        }
      ],
      "name": "createPatentToken",
      "outputs": [
        {
          "internalType": "address",
          "name": "",
          "type": "address"
        }
      ],
      "stateMutability": "payable",
      "type": "function"
    },
    {
      "inputs": [
        {
          "internalType": "uint256",
          "name": "patentId",
          "type": "uint256"
        }
      ],
      "name": "getPatentToken",
      "outputs": [
        {
          "internalType": "address",
          "name": "",
          "type": "address"
        }
      ],
      "stateMutability": "view",
      "type": "function"
    },
    {
      "inputs": [
        {
          "internalType": "address",
          "name": "",
          "type": "address"
        }
      ],
      "name": "isPatentToken",
      "outputs": [
        {
          "internalType": "bool",
          "name": "",
          "type": "bool"
        }
      ],
      "stateMutability": "view",
      "type": "function"
    },
    {
      "inputs": [],
      "name": "owner",
      "outputs": [
        {
          "internalType": "address",
          "name": "",
          "type": "address"
        }
      ],
      "stateMutability": "view",
      "type": "function"
    },
    {
      "inputs": [],
      "name": "patentRegistry",
      "outputs": [
        {
          "internalType": "address",
          "name": "",
          "type": "address"
        }
      ],
      "stateMutability": "view",
      "type": "function"
    },
    {
      "inputs": [
        {
          "internalType": "uint256",
          "name": "",
          "type": "uint256"
        }
      ],
      "name": "patentTokens",
      "outputs": [
        {
          "internalType": "address",
          "name": "",
          "type": "address"
        }
      ],
      "stateMutability": "view",
      "type": "function"
    },
    {
      "inputs": [],
      "name": "renounceOwnership",
      "outputs": [],
      "stateMutability": "nonpayable",
      "type": "function"
    },
    {
      "inputs": [
        {
          "internalType": "address",
          "name": "newOwner",
          "type": "address"
        }
      ],
      "name": "transferOwnership",
      "outputs": [],
      "stateMutability": "nonpayable",
      "type": "function"
    },
    {
      "inputs": [
        {
          "internalType": "address",
          "name": "newRegistry",
          "type": "address"
        }
      ],
      "name": "updatePatentRegistry",
      "outputs": [],
      "stateMutability": "nonpayable",
      "type": "function"
    }
  ],
  "bytecode": "0x60806040523480156200001157600080fd5b506040516200565b3803806200565b833981810160405281019062000037919062000235565b33600073ffffffffffffffffffffffffffffffffffffffff168173ffffffffffffffffffffffffffffffffffffffff1603620000ad5760006040517f1e4fbdf7000000000000000000000000000000000000000000000000000000008152600401620000a4919062000278565b60405180910390fd5b620000be816200010760201b60201c565b5080600160006101000a81548173ffffffffffffffffffffffffffffffffffffffff021916908373ffffffffffffffffffffffffffffffffffffffff1602179055505062000295565b60008060009054906101000a900473ffffffffffffffffffffffffffffffffffffffff169050816000806101000a81548173ffffffffffffffffffffffffffffffffffffffff021916908373ffffffffffffffffffffffffffffffffffffffff1602179055508173ffffffffffffffffffffffffffffffffffffffff168173ffffffffffffffffffffffffffffffffffffffff167f8be0079c531659141344cd1fd0a4f28419497f9722a3daafe3b4186f6b6457e060405160405180910390a35050565b600080fd5b600073ffffffffffffffffffffffffffffffffffffffff82169050919050565b6000620001fd82620001d0565b9050919050565b6200020f81620001f0565b81146200021b57600080fd5b50565b6000815190506200022f8162000204565b92915050565b6000602082840312156200024e576200024d620001cb565b5b60006200025e848285016200021e565b91505092915050565b6200027281620001f0565b82525050565b60006020820190506200028f600083018462000267565b92915050565b6153b680620002a56000396000f3fe608060405260043610620000925760003560e01c8063715018a61162000061578063715018a6146200016f5780638da5cb5b1462000189578063cc0ccea614620001b9578063d477197414620001fd578063f2fde38b14620002415762000092565b806328a1fb9b1462000097578063387742e114620000db57806345acedf1146200011157806367002090146200013f575b600080fd5b348015620000a457600080fd5b50620000c36004803603810190620000bd9190620007fe565b6200026f565b604051620000d2919062000875565b60405180910390f35b620000f96004803603810190620000f39190620009f4565b620002ac565b60405162000108919062000875565b60405180910390f35b3480156200011e57600080fd5b506200013d600480360381019062000137919062000abf565b620004b0565b005b3480156200014c57600080fd5b5062000157620004fe565b60405162000166919062000875565b60405180910390f35b3480156200017c57600080fd5b506200018762000524565b005b3480156200019657600080fd5b50620001a16200053c565b604051620001b0919062000875565b60405180910390f35b348015620001c657600080fd5b50620001e56004803603810190620001df919062000abf565b62000565565b604051620001f4919062000b0e565b60405180910390f35b3480156200020a57600080fd5b50620002296004803603810190620002239190620007fe565b62000585565b60405162000238919062000875565b60405180910390f35b3480156200024e57600080fd5b506200026d600480360381019062000267919062000abf565b620005b8565b005b60006002600083815260200190815260200160002060009054906101000a900473ffffffffffffffffffffffffffffffffffffffff169050919050565b60008073ffffffffffffffffffffffffffffffffffffffff166002600084815260200190815260200160002060009054906101000a900473ffffffffffffffffffffffffffffffffffffffff1673ffffffffffffffffffffffffffffffffffffffff161462000352576040517f08c379a0000000000000000000000000000000000000000000000000000000008152600401620003499062000b8c565b60405180910390fd5b6000348585600160009054906101000a900473ffffffffffffffffffffffffffffffffffffffff1686336040516200038a90620007a1565b6200039a95949392919062000c37565b6040518091039082f0905080158015620003b8573d6000803e3d6000fd5b5090506000819050806002600086815260200190815260200160002060006101000a81548173ffffffffffffffffffffffffffffffffffffffff021916908373ffffffffffffffffffffffffffffffffffffffff1602179055506001600360008373ffffffffffffffffffffffffffffffffffffffff1673ffffffffffffffffffffffffffffffffffffffff16815260200190815260200160002060006101000a81548160ff021916908315150217905550837f9814849d56e478830e7653f3dd8fd4093620b56ce25ca55ec3563a3d445006ad826040516200049c919062000875565b60405180910390a280925050509392505050565b620004ba62000645565b80600160006101000a81548173ffffffffffffffffffffffffffffffffffffffff021916908373ffffffffffffffffffffffffffffffffffffffff16021790555050565b600160009054906101000a900473ffffffffffffffffffffffffffffffffffffffff1681565b6200052e62000645565b6200053a6000620006d5565b565b60008060009054906101000a900473ffffffffffffffffffffffffffffffffffffffff16905090565b60036020528060005260406000206000915054906101000a900460ff1681565b60026020528060005260406000206000915054906101000a900473ffffffffffffffffffffffffffffffffffffffff1681565b620005c262000645565b600073ffffffffffffffffffffffffffffffffffffffff168173ffffffffffffffffffffffffffffffffffffffff1603620006375760006040517f1e4fbdf70000000000000000000000000000000000000000000000000000000081526004016200062e919062000875565b60405180910390fd5b6200064281620006d5565b50565b6200064f62000799565b73ffffffffffffffffffffffffffffffffffffffff166200066f6200053c565b73ffffffffffffffffffffffffffffffffffffffff1614620006d3576200069562000799565b6040517f118cdaa7000000000000000000000000000000000000000000000000000000008152600401620006ca919062000875565b60405180910390fd5b565b60008060009054906101000a900473ffffffffffffffffffffffffffffffffffffffff169050816000806101000a81548173ffffffffffffffffffffffffffffffffffffffff021916908373ffffffffffffffffffffffffffffffffffffffff1602179055508173ffffffffffffffffffffffffffffffffffffffff168173ffffffffffffffffffffffffffffffffffffffff167f8be0079c531659141344cd1fd0a4f28419497f9722a3daafe3b4186f6b6457e060405160405180910390a35050565b600033905090565b6146de8062000ca383390190565b6000604051905090565b600080fd5b600080fd5b6000819050919050565b620007d881620007c3565b8114620007e457600080fd5b50565b600081359050620007f881620007cd565b92915050565b600060208284031215620008175762000816620007b9565b5b60006200082784828501620007e7565b91505092915050565b600073ffffffffffffffffffffffffffffffffffffffff82169050919050565b60006200085d8262000830565b9050919050565b6200086f8162000850565b82525050565b60006020820190506200088c600083018462000864565b92915050565b600080fd5b600080fd5b6000601f19601f8301169050919050565b7f4e487b7100000000000000000000000000000000000000000000000000000000600052604160045260246000fd5b620008e7826200089c565b810181811067ffffffffffffffff82111715620009095762000908620008ad565b5b80604052505050565b60006200091e620007af565b90506200092c8282620008dc565b919050565b600067ffffffffffffffff8211156200094f576200094e620008ad565b5b6200095a826200089c565b9050602081019050919050565b82818337600083830152505050565b60006200098d620009878462000931565b62000912565b905082815260208101848484011115620009ac57620009ab62000897565b5b620009b984828562000967565b509392505050565b600082601f830112620009d957620009d862000892565b5b8135620009eb84826020860162000976565b91505092915050565b60008060006060848603121562000a105762000a0f620007b9565b5b600084013567ffffffffffffffff81111562000a315762000a30620007be565b5b62000a3f86828701620009c1565b935050602084013567ffffffffffffffff81111562000a635762000a62620007be565b5b62000a7186828701620009c1565b925050604062000a8486828701620007e7565b9150509250925092565b62000a998162000850565b811462000aa557600080fd5b50565b60008135905062000ab98162000a8e565b92915050565b60006020828403121562000ad85762000ad7620007b9565b5b600062000ae88482850162000aa8565b91505092915050565b60008115159050919050565b62000b088162000af1565b82525050565b600060208201905062000b25600083018462000afd565b92915050565b600082825260208201905092915050565b7f546f6b656e20616c72656164792065786973747320666f7220706174656e7400600082015250565b600062000b74601f8362000b2b565b915062000b818262000b3c565b602082019050919050565b6000602082019050818103600083015262000ba78162000b65565b9050919050565b600081519050919050565b60005b8381101562000bd957808201518184015260208101905062000bbc565b60008484015250505050565b600062000bf28262000bae565b62000bfe818562000b2b565b935062000c1081856020860162000bb9565b62000c1b816200089c565b840191505092915050565b62000c3181620007c3565b82525050565b600060a082019050818103600083015262000c53818862000be5565b9050818103602083015262000c69818762000be5565b905062000c7a604083018662000864565b62000c89606083018562000c26565b62000c98608083018462000864565b969550505050505056fe60c0604052604051620046de380380620046de8339818101604052810190620000299190620009f8565b80858581600390816200003d919062000cff565b5080600490816200004f919062000cff565b505050600073ffffffffffffffffffffffffffffffffffffffff168173ffffffffffffffffffffffffffffffffffffffff1603620000c75760006040517f1e4fbdf7000000000000000000000000000000000000000000000000000000008152600401620000be919062000df7565b60405180910390fd5b620000d8816200044260201b60201c565b50600160068190555067016345785d8a00003410156200012f576040517f08c379a0000000000000000000000000000000000000000000000000000000008152600401620001269062000e75565b60405180910390fd5b6402540be4006007819055506007546008819055508273ffffffffffffffffffffffffffffffffffffffff1660808173ffffffffffffffffffffffffffffffffffffffff16815250508160a081815250506001601460006101000a81548160ff0219169083151502179055504260128190555034601081905550620001d330600269d3c21bcecceda1000000620001c7919062000ef5565b6200050860201b60201c565b620001fd81600269d3c21bcecceda1000000620001f1919062000ef5565b6200050860201b60201c565b60008390506000806000806000806000808873ffffffffffffffffffffffffffffffffffffffff16639c6d0d788c6040518263ffffffff1660e01b815260040162000249919062000f3e565b600060405180830381865afa15801562000267573d6000803e3d6000fd5b505050506040513d6000823e3d601f19601f8201168201806040525081019062000292919062000f98565b9750975097509750975097509750975060405180610100016040528089815260200188815260200187815260200186151581526020018573ffffffffffffffffffffffffffffffffffffffff168152602001848152602001838152602001821515815250600960008201518160000190816200030f919062000cff565b50602082015181600101908162000327919062000cff565b506040820151816002015560608201518160030160006101000a81548160ff02191690831515021790555060808201518160030160016101000a81548173ffffffffffffffffffffffffffffffffffffffff021916908373ffffffffffffffffffffffffffffffffffffffff16021790555060a0820151816004015560c0820151816005019081620003ba919062000cff565b5060e08201518160060160006101000a81548160ff0219169083151502179055509050503373ffffffffffffffffffffffffffffffffffffffff167fc17cea59c2955cb181b03393209566960365771dbba9dc3d510180e7cb3120883460405162000426919062000f3e565b60405180910390a2505050505050505050505050505062001136565b6000600560009054906101000a900473ffffffffffffffffffffffffffffffffffffffff16905081600560006101000a81548173ffffffffffffffffffffffffffffffffffffffff021916908373ffffffffffffffffffffffffffffffffffffffff1602179055508173ffffffffffffffffffffffffffffffffffffffff168173ffffffffffffffffffffffffffffffffffffffff167f8be0079c531659141344cd1fd0a4f28419497f9722a3daafe3b4186f6b6457e060405160405180910390a35050565b600073ffffffffffffffffffffffffffffffffffffffff168273ffffffffffffffffffffffffffffffffffffffff16036200057d5760006040517fec442f0500000000000000000000000000000000000000000000000000000000815260040162000574919062000df7565b60405180910390fd5b62000591600083836200059560201b60201c565b5050565b600073ffffffffffffffffffffffffffffffffffffffff168373ffffffffffffffffffffffffffffffffffffffff1603620005eb578060026000828254620005de9190620010be565b92505081905550620006c1565b60008060008573ffffffffffffffffffffffffffffffffffffffff1673ffffffffffffffffffffffffffffffffffffffff168152602001908152602001600020549050818110156200067a578381836040517fe450d38c0000000000000000000000000000000000000000000000000000000081526004016200067193929190620010f9565b60405180910390fd5b8181036000808673ffffffffffffffffffffffffffffffffffffffff1673ffffffffffffffffffffffffffffffffffffffff16815260200190815260200160002081905550505b600073ffffffffffffffffffffffffffffffffffffffff168273ffffffffffffffffffffffffffffffffffffffff16036200070c578060026000828254039250508190555062000759565b806000808473ffffffffffffffffffffffffffffffffffffffff1673ffffffffffffffffffffffffffffffffffffffff168152602001908152602001600020600082825401925050819055505b8173ffffffffffffffffffffffffffffffffffffffff168373ffffffffffffffffffffffffffffffffffffffff167fddf252ad1be2c89b69c2b068fc378daa952ba7f163c4a11628f55a4df523b3ef83604051620007b8919062000f3e565b60405180910390a3505050565b6000604051905090565b600080fd5b600080fd5b600080fd5b600080fd5b6000601f19601f8301169050919050565b7f4e487b7100000000000000000000000000000000000000000000000000000000600052604160045260246000fd5b6200082e82620007e3565b810181811067ffffffffffffffff8211171562000850576200084f620007f4565b5b80604052505050565b600062000865620007c5565b905062000873828262000823565b919050565b600067ffffffffffffffff821115620008965762000895620007f4565b5b620008a182620007e3565b9050602081019050919050565b60005b83811015620008ce578082015181840152602081019050620008b1565b60008484015250505050565b6000620008f1620008eb8462000878565b62000859565b90508281526020810184848401111562000910576200090f620007de565b5b6200091d848285620008ae565b509392505050565b600082601f8301126200093d576200093c620007d9565b5b81516200094f848260208601620008da565b91505092915050565b600073ffffffffffffffffffffffffffffffffffffffff82169050919050565b6000620009858262000958565b9050919050565b620009978162000978565b8114620009a357600080fd5b50565b600081519050620009b7816200098c565b92915050565b6000819050919050565b620009d281620009bd565b8114620009de57600080fd5b50565b600081519050620009f281620009c7565b92915050565b600080600080600060a0868803121562000a175762000a16620007cf565b5b600086015167ffffffffffffffff81111562000a385762000a37620007d4565b5b62000a468882890162000925565b955050602086015167ffffffffffffffff81111562000a6a5762000a69620007d4565b5b62000a788882890162000925565b945050604062000a8b88828901620009a6565b935050606062000a9e88828901620009e1565b925050608062000ab188828901620009a6565b9150509295509295909350565b600081519050919050565b7f4e487b7100000000000000000000000000000000000000000000000000000000600052602260045260246000fd5b6000600282049050600182168062000b1157607f821691505b60208210810362000b275762000b2662000ac9565b5b50919050565b60008190508160005260206000209050919050565b60006020601f8301049050919050565b600082821b905092915050565b60006008830262000b917fffffffffffffffffffffffffffffffffffffffffffffffffffffffffffffffff8262000b52565b62000b9d868362000b52565b95508019841693508086168417925050509392505050565b6000819050919050565b600062000be062000bda62000bd484620009bd565b62000bb5565b620009bd565b9050919050565b6000819050919050565b62000bfc8362000bbf565b62000c1462000c0b8262000be7565b84845462000b5f565b825550505050565b600090565b62000c2b62000c1c565b62000c3881848462000bf1565b505050565b5b8181101562000c605762000c5460008262000c21565b60018101905062000c3e565b5050565b601f82111562000caf5762000c798162000b2d565b62000c848462000b42565b8101602085101562000c94578190505b62000cac62000ca38562000b42565b83018262000c3d565b50505b505050565b600082821c905092915050565b600062000cd46000198460080262000cb4565b1980831691505092915050565b600062000cef838362000cc1565b9150826002028217905092915050565b62000d0a8262000abe565b67ffffffffffffffff81111562000d265762000d25620007f4565b5b62000d32825462000af8565b62000d3f82828562000c64565b600060209050601f83116001811462000d77576000841562000d62578287015190505b62000d6e858262000ce1565b86555062000dde565b601f19841662000d878662000b2d565b60005b8281101562000db15784890151825560018201915060208501945060208101905062000d8a565b8683101562000dd1578489015162000dcd601f89168262000cc1565b8355505b6001600288020188555050505b505050505050565b62000df18162000978565b82525050565b600060208201905062000e0e600083018462000de6565b92915050565b600082825260208201905092915050565b7f496e73756666696369656e7420696e697469616c206c69717569646974790000600082015250565b600062000e5d601e8362000e14565b915062000e6a8262000e25565b602082019050919050565b6000602082019050818103600083015262000e908162000e4e565b9050919050565b7f4e487b7100000000000000000000000000000000000000000000000000000000600052601260045260246000fd5b7f4e487b7100000000000000000000000000000000000000000000000000000000600052601160045260246000fd5b600062000f0282620009bd565b915062000f0f83620009bd565b92508262000f225762000f2162000e97565b5b828204905092915050565b62000f3881620009bd565b82525050565b600060208201905062000f55600083018462000f2d565b92915050565b60008115159050919050565b62000f728162000f5b565b811462000f7e57600080fd5b50565b60008151905062000f928162000f67565b92915050565b600080600080600080600080610100898b03121562000fbc5762000fbb620007cf565b5b600089015167ffffffffffffffff81111562000fdd5762000fdc620007d4565b5b62000feb8b828c0162000925565b985050602089015167ffffffffffffffff8111156200100f576200100e620007d4565b5b6200101d8b828c0162000925565b9750506040620010308b828c01620009e1565b9650506060620010438b828c0162000f81565b9550506080620010568b828c01620009a6565b94505060a0620010698b828c01620009e1565b93505060c089015167ffffffffffffffff8111156200108d576200108c620007d4565b5b6200109b8b828c0162000925565b92505060e0620010ae8b828c0162000f81565b9150509295985092959890939650565b6000620010cb82620009bd565b9150620010d883620009bd565b9250828201905080821115620010f357620010f262000ec6565b5b92915050565b600060608201905062001110600083018662000de6565b6200111f602083018562000f2d565b6200112e604083018462000f2d565b949350505050565b60805160a0516135826200115c6000396000611737015260006110af01526135826000f3fe6080604052600436106102135760003560e01c80636b4ed21b116101185780639d1b464a116100a0578063c7876ea41161006f578063c7876ea4146107c1578063d3bc9e2a146107ec578063dd62ed3e14610815578063f0d673f314610852578063f2fde38b146108825761021a565b80639d1b464a146106f1578063a9059cbb1461071c578063ad9f20a614610759578063ae104265146107845761021a565b8063715018a6116100e7578063715018a61461061c5780638654aa3414610633578063873c5e601461065e5780638da5cb5b1461069b57806395d89b41146106c65761021a565b80636b4ed21b146105605780636c11bcd31461058b5780636e9087db146105b457806370a08231146105df5761021a565b806332cb6b0c1161019b5780636485b6bb1161016a5780636485b6bb14610477578063665a11ca146104a257806367bf602b146104cd5780636949faeb146104f85780636a6ae606146105235761021a565b806332cb6b0c146103bf5780633610724e146103ea57806352dc0f96146104065780635b0c5dbd146104385761021a565b806318160ddd116101e257806318160ddd146102d857806321b77d631461030357806323b872dd1461032e5780632d9e3f621461036b578063313ce567146103945761021a565b8063045fa7791461021c57806306fdde0314610245578063095ea7b314610270578063140b9d84146102ad5761021a565b3661021a57005b005b34801561022857600080fd5b50610243600480360381019061023e9190612502565b6108ab565b005b34801561025157600080fd5b5061025a61090d565b60405161026791906125dd565b60405180910390f35b34801561027c57600080fd5b506102976004803603810190610292919061265d565b61099f565b6040516102a491906126b8565b60405180910390f35b3480156102b957600080fd5b506102c26109c2565b6040516102cf91906126e2565b60405180910390f35b3480156102e457600080fd5b506102ed6109c8565b6040516102fa91906126e2565b60405180910390f35b34801561030f57600080fd5b506103186109d2565b60405161032591906126e2565b60405180910390f35b34801561033a57600080fd5b50610355600480360381019061035091906126fd565b6109de565b60405161036291906126b8565b60405180910390f35b34801561037757600080fd5b50610392600480360381019061038d9190612750565b610a0d565b005b3480156103a057600080fd5b506103a9610ad6565b6040516103b69190612799565b60405180910390f35b3480156103cb57600080fd5b506103d4610adf565b6040516103e191906126e2565b60405180910390f35b61040460048036038101906103ff9190612750565b610aed565b005b34801561041257600080fd5b5061041b610e6b565b60405161042f9897969594939291906127c3565b60405180910390f35b34801561044457600080fd5b5061045f600480360381019061045a9190612750565b611073565b60405161046e93929190612856565b60405180910390f35b34801561048357600080fd5b5061048c6110ad565b604051610499919061288d565b60405180910390f35b3480156104ae57600080fd5b506104b76110d1565b6040516104c491906126e2565b60405180910390f35b3480156104d957600080fd5b506104e26110d7565b6040516104ef91906129dd565b60405180910390f35b34801561050457600080fd5b5061050d611348565b60405161051a91906126e2565b60405180910390f35b34801561052f57600080fd5b5061054a600480360381019061054591906129ff565b61134e565b60405161055791906126e2565b60405180910390f35b34801561056c57600080fd5b50610575611366565b60405161058291906126e2565b60405180910390f35b34801561059757600080fd5b506105b260048036038101906105ad9190612750565b61136c565b005b3480156105c057600080fd5b506105c96116c6565b6040516105d691906126b8565b60405180910390f35b3480156105eb57600080fd5b50610606600480360381019061060191906129ff565b6116d9565b60405161061391906126e2565b60405180910390f35b34801561062857600080fd5b50610631611721565b005b34801561063f57600080fd5b50610648611735565b60405161065591906126e2565b60405180910390f35b34801561066a57600080fd5b5061068560048036038101906106809190612750565b611759565b6040516106929190612b1d565b60405180910390f35b3480156106a757600080fd5b506106b061186e565b6040516106bd919061288d565b60405180910390f35b3480156106d257600080fd5b506106db611898565b6040516106e891906125dd565b60405180910390f35b3480156106fd57600080fd5b5061070661192a565b60405161071391906126e2565b60405180910390f35b34801561072857600080fd5b50610743600480360381019061073e919061265d565b611930565b60405161075091906126b8565b60405180910390f35b34801561076557600080fd5b5061076e611953565b60405161077b91906126e2565b60405180910390f35b34801561079057600080fd5b506107ab60048036038101906107a69190612750565b61195c565b6040516107b891906126e2565b60405180910390f35b3480156107cd57600080fd5b506107d6611a02565b6040516107e391906126e2565b60405180910390f35b3480156107f857600080fd5b50610813600480360381019061080e9190612b6b565b611a08565b005b34801561082157600080fd5b5061083c60048036038101906108379190612b98565b611a30565b60405161084991906126e2565b60405180910390f35b34801561085e57600080fd5b50610867611ab7565b60405161087996959493929190612bd8565b60405180910390f35b34801561088e57600080fd5b506108a960048036038101906108a491906129ff565b611af3565b005b6108b3611b79565b81600960010190816108c59190612e45565b50806009600201819055507fc0d21bdc9727f7d39495ff4dd003e22925de85f1e81aacfd7caa71e65034e9df8282604051610901929190612f17565b60405180910390a15050565b60606003805461091c90612c68565b80601f016020809104026020016040519081016040528092919081815260200182805461094890612c68565b80156109955780601f1061096a57610100808354040283529160200191610995565b820191906000526020600020905b81548152906001019060200180831161097857829003601f168201915b5050505050905090565b6000806109aa611c00565b90506109b7818585611c08565b600191505092915050565b60115481565b6000600254905090565b67016345785d8a000081565b6000806109e9611c00565b90506109f6858285611c1a565b610a01858585611caf565b60019150509392505050565b610a15611b79565b8067016345785d8a0000610a299190612f76565b60105411610a6c576040517f08c379a0000000000000000000000000000000000000000000000000000000008152600401610a6390612ff6565b60405180910390fd5b8060106000828254610a7e9190613016565b92505081905550610a8d61186e565b73ffffffffffffffffffffffffffffffffffffffff166108fc829081150290604051600060405180830381858888f19350505050158015610ad2573d6000803e3d6000fd5b5050565b60006012905090565b69d3c21bcecceda100000081565b610af5611da3565b601460009054906101000a900460ff16610b44576040517f08c379a0000000000000000000000000000000000000000000000000000000008152600401610b3b90613096565b60405180910390fd5b60008111610b87576040517f08c379a0000000000000000000000000000000000000000000000000000000008152600401610b7e90613102565b60405180910390fd5b600960030160009054906101000a900460ff16610bd9576040517f08c379a0000000000000000000000000000000000000000000000000000000008152600401610bd09061316e565b60405180910390fd5b6000610be4306116d9565b905080821115610c29576040517f08c379a0000000000000000000000000000000000000000000000000000000008152600401610c20906131da565b60405180910390fd5b6000610c348361195c565b90506000670de0b6b3a76400008285610c4d91906131fa565b610c57919061326b565b905080341015610c9c576040517f08c379a0000000000000000000000000000000000000000000000000000000008152600401610c93906132e8565b60405180910390fd5b610ca7303386611caf565b60156040518060600160405280428152602001848152602001868152509080600181540180825580915050600190039060005260206000209060030201600090919091909150600082015181600001556020820151816001015560408201518160020155505081600881905550426012819055508360116000828254610d2d9190612f76565b9250508190555083610d3e336116d9565b03610d5c5760136000815480929190610d5690613308565b91905055505b8060106000828254610d6e9190612f76565b9250508190555080341115610dd0573373ffffffffffffffffffffffffffffffffffffffff166108fc8234610da39190613016565b9081150290604051600060405180830381858888f19350505050158015610dce573d6000803e3d6000fd5b505b3373ffffffffffffffffffffffffffffffffffffffff167f8fafebcaf9d154343dad25669bfa277f4fbacd7ac6b0c4fed522580e040a0f338584604051610e18929190613350565b60405180910390a27f15819dd2fd9f6418b142e798d08a18d0bf06ea368f4480b7b0d3f75bd966bc486008548342604051610e5593929190612856565b60405180910390a1505050610e68611de9565b50565b6009806000018054610e7c90612c68565b80601f0160208091040260200160405190810160405280929190818152602001828054610ea890612c68565b8015610ef55780601f10610eca57610100808354040283529160200191610ef5565b820191906000526020600020905b815481529060010190602001808311610ed857829003601f168201915b505050505090806001018054610f0a90612c68565b80601f0160208091040260200160405190810160405280929190818152602001828054610f3690612c68565b8015610f835780601f10610f5857610100808354040283529160200191610f83565b820191906000526020600020905b815481529060010190602001808311610f6657829003601f168201915b5050505050908060020154908060030160009054906101000a900460ff16908060030160019054906101000a900473ffffffffffffffffffffffffffffffffffffffff1690806004015490806005018054610fdd90612c68565b80601f016020809104026020016040519081016040528092919081815260200182805461100990612c68565b80156110565780601f1061102b57610100808354040283529160200191611056565b820191906000526020600020905b81548152906001019060200180831161103957829003601f168201915b5050505050908060060160009054906101000a900460ff16905088565b6015818154811061108357600080fd5b90600052602060002090600302016000915090508060000154908060010154908060020154905083565b7f000000000000000000000000000000000000000000000000000000000000000081565b60105481565b6110df6122f2565b6009604051806101000160405290816000820180546110fd90612c68565b80601f016020809104026020016040519081016040528092919081815260200182805461112990612c68565b80156111765780601f1061114b57610100808354040283529160200191611176565b820191906000526020600020905b81548152906001019060200180831161115957829003601f168201915b5050505050815260200160018201805461118f90612c68565b80601f01602080910402602001604051908101604052809291908181526020018280546111bb90612c68565b80156112085780601f106111dd57610100808354040283529160200191611208565b820191906000526020600020905b8154815290600101906020018083116111eb57829003601f168201915b50505050508152602001600282015481526020016003820160009054906101000a900460ff161515151581526020016003820160019054906101000a900473ffffffffffffffffffffffffffffffffffffffff1673ffffffffffffffffffffffffffffffffffffffff1673ffffffffffffffffffffffffffffffffffffffff168152602001600482015481526020016005820180546112a690612c68565b80601f01602080910402602001604051908101604052809291908181526020018280546112d290612c68565b801561131f5780601f106112f45761010080835404028352916020019161131f565b820191906000526020600020905b81548152906001019060200180831161130257829003601f168201915b505050505081526020016006820160009054906101000a900460ff161515151581525050905090565b60125481565b60166020528060005260406000206000915090505481565b60135481565b611374611da3565b601460009054906101000a900460ff166113c3576040517f08c379a00000000000000000000000000000000000000000000000000000000081526004016113ba90613096565b60405180910390fd5b60008111611406576040517f08c379a00000000000000000000000000000000000000000000000000000000081526004016113fd90613102565b60405180910390fd5b80611410336116d9565b1015611451576040517f08c379a0000000000000000000000000000000000000000000000000000000008152600401611448906133c5565b60405180910390fd5b600060105411611496576040517f08c379a000000000000000000000000000000000000000000000000000000000815260040161148d90613431565b60405180910390fd5b60006114a18261195c565b90506000670de0b6b3a764000082846114ba91906131fa565b6114c4919061326b565b905080601054101561150b576040517f08c379a00000000000000000000000000000000000000000000000000000000081526004016115029061349d565b60405180910390fd5b611516333085611caf565b816008819055504260128190555082601160008282546115369190612f76565b925050819055506000611548336116d9565b036115665760136000815480929190611560906134bd565b91905055505b60156040518060600160405280428152602001848152602001858152509080600181540180825580915050600190039060005260206000209060030201600090919091909150600082015181600001556020820151816001015560408201518160020155505080601060008282546115de9190613016565b925050819055503373ffffffffffffffffffffffffffffffffffffffff166108fc829081150290604051600060405180830381858888f1935050505015801561162b573d6000803e3d6000fd5b503373ffffffffffffffffffffffffffffffffffffffff167f2dcf9433d75db0d8b1c172641f85e319ffe4ad22e108a95d1847ceb906e5195d8484604051611674929190613350565b60405180910390a27f15819dd2fd9f6418b142e798d08a18d0bf06ea368f4480b7b0d3f75bd966bc4860085483426040516116b193929190612856565b60405180910390a150506116c3611de9565b50565b601460009054906101000a900460ff1681565b60008060008373ffffffffffffffffffffffffffffffffffffffff1673ffffffffffffffffffffffffffffffffffffffff168152602001908152602001600020549050919050565b611729611b79565b6117336000611df3565b565b7f000000000000000000000000000000000000000000000000000000000000000081565b60606000601580549050905060006117718483611eb9565b905060008167ffffffffffffffff81111561178f5761178e6123a1565b5b6040519080825280602002602001820160405280156117c857816020015b6117b5612351565b8152602001906001900390816117ad5790505b50905060005b828110156118625760158184866117e59190613016565b6117ef9190612f76565b81548110611800576117ff6134e6565b5b9060005260206000209060030201604051806060016040529081600082015481526020016001820154815260200160028201548152505082828151811061184a576118496134e6565b5b602002602001018190525080806001019150506117ce565b50809350505050919050565b6000600560009054906101000a900473ffffffffffffffffffffffffffffffffffffffff16905090565b6060600480546118a790612c68565b80601f01602080910402602001604051908101604052809291908181526020018280546118d390612c68565b80156119205780601f106118f557610100808354040283529160200191611920565b820191906000526020600020905b81548152906001019060200180831161190357829003601f168201915b5050505050905090565b60085481565b60008061193b611c00565b9050611948818585611caf565b600191505092915050565b6402540be40081565b60008082116119a0576040517f08c379a000000000000000000000000000000000000000000000000000000000815260040161199790613102565b60405180910390fd5b60006119ab306116d9565b90506000670de0b6b3a7640000905060006001836119c99190612f76565b82866119d591906131fa565b6119df919061326b565b90506000816402540be4006119f49190612f76565b905080945050505050919050565b60075481565b611a10611b79565b80600960030160006101000a81548160ff02191690831515021790555050565b6000600160008473ffffffffffffffffffffffffffffffffffffffff1673ffffffffffffffffffffffffffffffffffffffff16815260200190815260200160002060008373ffffffffffffffffffffffffffffffffffffffff1673ffffffffffffffffffffffffffffffffffffffff16815260200190815260200160002054905092915050565b600080600080600080600854600754601054601154601354601460009054906101000a900460ff16955095509550955095509550909192939495565b611afb611b79565b600073ffffffffffffffffffffffffffffffffffffffff168173ffffffffffffffffffffffffffffffffffffffff1603611b6d5760006040517f1e4fbdf7000000000000000000000000000000000000000000000000000000008152600401611b64919061288d565b60405180910390fd5b611b7681611df3565b50565b611b81611c00565b73ffffffffffffffffffffffffffffffffffffffff16611b9f61186e565b73ffffffffffffffffffffffffffffffffffffffff1614611bfe57611bc2611c00565b6040517f118cdaa7000000000000000000000000000000000000000000000000000000008152600401611bf5919061288d565b60405180910390fd5b565b600033905090565b611c158383836001611ed0565b505050565b6000611c268484611a30565b90507fffffffffffffffffffffffffffffffffffffffffffffffffffffffffffffffff811015611ca95781811015611c99578281836040517ffb8f41b2000000000000000000000000000000000000000000000000000000008152600401611c9093929190613515565b60405180910390fd5b611ca884848484036000611ed0565b5b50505050565b600073ffffffffffffffffffffffffffffffffffffffff168373ffffffffffffffffffffffffffffffffffffffff1603611d215760006040517f96c6fd1e000000000000000000000000000000000000000000000000000000008152600401611d18919061288d565b60405180910390fd5b600073ffffffffffffffffffffffffffffffffffffffff168273ffffffffffffffffffffffffffffffffffffffff1603611d935760006040517fec442f05000000000000000000000000000000000000000000000000000000008152600401611d8a919061288d565b60405180910390fd5b611d9e8383836120a7565b505050565b600260065403611ddf576040517f3ee5aeb500000000000000000000000000000000000000000000000000000000815260040160405180910390fd5b6002600681905550565b6001600681905550565b6000600560009054906101000a900473ffffffffffffffffffffffffffffffffffffffff16905081600560006101000a81548173ffffffffffffffffffffffffffffffffffffffff021916908373ffffffffffffffffffffffffffffffffffffffff1602179055508173ffffffffffffffffffffffffffffffffffffffff168173ffffffffffffffffffffffffffffffffffffffff167f8be0079c531659141344cd1fd0a4f28419497f9722a3daafe3b4186f6b6457e060405160405180910390a35050565b6000611ec882841084846122cc565b905092915050565b600073ffffffffffffffffffffffffffffffffffffffff168473ffffffffffffffffffffffffffffffffffffffff1603611f425760006040517fe602df05000000000000000000000000000000000000000000000000000000008152600401611f39919061288d565b60405180910390fd5b600073ffffffffffffffffffffffffffffffffffffffff168373ffffffffffffffffffffffffffffffffffffffff1603611fb45760006040517f94280d62000000000000000000000000000000000000000000000000000000008152600401611fab919061288d565b60405180910390fd5b81600160008673ffffffffffffffffffffffffffffffffffffffff1673ffffffffffffffffffffffffffffffffffffffff16815260200190815260200160002060008573ffffffffffffffffffffffffffffffffffffffff1673ffffffffffffffffffffffffffffffffffffffff1681526020019081526020016000208190555080156120a1578273ffffffffffffffffffffffffffffffffffffffff168473ffffffffffffffffffffffffffffffffffffffff167f8c5be1e5ebec7d5bd14f71427d1e84f3dd0314c0f7b2291e5b200ac8c7c3b9258460405161209891906126e2565b60405180910390a35b50505050565b600073ffffffffffffffffffffffffffffffffffffffff168373ffffffffffffffffffffffffffffffffffffffff16036120f95780600260008282546120ed9190612f76565b925050819055506121cc565b60008060008573ffffffffffffffffffffffffffffffffffffffff1673ffffffffffffffffffffffffffffffffffffffff16815260200190815260200160002054905081811015612185578381836040517fe450d38c00000000000000000000000000000000000000000000000000000000815260040161217c93929190613515565b60405180910390fd5b8181036000808673ffffffffffffffffffffffffffffffffffffffff1673ffffffffffffffffffffffffffffffffffffffff16815260200190815260200160002081905550505b600073ffffffffffffffffffffffffffffffffffffffff168273ffffffffffffffffffffffffffffffffffffffff16036122155780600260008282540392505081905550612262565b806000808473ffffffffffffffffffffffffffffffffffffffff1673ffffffffffffffffffffffffffffffffffffffff168152602001908152602001600020600082825401925050819055505b8173ffffffffffffffffffffffffffffffffffffffff168373ffffffffffffffffffffffffffffffffffffffff167fddf252ad1be2c89b69c2b068fc378daa952ba7f163c4a11628f55a4df523b3ef836040516122bf91906126e2565b60405180910390a3505050565b60006122d7846122e6565b82841802821890509392505050565b60008115159050919050565b604051806101000160405280606081526020016060815260200160008152602001600015158152602001600073ffffffffffffffffffffffffffffffffffffffff16815260200160008152602001606081526020016000151581525090565b60405180606001604052806000815260200160008152602001600081525090565b6000604051905090565b600080fd5b600080fd5b600080fd5b600080fd5b6000601f19601f8301169050919050565b7f4e487b7100000000000000000000000000000000000000000000000000000000600052604160045260246000fd5b6123d982612390565b810181811067ffffffffffffffff821117156123f8576123f76123a1565b5b80604052505050565b600061240b612372565b905061241782826123d0565b919050565b600067ffffffffffffffff821115612437576124366123a1565b5b61244082612390565b9050602081019050919050565b82818337600083830152505050565b600061246f61246a8461241c565b612401565b90508281526020810184848401111561248b5761248a61238b565b5b61249684828561244d565b509392505050565b600082601f8301126124b3576124b2612386565b5b81356124c384826020860161245c565b91505092915050565b6000819050919050565b6124df816124cc565b81146124ea57600080fd5b50565b6000813590506124fc816124d6565b92915050565b600080604083850312156125195761251861237c565b5b600083013567ffffffffffffffff81111561253757612536612381565b5b6125438582860161249e565b9250506020612554858286016124ed565b9150509250929050565b600081519050919050565b600082825260208201905092915050565b60005b8381101561259857808201518184015260208101905061257d565b60008484015250505050565b60006125af8261255e565b6125b98185612569565b93506125c981856020860161257a565b6125d281612390565b840191505092915050565b600060208201905081810360008301526125f781846125a4565b905092915050565b600073ffffffffffffffffffffffffffffffffffffffff82169050919050565b600061262a826125ff565b9050919050565b61263a8161261f565b811461264557600080fd5b50565b60008135905061265781612631565b92915050565b600080604083850312156126745761267361237c565b5b600061268285828601612648565b9250506020612693858286016124ed565b9150509250929050565b60008115159050919050565b6126b28161269d565b82525050565b60006020820190506126cd60008301846126a9565b92915050565b6126dc816124cc565b82525050565b60006020820190506126f760008301846126d3565b92915050565b6000806000606084860312156127165761271561237c565b5b600061272486828701612648565b935050602061273586828701612648565b9250506040612746868287016124ed565b9150509250925092565b6000602082840312156127665761276561237c565b5b6000612774848285016124ed565b91505092915050565b600060ff82169050919050565b6127938161277d565b82525050565b60006020820190506127ae600083018461278a565b92915050565b6127bd8161261f565b82525050565b60006101008201905081810360008301526127de818b6125a4565b905081810360208301526127f2818a6125a4565b905061280160408301896126d3565b61280e60608301886126a9565b61281b60808301876127b4565b61282860a08301866126d3565b81810360c083015261283a81856125a4565b905061284960e08301846126a9565b9998505050505050505050565b600060608201905061286b60008301866126d3565b61287860208301856126d3565b61288560408301846126d3565b949350505050565b60006020820190506128a260008301846127b4565b92915050565b600082825260208201905092915050565b60006128c48261255e565b6128ce81856128a8565b93506128de81856020860161257a565b6128e781612390565b840191505092915050565b6128fb816124cc565b82525050565b61290a8161269d565b82525050565b6129198161261f565b82525050565b600061010083016000830151848203600086015261293d82826128b9565b9150506020830151848203602086015261295782826128b9565b915050604083015161296c60408601826128f2565b50606083015161297f6060860182612901565b5060808301516129926080860182612910565b5060a08301516129a560a08601826128f2565b5060c083015184820360c08601526129bd82826128b9565b91505060e08301516129d260e0860182612901565b508091505092915050565b600060208201905081810360008301526129f7818461291f565b905092915050565b600060208284031215612a1557612a1461237c565b5b6000612a2384828501612648565b91505092915050565b600081519050919050565b600082825260208201905092915050565b6000819050602082019050919050565b606082016000820151612a6e60008501826128f2565b506020820151612a8160208501826128f2565b506040820151612a9460408501826128f2565b50505050565b6000612aa68383612a58565b60608301905092915050565b6000602082019050919050565b6000612aca82612a2c565b612ad48185612a37565b9350612adf83612a48565b8060005b83811015612b10578151612af78882612a9a565b9750612b0283612ab2565b925050600181019050612ae3565b5085935050505092915050565b60006020820190508181036000830152612b378184612abf565b905092915050565b612b488161269d565b8114612b5357600080fd5b50565b600081359050612b6581612b3f565b92915050565b600060208284031215612b8157612b8061237c565b5b6000612b8f84828501612b56565b91505092915050565b60008060408385031215612baf57612bae61237c565b5b6000612bbd85828601612648565b9250506020612bce85828601612648565b9150509250929050565b600060c082019050612bed60008301896126d3565b612bfa60208301886126d3565b612c0760408301876126d3565b612c1460608301866126d3565b612c2160808301856126d3565b612c2e60a08301846126a9565b979650505050505050565b7f4e487b7100000000000000000000000000000000000000000000000000000000600052602260045260246000fd5b60006002820490506001821680612c8057607f821691505b602082108103612c9357612c92612c39565b5b50919050565b60008190508160005260206000209050919050565b60006020601f8301049050919050565b600082821b905092915050565b600060088302612cfb7fffffffffffffffffffffffffffffffffffffffffffffffffffffffffffffffff82612cbe565b612d058683612cbe565b95508019841693508086168417925050509392505050565b6000819050919050565b6000612d42612d3d612d38846124cc565b612d1d565b6124cc565b9050919050565b6000819050919050565b612d5c83612d27565b612d70612d6882612d49565b848454612ccb565b825550505050565b600090565b612d85612d78565b612d90818484612d53565b505050565b5b81811015612db457612da9600082612d7d565b600181019050612d96565b5050565b601f821115612df957612dca81612c99565b612dd384612cae565b81016020851015612de2578190505b612df6612dee85612cae565b830182612d95565b50505b505050565b600082821c905092915050565b6000612e1c60001984600802612dfe565b1980831691505092915050565b6000612e358383612e0b565b9150826002028217905092915050565b612e4e8261255e565b67ffffffffffffffff811115612e6757612e666123a1565b5b612e718254612c68565b612e7c828285612db8565b600060209050601f831160018114612eaf5760008415612e9d578287015190505b612ea78582612e29565b865550612f0f565b601f198416612ebd86612c99565b60005b82811015612ee557848901518255600182019150602085019450602081019050612ec0565b86831015612f025784890151612efe601f891682612e0b565b8355505b6001600288020188555050505b505050505050565b60006040820190508181036000830152612f3181856125a4565b9050612f4060208301846126d3565b9392505050565b7f4e487b7100000000000000000000000000000000000000000000000000000000600052601160045260246000fd5b6000612f81826124cc565b9150612f8c836124cc565b9250828201905080821115612fa457612fa3612f47565b5b92915050565b7f496e73756666696369656e7420657863657373206c6971756964697479000000600082015250565b6000612fe0601d83612569565b9150612feb82612faa565b602082019050919050565b6000602082019050818103600083015261300f81612fd3565b9050919050565b6000613021826124cc565b915061302c836124cc565b925082820390508181111561304457613043612f47565b5b92915050565b7f54726164696e6720697320706175736564000000000000000000000000000000600082015250565b6000613080601183612569565b915061308b8261304a565b602082019050919050565b600060208201905081810360008301526130af81613073565b9050919050565b7f416d6f756e74206d7573742062652067726561746572207468616e2030000000600082015250565b60006130ec601d83612569565b91506130f7826130b6565b602082019050919050565b6000602082019050818103600083015261311b816130df565b9050919050565b7f506174656e74206e6f7420666f722073616c6500000000000000000000000000600082015250565b6000613158601383612569565b915061316382613122565b602082019050919050565b600060208201905081810360008301526131878161314b565b9050919050565b7f496e73756666696369656e74206c697175696469747900000000000000000000600082015250565b60006131c4601683612569565b91506131cf8261318e565b602082019050919050565b600060208201905081810360008301526131f3816131b7565b9050919050565b6000613205826124cc565b9150613210836124cc565b925082820261321e816124cc565b9150828204841483151761323557613234612f47565b5b5092915050565b7f4e487b7100000000000000000000000000000000000000000000000000000000600052601260045260246000fd5b6000613276826124cc565b9150613281836124cc565b9250826132915761329061323c565b5b828204905092915050565b7f496e73756666696369656e74207061796d656e74000000000000000000000000600082015250565b60006132d2601483612569565b91506132dd8261329c565b602082019050919050565b60006020820190508181036000830152613301816132c5565b9050919050565b6000613313826124cc565b91507fffffffffffffffffffffffffffffffffffffffffffffffffffffffffffffffff820361334557613344612f47565b5b600182019050919050565b600060408201905061336560008301856126d3565b61337260208301846126d3565b9392505050565b7f496e73756666696369656e742062616c616e6365000000000000000000000000600082015250565b60006133af601483612569565b91506133ba82613379565b602082019050919050565b600060208201905081810360008301526133de816133a2565b9050919050565b7f4e6f206c69717569646974790000000000000000000000000000000000000000600082015250565b600061341b600c83612569565b9150613426826133e5565b602082019050919050565b6000602082019050818103600083015261344a8161340e565b9050919050565b7f496e73756666696369656e74206c697175696469747920666f722073616c6500600082015250565b6000613487601f83612569565b915061349282613451565b602082019050919050565b600060208201905081810360008301526134b68161347a565b9050919050565b60006134c8826124cc565b9150600082036134db576134da612f47565b5b600182039050919050565b7f4e487b7100000000000000000000000000000000000000000000000000000000600052603260045260246000fd5b600060608201905061352a60008301866127b4565b61353760208301856126d3565b61354460408301846126d3565b94935050505056fea26469706673582212206f6b49d7729a482c545d57b5aedb473819838be4d77868434aac1d259d87eb3264736f6c63430008180033a26469706673582212203f2086b20b8691ba514b6e333a680ecc1e62c789e44f1d4f56f4321c82b9fe0464736f6c63430008180033",
  "linkReferences": {},
  "deployedLinkReferences": {}
}