{
  "_format": "hh-sol-artifact-1",
  "contractName": "PatentToken",
  "sourceName": "contracts/PatentToken.sol",
  "abi": [
    {
      "inputs": [
        {
          "internalType": "string",
          "name": "name",
          "type": "string"
        },
        {
          "internalType": "string",
          "name": "symbol",
          "type": "string"
        },
        {
          "internalType": "address",
          "name": "_patentRegistryAddress",
          "type": "address"
        },
        {
          "internalType": "uint256",
          "name": "_patentId",
          "type": "uint256"
        },
        {
          "internalType": "address",
          "name": "initialOwner",
          "type": "address"
        }
      ],
      "stateMutability": "payable",
      "type": "constructor"
    },
    {
      "inputs": [
        {
          "internalType": "address",
          "name": "spender",
          "type": "address"
        },
        {
          "internalType": "uint256",
          "name": "allowance",
          "type": "uint256"
        },
        {
          "internalType": "uint256",
          "name": "needed",
          "type": "uint256"
        }
      ],
      "name": "ERC20InsufficientAllowance",
      "type": "error"
    },
    {
      "inputs": [
        {
          "internalType": "address",
          "name": "sender",
          "type": "address"
        },
        {
          "internalType": "uint256",
          "name": "balance",
          "type": "uint256"
        },
        {
          "internalType": "uint256",
          "name": "needed",
          "type": "uint256"
        }
      ],
      "name": "ERC20InsufficientBalance",
      "type": "error"
    },
    {
      "inputs": [
        {
          "internalType": "address",
          "name": "approver",
          "type": "address"
        }
      ],
      "name": "ERC20InvalidApprover",
      "type": "error"
    },
    {
      "inputs": [
        {
          "internalType": "address",
          "name": "receiver",
          "type": "address"
        }
      ],
      "name": "ERC20InvalidReceiver",
      "type": "error"
    },
    {
      "inputs": [
        {
          "internalType": "address",
          "name": "sender",
          "type": "address"
        }
      ],
      "name": "ERC20InvalidSender",
      "type": "error"
    },
    {
      "inputs": [
        {
          "internalType": "address",
          "name": "spender",
          "type": "address"
        }
      ],
      "name": "ERC20InvalidSpender",
      "type": "error"
    },
    {
      "inputs": [
        {
          "internalType": "address",
          "name": "owner",
          "type": "address"
        }
      ],
      "name": "OwnableInvalidOwner",
      "type": "error"
    },
    {
      "inputs": [
        {
          "internalType": "address",
          "name": "account",
          "type": "address"
        }
      ],
      "name": "OwnableUnauthorizedAccount",
      "type": "error"
    },
    {
      "inputs": [],
      "name": "ReentrancyGuardReentrantCall",
      "type": "error"
    },
    {
      "anonymous": false,
      "inputs": [
        {
          "indexed": true,
          "internalType": "address",
          "name": "owner",
          "type": "address"
        },
        {
          "indexed": true,
          "internalType": "address",
          "name": "spender",
          "type": "address"
        },
        {
          "indexed": false,
          "internalType": "uint256",
          "name": "value",
          "type": "uint256"
        }
      ],
      "name": "Approval",
      "type": "event"
    },
    {
      "anonymous": false,
      "inputs": [
        {
          "indexed": true,
          "internalType": "address",
          "name": "provider",
          "type": "address"
        },
        {
          "indexed": false,
          "internalType": "uint256",
          "name": "amount",
          "type": "uint256"
        }
      ],
      "name": "LiquidityAdded",
      "type": "event"
    },
    {
      "anonymous": false,
      "inputs": [
        {
          "indexed": true,
          "internalType": "address",
          "name": "provider",
          "type": "address"
        },
        {
          "indexed": false,
          "internalType": "uint256",
          "name": "amount",
          "type": "uint256"
        }
      ],
      "name": "LiquidityRemoved",
      "type": "event"
    },
    {
      "anonymous": false,
      "inputs": [
        {
          "indexed": true,
          "internalType": "address",
          "name": "previousOwner",
          "type": "address"
        },
        {
          "indexed": true,
          "internalType": "address",
          "name": "newOwner",
          "type": "address"
        }
      ],
      "name": "OwnershipTransferred",
      "type": "event"
    },
    {
      "anonymous": false,
      "inputs": [
        {
          "indexed": false,
          "internalType": "string",
          "name": "ipfsHash",
          "type": "string"
        },
        {
          "indexed": false,
          "internalType": "uint256",
          "name": "price",
          "type": "uint256"
        }
      ],
      "name": "PatentDetailsUpdated",
      "type": "event"
    },
    {
      "anonymous": false,
      "inputs": [
        {
          "indexed": false,
          "internalType": "uint256",
          "name": "oldPrice",
          "type": "uint256"
        },
        {
          "indexed": false,
          "internalType": "uint256",
          "name": "newPrice",
          "type": "uint256"
        },
        {
          "indexed": false,
          "internalType": "uint256",
          "name": "timestamp",
          "type": "uint256"
        }
      ],
      "name": "PriceUpdated",
      "type": "event"
    },
    {
      "anonymous": false,
      "inputs": [
        {
          "indexed": true,
          "internalType": "address",
          "name": "buyer",
          "type": "address"
        },
        {
          "indexed": false,
          "internalType": "uint256",
          "name": "amount",
          "type": "uint256"
        },
        {
          "indexed": false,
          "internalType": "uint256",
          "name": "price",
          "type": "uint256"
        }
      ],
      "name": "TokensPurchased",
      "type": "event"
    },
    {
      "anonymous": false,
      "inputs": [
        {
          "indexed": true,
          "internalType": "address",
          "name": "seller",
          "type": "address"
        },
        {
          "indexed": false,
          "internalType": "uint256",
          "name": "amount",
          "type": "uint256"
        },
        {
          "indexed": false,
          "internalType": "uint256",
          "name": "price",
          "type": "uint256"
        }
      ],
      "name": "TokensSold",
      "type": "event"
    },
    {
      "anonymous": false,
      "inputs": [
        {
          "indexed": true,
          "internalType": "address",
          "name": "from",
          "type": "address"
        },
        {
          "indexed": true,
          "internalType": "address",
          "name": "to",
          "type": "address"
        },
        {
          "indexed": false,
          "internalType": "uint256",
          "name": "value",
          "type": "uint256"
        }
      ],
      "name": "Transfer",
      "type": "event"
    },
    {
      "stateMutability": "payable",
      "type": "fallback"
    },
    {
      "inputs": [],
      "name": "MAX_SUPPLY",
      "outputs": [
        {
          "internalType": "uint256",
          "name": "",
          "type": "uint256"
        }
      ],
      "stateMutability": "view",
      "type": "function"
    },
    {
      "inputs": [],
      "name": "MIN_LIQUIDITY",
      "outputs": [
        {
          "internalType": "uint256",
          "name": "",
          "type": "uint256"
        }
      ],
      "stateMutability": "view",
      "type": "function"
    },
    {
      "inputs": [],
      "name": "MIN_PRICE",
      "outputs": [
        {
          "internalType": "uint256",
          "name": "",
          "type": "uint256"
        }
      ],
      "stateMutability": "view",
      "type": "function"
    },
    {
      "inputs": [
        {
          "internalType": "address",
          "name": "owner",
          "type": "address"
        },
        {
          "internalType": "address",
          "name": "spender",
          "type": "address"
        }
      ],
      "name": "allowance",
      "outputs": [
        {
          "internalType": "uint256",
          "name": "",
          "type": "uint256"
        }
      ],
      "stateMutability": "view",
      "type": "function"
    },
    {
      "inputs": [
        {
          "internalType": "address",
          "name": "spender",
          "type": "address"
        },
        {
          "internalType": "uint256",
          "name": "value",
          "type": "uint256"
        }
      ],
      "name": "approve",
      "outputs": [
        {
          "internalType": "bool",
          "name": "",
          "type": "bool"
        }
      ],
      "stateMutability": "nonpayable",
      "type": "function"
    },
    {
      "inputs": [
        {
          "internalType": "address",
          "name": "account",
          "type": "address"
        }
      ],
      "name": "balanceOf",
      "outputs": [
        {
          "internalType": "uint256",
          "name": "",
          "type": "uint256"
        }
      ],
      "stateMutability": "view",
      "type": "function"
    },
    {
      "inputs": [],
      "name": "basePrice",
      "outputs": [
        {
          "internalType": "uint256",
          "name": "",
          "type": "uint256"
        }
      ],
      "stateMutability": "view",
      "type": "function"
    },
    {
      "inputs": [
        {
          "internalType": "uint256",
          "name": "amount",
          "type": "uint256"
        }
      ],
      "name": "buyTokens",
      "outputs": [],
      "stateMutability": "payable",
      "type": "function"
    },
    {
      "inputs": [
        {
          "internalType": "uint256",
          "name": "amount",
          "type": "uint256"
        }
      ],
      "name": "calculatePrice",
      "outputs": [
        {
          "internalType": "uint256",
          "name": "",
          "type": "uint256"
        }
      ],
      "stateMutability": "view",
      "type": "function"
    },
    {
      "inputs": [],
      "name": "currentPrice",
      "outputs": [
        {
          "internalType": "uint256",
          "name": "",
          "type": "uint256"
        }
      ],
      "stateMutability": "view",
      "type": "function"
    },
    {
      "inputs": [],
      "name": "decimals",
      "outputs": [
        {
          "internalType": "uint8",
          "name": "",
          "type": "uint8"
        }
      ],
      "stateMutability": "view",
      "type": "function"
    },
    {
      "inputs": [],
      "name": "getPatentDetails",
      "outputs": [
        {
          "components": [
            {
              "internalType": "string",
              "name": "title",
              "type": "string"
            },
            {
              "internalType": "string",
              "name": "ipfsHash",
              "type": "string"
            },
            {
              "internalType": "uint256",
              "name": "price",
              "type": "uint256"
            },
            {
              "internalType": "bool",
              "name": "isForSale",
              "type": "bool"
            },
            {
              "internalType": "address",
              "name": "inventor",
              "type": "address"
            },
            {
              "internalType": "uint256",
              "name": "createdAt",
              "type": "uint256"
            },
            {
              "internalType": "string",
              "name": "patentId",
              "type": "string"
            },
            {
              "internalType": "bool",
              "name": "isVerified",
              "type": "bool"
            }
          ],
          "internalType": "struct PatentToken.Patent",
          "name": "",
          "type": "tuple"
        }
      ],
      "stateMutability": "view",
      "type": "function"
    },
    {
      "inputs": [],
      "name": "getTokenMetrics",
      "outputs": [
        {
          "internalType": "uint256",
          "name": "_currentPrice",
          "type": "uint256"
        },
        {
          "internalType": "uint256",
          "name": "_basePrice",
          "type": "uint256"
        },
        {
          "internalType": "uint256",
          "name": "_liquidityPool",
          "type": "uint256"
        },
        {
          "internalType": "uint256",
          "name": "_volume24h",
          "type": "uint256"
        },
        {
          "internalType": "uint256",
          "name": "_holdersCount",
          "type": "uint256"
        },
        {
          "internalType": "bool",
          "name": "_isTrading",
          "type": "bool"
        }
      ],
      "stateMutability": "view",
      "type": "function"
    },
    {
      "inputs": [
        {
          "internalType": "uint256",
          "name": "count",
          "type": "uint256"
        }
      ],
      "name": "getTradeHistory",
      "outputs": [
        {
          "components": [
            {
              "internalType": "uint256",
              "name": "timestamp",
              "type": "uint256"
            },
            {
              "internalType": "uint256",
              "name": "price",
              "type": "uint256"
            },
            {
              "internalType": "uint256",
              "name": "volume",
              "type": "uint256"
            }
          ],
          "internalType": "struct PatentToken.TradeMetrics[]",
          "name": "",
          "type": "tuple[]"
        }
      ],
      "stateMutability": "view",
      "type": "function"
    },
    {
      "inputs": [],
      "name": "holdersCount",
      "outputs": [
        {
          "internalType": "uint256",
          "name": "",
          "type": "uint256"
        }
      ],
      "stateMutability": "view",
      "type": "function"
    },
    {
      "inputs": [],
      "name": "isTrading",
      "outputs": [
        {
          "internalType": "bool",
          "name": "",
          "type": "bool"
        }
      ],
      "stateMutability": "view",
      "type": "function"
    },
    {
      "inputs": [],
      "name": "lastPriceUpdate",
      "outputs": [
        {
          "internalType": "uint256",
          "name": "",
          "type": "uint256"
        }
      ],
      "stateMutability": "view",
      "type": "function"
    },
    {
      "inputs": [],
      "name": "liquidityPool",
      "outputs": [
        {
          "internalType": "uint256",
          "name": "",
          "type": "uint256"
        }
      ],
      "stateMutability": "view",
      "type": "function"
    },
    {
      "inputs": [],
      "name": "name",
      "outputs": [
        {
          "internalType": "string",
          "name": "",
          "type": "string"
        }
      ],
      "stateMutability": "view",
      "type": "function"
    },
    {
      "inputs": [],
      "name": "owner",
      "outputs": [
        {
          "internalType": "address",
          "name": "",
          "type": "address"
        }
      ],
      "stateMutability": "view",
      "type": "function"
    },
    {
      "inputs": [],
      "name": "patentDetails",
      "outputs": [
        {
          "internalType": "string",
          "name": "title",
          "type": "string"
        },
        {
          "internalType": "string",
          "name": "ipfsHash",
          "type": "string"
        },
        {
          "internalType": "uint256",
          "name": "price",
          "type": "uint256"
        },
        {
          "internalType": "bool",
          "name": "isForSale",
          "type": "bool"
        },
        {
          "internalType": "address",
          "name": "inventor",
          "type": "address"
        },
        {
          "internalType": "uint256",
          "name": "createdAt",
          "type": "uint256"
        },
        {
          "internalType": "string",
          "name": "patentId",
          "type": "string"
        },
        {
          "internalType": "bool",
          "name": "isVerified",
          "type": "bool"
        }
      ],
      "stateMutability": "view",
      "type": "function"
    },
    {
      "inputs": [],
      "name": "patentId",
      "outputs": [
        {
          "internalType": "uint256",
          "name": "",
          "type": "uint256"
        }
      ],
      "stateMutability": "view",
      "type": "function"
    },
    {
      "inputs": [],
      "name": "patentRegistryAddress",
      "outputs": [
        {
          "internalType": "address",
          "name": "",
          "type": "address"
        }
      ],
      "stateMutability": "view",
      "type": "function"
    },
    {
      "inputs": [],
      "name": "renounceOwnership",
      "outputs": [],
      "stateMutability": "nonpayable",
      "type": "function"
    },
    {
      "inputs": [
        {
          "internalType": "uint256",
          "name": "amount",
          "type": "uint256"
        }
      ],
      "name": "sellTokens",
      "outputs": [],
      "stateMutability": "nonpayable",
      "type": "function"
    },
    {
      "inputs": [
        {
          "internalType": "bool",
          "name": "forSale",
          "type": "bool"
        }
      ],
      "name": "setPatentForSale",
      "outputs": [],
      "stateMutability": "nonpayable",
      "type": "function"
    },
    {
      "inputs": [],
      "name": "symbol",
      "outputs": [
        {
          "internalType": "string",
          "name": "",
          "type": "string"
        }
      ],
      "stateMutability": "view",
      "type": "function"
    },
    {
      "inputs": [],
      "name": "totalSupply",
      "outputs": [
        {
          "internalType": "uint256",
          "name": "",
          "type": "uint256"
        }
      ],
      "stateMutability": "view",
      "type": "function"
    },
    {
      "inputs": [
        {
          "internalType": "uint256",
          "name": "",
          "type": "uint256"
        }
      ],
      "name": "tradeHistory",
      "outputs": [
        {
          "internalType": "uint256",
          "name": "timestamp",
          "type": "uint256"
        },
        {
          "internalType": "uint256",
          "name": "price",
          "type": "uint256"
        },
        {
          "internalType": "uint256",
          "name": "volume",
          "type": "uint256"
        }
      ],
      "stateMutability": "view",
      "type": "function"
    },
    {
      "inputs": [
        {
          "internalType": "address",
          "name": "to",
          "type": "address"
        },
        {
          "internalType": "uint256",
          "name": "value",
          "type": "uint256"
        }
      ],
      "name": "transfer",
      "outputs": [
        {
          "internalType": "bool",
          "name": "",
          "type": "bool"
        }
      ],
      "stateMutability": "nonpayable",
      "type": "function"
    },
    {
      "inputs": [
        {
          "internalType": "address",
          "name": "from",
          "type": "address"
        },
        {
          "internalType": "address",
          "name": "to",
          "type": "address"
        },
        {
          "internalType": "uint256",
          "name": "value",
          "type": "uint256"
        }
      ],
      "name": "transferFrom",
      "outputs": [
        {
          "internalType": "bool",
          "name": "",
          "type": "bool"
        }
      ],
      "stateMutability": "nonpayable",
      "type": "function"
    },
    {
      "inputs": [
        {
          "internalType": "address",
          "name": "newOwner",
          "type": "address"
        }
      ],
      "name": "transferOwnership",
      "outputs": [],
      "stateMutability": "nonpayable",
      "type": "function"
    },
    {
      "inputs": [
        {
          "internalType": "string",
          "name": "newIpfsHash",
          "type": "string"
        },
        {
          "internalType": "uint256",
          "name": "newPrice",
          "type": "uint256"
        }
      ],
      "name": "updatePatentDetails",
      "outputs": [],
      "stateMutability": "nonpayable",
      "type": "function"
    },
    {
      "inputs": [
        {
          "internalType": "address",
          "name": "",
          "type": "address"
        }
      ],
      "name": "userTrades",
      "outputs": [
        {
          "internalType": "uint256",
          "name": "",
          "type": "uint256"
        }
      ],
      "stateMutability": "view",
      "type": "function"
    },
    {
      "inputs": [],
      "name": "virtualReserve",
      "outputs": [
        {
          "internalType": "uint256",
          "name": "",
          "type": "uint256"
        }
      ],
      "stateMutability": "view",
      "type": "function"
    },
    {
      "inputs": [],
      "name": "volume24h",
      "outputs": [
        {
          "internalType": "uint256",
          "name": "",
          "type": "uint256"
        }
      ],
      "stateMutability": "view",
      "type": "function"
    },
    {
      "inputs": [
        {
          "internalType": "uint256",
          "name": "amount",
          "type": "uint256"
        }
      ],
      "name": "withdrawExcessLiquidity",
      "outputs": [],
      "stateMutability": "nonpayable",
      "type": "function"
    },
    {
      "stateMutability": "payable",
      "type": "receive"
    }
  ],
  "bytecode": "0x60c080604052620028fb80380380916200001a828562000b0d565b8339810160a08282031262000b085781516001600160401b03811162000b0857816200004891840162000b31565b602083015190916001600160401b03821162000b08576200006b91840162000b31565b916200007a6040820162000ba8565b916200008e60806060840151930162000ba8565b815190916001600160401b038211620005b05760035490600182811c9216801562000afd575b60208310146200058f5781601f84931162000a88575b50602090601f8311600114620009fd57600092620009f1575b50508160011b916000199060031b1c1916176003555b83516001600160401b038111620005b057600454600181811c91168015620009e6575b60208210146200058f57601f81116200097c575b50602094601f82116001146200090f5794819293949560009262000903575b50508160011b916000199060031b1c1916176004555b6001600160a01b0381168015620008ea57600580546001600160a01b03198116831790915560405191906001600160a01b03167f8be0079c531659141344cd1fd0a4f28419497f9722a3daafe3b4186f6b6457e0600080a3600160065567016345785d8a00003410620008a8575090620002166000926402540be40080600755600855846080528260a052600160ff1960145416176014554260125534601055620002103062000bcb565b62000bcb565b69d3c21bcecceda100000060155560405163138da1af60e31b8152600481019190915291829060249082906001600160a01b03165afa80156200089c57600090819282838490859286948796620007b2575b50604051976001600160401b036101008a01908111908a1117620005b05761010089016040908152888a5260208a0191909152880152151560608701526001600160a01b0316608086015260a085015260c0840152151560e08301528051906001600160401b038211620005b05760095490600182811c92168015620007a7575b60208310146200058f5781601f84931162000746575b50602090601f8311600114620006c857600092620006bc575b50508160011b916000199060031b1c1916176009555b60208101518051906001600160401b038211620005b057600a5490600182811c92168015620006b1575b60208310146200058f5781601f84931162000650575b50602090601f8311600114620005d257600092620005c6575b50508160011b916000199060031b1c191617600a555b6040810151600b5560608101511515600c5460ff610100600160a81b03608085015160081b1692169060018060a81b0319161717600c5560a0810151600d5560c08101519081519160018060401b038311620005b057600e54600181811c91168015620005a5575b60208210146200058f57601f811162000536575b50602090601f8411600114620004b95760e0939160009183620004ad575b50508160011b916000199060031b1c191617600e555b0151151560ff8019600f5416911617600f556040513481527fc17cea59c2955cb181b03393209566960365771dbba9dc3d510180e7cb31208860203392a2604051611c34908162000c67823960805181610c0a015260a0518161063d0152f35b01519050388062000437565b600e60009081526000805160206200289b833981519152929190601f198616905b8181106200051d575091600193918660e097941062000503575b505050811b01600e556200044d565b015160001960f88460031b161c19169055388080620004f4565b92936020600181928786015181550195019301620004da565b600e6000526000805160206200289b833981519152601f850160051c8101916020861062000584575b601f0160051c01905b81811062000577575062000419565b6000815560010162000568565b90915081906200055f565b634e487b7160e01b600052602260045260246000fd5b90607f169062000405565b634e487b7160e01b600052604160045260246000fd5b01519050388062000387565b600a60009081529350600080516020620028bb83398151915291905b601f198416851062000634576001945083601f198116106200061a575b505050811b01600a556200039d565b015160001960f88460031b161c191690553880806200060b565b81810151835560209485019460019093019290910190620005ee565b600a600052909150600080516020620028bb833981519152601f840160051c810160208510620006a9575b90849392915b601f830160051c82018110620006995750506200036e565b6000815585945060010162000681565b50806200067b565b91607f169162000358565b01519050388062000318565b600960009081529350600080516020620028db83398151915291905b601f19841685106200072a576001945083601f1981161062000710575b505050811b016009556200032e565b015160001960f88460031b161c1916905538808062000701565b81810151835560209485019460019093019290910190620006e4565b6009600052909150600080516020620028db833981519152601f840160051c8101602085106200079f575b90849392915b601f830160051c820181106200078f575050620002ff565b6000815585945060010162000777565b508062000771565b91607f1691620002e9565b9697505050505050503d918281833e620007cd838362000b0d565b610100828481010312620008915781516001600160401b0381116200089857620007fd9084840190840162000b31565b60208301516001600160401b0381116200089457620008229085850190850162000b31565b92604081015194620008376060830162000bbd565b93620008466080840162000ba8565b9060a08401519260c08501519160018060401b03831162000891575062000879620008819260e092870190870162000b31565b940162000bbd565b9395969490919293943862000268565b80fd5b8280fd5b5080fd5b6040513d6000823e3d90fd5b62461bcd60e51b815260206004820152601e60248201527f496e73756666696369656e7420696e697469616c206c697175696469747900006044820152606490fd5b604051631e4fbdf760e01b815260006004820152602490fd5b0151905038806200014f565b601f19821695600460005260206000209160005b888110620009635750836001959697981062000949575b505050811b0160045562000165565b015160001960f88460031b161c191690553880806200093a565b9192602060018192868501518155019401920162000923565b60046000527f8a35acfbc15ff81a39ae7d344fd709f28e8600b4aa8c65c6b64bfe7fe36bd19b601f830160051c81019160208410620009db575b601f0160051c01905b818110620009ce575062000130565b60008155600101620009bf565b9091508190620009b6565b90607f16906200011c565b015190503880620000e3565b600360009081527fc2575a0e9e593c00f959f8c92f12db2869c3395a3b0502d05e2516446f71f85b9350601f198516905b81811062000a6f575090846001959493921062000a55575b505050811b01600355620000f9565b015160001960f88460031b161c1916905538808062000a46565b9293602060018192878601518155019501930162000a2e565b60036000529091507fc2575a0e9e593c00f959f8c92f12db2869c3395a3b0502d05e2516446f71f85b601f840160051c8101916020851062000af2575b90601f859493920160051c01905b81811062000ae25750620000ca565b6000815584935060010162000ad3565b909150819062000ac5565b91607f1691620000b4565b600080fd5b601f909101601f19168101906001600160401b03821190821017620005b057604052565b919080601f8401121562000b08578251906001600160401b038211620005b0576040519160209162000b6d601f8301601f191684018562000b0d565b81845282828701011162000b085760005b81811062000b9457508260009394955001015290565b858101830151848201840152820162000b7e565b51906001600160a01b038216820362000b0857565b5190811515820362000b0857565b6001600160a01b0316801562000c4d576002546969e10de76676d080000080820180921162000c375760207fddf252ad1be2c89b69c2b068fc378daa952ba7f163c4a11628f55a4df523b3ef9160009360025584845283825260408420818154019055604051908152a3565b634e487b7160e01b600052601160045260246000fd5b60405163ec442f0560e01b815260006004820152602490fdfe6080604081815260048036101561001e575b505050361561001c57005b005b600092833560e01c908163045fa779146113665750806306fdde0314611293578063095ea7b3146111ea578063140b9d84146111cb57806318160ddd146111ac57806321b77d631461118957806323b872dd146110965780632d9e3f6214610fc1578063313ce56714610fa557806332cb6b0c14610f805780633610724e14610d3257806352dc0f9614610c8b5780635b0c5dbd14610c395780636485b6bb14610bf5578063665a11ca14610bd657806367bf602b14610a9b5780636949faeb14610a7c5780636a6ae60614610a445780636b4ed21b14610a255780636c11bcd3146107375780636e9087db1461071357806370a08231146106dc578063715018a61461067f57806380c08a5d146106605780638654aa3414610625578063873c5e60146104ef5780638da5cb5b146104c657806395d89b41146103dc5780639d1b464a146103bd578063a9059cbb1461038c578063ad9f20a61461036c578063ae10426514610342578063c7876ea414610323578063d3bc9e2a146102ec578063dd62ed3e146102a3578063f0d673f3146102505763f2fde38b03610011573461024c57602036600319011261024c576101d7611660565b906101e061190c565b6001600160a01b03918216928315610236575050600554826bffffffffffffffffffffffff60a01b821617600555167f8be0079c531659141344cd1fd0a4f28419497f9722a3daafe3b4186f6b6457e08380a380f35b51631e4fbdf760e01b8152908101849052602490fd5b8280fd5b50503461029f578160031936011261029f5760c0906008549060075490601054601154906013549260ff60145416948151968752602087015285015260608401526080830152151560a0820152f35b5080fd5b50503461029f578060031936011261029f57806020926102c1611660565b6102c961167b565b6001600160a01b0391821683526001865283832091168252845220549051908152f35b83823461029f57602036600319011261029f573580151580910361029f5761031261190c565b60ff8019600c5416911617600c5580f35b50503461029f578160031936011261029f576020906007549051908152f35b509134610369576020366003190112610369575061036260209235611a98565b9051908152f35b80fd5b50503461029f578160031936011261029f57602090516402540be4008152f35b50503461029f578060031936011261029f576020906103b66103ac611660565b6024359033611938565b5160018152f35b50503461029f578160031936011261029f576020906008549051908152f35b50903461024c578260031936011261024c57805191838154906103fe82611691565b8086529260019280841690811561049b575060011461043f575b61043b8686610429828b03836115fe565b51918291602083526020830190611620565b0390f35b815294507f8a35acfbc15ff81a39ae7d344fd709f28e8600b4aa8c65c6b64bfe7fe36bd19b5b8286106104835750505061042982602061043b958201019438610418565b80546020878701810191909152909501948101610465565b905061043b97508693506020925061042994915060ff191682840152151560051b8201019438610418565b50503461029f578160031936011261029f5760055490516001600160a01b039091168152602090f35b508234610369576020918260031936011261029f573590601654918280821091180282189161051d83611bd2565b9261052a865194856115fe565b808452601f1961053982611bd2565b0185845b8281106105ff57505050825b81811061059e57505050835192808401908085528351809252808686019401925b8281106105775785850386f35b8351805186528083015186840152870151878601526060909401939281019260010161056a565b806105bd6105b86105fa936105b38688611ba2565b611a16565b6118bb565b5060028951916105cc836115af565b8054835260018101548a8401520154898201526105e98288611bea565b526105f48187611bea565b50611b93565b610549565b885161060a816115af565b8681528683820152868a82015282828901015201869061053d565b50503461029f578160031936011261029f57602090517f00000000000000000000000000000000000000000000000000000000000000008152f35b50503461029f578160031936011261029f576020906015549051908152f35b833461036957806003193601126103695761069861190c565b600580546001600160a01b0319811690915581906001600160a01b03167f8be0079c531659141344cd1fd0a4f28419497f9722a3daafe3b4186f6b6457e08280a380f35b50503461029f57602036600319011261029f5760209181906001600160a01b03610704611660565b16815280845220549051908152f35b50503461029f578160031936011261029f5760209060ff6014541690519015158152f35b50903461024c5760209182600319360112610a21578035610756611baf565b61076460ff60145416611af8565b61076f811515611a39565b3385528484528083862054106109e85760105480156109b65761079182611a98565b92670de0b6b3a76400006107a58585611a85565b04809210610973576107b8833033611938565b301561095c57308752868652848720548381106109305790838892308452838952038683205583600254036002558186518581527fddf252ad1be2c89b69c2b068fc378daa952ba7f163c4a11628f55a4df523b3ef893092a3846008554260125561082584601154611a16565b6011553382528187528582205415610903575b508080809361085d885161084b816115af565b428152888b820152878a820152611b38565b61086981601054611ba2565b6010558181156108fa575b3390f1156108f057817f15819dd2fd9f6418b142e798d08a18d0bf06ea368f4480b7b0d3f75bd966bc489484519283528201527f2dcf9433d75db0d8b1c172641f85e319ffe4ad22e108a95d1847ceb906e5195d833392a26008549151918252602082015242604082015280606081015b0390a1600160065580f35b82513d86823e3d90fd5b506108fc610874565b6013549150811561091d5750600019016013558580610838565b634e487b7160e01b885260119052602487fd5b855163391434e360e21b8152309281019283526020830191909152604082018490529081906060010390fd5b8451634b637e8f60e11b8152908101879052602490fd5b845162461bcd60e51b8152908101869052601f60248201527f496e73756666696369656e74206c697175696469747920666f722073616c65006044820152606490fd5b835162461bcd60e51b8152808401869052600c60248201526b4e6f206c697175696469747960a01b6044820152606490fd5b5082606492519162461bcd60e51b83528201526014602482015273496e73756666696369656e742062616c616e636560601b6044820152fd5b8380fd5b50503461029f578160031936011261029f576020906013549051908152f35b50503461029f57602036600319011261029f5760209181906001600160a01b03610a6c611660565b1681526017845220549051908152f35b50503461029f578160031936011261029f576020906012549051908152f35b8284346103695780600319360112610369578151602091610abb826115e1565b60e06060928381528385820152828682015282848201528260808201528260a08201528360c08201520152825192610af2846115e1565b610afa6116cb565b8452610bca610b07611789565b91848601928352600b5490808701918252600c548588019060ff811615158252608089019060018060a01b03809160081c168252600d549160a08b01928352610b4e611822565b9360c08c0194855260ff600f54169960e08d019a15158b52610b9f87519d8e9d8e52519a8d610b8b6101009d8e6020840152610120830190611620565b915190601f199a8b82850301910152611620565b9751908c015251151560808b0152511660a08901525160c088015251908683030160e0870152611620565b91511515908301520390f35b50503461029f578160031936011261029f576020906010549051908152f35b50503461029f578160031936011261029f57517f00000000000000000000000000000000000000000000000000000000000000006001600160a01b03168152602090f35b5082903461029f57602036600319011261029f5735906016548210156103695750610c63906118bb565b5080546001820154600290920154925190815260208101919091526040810191909152606090f35b50503461029f578160031936011261029f57610ce690610ca96116cb565b90610d26610cb5611789565b91600b54600c54600d5490610cc8611822565b92610cf460ff600f54169786519a8b9a610100808d528c0190611620565b908a820360208c0152611620565b9488015260ff81161515606088015260081c6001600160a01b0316608087015260a086015284820360c0860152611620565b90151560e08301520390f35b50602080600319360112610a21578135610d4a611baf565b610d5860ff60145416611af8565b610d63811515611a39565b60ff600c541615610f4957610d7781611a98565b91670de0b6b3a7640000610d8b8484611a85565b0493843410610f1157308752868252828688205410610ed05750610db0823330611938565b610dd08551610dbe816115af565b42815284838201528387820152611b38565b85600854948460085542601255610de984601154611a16565b601155338252818352838783205414610ebd575b610e0981601054611a16565b601055803411610e86575b5050936108e591837f15819dd2fd9f6418b142e798d08a18d0bf06ea368f4480b7b0d3f75bd966bc489683519283528201527f8fafebcaf9d154343dad25669bfa277f4fbacd7ac6b0c4fed522580e040a0f33823392a251928352602083019190915242604083015281906060820190565b8180610e93819334611ba2565b818115610eb4575b3390f115610eaa578538610e14565b84513d87823e3d90fd5b506108fc610e9b565b610ec8601354611b93565b601355610dfd565b60649186519162461bcd60e51b8352820152601e60248201527f4e6f7420656e6f75676820746f6b656e7320696e2073616c6520706f6f6c00006044820152fd5b60649186519162461bcd60e51b83528201526014602482015273125b9cdd59999a58da595b9d081c185e5b595b9d60621b6044820152fd5b50606492519162461bcd60e51b83528201526013602482015272506174656e74206e6f7420666f722073616c6560681b6044820152fd5b50503461029f578160031936011261029f576020905169d3c21bcecceda10000008152f35b50503461029f578160031936011261029f576020905160128152f35b503461024c57602036600319011261024c57803590610fde61190c565b6010549067016345785d8a000083810180911161108357821115611040575083808361100c82958395611ba2565b6010556005546001600160a01b0316828215611037575bf11561102d575080f35b51903d90823e3d90fd5b506108fc611023565b606490602085519162461bcd60e51b8352820152601d60248201527f496e73756666696369656e7420657863657373206c69717569646974790000006044820152fd5b634e487b7160e01b865260118252602486fd5b508234610369576060366003190112610369576110b1611660565b6110b961167b565b916044359360018060a01b0383168083526001602052868320338452602052868320549160001983106110f5575b6020886103b6898989611938565b86831061115d57811561114657331561112f575082526001602090815286832033845281529186902090859003905582906103b6876110e7565b8751634a1406b160e11b8152908101849052602490fd5b875163e602df0560e01b8152908101849052602490fd5b8751637dc7a0d960e11b8152339181019182526020820193909352604081018790528291506060010390fd5b50503461029f578160031936011261029f576020905167016345785d8a00008152f35b50503461029f578160031936011261029f576020906002549051908152f35b50503461029f578160031936011261029f576020906011549051908152f35b503461024c578160031936011261024c57611203611660565b60243590331561127c576001600160a01b031691821561126557508083602095338152600187528181208582528752205582519081527f8c5be1e5ebec7d5bd14f71427d1e84f3dd0314c0f7b2291e5b200ac8c7c3b925843392a35160018152f35b8351634a1406b160e11b8152908101859052602490fd5b835163e602df0560e01b8152808401869052602490fd5b50503461029f578160031936011261029f57805190826003546112b581611691565b8085529160019180831690811561133e57506001146112e1575b5050506104298261043b9403836115fe565b9450600385527fc2575a0e9e593c00f959f8c92f12db2869c3395a3b0502d05e2516446f71f85b5b8286106113265750505061042982602061043b95820101946112cf565b80546020878701810191909152909501948101611309565b61043b97508693506020925061042994915060ff191682840152151560051b820101946112cf565b849150833461024c578060031936011261024c5783359367ffffffffffffffff908186116115ab57366023870112156115ab57858101359180831161159857602092601f19976113bd858a601f85011601886115fe565b8187523660248383010111611594578188926024879301838a013787010152602435916113e861190c565b855191821161158157506113fd600a54611691565b601f811161151f575b508296601f821160011461148157508086977fc0d21bdc9727f7d39495ff4dd003e22925de85f1e81aacfd7caa71e65034e9df9791611476575b508160011b916000199060031b1c191617600a555b80600b5561146c8351948486958652850190611620565b918301520390a180f35b905085015188611440565b8116600a87527fc65a7bb8d6351c1cf70c95a316cc6a92839c986682d98bc35f958f4883f9d2a890875b8181106115085750907fc0d21bdc9727f7d39495ff4dd003e22925de85f1e81aacfd7caa71e65034e9df97988360019493106114ef575b5050811b01600a55611455565b87015160001960f88460031b161c1916905588806114e2565b878a015183559885019860019092019185016114ab565b600a87527fc65a7bb8d6351c1cf70c95a316cc6a92839c986682d98bc35f958f4883f9d2a8601f830160051c810191858410611577575b601f0160051c01905b81811061156c5750611406565b87815560010161155f565b9091508190611556565b634e487b7160e01b875260419052602486fd5b8780fd5b634e487b7160e01b865260418252602486fd5b8480fd5b6060810190811067ffffffffffffffff8211176115cb57604052565b634e487b7160e01b600052604160045260246000fd5b610100810190811067ffffffffffffffff8211176115cb57604052565b90601f8019910116810190811067ffffffffffffffff8211176115cb57604052565b919082519283825260005b84811061164c575050826000602080949584010152601f8019910116010190565b60208183018101518483018201520161162b565b600435906001600160a01b038216820361167657565b600080fd5b602435906001600160a01b038216820361167657565b90600182811c921680156116c1575b60208310146116ab57565b634e487b7160e01b600052602260045260246000fd5b91607f16916116a0565b60405190600082600954916116df83611691565b808352926001908181169081156117675750600114611708575b50611706925003836115fe565b565b6009600090815291507f6e1540171b6c0c960b71a7020d9f60077f6af931a8bbf590da0223dacf75c7af5b84831061174c57506117069350508101602001386116f9565b81935090816020925483858a01015201910190918592611733565b90506020925061170694915060ff191682840152151560051b820101386116f9565b60405190600082600a549161179d83611691565b8083529260019081811690811561176757506001146117c35750611706925003836115fe565b600a600090815291507fc65a7bb8d6351c1cf70c95a316cc6a92839c986682d98bc35f958f4883f9d2a85b84831061180757506117069350508101602001386116f9565b81935090816020925483858a010152019101909185926117ee565b60405190600082600e549161183683611691565b80835292600190818116908115611767575060011461185c5750611706925003836115fe565b600e600090815291507fbb7b4a454dc3493923482f07822329ed19e8244eff582cc204f8554c3620c3fd5b8483106118a057506117069350508101602001386116f9565b81935090816020925483858a01015201910190918592611887565b6016548110156118f6576003906016600052027fd833147d7dc355ba459fc788f669e58cfaf9dc25ddcd0702e87d69c7b51242890190600090565b634e487b7160e01b600052603260045260246000fd5b6005546001600160a01b0316330361192057565b60405163118cdaa760e01b8152336004820152602490fd5b916001600160a01b038084169283156119fd57169283156119e457600090838252816020526040822054908382106119b2575091604082827fddf252ad1be2c89b69c2b068fc378daa952ba7f163c4a11628f55a4df523b3ef958760209652828652038282205586815220818154019055604051908152a3565b60405163391434e360e21b81526001600160a01b03919091166004820152602481019190915260448101839052606490fd5b60405163ec442f0560e01b815260006004820152602490fd5b604051634b637e8f60e11b815260006004820152602490fd5b91908201809211611a2357565b634e487b7160e01b600052601160045260246000fd5b15611a4057565b60405162461bcd60e51b815260206004820152601d60248201527f416d6f756e74206d7573742062652067726561746572207468616e20300000006044820152606490fd5b81810292918115918404141715611a2357565b8015611aa48115611a39565b670de0b6b3a7640000808302928304141715611a235760155460018101809111611a23578015611ae2576402540be40091048101809111611a235790565b634e487b7160e01b600052601260045260246000fd5b15611aff57565b60405162461bcd60e51b8152602060048201526011602482015270151c98591a5b99c81a5cc81c185d5cd959607a1b6044820152606490fd5b601654680100000000000000008110156115cb57806001611b5c92016016556118bb565b919091611b7d57604081600292518455602081015160018501550151910155565b634e487b7160e01b600052600060045260246000fd5b6000198114611a235760010190565b91908203918211611a2357565b600260065414611bc0576002600655565b604051633ee5aeb560e01b8152600490fd5b67ffffffffffffffff81116115cb5760051b60200190565b80518210156118f65760209160051b01019056fea2646970667358221220376fe9f696829a61b832158676d642fe35a9f0da2419a884298d60c03ebfc67964736f6c63430008140033bb7b4a454dc3493923482f07822329ed19e8244eff582cc204f8554c3620c3fdc65a7bb8d6351c1cf70c95a316cc6a92839c986682d98bc35f958f4883f9d2a86e1540171b6c0c960b71a7020d9f60077f6af931a8bbf590da0223dacf75c7af",
  "linkReferences": {},
  "deployedLinkReferences": {}
}